:020000040800F2
:10000000005000207D2201082D23010895B700082B
:100010002D2301082D2301082D23010800000000D5
:100020000000000000000000000000002D23010877
:100030002D230108000000002D2301089D820008E7
:100040002D2301082D2301082D2301082D2301084C
:100050002D2301082D2301082D230108CD5A000866
:100060002D2301082D2301082D2301082D2301082C
:100070002D2301082D230108698C00082D23010878
:100080002D2301082D2301082D2301082D2301080C
:100090002D2301082D2301082D230108D15A000822
:1000A0002D2301082D2301082D230108598800085C
:1000B000658800086D88000879880008C96700080D
:1000C000A96B0008CD670008A56B00082D23010867
:1000D0002D2301089D8C0008DD8C00082D230108CC
:1000E000F95300082D2301082D230108000000000A
:1000F0000000000000000000000000000000000000
:0C01000000000000000000005FF808F1A3
:10010C0010B5054C237833B9044810B10448AFF34B
:10011C0000800121217010BDA4050020000000000A
:10012C006C7B010808B5064B1BB106480649AFF3BA
:10013C0000800648016811B1054A02B1904708BD1C
:10014C00000000006C7B0108A8050020A40500201D
:10015C000000000081F0004102E000BF83F000438A
:10016C0030B54FEA41044FEA430594EA050F08BF46
:10017C0090EA020F1FBF54EA000C55EA020C7FEA0A
:10018C00645C7FEA655C00F0E2804FEA5454D4EB87
:10019C005555B8BF6D420CDD2C4480EA020281EA51
:1001AC00030382EA000083EA010180EA020281EA89
:1001BC000303362D88BF30BD11F0004F4FEA0131DB
:1001CC004FF4801C4CEA113102D0404261EB4101EA
:1001DC0013F0004F4FEA03334CEA133302D0524270
:1001EC0063EB430394EA050F00F0A780A4F101042C
:1001FC00D5F1200E0DDB02FA0EFC22FA05F2801866
:10020C0041F1000103FA0EF2801843FA05F359414B
:10021C000EE0A5F120050EF1200E012A03FA0EFCCA
:10022C0028BF4CF0020C43FA05F3C01851EBE371F4
:10023C0001F0004507D54FF0000EDCF1000C7EEB11
:10024C0000006EEB0101B1F5801F1BD3B1F5001F4F
:10025C000CD349085FEA30004FEA3C0C04F101046E
:10026C004FEA445212F5800F80F09A80BCF1004F97
:10027C0008BF5FEA500C50F1000041EB045141EA19
:10028C00050130BD5FEA4C0C404141EB010111F41A
:10029C00801FA4F10104E9D191F0000F04BF0146C5
:1002AC000020B1FA81F308BF2033A3F10B03B3F1A3
:1002BC0020020CDA0C3208DD02F1140CC2F10C0233
:1002CC0001FA0CF021FA02F10CE002F11402D8BF91
:1002DC00C2F1200C01FA02F120FA0CFCDCBF41EA5D
:1002EC000C019040E41AA2BF01EB0451294330BD2C
:1002FC006FEA04041F3C1CDA0C340EDC04F1140409
:10030C00C4F1200220FA04F001FA02F340EA0300DF
:10031C0021FA04F345EA030130BDC4F10C04C4F125
:10032C00200220FA02F001FA04F340EA0300294605
:10033C0030BD21FA04F0294630BD94F0000F83F44F
:10034C00801306BF81F480110134013D4EE77FEA32
:10035C00645C18BF7FEA655C29D094EA050F08BF7E
:10036C0090EA020F05D054EA000C04BF194610465F
:10037C0030BD91EA030F1EBF0021002030BD5FEAA3
:10038C00545C05D14000494128BF41F0004130BDCB
:10039C0014F580043CBF01F5801130BD01F000451F
:1003AC0045F0FE4141F470014FF0000030BD7FEA92
:1003BC00645C1ABF194610467FEA655C1CBF0B468D
:1003CC00024650EA013406BF52EA033591EA030FA4
:1003DC0041F4002130BD00BF90F0000F04BF00219C
:1003EC00704730B54FF4806404F132044FF00005CF
:1003FC004FF0000150E700BF90F0000F04BF002148
:10040C00704730B54FF4806404F1320410F00045AD
:10041C0048BF40424FF000013EE700BF42004FEAA8
:10042C00E2014FEA31014FEA02701FBF12F07F4325
:10043C0093F07F4F81F06051704792F0000F14BF22
:10044C0093F07F4F704730B54FF4607401F0004566
:10045C0021F0004120E700BF50EA010208BF7047BD
:10046C0030B54FF000050AE050EA010208BF7047B2
:10047C0030B511F0004502D5404261EB41014FF41B
:10048C00806404F132045FEA915C3FF4DCAE4FF01F
:10049C0003025FEADC0C18BF03325FEADC0C18BF06
:1004AC00033202EBDC02C2F1200300FA03FC20FA57
:1004BC0002F001FA03FE40EA0E0021FA02F11444A4
:1004CC00C1E600BF70B54FF0FF0C4CF4E06C1CEAB9
:1004DC0011541DBF1CEA135594EA0C0F95EA0C0F2E
:1004EC0000F0DEF82C4481EA030621EA4C5123EAA1
:1004FC004C5350EA013518BF52EA033541F48011D0
:10050C0043F4801338D0A0FB02CE4FF00005E1FB82
:10051C0002E506F00042E0FB03E54FF00006E1FBCC
:10052C0003569CF0000F18BF4EF0010EA4F1FF040F
:10053C00B6F5007F64F5407404D25FEA4E0E6D414F
:10054C0046EB060642EAC62141EA55514FEAC52060
:10055C0040EA5E504FEACE2EB4F1FD0C88BFBCF5DC
:10056C00E06F1ED8BEF1004F08BF5FEA500E50F18D
:10057C00000041EB045170BD06F0004646EA010153
:10058C0040EA020081EA0301B4EB5C04C2BFD4EB85
:10059C000C0541EA045170BD41F480114FF0000E7E
:1005AC00013C00F3AB8014F1360FDEBF002001F0EC
:1005BC00004170BDC4F10004203C35DA0C341BDC66
:1005CC0004F11404C4F1200500FA05F320FA04F038
:1005DC0001FA05F240EA020001F0004221F000416C
:1005EC0010EBD37021FA04F642EB06015EEA430EDF
:1005FC0008BF20EAD37070BDC4F10C04C4F120050F
:10060C0000FA04F320FA05F001FA04F240EA0200C1
:10061C0001F0004110EBD37041F100015EEA430E92
:10062C0008BF20EAD37070BDC4F1200500FA05F2B2
:10063C004EEA020E20FA04F301FA05F243EA020331
:10064C0021FA04F001F0004121FA04F220EA020040
:10065C0000EBD3705EEA430E08BF20EAD37070BD86
:10066C0094F0000F0FD101F00046400041EB010166
:10067C0011F4801F08BF013CF7D041EA060195F048
:10068C00000F18BF704703F00046520043EB030302
:10069C0013F4801F08BF013DF7D043EA06037047EF
:1006AC0094EA0C0F0CEA135518BF95EA0C0F0CD0FA
:1006BC0050EA410618BF52EA4306D1D181EA030140
:1006CC0001F000414FF0000070BD50EA410606BF3A
:1006DC001046194652EA430619D094EA0C0F02D17F
:1006EC0050EA013613D195EA0C0F05D152EA0336C4
:1006FC001CBF104619460AD181EA030101F00041E2
:10070C0041F0FE4141F470014FF0000070BD41F02A
:10071C00FE4141F4780170BD70B54FF0FF0C4CF404
:10072C00E06C1CEA11541DBF1CEA135594EA0C0F23
:10073C0095EA0C0F00F0A7F8A4EB050481EA030E70
:10074C0052EA03354FEA013100F088804FEA033357
:10075C004FF0805545EA131343EA12634FEA022225
:10076C0045EA111545EA10654FEA00260EF00041E6
:10077C009D4208BF964244F1FD0404F5407402D238
:10078C005B084FEA3202B61A65EB03055B084FEAC9
:10079C0032024FF480104FF4002CB6EB020E75EBC6
:1007AC00030E22BFB61A754640EA0C005B084FEAEE
:1007BC003202B6EB020E75EB030E22BFB61A75466B
:1007CC0040EA5C005B084FEA3202B6EB020E75EBB6
:1007DC00030E22BFB61A754640EA9C005B084FEA2E
:1007EC003202B6EB020E75EB030E22BFB61A75463B
:1007FC0040EADC0055EA060E18D04FEA051545EA2A
:10080C0016754FEA06164FEAC30343EA52734FEAD2
:10081C00C2025FEA1C1CC0D111F4801F0BD141EA4B
:10082C0000014FF000004FF0004CB6E711F4801FB0
:10083C0004BF01430020B4F1FD0C88BFBCF5E06F90
:10084C003FF6AFAEB5EB030C04BFB6EB020C5FEAA0
:10085C00500C50F1000041EB045170BD0EF0004EF5
:10086C004EEA113114EB5C04C2BFD4EB0C0541EA27
:10087C00045170BD41F480114FF0000E013C90E624
:10088C0045EA060E8DE60CEA135594EA0C0F08BFE8
:10089C0095EA0C0F3FF43BAF94EA0C0F0AD150EAE7
:1008AC0001347FF434AF95EA0C0F7FF425AF10467A
:1008BC0019462CE795EA0C0F06D152EA03353FF4A2
:1008CC00FDAE1046194622E750EA410618BF52EA1F
:1008DC0043067FF4C5AE50EA41047FF40DAF52EAF3
:1008EC0043057FF4EBAE12E74FEA4102B2F1E0436D
:1008FC0024BFB3F5001CDCF1FE5C0DD901F0004CFB
:10090C004FEAC0024CEA5070B2F1004F40EB83004A
:10091C0008BF20F00100704711F0804F21D113F176
:10092C003872BCBF01F00040704741F480114FEAAF
:10093C005252C2F11802C2F1200C10FA0CF320FA38
:10094C0002F018BF40F001004FEAC1234FEAD32355
:10095C0003FA0CFC40EA0C0023FA02F34FEA4303BF
:10096C00CCE77FEA625307D150EA01331EBF4FF048
:10097C00FE4040F44000704701F0004040F0FE4063
:10098C0040F40000704700BF80F0004002E000BF60
:10099C0081F0004142001FBF5FEA410392EA030F5E
:1009AC007FEA226C7FEA236C6AD04FEA1262D2EBA8
:1009BC001363C1BFD218414048404140B8BF5B42AD
:1009CC00192B88BF704710F0004F40F4000020F046
:1009DC007F4018BF404211F0004F41F4000121F05C
:1009EC007F4118BF494292EA030F3FD0A2F10102A6
:1009FC0041FA03FC10EB0C00C3F1200301FA03F1E4
:100A0C0000F0004302D5494260EB4000B0F5000F06
:100A1C0013D3B0F1807F06D340084FEA310102F1C5
:100A2C000102FE2A51D2B1F1004F40EBC25008BF77
:100A3C0020F0010040EA03007047490040EB000041
:100A4C0010F4000FA2F10102EDD1B0FA80FCACF170
:100A5C00080CB2EB0C0200FA0CF0AABF00EBC2506F
:100A6C0052421843BCBFD0401843704792F0000F5D
:100A7C0081F4000106BF80F400000132013BB5E7B0
:100A8C004FEA41037FEA226C18BF7FEA236C21D026
:100A9C0092EA030F04D092F0000F08BF084670478B
:100AAC0090EA010F1CBF0020704712F07F4F04D159
:100ABC00400028BF40F00040704712F100723CBF6C
:100ACC0000F50000704700F0004343F0FE4040F496
:100ADC00000070477FEA226216BF08467FEA236354
:100AEC000146420206BF5FEA412390EA010F40F43F
:100AFC00800070474FF0000304E000BF10F000438B
:100B0C0048BF40425FEA000C08BF704743F0964371
:100B1C0001464FF000001CE050EA010208BF70478C
:100B2C004FF000030AE000BF50EA010208BF704713
:100B3C0011F0004302D5404261EB41015FEA010C28
:100B4C0002BF84460146002043F0B64308BFA3F120
:100B5C008053A3F50003BCFA8CF2083AA3EBC25302
:100B6C0010DB01FA02FC634400FA02FCC2F1200221
:100B7C00BCF1004F20FA02F243EB020008BF20F058
:100B8C000100704702F1200201FA02FCC2F12002BE
:100B9C0050EA4C0021FA02F243EB020008BF20EAB3
:100BAC00DC7070474FF0FF0C1CEAD0521EBF1CEAE1
:100BBC00D15392EA0C0F93EA0C0F6FD01A4480EACF
:100BCC00010C400218BF5FEA41211ED04FF00063B8
:100BDC0043EA501043EA5111A0FB01310CF00040E4
:100BEC00B1F5000F3EBF490041EAD3715B0040EA0A
:100BFC00010062F17F02FD2A1DD8B3F1004F40EBDA
:100C0C00C25008BF20F00100704790F0000F0CF0AC
:100C1C00004C08BF49024CEA502040EA51207F3A70
:100C2C00C2BFD2F1FF0340EAC250704740F400004B
:100C3C004FF00003013A5DDC12F1190FDCBF00F03C
:100C4C0000407047C2F10002410021FA02F1C2F1EA
:100C5C00200200FA02FC5FEA310040F1000053EA86
:100C6C004C0308BF20EADC70704792F0000F00F0D4
:100C7C00004C02BF400010F4000F013AF9D040EADA
:100C8C000C0093F0000F01F0004C02BF490011F46E
:100C9C00000F013BF9D041EA0C018FE70CEAD1536C
:100CAC0092EA0C0F18BF93EA0C0F0AD030F0004CEC
:100CBC0018BF31F0004CD8D180EA010000F00040A0
:100CCC00704790F0000F17BF90F0004F084691F05E
:100CDC00000F91F0004F14D092EA0C0F01D1420298
:100CEC000FD193EA0C0F03D14B0218BF084608D161
:100CFC0080EA010000F0004040F0FE4040F40000AB
:100D0C00704740F0FE4040F4400070474FF0FF0C3D
:100D1C001CEAD0521EBF1CEAD15392EA0C0F93EA84
:100D2C000C0F69D0A2EB030280EA010C49024FEAD6
:100D3C00402037D04FF0805343EA111143EA10138F
:100D4C000CF000408B4238BF5B0042F17D024FF447
:100D5C00000C8B4224BF5B1A40EA0C00B3EB510F22
:100D6C0024BFA3EB510340EA5C00B3EB910F24BF0B
:100D7C00A3EB910340EA9C00B3EBD10F24BFA3EB90
:100D8C00D10340EADC001B0118BF5FEA1C1CE0D158
:100D9C00FD2A3FF650AF8B4240EBC25008BF20F00B
:100DAC00010070470CF0004C4CEA50207F32C2BF5F
:100DBC00D2F1FF0340EAC250704740F400004FF0FC
:100DCC000003013A37E792F0000F00F0004C02BF2D
:100DDC00400010F4000F013AF9D040EA0C0093F0F7
:100DEC00000F01F0004C02BF490011F4000F013B51
:100DFC00F9D041EA0C0195E70CEAD15392EA0C0FB9
:100E0C0008D142027FF47DAF93EA0C0F7FF470AFF0
:100E1C00084676E793EA0C0F04D14B023FF44CAF33
:100E2C0008466EE730F0004C18BF31F0004CCAD1C8
:100E3C0030F000427FF45CAF31F000437FF43CAF04
:100E4C005FE700BF4FF0FF3C06E000BF4FF0010C26
:100E5C0002E000BF4FF0010C4DF804CD4FEA400208
:100E6C004FEA41037FEA226C18BF7FEA236C11D052
:100E7C0001B052EA530C18BF90EA010F58BFB2EB05
:100E8C00030088BFC81738BF6FEAE17018BF40F085
:100E9C00010070477FEA226C02D15FEA402C05D139
:100EAC007FEA236CE4D15FEA412CE1D05DF8040BBE
:100EBC00704700BF844608466146FFE70FB5FFF751
:100ECC00C9FF002848BF10F1000F0FBD4DF808ED09
:100EDC00FFF7F4FF0CBF012000205DF808FB00BFFA
:100EEC004DF808EDFFF7EAFF34BF012000205DF854
:100EFC0008FB00BF4DF808EDFFF7E0FF94BF0120A1
:100F0C0000205DF808FB00BF4DF808EDFFF7D2FF9D
:100F1C0094BF012000205DF808FB00BF4DF808EDE0
:100F2C00FFF7C8FF34BF012000205DF808FB00BFAD
:100F3C004FEA4002B2F1FE4F0FD34FF09E03B3EBDA
:100F4C0012620DD94FEA002343F0004310F0004F1A
:100F5C0023FA02F018BF404270474FF00000704770
:100F6C0012F1610F01D1420205D110F0004008BF0F
:100F7C006FF0004070474FF00000704742000ED2F7
:100F8C00B2F1FE4F0BD34FF09E03B3EB126209D4B8
:100F9C004FEA002343F0004323FA02F070474FF06E
:100FAC000000704712F1610F01D1420202D14FF0E3
:100FBC00FF3070474FF00000704700BF4FF4805374
:100FCC00C4F202031968002241F00100186059684C
:100FDC00CFF6FF020A405A6018684FF46D4220F0B9
:100FEC00847121F4803018601968CEF2000221F46B
:100FFC0080201860596821F4FE004FF41F015860DE
:10100C0099604FF000639360704700BF4FF48053BA
:10101C00C4F202035A6802F00C00042813D008280A
:10102C0014D04FF49052C0F27A024FF48051C4F2B3
:10103C0002014B681349C3F303100B5C124822FAEC
:10104C0003F202607047114A1268EEE7586859685B
:10105C00C0F383420232C90309D55B680B4813F411
:10106C00003F01680AD04B0803FB02F2DDE74FF4A6
:10107C001060C0F23D0000FB02F2D6E701FB02F269
:10108C00D3E700BF00000020140000201000002057
:10109C0010B5002284B04FF4E0104FF4805300924E
:1010AC00C4F2020301920292039019681C4641F4A7
:1010BC0080321A60986940F01001996103E0009A3F
:1010CC00B2F5A06F09D0236803F4003201920098A6
:1010DC00411C0091019B002BF1D04FF48054C4F2C1
:1010EC000204206810F400317CD0022402944FF4E6
:1010FC000052C4F2020211684FF4805341F0100008
:10110C0010601468C4F2020324F00301116010682B
:10111C0041F2040140F0020414605A68C4F2010167
:10112C005A605C6845485C605C684FF4905244F4CB
:10113C0080645C600C68C0F27A0224F070440C602D
:10114C0002605C684FF4805224F47C145C600B6881
:10115C00C4F2010243F000430B60D16821F4004358
:10116C00D360926813042ED54FF4D851C0F2B70156
:10117C0001604FF480100390029B012B29D0022BAD
:10118C0050D04FF48050C4F202000268014642F085
:10119C008073036008684FF480538001C4F202032B
:1011AC00F8D559681A4621F003005860596841F087
:1011BC0002005860536803F00C010829FAD1FFF7BC
:1011CC0025FF04B010BD4FF4E0100390029B012BDF
:1011DC00D5D14FF48050C4F20200426842F460133F
:1011EC004360CEE72368224643F001002060009163
:1011FC0003E00099B1F5A06F09D0146804F0020166
:10120C000191009B581C0090019C002CF1D04FF4D4
:10121C008052C4F2020213689A0702D50120029090
:10122C0065E7FEE74FF48050C4F202004168039A70
:10123C0041EA020343F480314160A2E71000002030
:10124C0040F0BF604FF46D4340F40031CEF2000328
:10125C00D9607047C37830B47BB90078012100F0B5
:10126C001F0201FA02F140094FF46143CEF2000370
:10127C00203043F8201030BC70474FF46D44CEF250
:10128C000004E5684478EA43C2F302230F2525FAEB
:10129C0003F2C3F1040104FA01F48578037802EA3D
:1012AC00050121430A0103F16043D1B203F5614208
:1012BC0082F800130078012100F01F0301FA03F1FA
:1012CC004FF46143CEF20003420943F82210D2E7F7
:1012DC0042680B6870B422F470250C7925F4807682
:1012EC0046EA030242EA0423436086688C68CA68B3
:1012FC004FF2FD73CFF6F1734D7922433340134314
:10130C0043EA45028260097CC26A4B1E22F47001DA
:10131C00DAB241EA0253C36270BC7047836819B9F0
:10132C0023F001018160704743F001028260704735
:10133C00836819B923F480718160704743F480721B
:10134C0082607047836843F008018160704700BF7A
:10135C008068C0F3C0007047836843F0040181606B
:10136C00704700BF8068C0F380007047836819B96C
:10137C0023F4A0018160704743F4A002826070479F
:10138C00092970B401EB41041ED91E3C072606FA4C
:10139C0004F603FA04F4C568062A25EA060343EAB0
:1013AC000403C3601DD90C2A02EB820227D9413AEF
:1013BC001F2404FA02F401FA02F1C36A23EA0402BC
:1013CC000A43C26270BC7047072606FA04F603FA99
:1013DC0004F40569062A25EA060343EA04030361BB
:1013EC00E1D8541E04EB84031F2404FA03F401FA1D
:1013FC0003F1426B22EA04030B434363E2E7233A13
:10140C001F2404FA02F401FA02F1036B23EA04022A
:10141C000A430263D6E700BF10B4082104684FF6F4
:10142C00FE72C4F202010023224088420260036073
:10143C0043608360C36047D01C23C4F2020398420C
:10144C0049D03022C4F2020290424CD04421C4F262
:10145C00020188424FD05823C4F2020398425BD059
:10146C006C22C4F2020290425ED08021C4F20201CE
:10147C0088421FD04FF48163C4F20203984221D0FA
:10148C0040F21C42C4F20202904255D04FF48661E5
:10149C00C4F20201884258D040F24443C4F2020321
:1014AC0098425BD04FF48B62C4F2020290422AD075
:1014BC0010BC70470021C4F202014A6842F070600F
:1014CC004860F5E74FF48063C4F202035A6842F0B7
:1014DC000F015960ECE70023C4F20203596841F094
:1014EC00F0005860E4E70021C4F20201486840F4BF
:1014FC0070624A60DCE70020C4F20200426842F4E9
:10150C0070434360D4E74FF48060C4F2020041683A
:10151C0041F470234360CBE70020C4F2020043681F
:10152C0043F470214160C3E70023C4F202035968FD
:10153C0041F470025A60BBE74FF48061C4F20201BF
:10154C004B6843F0F0004860B2E74FF48063C4F29C
:10155C000203586840F470625A60A9E74FF4806047
:10156C00C4F20200426842F470414160A0E700BF3F
:10157C008B68F0B40D6A0C694A691D438E6945EAA3
:10158C0004031343CA6905684F6A43EA060414430B
:10159C008E6A25F4FF4C27430D68CC682CF0700341
:1015AC0049683E431E43066044608560C160F0BCE0
:1015BC00704700BF0023036043608360C360036116
:1015CC0043618361C361036243628362704700BFFE
:1015DC0029B902684FF6FE73134003607047016827
:1015EC0041F001020260704703681AB923EA010155
:1015FC000160704719430160704700BF416070473C
:10160C00406880B2704700BFC3004CBF4FF480638A
:10161C000023C4F202035860704700BF837930B4D2
:10162C003BB34FF48063C4F2010301681D68CC43E3
:10163C0025401D605D6802792C4002F180455C609C
:10164C0005F582321568447929431160026898685F
:10165C00D14308409860D868102C01EA0001D96089
:10166C0013D004F1804303F5823421680A432260CD
:10167C0009E00279016802F1804000F582331A68B2
:10168C0022EA01021A6030BC7047986810439860D7
:10169C00D9680A43DA60F6E74FF48063C4F20103B9
:1016AC001A68596910EA010304D010420CBF0020DB
:1016BC0001207047184670474FF48063C4F2010351
:1016CC00586170474FF4005340F2231148F6AB12A7
:1016DC00C4F20203C4F26751CCF6EF5259605A605F
:1016EC00704700BF4FF40053C4F202031A6942F072
:1016FC0080001861704700BF4FF40053C4F202031E
:10170C00D86070474FF40053C4F20203DA68D20772
:10171C000BD4D868400701D502207047D96811F066
:10172C00100F0CBF0420032070470120704700BF2E
:10173C0010B50446FFF7E6FF012815D1B4B1FFF749
:10174C00E1FF013C012804F001030DD174B10BB190
:10175C0005E05CB1FFF7D6FF013C012804D1FFF78F
:10176C00D1FF013C0128F4D004B110BD052010BDFF
:10177C0070B5002382B005464FF400500C4601931F
:10178C00FFF7D6FF042801D002B070BD4FF400560D
:10179C00C4F202063269A1B242F0010030614FF48A
:1017AC0000502980FFF7C4FF042805D0326941F6A8
:1017BC00FE7313403361E7E7023501950199240C60
:1017CC000C804FF40050FFF7B3FF326941F6FE7303
:1017DC0013403361D8E700BF38B505464FF43020CD
:1017EC00FFF7A6FF042800D038BD4FF40054C4F214
:1017FC00020423694FF4302043F00201216165613A
:10180C00226942F040032361FFF792FF216941F600
:10181C00FD720A40226138BD01F0030310B40F229F
:10182C009C0002FA04F200FA04F089080023C4F2C6
:10183C000103023153F8214024EA020243F821202B
:10184C0053F82120104343F8210010BC704700BF0F
:10185C0008B54FF4A843C4F2000398420BD0012101
:10186C004FF4800000F07EF94FF480000021BDE8B9
:10187C00084000F077B901214FF4001000F072F924
:10188C004FF400100021BDE8084000F06BB900BF18
:10189C00F0B587B00446868801A80D4600F0CCF858
:1018AC0003994DF68363C4F21B33A3FB012026F08E
:1018BC003F073A04870C160C1FFA87FC4CEA060308
:1018CC00A380228848F2A06022F001062A68330423
:1018DC00C0F201001E0C8242268024D85200B1FBBB
:1018EC00F2F6B1B20CF1010EA4F820E0032998BF76
:1018FC000421A18320886E8983B243F001012180E9
:10190C002288A88822F4816323F00203AA892989FA
:10191C001B041B0C3043034311439BB28AB223803C
:10192C00228107B0F0BDE8884BF6FF7398421DD0BA
:10193C0002EB820202EB8206B1FBF6F141F480402D
:10194C0081B20E05300D08B941F001014FF49673C8
:10195C0003FB07F744F6D352C1F2620282FB07364F
:10196C00B009431C41F400412384C2E702EB42035B
:10197C00B1FBF3F291B2E4E7002341F288328380A9
:10198C004BF6FF71038143814FF480430260C180A9
:10199C0083817047038829B923F001010A04130CD1
:1019AC000380704799B241F001020280704700BF7A
:1019BC00038829B923F480710A04130C038070473F
:1019CC0099B241F480720280704700BF038829B934
:1019DC0023F400710A04130C0380704799B241F48C
:1019EC0000720280704700BF038829B923F480611C
:1019FC000A04130C0380704799B241F48062028090
:101A0C00704700BF83889BB21AB923EA0101818019
:101A1C00704719438180704701827047008AC0B2B9
:101A2C00704700BF1AB901F0FE010182704741F006
:101A3C0001010182704700BF4FF48053C4F20203CE
:101A4C005A6810B402F00C0104292AD008292CD0B1
:101A5C004FF49052C0F27A0202604FF48053C4F2F9
:101A6C0002035C682049C4F303140C5D22FA04F2EF
:101A7C0042605C68C4F302240C5D22FA04F48460B6
:101A8C005C68C4F3C224095D22FA01F2C2605B688F
:101A9C001649C3F38133CB5CB2FBF3F2026110BC89
:101AAC007047134A12680260D7E75C685968C4F340
:101ABC0083420232C9030AD55B680D4C13F4003F14
:101ACC0021680CD04B0803FB02F20260C5E74FF40F
:101ADC001064C0F23D0404FB02F20260BDE701FB9E
:101AEC0002F20260B9E700BF1C00002018000020C1
:101AFC00100000204FF48053C4F202035A6919B944
:101B0C0022EA00005861704710435861704700BFCB
:101B1C004FF48053C4F202039A6919B922EA000007
:101B2C009861704710439861704700BF4FF4805321
:101B3C00C4F20203DA6919B922EA0000D8617047CD
:101B4C001043D861704700BF4FF48053C4F20203B6
:101B5C00DA6819B922EA0000D86070471043D860DF
:101B6C00704700BF4FF48053C4F202031A6919B9CD
:101B7C0022EA00001861704710431861704700BFDB
:101B8C004FF48053C4F202035A6A42F080705862D8
:101B9C00704700BF08B54FF44053C4F2010398429C
:101BAC0018D04FF46051C4F2000188421ED04FF49B
:101BBC007052C4F20002904200D008BD01214FF4D3
:101BCC000040FFF7CFFF4FF400400021BDE8084074
:101BDC00FFF7C8BF01214FF48050FFF7B5FF4FF45A
:101BEC0080500021BDE80840FFF7AEBF01214FF443
:101BFC008040FFF7B7FF4FF480400021BDE808405C
:101C0C00FFF7B0BF0A88F0B44C888B88CD8814439A
:101C1C000E891C432C434B898F8944EA06020588A4
:101C2C00CE8913433B43334305F4415545EA030244
:101C3C0093B20380838B098A23F4006213041A0C79
:101C4C0082830182F0BC7047038829B923F04001DC
:101C5C000A04130C0380704799B241F040020280D1
:101C6C00704700BF81817047808980B2704700BF88
:101C7C00038919420CBF00200120704770B4048CFA
:101C8C004FF4305524F001063404260C0684048BE2
:101C9C00C4F2010524F0F3042404240C2243068C22
:101CAC0042EA0313A842B6B29CB223D04FF450526E
:101CBC00C4F2010290421DD0B0F1804F1AD04FF403
:101CCC008063C4F20003984214D04FF40062C4F253
:101CDC00000290420ED04FF44063C4F200039842CD
:101CEC0008D026F00A0646F001063143048301842D
:101CFC0070BC704726F0020242F001063143F5E752
:101D0C0070B4048C4FF4305524F010063404260CB7
:101D1C000684048BC4F2010524F440742405240DBC
:101D2C00068C44EA022242EA0333A842B6B29BB2C2
:101D3C0023D04FF45052C4F2010290421DD0B0F1A6
:101D4C00804F1AD04FF48062C4F20002904214D03B
:101D5C004FF40062C4F2000290420ED04FF4406285
:101D6C00C4F20002904208D026F0A00646F01006FD
:101D7C0031430383018470BC704726F0200242F08B
:101D8C00100646EA011189B2F3E700BF4FF4305256
:101D9C000388C4F20102904270B49BB21AD04FF483
:101DAC005052C4F20102904214D0B0F1804F11D0C5
:101DBC004FF48062C4F2000290420BD04FF40062E8
:101DCC00C4F20002904205D04FF44062C4F200020B
:101DDC00904205D14FF68F724C881A4042EA0403A8
:101DEC004FF48052C4F20002904234D04FF4A0520F
:101DFC00C4F2000290422ED04FF6FF42CE881A4019
:101E0C004FF430538D880C88C4F20103324398424E
:101E1C000280858504851BD04FF45052C4F2010218
:101E2C00904215D04FF48043C4F2010398420FD076
:101E3C004FF48842C4F20102904209D04FF490430F
:101E4C00C4F20103984203D00122828270BC704715
:101E5C00097A0186F8E703808B88838509880185D8
:101E6C00F2E700BF038C2DE9F00123F0010214040A
:101E7C00250C0584078C0D8984884E88038B2E4392
:101E8C0023F073024FF4305527F0020312041B04A5
:101E9C000F88C4F20105120C1B0CB6B2A842A4B2F6
:101EAC0042EA070246EA03031FD04FF45055C4F22E
:101EBC000105A84219D04FF48045C4F20105A8428F
:101ECC0013D04FF48845C4F20105A8420DD04FF44D
:101EDC009045C4F20105A84207D0C98884800283CA
:101EEC0081860384BDE8F00170474FF6F776B1F8B0
:101EFC000AC0B1F80E808F891E4046EA0C0C4FF6D2
:101F0C00FB738E884FF6FF4548EA070725400CEA1D
:101F1C000303BCB233432C43DFE700BF038CF0B4A4
:101F2C0023F010021404250C0584068C848826F0FA
:101F3C002002078B16040D89320C27F4E6431B0490
:101F4C0042EA05120F884E884FF430551B0CC4F230
:101F5C00010543EA072342EA0612A842A4B29BB247
:101F6C0092B20CD04FF45055C4F20105A84206D0E1
:101F7C00C9888480038301870284F0BC70474F8931
:101F8C004FF67F7616404FF2FF35B1F80CC0254066
:101F9C0046EA07164FF6BF728F88CC89324045EA65
:101FAC008C0542EA071245EA840492B2A4B2DFE738
:101FBC00038CF0B423F480721404250C0584068C75
:101FCC000D8926F400773A048488838B120C23F055
:101FDC00730642EA05224F884FF430553304C4F29D
:101FEC0001050E881B0C42EA0722A842A4B243EA60
:101FFC00060392B20CD04FF45055C4F20105A8421E
:10200C0006D0C9888480838381870284F0BC7047A2
:10201C004F894FF2FF7616404CF6FF75B1F80CC0A5
:10202C00254046EA07264FF6FF328F88CC8932408E
:10203C0045EA0C1542EA072245EA041492B2A4B20E
:10204C00DFE700BF038CF0B423F480521404250C9A
:10205C000584068C858826F40052878B16040C891F
:10206C00320C27F4E6431B0442EA04320F884E88F4
:10207C004FF430541B0CC4F2010443EA072342EA28
:10208C000632A042ADB29BB292B20DD04FF4505476
:10209C00C4F20104A04207D0C98885808383A0F8CC
:1020AC0040100284F0BC70474BF6FF748E892C40B4
:1020BC0044EA8615ADB2EFE7F8B50B880D46044639
:1020CC00002B58D0042B00F0B080082B028C63D06E
:1020DC0022F480508F8801040B0C2E89698823848C
:1020EC00A08B4FF4305220F440731805030D43EAD3
:1020FC000723208CC4F2010243EA0633944280B2D7
:10210C009BB230D04FF45052C4F2010294422AD008
:10211C00B4F1804F27D04FF48062C4F20002944295
:10212C0021D04FF40062C4F2000294421BD04FF451
:10213C004062C4F20002944215D047F6FF520240AE
:10214C0041F480510A43A3832284A38BE88823F4AF
:10215C00406211040B0CA383A28B91B241EA0020C4
:10216C0083B2A383F8BD20F4005040EA013291B24F
:10217C0041F48052E7E74988AA882B89FFF77EFD56
:10218C00238BE98823F00C021004030C2383228B8D
:10219C0090B208432083F8BD22F4807637043A0CC1
:1021AC0089882F896E880284808B4FF4305220F0FE
:1021BC00F3031804030C43EA0713208CC4F2010246
:1021CC009BB2944280B243EA010341D04FF4505188
:1021DC00C4F201018C423BD0B4F1804F38D04FF4A3
:1021EC008062C4F20002944232D04FF40061C4F217
:1021FC0000018C422CD04FF44062C4F20002944295
:10220C0026D04FF2FF51014046F480763143A38330
:10221C002184A38BE88823F00C0211040B0CA383FC
:10222C00A28B91B20143A183F8BD4988AA882B895E
:10223C00FFF766FD208BEA8820F440631904080C34
:10224C002083238B99B241EA022290B22083F8BDFD
:10225C0020F4007040EA062291B241F48071D6E776
:10226C0000234FF6FF7181800380C380438003728B
:10227C00704700BF0023038043808380C3800381A9
:10228C0043818381C38170470023012203804380F3
:10229C008280C38003817047038829B923F0010130
:1022AC000A04130C0380704799B241F001020280BA
:1022BC00704700BFB0F8443021B959044A0CA0F85B
:1022CC00442070476FEA43436FEA53418AB2A0F847
:1022DC004420704783899BB21AB923EA010181819A
:1022EC007047194381817047038B23F00802130454
:1022FC001A0C114301837047038B23F400621304FF
:10230C001A0C42EA01218BB203837047838B23F0B2
:10231C00080213041A0C114381837047838B23F436
:10232C00006213041A0C42EA01218BB283837047BA
:10233C00808E80B2704700BF008F80B2704700BFA4
:10234C00808F80B2704700BFB0F8400080B27047F9
:10235C00038A828911EA030092B203D011420CBFA6
:10236C0000200120704700BFC9438AB20282704727
:10237C00038A70B5044623F44050CA880D46010404
:10238C000E0C16432682A389AA88288923F4B056FA
:10239C00698926F00C0310431A04160C084340EA12
:1023AC0006018BB2A381A08AAA8920F4407631045D
:1023BC000B0C86B0134301A8A382FFF73DFB4FF42F
:1023CC006056A089C4F20106B44202B20CBF049E4E
:1023DC00039E002A21DB2D6806EB860101EB8103AD
:1023EC00AE00B3FBF6F148F21F53C5F2EB13A3FB9F
:1023FC000106A089720900B264251601002802FBAF
:10240C00151113DB0A013232A3FB0203C3F3431091
:10241C00304383B2238106B070BD286806EB860278
:10242C0002EB82054300B5FBF3F1DCE7C900323166
:10243C00A3FB0112C2F342103043EAE7838929B9A6
:10244C0023F400510A04130C8381704799B241F4B0
:10245C0000528281704700BF01F01F0310B4C1F31A
:10246C0042110124A14204FA03F30DD002290DD02C
:10247C0014302AB9026822EA0301016010BC7047CB
:10248C00026813430360F9E70C30F2E71030F0E711
:10249C00838A9BB21AB923EA0101818270471943DE
:1024AC008182704770B5194C064623783BB1184DA4
:1024BC0005F014FF2A68B618B0420BD270BD05F0B7
:1024CC000DFF134D29683231884215D2207800282F
:1024DC00EED170BD00231846237006F067F805F0A6
:1024EC00FDFE0C490A4A1060087808B1431E0B70B7
:1024FC00094A0121117070BD01231846237006F0A2
:10250C0055F805F0EBFE286070BD00BFC00500203B
:10251C00C8050020F60F0020C105002070B5264C20
:10252C0082B025788DF8062002AA8DF805108DF85A
:10253C0007308DF80400531913F8040C4438C1B259
:10254C000A290ED93226022D15D83046FFF7AAFFDC
:10255C002278022A0FD8194B1878012809D002B01A
:10256C0070BD174E022D36F8116004D8002EECD138
:10257C00124B21780FE005F0B1FE124B821B18684C
:10258C00824214D80D4B1878012801D0002EE6D1C8
:10259C002178022901D80131217000221A700A4BCE
:1025AC0010461A7002B0BDE8704005F0FFBF074A34
:1025BC00002121701170E5E7C5050020C105002040
:1025CC00D8560108C8050020C0050020F60F0020D1
:1025DC002DE9F041504F04467B7B504D002B47D0EA
:1025EC00012028704FF4007002F0BAFB00282BD1A8
:1025FC004B4E202002F092FB48B1BB7A002B39D015
:10260C004849CB7A002B39D1474B012119703278CC
:10261C00022A49D0012A4FD043480178012953D0CE
:10262C002B78012B58D0042C5ED0022C64D0012CBA
:10263C006AD03E4A1178002926D13D4B08461970C4
:10264C00BDE8F04105F0B2BF3A493B480B8890F821
:10265C00AC2019B202EB8206B14213DD314E767812
:10266C00BEB92F4E02213170002BC2D13370C0E79E
:10267C002B70B7E7284AD07A0028C1D12A4800220B
:10268C000270C4E7264EEFE73220BDE8F041FFF7B9
:10269C0009BF90F8AD00224E121802EB8202012005
:1026AC0091423070E0DDDDE74E214C200A46442398
:1026BC00BDE8F041FFF732BF4D2153204C220B46B1
:1026CC00BDE8F041FFF72ABF532001464E224D23AF
:1026DC00BDE8F041FFF722BF5320014602464D23CF
:1026EC00BDE8F041FFF71ABF4D2153200A464423A1
:1026FC00BDE8F041FFF712BF532001464D224423A1
:10270C00BDE8F041FFF70ABF53204D214E22442370
:10271C00BDE8F041FFF702BF481D0020C2050020B4
:10272C00C4050020E01C0020C3050020F60F00208B
:10273C00C0050020D00E00206C12002070B5B0FB3C
:10274C00F2F406461546084614B12046FFF7F6FF8C
:10275C0005FB1464024B195D00F8011B70BD00BF32
:10276C00445801082DE9F843037802460130202B28
:10277C00FAD0092BF8D02D2B114600F0D0802B2B42
:10278C0004BF4B7802464FF07E57A3F13004E0B201
:10279C000026092817D8551C0021C4F220113046F8
:1027AC00FEF700FA06462046FEF7A8F90146304629
:1027BC00FEF7F0F82A4615F8013B0646A3F1300463
:1027CC00E1B20929E8D92E2B00F083801178652914
:1027DC000BD0452909D04FF07E513046FEF7E2F977
:1027EC003946FEF7DFF9BDE8F88353782D2B00F05E
:1027FC00A3802B2B00F0A480501C0025A3F13001EA
:10280C00092900F2A1800246002404EB840403EBA6
:10281C00440412F8013F303CA3F130010929F4D9EA
:10282C00B4F59A7F40F281804FF49A744BF62041B4
:10283C00C4F6BE414FF07E50FEF7B4F9A4F108097E
:10284C00B9F1070FC8460146C9F3C0021BD93AB10A
:10285C00FEF7A8F9A9F10808B8F1070F014612D93B
:10286C0008464BF62041C4F6BE41FEF79BF94BF6E9
:10287C002041C4F6BE41FEF795F9A8F11008B8F155
:10288C00070F0146ECD804F00704E4B10846002118
:10289C00C4F22011FEF786F904F1FF3844460146D4
:1028AC0008F001037CB133B908460021C4F22011B1
:1028BC00FEF778F9013C0021C4F22011FEF772F901
:1028CC00013C0146F0D1002D87D03046FEF71EFAB0
:1028DC0086E75178541CA1F13003D8B2092836D8B8
:1028EC000024C4F22014951C1846FEF707F9214663
:1028FC00FEF70CFA01463046FEF74CF80021C4F204
:10290C00201106462046FEF74DF92A4615F8011B04
:10291C000446A1F13003D8B20928E5D957E70027BE
:10292C0002464B78CBF680772FE7072C98BF4FF0F9
:10293C007E513FF67BAFA8E7901C937801255DE7AD
:10294C009378901C002559E74FF07E51BBE7224647
:10295C003DE700BF38B5017841B1054D0446286804
:10296C0005F0FEFF14F8011F0029F8D138BD00BF97
:10297C00A01C002045F66C00C0F60100FFF7EABF72
:10298C0045F69C0038B5C0F6010045F6B404C0F617
:10299C000104FFF7DFFF45F6BC0145F6C0022046F7
:1029AC00C0F60101C0F601020CF0B2F845F6E801E0
:1029BC0045F6F0022046C0F60101C0F601020CF00B
:1029CC00A7F845F6041145F610122046C0F6010191
:1029DC00C0F601020CF09CF845F6301145F63812A1
:1029EC002046C0F60101C0F6010245F6C0450CF0C8
:1029FC008FF8C0F6010545F6681120462A46C0F648
:102A0C0001010CF085F845F6701145F67812204658
:102A1C00C0F60101C0F601020CF07AF845F68C11F3
:102A2C0020462A46C0F601010CF072F845F69411C6
:102A3C0045F698122046C0F60101C0F601020CF0D2
:102A4C0067F845F6B41145F6BC122046C0F60101F4
:102A5C00C0F601020CF05CF845F6D01145F6D81220
:102A6C002046C0F60101C0F601020CF051F845F603
:102A7C00E81145F6F0122046C0F60101C0F601023D
:102A8C000CF046F845F6002145F604222046C0F627
:102A9C000101C0F601020CF03BF845F6342145F675
:102AAC0028222046C0F60101C0F601020CF030F8D5
:102ABC0045F63C212046C0F601012A46BDE83840C7
:102ACC000CF026B82DE9F04105F008FC44F6D35380
:102ADC00C1F26203A3FB00212C4C2D482378027811
:102AEC0089092C480CF014F802F034F92A4A4DF6F6
:102AFC0083651668C4F21B350746A5FB06032748F9
:102B0C00990C0CF005F80022254E26491446012597
:102B1C0005E0611CCCB256F82410224669B105FAC6
:102B2C0002F00742F5D020480BF0F2FF611CCCB24A
:102B3C0056F8241022460029F1D1022002F0EEF8BA
:102B4C0078B91A48FFF706FF19490C8804F028F8E1
:102B5C000246184821464FF45F73BDE8F0410BF074
:102B6C00D7BF154C154B2178154853F821100BF095
:102B7C00CFFF20780228E4D1124A1348147C002C91
:102B8C000CBF6E216F210BF0C3FFDAE7640000204D
:102B9C00301D00204C5A0108140000208C5A0108EA
:102BAC00E0650108445A0108AC5A0108E45B0108CD
:102BBC00D00F0020C05A0108C81000202858010866
:102BCC00B05A0108A01C0020BC5A010838B50C688A
:102BDC000546204611F040FF024628682146BDE814
:102BEC00384011F069BF00BF45F6F42008B5C0F6B7
:102BFC000100FFF7AFFE0121002001F05BFE45F65E
:102C0C000030C0F60100FFF7A5FE0A2005F0A4FB7A
:102C1C000020BDE8084005F0B5BC00BF38B505463E
:102C2C0045F61030C0F60100FFF794FE40F2CC548C
:102C3C0040F2FC5141F2AF130022C2F20004C2F286
:102C4C000001C2F20003284622700A601A70BDE827
:102C5C003840FFF7C9BF00BF2DE9F04F8BB080465D
:102C6C0011F0FAFE08284CD09D4C9E48FFF772FEDE
:102C7C00A0789D4D0290607995F80AA195F80B818A
:102C8C0094F800B094F8019005900AA8E27880447A
:102C9C0095F80CC182440AF80CBC08F80C9CDDF8C1
:102CAC00088095F81011844495F80DE195F80E7193
:102CBC0095F80F6195F81131039225790CF80C8C6D
:102CCC00DDF80CC0864404950EF80CCCDDF810E051
:102CDC00C71907F80CECE279A579059F44188619F9
:102CEC00C31806F80C7C814804F80C5C07A903F89F
:102CFC000C2C00228DF824200BF00AFF0BB0BDE841
:102D0C00F08F7B4A98F800101068C24643185D7823
:102D1C0008F1060C05F00306022E08BF20390AF84C
:102D2C00011B116898F80170CDF810C0C8194378D0
:102D3C0008F1020603F00305022D08BF203F88F8B6
:102D4C000170116898F8027008F1040BC8194378E7
:102D5C0098F8031003F00305022D08BF203F88F8F4
:102D6C000270106808F1030743185D7805F0030042
:102D7C00022808BF203988F80310136898F804104B
:102D8C005D186878156800F00303022B14BF0C461D
:102D9C00A1F1200498F8051088F8044068184578CB
:102DAC0008F1050305F00300022814BF0C46A1F13D
:102DBC0020040393116898F8063088F80540CC1865
:102DCC006578126805F00300022898F8075008BFD0
:102DDC00203B88F806305319597808F1070401F0A4
:102DEC0003000294022898F800903D4C08BF203D47
:102DFC0088F807502046494611F052FD20B1504644
:102E0C00494611F04DFD18B13A48FFF7A3FD75E79F
:102E1C0098F8012020461146019211F041FD019BCA
:102E2C000028F1D03046194611F03AFD0028EBD1BC
:102E3C0098F802602046314611F032FD0028E3D0AC
:102E4C003846314611F02CFD0028DDD198F803608E
:102E5C002046314611F024FD0028D5D05846314685
:102E6C0011F01EFD0028CFD198F8046020463146A1
:102E7C0011F016FD0028C7D00398314611F010FD53
:102E8C000028C1D198F805602046314611F008FDA4
:102E9C000028B9D00498314611F002FD0028B3D1B6
:102EAC0098F806602046314611F0FAFC0028ABD0A9
:102EBC000298314611F0F4FC0028A5D1EDB2204661
:102ECC00294611F0EDFC00289ED008F10800294697
:102EDC0011F0E6FC002897D1404601F0E7F9C4E672
:102EEC00906D0108485B010830130020885D0108D3
:102EFC0070010020285B01082DE9F843074611F00A
:102F0C00ABFD044601F048FF0646DCB93348FFF739
:102F1C0021FD334D3349012703E055F8041F0134DB
:102F2C0059B107FA04F03042F7D02F480BF0F0FDFE
:102F3C0055F8041F01340029F3D12C48BDE8F8439F
:102F4C00FFF708BD38462A49224611F0B5FD002886
:102F5C0027D03B782D2B36D04FF00009DFF880803E
:102F6C0020494646002504E056F8041F0135002987
:102F7C0024D03846224611F09FFD0028F4D10120C0
:102F8C0000FA05F0B9F1000F22D001F0FBFE194850
:102F9C00FFF7E0FC184858F82510BDE8F8430BF093
:102FAC00B7BD1648FFF7D6FC0D4C0E490E480BF07A
:102FBC00AFFD54F8041F0029F8D1BEE71048BDE856
:102FCC00F843FFF7C7BC0137013C4FF00109C5E7D7
:102FDC0001F0D0FE0B48FFF7BDFCDBE7645B01089A
:102FEC00F0560108605B0108AC5A0108E45B01086B
:102FFC00785B0108B45B0108885D0108805B0108FF
:10300C00985B0108C05B010845F6CC3008B5C0F6EA
:10301C000100FFF79FFC012001F0DAFC45F6E830D7
:10302C00C0F60100FFF796FC0A2005F095F9002088
:10303C00BDE8084005F0A6BA2DE9F041804611F034
:10304C000BFD074600281FD0404620493A4611F098
:10305C0033FD002828D01E4E1E4C002504E056F8E7
:10306C00044F0135002C1AD0214640463A4611F047
:10307C0023FD0028F3D1184B1848013521465D710A
:10308C00BDE8F0410BF044BD1348114B4279144894
:10309C00511E53F82110BDE8F0410BF039BD114819
:1030AC00BDE8F041FFF756BC0F48FFF753FC084C46
:1030BC0008490E480BF02CFD54F8041F0029F8D1D8
:1030CC000B48BDE8F041FFF745BC00BF785B010839
:1030DC0034570108F85B0108301300203C5C0108F0
:1030EC00FC5B0108245C0108105C0108AC5A010867
:1030FC00E45B010838B5044611F0AEFC0E4D0146F8
:10310C000CE011F0C7F90228034613D80020014641
:10311C000A4C85F8783301F0CDFB002111F0FF0F3C
:10312C002046EED1044A064892F87813BDE83840A0
:10313C000BF0EEBC38BD00BF30130020C05C0108A2
:10314C00505C010870B5054611F086FCC0B290B910
:10315C00144B04469D1C5A882146661C12480BF0E1
:10316C00D7FC0234104831466A880BF0D1FCAB1CFA
:10317C00142CEFD170BD284611F08CF9132804469D
:10318C0005DD0A481421BDE870400BF0C1BC2021BC
:10319C00284611F085FB11F07DF9054B03EB440437
:1031AC00E08770BDA8120020685C0108745C0108FF
:1031BC006C120020931E222B88BF0A22031E10B50E
:1031CC000C4605DBFFF7BAFA00210170204610BD52
:1031DC002D2001F8010B5842FFF7B0FA00220270C3
:1031EC00204610BD70B5002386B00C460021054664
:1031FC00039304930593FDF791FE002842D041F20E
:10320C006F212846C3F60321FDF7C4FB0021C4F24D
:10321C007A41FDF7C7FCFDF78BFE064686EAE670A1
:10322C00A0EBE6700A226946FFF7C4FF002E31DBE3
:10323C0020218DF80C10684611F00EFC012803AD0E
:10324C0032D002283CD003286946284626D011F0FB
:10325C0001FB284611F000FC0338C6B23246294661
:10326C00204611F097FC0021A155204611F0F4FBEB
:10327C002E22431C2254A919E01811F08FFB204672
:10328C0006B070BD41F26F212846C3F60321FDF74D
:10329C007FFBBBE72D208DF80C00CCE730228DF89E
:1032AC000D2011F0D7FAD4E73026284669468DF860
:1032BC000D608DF80E608DF80F6011F0CBFAC8E739
:1032CC003023284669468DF80D308DF80E3011F0FC
:1032DC00C1FABEE730B5037983B004460D46052B21
:1032EC0011D8DFE803F01C1F23262A0380686946E7
:1032FC000068FFF777FF01461C480BF009FC002D16
:10330C001ED103B030BD002119480BF001FC002D7B
:10331C00F7D01848E16822690BF0FAFBF1E78168F5
:10332C000978F1E7806890F90010EDE78368198857
:10333C00EAE78268B2F90010E6E781680968E3E71A
:10334C00E068FDF7DBFB6946FFF74CFF01460A48D6
:10335C000BF0DEFB2069FDF7D1FB6946FFF742FF5E
:10336C00014605480BF0D4FBCBE700BF9C5C010881
:10337C00A85C0108A45C0108A05C01082DE9F84FC9
:10338C00064611F069FB0746002873D001286ED061
:10339C0030463D2111F084FA0446002800F0A0804C
:1033AC00451C284611F076F883462846FFF7DAF9D3
:1033BC00DFF80C828246D8F800400025204611F038
:1033CC004BFB214602463046C14611F075FB18B343
:1033DC00012514270FE058F803400135204611F061
:1033EC003BFB21460246304611F066FBA0B101358D
:1033FC00612D00F0D48058F80740DFF8C4912046C6
:10340C0011F02AFB21460246304611F055FB07F11C
:10341C00140328370028DED105EB850509EB850957
:10342C00D9F80C00FDF76AFB01465046FDF76CFD20
:10343C00002800F0A280D9F81000FDF75FFB0146D0
:10344C005046FDF757FD002800F0978099F80400CE
:10345C0005280CBF52465A46052800F29680DFE834
:10346C0010F091009100AB00AB00A700A3003378E3
:10347C002A2B8DD1524D5348FFF76CFA52482968CC
:10348C000BF046FB28463946FFF724FF4F48FFF761
:10349C0061FA01241426A9594B480BF039FB04EBB3
:1034AC00840205EB82003946FFF714FF4748FFF70B
:1034BC0051FA06F11403E958013443480BF028FB88
:1034CC0004EB840005EB80003946FFF703FF013461
:1034DC003E48FFF73FFA2836612CDCD1BDE8F88F67
:1034EC00DFF8DC803146D8F80050C146284640F25F
:1034FC00947A11F0B3FD50B1334829460BF008FB18
:10350C0040462146FFF7E6FE30480BF001FB012454
:10351C00142258F802503146284602F1140711F0D3
:10352C009DFD2946651C60B127480BF0F1FA04EBB0
:10353C00840009EB80000021FFF7CCFE23480BF040
:10354C00E7FA58F807403146204611F087FD21462E
:10355C0060B11D480BF0DCFA05EB850109EB81002D
:10356C000021FFF7B7FE19480BF0D2FA07F114024D
:10357C006C1C5245CDD1BDE8F88F1548BDE8F84F0D
:10358C00FFF7E8B9D9F808100A70214611480BF07A
:10359C00BFFA48460021BDE8F84FFFF79BBE0E4826
:1035AC00BDE8F84FFFF7D6B9D9F808100A60ECE778
:1035BC00D9F808301A60E8E7D9F808000280E4E787
:1035CC00FC650108AC5C0108A05D0108E45B010826
:1035DC00D05C0108C45C0108F85C01082DE9F04FCF
:1035EC0091488DB0914C0BF093FA9148FFF7AAFDDE
:1035FC006279904B511E904853F821100BF088FAC9
:10360C00276900213846FDF761FC002800F0A180F5
:10361C0008AE01F0C1FBDFF8588288498346474663
:10362C0087480BF075FA57F8041F0029F8D1834826
:10363C000F464FF00105014603E058F8041F01370F
:10364C0061B105FA07F212EA0B0FF6D07D480BF0C8
:10365C005FFA58F8041F01370029F2D17A480D4659
:10366C00017882780191C17894F80AB194F80BA191
:10367C0094F80C9194F80D8194F80EC194F80FE124
:10368C0094F8107194F811310392447842790491B2
:10369C008179029406920479C27907910CA831467B
:1036AC00019E83440BF8106C029E82440AF8106C45
:1036BC00039E814409F8106C049E0594804408F81C
:1036CC00106C059E84440CF8106C069E86440EF813
:1036DC00106C5E4C079EC318C7195D4807F8106C38
:1036EC0003F8102C8DF828500BF012FA5948216869
:1036FC000BF00EFA29462046FFF7ECFD5648FFF773
:10370C0029F901251426A15952480BF001FA05EBB1
:10371C00850204EB82000021FFF7DCFD4E48FFF729
:10372C0019F906F1140101354A4861580BF0F0F90A
:10373C0005EB8500002104EB8000FFF7CBFD013584
:10374C004548FFF707F92836612DDCD10DB0BDE8EF
:10375C00F08F25464FF0000808AE39E03146384668
:10376C00FFF740FD01463D480BF0D2F958460021C9
:10377C00FDF7B6FB00284AD131465846FFF732FD1B
:10378C00014636480BF0C4F950460021FDF7A8FB62
:10379C00002838D131465046FFF724FD01462F480A
:1037AC000BF0B6F948460021FDF79AFB38BB3146C1
:1037BC004846FFF717FD014629480BF0A9F90021EF
:1037CC00B8F10C0F27D02F693846FDF77FFB38BBBB
:1037DC0008F1010841462348D5F814B0D5F818A0D3
:1037EC00D5F81C900BF094F9384600211035FDF7F4
:1037FC0077FB0028B2D01C480BF08AF9AEE71A48C8
:10380C000BF086F9D3E718480BF082F9C2E716489B
:10381C000BF07EF9B0E70D2114480BF079F9F8E6BE
:10382C0008F10101F8E700BF185D01083013002012
:10383C00C05C010834570108485D0108605B010851
:10384C00705D0108805D0108906D0108FC65010840
:10385C00905D01089C5D0108E45B01089C5C01081B
:10386C00885D0108545D0108A85A01085C5D0108D7
:10387C00F05601082DE9F04788B0044611F0ECF839
:10388C00C5B2002D40F0BD82B34CB448FFF762F8CE
:10389C0020690021FDF71AFB002840F00F83B04887
:1038AC0001210BF035F904A92069FFF79BFC0146B7
:1038BC00AC480BF02DF904A96069FFF793FC0146A5
:1038CC00A8480BF025F904A9A069FFF78BFC014669
:1038DC00A4480BF01DF904A9E069FFF783FC01462D
:1038EC00A1480BF015F9206A0021FDF7EFFA00282A
:1038FC0040F038839A4802210BF00AF904A9206A97
:10390C00FFF770FC014697480BF002F904A9606AB6
:10391C00FFF768FC014693480BF0FAF804A9A06A7B
:10392C00FFF760FC01468F480BF0F2F804A9E06A3F
:10393C00FFF758FC01468C480BF0EAF8206B00218D
:10394C00FDF7C4FA002840F00F83854803210BF0E3
:10395C00DFF804A9206BFFF745FC014681480BF00A
:10396C00D7F804A9606BFFF73DFC01467D480BF0CE
:10397C00CFF804A9A06BFFF735FC014679480BF092
:10398C00C7F804A9E06BFFF72DFC014676480BF055
:10399C00BFF8206C0021FDF799FA002840F0E68270
:1039AC006F4804210BF0B4F804A9206CFFF71AFC43
:1039BC0001466C480BF0ACF804A9606CFFF712FCE4
:1039CC00014668480BF0A4F804A9A06CFFF70AFCA8
:1039DC00014664480BF09CF804A9E06CFFF702FC6C
:1039EC00014661480BF094F8206D0021FDF76EFA4A
:1039FC00002840F0BD825A4805210BF089F804A933
:103A0C00206DFFF7EFFB014656480BF081F804A937
:103A1C00606DFFF7E7FB014652480BF079F804A9FB
:103A2C00A06DFFF7DFFB01464E480BF071F804A9BF
:103A3C00E06DFFF7D7FB01464B480BF069F8206EA1
:103A4C000021FDF743FA002840F0948244480621F7
:103A5C000BF05EF804A9206EFFF7C4FB0146414849
:103A6C000BF056F804A9606EFFF7BCFB01463D480D
:103A7C000BF04EF804A9A06EFFF7B4FB01463948D1
:103A8C000BF046F804A9E06EFFF7ACFB0146364894
:103A9C000BF03EF8206F0021FDF718FA002840F0DB
:103AAC006B822F4807210BF033F804A9206FFFF726
:103ABC0099FB01462B480BF02BF804A9606FFFF71C
:103ACC0091FB014627480BF023F804A9A06FFFF7E0
:103ADC0089FB014623480BF01BF804A9E06FFFF7A4
:103AEC0081FB014620480BF013F8D4F8800000212C
:103AFC00FDF7ECF9002840F04182194808210BF041
:103B0C0007F804A9D4F88000FFF76CFB01461548B0
:103B1C000AF0FEFF04A9D4F88400FFF763FB01460A
:103B2C0010480AF0F5FF04A9D4F88800FFF75AFBF7
:103B3C0001460C480AF0ECFF04A9D4F88C00FFF7FE
:103B4C0051FB014608480AF0E3FFD4F8900000212D
:103B5C00FDF7BCF90AE000BF30130020B05D01088E
:103B6C00DC5D0108E45D0108885D0108002840F077
:103B7C000782B24809210AF0CBFF04A9D4F89000BF
:103B8C00FFF730FB0146AE480AF0C2FF04A9D4F897
:103B9C009400FFF727FB0146A9480AF0B9FF04A9D6
:103BAC00D4F89800FFF71EFB0146A5480AF0B0FFB9
:103BBC0004A9D4F89C00FFF715FB0146A1480AF0B4
:103BCC00A7FFD4F8A0000021FDF780F9002840F0F1
:103BDC00D9819A480A210AF09BFF04A9D4F8A000C5
:103BEC00FFF700FB014696480AF092FF04A9D4F8AF
:103BFC00A400FFF7F7FA014691480AF089FF04A9DF
:103C0C00D4F8A800FFF7EEFA01468D480AF080FFC1
:103C1C0004A9D4F8AC00FFF7E5FA014689480AF08C
:103C2C0077FFD4F8B0000021FDF750F9002840F0E0
:103C3C00448182480B210AF06BFF04A9D4F8B00030
:103C4C00FFF7D0FA01467E480AF062FF04A9D4F8C7
:103C5C00B400FFF7C7FA014679480AF059FF04A9E6
:103C6C00D4F8B800FFF7BEFA014675480AF050FFC9
:103C7C0004A9D4F8BC00FFF7B5FA014671480AF064
:103C8C0047FFD4F8C0000021FDF720F9002840F0D0
:103C9C007B816A480C210AF03BFF04A9D4F8C000D0
:103CAC00FFF7A0FA014666480AF032FF04A9D4F8DF
:103CBC00C400FFF797FA014661480AF029FF04A9EE
:103CCC00D4F8C800FFF78EFA01465D480AF020FFD1
:103CDC0004A9D4F8CC00FFF785FA014659480AF03C
:103CEC0017FF0C25584E00207169FCF753FE04EBAE
:103CFC000514A71B103FB169C7F3001A0746002033
:103D0C00FCF748FEF16980460020FCF743FE06F103
:103D1C001005A542814639D0BAF1000F12D069695D
:103D2C003846FCF737FEA96907464046FCF732FED9
:103D3C00E96980464846FCF72DFE06F12005A542B0
:103D4C00814623D069693846FCF724FEA9690746E9
:103D5C004046FCF71FFEE96980464846FCF71AFE10
:103D6C0005F11006716905463846FCF713FEB1697A
:103D7C0007464046FCF70EFEF16980462846FCF7E4
:103D8C0009FE06F11005A5428146DBD12F48CDF87E
:103D9C000880CDF80C90FEF7DDFD4DF20A7127F08E
:103DAC000040C3F62341FDF7B9F8294B294A0028F6
:103DBC0014BF10461846FEF7CDFD02984DF20A715D
:103DCC00C3F6234120F00040FDF7A8F8214D204C0C
:103DDC00002814BF28462046FEF7BCFD039B4DF27D
:103DEC000A71C3F6234123F00040FDF797F8002831
:103DFC0014BF28462046FEF7ADFD1748FEF7AAFD76
:103E0C0019E020461549052210F056FE002827D14E
:103E1C000D480023036103620363036403650366B7
:103E2C000367C0F88030C0F89030C0F8A030C0F8FC
:103E3C00B030C0F8C03008B0BDE8F087DC5D0108D8
:103E4C00E45D0108885D010830130020E85D01087D
:103E5C00A85D0108AC5D0108E45B0108F85D010890
:103E6C0020465049042210F027FE05462046002D1E
:103E7C0033D1202110F014FD0028DCD0471C38462B
:103E8C0010F0EAFD484E5FFA80F8484C03E056F813
:103E9C00044F0135ECB121463846424610F00CFE79
:103EAC000028F4D1284607F03FFE414821460AF08D
:103EBC002FFE4048FFF7DEFCBDE70A2500210391E9
:103ECC000291002D7FF40EAF3B48FEF743FD3B48BB
:103EDC0071E73B48FEF73EFDADE710F0DBFA451EFF
:103EEC000B2D064652DC2046202110F0D9FC04464E
:103EFC00002850D0441C2046FEF734FC314B3601D0
:103F0C00985101262046202110F0CAFC044640B1ED
:103F1C00441C2046FEF726FC2A49013601EB05120B
:103F2C0050612046202110F0BBFC044640B1441CDB
:103F3C002046FEF717FC234B013603EB0511886175
:103F4C002046202110F0ACFC40B10130FEF70AFCF9
:103F5C001C4A032E02EB0515E8611ED01A48FEF729
:103F6C00F9FC68E70125A9E70225A7E70325A5E7E2
:103F7C000425A3E70525A1E706259FE707259DE76F
:103F8C0008259BE7092599E70B2597E70F480C2196
:103F9C000AF0BEFD4FE70646B4E70648FFF76AFC99
:103FAC0049E700BF005E010834570108F85B0108BF
:103FBC00085E0108C05C0108E85D0108A85D010805
:103FCC00245C0108301300201C5E0108585E0108B7
:103FDC002DE9F04F41F2AF12C2F20002137887B014
:103FEC00002B00F006818D4DDFF86482286803F009
:103FFC00ADFE002877D08948006803F0ADFE092893
:10400C00034614D03F2812D0854C2268002A79D060
:10401C000C2800F0DE800A2B00F09A800D2B00F0AB
:10402C0097807F2B00F0DC802F2ADFD872E07C4E4B
:10403C007C4C37682B464FF000093A4604F1A80B2C
:10404C004D469A46002A51D1A146002D58D00C3429
:10405C005C45F7D35146AA460D46BAF1000F18D06D
:10406C00DAF80000D9F80010835C8C5C80189C4254
:10407C0011440ED1DFF8B8C10BB92D2A5DD90CF85B
:10408C00023010F8013F11F8014F0132A342F3D076
:10409C0032600AB1CA4559D06348FEF75BFCCA4589
:1040AC0098BF544609D854F80C0BFEF753FC092161
:1040BC00286804F055FC4C45F5D95C480027FEF700
:1040CC0049FC32683C46974290D2594F395D28687A
:1040DC0004F046FC326801349442F7D3286803F0AC
:1040EC0035FE002887D107B0BDE8F08F2168504815
:1040FC0010F0E2FC32680028A9D1A146002DA6D10F
:10410C002546A4E7042800F085800C2861D07F2B7D
:10411C003FF46CAF1F2B7FF669AF7E2B3FF666AF7B
:10412C0012B9202B3FF462AF414F561C2868194638
:10413C00BB54266004F014FC58E720200CF8020055
:10414C000132CA4532600CF80230A5D13C46BAE7C0
:10415C003848FEF7FFFB3848354E0090D4F800C0C5
:10416C00002706F80C7003A82E490E220C23049786
:10417C00039610F093F90746002847D0006810F01A
:10418C006BFC421CBB68B01898472C4941F2AF1E1F
:10419C00C2F2000E00200A469EF8007042F8040B92
:1041AC003060C8F8000041F8140C41F8100C41F8CC
:1041BC000C0C41F8080C41F8040C0E1F48605060C0
:1041CC009060D0602060002F8DD01848FEF7C2FBA5
:1041DC000CE71B48FEF7BEFB1448FEF7BBFB05E7DC
:1041EC00134B013A0021174822609954FEF7B2FB99
:1041FC00FCE641F2AF1601211348C2F20006317001
:10420C00FEF7A8FB0948FEF7A5FBECE60F48FEF706
:10421C00A1FBBAE70648FEF701FD64E7A01C0020ED
:10422C00FC05002080570108C05E0108B85E01083B
:10423C00CC050020E45B0108D92B0008E805002020
:10424C00C85E0108F85E0108805E0108D45E0108B2
:10425C00D005002010B44FF47C43C0F601031A784B
:10426C00372A02D0002010BC70475988B1F55F7F07
:10427C00F8D11879BE28F5D193F87913EF29F1D13B
:10428C004FF67B741046C0F60104002205E0587806
:10429C009978424013F8030F4A40A34282EA000285
:1042AC00F5D1D2F1010038BF0020DCE7F8B5017878
:1042BC00054679B1084F094E0446074810F0F0FA4C
:1042CC00C31B621BF11808B181F80A2114F8011FF5
:1042DC000029F2D1F8BD00BF906D01083013002009
:1042EC002DE9F04F87B0FFF7B5FF002800F094825E
:1042FC00DA4E4FF47C413046C0F601014FF45F7248
:10430C0010F064F996F87833022B02D9002386F862
:10431C007833C42202FB0361D14C01F5967120461F
:10432C0010F054F994F820006FF0140707FB00F517
:10433C00C0EB0079A0EB800A4FEA0913E17F4FEA4A
:10434C00CA08C0EB407205F6C41703F6C41505EB9A
:10435C00450CC0EBC20008F6C41B01FB0CF900F6BF
:10436C00C4120BFB01FA7F00920043F2D40303FB4F
:10437C0001FC01FB07F701FB02F248F6AD31C6F672
:10438C00DB0181FB0A0B81FB095094F8213081FB86
:10439C00075E009081FB0C054FEAEA7AC3F1000C32
:1043AC0081FB0208CAEBAB2AD2171FFA8CFCDDF892
:1043BC0000B0FF170392CDF804C0B6F8D0204FEA36
:1043CC00E979B6F8D260C7EBAE20C9EBAB290495FE
:1043DC00DDF804B0A34D05960290039FDDF810E0C4
:1043EC000FFA8BF094F82210C3F16406A5F802A022
:1043FC00A5F80690DDF808A0DDF81490C7EBA82806
:10440C004FEA9E2CF7B203EB830E4FF0000B002803
:10441C00A5F80880A5F80AC0A5F800B0C2EB090CF5
:10442C00A5F804A04FEA4E0EC1F1640807FB07F78C
:10443C0003FB03F940F33682BB4600FB00F501FB9E
:10444C0005F595FBFBF5454405FB00F046F2676569
:10445C00C6F2666585FB00A5C017C0EBA5050EEB83
:10446C00050005B20CFB05F044F6D355C1F262050C
:10447C0085FB00ABC3F10A0AC0171FFA8AFAC0EB1E
:10448C00AB1B794D0FFA8AF093440028A5F800B0C5
:10449C0040F30182BA4600FB00FB01FB0BFB9BFBCC
:1044AC00FAFA0AEB080B0BFB00F046F2676AC6F24D
:1044BC00666A8AFB00BAC017C0EBAA00704400B24F
:1044CC000CFB00F044F6D35BC1F2620B8BFB00BA21
:1044DC00C3F1140BC0171FFA8BFBC0EBAA1A0FFA0F
:1044EC008BF092440028A5F802A040F3CD81BB4686
:1044FC0000FB00FA01FB0AFA9AFBFBFB0BEB080A28
:10450C000AFB00F046F2676BC6F2666B8BFB00BAD7
:10451C00C017C0EBAA00704400B20CFB00F044F6CC
:10452C00D35BC1F2620B8BFB00BAC3F11E0BC0173D
:10453C001FFA8BFBC0EBAA1A0FFA8BF092440028DF
:10454C00A5F804A040F39981BB4600FB00FA01FBDF
:10455C000AFA9AFBFBFB0BEB080A0AFB00F046F28B
:10456C00676BC6F2666B8BFB00BAC017C0EBAA0078
:10457C00704400B20CFB00F044F6D35BC1F2620B4A
:10458C008BFB00BAC3F1280BC0171FFA8BFBC0EBD7
:10459C00AA1A0FFA8BF092440028A5F806A040F353
:1045AC006581BB4600FB00FA01FB0AFA9AFBFBFB98
:1045BC000BEB080A0AFB00F046F2676BC6F2666B5F
:1045CC008BFB00BAC017C0EBAA00704400B20CFB06
:1045DC0000F044F6D35BC1F2620B8BFB00BAC3F163
:1045EC00320BC0171FFA8BFBC0EBAA1A0FFA8BF019
:1045FC0092440028A5F808A040F33181BB4600FB8B
:10460C0000FA01FB0AFA9AFBFBFB0BEB080A0AFB0C
:10461C0000F046F2676BC6F2666B8BFB00BAC017F4
:10462C00C0EBAA00704400B20CFB00F044F6D35B64
:10463C00C1F2620B8BFB00BAC3F13C0BC0171FFA23
:10464C008BFBC0EBAA1A0FFA8BF092440028A5F84A
:10465C000AA040F3FD80BB4608E000BF30130020E9
:10466C006C120020D01D0020F81C002000FB00FA6A
:10467C0001FB0AFA9AFBFBFB0BEB080A0AFB00F0A6
:10468C0046F2676BC6F2666B8BFB00BAC017C0EBC9
:10469C00AA00704400B20CFB00F044F6D35BC1F2EC
:1046AC00620B8BFB00BAC3F1460BC0171FFA8BFBD6
:1046BC00C0EBAA1A0FFA8BF092440028A5F80CA0B4
:1046CC0040F3BF80BB4600FB00FA01FB0AFA9AFBE1
:1046DC00FBFB0BEB080A0AFB00F046F2676BC6F219
:1046EC00666B8BFB00BAC017C0EBAA00704400B21B
:1046FC000CFB00F044F6D35BC1F2620B8BFB00BAEF
:10470C00C3F1500BC0171FFA8BFBC0EBAA1A0FFAA0
:10471C008BF092440028A5F80EA040F38B80BB468A
:10472C0000FB00FA01FB0AFA9AFBFBFB0BEB080AF5
:10473C000AFB00F046F2676BC6F2666B8BFB00BAA5
:10474C00C017C0EBAA00704400B20CFB00F044F69A
:10475C00D35BC1F2620B8BFB00BAC3F15A03C017D7
:10476C009BB2C0EBAA1B18B202EB0B0A0028A5F8EF
:10477C0010A05ADD3B4600FB00FB01FB0BFA9AFB39
:10478C00F3F3434403FB00F046F26763C6F266633F
:10479C0083FB00A3C017C0EBA3030EEB030003B213
:1047AC000CFB03F344F6D350C1F2620080FB03B060
:1047BC00B6B2DB17C3EBA01033B21018002B688213
:1047CC002EDD03FB03F001FB00F191FBF7F7B8447E
:1047DC0008FB03F346F26760C6F2666080FB0301D8
:1047EC00DB17C3EBA10086440FFA8EF10CFB01FC26
:1047FC0044F6D353C1F2620383FB0C104FEAEC7105
:10480C00C1EBA01B5A442078AA8209F013F907B017
:10481C00BDE8F04F04F09CBC0A2003F08DFE67E568
:10482C00002E14BF4F460127CBE7002B14BF4B467D
:10483C000123A0E7BBF1000F14BFCB464FF0010BD7
:10484C006EE7BBF1000F14BFCB464FF0010B3AE7FC
:10485C00BBF1000F14BFCB464FF0010B06E7BBF1C9
:10486C00000F14BFCB464FF0010BC8E6BBF1000F95
:10487C0014BFCB464FF0010B94E6BBF1000F14BFF5
:10488C00CB464FF0010B60E6BBF1000F14BFCB46DB
:10489C004FF0010B2CE6BAF1000F14BFCA464FF0D3
:1048AC00010AF8E5019D002D14BFCB464FF0010B1A
:1048BC00C3E500BF2DE9F843434E37230746337059
:1048CC004FF45F70BE22EF2400237080327186F8A3
:1048DC00794386F87A3349B196F87813C42202FBEF
:1048EC0001603A4900F596700FF070FE364B372098
:1048FC0003F27B34002205E058789978424013F893
:10490C00030F4A40A34282EA0002F5D14FF67C78AD
:10491C0086F87A234FF00309C0F60108FCF7D2FEA3
:10492C003420FCF7E9FE4FF47C40C0F60100FCF7A4
:10493C0053FF042837D124494FF47C40C0F60100C2
:10494C000968FCF715FF04281ED14FF60444C0F685
:10495C00010406E01168FCF70BFF042814D1444550
:10496C0021D0A01900F17843A3F5FE32116820463E
:10497C00FCF7FEFE251D711901F17843083404285B
:10498C00A3F5FE322846E5D0FCF7ACFEB9F10109DF
:10499C00C4D1FCF7A7FE0A2003F0CEFDFFF7A0FC64
:1049AC005FB9BDE8F883FCF79DFEFFF753FC0028C8
:1049BC00F1D0FFF795FC002FF3D00F20142101222A
:1049CC00BDE8F84308F0B4BA301300206C12002094
:1049DC002DE9F04F85B00446FFF73CFC10B1002CDC
:1049EC0000F09081C94BCA4D18685968C94C02AA8D
:1049FC0003C200214FF45F7228460FF095FE4FF072
:104A0C00370A0021C42220460FF08EFE85F800A044
:104A1C004FF0030A85F805A04FF0020AC5F808A06C
:104A2C004FF4167AA5F8F0A04FF0FA0AA5F8F2A008
:104A3C0041F203494FF02A0AA5F8EEA0C0F214097E
:104A4C004FF0200A85F8F8A0C5F8F4904FF02B0A27
:104A5C004FF06E09322385F8069185F807A14FF0C7
:104A6C00210940F24C4A1A4685F80891A5F816A17E
:104A7C000AF54879A5F8DC3040F27E4AA5F8E0301A
:104A8C004FF4E133A5F81891A5F8D0A00AF52F79C9
:104A9C00C5F820314FF47A7A4FF49643A5F8D290AA
:104AAC00C5F824310AF5CB7940F6AC53A5F8D4A05F
:104ABC00AB8109F16C0A1E2340F2DC564FF0010861
:104ACC004FF0280B4FF0170CA5F8D690A5F8D8A0EE
:104ADC00E372237340F2B45955234FF4C87A84F827
:104AEC0015C084F816C0A5F8DA90A5F8DEA0A5F8D4
:104AFC00146185F8EC8084F801B084F802B0E3709E
:104B0C001923A3730B2363711423A3710823237438
:104B1C000E235A21E37114235027227163742172DE
:104B2C006423E17784F82120412104222776E7765B
:104B3C0023770A2784F8201084F82C2049F69A133E
:104B4C004BF6520143F233324FF02D0EA774C3F6DD
:104B5C0019731527C3F67E71C3F673726E4884F809
:104B6C000DE084F81AE084F82F7023636163A2636C
:104B7C0084F809B084F82DB084F82EB084F83C8009
:104B8C006FF0370AFFF792FB9DF808C09DF80C7088
:104B9C009DF809009DF80A109DF80B2084F8ADA033
:104BAC004FF4966A4FF47F7E4FF000090197A4F8FA
:104BBC00AEA04FF4FA6784F872C040F2D93A4FF0C5
:104BCC000A0CA4F86CE0A4F874E0A4F87CE0A4F857
:104BDC0084E0A4F88CE0A4F8B0A0A4F86E70A4F85B
:104BEC00767084F87A00A4F87E7084F88210A4F8A9
:104BFC00867084F88A20A4F88E7084F8ACC0A4F86F
:104C0C007060A4F87860A4F88060A4F8886084F8D8
:104C1C00669084F8679084F868B084F8698084F8AA
:104C2C006A90A4F890609DF80FC09DF80DA0CDF887
:104C3C0000C00198A4F89670CDF804A0A4F89E705A
:104C4C009DF80EA0A4F8A670009FDDF804C0002308
:104C5C0084F8A2A084F8AA70A4F89860A4F8A060C4
:104C6C00A4F8A8604FF0C80A4FF496774FF01406DA
:104C7C00A4F894E084F89AC0A4F89CE0A4F8A4E00A
:104C8C002B612B622B632B642B652B662B67C5F872
:104C9C00803084F892002146C422A4F8BE7005F539
:104CAC009670A4F8B6A084F8B28084F8B380642718
:104CBC0084F8B48084F8B8601E26C5F89030C5F826
:104CCC00A030C5F8B030C5F8C03084F8B96084F8AD
:104CDC00BA80A4F8BC70A4F8C0B00FF077FC2146E1
:104CEC00C42205F5F8700FF071FC214605F52D7006
:104CFC00C4220FF06BFC4846494605B0BDE8F04FA6
:104D0C00FFF7D8BD05B0BDE8F08F00BFB85601085D
:104D1C00301300206C1200209C6D010840F20063DF
:104D2C00C2F20003196808420CBF00200120704732
:104D3C0040F20063C2F200031A6810431860704717
:104D4C0040F20063C2F200031A6822EA0000186005
:104D5C00704700BF40F20063C2F20003186870474E
:104D6C0041F23033C2F20003996808420CBF0020B4
:104D7C000120704741F23033C2F200039A681043AD
:104D8C009860704741F23033C2F200039A6822EA0D
:104D9C0000009860704700BF41F23033C2F200034C
:104DAC00986870472DE9F04107788046082090B04C
:104DBC000037C4F2020018BF0127FCF72DFB42F2AA
:104DCC004C434F48C4F201030022FCB205930690F9
:104DDC000792002C00F08E800225089509928026FF
:104DEC004FF48073082000254FF48062C4F2020057
:104DFC0005A90A960B9320264FF400530C920D969E
:104E0C000E930F95FCF7B4FB0820C4F202000121AD
:104E1C00FCF7DEFB01264FF4602000958DF8047042
:104E2C008DF8056002900395002C50D04FF4105073
:104E3C0002246946C4F201008DF81040FCF748FAD0
:104E4C004FF410503246C4F2010004210323FCF746
:104E5C0097FA4FF41050C4F2010098F80010224653
:104E6C000323FCF78DFA4FF41050C4F2010001211A
:104E7C00FCF75EFA4FF41050C4F201000121FCF76C
:104E8C004DFA4FF41050C4F20100FCF75BFA4FF4EA
:104E9C001050C4F20100FCF75BFA0028F7D14FF474
:104EAC001050C4F20100FCF757FA4FF41050C4F242
:104EBC000100FCF757FA0028F7D14FF41050C4F258
:104ECC0001000121FCF752FA10B0BDE8F0814FF45B
:104EDC0010506946C4F201008DF81060FCF7F8F927
:104EEC004FF41050C4F20100042132460323FCF7A6
:104EFC0047FAB8E7012108910994264670E700BFEC
:104F0C000406002040F20463C2F2000333F81000E0
:104F1C0080B270472DE9F04F554B87B01A7801904D
:104F2C0032215320002A00F08580082204AB01F0C6
:104F3C00F1FC9DF811409DF810209DF812009DF891
:104F4C0015609DF813509DF814109DF8173002EB66
:104F5C00042200EB0525012401EB06200FFA82FB4D
:104F6C005A062DB206B24ED032210822671C04AB71
:104F7C00532001F0CFFCFCB29DF811A09DF815E078
:104F8C009DF810909DF813809DF812C09DF8147038
:104F9C00611C09EB0A2907EB0E270CEB082C9DF87A
:104FAC0017A03FB200915320322108220FFA89F941
:104FBC000FFA8CFE202C3E4404ABCB4475440AF013
:104FCC007F0720D0FFB1009C01F0A4FC9DF81430A9
:104FDC009DF815209DF811C09DF810009DF81370D8
:104FEC009DF8121003EB02229DF8173000EB0C20F9
:104FFC0001EB072100B209B212B25B06E4B28344A2
:10500C000D441644B0D11B489BFBF4F395FBF4F50F
:10501C0096FBF4F6ADF80830ADF80A50ADF80C601C
:10502C000470154A02A8019912780DF0D1F807B056
:10503C00BDE8F08F062204AB01F06CFC9DF811501A
:10504C009DF810109DF813409DF812209DF8150046
:10505C009DF8143001EB052102EB042203EB002038
:10506C00ADF80810ADF80A20ADF80C00D9E700BF78
:10507C0008060020090600202C000020164B10B555
:10508C001B7804462D2108225320C3B101F01EFDCC
:10509C0031210A22532001F019FD2C210C2253201E
:1050AC0001F014FD38219022532001F00FFD0B4824
:1050BC0040F2091202800CB109490C7010BD01F0CC
:1050CC0005FD31210A22532001F000FD53202C2133
:1050DC000A2201F0FBFCEAE7080600206E00002023
:1050EC002C00002070B5134A4FF4D8531468C0F24A
:1050FC00B703002282B09C428DF8072006460D466D
:10510C000BD01146532001220DF1070301F002FCD4
:10511C0018B19DF80700E52802D0002002B070BD40
:10512C0031780548054B064A686019702A600120E1
:10513C00F4E700BF10000020214F000808060020F3
:10514C0089500008F0B585B00446022106226B4652
:10515C00182001F0DFFB9DF800709DF802609DF8AF
:10516C0004509DF801009DF803109DF8052040F2B5
:10517C002D03BF08B608AD08C2F2000307EB0027E9
:10518C0006EB012605EB022502A821461A78ADF89C
:10519C000870ADF80A60ADF80C500DF019F805B0B8
:1051AC00F0BD00BF10B50F2108220446182001F0F5
:1051BC008DFC0E221820102101F088FC034B4FF4BB
:1051CC0080521A800CB10248047010BD6E00002091
:1051DC002D00002030B583B0002402AB054603F847
:1051EC00014D21461820012201F094FB20B19DF8BD
:1051FC000730FB2B02D0204603B030BD02480349D8
:10520C00286069600120F7E7B1510008515100088E
:10521C003B4B3C4A2DE9F00115885C891E892F1BFC
:10522C0006FB07F7B3F91250B3F91420FC13A718B7
:10523C00EE0296FBF7F56219A2F57A6404FB04F60C
:10524C00B3F902C0B3F90E8035130CFB04F708FB5D
:10525C0005F84FEAE72CB3F900700CEBE828B3F92A
:10526C00206008EB870707FA06F84CF2503747FA2C
:10527C0006F6B3F90CC0B3F904700CFB05F507FB8B
:10528C0004F42F14204D07EB6434A71CD5F800C090
:10529C00BC1008F10205DF88ACEBA50504F5004451
:1052AC0006FB05F607FB04F402EB82056D000835DE
:1052BC00DA612D11E20B002E1DDB7400B4FBF2F34E
:1052CC001E1206FB06F64EF24332CFF6FF7202FBBD
:1052DC0003F440F6DE3202FB06F2241404EB224205
:1052EC0002F6CF6203EB221300B1036001B10D6033
:1052FC00BDE8F0017047B6FBF2F35B00E0E700BFDE
:10530C00100600203A0600203406002000B5114B90
:10531C0083B0187818B910490A88531C0B80F621F1
:10532C00032201AB772001F0F5FA9DF805100B4B29
:10533C009DF804000A02B3F920309DF8061042EAE9
:10534C0000400843C3F1080220FA02F00449086047
:10535C0003B000BD0A0600200C0600201006002039
:10536C003406002000B50C4B83B0187818B90B49E3
:10537C000A88531C0B80F621022201AB772001F026
:10538C00C9FA9DF804009DF80510054B41EA00226E
:10539C001A8003B000BD00BF0A0600200C060020D6
:1053AC003A06002040F21063C2F2000393F820206A
:1053BC0010B49401343440F20A63C2F2000304F0D6
:1053CC00FC0277200024F4211C7010BC01F07EBB81
:1053DC0010B440F20A63C2F2000300247720F421D7
:1053EC002E221C7010BC01F071BB00BF10B54FF425
:1053FC008040FCF751F90128044600D010BD4FF451
:10540C008040FCF759F9014B1C7010BD0A060020B6
:10541C002DE9F04F8B4A4FF4D8531168C0F2B70303
:10542C009942A1B007465BD0874C94F80080B8F144
:10543C00000F03D0012021B0BDE8F08F4FF480594C
:10544C00C4F20109102302254FF4005A484616A94C
:10545C008DF85A304FF480468DF85B50ADF858A05B
:10546C0000F000F90422484616A98DF85A20ADF830
:10547C00586000F0F7F80E212846C9F810A0FCF788
:10548C00CBF90125082118A88DF8651018968DF810
:10549C0064800F268DF86650FCF7C0F8282317A8F7
:1054AC008DF85C308DF85D608DF85E608DF85F5026
:1054BC00FBF7D0FE142002F04FFF7720D0212A46B4
:1054CC000DF1570301F026FA9DF857005F4E0322A9
:1054DC005528F075328405D0C9F814A04046AAE7C7
:1054EC000020A8E7D1212A460DF15703772001F0BF
:1054FC0011FA9DF85710162201F00F0C4FEA111EED
:10550C001AABAA21772086F818C086F819E001F0AA
:10551C0001FA9DF870309DF8698009939DF87130FF
:10552C009DF86AC00A939DF872309DF86CB00B938D
:10553C009DF873309DF86DA00C939DF874309DF818
:10554C0068900D939DF875309DF86B000E939DF847
:10555C0076309DF86F100F939DF877309DF86E2084
:10556C0010939DF8783048EA092911939DF8793009
:10557C004AEA0B2803939DF87A3040EA0C201293E8
:10558C009DF87B3041EA022202939DF87C30139304
:10559C009DF87D30DDF828C0DDF824B00193CDF8FE
:1055AC001490069007924CEA0B29DDF830A00B9969
:1055BC000E9B0D98109ADDF83CB0CDF8108043EAA4
:1055CC00002C4AEA012842EA0B20DDF80CA0029BD1
:1055DC00DDF848B0119943EA0B224AEA0121DDF8C3
:1055EC0004B0DDF84CA031824BEA0A23DDF814B08C
:1055FC00DDF818A0A6F800B0A6F802A0DDF810B0EF
:10560C00DDF81CA041F27071F081A6F804B0A6F888
:10561C0006A0A6F80890A6F80A80A6F80CC072821C
:10562C00B38239800A4B0B4946F678127A807B603C
:10563C00B960094A094B0A4928462570FA603B6152
:10564C007961F8E6100000203806002010060020D2
:10565C00DD53000871530008B153000819530008BA
:10566C001D5200080B8870B4DA0712D58A780568C9
:10567C0012F0100F02F00F0401D0CE78344325F055
:10568C000F052C43282A046000F07181482A00F091
:10569C00DC819A0713D58A78056812F0100F02F096
:1056AC000F0401D0CE78344325F0F00545EA0414FC
:1056BC00282A046000F05681482A00F0BC815A0761
:1056CC0013D58A78056812F0100F02F00F0401D080
:1056DC00CE78344325F4706545EA0424282A046006
:1056EC0000F03B81482A00F0AB811A0713D58A7869
:1056FC00056812F0100F02F00F0401D0CE7834437D
:10570C0025F4704545EA0434282A046000F01B8116
:10571C00482A00F07C81DA0613D58A78056812F0E5
:10572C00100F02F00F0401D0CE78344325F470250D
:10573C0045EA0444282A046000F00A81482A00F053
:10574C006B819A0613D58A78056812F0100F02F057
:10575C000F0401D0CE78344325F4700545EA045487
:10576C00282A046000F0E080482A00F05A815A068A
:10577C0013D58A78056812F0100F02F00F0401D0CF
:10578C00CE78344325F0706545EA0464282A046019
:10579C0000F00181482A00F049811A0613D58A7855
:1057AC00056812F0100F02F00F0401D0CE783443CC
:1057BC0025F0704545EA0474282A046000F0E18065
:1057CC00482A00F0FC80DA0512D58A78456812F078
:1057DC00100F02F00F0401D0CE78344325F00F05E2
:1057EC002C43282A446000F0D180482A00F0EC8039
:1057FC009A0513D58A78456812F0100F02F00F0441
:10580C0001D0CE78344325F0F00545EA0414282A5B
:10581C00446000F09380482A00F0DB805A0512D5D2
:10582C008A78456812F0100F02F00F0401D0CE7880
:10583C00344325F4706545EA0424282A446078D062
:10584C00482A00F0CB801A0512D58A78456812F0E8
:10585C00100F02F00F0401D0CE78344325F47045BC
:10586C0045EA0434282A446059D0482A00F0BB8009
:10587C00DA0412D58A78456812F0100F02F00F0482
:10588C0001D0CE78344325F4702545EA0444282A07
:10589C00446071D0482A00F0AB809A0412D58A7803
:1058AC00456812F0100F02F00F0401D0CE7834438B
:1058BC0025F4700545EA0454282A446070D0482A1F
:1058CC0000F09B805A0412D58A78456812F0100FAC
:1058DC0002F00F0401D0CE78344325F0706545EA10
:1058EC000464282A446065D0482A00F08B80DB0BC6
:1058FC0013D08B78446813F0100F18BFC97803F0DD
:10590C000F0218BF0A4324F0704141EA0272282B9F
:10591C0042604AD0482B00F09D8070BC7047C26832
:10592C0022F40062C260A3E7C26822F02002C260C7
:10593C001DE7C26822F48062C26084E7C26822F468
:10594C000072C2606AE7C26822F00802C260E2E636
:10595C00C26822F01002C260F3E6C26822F00402B0
:10596C00C260C2E6C26822F00202C260A7E6C26848
:10597C0022F00102C2608CE6C26822F48052C2603E
:10598C008BE7C26822F08002C2601CE7C26822F476
:10599C008072C2602CE7C26822F04002C260FCE652
:1059AC00C26822F40052C2608CE7C26822F4004341
:1059BC00C360B2E7C26822F48042C26097E7C26853
:1059CC0042F08002C260FEE6C26842F48072C2609D
:1059DC000EE7C26842F40072C2601FE7C26842F46C
:1059EC008062C2602FE7C26842F40062C2603FE787
:1059FC00C26842F48052C2604FE7C26842F400525F
:105A0C00C2605FE7C26842F48042C2606FE7C2685E
:105A1C0042F00802C2607EE6C26842F01002C26028
:105A2C008FE6C26842F02002C260A0E6C26842F073
:105A3C004002C260B1E6C26842F00202C2603EE6B9
:105A4C00C26842F00402C2604FE6C26842F0010232
:105A5C00C2601EE6C36843F40041C1605DE700BF4D
:105A6C0008B5134A4FF44063C4F2010398681188D7
:105A7C00014218D102F014FC0E4B196888420CD963
:105A8C0043F6BF42401AC2F2B62282FB00120A4908
:105A9C00C3170868C3EBE202026008490868BDE856
:105AAC000840FBF709BE02F0FBFB024B1860F4E761
:105ABC004006002044060020500600204C06002022
:105ACC00FFF7CEBFFFF7CCBF2DE9F041DFF8F48034
