:020000040800F2
:1000000000500020B12501086126010855BC0008F8
:100010006126010861260108612601080000000030
:100020000000000000000000000000006126010840
:10003000612601080000000061260108A182000875
:100040006126010861260108612601086126010870
:10005000612601086126010861260108E15A0008AD
:100060006126010861260108612601086126010850
:100070006126010861260108798C000861260108C3
:100080006126010861260108612601086126010830
:10009000612601086126010861260108E55A000869
:1000A00061260108612601086126010869880008A7
:1000B000758800087D88000889880008DD670008C9
:1000C000BD6B0008E1670008B96B000861260108F4
:1000D00061260108AD8C0008ED8C0008612601083E
:1000E0000D54000861260108612601080000000087
:1000F0000000000000000000000000000000000000
:0C01000000000000000000005FF808F1A3
:10010C0010B5054C237833B9044810B10448AFF34B
:10011C0000800121217010BDA4050020000000000A
:10012C00F47D010808B5064B1BB106480649AFF330
:10013C0000800648016811B1054A02B1904708BD1C
:10014C0000000000F47D0108A8050020A405002093
:10015C000000000081F0004102E000BF83F000438A
:10016C0030B54FEA41044FEA430594EA050F08BF46
:10017C0090EA020F1FBF54EA000C55EA020C7FEA0A
:10018C00645C7FEA655C00F0E2804FEA5454D4EB87
:10019C005555B8BF6D420CDD2C4480EA020281EA51
:1001AC00030382EA000083EA010180EA020281EA89
:1001BC000303362D88BF30BD11F0004F4FEA0131DB
:1001CC004FF4801C4CEA113102D0404261EB4101EA
:1001DC0013F0004F4FEA03334CEA133302D0524270
:1001EC0063EB430394EA050F00F0A780A4F101042C
:1001FC00D5F1200E0DDB02FA0EFC22FA05F2801866
:10020C0041F1000103FA0EF2801843FA05F359414B
:10021C000EE0A5F120050EF1200E012A03FA0EFCCA
:10022C0028BF4CF0020C43FA05F3C01851EBE371F4
:10023C0001F0004507D54FF0000EDCF1000C7EEB11
:10024C0000006EEB0101B1F5801F1BD3B1F5001F4F
:10025C000CD349085FEA30004FEA3C0C04F101046E
:10026C004FEA445212F5800F80F09A80BCF1004F97
:10027C0008BF5FEA500C50F1000041EB045141EA19
:10028C00050130BD5FEA4C0C404141EB010111F41A
:10029C00801FA4F10104E9D191F0000F04BF0146C5
:1002AC000020B1FA81F308BF2033A3F10B03B3F1A3
:1002BC0020020CDA0C3208DD02F1140CC2F10C0233
:1002CC0001FA0CF021FA02F10CE002F11402D8BF91
:1002DC00C2F1200C01FA02F120FA0CFCDCBF41EA5D
:1002EC000C019040E41AA2BF01EB0451294330BD2C
:1002FC006FEA04041F3C1CDA0C340EDC04F1140409
:10030C00C4F1200220FA04F001FA02F340EA0300DF
:10031C0021FA04F345EA030130BDC4F10C04C4F125
:10032C00200220FA02F001FA04F340EA0300294605
:10033C0030BD21FA04F0294630BD94F0000F83F44F
:10034C00801306BF81F480110134013D4EE77FEA32
:10035C00645C18BF7FEA655C29D094EA050F08BF7E
:10036C0090EA020F05D054EA000C04BF194610465F
:10037C0030BD91EA030F1EBF0021002030BD5FEAA3
:10038C00545C05D14000494128BF41F0004130BDCB
:10039C0014F580043CBF01F5801130BD01F000451F
:1003AC0045F0FE4141F470014FF0000030BD7FEA92
:1003BC00645C1ABF194610467FEA655C1CBF0B468D
:1003CC00024650EA013406BF52EA033591EA030FA4
:1003DC0041F4002130BD00BF90F0000F04BF00219C
:1003EC00704730B54FF4806404F132044FF00005CF
:1003FC004FF0000150E700BF90F0000F04BF002148
:10040C00704730B54FF4806404F1320410F00045AD
:10041C0048BF40424FF000013EE700BF42004FEAA8
:10042C00E2014FEA31014FEA02701FBF12F07F4325
:10043C0093F07F4F81F06051704792F0000F14BF22
:10044C0093F07F4F704730B54FF4607401F0004566
:10045C0021F0004120E700BF50EA010208BF7047BD
:10046C0030B54FF000050AE050EA010208BF7047B2
:10047C0030B511F0004502D5404261EB41014FF41B
:10048C00806404F132045FEA915C3FF4DCAE4FF01F
:10049C0003025FEADC0C18BF03325FEADC0C18BF06
:1004AC00033202EBDC02C2F1200300FA03FC20FA57
:1004BC0002F001FA03FE40EA0E0021FA02F11444A4
:1004CC00C1E600BF70B54FF0FF0C4CF4E06C1CEAB9
:1004DC0011541DBF1CEA135594EA0C0F95EA0C0F2E
:1004EC0000F0DEF82C4481EA030621EA4C5123EAA1
:1004FC004C5350EA013518BF52EA033541F48011D0
:10050C0043F4801338D0A0FB02CE4FF00005E1FB82
:10051C0002E506F00042E0FB03E54FF00006E1FBCC
:10052C0003569CF0000F18BF4EF0010EA4F1FF040F
:10053C00B6F5007F64F5407404D25FEA4E0E6D414F
:10054C0046EB060642EAC62141EA55514FEAC52060
:10055C0040EA5E504FEACE2EB4F1FD0C88BFBCF5DC
:10056C00E06F1ED8BEF1004F08BF5FEA500E50F18D
:10057C00000041EB045170BD06F0004646EA010153
:10058C0040EA020081EA0301B4EB5C04C2BFD4EB85
:10059C000C0541EA045170BD41F480114FF0000E7E
:1005AC00013C00F3AB8014F1360FDEBF002001F0EC
:1005BC00004170BDC4F10004203C35DA0C341BDC66
:1005CC0004F11404C4F1200500FA05F320FA04F038
:1005DC0001FA05F240EA020001F0004221F000416C
:1005EC0010EBD37021FA04F642EB06015EEA430EDF
:1005FC0008BF20EAD37070BDC4F10C04C4F120050F
:10060C0000FA04F320FA05F001FA04F240EA0200C1
:10061C0001F0004110EBD37041F100015EEA430E92
:10062C0008BF20EAD37070BDC4F1200500FA05F2B2
:10063C004EEA020E20FA04F301FA05F243EA020331
:10064C0021FA04F001F0004121FA04F220EA020040
:10065C0000EBD3705EEA430E08BF20EAD37070BD86
:10066C0094F0000F0FD101F00046400041EB010166
:10067C0011F4801F08BF013CF7D041EA060195F048
:10068C00000F18BF704703F00046520043EB030302
:10069C0013F4801F08BF013DF7D043EA06037047EF
:1006AC0094EA0C0F0CEA135518BF95EA0C0F0CD0FA
:1006BC0050EA410618BF52EA4306D1D181EA030140
:1006CC0001F000414FF0000070BD50EA410606BF3A
:1006DC001046194652EA430619D094EA0C0F02D17F
:1006EC0050EA013613D195EA0C0F05D152EA0336C4
:1006FC001CBF104619460AD181EA030101F00041E2
:10070C0041F0FE4141F470014FF0000070BD41F02A
:10071C00FE4141F4780170BD70B54FF0FF0C4CF404
:10072C00E06C1CEA11541DBF1CEA135594EA0C0F23
:10073C0095EA0C0F00F0A7F8A4EB050481EA030E70
:10074C0052EA03354FEA013100F088804FEA033357
:10075C004FF0805545EA131343EA12634FEA022225
:10076C0045EA111545EA10654FEA00260EF00041E6
:10077C009D4208BF964244F1FD0404F5407402D238
:10078C005B084FEA3202B61A65EB03055B084FEAC9
:10079C0032024FF480104FF4002CB6EB020E75EBC6
:1007AC00030E22BFB61A754640EA0C005B084FEAEE
:1007BC003202B6EB020E75EB030E22BFB61A75466B
:1007CC0040EA5C005B084FEA3202B6EB020E75EBB6
:1007DC00030E22BFB61A754640EA9C005B084FEA2E
:1007EC003202B6EB020E75EB030E22BFB61A75463B
:1007FC0040EADC0055EA060E18D04FEA051545EA2A
:10080C0016754FEA06164FEAC30343EA52734FEAD2
:10081C00C2025FEA1C1CC0D111F4801F0BD141EA4B
:10082C0000014FF000004FF0004CB6E711F4801FB0
:10083C0004BF01430020B4F1FD0C88BFBCF5E06F90
:10084C003FF6AFAEB5EB030C04BFB6EB020C5FEAA0
:10085C00500C50F1000041EB045170BD0EF0004EF5
:10086C004EEA113114EB5C04C2BFD4EB0C0541EA27
:10087C00045170BD41F480114FF0000E013C90E624
:10088C0045EA060E8DE60CEA135594EA0C0F08BFE8
:10089C0095EA0C0F3FF43BAF94EA0C0F0AD150EAE7
:1008AC0001347FF434AF95EA0C0F7FF425AF10467A
:1008BC0019462CE795EA0C0F06D152EA03353FF4A2
:1008CC00FDAE1046194622E750EA410618BF52EA1F
:1008DC0043067FF4C5AE50EA41047FF40DAF52EAF3
:1008EC0043057FF4EBAE12E74FEA4102B2F1E0436D
:1008FC0024BFB3F5001CDCF1FE5C0DD901F0004CFB
:10090C004FEAC0024CEA5070B2F1004F40EB83004A
:10091C0008BF20F00100704711F0804F21D113F176
:10092C003872BCBF01F00040704741F480114FEAAF
:10093C005252C2F11802C2F1200C10FA0CF320FA38
:10094C0002F018BF40F001004FEAC1234FEAD32355
:10095C0003FA0CFC40EA0C0023FA02F34FEA4303BF
:10096C00CCE77FEA625307D150EA01331EBF4FF048
:10097C00FE4040F44000704701F0004040F0FE4063
:10098C0040F40000704700BF80F0004002E000BF60
:10099C0081F0004142001FBF5FEA410392EA030F5E
:1009AC007FEA226C7FEA236C6AD04FEA1262D2EBA8
:1009BC001363C1BFD218414048404140B8BF5B42AD
:1009CC00192B88BF704710F0004F40F4000020F046
:1009DC007F4018BF404211F0004F41F4000121F05C
:1009EC007F4118BF494292EA030F3FD0A2F10102A6
:1009FC0041FA03FC10EB0C00C3F1200301FA03F1E4
:100A0C0000F0004302D5494260EB4000B0F5000F06
:100A1C0013D3B0F1807F06D340084FEA310102F1C5
:100A2C000102FE2A51D2B1F1004F40EBC25008BF77
:100A3C0020F0010040EA03007047490040EB000041
:100A4C0010F4000FA2F10102EDD1B0FA80FCACF170
:100A5C00080CB2EB0C0200FA0CF0AABF00EBC2506F
:100A6C0052421843BCBFD0401843704792F0000F5D
:100A7C0081F4000106BF80F400000132013BB5E7B0
:100A8C004FEA41037FEA226C18BF7FEA236C21D026
:100A9C0092EA030F04D092F0000F08BF084670478B
:100AAC0090EA010F1CBF0020704712F07F4F04D159
:100ABC00400028BF40F00040704712F100723CBF6C
:100ACC0000F50000704700F0004343F0FE4040F496
:100ADC00000070477FEA226216BF08467FEA236354
:100AEC000146420206BF5FEA412390EA010F40F43F
:100AFC00800070474FF0000304E000BF10F000438B
:100B0C0048BF40425FEA000C08BF704743F0964371
:100B1C0001464FF000001CE050EA010208BF70478C
:100B2C004FF000030AE000BF50EA010208BF704713
:100B3C0011F0004302D5404261EB41015FEA010C28
:100B4C0002BF84460146002043F0B64308BFA3F120
:100B5C008053A3F50003BCFA8CF2083AA3EBC25302
:100B6C0010DB01FA02FC634400FA02FCC2F1200221
:100B7C00BCF1004F20FA02F243EB020008BF20F058
:100B8C000100704702F1200201FA02FCC2F12002BE
:100B9C0050EA4C0021FA02F243EB020008BF20EAB3
:100BAC00DC7070474FF0FF0C1CEAD0521EBF1CEAE1
:100BBC00D15392EA0C0F93EA0C0F6FD01A4480EACF
:100BCC00010C400218BF5FEA41211ED04FF00063B8
:100BDC0043EA501043EA5111A0FB01310CF00040E4
:100BEC00B1F5000F3EBF490041EAD3715B0040EA0A
:100BFC00010062F17F02FD2A1DD8B3F1004F40EBDA
:100C0C00C25008BF20F00100704790F0000F0CF0AC
:100C1C00004C08BF49024CEA502040EA51207F3A70
:100C2C00C2BFD2F1FF0340EAC250704740F400004B
:100C3C004FF00003013A5DDC12F1190FDCBF00F03C
:100C4C0000407047C2F10002410021FA02F1C2F1EA
:100C5C00200200FA02FC5FEA310040F1000053EA86
:100C6C004C0308BF20EADC70704792F0000F00F0D4
:100C7C00004C02BF400010F4000F013AF9D040EADA
:100C8C000C0093F0000F01F0004C02BF490011F46E
:100C9C00000F013BF9D041EA0C018FE70CEAD1536C
:100CAC0092EA0C0F18BF93EA0C0F0AD030F0004CEC
:100CBC0018BF31F0004CD8D180EA010000F00040A0
:100CCC00704790F0000F17BF90F0004F084691F05E
:100CDC00000F91F0004F14D092EA0C0F01D1420298
:100CEC000FD193EA0C0F03D14B0218BF084608D161
:100CFC0080EA010000F0004040F0FE4040F40000AB
:100D0C00704740F0FE4040F4400070474FF0FF0C3D
:100D1C001CEAD0521EBF1CEAD15392EA0C0F93EA84
:100D2C000C0F69D0A2EB030280EA010C49024FEAD6
:100D3C00402037D04FF0805343EA111143EA10138F
:100D4C000CF000408B4238BF5B0042F17D024FF447
:100D5C00000C8B4224BF5B1A40EA0C00B3EB510F22
:100D6C0024BFA3EB510340EA5C00B3EB910F24BF0B
:100D7C00A3EB910340EA9C00B3EBD10F24BFA3EB90
:100D8C00D10340EADC001B0118BF5FEA1C1CE0D158
:100D9C00FD2A3FF650AF8B4240EBC25008BF20F00B
:100DAC00010070470CF0004C4CEA50207F32C2BF5F
:100DBC00D2F1FF0340EAC250704740F400004FF0FC
:100DCC000003013A37E792F0000F00F0004C02BF2D
:100DDC00400010F4000F013AF9D040EA0C0093F0F7
:100DEC00000F01F0004C02BF490011F4000F013B51
:100DFC00F9D041EA0C0195E70CEAD15392EA0C0FB9
:100E0C0008D142027FF47DAF93EA0C0F7FF470AFF0
:100E1C00084676E793EA0C0F04D14B023FF44CAF33
:100E2C0008466EE730F0004C18BF31F0004CCAD1C8
:100E3C0030F000427FF45CAF31F000437FF43CAF04
:100E4C005FE700BF4FF0FF3C06E000BF4FF0010C26
:100E5C0002E000BF4FF0010C4DF804CD4FEA400208
:100E6C004FEA41037FEA226C18BF7FEA236C11D052
:100E7C0001B052EA530C18BF90EA010F58BFB2EB05
:100E8C00030088BFC81738BF6FEAE17018BF40F085
:100E9C00010070477FEA226C02D15FEA402C05D139
:100EAC007FEA236CE4D15FEA412CE1D05DF8040BBE
:100EBC00704700BF844608466146FFE70FB5FFF751
:100ECC00C9FF002848BF10F1000F0FBD4DF808ED09
:100EDC00FFF7F4FF0CBF012000205DF808FB00BFFA
:100EEC004DF808EDFFF7EAFF34BF012000205DF854
:100EFC0008FB00BF4DF808EDFFF7E0FF94BF0120A1
:100F0C0000205DF808FB00BF4DF808EDFFF7D2FF9D
:100F1C0094BF012000205DF808FB00BF4DF808EDE0
:100F2C00FFF7C8FF34BF012000205DF808FB00BFAD
:100F3C004FEA4002B2F1FE4F0FD34FF09E03B3EBDA
:100F4C0012620DD94FEA002343F0004310F0004F1A
:100F5C0023FA02F018BF404270474FF00000704770
:100F6C0012F1610F01D1420205D110F0004008BF0F
:100F7C006FF0004070474FF00000704742000ED2F7
:100F8C00B2F1FE4F0BD34FF09E03B3EB126209D4B8
:100F9C004FEA002343F0004323FA02F070474FF06E
:100FAC000000704712F1610F01D1420202D14FF0E3
:100FBC00FF3070474FF00000704700BF4FF4805374
:100FCC00C4F202031968002241F00100186059684C
:100FDC00CFF6FF020A405A6018684FF46D4220F0B9
:100FEC00847121F4803018601968CEF2000221F46B
:100FFC0080201860596821F4FE004FF41F015860DE
:10100C0099604FF000639360704700BF4FF48053BA
:10101C00C4F202035A6802F00C00042813D008280A
:10102C0014D04FF49052C0F27A024FF48051C4F2B3
:10103C0002014B681349C3F303100B5C124822FAEC
:10104C0003F202607047114A1268EEE7586859685B
:10105C00C0F383420232C90309D55B680B4813F411
:10106C00003F01680AD04B0803FB02F2DDE74FF4A6
:10107C001060C0F23D0000FB02F2D6E701FB02F269
:10108C00D3E700BF00000020140000201000002057
:10109C0010B5002284B04FF4E0104FF4805300924E
:1010AC00C4F2020301920292039019681C4641F4A7
:1010BC0080321A60986940F01001996103E0009A3F
:1010CC00B2F5A06F09D0236803F4003201920098A6
:1010DC00411C0091019B002BF1D04FF48054C4F2C1
:1010EC000204206810F400317CD0022402944FF4E6
:1010FC000052C4F2020211684FF4805341F0100008
:10110C0010601468C4F2020324F00301116010682B
:10111C0041F2040140F0020414605A68C4F2010167
:10112C005A605C6845485C605C684FF4905244F4CB
:10113C0080645C600C68C0F27A0224F070440C602D
:10114C0002605C684FF4805224F47C145C600B6881
:10115C00C4F2010243F000430B60D16821F4004358
:10116C00D360926813042ED54FF4D851C0F2B70156
:10117C0001604FF480100390029B012B29D0022BAD
:10118C0050D04FF48050C4F202000268014642F085
:10119C008073036008684FF480538001C4F202032B
:1011AC00F8D559681A4621F003005860596841F087
:1011BC0002005860536803F00C010829FAD1FFF7BC
:1011CC0025FF04B010BD4FF4E0100390029B012BDF
:1011DC00D5D14FF48050C4F20200426842F460133F
:1011EC004360CEE72368224643F001002060009163
:1011FC0003E00099B1F5A06F09D0146804F0020166
:10120C000191009B581C0090019C002CF1D04FF4D4
:10121C008052C4F2020213689A0702D50120029090
:10122C0065E7FEE74FF48050C4F202004168039A70
:10123C0041EA020343F480314160A2E71000002030
:10124C0040F0BF604FF46D4340F40031CEF2000328
:10125C00D9607047C37830B47BB90078012100F0B5
:10126C001F0201FA02F140094FF46143CEF2000370
:10127C00203043F8201030BC70474FF46D44CEF250
:10128C000004E5684478EA43C2F302230F2525FAEB
:10129C0003F2C3F1040104FA01F48578037802EA3D
:1012AC00050121430A0103F16043D1B203F5614208
:1012BC0082F800130078012100F01F0301FA03F1FA
:1012CC004FF46143CEF20003420943F82210D2E7F7
:1012DC0042680B6870B422F470250C7925F4807682
:1012EC0046EA030242EA0423436086688C68CA68B3
:1012FC004FF2FD73CFF6F1734D7922433340134314
:10130C0043EA45028260097CC26A4B1E22F47001DA
:10131C00DAB241EA0253C36270BC7047836819B9F0
:10132C0023F001018160704743F001028260704735
:10133C00836819B923F480718160704743F480721B
:10134C0082607047836843F008018160704700BF7A
:10135C008068C0F3C0007047836843F0040181606B
:10136C00704700BF8068C0F380007047836819B96C
:10137C0023F4A0018160704743F4A002826070479F
:10138C00092970B401EB41041ED91E3C072606FA4C
:10139C0004F603FA04F4C568062A25EA060343EAB0
:1013AC000403C3601DD90C2A02EB820227D9413AEF
:1013BC001F2404FA02F401FA02F1C36A23EA0402BC
:1013CC000A43C26270BC7047072606FA04F603FA99
:1013DC0004F40569062A25EA060343EA04030361BB
:1013EC00E1D8541E04EB84031F2404FA03F401FA1D
:1013FC0003F1426B22EA04030B434363E2E7233A13
:10140C001F2404FA02F401FA02F1036B23EA04022A
:10141C000A430263D6E700BF10B4082104684FF6F4
:10142C00FE72C4F202010023224088420260036073
:10143C0043608360C36047D01C23C4F2020398420C
:10144C0049D03022C4F2020290424CD04421C4F262
:10145C00020188424FD05823C4F2020398425BD059
:10146C006C22C4F2020290425ED08021C4F20201CE
:10147C0088421FD04FF48163C4F20203984221D0FA
:10148C0040F21C42C4F20202904255D04FF48661E5
:10149C00C4F20201884258D040F24443C4F2020321
:1014AC0098425BD04FF48B62C4F2020290422AD075
:1014BC0010BC70470021C4F202014A6842F070600F
:1014CC004860F5E74FF48063C4F202035A6842F0B7
:1014DC000F015960ECE70023C4F20203596841F094
:1014EC00F0005860E4E70021C4F20201486840F4BF
:1014FC0070624A60DCE70020C4F20200426842F4E9
:10150C0070434360D4E74FF48060C4F2020041683A
:10151C0041F470234360CBE70020C4F2020043681F
:10152C0043F470214160C3E70023C4F202035968FD
:10153C0041F470025A60BBE74FF48061C4F20201BF
:10154C004B6843F0F0004860B2E74FF48063C4F29C
:10155C000203586840F470625A60A9E74FF4806047
:10156C00C4F20200426842F470414160A0E700BF3F
:10157C008B68F0B40D6A0C694A691D438E6945EAA3
:10158C0004031343CA6905684F6A43EA060414430B
:10159C008E6A25F4FF4C27430D68CC682CF0700341
:1015AC0049683E431E43066044608560C160F0BCE0
:1015BC00704700BF0023036043608360C360036116
:1015CC0043618361C361036243628362704700BFFE
:1015DC0029B902684FF6FE73134003607047016827
:1015EC0041F001020260704703681AB923EA010155
:1015FC000160704719430160704700BF416070473C
:10160C00406880B2704700BFC3004CBF4FF480638A
:10161C000023C4F202035860704700BF837930B4D2
:10162C003BB34FF48063C4F2010301681D68CC43E3
:10163C0025401D605D6802792C4002F180455C609C
:10164C0005F582321568447929431160026898685F
:10165C00D14308409860D868102C01EA0001D96089
:10166C0013D004F1804303F5823421680A432260CD
:10167C0009E00279016802F1804000F582331A68B2
:10168C0022EA01021A6030BC7047986810439860D7
:10169C00D9680A43DA60F6E74FF48063C4F20103B9
:1016AC001A68596910EA010304D010420CBF0020DB
:1016BC0001207047184670474FF48063C4F2010351
:1016CC00586170474FF4005340F2231148F6AB12A7
:1016DC00C4F20203C4F26751CCF6EF5259605A605F
:1016EC00704700BF4FF40053C4F202031A6942F072
:1016FC0080001861704700BF4FF40053C4F202031E
:10170C00D86070474FF40053C4F20203DA68D20772
:10171C000BD4D868400701D502207047D96811F066
:10172C00100F0CBF0420032070470120704700BF2E
:10173C0010B50446FFF7E6FF012815D1B4B1FFF749
:10174C00E1FF013C012804F001030DD174B10BB190
:10175C0005E05CB1FFF7D6FF013C012804D1FFF78F
:10176C00D1FF013C0128F4D004B110BD052010BDFF
:10177C0070B5002382B005464FF400500C4601931F
:10178C00FFF7D6FF042801D002B070BD4FF400560D
:10179C00C4F202063269A1B242F0010030614FF48A
:1017AC0000502980FFF7C4FF042805D0326941F6A8
:1017BC00FE7313403361E7E7023501950199240C60
:1017CC000C804FF40050FFF7B3FF326941F6FE7303
:1017DC0013403361D8E700BF38B505464FF43020CD
:1017EC00FFF7A6FF042800D038BD4FF40054C4F214
:1017FC00020423694FF4302043F00201216165613A
:10180C00226942F040032361FFF792FF216941F600
:10181C00FD720A40226138BD01F0030310B40F229F
:10182C009C0002FA04F200FA04F089080023C4F2C6
:10183C000103023153F8214024EA020243F821202B
:10184C0053F82120104343F8210010BC704700BF0F
:10185C0008B54FF4A843C4F2000398420BD0012101
:10186C004FF4800000F07EF94FF480000021BDE8B9
:10187C00084000F077B901214FF4001000F072F924
:10188C004FF400100021BDE8084000F06BB900BF18
:10189C00F0B587B00446868801A80D4600F0CCF858
:1018AC0003994DF68363C4F21B33A3FB012026F08E
:1018BC003F073A04870C160C1FFA87FC4CEA060308
:1018CC00A380228848F2A06022F001062A68330423
:1018DC00C0F201001E0C8242268024D85200B1FBBB
:1018EC00F2F6B1B20CF1010EA4F820E0032998BF76
:1018FC000421A18320886E8983B243F001012180E9
:10190C002288A88822F4816323F00203AA892989FA
:10191C001B041B0C3043034311439BB28AB223803C
:10192C00228107B0F0BDE8884BF6FF7398421DD0BA
:10193C0002EB820202EB8206B1FBF6F141F480402D
:10194C0081B20E05300D08B941F001014FF49673C8
:10195C0003FB07F744F6D352C1F2620282FB07364F
:10196C00B009431C41F400412384C2E702EB42035B
:10197C00B1FBF3F291B2E4E7002341F288328380A9
:10198C004BF6FF71038143814FF480430260C180A9
:10199C0083817047038829B923F001010A04130CD1
:1019AC000380704799B241F001020280704700BF7A
:1019BC00038829B923F480710A04130C038070473F
:1019CC0099B241F480720280704700BF038829B934
:1019DC0023F400710A04130C0380704799B241F48C
:1019EC0000720280704700BF038829B923F480611C
:1019FC000A04130C0380704799B241F48062028090
:101A0C00704700BF83889BB21AB923EA0101818019
:101A1C00704719438180704701827047008AC0B2B9
:101A2C00704700BF1AB901F0FE010182704741F006
:101A3C0001010182704700BF4FF48053C4F20203CE
:101A4C005A6810B402F00C0104292AD008292CD0B1
:101A5C004FF49052C0F27A0202604FF48053C4F2F9
:101A6C0002035C682049C4F303140C5D22FA04F2EF
:101A7C0042605C68C4F302240C5D22FA04F48460B6
:101A8C005C68C4F3C224095D22FA01F2C2605B688F
:101A9C001649C3F38133CB5CB2FBF3F2026110BC89
:101AAC007047134A12680260D7E75C685968C4F340
:101ABC0083420232C9030AD55B680D4C13F4003F14
:101ACC0021680CD04B0803FB02F20260C5E74FF40F
:101ADC001064C0F23D0404FB02F20260BDE701FB9E
:101AEC0002F20260B9E700BF1C00002018000020C1
:101AFC00100000204FF48053C4F202035A6919B944
:101B0C0022EA00005861704710435861704700BFCB
:101B1C004FF48053C4F202039A6919B922EA000007
:101B2C009861704710439861704700BF4FF4805321
:101B3C00C4F20203DA6919B922EA0000D8617047CD
:101B4C001043D861704700BF4FF48053C4F20203B6
:101B5C00DA6819B922EA0000D86070471043D860DF
:101B6C00704700BF4FF48053C4F202031A6919B9CD
:101B7C0022EA00001861704710431861704700BFDB
:101B8C004FF48053C4F202035A6A42F080705862D8
:101B9C00704700BF08B54FF44053C4F2010398429C
:101BAC0018D04FF46051C4F2000188421ED04FF49B
:101BBC007052C4F20002904200D008BD01214FF4D3
:101BCC000040FFF7CFFF4FF400400021BDE8084074
:101BDC00FFF7C8BF01214FF48050FFF7B5FF4FF45A
:101BEC0080500021BDE80840FFF7AEBF01214FF443
:101BFC008040FFF7B7FF4FF480400021BDE808405C
:101C0C00FFF7B0BF0A88F0B44C888B88CD8814439A
:101C1C000E891C432C434B898F8944EA06020588A4
:101C2C00CE8913433B43334305F4415545EA030244
:101C3C0093B20380838B098A23F4006213041A0C79
:101C4C0082830182F0BC7047038829B923F04001DC
:101C5C000A04130C0380704799B241F040020280D1
:101C6C00704700BF81817047808980B2704700BF88
:101C7C00038919420CBF00200120704770B4048CFA
:101C8C004FF4305524F001063404260C0684048BE2
:101C9C00C4F2010524F0F3042404240C2243068C22
:101CAC0042EA0313A842B6B29CB223D04FF450526E
:101CBC00C4F2010290421DD0B0F1804F1AD04FF403
:101CCC008063C4F20003984214D04FF40062C4F253
:101CDC00000290420ED04FF44063C4F200039842CD
:101CEC0008D026F00A0646F001063143048301842D
:101CFC0070BC704726F0020242F001063143F5E752
:101D0C0070B4048C4FF4305524F010063404260CB7
:101D1C000684048BC4F2010524F440742405240DBC
:101D2C00068C44EA022242EA0333A842B6B29BB2C2
:101D3C0023D04FF45052C4F2010290421DD0B0F1A6
:101D4C00804F1AD04FF48062C4F20002904214D03B
:101D5C004FF40062C4F2000290420ED04FF4406285
:101D6C00C4F20002904208D026F0A00646F01006FD
:101D7C0031430383018470BC704726F0200242F08B
:101D8C00100646EA011189B2F3E700BF4FF4305256
:101D9C000388C4F20102904270B49BB21AD04FF483
:101DAC005052C4F20102904214D0B0F1804F11D0C5
:101DBC004FF48062C4F2000290420BD04FF40062E8
:101DCC00C4F20002904205D04FF44062C4F200020B
:101DDC00904205D14FF68F724C881A4042EA0403A8
:101DEC004FF48052C4F20002904234D04FF4A0520F
:101DFC00C4F2000290422ED04FF6FF42CE881A4019
:101E0C004FF430538D880C88C4F20103324398424E
:101E1C000280858504851BD04FF45052C4F2010218
:101E2C00904215D04FF48043C4F2010398420FD076
:101E3C004FF48842C4F20102904209D04FF490430F
:101E4C00C4F20103984203D00122828270BC704715
:101E5C00097A0186F8E703808B88838509880185D8
:101E6C00F2E700BF038C2DE9F00123F0010214040A
:101E7C00250C0584078C0D8984884E88038B2E4392
:101E8C0023F073024FF4305527F0020312041B04A5
:101E9C000F88C4F20105120C1B0CB6B2A842A4B2F6
:101EAC0042EA070246EA03031FD04FF45055C4F22E
:101EBC000105A84219D04FF48045C4F20105A8428F
:101ECC0013D04FF48845C4F20105A8420DD04FF44D
:101EDC009045C4F20105A84207D0C98884800283CA
:101EEC0081860384BDE8F00170474FF6F776B1F8B0
:101EFC000AC0B1F80E808F891E4046EA0C0C4FF6D2
:101F0C00FB738E884FF6FF4548EA070725400CEA1D
:101F1C000303BCB233432C43DFE700BF038CF0B4A4
:101F2C0023F010021404250C0584068C848826F0FA
:101F3C002002078B16040D89320C27F4E6431B0490
:101F4C0042EA05120F884E884FF430551B0CC4F230
:101F5C00010543EA072342EA0612A842A4B29BB247
:101F6C0092B20CD04FF45055C4F20105A84206D0E1
:101F7C00C9888480038301870284F0BC70474F8931
:101F8C004FF67F7616404FF2FF35B1F80CC0254066
:101F9C0046EA07164FF6BF728F88CC89324045EA65
:101FAC008C0542EA071245EA840492B2A4B2DFE738
:101FBC00038CF0B423F480721404250C0584068C75
:101FCC000D8926F400773A048488838B120C23F055
:101FDC00730642EA05224F884FF430553304C4F29D
:101FEC0001050E881B0C42EA0722A842A4B243EA60
:101FFC00060392B20CD04FF45055C4F20105A8421E
:10200C0006D0C9888480838381870284F0BC7047A2
:10201C004F894FF2FF7616404CF6FF75B1F80CC0A5
:10202C00254046EA07264FF6FF328F88CC8932408E
:10203C0045EA0C1542EA072245EA041492B2A4B20E
:10204C00DFE700BF038CF0B423F480521404250C9A
:10205C000584068C858826F40052878B16040C891F
:10206C00320C27F4E6431B0442EA04320F884E88F4
:10207C004FF430541B0CC4F2010443EA072342EA28
:10208C000632A042ADB29BB292B20DD04FF4505476
:10209C00C4F20104A04207D0C98885808383A0F8CC
:1020AC0040100284F0BC70474BF6FF748E892C40B4
:1020BC0044EA8615ADB2EFE7F8B50B880D46044639
:1020CC00002B58D0042B00F0B080082B028C63D06E
:1020DC0022F480508F8801040B0C2E89698823848C
:1020EC00A08B4FF4305220F440731805030D43EAD3
:1020FC000723208CC4F2010243EA0633944280B2D7
:10210C009BB230D04FF45052C4F2010294422AD008
:10211C00B4F1804F27D04FF48062C4F20002944295
:10212C0021D04FF40062C4F2000294421BD04FF451
:10213C004062C4F20002944215D047F6FF520240AE
:10214C0041F480510A43A3832284A38BE88823F4AF
:10215C00406211040B0CA383A28B91B241EA0020C4
:10216C0083B2A383F8BD20F4005040EA013291B24F
:10217C0041F48052E7E74988AA882B89FFF77EFD56
:10218C00238BE98823F00C021004030C2383228B8D
:10219C0090B208432083F8BD22F4807637043A0CC1
:1021AC0089882F896E880284808B4FF4305220F0FE
:1021BC00F3031804030C43EA0713208CC4F2010246
:1021CC009BB2944280B243EA010341D04FF4505188
:1021DC00C4F201018C423BD0B4F1804F38D04FF4A3
:1021EC008062C4F20002944232D04FF40061C4F217
:1021FC0000018C422CD04FF44062C4F20002944295
:10220C0026D04FF2FF51014046F480763143A38330
:10221C002184A38BE88823F00C0211040B0CA383FC
:10222C00A28B91B20143A183F8BD4988AA882B895E
:10223C00FFF766FD208BEA8820F440631904080C34
:10224C002083238B99B241EA022290B22083F8BDFD
:10225C0020F4007040EA062291B241F48071D6E776
:10226C0000234FF6FF7181800380C380438003728B
:10227C00704700BF0023038043808380C3800381A9
:10228C0043818381C38170470023012203804380F3
:10229C008280C38003817047038829B923F0010130
:1022AC000A04130C0380704799B241F001020280BA
:1022BC00704700BFB0F8443021B959044A0CA0F85B
:1022CC00442070476FEA43436FEA53418AB2A0F847
:1022DC004420704783899BB21AB923EA010181819A
:1022EC007047194381817047038B23F00802130454
:1022FC001A0C114301837047038B23F400621304FF
:10230C001A0C42EA01218BB203837047838B23F0B2
:10231C00080213041A0C114381837047838B23F436
:10232C00006213041A0C42EA01218BB283837047BA
:10233C00808E80B2704700BF008F80B2704700BFA4
:10234C00808F80B2704700BFB0F8400080B27047F9
:10235C00038A828911EA030092B203D011420CBFA6
:10236C0000200120704700BFC9438AB20282704727
:10237C00038A70B5044623F44050CA880D46010404
:10238C000E0C16432682A389AA88288923F4B056FA
:10239C00698926F00C0310431A04160C084340EA12
:1023AC0006018BB2A381A08AAA8920F4407631045D
:1023BC000B0C86B0134301A8A382FFF73DFB4FF42F
:1023CC006056A089C4F20106B44202B20CBF049E4E
:1023DC00039E002A21DB2D6806EB860101EB8103AD
:1023EC00AE00B3FBF6F148F21F53C5F2EB13A3FB9F
:1023FC000106A089720900B264251601002802FBAF
:10240C00151113DB0A013232A3FB0203C3F3431091
:10241C00304383B2238106B070BD286806EB860278
:10242C0002EB82054300B5FBF3F1DCE7C900323166
:10243C00A3FB0112C2F342103043EAE7838929B9A6
:10244C0023F400510A04130C8381704799B241F4B0
:10245C0000528281704700BF01F01F0310B4C1F31A
:10246C0042110124A14204FA03F30DD002290DD02C
:10247C0014302AB9026822EA0301016010BC7047CB
:10248C00026813430360F9E70C30F2E71030F0E711
:10249C00838A9BB21AB923EA0101818270471943DE
:1024AC008182704770B5194C064623783BB1184DA4
:1024BC0005F01CFF2A68B618B0420BD270BD05F0AF
:1024CC0015FF134D29683231884215D22078002827
:1024DC00EED170BD00231846237006F06FF805F09E
:1024EC0005FF0C490A4A1060087808B1431E0B70AE
:1024FC00094A0121117070BD01231846237006F0A2
:10250C005DF805F0F3FE286070BD00BFC10500202A
:10251C00C8050020B10F0020C205002070B5264C64
:10252C0082B025788DF8062002AA8DF805108DF85A
:10253C0007308DF80400531913F8040C4438C1B259
:10254C000A290ED93226022D15D83046FFF7AAFFDC
:10255C002278022A0FD8194B1878012809D002B01A
:10256C0070BD174E022D36F8116004D8002EECD138
:10257C00124B21780FE005F0B9FE124B821B186844
:10258C00824214D80D4B1878012801D0002EE6D1C8
:10259C002178022901D80131217000221A700A4BCE
:1025AC0010461A7002B0BDE8704006F007B8074A32
:1025BC00002121701170E5E7C4050020C205002040
:1025CC000C5A0108C8050020C1050020B10F0020DD
:1025DC002DE9F041504F04467B7B504D002B47D0EA
:1025EC00012028704FF4007002F0C4FB00282BD19E
:1025FC004B4E202002F09CFB48B1BB7A002B39D00B
:10260C004849CB7A002B39D1474B012119703278CC
:10261C00022A49D0012A4FD043480178012953D0CE
:10262C002B78012B58D0042C5ED0022C64D0012CBA
:10263C006AD03E4A1178002926D13D4B08461970C4
:10264C00BDE8F04105F0BABF3A493B480B8890F819
:10265C00AC2019B202EB8206B14213DD314E767812
:10266C00BEB92F4E02213170002BC2D13370C0E79E
:10267C002B70B7E7284AD07A0028C1D12A4800220B
:10268C000270C4E7264EEFE73220BDE8F041FFF7B9
:10269C0009BF90F8AD00224E121802EB8202012005
:1026AC0091423070E0DDDDE74E214C200A46442398
:1026BC00BDE8F041FFF732BF4D2153204C220B46B1
:1026CC00BDE8F041FFF72ABF532001464E224D23AF
:1026DC00BDE8F041FFF722BF5320014602464D23CF
:1026EC00BDE8F041FFF71ABF4D2153200A464423A1
:1026FC00BDE8F041FFF712BF532001464D224423A1
:10270C00BDE8F041FFF70ABF53204D214E22442370
:10271C00BDE8F041FFF702BFE41D0020C00500201A
:10272C00C50500207C1D0020C3050020B10F002032
:10273C00C1050020D80E00206412002070B5B0FB3B
:10274C00F2F406461546084614B12046FFF7F6FF8C
:10275C0005FB1464024B195D00F8011B70BD00BF32
:10276C00785B01082DE9F843037802460130202BF1
:10277C00FAD0092BF8D02D2B114600F0D0802B2B42
:10278C0004BF4B7802464FF07E57A3F13004E0B201
:10279C000026092817D8551C0021C4F220113046F8
:1027AC00FEF700FA06462046FEF7A8F90146304629
:1027BC00FEF7F0F82A4615F8013B0646A3F1300463
:1027CC00E1B20929E8D92E2B00F083801178652914
:1027DC000BD0452909D04FF07E513046FEF7E2F977
:1027EC003946FEF7DFF9BDE8F88353782D2B00F05E
:1027FC00A3802B2B00F0A480501C0025A3F13001EA
:10280C00092900F2A1800246002404EB840403EBA6
:10281C00440412F8013F303CA3F130010929F4D9EA
:10282C00B4F59A7F40F281804FF49A744BF62041B4
:10283C00C4F6BE414FF07E50FEF7B4F9A4F108097E
:10284C00B9F1070FC8460146C9F3C0021BD93AB10A
:10285C00FEF7A8F9A9F10808B8F1070F014612D93B
:10286C0008464BF62041C4F6BE41FEF79BF94BF6E9
:10287C002041C4F6BE41FEF795F9A8F11008B8F155
:10288C00070F0146ECD804F00704E4B10846002118
:10289C00C4F22011FEF786F904F1FF3844460146D4
:1028AC0008F001037CB133B908460021C4F22011B1
:1028BC00FEF778F9013C0021C4F22011FEF772F901
:1028CC00013C0146F0D1002D87D03046FEF71EFAB0
:1028DC0086E75178541CA1F13003D8B2092836D8B8
:1028EC000024C4F22014951C1846FEF707F9214663
:1028FC00FEF70CFA01463046FEF74CF80021C4F204
:10290C00201106462046FEF74DF92A4615F8011B04
:10291C000446A1F13003D8B20928E5D957E70027BE
:10292C0002464B78CBF680772FE7072C98BF4FF0F9
:10293C007E513FF67BAFA8E7901C937801255DE7AD
:10294C009378901C002559E74FF07E51BBE7224647
:10295C003DE700BF38B5017841B1054D0446286804
:10296C0006F006F814F8011F0029F8D138BD00BF95
:10297C003C1D002045F6A030C0F60100FFF7EABF71
:10298C0045F6D03038B5C0F6010045F6E834C0F64F
:10299C000104FFF7DFFF45F6F03145F6F43220462F
:1029AC00C0F60101C0F601020CF038FB45F61C41E3
:1029BC0045F624422046C0F60101C0F601020CF097
:1029CC002DFB45F6384145F644422046C0F6010140
:1029DC00C0F601020CF022FB45F6644145F66C4250
:1029EC002046C0F60101C0F6010245F6F0750CF068
:1029FC0015FBC0F6010545F69C4120462A46C0F65B
:102A0C0001010CF00BFB45F6A44145F6AC42204607
:102A1C00C0F60101C0F601020CF000FB45F6C04106
:102A2C0020462A46C0F601010CF0F8FA45F6C841DA
:102A3C0045F6CC422046C0F60101C0F601020CF06E
:102A4C00EDFA45F6E84145F6F0422046C0F60101A4
:102A5C00C0F601020CF0E2FA45F6045145F60C52B0
:102A6C002046C0F60101C0F601020CF0D7FA45F67B
:102A7C001C5145F624522046C0F60101C0F6010255
:102A8C000CF0CCFA45F6345145F638522046C0F6D7
:102A9C000101C0F601020CF0C1FA45F6685145F689
:102AAC005C522046C0F60101C0F601020CF0B6FAE9
:102ABC0045F670512046C0F601012A46BDE8384063
:102ACC000CF0ACBA2DE9F04105F010FC44F6D353F0
:102ADC00C1F26203A3FB00212D4C2E48237802780F
:102AEC0089092D480CF09AFA02F03EF92B4A4DF662
:102AFC0083651668C4F21B350746A5FB06032848F8
:102B0C00990C0CF08BFA0022264E2749144601250D
:102B1C0005E0611CCCB256F82410224669B105FAC6
:102B2C0002F00742F5D021480CF078FA611CCCB2C7
:102B3C0056F8241022460029F1D1022002F0F8F8B0
:102B4C0078B91B48FFF706FF1A490C8804F032F8D5
:102B5C000246194821464FF45E73BDE8F0410CF073
:102B6C005DBA164C164B2178164853F821100CF010
:102B7C0055FA20780228E4D1134A144892F8F5400B
:102B8C00002C0CBF6E216F210CF048FAD9E700BF66
:102B9C0064000020CC1D00207C5D01081400002086
:102BAC00BC5D0108BC680108785D0108DC5D0108AA
:102BBC00145F0108800F0020F05D0108AC110020AB
:102BCC005C5B0108E05D010828130020EC5D010846
:102BDC0038B50C680546204612F0D8F8024628682D
:102BEC002146BDE8384012F001B900BF45F624601B
:102BFC0008B5C0F60100FFF7ADFE0121002001F081
:102C0C006BFE45F63060C0F60100FFF7A3FE0A200C
:102C1C0005F0AAFB0020BDE8084005F0BBBC00BFD6
:102C2C0038B5054645F64060C0F60100FFF792FE48
:102C3C0040F2CC5440F2FC5141F228230022C2F263
:102C4C000004C2F20001C2F20003284622700A609E
:102C5C001A70BDE83840FFF7C9BF00BF2DE9F04F2F
:102C6C008BB0804612F092F808284CD09D4C9E48B0
:102C7C00FFF770FEA0789D4D0290607995F806A143
:102C8C0095F8078194F800B094F8019005900AA883
:102C9C00E278804495F808C182440AF80CBC08F824
:102CAC000C9CDDF8088095F80C11844495F809E12A
:102CBC0095F80A7195F80B6195F80D310392257909
:102CCC000CF80C8CDDF80CC0864404950EF80CCC7A
:102CDC00DDF810E0C71907F80CECE279A579059F2F
:102CEC0044188619C31806F80C7C814804F80C5C4F
:102CFC0007A903F80C2C00228DF824200CF08EF977
:102D0C000BB0BDE8F08F7B4A98F800101068C246F3
:102D1C0043185D7808F1060C05F00306022E08BF77
:102D2C0020390AF8011B116898F80170CDF810C011
:102D3C00C819437808F1020603F00305022D08BFF9
:102D4C00203F88F80170116898F8027008F1040BA4
:102D5C00C819437898F8031003F00305022D08BF37
:102D6C00203F88F80270106808F1030743185D785B
:102D7C0005F00300022808BF203988F803101368F7
:102D8C0098F804105D186878156800F00303022B9E
:102D9C0014BF0C46A1F1200498F8051088F80440E3
:102DAC006818457808F1050305F00300022814BFE4
:102DBC000C46A1F120040393116898F8063088F8AA
:102DCC000540CC186578126805F00300022898F8C5
:102DDC00075008BF203B88F806305319597808F182
:102DEC00070401F003000294022898F800903D4C6F
:102DFC0008BF203D88F807502046494611F0EAFEEE
:102E0C0020B15046494611F0E5FE18B13A48FFF79B
:102E1C00A1FD75E798F8012020461146019211F0AA
:102E2C00D9FE019B0028F1D03046194611F0D2FE94
:102E3C000028EBD198F802602046314611F0CAFE0A
:102E4C000028E3D03846314611F0C4FE0028DDD10D
:102E5C0098F803602046314611F0BCFE0028D5D00E
:102E6C005846314611F0B6FE0028CFD198F80460D0
:102E7C002046314611F0AEFE0028C7D003983146EB
:102E8C0011F0A8FE0028C1D198F805602046314603
:102E9C0011F0A0FE0028B9D00498314611F09AFE2A
:102EAC000028B3D198F806602046314611F092FE06
:102EBC000028ABD00298314611F08CFE0028A5D129
:102ECC00EDB22046294611F085FE00289ED008F16F
:102EDC000800294611F07EFE002897D1404601F0EB
:102EEC00F7F9C4E618700108785E01082813002071
:102EFC00B860010870010020585E01082DE9F84304
:102F0C00074611F043FF044601F050FF0646DCB9BA
:102F1C003348FFF71FFD334D3349012703E055F8C4
:102F2C00041F013459B107FA04F03042F7D02F488E
:102F3C000CF074F855F8041F01340029F3D12C4817
:102F4C00BDE8F843FFF706BD38462A49224611F082
:102F5C004DFF002827D03B782D2B36D04FF00009A1
:102F6C00DFF8808020494646002504E056F8041F0F
:102F7C000135002924D03846224611F037FF0028AD
:102F8C00F4D1012000FA05F0B9F1000F22D001F0C4
:102F9C0003FF1948FFF7DEFC184858F82510BDE868
:102FAC00F8430CF03BB81648FFF7D4FC0D4C0E4917
:102FBC000E480CF033F854F8041F0029F8D1BEE782
:102FCC001048BDE8F843FFF7C5BC0137013C4FF092
:102FDC000109C5E701F0D8FE0B48FFF7BBFCDBE7A6
:102FEC00945E0108245A0108905E0108DC5D01081A
:102FFC00145F0108A85E0108E45E0108B8600108CE
:10300C00B05E0108C85E0108F05E010845F6FC6080
:10301C0008B5C0F60100FFF79DFC012001F0E2FCB1
:10302C0045F61870C0F60100FFF794FC0A2005F075
:10303C009BF90020BDE8084005F0ACBA2DE9F04141
:10304C00804611F0A3FE074600281FD040462049B9
:10305C003A4611F0CBFE002828D01E4E1E4C0025FF
:10306C0004E056F8044F0135002C1AD02146404696
:10307C003A4611F0BBFE0028F3D1184B1848013525
:10308C0021465D71BDE8F0410BF0C8BF1348114BF0
:10309C0042791448511E53F82110BDE8F0410BF051
:1030AC00BDBF1148BDE8F041FFF754BC0F48FFF716
:1030BC0051FC084C08490E480BF0B0FF54F8041FA3
:1030CC000029F8D10B48BDE8F041FFF743BC00BF25
:1030DC00A85E0108685A0108285F0108281300201F
:1030EC006C5F01082C5F0108545F0108405F010808
:1030FC00DC5D0108145F010838B5044611F046FE8A
:10310C000E4D01460CE011F05FFB0228034613D86C
:10311C00002001460A4C85F8743301F0DDFB0021D8
:10312C0011F0FF0F2046EED1044A064892F87413B2
:10313C00BDE838400BF072BF38BD00BF281300202B
:10314C00F05F0108805F010870B5054611F01EFEA6
:10315C00C0B290B9144B04469D1C5A882146661C7B
:10316C0012480BF05BFF0234104831466A880BF0B2
:10317C0055FFAB1C142CEFD170BD284611F024FB6D
:10318C001328044605DD0A481421BDE870400BF0F5
:10319C0045BF2021284611F01DFD11F015FB054BF4
:1031AC0003EB4404E08770BDA0120020985F010877
:1031BC00A45F010864120020931E222B88BF0A22F0
:1031CC00031E10B50C4605DBFFF7B8FA00210170A1
:1031DC00204610BD2D2001F8010B5842FFF7AEFA26
:1031EC0000220270204610BD70B5002386B00C463C
:1031FC0000210546039304930593FDF78FFE0028E9
:10320C0042D041F26F212846C3F60321FDF7C2FBE1
:10321C000021C4F27A41FDF7C5FCFDF789FE064694
:10322C0086EAE670A0EBE6700A226946FFF7C4FF57
:10323C00002E31DB20218DF80C10684611F0A6FD14
:10324C00012803AD32D002283CD003286946284619
:10325C0026D011F099FC284611F098FD0338C6B21F
:10326C0032462946204611F02FFE0021A15520465A
:10327C0011F08CFD2E22431C2254A919E01811F0D8
:10328C0027FD204606B070BD41F26F212846C3F6DB
:10329C000321FDF77DFBBBE72D208DF80C00CCE75F
:1032AC0030228DF80D2011F06FFCD4E73026284623
:1032BC0069468DF80D608DF80E608DF80F6011F079
:1032CC0063FCC8E73023284669468DF80D308DF82D
:1032DC000E3011F059FCBEE730B5037983B00446CB
:1032EC000D46052B11D8DFE803F01C1F23262A03FB
:1032FC00806869460068FFF777FF01461C480BF0B1
:10330C008DFE002D1ED103B030BD002119480BF0ED
:10331C0085FE002DF7D01848E16822690BF07EFE7F
:10332C00F1E781680978F1E7806890F90010EDE722
:10333C0083681988EAE78268B2F90010E6E78168C9
:10334C000968E3E7E068FDF7D9FB6946FFF74CFF36
:10335C0001460A480BF062FE2069FDF7CFFB694677
:10336C00FFF742FF014605480BF058FECBE700BFC4
:10337C00CC5F0108D85F0108D45F0108D05F010859
:10338C002DE9F84F044611F001FD8046002800F0AD
:10339C00C880012800F0C18020463D2111F01AFCA4
:1033AC00002865D0471C384611F00EFA8246384684
:1033BC00FFF7D8F90027DFF8208281463E4620E04F
:1033CC0058F801500136284611F0E0FC2946024617
:1033DC00204611F00BFDB34607F128023C37F0B143
:1033EC0058F802500136284611F0D0FC2946024606
:1033FC00204611F0FBFC90B10BF102065D2E00F0A3
:10340C00DD8058F80750284611F0C0FC29460246CA
:10341C00204611F0EBFC07F114010028D0D16E4CC2
:10342C0006EB860604EB8604E068FDF767FB0146B5
:10343C004846FDF769FD002800F0AF802069FDF7D4
:10344C005DFB01464846FDF755FD002800F0A580C0
:10345C00207905280CBF4A465246052800F2A48064
:10346C00DFE810F0A000A000B700B700B400B10076
:10347C00DFF8649106468046CA4640F2447B59F810
:10348C0006502146284611F083FF06F11407294601
:10349C0008F1010560B151480BF0C0FD08EB880044
:1034AC000AEB80000021FFF717FF4D480BF0B6FD2B
:1034BC0059F807602146304611F06AFF314660B179
:1034CC0046480BF0ABFD05EB85010AEB81000021B2
:1034DC00FFF702FF42480BF0A1FD07F1140259F867
:1034EC0002802146404611F053FF07F12806414661
:1034FC006F1C05F1020860B138480BF08FFD07EB2B
:10350C0087030AEB83000021FFF7E6FE34480BF03B
:10351C0085FD5E45B3D1BDE8F88F23782A2B7FF467
:10352C003BAF3048FFF716FA00262B4D3446A9590D
:10353C0004EB840729480BF071FD414605EB87002D
:10354C00FFF7CAFE2648FFF705FA06F11402A95840
:10355C00671C22480BF062FD07EB8700414605EB28
:10356C008000FFF7B9FE1E48FFF7F4F906F12801B9
:10357C001A48695801370BF051FD07EB870305EB2F
:10358C0083004146FFF7A8FE03341548FFF7E2F924
:10359C003C365D2CCBD1BDE8F88F1348BDE8F84F15
:1035AC00FFF7D8B9A3681A70294610480BF036FDFE
:1035BC0020460021BDE8F84FFFF78EBE0C48BDE851
:1035CC00F84FFFF7C7B9A3681A60EDE7A1680A6066
:1035DC00EAE7A0680280E7E7D4680108D060010838
:1035EC00145F0108DC5F010800600108F45F01084A
:1035FC00286001082DE9F04F93488BB0934E0BF0E7
:10360C000DFD9348FFF7A0FD7279924B511E924825
:10361C0053F821100BF002FD376900213846FDF7F5
:10362C0055FC002800F0A58006AD01F0BFFBDFF8CB
:10363C0060828A498346474689480BF0EFFC57F86D
:10364C00041F0029F8D185480F464FF001040146AC
:10365C0003E058F8041F013761B104FA07F212EACB
:10366C000B0FF6D07F480BF0D9FC58F8041F01372C
:10367C000029F2D17C4A0C46907896F80C1196F8F9
:10368C0006A196F8079196F8088196F809C196F864
:10369C000AE196F80B7196F80D3156780190107975
:1036AC000096D678039090790296567905900AA8E0
:1036BC0092F800B0049646182946009D8244814435
:1036CC000AF810BC09F8105C019D804408F8105CE5
:1036DC00029D84440CF8105C039D86440EF8105C2B
:1036EC00049DC719D27907F8105C059FC3185F4871
:1036FC0006F8107C03F8102C8DF820400BF08EFC93
:10370C005B4E254631595B480BF088FC05EB850276
:10371C0006EB82000021FFF7DFFD5748FFF71AF98F
:10372C0004F114016F1C534871580BF077FC07EB34
:10373C008700002106EB8000FFF7CEFD4E48FFF717
:10374C0009F904F12803F1584A4801370BF066FCDB
:10375C0007EB870206EB82000021FFF7BDFD033566
:10376C004548FFF7F7F83C345D2DCBD10BB0BDE8E5
:10377C00F08F34464FF0000806AD39E02946384644
:10378C00FFF732FD01463D480BF048FC584600213E
:10379C00FDF7A6FB00284AD129465846FFF724FD21
:1037AC00014636480BF03AFC50460021FDF798FBD9
:1037BC00002838D129465046FFF716FD01462F4800
:1037CC000BF02CFC48460021FDF78AFB38BB294640
:1037DC004846FFF709FD014629480BF01FFC002164
:1037EC00B8F10C0F27D027693846FDF76FFB38BBB3
:1037FC0008F1010841462348D4F814B0D4F818A0B5
:10380C00D4F81C900BF00AFC384600211034FDF75C
:10381C0067FB0028B2D01C480BF000FCAEE71A483E
:10382C000BF0FCFBD3E718480BF0F8FBC2E716488B
:10383C000BF0F4FBB0E70D2114480BF0EFFBF4E6B2
:10384C0008F10101F8E700BF4860010828130020C7
:10385C00F05F0108685A010878600108905E010861
:10386C00A0600108B060010818700108C060010870
:10387C00D4680108CC600108145F0108CC5F010812
:10388C00B860010884600108D85D01088C600108EB
:10389C00245A01082DE9F04788B0044611F076FA55
:1038AC00C5B2002D40F0BD82B34CB448FFF752F8BE
:1038BC0020690021FDF70AFB002840F00F83B04877
:1038CC0001210BF0ABFB04A92069FFF78DFC01462D
:1038DC00AC480BF0A3FB04A96069FFF785FC01461B
:1038EC00A8480BF09BFB04A9A069FFF77DFC0146DF
:1038FC00A4480BF093FB04A9E069FFF775FC0146A3
:10390C00A1480BF08BFB206A0021FDF7DFFA0028A1
:10391C0040F038839A4802210BF080FB04A9206AFE
:10392C00FFF762FC014697480BF078FB04A9606A2C
:10393C00FFF75AFC014693480BF070FB04A9A06AF0
:10394C00FFF752FC01468F480BF068FB04A9E06AB4
:10395C00FFF74AFC01468C480BF060FB206B002102
:10396C00FDF7B4FA002840F00F83854803210BF0D3
:10397C0055FB04A9206BFFF737FC014681480BF07F
:10398C004DFB04A9606BFFF72FFC01467D480BF043
:10399C0045FB04A9A06BFFF727FC014679480BF007
:1039AC003DFB04A9E06BFFF71FFC014676480BF0CA
:1039BC0035FB206C0021FDF789FA002840F0E682E7
:1039CC006F4804210BF02AFB04A9206CFFF70CFCB8
:1039DC0001466C480BF022FB04A9606CFFF704FC59
:1039EC00014668480BF01AFB04A9A06CFFF7FCFB1E
:1039FC00014664480BF012FB04A9E06CFFF7F4FBE2
:103A0C00014661480BF00AFB206D0021FDF75EFAC0
:103A1C00002840F0BD825A4805210BF0FFFA04A99A
:103A2C00206DFFF7E1FB014656480BF0F7FA04A9AD
:103A3C00606DFFF7D9FB014652480BF0EFFA04A971
:103A4C00A06DFFF7D1FB01464E480BF0E7FA04A935
:103A5C00E06DFFF7C9FB01464B480BF0DFFA206E17
:103A6C000021FDF733FA002840F0948244480621E7
:103A7C000BF0D4FA04A9206EFFF7B6FB01464148BF
:103A8C000BF0CCFA04A9606EFFF7AEFB01463D4883
:103A9C000BF0C4FA04A9A06EFFF7A6FB0146394847
:103AAC000BF0BCFA04A9E06EFFF79EFB014636480A
:103ABC000BF0B4FA206F0021FDF708FA002840F053
:103ACC006B822F4807210BF0A9FA04A9206FFFF78E
:103ADC008BFB01462B480BF0A1FA04A9606FFFF792
:103AEC0083FB014627480BF099FA04A9A06FFFF756
:103AFC007BFB014623480BF091FA04A9E06FFFF71A
:103B0C0073FB014620480BF089FAD4F880000021A1
:103B1C00FDF7DCF9002840F04182194808210BF030
:103B2C007DFA04A9D4F88000FFF75EFB0146154826
:103B3C000BF074FA04A9D4F88400FFF755FB014686
:103B4C0010480BF06BFA04A9D4F88800FFF74CFB73
:103B5C0001460C480BF062FA04A9D4F88C00FFF76C
:103B6C0043FB014608480BF059FAD4F890000021A9
:103B7C00FDF7ACF90AE000BF28130020E060010853
:103B8C000C61010814610108B8600108002840F0BC
:103B9C000782B24809210BF041FA04A9D4F890002D
:103BAC00FFF722FB0146AE480BF038FA04A9D4F813
:103BBC009400FFF719FB0146A9480BF02FFA04A952
:103BCC00D4F89800FFF710FB0146A5480BF026FA35
:103BDC0004A9D4F89C00FFF707FB0146A1480BF0A1
:103BEC001DFAD4F8A0000021FDF770F9002840F070
:103BFC00D9819A480A210BF011FA04A9D4F8A00033
:103C0C00FFF7F2FA014696480BF008FA04A9D4F82B
:103C1C00A400FFF7E9FA014691480BF0FFF904A95B
:103C2C00D4F8A800FFF7E0FA01468D480BF0F6F93E
:103C3C0004A9D4F8AC00FFF7D7FA014689480BF079
:103C4C00EDF9D4F8B0000021FDF740F9002840F060
:103C5C00448182480B210BF0E1F904A9D4F8B0009F
:103C6C00FFF7C2FA01467E480BF0D8F904A9D4F844
:103C7C00B400FFF7B9FA014679480BF0CFF904A963
:103C8C00D4F8B800FFF7B0FA014675480BF0C6F946
:103C9C0004A9D4F8BC00FFF7A7FA014671480BF051
:103CAC00BDF9D4F8C0000021FDF710F9002840F050
:103CBC007B816A480C210BF0B1F904A9D4F8C0003F
:103CCC00FFF792FA014666480BF0A8F904A9D4F85C
:103CDC00C400FFF789FA014661480BF09FF904A96B
:103CEC00D4F8C800FFF780FA01465D480BF096F94E
:103CFC0004A9D4F8CC00FFF777FA014659480BF029
:103D0C008DF90C25584E00207169FCF743FE04EB2D
:103D1C000514A71B103FB169C7F3001A0746002012
:103D2C00FCF738FEF16980460020FCF733FE06F103
:103D3C001005A542814639D0BAF1000F12D069693D
:103D4C003846FCF727FEA96907464046FCF722FED9
:103D5C00E96980464846FCF71DFE06F12005A542A0
:103D6C00814623D069693846FCF714FEA9690746D9
:103D7C004046FCF70FFEE96980464846FCF70AFE10
:103D8C0005F11006716905463846FCF703FEB1696A
:103D9C0007464046FCF7FEFDF16980462846FCF7D5
:103DAC00F9FD06F11005A5428146DBD12F48CDF86F
:103DBC000880CDF80C90FEF7CDFD4DF20A7127F07E
:103DCC000040C3F62341FDF7A9F8294B294A0028E6
:103DDC0014BF10461846FEF7BDFD02984DF20A714D
:103DEC00C3F6234120F00040FDF798F8214D204CFC
:103DFC00002814BF28462046FEF7ACFD039B4DF26D
:103E0C000A71C3F6234123F00040FDF787F8002820
:103E1C0014BF28462046FEF79DFD1748FEF79AFD75
:103E2C0019E020461549052210F0E0FF002827D1A3
:103E3C000D48002303610362036303640365036697
:103E4C000367C0F88030C0F89030C0F8A030C0F8DC
:103E5C00B030C0F8C03008B0BDE8F0870C61010884
:103E6C0014610108B86001082813002018610108CA
:103E7C00D8600108DC600108145F010828610108A2
:103E8C0020465049042210F0B1FF05462046002D73
:103E9C0033D1202110F09EFE0028DCD0471C384680
:103EAC0010F074FF484E5FFA80F8484C03E056F867
:103EBC00044F0135ECB121463846424610F096FFCE
:103ECC000028F4D1284608F08FF8414821460BF021
:103EDC00A5F84048FFF7DEFCBDE70A250021039159
:103EEC000291002D7FF40EAF3B48FEF733FD3B48AB
:103EFC0071E73B48FEF72EFDADE710F065FC451E63
:103F0C000B2D064652DC2046202110F063FE0446A1
:103F1C00002850D0441C2046FEF724FC314B3601BF
:103F2C00985101262046202110F054FE044640B141
:103F3C00441C2046FEF716FC2A49013601EB0512FB
:103F4C0050612046202110F045FE044640B1441C2F
:103F5C002046FEF707FC234B013603EB0511886165
:103F6C002046202110F036FE40B10130FEF7FAFB5E
:103F7C001C4A032E02EB0515E8611ED01A48FEF709
:103F8C00E9FC68E70125A9E70225A7E70325A5E7D2
:103F9C000425A3E70525A1E706259FE707259DE74F
:103FAC0008259BE7092599E70B2597E70F480C2176
:103FBC000BF034F84FE70646B4E70648FFF76AFC07
:103FCC0049E700BF30610108685A0108285F010801
:103FDC0038610108F05F010818610108D860010818
:103FEC00545F0108281300204C6101088861010806
:103FFC002DE9F04F41F22822C2F20002137887B06B
:10400C00002B00F006818D4DDFF86482286803F0E8
:10401C009FFE002877D08948006803F09FFE09288E
:10402C00034614D03F2812D0854C2268002A79D040
:10403C000C2800F0DE800A2B00F09A800D2B00F08B
:10404C0097807F2B00F0DC802F2ADFD872E07C4E2B
:10405C007C4C37682B464FF000093A4604F1A80B0C
:10406C004D469A46002A51D1A146002D58D00C3409
:10407C005C45F7D35146AA460D46BAF1000F18D04D
:10408C00DAF80000D9F80010835C8C5C80189C4234
:10409C0011440ED1DFF8B8C10BB92D2A5DD90CF83B
:1040AC00023010F8013F11F8014F0132A342F3D056
:1040BC0032600AB1CA4559D06348FEF74BFCCA4579
:1040CC0098BF544609D854F80C0BFEF743FC092151
:1040DC00286804F04DFC4C45F5D95C480027FEF7E8
:1040EC0039FC32683C46974290D2594F395D28686A
:1040FC0004F03EFC326801349442F7D3286803F094
:10410C0027FE002887D107B0BDE8F08F2168504802
:10411C0010F06CFE32680028A9D1A146002DA6D162
:10412C002546A4E7042800F085800C2861D07F2B5D
:10413C003FF46CAF1F2B7FF669AF7E2B3FF666AF5B
:10414C0012B9202B3FF462AF414F561C2868194618
:10415C00BB54266004F00CFC58E720200CF802003D
:10416C000132CA4532600CF80230A5D13C46BAE7A0
:10417C003848FEF7EFFB3848354E0090D4F800C0B5
:10418C00002706F80C7003A82E490E220C23049766
:10419C00039610F01DFB0746002847D0006810F06E
:1041AC00F5FD421CBB68B01898472C4941F2282EEB
:1041BC00C2F2000E00200A469EF8007042F8040B72
:1041CC003060C8F8000041F8140C41F8100C41F8AC
:1041DC000C0C41F8080C41F8040C0E1F48605060A0
:1041EC009060D0602060002F8DD01848FEF7B2FB95
:1041FC000CE71B48FEF7AEFB1448FEF7ABFB05E7DC
:10420C00134B013A0021174822609954FEF7A2FB88
:10421C00FCE641F2282601211348C2F20006317057
:10422C00FEF798FB0948FEF795FBECE60F48FEF706
:10423C0091FBBAE70648FEF7F3FC64E73C1D00204F
:10424C00FC050020B45A0108F0610108E86101087E
:10425C00CC050020145F0108DD2B0008E8050020C8
:10426C00F861010828620108B061010804620108C4
:10427C00D005002010B44FF47C43C0F6010319782C
:10428C00392902D0002010BC70475A88B2F55E7FE5
:10429C00F8D11879BE28F5D193F87533EF2BF1D1FD
:1042AC004FF60143C0F601034FF677741878C0F649
:1042BC00010404E058785A1C414050780233A34260
:1042CC0081EA0001F6D1D1F1010038BF0020DAE714
:1042DC00F8B50178054679B1084F094E04460748F0
:1042EC0010F078FCC31B621BF11808B181F8062191
:1042FC0014F8011F0029F2D1F8BD00BF1870010895
:10430C00281300202DE9F04F87B0FFF7B3FF0028EA
:10431C0000F09482DA4E4FF47C413046C0F6010135
:10432C004FF45E7210F0ECFA96F87433022B02D94B
:10433C00002386F87433C42202FB0361D14C01F5CF
:10434C009471204610F0DCFA94F820006FF01407FA
:10435C0007FB00F5C0EB0079A0EB800A4FEA0913CC
:10436C00E17F4FEACA08C0EB407205F6C41703F6AA
:10437C00C41505EB450CC0EBC20008F6C41B01FBD1
:10438C000CF900F6C4120BFB01FA7F00920043F209
:10439C00D40303FB01FC01FB07F701FB02F248F617
:1043AC00AD31C6F6DB0181FB0A0B81FB095094F899
:1043BC00213081FB075E009081FB0C054FEAEA7A05
:1043CC00C3F1000C81FB0208CAEBAB2AD2171FFA0F
:1043DC008CFCDDF800B0FF170392CDF804C0B6F8E2
:1043EC00D0204FEAE979B6F8D260C7EBAE20C9EB22
:1043FC00AB290495DDF804B0A34D05960290039FFC
:10440C00DDF810E00FFA8BF094F82210C3F164067B
:10441C00A5F802A0A5F80690DDF808A0DDF8149028
:10442C00C7EBA8284FEA9E2CF7B203EB830E4FF094
:10443C00000B0028A5F80880A5F80AC0A5F800B064
:10444C00C2EB090CA5F804A04FEA4E0EC1F16408AA
:10445C0007FB07F703FB03F940F33682BB4600FB6F
:10446C0000F501FB05F595FBFBF5454405FB00F05C
:10447C0046F26765C6F2666585FB00A5C017C0EB02
:10448C00A5050EEB050005B20CFB05F044F6D35563
:10449C00C1F2620585FB00ABC3F10A0AC0171FFA13
:1044AC008AFAC0EBAB1B794D0FFA8AF093440028C3
:1044BC00A5F800B040F30182BA4600FB00FB01FBFB
:1044CC000BFB9BFBFAFA0AEB080B0BFB00F046F21A
:1044DC00676AC6F2666A8AFB00BAC017C0EBAA000C
:1044EC00704400B20CFB00F044F6D35BC1F2620BDB
:1044FC008BFB00BAC3F1140BC0171FFA8BFBC0EB7C
:10450C00AA1A0FFA8BF092440028A5F802A040F3E7
:10451C00CD81BB4600FB00FA01FB0AFA9AFBFBFBC0
:10452C000BEB080A0AFB00F046F2676BC6F2666BEF
:10453C008BFB00BAC017C0EBAA00704400B20CFB96
:10454C0000F044F6D35BC1F2620B8BFB00BAC3F1F3
:10455C001E0BC0171FFA8BFBC0EBAA1A0FFA8BF0BD
:10456C0092440028A5F804A040F39981BB4600FBB7
:10457C0000FA01FB0AFA9AFBFBFB0BEB080A0AFB9D
:10458C0000F046F2676BC6F2666B8BFB00BAC01785
:10459C00C0EBAA00704400B20CFB00F044F6D35BF5
:1045AC00C1F2620B8BFB00BAC3F1280BC0171FFAC8
:1045BC008BFBC0EBAA1A0FFA8BF092440028A5F8DB
:1045CC0006A040F36581BB4600FB00FA01FB0AFA2A
:1045DC009AFBFBFB0BEB080A0AFB00F046F2676B3D
:1045EC00C6F2666B8BFB00BAC017C0EBAA00704416
:1045FC0000B20CFB00F044F6D35BC1F2620B8BFBF8
:10460C0000BAC3F1320BC0171FFA8BFBC0EBAA1A0E
:10461C000FFA8BF092440028A5F808A040F33181E2
:10462C00BB4600FB00FA01FB0AFA9AFBFBFB0BEB07
:10463C00080A0AFB00F046F2676BC6F2666B8BFB4E
:10464C0000BAC017C0EBAA00704400B20CFB00F01B
:10465C0044F6D35BC1F2620B8BFB00BAC3F13C0B8B
:10466C00C0171FFA8BFBC0EBAA1A0FFA8BF09244FF
:10467C000028A5F80AA040F3FD80BB4608E000BF67
:10468C0028130020641200206C1E0020941D0020B2
:10469C0000FB00FA01FB0AFA9AFBFBFB0BEB080A86
:1046AC000AFB00F046F2676BC6F2666B8BFB00BA36
:1046BC00C017C0EBAA00704400B20CFB00F044F62B
:1046CC00D35BC1F2620B8BFB00BAC3F1460BC01774
:1046DC001FFA8BFBC0EBAA1A0FFA8BF0924400283E
:1046EC00A5F80CA040F3BF80BB4600FB00FA01FB11
:1046FC000AFA9AFBFBFB0BEB080A0AFB00F046F2EA
:10470C00676BC6F2666B8BFB00BAC017C0EBAA00D6
:10471C00704400B20CFB00F044F6D35BC1F2620BA8
:10472C008BFB00BAC3F1500BC0171FFA8BFBC0EB0D
:10473C00AA1A0FFA8BF092440028A5F80EA040F3A9
:10474C008B80BB4600FB00FA01FB0AFA9AFBFBFBD1
:10475C000BEB080A0AFB00F046F2676BC6F2666BBD
:10476C008BFB00BAC017C0EBAA00704400B20CFB64
:10477C0000F044F6D35BC1F2620B8BFB00BAC3F1C1
:10478C005A03C0179BB2C0EBAA1B18B202EB0B0A60
:10479C000028A5F810A05ADD3B4600FB00FB01FBEE
:1047AC000BFA9AFBF3F3434403FB00F046F2676306
:1047BC00C6F2666383FB00A3C017C0EBA3030EEB2A
:1047CC00030003B20CFB03F344F6D350C1F26200B6
:1047DC0080FB03B0B6B2DB17C3EBA01033B21018DA
:1047EC00002B68822EDD03FB03F001FB00F191FB33
:1047FC00F7F7B84408FB03F346F26760C6F266604D
:10480C0080FB0301DB17C3EBA10086440FFA8EF18A
:10481C000CFB01FC44F6D353C1F2620383FB0C1076
:10482C004FEAEC71C1EBA01B5A442078AA8209F024
:10483C0059FB07B0BDE8F04F04F092BC0A2003F01E
:10484C0083FE67E5002E14BF4F460127CBE7002BF4
:10485C0014BF4B460123A0E7BBF1000F14BFCB469E
:10486C004FF0010B6EE7BBF1000F14BFCB464FF0BE
:10487C00010B3AE7BBF1000F14BFCB464FF0010B15
:10488C0006E7BBF1000F14BFCB464FF0010BC8E697
:10489C00BBF1000F14BFCB464FF0010B94E6BBF1FC
:1048AC00000F14BFCB464FF0010B60E6BBF1000FBD
:1048BC0014BFCB464FF0010B2CE6BAF1000F14BF1E
:1048CC00CA464FF0010AF8E5019D002D14BFCB46F6
:1048DC004FF0010BC3E500BF2DE9F8433E4D3923E2
:1048EC0006464FF45E702B706880BE22EF230020CA
:1048FC002A7185F8753385F8760349B195F87413E8
:10490C00C42202FB0153354903F594700FF0F8FFF4
:10491C0033483921A0F276331A7804E05C785A1CBB
:10492C00527861400233834281EA0201F6D14FF69C
:10493C00787885F876134FF00309C0F60108FCF778
:10494C00C1FE3420FCF7D8FE4FF47C40C0F60100C9
:10495C00FCF742FF04282DD14FF47C44C0F601042F
:10496C0006E00968FCF704FF042814D1444521D063
:10497C00621902F17843A3F5FE3120460968FCF771
:10498C00F7FE271DEA1902F1784308340428A3F531
:10499C00FE313846E5D0FCF7A5FEB9F10109CED1C0
:1049AC00FCF7A0FE0A2003F0CFFDFFF7ABFC5EB9CD
:1049BC00BDE8F883FCF796FEFFF75CFC0028F1D00D
:1049CC00FFF7A0FC002EF3D00F2014210122BDE82C
:1049DC00F84308F001BD00BF28130020641200202A
:1049EC009F1600202DE9F04F85B00446FFF742FCDE
:1049FC0010B1002C00F09081C94BCA4D1868596851
:104A0C00C94C02AA03C200214FF45E72284610F072
:104A1C0025F84FF039090021C422204610F01EF869
:104A2C0085F800904FF0030985F805904FF00209C6
:104A3C00C5F808904FF41679A5F8EA904FF0FA09EA
:104A4C00A5F8EC9041F203484FF0BC09A5F8E890AA
:104A5C00C0F214084FF02009322385F8F490C5F801
:104A6C00F0804FF02B094FF06E081A4685F8028142
:104A7C0085F80391A5F8DC3040F24C49A5F8E030FC
:104A8C004FF021084FF4E13385F80481A5F8129119
:104A9C0009F54878C5F81C3140F27E494FF496432D
:104AAC00A5F81481A5F8D09009F52F78C5F8203118
:104ABC004FF47A7940F6AC53A5F8D280AB8109F566
:104ACC00CB780123A5F8D49085F8E53008F16C0972
:104ADC001E2340F2DC564FF0280B4FF0170CA5F8B4
:104AEC00D680A5F8D890E372237340F2B4585523BE
:104AFC004FF4C87984F815C084F816C0A5F8DA808C
:104B0C00A5F8DE90A5F8106184F801B084F802B025
:104B1C00E3701923A3730B2363711423A37108236C
:104B2C0023740E23E371142350275A2163746423D6
:104B3C002776E77621720A272377E17746F2666AB1
:104B4C00412149F69A134FF02D0EC3F6667A227165
:104B5C00A77484F8201084F8212001210422152741
:104B6C00C3F61973714884F80DE084F81AE084F8E0
:104B7C002C2084F82F702363C4F834A0C4F838A018
:104B8C0084F83C1084F809B084F82DB084F82EB069
:104B9C00FFF79EFB9DF808909DF809009DF80C709E
:104BAC009DF80A109DF80B204FF4966A4FF47F7E07
:104BBC004FF000084FF0C80C0197A4F8AEA04FF4CA
:104BCC00FA6784F8729084F87A0040F2D93A0A2095
:104BDC004FF0010984F8ADC0A4F8B0A0A4F86CE0C3
:104BEC00A4F86E70A4F874E0A4F87670A4F87CE0D5
:104BFC00A4F87E7084F88210A4F884E0A4F886707F
:104C0C0084F88A20A4F88CE0A4F88E7084F869905B
:104C1C0084F8AC00A4F87060A4F87860A4F8806004
:104C2C00A4F8886084F8668084F8678084F868B09B
:104C3C0084F86A80A4F890609DF80D90DDF804A0CB
:104C4C00CDF804909DF80F90A4F89670CDF80090D4
:104C5C00A4F89E70A4F8A670009FDDF8049084F868
:104C6C0092A084F8AA709DF80EA04FF496770023BA
:104C7C002146C422A4F894E084F89A90A4F89CE00D
:104C8C00A4F8A4E0A4F8BE704FF0010EA4F898604C
:104C9C00A4F8A060A4F8A8601E27142605F594704B
:104CAC004FF06409A4F8B6C02B612B622B632B6404
:104CBC002B652B662B67C5F8803084F8B2E084F83E
:104CCC00B3E084F8A2A084F8B4E084F8BAE0C5F8A4
:104CDC009030C5F8A030C5F8B030C5F8C03084F8B5
:104CEC00B86084F8B970A4F8BC90A4F8C0B00FF008
:104CFC0007FE2146C42205F5F6700FF001FE214691
:104D0C0005F52C70C4220FF0FBFD4046414605B062
:104D1C00BDE8F04FFFF7E0BD05B0BDE8F08F00BF78
:104D2C00EC5901082813002064120020247001089B
:104D3C0040F20063C2F20003196808420CBF002065
:104D4C000120704740F20063C2F200031A6810435E
:104D5C001860704740F20063C2F200031A6822EA3E
:104D6C0000001860704700BF40F20063C2F20003FD
:104D7C001868704741F22833C2F200039968084260
:104D8C000CBF00200120704741F22833C2F200030F
:104D9C009A6810439860704741F22833C2F20003BE
:104DAC009A6822EA00009860704700BF41F22833ED
:104DBC00C2F20003986870472DE9F04107788046ED
:104DCC00082090B00037C4F2020018BF0127FCF78E
:104DDC0023FB42F24C434F48C4F201030022FCB2C5
:104DEC00059306900792002C00F08E800225089502
:104DFC00099280264FF48073082000254FF48062BE
:104E0C00C4F2020005A90A960B9320264FF4005316
:104E1C000C920D960E930F95FCF7AAFB0820C4F28A
:104E2C0002000121FCF7D4FB01264FF46020009511
:104E3C008DF804708DF8056002900395002C50D00D
:104E4C004FF4105002246946C4F201008DF8104052
:104E5C00FCF73EFA4FF410503246C4F20100042124
:104E6C000323FCF78DFA4FF41050C4F2010098F8AC
:104E7C00001022460323FCF783FA4FF41050C4F2BF
:104E8C0001000121FCF754FA4FF41050C4F2010058
:104E9C000121FCF743FA4FF41050C4F20100FCF767
:104EAC0051FA4FF41050C4F20100FCF751FA0028EB
:104EBC00F7D14FF41050C4F20100FCF74DFA4FF447
:104ECC001050C4F20100FCF74DFA0028F7D14FF452
:104EDC001050C4F201000121FCF748FA10B0BDE8F3
:104EEC00F0814FF410506946C4F201008DF8106047
:104EFC00FCF7EEF94FF41050C4F2010004213246D5
:104F0C000323FCF73DFAB8E70121089109942646E2
:104F1C0070E700BF0406002040F20463C2F20003F5
:104F2C0033F8100080B270472DE9F04F554B87B025
:104F3C001A78019032215320002A00F08580082233
:104F4C0004AB01F0F1FC9DF811409DF810209DF888
:104F5C0012009DF815609DF813509DF814109DF8E3
:104F6C00173002EB042200EB0525012401EB06208F
:104F7C000FFA82FB5A062DB206B24ED0322108220D
:104F8C00671C04AB532001F0CFFCFCB29DF811A0C0
:104F9C009DF815E09DF810909DF813809DF812C0B7
:104FAC009DF81470611C09EB0A2907EB0E270CEB1A
:104FBC00082C9DF817A03FB20091532032210822F3
:104FCC000FFA89F90FFA8CFE202C3E4404ABCB442B
:104FDC0075440AF07F0720D0FFB1009C01F0A4FCBF
:104FEC009DF814309DF815209DF811C09DF8100007
:104FFC009DF813709DF8121003EB02229DF81730E8
:10500C0000EB0C2001EB072100B209B212B25B06D7
:10501C00E4B283440D441644B0D11B489BFBF4F31B
:10502C0095FBF4F596FBF4F6ADF80830ADF80A50A4
:10503C00ADF80C600470154A02A8019912780DF0B5
:10504C0069FA07B0BDE8F08F062204AB01F06CFCE6
:10505C009DF811509DF810109DF813409DF81220EA
:10506C009DF815009DF8143001EB052102EB04228C
:10507C0003EB0020ADF80810ADF80A20ADF80C00D9
:10508C00D9E700BF08060020090600202C000020EC
:10509C00164B10B51B7804462D2108225320C3B1A2
:1050AC0001F01EFD31210A22532001F019FD2C21A3
:1050BC000C22532001F014FD38219022532001F0D2
:1050CC000FFD0B4840F2091202800CB109490C701B
:1050DC0010BD01F005FD31210A22532001F000FD25
:1050EC0053202C210A2201F0FBFCEAE708060020E1
:1050FC006E0000202C00002070B5134A4FF4D853DA
:10510C001468C0F2B703002282B09C428DF80720CD
:10511C0006460D460BD01146532001220DF1070314
:10512C0001F002FC18B19DF80700E52802D0002020
:10513C0002B070BD31780548054B064A686019709D
:10514C002A600120F4E700BF10000020354F000852
:10515C00080600209D500008F0B585B004460221D9
:10516C0006226B46182001F0DFFB9DF800709DF8BD
:10517C0002609DF804509DF801009DF803109DF805
:10518C00052040F22D03BF08B608AD08C2F200039B
:10519C0007EB002706EB012605EB022502A82146AA
:1051AC001A78ADF80870ADF80A60ADF80C500DF037
:1051BC00B1F905B0F0BD00BF10B50F2108220446AF
:1051CC00182001F08DFC0E221820102101F088FC13
:1051DC00034B4FF480521A800CB10248047010BD7E
:1051EC006E0000202D00002030B583B0002402ABEF
:1051FC00054603F8014D21461820012201F094FBCD
:10520C0020B19DF80730FB2B02D0204603B030BDF7
:10521C0002480349286069600120F7E7C55100087E
:10522C00655100083B4B3C4A2DE9F00115885C891F
:10523C001E892F1B06FB07F7B3F91250B3F9142084
:10524C00FC13A718EE0296FBF7F56219A2F57A6427
:10525C0004FB04F6B3F902C0B3F90E8035130CFB52
:10526C0004F708FB05F84FEAE72CB3F900700CEBD8
:10527C00E828B3F9206008EB870707FA06F84CF228
:10528C00503747FA06F6B3F90CC0B3F904700CFBAF
:10529C0005F507FB04F42F14204D07EB6434A71C11
:1052AC00D5F800C0BC1008F10205DF88ACEBA505F1
:1052BC0004F5004406FB05F607FB04F402EB82053B
:1052CC006D000835DA612D11E20B002E1DDB740028
:1052DC00B4FBF2F31E1206FB06F64EF24332CFF687
:1052EC00FF7202FB03F440F6DE3202FB06F22414DA
:1052FC0004EB224202F6CF6203EB221300B10360EF
:10530C0001B10D60BDE8F0017047B6FBF2F35B0034
:10531C00E0E700BF100600203A060020340600200B
:10532C0000B5114B83B0187818B910490A88531C72
:10533C000B80F621032201AB772001F0F5FA9DF8E2
:10534C0005100B4B9DF804000A02B3F920309DF8B0
:10535C00061042EA00400843C3F1080220FA02F0AA
:10536C000449086003B000BD0A0600200C060020AA
:10537C00100600203406002000B50C4B83B01878C2
:10538C0018B90B490A88531C0B80F621022201AB79
:10539C00772001F0C9FA9DF804009DF80510054B23
:1053AC0041EA00221A8003B000BD00BF0A060020AB
:1053BC000C0600203A06002040F21063C2F20003F3
:1053CC0093F8202010B49401343440F20A63C2F2F2
:1053DC00000304F0FC0277200024F4211C7010BCA4
:1053EC0001F07EBB10B440F20A63C2F20003002449
:1053FC007720F4212E221C7010BC01F071BB00BF71
:10540C0010B54FF48040FCF747F90128044600D052
:10541C0010BD4FF48040FCF74FF9014B1C7010BDD0
:10542C000A0600202DE9F04F8B4A4FF4D85311682F
:10543C00C0F2B7039942A1B007465BD0874C94F8F1
:10544C000080B8F1000F03D0012021B0BDE8F08F2F
:10545C004FF48059C4F20109102302254FF4005A6D
:10546C00484616A98DF85A304FF480468DF85B509B
:10547C00ADF858A000F000F90422484616A98DF8A2
:10548C005A20ADF8586000F0F7F80E212846C9F8FC
:10549C0010A0FCF7C1F90125082118A88DF865109A
:1054AC0018968DF864800F268DF86650FCF7B6F8C8
:1054BC00282317A88DF85C308DF85D608DF85E6040
:1054CC008DF85F50FBF7C6FE142002F04DFF7720DD
:1054DC00D0212A460DF1570301F026FA9DF857000A
:1054EC005F4E03225528F075328405D0C9F814A0FC
:1054FC004046AAE70020A8E7D1212A460DF1570320
:10550C00772001F011FA9DF85710162201F00F0CBC
:10551C004FEA111E1AABAA21772086F818C086F81C
:10552C0019E001F001FA9DF870309DF8698009933B
:10553C009DF871309DF86AC00A939DF872309DF801
:10554C006CB00B939DF873309DF86DA00C939DF887
:10555C0074309DF868900D939DF875309DF86B0034
:10556C000E939DF876309DF86F100F939DF8773061
:10557C009DF86E2010939DF8783048EA0929119314
:10558C009DF879304AEA0B2803939DF87A3040EA6B
:10559C000C2012939DF87B3041EA022202939DF875
:1055AC007C3013939DF87D30DDF828C0DDF824B0F5
:1055BC000193CDF81490069007924CEA0B29DDF874
:1055CC0030A00B990E9B0D98109ADDF83CB0CDF8DD
:1055DC00108043EA002C4AEA012842EA0B20DDF84D
:1055EC000CA0029BDDF848B0119943EA0B224AEA61
:1055FC000121DDF804B0DDF84CA031824BEA0A231E
:10560C00DDF814B0DDF818A0A6F800B0A6F802A0DA
:10561C00DDF810B0DDF81CA041F27071F081A6F835
:10562C0004B0A6F806A0A6F80890A6F80A80A6F87A
:10563C000CC07282B38239800A4B0B4946F6781241
:10564C007A807B60B960094A094B0A492846257063
:10565C00FA603B617961F8E6100000203806002002
:10566C0010060020F153000885530008C5530008AC
:10567C002D530008315200080B8870B4DA0712D58C
:10568C008A78056812F0100F02F00F0401D0CE7862
:10569C00344325F00F052C43282A046000F0718157
:1056AC00482A00F0DC819A0713D58A78056812F035
:1056BC00100F02F00F0401D0CE78344325F0F00522
:1056CC0045EA0414282A046000F05681482A00F0A8
:1056DC00BC815A0713D58A78056812F0100F02F0B6
:1056EC000F0401D0CE78344325F4706545EA0424C8
:1056FC00282A046000F03B81482A00F0AB811A078D
:10570C0013D58A78056812F0100F02F00F0401D03F
:10571C00CE78344325F4704545EA0434282A0460D5
:10572C0000F01B81482A00F07C81DA0613D58A78B8
:10573C00056812F0100F02F00F0401D0CE7834433C
:10574C0025F4702545EA0444282A046000F00A81F7
:10575C00482A00F06B819A0613D58A78056812F0F6
:10576C00100F02F00F0401D0CE78344325F47005ED
:10577C0045EA0454282A046000F0E080482A00F02E
:10578C005A815A0613D58A78056812F0100F02F068
:10579C000F0401D0CE78344325F0706545EA0464DB
:1057AC00282A046000F00181482A00F049811A0679
:1057BC0013D58A78056812F0100F02F00F0401D08F
:1057CC00CE78344325F0704545EA0474282A0460E9
:1057DC0000F0E180482A00F0FC80DA0512D58A78C6
:1057EC00456812F0100F02F00F0401D0CE7834434C
:1057FC0025F00F052C43282A446000F0D180482A5C
:10580C0000F0EC809A0513D58A78456812F0100FD9
:10581C0002F00F0401D0CE78344325F0F00545EAB0
:10582C000414282A446000F09380482A00F0DB809E
:10583C005A0512D58A78456812F0100F02F00F0441
:10584C0001D0CE78344325F4706545EA0424282A27
:10585C00446078D0482A00F0CB801A0512D58A789B
:10586C00456812F0100F02F00F0401D0CE783443CB
:10587C0025F4704545EA0434282A446059D0482A56
:10588C0000F0BB80DA0412D58A78456812F0100F4C
:10589C0002F00F0401D0CE78344325F4702545EA8C
:1058AC000444282A446071D0482A00F0AB809A0442
:1058BC0012D58A78456812F0100F02F00F0401D04F
:1058CC00CE78344325F4700545EA0454282A446004
:1058DC0070D0482A00F09B805A0412D58A7845680B
:1058EC0012F0100F02F00F0401D0CE78344325F0E3
:1058FC00706545EA0464282A446065D0482A00F0A3
:10590C008B80DB0B13D08B78446813F0100F18BF0F
:10591C00C97803F00F0218BF0A4324F0704141EA22
:10592C000272282B42604AD0482B00F09D8070BC3C
:10593C007047C26822F40062C260A3E7C26822F01A
:10594C002002C2601DE7C26822F48062C26084E754
:10595C00C26822F40072C2606AE7C26822F00802D0
:10596C00C260E2E6C26822F01002C260F3E6C268CE
:10597C0022F00402C260C2E6C26822F00202C260D7
:10598C00A7E6C26822F00102C2608CE6C26822F46B
:10599C008052C2608BE7C26822F08002C2601CE7B2
:1059AC00C26822F48072C2602CE7C26822F0400206
:1059BC00C260FCE6C26822F40052C2608CE7C26886
:1059CC0022F40043C360B2E7C26822F48042C26092
:1059DC0097E7C26842F08002C260FEE6C26842F4F9
:1059EC008072C2600EE7C26842F40072C2601FE7A8
:1059FC00C26842F48062C2602FE7C26842F400625F
:105A0C00C2603FE7C26842F48052C2604FE7C2688E
:105A1C0042F40052C2605FE7C26842F48042C26046
:105A2C006FE7C26842F00802C2607EE6C26842F0CC
:105A3C001002C2608FE6C26842F02002C260A0E68B
:105A4C00C26842F04002C260B1E6C26842F0020293
:105A5C00C2603EE6C26842F00402C2604FE6C26811
:105A6C0042F00102C2601EE6C36843F40041C1600B
:105A7C005DE700BF08B5134A4FF44063C4F201035D
:105A8C0098681188014218D102F012FC0E4B19686B
:105A9C0088420CD943F6BF42401AC2F2B62282FBAE
:105AAC0000120A49C3170868C3EBE20202600849F6
:105ABC000868BDE80840FBF7FFBD02F0F9FB024B9C
:105ACC001860F4E744060020400600204C06002035
