:020000040800F2
:10000000005000205D2301080D24010831BA0008CA
:100010000D2401080D2401080D2401080000000032
:100020000000000000000000000000000D24010896
:100030000D240108000000000D2401084986000875
:100040000D2401080D2401080D2401080D240108C8
:100050000D2401080D2401080D240108F960000891
:100060000D2401080D2401080D2401080D240108A8
:100070000D2401080D240108998900080D240108A8
:100080000D2401080D2401080D2401080D24010888
:100090000D2401080D2401080D240108FD6000084D
:1000A0000D2401080D2401080D2401089182000887
:1000B0000983000815830008258300088D6E000859
:1000C00069720008916E0008657200080D2401082D
:1000D0000D2401080D2401080D8D00080D240108D0
:1000E000215A00080D2401080D2401080000000019
:1000F0000000000000000000000000000000000000
:0C01000000000000000000005FF808F1A3
:1001100010B5054C237833B9044810B10448AFF347
:1001200000800121217010BDCC09002000000000DA
:100130001CA8010808B5064B1BB106480649AFF3D9
:1001400000800648016811B1054A02B1904708BD18
:10015000000000001CA80108D0090020CC090020E4
:100160000000000081F0004102E000BF83F0004386
:1001700030B54FEA41044FEA430594EA050F08BF42
:1001800090EA020F1FBF54EA000C55EA020C7FEA06
:10019000645C7FEA655C00F0E2804FEA5454D4EB83
:1001A0005555B8BF6D420CDD2C4480EA020281EA4D
:1001B000030382EA000083EA010180EA020281EA85
:1001C0000303362D88BF30BD11F0004F4FEA0131D7
:1001D0004FF4801C4CEA113102D0404261EB4101E6
:1001E00013F0004F4FEA03334CEA133302D052426C
:1001F00063EB430394EA050F00F0A780A4F1010428
:10020000D5F1200E0DDB02FA0EFC22FA05F2801861
:1002100041F1000103FA0EF2801843FA05F3594147
:100220000EE0A5F120050EF1200E012A03FA0EFCC6
:1002300028BF4CF0020C43FA05F3C01851EBE371F0
:1002400001F0004507D54FF0000EDCF1000C7EEB0D
:1002500000006EEB0101B1F5801F1BD3B1F5001F4B
:100260000CD349085FEA30004FEA3C0C04F101046A
:100270004FEA445212F5800F80F09A80BCF1004F93
:1002800008BF5FEA500C50F1000041EB045141EA15
:10029000050130BD5FEA4C0C404141EB010111F416
:1002A000801FA4F10104E9D191F0000F04BF0146C1
:1002B0000020B1FA81F308BF2033A3F10B03B3F19F
:1002C00020020CDA0C3208DD02F1140CC2F10C022F
:1002D00001FA0CF021FA02F10CE002F11402D8BF8D
:1002E000C2F1200C01FA02F120FA0CFCDCBF41EA59
:1002F0000C019040E41AA2BF01EB0451294330BD28
:100300006FEA04041F3C1CDA0C340EDC04F1140404
:10031000C4F1200220FA04F001FA02F340EA0300DB
:1003200021FA04F345EA030130BDC4F10C04C4F121
:10033000200220FA02F001FA04F340EA0300294601
:1003400030BD21FA04F0294630BD94F0000F83F44B
:10035000801306BF81F480110134013D4EE77FEA2E
:10036000645C18BF7FEA655C29D094EA050F08BF7A
:1003700090EA020F05D054EA000C04BF194610465B
:1003800030BD91EA030F1EBF0021002030BD5FEA9F
:10039000545C05D14000494128BF41F0004130BDC7
:1003A00014F580043CBF01F5801130BD01F000451B
:1003B00045F0FE4141F470014FF0000030BD7FEA8E
:1003C000645C1ABF194610467FEA655C1CBF0B4689
:1003D000024650EA013406BF52EA033591EA030FA0
:1003E00041F4002130BD00BF90F0000F04BF002198
:1003F000704730B54FF4806404F132044FF00005CB
:100400004FF0000150E700BF90F0000F04BF002143
:10041000704730B54FF4806404F1320410F00045A9
:1004200048BF40424FF000013EE700BF42004FEAA4
:10043000E2014FEA31014FEA02701FBF12F07F4321
:1004400093F07F4F81F06051704792F0000F14BF1E
:1004500093F07F4F704730B54FF4607401F0004562
:1004600021F0004120E700BF50EA010208BF7047B9
:1004700030B54FF000050AE050EA010208BF7047AE
:1004800030B511F0004502D5404261EB41014FF417
:10049000806404F132045FEA915C3FF4DCAE4FF01B
:1004A00003025FEADC0C18BF03325FEADC0C18BF02
:1004B000033202EBDC02C2F1200300FA03FC20FA53
:1004C00002F001FA03FE40EA0E0021FA02F11444A0
:1004D000C1E600BF70B54FF0FF0C4CF4E06C1CEAB5
:1004E00011541DBF1CEA135594EA0C0F95EA0C0F2A
:1004F00000F0DEF82C4481EA030621EA4C5123EA9D
:100500004C5350EA013518BF52EA033541F48011CB
:1005100043F4801338D0A0FB02CE4FF00005E1FB7E
:1005200002E506F00042E0FB03E54FF00006E1FBC8
:1005300003569CF0000F18BF4EF0010EA4F1FF040B
:10054000B6F5007F64F5407404D25FEA4E0E6D414B
:1005500046EB060642EAC62141EA55514FEAC5205C
:1005600040EA5E504FEACE2EB4F1FD0C88BFBCF5D8
:10057000E06F1ED8BEF1004F08BF5FEA500E50F189
:10058000000041EB045170BD06F0004646EA01014F
:1005900040EA020081EA0301B4EB5C04C2BFD4EB81
:1005A0000C0541EA045170BD41F480114FF0000E7A
:1005B000013C00F3AB8014F1360FDEBF002001F0E8
:1005C000004170BDC4F10004203C35DA0C341BDC62
:1005D00004F11404C4F1200500FA05F320FA04F034
:1005E00001FA05F240EA020001F0004221F0004168
:1005F00010EBD37021FA04F642EB06015EEA430EDB
:1006000008BF20EAD37070BDC4F10C04C4F120050A
:1006100000FA04F320FA05F001FA04F240EA0200BD
:1006200001F0004110EBD37041F100015EEA430E8E
:1006300008BF20EAD37070BDC4F1200500FA05F2AE
:100640004EEA020E20FA04F301FA05F243EA02032D
:1006500021FA04F001F0004121FA04F220EA02003C
:1006600000EBD3705EEA430E08BF20EAD37070BD82
:1006700094F0000F0FD101F00046400041EB010162
:1006800011F4801F08BF013CF7D041EA060195F044
:10069000000F18BF704703F00046520043EB0303FE
:1006A00013F4801F08BF013DF7D043EA06037047EB
:1006B00094EA0C0F0CEA135518BF95EA0C0F0CD0F6
:1006C00050EA410618BF52EA4306D1D181EA03013C
:1006D00001F000414FF0000070BD50EA410606BF36
:1006E0001046194652EA430619D094EA0C0F02D17B
:1006F00050EA013613D195EA0C0F05D152EA0336C0
:100700001CBF104619460AD181EA030101F00041DD
:1007100041F0FE4141F470014FF0000070BD41F026
:10072000FE4141F4780170BD70B54FF0FF0C4CF400
:10073000E06C1CEA11541DBF1CEA135594EA0C0F1F
:1007400095EA0C0F00F0A7F8A4EB050481EA030E6C
:1007500052EA03354FEA013100F088804FEA033353
:100760004FF0805545EA131343EA12634FEA022221
:1007700045EA111545EA10654FEA00260EF00041E2
:100780009D4208BF964244F1FD0404F5407402D234
:100790005B084FEA3202B61A65EB03055B084FEAC5
:1007A00032024FF480104FF4002CB6EB020E75EBC2
:1007B000030E22BFB61A754640EA0C005B084FEAEA
:1007C0003202B6EB020E75EB030E22BFB61A754667
:1007D00040EA5C005B084FEA3202B6EB020E75EBB2
:1007E000030E22BFB61A754640EA9C005B084FEA2A
:1007F0003202B6EB020E75EB030E22BFB61A754637
:1008000040EADC0055EA060E18D04FEA051545EA25
:1008100016754FEA06164FEAC30343EA52734FEACE
:10082000C2025FEA1C1CC0D111F4801F0BD141EA47
:1008300000014FF000004FF0004CB6E711F4801FAC
:1008400004BF01430020B4F1FD0C88BFBCF5E06F8C
:100850003FF6AFAEB5EB030C04BFB6EB020C5FEA9C
:10086000500C50F1000041EB045170BD0EF0004EF1
:100870004EEA113114EB5C04C2BFD4EB0C0541EA23
:10088000045170BD41F480114FF0000E013C90E620
:1008900045EA060E8DE60CEA135594EA0C0F08BFE4
:1008A00095EA0C0F3FF43BAF94EA0C0F0AD150EAE3
:1008B00001347FF434AF95EA0C0F7FF425AF104676
:1008C00019462CE795EA0C0F06D152EA03353FF49E
:1008D000FDAE1046194622E750EA410618BF52EA1B
:1008E00043067FF4C5AE50EA41047FF40DAF52EAEF
:1008F00043057FF4EBAE12E74FEA410212F5001216
:1009000015D211D56FF47873B3EB625212D94FEA56
:10091000C12343F0004343EA505311F0004F23FA40
:1009200002F018BF404270474FF00000704750EA95
:10093000013005D111F0004008BF6FF00040704752
:100940004FF00000704700BF4FEA4102B2F1E043B0
:1009500024BFB3F5001CDCF1FE5C0DD901F0004CA6
:100960004FEAC0024CEA5070B2F1004F40EB8300F6
:1009700008BF20F00100704711F0804F21D113F122
:100980003872BCBF01F00040704741F480114FEA5B
:100990005252C2F11802C2F1200C10FA0CF320FAE4
:1009A00002F018BF40F001004FEAC1234FEAD32301
:1009B00003FA0CFC40EA0C0023FA02F34FEA43036B
:1009C000CCE77FEA625307D150EA01331EBF4FF0F4
:1009D000FE4040F44000704701F0004040F0FE400F
:1009E00040F40000704700BF80F0004002E000BF0C
:1009F00081F0004142001FBF5FEA410392EA030F0A
:100A00007FEA226C7FEA236C6AD04FEA1262D2EB53
:100A10001363C1BFD218414048404140B8BF5B4258
:100A2000192B88BF704710F0004F40F4000020F0F1
:100A30007F4018BF404211F0004F41F4000121F007
:100A40007F4118BF494292EA030F3FD0A2F1010251
:100A500041FA03FC10EB0C00C3F1200301FA03F18F
:100A600000F0004302D5494260EB4000B0F5000FB2
:100A700013D3B0F1807F06D340084FEA310102F171
:100A80000102FE2A51D2B1F1004F40EBC25008BF23
:100A900020F0010040EA03007047490040EB0000ED
:100AA00010F4000FA2F10102EDD1B0FA80FCACF11C
:100AB000080CB2EB0C0200FA0CF0AABF00EBC2501B
:100AC00052421843BCBFD0401843704792F0000F09
:100AD00081F4000106BF80F400000132013BB5E75C
:100AE0004FEA41037FEA226C18BF7FEA236C21D0D2
:100AF00092EA030F04D092F0000F08BF0846704737
:100B000090EA010F1CBF0020704712F07F4F04D104
:100B1000400028BF40F00040704712F100723CBF17
:100B200000F50000704700F0004343F0FE4040F441
:100B3000000070477FEA226216BF08467FEA2363FF
:100B40000146420206BF5FEA412390EA010F40F4EA
:100B5000800070474FF0000304E000BF10F0004336
:100B600048BF40425FEA000C08BF704743F096431D
:100B700001464FF000001CE050EA010208BF704738
:100B80004FF000030AE000BF50EA010208BF7047BF
:100B900011F0004302D5404261EB41015FEA010CD4
:100BA00002BF84460146002043F0B64308BFA3F1CC
:100BB0008053A3F50003BCFA8CF2083AA3EBC253AE
:100BC00010DB01FA02FC634400FA02FCC2F12002CD
:100BD000BCF1004F20FA02F243EB020008BF20F004
:100BE0000100704702F1200201FA02FCC2F120026A
:100BF00050EA4C0021FA02F243EB020008BF20EA5F
:100C0000DC7070474FF0FF0C1CEAD0521EBF1CEA8C
:100C1000D15392EA0C0F93EA0C0F6FD01A4480EA7A
:100C2000010C400218BF5FEA41211ED04FF0006363
:100C300043EA501043EA5111A0FB01310CF000408F
:100C4000B1F5000F3EBF490041EAD3715B0040EAB5
:100C5000010062F17F02FD2A1DD8B3F1004F40EB85
:100C6000C25008BF20F00100704790F0000F0CF058
:100C7000004C08BF49024CEA502040EA51207F3A1C
:100C8000C2BFD2F1FF0340EAC250704740F40000F7
:100C90004FF00003013A5DDC12F1190FDCBF00F0E8
:100CA00000407047C2F10002410021FA02F1C2F196
:100CB000200200FA02FC5FEA310040F1000053EA32
:100CC0004C0308BF20EADC70704792F0000F00F080
:100CD000004C02BF400010F4000F013AF9D040EA86
:100CE0000C0093F0000F01F0004C02BF490011F41A
:100CF000000F013BF9D041EA0C018FE70CEAD15318
:100D000092EA0C0F18BF93EA0C0F0AD030F0004C97
:100D100018BF31F0004CD8D180EA010000F000404B
:100D2000704790F0000F17BF90F0004F084691F009
:100D3000000F91F0004F14D092EA0C0F01D1420243
:100D40000FD193EA0C0F03D14B0218BF084608D10C
:100D500080EA010000F0004040F0FE4040F4000056
:100D6000704740F0FE4040F4400070474FF0FF0CE9
:100D70001CEAD0521EBF1CEAD15392EA0C0F93EA30
:100D80000C0F69D0A2EB030280EA010C49024FEA82
:100D9000402037D04FF0805343EA111143EA10133B
:100DA0000CF000408B4238BF5B0042F17D024FF4F3
:100DB000000C8B4224BF5B1A40EA0C00B3EB510FCE
:100DC00024BFA3EB510340EA5C00B3EB910F24BFB7
:100DD000A3EB910340EA9C00B3EBD10F24BFA3EB3C
:100DE000D10340EADC001B0118BF5FEA1C1CE0D104
:100DF000FD2A3FF650AF8B4240EBC25008BF20F0B7
:100E0000010070470CF0004C4CEA50207F32C2BF0A
:100E1000D2F1FF0340EAC250704740F400004FF0A7
:100E20000003013A37E792F0000F00F0004C02BFD8
:100E3000400010F4000F013AF9D040EA0C0093F0A2
:100E4000000F01F0004C02BF490011F4000F013BFC
:100E5000F9D041EA0C0195E70CEAD15392EA0C0F64
:100E600008D142027FF47DAF93EA0C0F7FF470AF9C
:100E7000084676E793EA0C0F04D14B023FF44CAFDF
:100E800008466EE730F0004C18BF31F0004CCAD174
:100E900030F000427FF45CAF31F000437FF43CAFB0
:100EA0005FE700BF4FF0FF3C06E000BF4FF0010CD2
:100EB00002E000BF4FF0010C4DF804CD4FEA4002B4
:100EC0004FEA41037FEA226C18BF7FEA236C11D0FE
:100ED00001B052EA530C18BF90EA010F58BFB2EBB1
:100EE000030088BFC81738BF6FEAE17018BF40F031
:100EF000010070477FEA226C02D15FEA402C05D1E5
:100F00007FEA236CE4D15FEA412CE1D05DF8040B69
:100F1000704700BF844608466146FFE70FB5FFF7FC
:100F2000C9FF002848BF10F1000F0FBD4DF808EDB4
:100F3000FFF7F4FF0CBF012000205DF808FB00BFA5
:100F40004DF808EDFFF7EAFF34BF012000205DF8FF
:100F500008FB00BF4DF808EDFFF7E0FF94BF01204C
:100F600000205DF808FB00BF4DF808EDFFF7D2FF49
:100F700094BF012000205DF808FB00BF4DF808ED8C
:100F8000FFF7C8FF34BF012000205DF808FB00BF59
:100F90004FEA4002B2F1FE4F0FD34FF09E03B3EB86
:100FA00012620DD94FEA002343F0004310F0004FC6
:100FB00023FA02F018BF404270474FF0000070471C
:100FC00012F1610F01D1420205D110F0004008BFBB
:100FD0006FF0004070474FF00000704742000ED2A3
:100FE000B2F1FE4F0BD34FF09E03B3EB126209D464
:100FF0004FEA002343F0004323FA02F070474FF01A
:101000000000704712F1610F01D1420202D14FF08E
:10101000FF3070474FF00000704700BF4BB942B936
:10102000002908BF002802D04FF0FF31084600F029
:101030003BB882B0EC462DE9005000F01DF8DDF819
:1010400004E002B00CBC70472DE9F041164698460A
:1010500004460D4600F02AF806FB01FCA6FB00231F
:1010600000FB08C7FB18A21A65EB0303069CC4E942
:101070000023BDE8F08100BF2DE9F041904606460F
:101080000F461D4600F070F900FB05F3A0FB084574
:1010900008FB0138069B4544341B67EB0505C3E993
:1010A0000045BDE8F08100BF704700BF00292DE971
:1010B000F00F1D46C0F29D800024002DC0F29480E8
:1010C00080460F4694461E46E3BB8A4255D9B2FA83
:1010D00082F747B1C7F1200520FA05F601FA07F1BA
:1010E000BA40B8403143170CB1FBF7F61FFA82FC47
:1010F00007FB16110CFB06F5030C43EA01439D4266
:1011000008D9711E9B1880F013819D4240F2108116
:10111000023E9B18591BB1FBF7F507FB15130CFB9F
:1011200005FC80B240EA03418C4507D96B1E8A1842
:1011300080F00081944540F2FD80023D45EA064181
:10114000002503E08B420CD9002529460A462B4690
:1011500014B1524263EB430310461946BDE8F00F49
:101160007047B3FA83F5002D40F087808B4201D39E
:101170008242EAD800250121E8E712B90126B6FB30
:10118000F2F2B2FA82F6002E39D18E1A130C1FFA3F
:1011900082FC0125B6FBF3F703FB17610CFB07F894
:1011A0004FEA104949EA0146B04506D9791EB618FA
:1011B00002D2B04500F2D3800F46C8EB0606B6FB5C
:1011C000F3F103FB11630CFB01FC80B240EA034323
:1011D0009C4506D94E1E9A1802D2944500F2C28050
:1011E000314641EA0741B1E7E443524263EB43032E
:1011F00066E7404261EB41014FF0FF345DE7B240EA
:10120000C6F1200921FA09F720FA09F901FA06F1D5
:10121000130CB7FBF3F81FFA82FC03FB18770CFBE7
:1012200008F549EA01094FEA194141EA0747B04088
:10123000BD420AD9BF1808F1FF3680F08E80BD424A
:1012400040F28B80A8F10208BF18791BB1FBF3F5BF
:1012500003FB15170CFB05F61FFA89F949EA07414C
:101260008E4206D96F1E891871D28E426FD9023D07
:1012700089188E1B45EA08458CE7C5F1200122FA42
:1012800001F306FA05F627FA01F207FA05F720FA44
:1012900001F11E434FEA1649B2FBF9F81FFA86FA2C
:1012A00009FB18220AFB08FB0F433B0C43EA0242EE
:1012B00093450CFA05FC08D9921908F1FF314AD27E
:1012C000934548D9A8F102089219CBEB0203B3FB6E
:1012D000F9F109FB11320AFB01FABFB247EA0243F6
:1012E0009A4506D94A1E9B1933D29A4531D90239FB
:1012F0009B1941EA08410F0C1FFA8CF808FB07F60E
:101300008AB24FEA1C4C08FB02F80CFB02620CFB91
:1013100007FC02EB1842964288BF0CF5803CCAEBF2
:1013200003030CEB124C63450ED305D000250DE7EB
:101330000E46EFE61D4601E700FA05F01FFA88F8B1
:1013400008EB0245A842F1D201390025FEE63D46F0
:101350008FE71146CDE78846B7E7B04675E7023F0D
:10136000B6182AE702393CE72DE9F007144605468E
:101370000E46002B3DD18A4249D9B2FA82F747B1D5
:10138000C7F1200120FA01F206FA07F6BC40BD4081
:101390001643220CB6FBF2F0A1B202FB106601FB71
:1013A00000F32F0C47EA0646B34208D9471E361908
:1013B00080F0FA80B34240F2F78002383619F61A0C
:1013C000B6FBF2F302FB136201FB03F1ADB245EA97
:1013D0000242914207D95E1E121980F0E7809142C5
:1013E00040F2E480023B43EA00400021BDE8F00700
:1013F00070478B4243D8B3FA83F4002C42D18B421E
:1014000002D3824200F2E18000210120EEE712B90E
:101410000127B7FBF2F4B4FA84F2002A40F0898085
:101420000A1B230CA7B20121B2FBF3F603FB162221
:1014300007FB06F04FEA154C4CEA0242904207D9EE
:10144000121906F1FF3C02D2904200F2D0806646AB
:10145000121AB2FBF3F003FB102307FB00F7ADB247
:1014600045EA03439F4207D9421E1B1980F0A08022
:101470009F4240F29D80023840EA0640B6E70021D4
:101480000846B3E7C4F1200622FA06F703FA04F38C
:1014900021FA06F501FA04F120FA06F63B434FEA79
:1014A000134CB5FBFCF71FFA83F80CFB175508FB30
:1014B00007F946EA010A4FEA1A4141EA0545A945FA
:1014C00002FA04F204D97E1EED18C0F0818037467E
:1014D000C9EB0501B1FBFCF60CFB161508FB06F881
:1014E0001FFA8AFA4AEA0541884503D9751EC918C8
:1014F00074D32E4646EA0746370C1FFA82FC0CFBD3
:1015000007F5120CB3B20CFB03FC02FB035302FB06
:1015100007F203EB1C439D4288BF02F58032C8EB03
:10152000010102EB134291424CD343D030460021DB
:101530005CE79440C2F1200521FA05F620FA05F592
:1015400001FA02F1230CB6FBF3FCA7B203FB1C6605
:1015500007FB0CF829430D0C45EA0646B04500FA96
:1015600002F508D936190CF1FF303ED2B0453CD90E
:10157000ACF1020C3619C8EB0602B2FBF3F003FB28
:10158000102607FB00F889B241EA0642904506D9C9
:10159000461E121927D2904525D902381219C8EBD8
:1015A000020240EA0C413FE7384608E733461AE7B3
:1015B000104661E700FA04F01FFA8CFC0CEB0343C1
:1015C0009842B3D2701E002110E7214620460DE755
:1015D000A9457FF67CAF023FED1879E7884588D9A9
:1015E000023EC91886E73046D9E78446C3E7023E83
:1015F00012192DE74FF48053C4F202031968002238
:1016000041F0010018605968CFF6FF020A405A60A5
:1016100018684FF46D4220F0847121F48030186016
:101620001968CEF2000221F480201860596821F474
:10163000FE004FF41F01586099604FF00063936003
:10164000704700BF4FF48053C4F202035A6802F09F
:101650000C00042813D0082814D04FF49052C0F284
:101660007A024FF48051C4F202014B681349C3F36C
:1016700003100B5C124822FA03F202607047114A11
:101680001268EEE758685968C0F383420232C90312
:1016900009D55B680B4813F4003F01680AD04B087A
:1016A00003FB02F2DDE74FF41060C0F23D0000FBE7
:1016B00002F2D6E701FB02F2D3E700BF00000020F0
:1016C000140000201000002010B5002284B04FF458
:1016D000E0104FF480530092C4F202030192029290
:1016E000039019681C4641F480321A60986940F0F2
:1016F0001001996103E0009AB2F5A06F09D0236848
:1017000003F4003201920098411C0091019B002BD0
:10171000F1D04FF48054C4F20204206810F4003178
:101720007CD0022402944FF40052C4F202021168E9
:101730004FF4805341F0100010601468C4F20203AB
:1017400024F003011160106841F2040140F002042A
:1017500014605A68C4F201015A605C6845485C60D4
:101760005C684FF4905244F480645C600C68C0F292
:101770007A0224F070440C6002605C684FF480527E
:1017800024F47C145C600B68C4F2010243F0004353
:101790000B60D16821F40043D360926813042ED506
:1017A0004FF4D851C0F2B70101604FF4801003909C
:1017B000029B012B29D0022B50D04FF48050C4F251
:1017C00002000268014642F08073036008684FF42B
:1017D00080538001C4F20203F8D559681A4621F0FB
:1017E00003005860596841F002005860536803F0E4
:1017F0000C010829FAD1FFF725FF04B010BD4FF402
:10180000E0100390029B012BD5D14FF48050C4F21D
:101810000200426842F460134360CEE72368224628
:1018200043F001002060009103E00099B1F5A06F42
:1018300009D0146804F002010191009B581C00902B
:10184000019C002CF1D04FF48052C4F202021368C4
:101850009A0702D50120029065E7FEE74FF4805019
:10186000C4F202004168039A41EA020343F4803162
:101870004160A2E71000002040F0BF604FF46D43CC
:1018800040F40031CEF20003D9607047C37830B421
:101890007BB90078012100F01F0201FA02F1400932
:1018A0004FF46143CEF20003203043F8201030BCE7
:1018B00070474FF46D44CEF20004E5684478EA4383
:1018C000C2F302230F2525FA03F2C3F1040104FA3F
:1018D00001F48578037802EA050121430A0103F146
:1018E0006043D1B203F5614282F800130078012110
:1018F00000F01F0301FA03F14FF46143CEF200033D
:10190000420943F82210D2E742680B6870B422F40F
:1019100070250C7925F4807646EA030242EA042316
:10192000436086688C68CA684FF2FD73CFF6F17326
:101930004D7922433340134343EA45028260097CD8
:10194000C26A4B1E22F47001DAB241EA0253C3624A
:1019500070BC7047836819B923F00101816070473A
:1019600043F0010282607047836819B923F48071E3
:101970008160704743F4807282607047836843F0EF
:1019800008018160704700BF8068C0F3C0007047E5
:10199000836843F004018160704700BF8068C0F332
:1019A00080007047836819B923F4A00181607047F3
:1019B00043F4A00282607047092970B401EB41042E
:1019C0001ED91E3C072606FA04F603FA04F4C5687D
:1019D000062A25EA060343EA0403C3601DD90C2A3C
:1019E00002EB820227D9413A1F2404FA02F401FAD9
:1019F00002F1C36A23EA04020A43C26270BC704760
:101A0000072606FA04F603FA04F40569062A25EA0D
:101A1000060343EA04030361E1D8541E04EB840384
:101A20001F2404FA03F401FA03F1426B22EA0403CF
:101A30000B434363E2E7233A1F2404FA02F401FA5A
:101A400002F1036B23EA04020A430263D6E700BFF4
:101A500010B4082104684FF6FE72C4F2020100239C
:101A6000224088420260036043608360C36047D0C5
:101A70001C23C4F20203984249D03022C4F202026D
:101A800090424CD04421C4F2020188424FD05823E6
:101A9000C4F2020398425BD06C22C4F2020290426C
:101AA0005ED08021C4F2020188421FD04FF48163CE
:101AB000C4F20203984221D040F21C42C4F2020256
:101AC000904255D04FF48661C4F20201884258D04A
:101AD00040F24443C4F2020398425BD04FF48B625D
:101AE000C4F2020290422AD010BC70470021C4F216
:101AF00002014A6842F070604860F5E74FF4806385
:101B0000C4F202035A6842F00F015960ECE7002367
:101B1000C4F20203596841F0F0005860E4E7002184
:101B2000C4F20201486840F470624A60DCE70020B9
:101B3000C4F20200426842F470434360D4E74FF4B9
:101B40008060C4F20200416841F470234360CBE737
:101B50000020C4F20200436843F470214160C3E7EF
:101B60000023C4F20203596841F470025A60BBE7D3
:101B70004FF48061C4F202014B6843F0F00048600A
:101B8000B2E74FF48063C4F20203586840F4706215
:101B90005A60A9E74FF48060C4F20200426842F440
:101BA00070414160A0E700BF8B68F0B40D6A0C691A
:101BB0004A691D438E6945EA04031343CA690568EF
:101BC0004F6A43EA060414438E6A25F4FF4C274308
:101BD0000D68CC682CF0700349683E431E430660D4
:101BE00044608560C160F0BC704700BF29B90268DD
:101BF0004FF6FE73134003607047016841F0010225
:101C00000260704703681AB923EA01010160704756
:101C100019430160704700BF406880B2704700BF41
:101C2000C3004CBF4FF480630023C4F2020358602A
:101C3000704700BF837930B43BB34FF48063C4F284
:101C4000010301681D68CC4325401D605D68027971
:101C50002C4002F180455C6005F5823215684479BC
:101C60002943116002689868D14308409860D86899
:101C7000102C01EA0001D96013D004F1804303F570
:101C8000823421680A43226009E00279016802F186
:101C9000804000F582331A6822EA01021A6030BCE3
:101CA0007047986810439860D9680A43DA60F6E78D
:101CB0004FF48063C4F201031A68596910EA010302
:101CC00004D010420CBF0020012070471846704716
:101CD0004FF48063C4F20103586170474FF400531E
:101CE00040F2231148F6AB12C4F20203C4F267516A
:101CF000CCF6EF5259605A60704700BF4FF4005362
:101D0000C4F202031A6942F080001861704700BFF4
:101D10004FF40053C4F20203D86070474FF40053ED
:101D2000C4F20203DA68D2070BD4D868400701D5A1
:101D300002207047D96811F0100F0CBF0420032057
:101D400070470120704700BF10B50446FFF7E6FF5B
:101D5000012815D1B4B1FFF7E1FF013C012804F0DF
:101D600001030DD174B10BB105E05CB1FFF7D6FFF3
:101D7000013C012804D1FFF7D1FF013C0128F4D038
:101D800004B110BD052010BD70B5002382B005461A
:101D90004FF400500C460193FFF7D6FF042801D002
:101DA00002B070BD4FF40056C4F202063269A1B20F
:101DB00042F0010030614FF400502980FFF7C4FF6A
:101DC000042805D0326941F6FE7313403361E7E71A
:101DD000023501950199240C0C804FF40050FFF757
:101DE000B3FF326941F6FE7313403361D8E700BF99
:101DF00038B505464FF43020FFF7A6FF042800D081
:101E000038BD4FF40054C4F2020423694FF430206B
:101E100043F0020121616561226942F040032361C0
:101E2000FFF792FF216941F6FD720A40226138BD39
:101E300001F0030310B40F229C0002FA04F200FA2E
:101E400004F089080023C4F20103023153F8214051
:101E500024EA020243F8212053F82120104343F8DA
:101E6000210010BC704700BF08B54FF4A843C4F26E
:101E7000000398420BD001214FF4800000F07EF95E
:101E80004FF480000021BDE8084000F077B901213F
:101E90004FF4001000F072F94FF400100021BDE87B
:101EA000084000F06BB900BFF0B587B004468688E3
:101EB00001A80D4600F0CCF803994DF68363C4F2F7
:101EC0001B33A3FB012026F03F073A04870C160CB6
:101ED0001FFA87FC4CEA0603A380228848F2A06020
:101EE00022F001062A683304C0F201001E0C82426F
:101EF000268024D85200B1FBF2F6B1B20CF1010EEB
:101F0000A4F820E0032998BF0421A18320886E89CA
:101F100083B243F0010121802288A88822F48163E2
:101F200023F00203AA8929891B041B0C30430343B5
:101F300011439BB28AB22380228107B0F0BDE888AA
:101F40004BF6FF7398421DD002EB820202EB820631
:101F5000B1FBF6F141F4804081B20E05300D08B9B5
:101F600041F001014FF4967303FB07F744F6D35297
:101F7000C1F2620282FB0736B009431C41F4004102
:101F80002384C2E702EB4203B1FBF3F291B2E4E730
:101F9000002341F2883283804BF6FF710381438135
:101FA0004FF480430260C18083817047038829B960
:101FB00023F001010A04130C0380704799B241F029
:101FC00001020280704700BF038829B923F48071A1
:101FD0000A04130C0380704799B241F480720280A6
:101FE000704700BF038829B923F400710A04130C59
:101FF0000380704799B241F400720280704700BFBD
:10200000038829B923F480610A04130C0380704704
:1020100099B241F480620280704700BF83889BB20E
:102020001AB923EA01018180704719438180704702
:1020300001827047008AC0B2704700BF1AB901F030
:10204000FE010182704741F001010182704700BF2B
:102050004FF48053C4F202035A6810B402F00C012A
:1020600004292AD008292CD04FF49052C0F27A02C9
:1020700002604FF48053C4F202035C682049C4F349
:1020800003140C5D22FA04F242605C68C4F302247B
:102090000C5D22FA04F484605C68C4F3C224095D18
:1020A00022FA01F2C2605B681649C3F38133CB5C4C
:1020B000B2FBF3F2026110BC7047134A126802606F
:1020C000D7E75C685968C4F383420232C9030AD572
:1020D0005B680D4C13F4003F21680CD04B0803FBE8
:1020E00002F20260C5E74FF41064C0F23D0404FB45
:1020F00002F20260BDE701FB02F20260B9E700BF35
:102100001C00002018000020100000204FF4805315
:10211000C4F202035A6919B922EA000058617047F3
:1021200010435861704700BF4FF48053C4F202035C
:102130009A6919B922EA00009861704710439861C2
:10214000704700BF4FF48053C4F20203DA6919B933
:1021500022EA0000D86170471043D861704700BF81
:102160004FF48053C4F20203DA6819B922EA00007E
:10217000D86070471043D860704700BF4FF4805359
:10218000C4F202031A6919B922EA00001861704703
:1021900010431861704700BF4FF48053C4F202032C
:1021A0005A6A42F080705862704700BF08B54FF419
:1021B0004053C4F20103984218D04FF46051C4F266
:1021C000000188421ED04FF47052C4F200029042C7
:1021D00000D008BD01214FF40040FFF7CFFF4FF4BE
:1021E00000400021BDE80840FFF7C8BF01214FF4BF
:1021F0008050FFF7B5FF4FF480500021BDE8084044
:10220000FFF7AEBF01214FF48040FFF7B7FF4FF457
:1022100080400021BDE80840FFF7B0BF0A88F0B455
:102220004C888B88CD8814430E891C432C434B89E2
:102230008F8944EA06020588CE8913433B43334322
:1022400005F4415545EA030293B20380838B098A62
:1022500023F4006213041A0C82830182F0BC7047DD
:10226000038829B923F040010A04130C0380704746
:1022700099B241F040020280704700BF81817047EF
:10228000808980B2704700BF038919420CBF0020CB
:102290000120704770B4048C4FF4305524F00106CF
:1022A0003404260C0684048BC4F2010524F0F304E4
:1022B0002404240C2243068C42EA0313A842B6B23B
:1022C0009CB223D04FF45052C4F2010290421DD070
:1022D000B0F1804F1AD04FF48063C4F200039842EB
:1022E00014D04FF40062C4F2000290420ED04FF4BA
:1022F0004063C4F20003984208D026F00A0646F074
:10230000010631430483018470BC704726F0020249
:1023100042F001063143F5E770B4048C4FF43055B8
:1023200024F010063404260C0684048BC4F2010544
:1023300024F440742405240D068C44EA022242EA67
:102340000333A842B6B29BB223D04FF45052C4F22A
:10235000010290421DD0B0F1804F1AD04FF480623C
:10236000C4F20002904214D04FF40062C4F20002A2
:1023700090420ED04FF44062C4F20002904208D066
:1023800026F0A00646F0100631430383018470BC9A
:10239000704726F0200242F0100646EA011189B289
:1023A000F3E700BF4FF430520388C4F201029042B9
:1023B00070B49BB21AD04FF45052C4F20102904252
:1023C00014D0B0F1804F11D04FF48062C4F20002FB
:1023D00090420BD04FF40062C4F20002904205D04C
:1023E0004FF44062C4F20002904205D14FF68F7262
:1023F0004C881A4042EA04034FF48052C4F20002AF
:10240000904234D04FF4A052C4F2000290422ED039
:102410004FF6FF42CE881A404FF430538D880C8817
:10242000C4F20103324398420280858504851BD0A3
:102430004FF45052C4F20102904215D04FF4804341
:10244000C4F2010398420FD04FF48842C4F2010253
:10245000904209D04FF49043C4F20103984203D054
:102460000122828270BC7047097A0186F8E70380F6
:102470008B88838509880185F2E700BF038C2DE9ED
:10248000F00123F001021404250C0584078C0D894A
:1024900084884E88038B2E4323F073024FF430550B
:1024A00027F0020312041B040F88C4F20105120C6A
:1024B0001B0CB6B2A842A4B242EA070246EA0303E2
:1024C0001FD04FF45055C4F20105A84219D04FF463
:1024D0008045C4F20105A84213D04FF48845C4F2E8
:1024E0000105A8420DD04FF49045C4F20105A84261
:1024F00007D0C9888480028381860384BDE8F00107
:1025000070474FF6F776B1F80AC0B1F80E808F89A0
:102510001E4046EA0C0C4FF6FB738E884FF6FF45C3
:1025200048EA070725400CEA0303BCB233432C43B7
:10253000DFE700BF038CF0B423F010021404250C75
:102540000584068C848826F02002078B16040D89EA
:10255000320C27F4E6431B0442EA05120F884E882A
:102560004FF430551B0CC4F2010543EA072342EA3D
:102570000612A842A4B29BB292B20CD04FF45055AE
:10258000C4F20105A84206D0C9888480038301876C
:102590000284F0BC70474F894FF67F7616404FF2A9
:1025A000FF35B1F80CC0254046EA07164FF6BF725A
:1025B0008F88CC89324045EA8C0542EA071245EA09
:1025C000840492B2A4B2DFE7038CF0B423F48072E7
:1025D0001404250C0584068C0D8926F400773A0432
:1025E0008488838B120C23F0730642EA05224F88FD
:1025F0004FF430553304C4F201050E881B0C42EA37
:102600000722A842A4B243EA060392B20CD04FF4C8
:102610005055C4F20105A84206D0C988848083833E
:1026200081870284F0BC70474F894FF2FF761640D5
:102630004CF6FF75B1F80CC0254046EA07264FF668
:10264000FF328F88CC89324045EA0C1542EA0722D6
:1026500045EA041492B2A4B2DFE700BF038CF0B4E1
:1026600023F480521404250C0584068C858826F4F6
:102670000052878B16040C89320C27F4E6431B04A6
:1026800042EA04320F884E884FF430541B0CC4F2D7
:10269000010443EA072342EA0632A042ADB29BB2EC
:1026A00092B20DD04FF45054C4F20104A04207D0AE
:1026B000C98885808383A0F840100284F0BC7047ED
:1026C0004BF6FF748E892C4044EA8615ADB2EFE7D5
:1026D000F8B50B880D460446002B58D0042B00F0AB
:1026E000B080082B028C63D022F480508F880104C4
:1026F0000B0C2E8969882384A08B4FF4305220F470
:1027000040731805030D43EA0723208CC4F201022D
:1027100043EA0633944280B29BB230D04FF4505219
:10272000C4F2010294422AD0B4F1804F27D04FF472
:102730008062C4F20002944221D04FF40062C4F2DD
:10274000000294421BD04FF44062C4F20002944253
:1027500015D047F6FF52024041F480510A43A3834B
:102760002284A38BE88823F4406211040B0CA3831A
:10277000A28B91B241EA002083B2A383F8BD20F47A
:10278000005040EA013291B241F48052E7E74988B3
:10279000AA882B89FFF77EFD238BE98823F00C02A2
:1027A0001004030C2383228B90B208432083F8BDCE
:1027B00022F4807637043A0C89882F896E88028447
:1027C000808B4FF4305220F0F3031804030C43EADB
:1027D0000713208CC4F201029BB2944280B243EAF8
:1027E000010341D04FF45051C4F201018C423BD05F
:1027F000B4F1804F38D04FF48062C4F200029442AA
:1028000032D04FF40061C4F200018C422CD04FF45E
:102810004062C4F20002944226D04FF2FF510140C0
:1028200046F480763143A3832184A38BE88823F088
:102830000C0211040B0CA383A28B91B20143A18360
:10284000F8BD4988AA882B89FFF766FD208BEA88A6
:1028500020F440631904080C2083238B99B241EAC9
:10286000022290B22083F8BD20F4007040EA0622D4
:1028700091B241F48071D6E700234FF6FF71818059
:102880000380C38043800372704700BF002303802E
:1028900043808380C380038143818381C3817047E8
:1028A00000230122038043808280C380038170471C
:1028B000038829B923F001010A04130C038070472F
:1028C00099B241F001020280704700BFB0F8443075
:1028D00021B959044A0CA0F8442070476FEA4343D9
:1028E0006FEA53418AB2A0F84420704783899BB2B3
:1028F0001AB923EA01018181704719438181704728
:10290000038B23F0080213041A0C11430183704750
:10291000038B23F4006213041A0C42EA01218BB2E8
:1029200003837047838B23F0080213041A0C1143AE
:1029300081837047838B23F4006213041A0C42EAEC
:1029400001218BB283837047808E80B2704700BFB5
:10295000008F80B2704700BF808F80B2704700BF89
:10296000B0F8400080B27047038A828911EA030000
:1029700092B203D011420CBF00200120704700BF6B
:10298000C9438AB202827047038A70B5044623F4B1
:102990004050CA880D4601040E0C16432682A389B6
:1029A000AA88288923F4B056698926F00C031043BD
:1029B0001A04160C084340EA06018BB2A381A08AD0
:1029C000AA8920F4407631040B0C86B0134301A889
:1029D000A382FFF73DFB4FF46056A089C4F20106C5
:1029E000B44202B20CBF049E039E002A21DB2D6874
:1029F00006EB860101EB8103AE00B3FBF6F148F272
:102A00001F53C5F2EB13A3FB0106A089720900B2A4
:102A100064251601002802FB151113DB0A0132326E
:102A2000A3FB0203C3F34310304383B2238106B0F8
:102A300070BD286806EB860202EB82054300B5FBF9
:102A4000F3F1DCE7C9003231A3FB0112C2F34210FB
:102A50003043EAE700234FF416520C2102608380D2
:102A6000C380038141818381704700BF838929B975
:102A700023F400510A04130C8381704799B241F486
:102A800000528281704700BF01F01F0310B4C1F3F0
:102A900042110124A14204FA03F30DD002290DD002
:102AA00014302AB9026822EA0301016010BC7047A1
:102AB000026813430360F9E70C30F2E71030F0E7E7
:102AC000838A9BB21AB923EA0101818270471943B4
:102AD000818270478088C105C80D704770B51D4C54
:102AE000064623783BB11C4D05F0D4FD2A68B61884
:102AF000B0420BD270BD05F0CDFD174D29683231C3
:102B0000884219D220780028EED170BD4FF40063BE
:102B1000C4F2010300214FF480502170186105F0C8
:102B2000B9FD0E4B0C4A1978106009B1481E187097
:102B30000B4B01221A7070BD4FF40061C4F2010109
:102B400001204FF4805220704A6105F0A3FD2860F7
:102B500070BD00BFE9090020F0090020201000200E
:102B6000EA09002070B5274C82B025788DF8062040
:102B700002AA8DF805108DF807308DF8040053195E
:102B800013F8040C4438C1B20A290DD93226022D9B
:102B900014D83046FFF7A2FF2278022A0ED81A4B2B
:102BA0001878012826D107E0184E022D36F811605A
:102BB00004D8002EEDD1144B21780EE005F06AFD0B
:102BC000134B821B1868824216D80F4B18780128C5
:102BD00000D07EB92178022901D80131217000206E
:102BE00018704FF400620B4BC4F201024FF4805195
:102BF0001870116102B070BD074A00212170117078
:102C0000E3E700BFEB090020EA090020287F010864
:102C1000F0090020E9090020201000202DE9F041F2
:102C2000524F04467B7B524D002B4BD00120287025
:102C30004FF4007002F01AFC00282FD14D4E1020E6
:102C400002F0F2FB48B1BB7A002B3DD04A49CB7A67
:102C5000002B3DD1494B012119703278022A4DD009
:102C6000012A53D045480178012957D02B78012BF0
:102C70005CD0042C62D0022C68D0012C6ED0404A6B
:102C80001078002835D14FF400623E49C4F20102A9
:102C90004FF4805308701361BDE8F0813A493B4816
:102CA0000B8890F8642019B202EB8206B14213DD62
:102CB000314E767896B92F4E02213170002BBED15D
:102CC0003370BCE72B70B3E7284AD07A0028BDD117
:102CD0002A4800220270C0E7264EEFE790F8650010
:102CE000244E121802EB8202012091423070E5DD81
:102CF000E2E73220BDE8F041FFF7F0BE4E214C2064
:102D00000A464423BDE8F041FFF72CBF4D21532074
:102D10004C220B46BDE8F041FFF724BF532001468B
:102D20004E224D23BDE8F041FFF71CBF5320014662
:102D300002464D23BDE8F041FFF714BF4D2153205B
:102D40000A464423BDE8F041FFF70CBF532001467B
:102D50004D224423BDE8F041FFF704BF53204D212D
:102D60004E224423BDE8F041FFF7FCBEF41E0020D4
:102D7000ED090020EC0900208C1E0020E80900204D
:102D800020100020E9090020FE1000204C13002034
:102D900070B5B0FBF2F406461546084614B120465D
:102DA000FFF7F6FF05FB1464024B195D00F8011BE9
:102DB00070BD00BF888001082DE9F84F03780246F6
:102DC0000130202BFAD0092BF8D02D2B114600F022
:102DD00036812B2B04BF02464B7800270026C3F612
:102DE000F077A3F130095FFA89F0092800F24181F8
:102DF00002F101080024002500230022C4F224036C
:102E000020462946FDF766FB044648460D46FDF779
:102E1000FBFA02460B4620462946FDF7A9F9424631
:102E200018F8013B0D46A3F130095FFA89F1092931
:102E30000446E1D92E2B00F0D1801378652B11D0F8
:102E4000452B0FD000230022C3F6F07320462946FD
:102E5000FDF740FB32463B46FDF73CFBFDF774FDBA
:102E6000BDE8F88F53782D2B00F0F9802B2B00F064
:102E7000FB80501C4FF0000BA3F13002092A00F236
:102E8000FB804FF0000808EB880803EB480110F8BE
:102E9000013FA1F13008A3F13002092AF3D9B8F5B6
:102EA0009A7F40F2D3804FF49A7848F21F59A8F1E4
:102EB0003208C5F2EB19A9FB083C73A3D3E9002340
:102EC00000210020C3F6F071CCF30019FDF702FBDE
:102ED000B8F1310F02460B4618D9B9F1000F02D0F4
:102EE000A8F132080BE010461946A8F1640866A361
:102EF000D3E90023FDF7EEFA63A3D3E90023FDF73E
:102F0000E9FAB8F1310F02460B46ECD8B8F1070FD9
:102F10002ED9104619465EA3D3E90023FDF7DAFA4D
:102F2000A8F1080AD146B9F1070F02460B46CAF3C9
:102F3000C00A1BD9BAF1000F05D055A3D3E900236D
:102F4000A9F108090BE010461946A9F1100950A390
:102F5000D3E90023FDF7BEFA4DA3D3E90023FDF723
:102F6000B9FAB9F1070F02460B46ECD808F007088A
:102F7000B8F1000F29D0194600231046C4F22403EB
:102F80000022FDF7A7FA08F1FF38C14602460B46BA
:102F900008F00108B9F1000F17D0B8F1000F09D1FE
:102FA000194600231046C4F224030022FDF792FACA
:102FB00009F1FF3900230022C4F22403FDF78AFA45
:102FC000B9F1010902460B46EAD1BBF1000F3FF40B
:102FD0003DAF20462946FDF7A7FB3BE7537802F1BA
:102FE000010EA3F13000C1B209294AD84FF00009FF
:102FF00002F1020A4FF00008C4F22409FDF704FAB6
:1030000042464B46FDF790FB02460B4620462946BA
:10301000FDF7AEF800230022C4F2240304460D4657
:1030200040464946FDF756FA52461AF8013B80469B
:10303000A3F130008946C1B20929DFD9FEE6002795
:1030400002464B780026CBF6F077CAE6B8F1310F8E
:103050003FF62BAF00230022C3F6F07356E7901C17
:1030600093784FF0010B07E79378901C4FF0000B1B
:1030700002E700240025DDE600230022C3F6F073FA
:10308000A3E77246DAE600BF9A647EC50E1B514A7A
:103090000000000084D7974148F2B000C0F601005C
:1030A00005F086BD48F2E00038B5C0F6010048F2F0
:1030B000F804C0F6010405F07BFD48F2001148F267
:1030C00004122046C0F60101C0F601020CF002FC19
:1030D00048F22C1148F234122046C0F60101C0F625
:1030E00001020CF0F7FB48F2481148F25412204656
:1030F000C0F60101C0F601020CF0ECFB48F27411BD
:1031000048F27C122046C0F60101C0F6010248F2E6
:1031100000550CF0DFFBC0F6010548F2AC1120466B
:103120002A46C0F601010CF0D5FB48F2B41148F272
:10313000BC122046C0F60101C0F601020CF0CAFB29
:1031400048F2D01120462A46C0F601010CF0C2FB1D
:1031500048F2D81148F2DC122046C0F60101C0F650
:1031600001020CF0B7FB48F2F81148F200222046A9
:10317000C0F60101C0F601020CF0ACFB48F21421CC
:1031800048F21C222046C0F60101C0F601020CF0F4
:10319000A1FB48F22C2148F234222046C0F601015E
:1031A000C0F601020CF096FB48F2442148F2482296
:1031B0002046C0F60101C0F601020CF08BFB48F27C
:1031C000782148F26C222046C0F60101C0F60102C7
:1031D0000CF080FB48F280212046C0F601012A460F
:1031E000BDE838400CF076BB2DE9F04105F052FA0D
:1031F00044F6D353C1F26203A3FB00212D4C2E48A9
:103200002378027889092D480CF064FB02F028F934
:103210002B4A4DF683651668C4F21B350746A5FB9D
:1032200006032848990C0CF055FB0022264E27492E
:103230001446012505E0611CCCB256F82410224644
:1032400069B105FA02F00742F5D021480CF042FBC3
:10325000611CCCB256F8241022460029F1D101207D
:1032600002F0E2F878B91B4805F0A2FC1A490C8874
:1032700003F0FCFF0246194821464FF44273BDE8B3
:10328000F0410CF027BB164C164B2178164853F82A
:1032900021100CF01FFB20780228E4D1134A1448B7
:1032A00092F8F940002C0CBF6E216F210CF012FB3C
:1032B000D9E700BF54000020DC1E00208C820108EA
:1032C00014000020CC820108A48E01088882010825
:1032D000EC82010824840108CE100020008301083C
:1032E0009C11002074800108F0820108EC1300207A
:1032F000FC82010838B50C680546204611F044FDF3
:10330000024628682146BDE8384011F06DBD00BF77
:1033100048F2343008B5C0F6010005F049FC01213F
:10332000002001F097FE48F24030C0F6010005F0A1
:103330003FFC0A2005F0ECF90020BDE8084005F04C
:10334000BFBA00BF38B5054648F25030C0F601009C
:1033500005F02EFC40F6F41440F6242141F2D82367
:103360000022C2F20004C2F20001C2F200032846A9
:1033700022700A601A70BDE83840FFF7C9BF00BF6D
:103380002DE9F04F8BB0804611F0FEFC08284CD0A0
:103390009D4C9E4805F00CFCA0789D4D02906079F4
:1033A00095F80AA195F80B8194F800B094F8019073
:1033B00005900AA8E278804495F80CC182440AF886
:1033C0000CBC08F80C9CDDF8088095F810118444BA
:1033D00095F80DE195F80E7195F80F6195F811319A
:1033E000039225790CF80C8CDDF80CC0864404950A
:1033F0000EF80CCCDDF810E0C71907F80CECE279F8
:10340000A579059F44188619C31806F80C7C8148D5
:1034100004F80C5C07A903F80C2C00228DF824207A
:103420000CF058FA0BB0BDE8F08F7B4A98F800100A
:103430001068C24643185D7808F1060C05F00306D3
:10344000022E08BF20390AF8011B116898F8017094
:10345000CDF810C0C819437808F1020603F003053F
:10346000022D08BF203F88F80170116898F802709B
:1034700008F1040BC819437898F8031003F003050A
:10348000022D08BF203F88F80270106808F103077A
:1034900043185D7805F00300022808BF203988F83A
:1034A0000310136898F804105D186878156800F028
:1034B0000303022B14BF0C46A1F1200498F8051059
:1034C00088F804406818457808F1050305F0030002
:1034D000022814BF0C46A1F120040393116898F848
:1034E000063088F80540CC186578126805F00300AE
:1034F000022898F8075008BF203B88F80630531977
:10350000597808F1070401F003000294022898F8A2
:1035100000903D4C08BF203D88F8075020464946A2
:1035200011F056FB20B15046494611F051FB18B13D
:103530003A4805F03DFB75E798F801202046114612
:10354000019211F045FB019B0028F1D0304619464D
:1035500011F03EFB0028EBD198F80260204631467E
:1035600011F036FB0028E3D03846314611F030FB2D
:103570000028DDD198F803602046314611F028FB81
:103580000028D5D05846314611F022FB0028CFD173
:1035900098F804602046314611F01AFB0028C7D085
:1035A0000398314611F014FB0028C1D198F805604A
:1035B0002046314611F00CFB0028B9D00498314662
:1035C00011F006FB0028B3D198F80660204631467A
:1035D00011F0FEFA0028ABD00298314611F0F8FA4B
:1035E0000028A5D1EDB22046294611F0F1FA0028B5
:1035F0009ED008F10800294611F0EAFA002897D178
:10360000404601F0D5F9C4E64097010888830108D7
:10361000EC130020C88501086401002068830108BC
:103620002DE9F843074611F0AFFB044601F03AFFDD
:103630000646DCB9334805F0BBFA334D3349012760
:1036400003E055F8041F013459B107FA04F0304281
:10365000F7D02F480CF03EF955F8041F013400292B
:10366000F3D12C48BDE8F84305F0A2BA38462A4900
:10367000224611F0B9FB002827D03B782D2B36D0FD
:103680004FF00009DFF8808020494646002504E01D
:1036900056F8041F0135002924D03846224611F07F
:1036A000A3FB0028F4D1012000FA05F0B9F1000FC6
:1036B00022D001F0EDFE194805F07AFA184858F8C2
:1036C0002510BDE8F8430CF005B9164805F070FA6E
:1036D0000D4C0E490E480CF0FDF854F8041F00295B
:1036E000F8D1BEE71048BDE8F84305F061BA0137EC
:1036F000013C4FF00109C5E701F0C2FE0B4805F09F
:1037000057FADBE7A4830108407F0108A083010882
:10371000EC82010824840108B8830108F4830108BD
:10372000C8850108C0830108D88301080084010806
:1037300048F20C4008B5C0F6010005F039FA012046
:1037400001F010FD48F22840C0F6010005F030FA03
:103750000A2004F0DDFF0020BDE8084005F0B0B805
:103760002DE9F041804611F00FFB074600281FD0DD
:10377000404620493A4611F037FB002828D01E4E1B
:103780001E4C002504E056F8044F0135002C1AD0D9
:10379000214640463A4611F027FB0028F3D1184B4A
:1037A0001848013521465D71BDE8F0410CF092B832
:1037B0001348114B42791448511E53F82110BDE8AB
:1037C000F0410CF087B81148BDE8F04105F0F0B9C0
:1037D0000F4805F0EDF9084C08490E480CF07AF84E
:1037E00054F8041F0029F8D10B48BDE8F04105F05A
:1037F000DFB900BFB8830108807F01083884010861
:10380000EC1300207C8401083C84010864840108D6
:1038100050840108EC8201082484010838B504466C
:1038200011F0B2FA0E4D01460CE010F0FFFC022838
:10383000034613D8002001460A4C85F8043301F0F2
:1038400009FC002111F0FF0F2046EED1044A064882
:1038500092F80413BDE838400CF03CB838BD00BF06
:10386000EC130020008501089084010870B505461E
:1038700011F08AFAC0B290B9144B04469D1C5A88C4
:103880002146661C12480CF025F8023410483146D7
:103890006A880CF01FF8AB1C142CEFD170BD2846C1
:1038A00010F0C4FC1328044605DD0A481421BDE8C5
:1038B00070400CF00FB82021284611F089F910F063
:1038C000B5FC054B1C3423F8140070BD8213002096
:1038D000A8840108B48401084C130020931E222BF5
:1038E00088BF0A22031E10B50C4605DBFFF750FA0D
:1038F00000210170204610BD2D2001F8010B584217
:10390000FFF746FA00220270204610BD70B5002372
:1039100086B00C4600210546039304930593FDF7FA
:103920002DFB002842D041F26F212846C3F6032127
:10393000FDF760F80021C4F27A41FDF763F9FDF765
:1039400027FB064686EAE670A0EBE6700A22694687
:10395000FFF7C4FF002E31DB20218DF80C106846E4
:1039600011F012FA012803AD32D002283CD003280E
:103970006946284626D011F005F9284611F004FAC8
:103980000338C6B232462946204611F09BFA002180
:10399000A155204611F0F8F92E22431C2254A919F2
:1039A000E01811F093F9204606B070BD41F26F2186
:1039B0002846C3F60321FDF71BF8BBE72D208DF841
:1039C0000C00CCE730228DF80D2011F0DBF8D4E7A5
:1039D0003026284669468DF80D608DF80E608DF80A
:1039E0000F6011F0CFF8C8E73023284669468DF8FC
:1039F0000D308DF80E3011F0C5F8BEE730B5037903
:103A000083B004460D46052B11D8DFE803F01C1FD8
:103A100023262A03806869460068FFF777FF01467E
:103A20001C480BF057FF002D1ED103B030BD002104
:103A300019480BF04FFF002DF7D01848E1682269B4
:103A40000BF048FFF1E781680978F1E7806890F9A9
:103A50000010EDE783681988EAE78268B2F9001080
:103A6000E6E781680968E3E7E068FDF777F869460B
:103A7000FFF74CFF01460A480BF02CFF2069FDF7C9
:103A80006DF86946FFF742FF014605480BF022FF3B
:103A9000CBE700BFDC840108E8840108E484010866
:103AA000E08401082DE9F84F064611F06DF907464C
:103AB000002800F0C280012800F0BB8030463D2184
:103AC00011F086F80446002866D0451C284610F000
:103AD000ADFB83462846FFF76FF9DFF81882824670
:103AE000D8F800400025204611F04EF92146024644
:103AF0003046C14611F078F918B3012514270FE0BC
:103B000058F803400135204611F03EF9214602469F
:103B1000304611F069F9A0B101356D2D00F0D58066
:103B200058F80740DFF8CC91204611F02DF92146D6
:103B30000246304611F058F907F1140328370028DF
:103B4000DED105EB850509EB8509D9F80C00FDF7F9
:103B500005F801465046FDF707FA002800F0A3805B
:103B6000D9F81000FCF7FAFF01465046FDF7F2F9CC
:103B7000002800F0988099F8040005280CBF5246F0
:103B80005A46052800F29780DFE810F09200920074
:103B9000AC00AC00A800A400DFF858813146D8F88A
:103BA0000050C146284640F6840A11F0EFFB50B1A0
:103BB0004E4829460BF08EFE40462146FFF71EFF79
:103BC0004B480BF087FE0124142258F8025031466E
:103BD000284602F1140711F0D9FB2946651C60B193
:103BE00042480BF077FE04EB840009EB80000021D3
:103BF000FFF704FF3E480BF06DFE58F807403146D2
:103C0000204611F0C3FB214660B138480BF062FE3C
:103C100005EB850109EB81000021FFF7EFFE344839
:103C20000BF058FE07F114026C1C5245CDD1BDE8D3
:103C3000F88F33782A2B7FF441AF2E4D2E4804F0B5
:103C4000B7FF2A4829680BF045FE28463946FFF79A
:103C5000D5FE274804F0ACFF01241426A9592348B7
:103C60000BF038FE04EB840205EB82003946FFF7C7
:103C7000C5FE1F4804F09CFF06F11403E958013407
:103C80001A480BF027FE04EB840005EB8000394650
:103C9000FFF7B4FE0134164804F08AFF28366D2C75
:103CA000DCD1BDE8F88F1548BDE8F84F04F080BFBF
:103CB000D9F808100A70214611480BF00BFE48464F
:103CC0000021BDE8F84FFFF799BE0E48BDE8F84F58
:103CD00004F06EBFD9F808100A60ECE7D9F8083094
:103CE0001A60E8E7D9F808000280E4E7E0850108F7
:103CF00024840108BC8E0108EC84010810850108A9
:103D000004850108388501082DE9F04F91488DB0F0
:103D1000914C0BF0DFFD9148FFF7A8FD6279904BC5
:103D2000511E904853F821100BF0D4FD2769002153
:103D30003846FDF7FBF8002800F0A18008AE01F03E
:103D4000B1FBDFF8588288498346474687480BF025
:103D5000C1FD57F8041F0029F8D183480F464FF0E2
:103D60000105014603E058F8041F013761B105FA67
:103D700007F212EA0B0FF6D07D480BF0ABFD58F8B6
:103D8000041F01370029F2D17A480D460178827864
:103D90000191C17894F80AB194F80BA194F80C91B0
:103DA00094F80D8194F80EC194F80FE194F8107115
:103DB00094F8113103924478427904918179029404
:103DC00006920479C27907910CA83146019E83447A
:103DD0000BF8106C029E82440AF8106C039E81441A
:103DE00009F8106C049E0594804408F8106C059E38
:103DF00084440CF8106C069E86440EF8106C5E4CE1
:103E0000079EC318C7195D4807F8106C03F8102CFB
:103E10008DF828500BF05EFD594821680BF05AFDD3
:103E200029462046FFF7EAFD564804F0C1FE012569
:103E30001426A15952480BF04DFD05EB850204EB09
:103E400082000021FFF7DAFD4E4804F0B1FE06F1D2
:103E5000140101354A4861580BF03CFD05EB850023
:103E6000002104EB8000FFF7C9FD0135454804F04F
:103E70009FFE28366D2DDCD10DB0BDE8F08F2546B4
:103E80004FF0000808AE39E031463846FFF73EFDF6
:103E900001463D480BF01EFD58460021FDF750F845
:103EA00000284AD131465846FFF730FD01463648D2
:103EB0000BF010FD50460021FDF742F8002838D1E4
:103EC00031465046FFF722FD01462F480BF002FD18
:103ED00048460021FDF734F838BB31464846FFF725
:103EE00015FD014629480BF0F5FC0021B8F10C0F37
:103EF00027D02F693846FDF719F838BB08F10108BB
:103F000041462348D5F814B0D5F818A0D5F81C9030
:103F10000BF0E0FC384600211035FDF711F80028C1
:103F2000B2D01C480BF0D6FCAEE71A480BF0D2FC1E
:103F3000D3E718480BF0CEFCC2E716480BF0CAFCDA
:103F4000B0E70D2114480BF0C5FCF8E608F10101BB
:103F5000F8E700BF58850108EC1300200085010830
:103F6000807F010888850108A0830108B0850108C9
:103F7000C085010840970108BC8E0108D085010862
:103F8000DC85010824840108DC840108C885010857
:103F900094850108E88201089C850108407F01089A
:103FA0002DE9F04788B0044610F0EEFEC5B2002DB2
:103FB00040F0BD82B34CB44804F0FAFD2069002102
:103FC000FCF7B4FF002840F00F83B04801210BF04C
:103FD00081FC04A92069FFF799FC0146AC480BF06D
:103FE00079FC04A96069FFF791FC0146A8480BF031
:103FF00071FC04A9A069FFF789FC0146A4480BF0F5
:1040000069FC04A9E069FFF781FC0146A1480BF0B7
:1040100061FC206A0021FCF789FF002840F038830A
:104020009A4802210BF056FC04A9206AFFF76EFCA7
:10403000014697480BF04EFC04A9606AFFF766FC46
:10404000014693480BF046FC04A9A06AFFF75EFC0A
:1040500001468F480BF03EFC04A9E06AFFF756FCCE
:1040600001468C480BF036FC206B0021FCF75EFF0C
:10407000002840F00F83854803210BF02BFC04A996
:10408000206BFFF743FC014681480BF023FC04A999
:10409000606BFFF73BFC01467D480BF01BFC04A95D
:1040A000A06BFFF733FC014679480BF013FC04A921
:1040B000E06BFFF72BFC014676480BF00BFC206C05
:1040C0000021FCF733FF002840F0E6826F4804210E
:1040D0000BF000FC04A9206CFFF718FC01466C48AB
:1040E0000BF0F8FB04A9606CFFF710FC0146684870
:1040F0000BF0F0FB04A9A06CFFF708FC0146644834
:104100000BF0E8FB04A9E06CFFF700FC01466148F6
:104110000BF0E0FB206D0021FCF708FF002840F0C9
:10412000BD825A4805210BF0D5FB04A9206DFFF78D
:10413000EDFB014656480BF0CDFB04A9606DFFF77F
:10414000E5FB014652480BF0C5FB04A9A06DFFF743
:10415000DDFB01464E480BF0BDFB04A9E06DFFF707
:10416000D5FB01464B480BF0B5FB206E0021FCF758
:10417000DDFE002840F09482444806210BF0AAFBA3
:1041800004A9206EFFF7C2FB014641480BF0A2FBD9
:1041900004A9606EFFF7BAFB01463D480BF09AFB9D
:1041A00004A9A06EFFF7B2FB014639480BF092FB61
:1041B00004A9E06EFFF7AAFB014636480BF08AFB24
:1041C000206F0021FCF7B2FE002840F06B822F48E0
:1041D00007210BF07FFB04A9206FFFF797FB014637
:1041E0002B480BF077FB04A9606FFFF78FFB0146AC
:1041F00027480BF06FFB04A9A06FFFF787FB014670
:1042000023480BF067FB04A9E06FFFF77FFB014633
:1042100020480BF05FFBD4F880000021FCF786FEFD
:10422000002840F04182194808210BF053FB04A9F3
:10423000D4F88000FFF76AFB014615480BF04AFBF3
:1042400004A9D4F88400FFF761FB014610480BF085
:1042500041FB04A9D4F88800FFF758FB01460C483D
:104260000BF038FB04A9D4F88C00FFF74FFB014694
:1042700008480BF02FFBD4F890000021FCF756FE05
:104280000AE000BFEC130020F08501081C8601083D
:1042900024860108C8850108002840F00782B2483A
:1042A00009210BF017FB04A9D4F89000FFF72EFBAF
:1042B0000146AE480BF00EFB04A9D4F89400FFF7BA
:1042C00025FB0146A9480BF005FB04A9D4F898008A
:1042D000FFF71CFB0146A5480BF0FCFA04A9D4F833
:1042E0009C00FFF713FB0146A1480BF0F3FAD4F84A
:1042F000A0000021FCF71AFE002840F0D9819A485E
:104300000A210BF0E7FA04A9D4F8A000FFF7FEFA9F
:10431000014696480BF0DEFA04A9D4F8A400FFF792
:10432000F5FA014691480BF0D5FA04A9D4F8A80093
:10433000FFF7ECFA01468D480BF0CCFA04A9D4F84B
:10434000AC00FFF7E3FA014689480BF0C3FAD4F852
:10435000B0000021FCF7EAFD002840F044818248CB
:104360000B210BF0B7FA04A9D4F8B000FFF7CEFA8E
:1043700001467E480BF0AEFA04A9D4F8B400FFF76A
:10438000C5FA014679480BF0A5FA04A9D4F8B8009B
:10439000FFF7BCFA014675480BF09CFA04A9D4F863
:1043A000BC00FFF7B3FA014671480BF093FAD4F85A
:1043B000C0000021FCF7BAFD002840F07B816A486C
:1043C0000C210BF087FA04A9D4F8C000FFF79EFA7D
:1043D000014666480BF07EFA04A9D4F8C400FFF742
:1043E00095FA014661480BF075FA04A9D4F8C800A3
:1043F000FFF78CFA01465D480BF06CFA04A9D4F87B
:10440000CC00FFF783FA014659480BF063FA0C25FC
:10441000584E00207169FCF7EDFA04EB0514A71B58
:10442000103FB169C7F3001A07460020FCF7E2FA13
:10443000F16980460020FCF7DDFA06F11005A5427F
:10444000814639D0BAF1000F12D069693846FCF7BD
:10445000D1FAA96907464046FCF7CCFAE9698046DB
:104460004846FCF7C7FA06F12005A542814623D04D
:1044700069693846FCF7BEFAA96907464046FCF769
:10448000B9FAE96980464846FCF7B4FA05F1100626
:10449000716905463846FCF7ADFAB16907464046F2
:1044A000FCF7A8FAF16980462846FCF7A3FA06F162
:1044B0001005A5428146DBD12F48CDF80880CDF804
:1044C0000C9004F075FB4DF20A7127F00040C3F622
:1044D0002341FCF753FD294B294A002814BF1046FD
:1044E000184604F065FB02984DF20A71C3F62341A9
:1044F00020F00040FCF742FD214D204C002814BF65
:104500002846204604F054FB039B4DF20A71C3F683
:10451000234123F00040FCF731FD002814BF28465A
:10452000204604F045FB174804F042FB19E0204602
:104530001549052210F058FC002827D10D4800230A
:104540000361036203630364036503660367C0F8E2
:104550008030C0F89030C0F8A030C0F8B030C0F85B
:10456000C03008B0BDE8F0871C8601082486010829
:10457000C8850108EC13002028860108E885010899
:10458000EC8501082484010838860108204650493A
:10459000042210F029FC05462046002D33D12021AD
:1045A00010F016FB0028DCD0471C384610F0ECFB5E
:1045B000484E5FFA80F8484C03E056F8044F013546
:1045C000ECB121463846424610F00EFC0028F4D1EA
:1045D000284608F0EDF9414821460BF07BF94048A8
:1045E000FFF7DEFCBDE70A25002103910291002DB3
:1045F0007FF40EAF3B4804F0DBFA3B4871E73B48E1
:1046000004F0D6FAADE70FF011FE451E0B2D06465D
:1046100052DC2046202110F0DBFA0446002850D05E
:10462000441C2046FEF7C8FB314B36019851012649
:104630002046202110F0CCFA044640B1441C20460C
:10464000FEF7BAFB2A49013601EB051250612046FC
:10465000202110F0BDFA044640B1441C2046FEF76C
:10466000ABFB234B013603EB05118861204620216B
:1046700010F0AEFA40B10130FEF79EFB1C4A032E4B
:1046800002EB0515E8611ED01A4804F091FA68E7BC
:104690000125A9E70225A7E70325A5E70425A3E748
:1046A0000525A1E706259FE707259DE708259BE748
:1046B000092599E70B2597E70F480C210BF00AF91C
:1046C0004FE70646B4E70648FFF76AFC49E700BF34
:1046D00040860108807F0108388401084886010867
:1046E0000085010828860108E8850108648401081E
:1046F000EC1300205C860108988601082DE9F04F34
:10470000DFF84C8287B098F80030002B00F0F4807E
:10471000824800F1040A04F003FA00286CD004F087
:104720001FFA0928034614D03F2812D07C4C226877
:10473000002A70D00C2800F0CF800A2B00F08F8068
:104740000D2B00F08C807F2B00F0CD802F2AE2D83B
:1047500068E0734D734C2E6800273246B14604F171
:10476000A80B3E46002A4AD12746002E51D00C34D1
:104770005C45F7D330464E468146B0B10068396893
:10478000835C8C5C80189C4211440ED1DFF8A0E160
:104790000BB92D2A58D90EF8023010F8013F11F844
:1047A000014F0132A342F3D02A600AB1B94554D077
:1047B0005D4804F0FDF9B94598BF4C4608D854F857
:1047C0000C0B04F0F5F9092004F0DCF9BC42F6D931
:1047D0005648002604F0ECF92A68344696429AD2EC
:1047E000534E305D04F0CEF92A6801349442F8D378
:1047F00004F096F9002892D107B0BDE8F08F216847
:104800004B4810F0F1FA2A680028B0D12746002E54
:10481000ADD12646ABE704287CD00C285CD07F2B9A
:104820003FF479AF1F2B7FF676AF7E2B3FF673AF49
:1048300012B9202B3FF46FAF3D4D511C1846AB54BD
:10484000216004F09FF966E720200EF80200013293
:10485000B9452A600EF80230AAD13446BEE7354881
:1048600004F0A6F9324D27683348002600902D4900
:10487000EE5503A80E220C23039504960FF0DAFCE4
:104880000746002842D0006810F07EFA421CBB6840
:10489000A8189847294900200A4698F8006042F86D
:1048A000040B286002F1080741F8180CCAF8000050
:1048B00041F8100C41F80C0C41F8080C41F8040CBC
:1048C0000D1F486050609060D0602060002E93D033
:1048D000164804F06DF91EE7194804F069F9134809
:1048E00004F066F917E7124B013A002115482260DF
:1048F000995404F05DF90EE70121134888F800107F
:1049000004F056F9094804F053F901E70F4804F0A0
:104910004FF9BFE70648FEF715FD6DE7F8090020DF
:10492000240A0020CC7F010800870108F8860108CE
:10493000F409002024840108F5320008100A002040
:104940000887010838870108C08601081487010814
:10495000D812002010B44FF47C43C0F6010319783C
:10496000302902D0002010BC70475A88B2F5427F2F
:10497000F8D11879BE28F5D193F80533EF2BF1D192
:104980004FF60143C0F601034FF607741878C0F6DE
:10499000010404E058785A1C414050780233A34285
:1049A00081EA0001F6D1D1F1010038BF0020DAE739
:1049B000F8B50178054679B1084F094E0446074815
:1049C00010F006F9C31B621BF11808B181F80A2127
:1049D00014F8011F0029F2D1F8BD00BF409701086B
:1049E000EC1300202DE9F04F87B0FFF7B3FF00284C
:1049F00000F0DE82EE4D4FF47C412846C0F6010106
:104A00004FF442720FF064FF95F80433022B02D981
:104A1000002385F80433DFF8A4B303EB830005EB30
:104A20004011A02201F5927158460FF051FF9BF8FA
:104A300020206FF01409C2EB0278C2EB427C4FEAEF
:104A400008169BF81F3009FB02F4C2EBCC07A2EB5F
:104A5000820A06F6C4124FEACA0002EB420800F6C8
:104A6000C41A03FB08F80AFB03FA43F2D40648F61B
:104A7000AD3204F6C411C6F6DB0207F6C41406FB19
:104A800003F74FEA41094FEA840C82FB081482FBCA
:104A90000A0603FB0CFC03FB09F982FB07170294CF
:104AA0004FEAEA7A82FB0C149BF82130CAEBA62A63
:104AB000029E82FB09104FEAE878C8EBA62804970B
:104AC000B5F8D0205F42B5F8D250BFB2CDF808801B
:104AD000DDF81080039405950197C3F164054FEA52
:104AE000E979B44CC9EBA0294FEA98270398DDF87F
:104AF000048000954FEAEC7C009DCCEBA02CA4F840
:104B000002A00FFA88F0A4F804909BF8221003EB9F
:104B10008306DDF808A0DDF814904FF00008EDB230
:104B200076000028A4F800806781A4F806A0A4F805
:104B300008C0C1F16407C2EB090405FB05F503FBDE
:104B400003F840F37C82AA4600FB00FC01FB0CF951
:104B500099FBFAFE0EEB070A0AFB00F046F2676CBF
:104B6000C6F2666C8CFB009EC017C0EBAE0906EB6C
:104B7000090A0FFA8AFC04FB0CFE44F6D350C1F27A
:104B8000620080FB0E0AC3F10A094FEAEE7C1FFAAD
:104B900089F9CCEBAA1E88480FFA89FC02EB0E0AB1
:104BA000BCF1000FA0F800A040F34282AE460CFB1F
:104BB0000CF901FB09FA9AFBFEFE0EEB070909FB53
:104BC0000CFC46F2676AC6F2666A8AFB0CAE4FEAD4
:104BD000EC79C9EBAE0C06EB0C0A0FFA8AFE04FB6B
:104BE0000EFC44F6D359C1F2620989FB0C9A4FEAD4
:104BF000EC7EC3F1140C1FFA8CF9CEEBAA1A0FFA53
:104C000089FC02EB0A0EBCF1000FA0F802E040F3B1
:104C10000882A9460CFB0CFA01FB0AFE9EFBF9F97F
:104C200009EB070A0AFB0CFC46F2676EC6F2666ED9
:104C30008EFB0CA94FEAEC7ACAEBA90C06EB0C0E22
:104C40000FFA8EF904FB09FC44F6D35AC1F2620A4A
:104C50008AFB0C9E4FEAEC7CC3F11E09CCEBAE1A2A
:104C60001FFA89FE0FFA8EFC02EB0A09BCF1000F55
:104C7000A0F8049040F3CE81AE460CFB0CFA01FB89
:104C80000AF999FBFEFE0EEB070A0AFB0CFC46F242
:104C90006769C6F2666989FB0CAE4FEAEC7ACAEB2B
:104CA000AE0C06EB0C090FFA89FE04FB0EFC44F671
:104CB000D35AC1F2620A8AFB0C9E4FEAEC7CC3F124
:104CC0002809CCEBAE1A1FFA89FE0FFA8EFC02EB14
:104CD0000A09BCF1000FA0F8069040F39481AE469B
:104CE0000CFB0CFA01FB0AF999FBFEFE0EEB070A1E
:104CF0000AFB0CFC46F26769C6F2666989FB0CAEDA
:104D00004FEAEC7ACAEBAE0C06EB0C090FFA89FEFF
:104D100004FB0EFC44F6D35AC1F2620A8AFB0C9ED5
:104D20004FEAEC7CC3F13209CCEBAE1A1FFA89FED4
:104D30000FFA8EFC02EB0A09BCF1000FA0F80890F4
:104D400040F35A81AE460CFB0CFA01FB0AF999FBC1
:104D5000FEFE0EEB070A0AFB0CFC46F26769C6F280
:104D6000666989FB0CAE4FEAEC7ACAEBAE0C06EB37
:104D70000C090FFA89FE04FB0EFC44F6D35AC1F26B
:104D8000620A8AFB0C9E4FEAEC7CC3F13C09CCEB37
:104D9000AE1A1FFA89FE0FFA8EFC02EB0A09BCF16B
:104DA000000FA0F80A9040F32081AE4608E000BF53
:104DB000EC130020581F0020A41E00204C130020DC
:104DC0000CFB0CFA01FB0AF999FBFEFE0EEB070A3D
:104DD0000AFB0CFC46F26769C6F2666989FB0CAEF9
:104DE0004FEAEC7ACAEBAE0C06EB0C090FFA89FE1F
:104DF00004FB0EFC44F6D35AC1F2620A8AFB0C9EF5
:104E00004FEAEC7CC3F14609CCEBAE1A1FFA89FEDF
:104E10000FFA8EFC02EB0A09BCF1000FA0F80C900F
:104E200040F3DC80AE460CFB0CFA01FB0AF999FB5F
:104E3000FEFE0EEB070A0AFB0CFC46F26769C6F29F
:104E4000666989FB0CAE4FEAEC7ACAEBAE0C06EB56
:104E50000C090FFA89FE04FB0EFC44F6D35AC1F28A
:104E6000620A8AFB0C9E4FEAEC7CC3F15009CCEB42
:104E7000AE1A1FFA89FE0FFA8EFC02EB0A09BCF18A
:104E8000000FA0F80E9040F3A280AE460CFB0CFA87
:104E900001FB0AF999FBFEFE0EEB070A0AFB0CFC6C
:104EA00046F26769C6F2666989FB0CAE4FEAEC7A96
:104EB000CAEBAE0C06EB0C090FFA89FE04FB0EFCE4
:104EC00044F6D35AC1F2620A8AFB0CA9C3F15A0311
:104ED0004FEAEC7E9BB2CEEBA91C0FFA83FE02EBED
:104EE0000C0ABEF1000FA0F810A06BDD2B460EFBE4
:104EF0000EF901FB09FC9CFBF3F3DB1903FB0EFA33
:104F000046F26763C6F2666383FB0A934FEAEA7E62
:104F1000CEEBA303F3181BB204FB03F344F6D359FF
:104F2000C1F2620989FB03ACDB17C3EBAC1A009B2F
:104F300002EB0A0E1FFA83F90FFA89F3002BA0F88F
:104F400012E039DD03FB03F801FB08F191FBF5F5F5
:104F5000EF1907FB03F346F26761C6F2666181FB56
:104F60000351DB17C3EBA101761836B204FB06F43C
:104F700044F6D353C1F2620383FB0481E417C4EB0C
:104F8000A114BBF86E30BBF86C10121999428282E2
:104F900005D32F48B0F870308B4228BF0B469BF8E2
:104FA0000000ABF86C3007B0BDE8F04F09F04ABC28
:104FB0000A2003F05FFC1DE5B9F1000F14BF454660
:104FC0000125BFE7002B14BF434601238FE7BEF145
:104FD000000F14BFC6464FF0010E57E7BEF1000F99
:104FE00014BFC6464FF0010E1DE7BEF1000F14BFFF
:104FF000C6464FF0010EE3E6BEF1000F14BFC646F1
:105000004FF0010E9FE6BEF1000F14BFC6464FF0F1
:10501000010E65E6BEF1000F14BFC6464FF0010E4B
:105020002BE6B9F1000F14BFC1464FF00109F1E5BD
:10503000B9F1000F14BFC6464FF0010EB7E5DDF819
:1050400004E0BEF1000F14BFC2464FF0010A7BE539
:105050004C1300202DE9F8433F4D302306464FF412
:1050600042702B706880BE22EF2300202A7185F8E1
:10507000053385F8060359B195F80423374902EB47
:10508000820305EB431000F59270A0220FF020FC84
:1050900033483021A0F206331A7804E05C785A1CB9
:1050A000527861400233834281EA0201F6D14FF621
:1050B000087885F806134FF00309C0F60108FCF7DD
:1050C0000DFE3420FCF724FE4FF47C40C0F60100B6
:1050D000FCF78EFE04282DD14FF47C44C0F6010469
:1050E00006E00968FCF750FE042814D1444521D09D
:1050F000621902F17843A3F5FE3120460968FCF7F6
:1051000043FE271DEA1902F1784308340428A3F569
:10511000FE313846E5D0FCF7F1FDB9F10109CED1F9
:10512000FCF7ECFD0A2003F0A5FBFFF75BFC5EB982
:10513000BDE8F883FCF7E2FDFFF70CFC0028F1D096
:10514000FFF750FC002EF3D00F2014210122BDE800
:10515000F84308F09DBD00BFEC1300204C13002065
:10516000F31600202DE9F04F87B00446FFF7F2FB5D
:1051700010B1002C00F04D81A74EA84D3068716829
:10518000A74C377A03AB03C34FF442720021284681
:105190008DF807700FF04AFCA022002120460FF086
:1051A00045FC03AA03CAC5F8E61030212970032183
:1051B00069710221A9604FF41671A5F8EE10FA2169
:1051C000A5F8F0102A21A5F8EC109DF8071032235D
:1051D00085F8EA10202185F8F8106E2185F806116F
:1051E0002B2185F80711212185F8081140F24C4147
:1051F000A5F8161101F54871A5F8181140F27E4185
:10520000A5F8D01001F52F71A5F8D2104FF47A71DE
:10521000A5F8D41001F5CB71A5F8D6106C31A5F81E
:10522000D81040F2B4519946A5F8DA10A5F8DC3050
:10523000A5F8E0304FF4C87140F6AC5341F2034C8E
:1052400040F2DC574FF028084FF4E13E1726C0F239
:10525000140CA5F8DE10AB811E214023C5F8F4C064
:10526000C5F81CE1C5F820E1C5F8E200A5F8147105
:1052700084F80180E1726675A675237155260B23AB
:105280005A222173E6701921182663710E23A17327
:10529000267614210826E37122726423E2774122E4
:1052A0004FF02D0BA171267461740A2650212377CB
:1052B00084F8202049F69A1342F6F60284F80DB0DD
:1052C00084F81AB0E176A67404211526C3F6197382
:1052D000C3F67C7253484FF4966B84F8219084F89F
:1052E0002C1084F82D9084F82E602363626384F878
:1052F000028084F80980FFF75BFB4FF47F7C4FF45A
:10530000FA6EA4F866B040F2D93B01264FF00009CE
:105310004FF0C80AA4F868B0A4F86EC0A4F870E012
:10532000A4F872C0A4F876E0A4F878C0A4F87CE0F1
:10533000A4F886C0A4F888E0A4F88CC0A4F88EE095
:105340004FF00A0C4FF01E0EA4F86C70A4F87470A5
:10535000A4F87A70A4F88A70A4F890704FF0FF0B4C
:10536000142784F864C084F882C084F883C084F869
:10537000636084F86A6084F87E6084F8806084F8F2
:10538000816084F8846084F865A084F87FB0A4F814
:1053900092A084F8609084F8619084F8628084F828
:1053A000947084F895E084F8966064260023214682
:1053B000A022A4F8986005F592704FF496762B61C0
:1053C0002B622B632B642B652B662B67C5F8803013
:1053D000C5F89030C5F8A030C5F8B030C5F8C03079
:1053E000A4F89A60A4F89C800FF072FA2146A022DB
:1053F00005F5E2700FF06CFA214605F51970A02250
:105400000FF066FA4846494607B0BDE8F04FFFF78F
:1054100021BE07B0BDE8F08FF87E0108EC13002034
:105420004C1300204C97010840F62823C2F20003D9
:10543000196808420CBF00200120704740F628235D
:10544000C2F200031A6810431860704740F6282320
:10545000C2F200031A6822EA00001860704700BF19
:1054600040F62823C2F200031868704741F2EC337B
:10547000C2F20003996808420CBF00200120704767
:1054800041F2EC33C2F200039A681043986070470F
:1054900041F2EC33C2F200039A6822EA00009860FD
:1054A000704700BF41F2EC33C2F2000398687047C6
:1054B0002DE9F04107788046082090B00037C4F20B
:1054C000020018BF0127FCF7C3FA42F24C434F48D1
:1054D000C4F201030022FCB2059306900792002C4F
:1054E00000F08E8002250895099280264FF4807383
:1054F000082000254FF48062C4F2020005A90A9634
:105500000B9320264FF400530C920D960E930F959B
:10551000FCF74AFB0820C4F202000121FCF766FBFD
:1055200001264FF4602000958DF804708DF8056019
:1055300002900395002C50D04FF41050022469467D
:10554000C4F201008DF81040FCF7DEF94FF4105062
:105550003246C4F2010004210323FCF72DFA4FF474
:105560001050C4F2010098F8001022460323FCF703
:1055700023FA4FF41050C4F201000121FCF7F4F9B2
:105580004FF41050C4F201000121FCF7E3F94FF48D
:105590001050C4F20100FCF7F1F94FF41050C4F2BE
:1055A0000100FCF7F1F90028F7D14FF41050C4F2D4
:1055B0000100FCF7EDF94FF41050C4F20100FCF7C4
:1055C000EDF90028F7D14FF41050C4F20100012189
:1055D000FCF7E8F910B0BDE8F0814FF410506946CF
:1055E000C4F201008DF81060FCF78EF94FF41050F2
:1055F000C4F20100042132460323FCF7DDF9B8E7C9
:10560000012108910994264670E700BF2C0A00206A
:1056100040F62C23C2F2000333F8100080B270472A
:10562000704700BF2DE9F04F534B87B01A780290B6
:1056300032215320002A7FD0082204AB01F0D2FC93
:105640009DF810109DF813409DF812209DF81550FC
:105650009DF811609DF814009DF8173001EB0626A7
:1056600002EB042100EB0522012415B25A060FFAC1
:1056700086FB0FFA81FA50D03221082204AB532066
:1056800001F0B0FC671C9DF81560FCB29DF813C0DA
:105690009DF81270019607EB0C279DF81190DDF82C
:1056A00004C09DF810809DF81460601C06EB0C2669
:1056B00008EB09289DF817C036B203903221532019
:1056C00008220FFA88F83FB2202C354404ABC344BB
:1056D000BA440CF07F0620D0FEB1039C01F082FC9E
:1056E0009DF814309DF815209DF812109DF811704A
:1056F0009DF810009DF8136003EB02229DF817300F
:1057000001EB062600EB072031B200B216B25B06B1
:10571000E4B283448A443544AED1029E17489BFBD1
:10572000F4F29AFBF4F395FBF4F532807380B580C4
:10573000047007B0BDE8F08F062204AB01F052FC04
:105740009DF811509DF810109DF813409DF81220FF
:105750009DF815009DF81430DDF808C001EB052117
:1057600002EB042203EB0020ACF80010ACF802209E
:10577000ACF80400DDE700BF300A0020310A002049
:1057800008B5144B2D211B780822532083B901F052
:1057900005FD31210A22532001F000FD53202C2168
:1057A0000A2201F0FBFC0C4840F20912028008BDFD
:1057B00001F0F4FC31210A22532001F0EFFC2C21EE
:1057C0000C22532001F0EAFC38219022532001F0F2
:1057D000E5FCE8E7300A00205600002070B5144AC6
:1057E0004FF4D8531468C0F2B703002282B09C4231
:1057F0008DF8072006460D460BD011465320012296
:105800000DF1070301F0EEFB18B19DF80700E52844
:1058100002D0002002B070BD3178064B06481970E6
:10582000064A074968602A60A9600120F2E700BFC4
:1058300010000020300A002025560008815700087B
:10584000215600083B4B3C4A2DE9F00115885C8944
:105850001E892F1B06FB07F7B3F91250B3F914206A
:10586000FC13A718EE0296FBF7F56219A2F57A640D
:1058700004FB04F6B3F902C0B3F90E8035130CFB38
:1058800004F708FB05F84FEAE72CB3F900700CEBBE
:10589000E828B3F9206008EB870707FA06F84CF20E
:1058A000503747FA06F6B3F90CC0B3F904700CFB95
:1058B00005F507FB04F42F14204D07EB6434A71CF7
:1058C000D5F800C0BC1008F10205DF88ACEBA505D7
:1058D00004F5004406FB05F607FB04F402EB820521
:1058E0006D000835DA612D11E20B002E1DDB74000E
:1058F000B4FBF2F31E1206FB06F64EF24332CFF66D
:10590000FF7202FB03F440F6DE3202FB06F22414BF
:1059100004EB224202F6CF6203EB221300B10360D4
:1059200001B10D60BDE8F0017047B6FBF2F35B001A
:10593000E0E700BF380A0020620A00205C0A00206D
:1059400000B5114B83B0187818B910490A88531C58
:105950000B80F621032201AB772001F043FB9DF879
:1059600005100B4B9DF804000A02B3F920309DF896
:10597000061042EA00400843C3F1080220FA02F090
:105980000449086003B000BD320A0020340A002038
:10599000380A00205C0A002000B50C4B83B0187850
:1059A00018B90B490A88531C0B80F621022201AB5F
:1059B000772001F017FB9DF804009DF80510054BBA
:1059C00041EA00221A8003B000BD00BF320A002065
:1059D000340A0020620A002040F63823C2F2000395
:1059E00093F8202010B49401343440F63223C2F2EC
:1059F000000304F0FC0277200024F4211C7010BC8A
:105A000001F0CCBB10B440F63223C2F200030024F4
:105A10007720F4212E221C7010BC01F0BFBB00BF08
:105A200010B54FF48040FCF743F90128044600D03C
:105A300010BD4FF48040FCF74BF9014B1C7010BDBA
:105A4000320A00202DE9F04F8B4A4FF4D8531168E9
:105A5000C0F2B7039942A1B007465BD0874C94F8D7
:105A60000080B8F1000F03D0012021B0BDE8F08F15
:105A70004FF48059C4F20109102302254FF4005A53
:105A8000484616A98DF85A304FF480468DF85B5081
:105A9000ADF858A000F000F90422484616A98DF888
:105AA0005A20ADF8586000F0F7F80E212846C9F8E2
:105AB00010A0FCF7BDF90125082118A88DF8651084
:105AC00018968DF864800F268DF86650FCF7B2F8B2
:105AD000282317A88DF85C308DF85D608DF85E6026
