:020000040800F2
:10000000005000202D0B0108DD0B010881AD000818
:10001000DD0B0108DD0B0108DD0B0108000000000D
:10002000000000000000000000000000DD0B0108DF
:10003000DD0B010800000000DD0B0108957C0008C5
:10004000DD0B0108DD0B0108DD0B0108DD0B0108EC
:10005000DD0B0108DD0B0108DD0B0108515900081B
:10006000DD0B0108DD0B0108DD0B0108DD0B0108CC
:10007000DD0B0108DD0B0108E17F0008DD0B010845
:10008000DD0B0108DD0B0108DD0B0108DD0B0108AC
:10009000DD0B0108DD0B0108DD0B010855590008D7
:1000A000DD0B0108DD0B0108DD0B0108517A0008AA
:1000B000C97A0008D57A0008E57A00089D6600082C
:1000C000796A0008A1660008756A0008DD0B01085E
:1000D000DD0B0108DD0B010855830008DD0B01086D
:1000E00091520008DD0B0108DD0B01080000000043
:1000F0000000000000000000000000000000000000
:0C01000000000000000000005FF808F1A3
:1001100010B5054C237833B9044810B10448AFF347
:1001200000800121217010BD940500200000000016
:10013000B461010808B5064B1BB106480649AFF388
:1001400000800648016811B1054A02B1904708BD18
:1001500000000000B461010898050020940500200B
:100160000000000081F0004102E000BF83F0004386
:1001700030B54FEA41044FEA430594EA050F08BF42
:1001800090EA020F1FBF54EA000C55EA020C7FEA06
:10019000645C7FEA655C00F0E2804FEA5454D4EB83
:1001A0005555B8BF6D420CDD2C4480EA020281EA4D
:1001B000030382EA000083EA010180EA020281EA85
:1001C0000303362D88BF30BD11F0004F4FEA0131D7
:1001D0004FF4801C4CEA113102D0404261EB4101E6
:1001E00013F0004F4FEA03334CEA133302D052426C
:1001F00063EB430394EA050F00F0A780A4F1010428
:10020000D5F1200E0DDB02FA0EFC22FA05F2801861
:1002100041F1000103FA0EF2801843FA05F3594147
:100220000EE0A5F120050EF1200E012A03FA0EFCC6
:1002300028BF4CF0020C43FA05F3C01851EBE371F0
:1002400001F0004507D54FF0000EDCF1000C7EEB0D
:1002500000006EEB0101B1F5801F1BD3B1F5001F4B
:100260000CD349085FEA30004FEA3C0C04F101046A
:100270004FEA445212F5800F80F09A80BCF1004F93
:1002800008BF5FEA500C50F1000041EB045141EA15
:10029000050130BD5FEA4C0C404141EB010111F416
:1002A000801FA4F10104E9D191F0000F04BF0146C1
:1002B0000020B1FA81F308BF2033A3F10B03B3F19F
:1002C00020020CDA0C3208DD02F1140CC2F10C022F
:1002D00001FA0CF021FA02F10CE002F11402D8BF8D
:1002E000C2F1200C01FA02F120FA0CFCDCBF41EA59
:1002F0000C019040E41AA2BF01EB0451294330BD28
:100300006FEA04041F3C1CDA0C340EDC04F1140404
:10031000C4F1200220FA04F001FA02F340EA0300DB
:1003200021FA04F345EA030130BDC4F10C04C4F121
:10033000200220FA02F001FA04F340EA0300294601
:1003400030BD21FA04F0294630BD94F0000F83F44B
:10035000801306BF81F480110134013D4EE77FEA2E
:10036000645C18BF7FEA655C29D094EA050F08BF7A
:1003700090EA020F05D054EA000C04BF194610465B
:1003800030BD91EA030F1EBF0021002030BD5FEA9F
:10039000545C05D14000494128BF41F0004130BDC7
:1003A00014F580043CBF01F5801130BD01F000451B
:1003B00045F0FE4141F470014FF0000030BD7FEA8E
:1003C000645C1ABF194610467FEA655C1CBF0B4689
:1003D000024650EA013406BF52EA033591EA030FA0
:1003E00041F4002130BD00BF90F0000F04BF002198
:1003F000704730B54FF4806404F132044FF00005CB
:100400004FF0000150E700BF90F0000F04BF002143
:10041000704730B54FF4806404F1320410F00045A9
:1004200048BF40424FF000013EE700BF42004FEAA4
:10043000E2014FEA31014FEA02701FBF12F07F4321
:1004400093F07F4F81F06051704792F0000F14BF1E
:1004500093F07F4F704730B54FF4607401F0004562
:1004600021F0004120E700BF50EA010208BF7047B9
:1004700030B54FF000050AE050EA010208BF7047AE
:1004800030B511F0004502D5404261EB41014FF417
:10049000806404F132045FEA915C3FF4DCAE4FF01B
:1004A00003025FEADC0C18BF03325FEADC0C18BF02
:1004B000033202EBDC02C2F1200300FA03FC20FA53
:1004C00002F001FA03FE40EA0E0021FA02F11444A0
:1004D000C1E600BF70B54FF0FF0C4CF4E06C1CEAB5
:1004E00011541DBF1CEA135594EA0C0F95EA0C0F2A
:1004F00000F0DEF82C4481EA030621EA4C5123EA9D
:100500004C5350EA013518BF52EA033541F48011CB
:1005100043F4801338D0A0FB02CE4FF00005E1FB7E
:1005200002E506F00042E0FB03E54FF00006E1FBC8
:1005300003569CF0000F18BF4EF0010EA4F1FF040B
:10054000B6F5007F64F5407404D25FEA4E0E6D414B
:1005500046EB060642EAC62141EA55514FEAC5205C
:1005600040EA5E504FEACE2EB4F1FD0C88BFBCF5D8
:10057000E06F1ED8BEF1004F08BF5FEA500E50F189
:10058000000041EB045170BD06F0004646EA01014F
:1005900040EA020081EA0301B4EB5C04C2BFD4EB81
:1005A0000C0541EA045170BD41F480114FF0000E7A
:1005B000013C00F3AB8014F1360FDEBF002001F0E8
:1005C000004170BDC4F10004203C35DA0C341BDC62
:1005D00004F11404C4F1200500FA05F320FA04F034
:1005E00001FA05F240EA020001F0004221F0004168
:1005F00010EBD37021FA04F642EB06015EEA430EDB
:1006000008BF20EAD37070BDC4F10C04C4F120050A
:1006100000FA04F320FA05F001FA04F240EA0200BD
:1006200001F0004110EBD37041F100015EEA430E8E
:1006300008BF20EAD37070BDC4F1200500FA05F2AE
:100640004EEA020E20FA04F301FA05F243EA02032D
:1006500021FA04F001F0004121FA04F220EA02003C
:1006600000EBD3705EEA430E08BF20EAD37070BD82
:1006700094F0000F0FD101F00046400041EB010162
:1006800011F4801F08BF013CF7D041EA060195F044
:10069000000F18BF704703F00046520043EB0303FE
:1006A00013F4801F08BF013DF7D043EA06037047EB
:1006B00094EA0C0F0CEA135518BF95EA0C0F0CD0F6
:1006C00050EA410618BF52EA4306D1D181EA03013C
:1006D00001F000414FF0000070BD50EA410606BF36
:1006E0001046194652EA430619D094EA0C0F02D17B
:1006F00050EA013613D195EA0C0F05D152EA0336C0
:100700001CBF104619460AD181EA030101F00041DD
:1007100041F0FE4141F470014FF0000070BD41F026
:10072000FE4141F4780170BD70B54FF0FF0C4CF400
:10073000E06C1CEA11541DBF1CEA135594EA0C0F1F
:1007400095EA0C0F00F0A7F8A4EB050481EA030E6C
:1007500052EA03354FEA013100F088804FEA033353
:100760004FF0805545EA131343EA12634FEA022221
:1007700045EA111545EA10654FEA00260EF00041E2
:100780009D4208BF964244F1FD0404F5407402D234
:100790005B084FEA3202B61A65EB03055B084FEAC5
:1007A00032024FF480104FF4002CB6EB020E75EBC2
:1007B000030E22BFB61A754640EA0C005B084FEAEA
:1007C0003202B6EB020E75EB030E22BFB61A754667
:1007D00040EA5C005B084FEA3202B6EB020E75EBB2
:1007E000030E22BFB61A754640EA9C005B084FEA2A
:1007F0003202B6EB020E75EB030E22BFB61A754637
:1008000040EADC0055EA060E18D04FEA051545EA25
:1008100016754FEA06164FEAC30343EA52734FEACE
:10082000C2025FEA1C1CC0D111F4801F0BD141EA47
:1008300000014FF000004FF0004CB6E711F4801FAC
:1008400004BF01430020B4F1FD0C88BFBCF5E06F8C
:100850003FF6AFAEB5EB030C04BFB6EB020C5FEA9C
:10086000500C50F1000041EB045170BD0EF0004EF1
:100870004EEA113114EB5C04C2BFD4EB0C0541EA23
:10088000045170BD41F480114FF0000E013C90E620
:1008900045EA060E8DE60CEA135594EA0C0F08BFE4
:1008A00095EA0C0F3FF43BAF94EA0C0F0AD150EAE3
:1008B00001347FF434AF95EA0C0F7FF425AF104676
:1008C00019462CE795EA0C0F06D152EA03353FF49E
:1008D000FDAE1046194622E750EA410618BF52EA1B
:1008E00043067FF4C5AE50EA41047FF40DAF52EAEF
:1008F00043057FF4EBAE12E74FEA4102B2F1E04369
:1009000024BFB3F5001CDCF1FE5C0DD901F0004CF6
:100910004FEAC0024CEA5070B2F1004F40EB830046
:1009200008BF20F00100704711F0804F21D113F172
:100930003872BCBF01F00040704741F480114FEAAB
:100940005252C2F11802C2F1200C10FA0CF320FA34
:1009500002F018BF40F001004FEAC1234FEAD32351
:1009600003FA0CFC40EA0C0023FA02F34FEA4303BB
:10097000CCE77FEA625307D150EA01331EBF4FF044
:10098000FE4040F44000704701F0004040F0FE405F
:1009900040F40000704700BF80F0004002E000BF5C
:1009A00081F0004142001FBF5FEA410392EA030F5A
:1009B0007FEA226C7FEA236C6AD04FEA1262D2EBA4
:1009C0001363C1BFD218414048404140B8BF5B42A9
:1009D000192B88BF704710F0004F40F4000020F042
:1009E0007F4018BF404211F0004F41F4000121F058
:1009F0007F4118BF494292EA030F3FD0A2F10102A2
:100A000041FA03FC10EB0C00C3F1200301FA03F1DF
:100A100000F0004302D5494260EB4000B0F5000F02
:100A200013D3B0F1807F06D340084FEA310102F1C1
:100A30000102FE2A51D2B1F1004F40EBC25008BF73
:100A400020F0010040EA03007047490040EB00003D
:100A500010F4000FA2F10102EDD1B0FA80FCACF16C
:100A6000080CB2EB0C0200FA0CF0AABF00EBC2506B
:100A700052421843BCBFD0401843704792F0000F59
:100A800081F4000106BF80F400000132013BB5E7AC
:100A90004FEA41037FEA226C18BF7FEA236C21D022
:100AA00092EA030F04D092F0000F08BF0846704787
:100AB00090EA010F1CBF0020704712F07F4F04D155
:100AC000400028BF40F00040704712F100723CBF68
:100AD00000F50000704700F0004343F0FE4040F492
:100AE000000070477FEA226216BF08467FEA236350
:100AF0000146420206BF5FEA412390EA010F40F43B
:100B0000800070474FF0000304E000BF10F0004386
:100B100048BF40425FEA000C08BF704743F096436D
:100B200001464FF000001CE050EA010208BF704788
:100B30004FF000030AE000BF50EA010208BF70470F
:100B400011F0004302D5404261EB41015FEA010C24
:100B500002BF84460146002043F0B64308BFA3F11C
:100B60008053A3F50003BCFA8CF2083AA3EBC253FE
:100B700010DB01FA02FC634400FA02FCC2F120021D
:100B8000BCF1004F20FA02F243EB020008BF20F054
:100B90000100704702F1200201FA02FCC2F12002BA
:100BA00050EA4C0021FA02F243EB020008BF20EAAF
:100BB000DC7070474FF0FF0C1CEAD0521EBF1CEADD
:100BC000D15392EA0C0F93EA0C0F6FD01A4480EACB
:100BD000010C400218BF5FEA41211ED04FF00063B4
:100BE00043EA501043EA5111A0FB01310CF00040E0
:100BF000B1F5000F3EBF490041EAD3715B0040EA06
:100C0000010062F17F02FD2A1DD8B3F1004F40EBD5
:100C1000C25008BF20F00100704790F0000F0CF0A8
:100C2000004C08BF49024CEA502040EA51207F3A6C
:100C3000C2BFD2F1FF0340EAC250704740F4000047
:100C40004FF00003013A5DDC12F1190FDCBF00F038
:100C500000407047C2F10002410021FA02F1C2F1E6
:100C6000200200FA02FC5FEA310040F1000053EA82
:100C70004C0308BF20EADC70704792F0000F00F0D0
:100C8000004C02BF400010F4000F013AF9D040EAD6
:100C90000C0093F0000F01F0004C02BF490011F46A
:100CA000000F013BF9D041EA0C018FE70CEAD15368
:100CB00092EA0C0F18BF93EA0C0F0AD030F0004CE8
:100CC00018BF31F0004CD8D180EA010000F000409C
:100CD000704790F0000F17BF90F0004F084691F05A
:100CE000000F91F0004F14D092EA0C0F01D1420294
:100CF0000FD193EA0C0F03D14B0218BF084608D15D
:100D000080EA010000F0004040F0FE4040F40000A6
:100D1000704740F0FE4040F4400070474FF0FF0C39
:100D20001CEAD0521EBF1CEAD15392EA0C0F93EA80
:100D30000C0F69D0A2EB030280EA010C49024FEAD2
:100D4000402037D04FF0805343EA111143EA10138B
:100D50000CF000408B4238BF5B0042F17D024FF443
:100D6000000C8B4224BF5B1A40EA0C00B3EB510F1E
:100D700024BFA3EB510340EA5C00B3EB910F24BF07
:100D8000A3EB910340EA9C00B3EBD10F24BFA3EB8C
:100D9000D10340EADC001B0118BF5FEA1C1CE0D154
:100DA000FD2A3FF650AF8B4240EBC25008BF20F007
:100DB000010070470CF0004C4CEA50207F32C2BF5B
:100DC000D2F1FF0340EAC250704740F400004FF0F8
:100DD0000003013A37E792F0000F00F0004C02BF29
:100DE000400010F4000F013AF9D040EA0C0093F0F3
:100DF000000F01F0004C02BF490011F4000F013B4D
:100E0000F9D041EA0C0195E70CEAD15392EA0C0FB4
:100E100008D142027FF47DAF93EA0C0F7FF470AFEC
:100E2000084676E793EA0C0F04D14B023FF44CAF2F
:100E300008466EE730F0004C18BF31F0004CCAD1C4
:100E400030F000427FF45CAF31F000437FF43CAF00
:100E50005FE700BF4FF0FF3C06E000BF4FF0010C22
:100E600002E000BF4FF0010C4DF804CD4FEA400204
:100E70004FEA41037FEA226C18BF7FEA236C11D04E
:100E800001B052EA530C18BF90EA010F58BFB2EB01
:100E9000030088BFC81738BF6FEAE17018BF40F081
:100EA000010070477FEA226C02D15FEA402C05D135
:100EB0007FEA236CE4D15FEA412CE1D05DF8040BBA
:100EC000704700BF844608466146FFE70FB5FFF74D
:100ED000C9FF002848BF10F1000F0FBD4DF808ED05
:100EE000FFF7F4FF0CBF012000205DF808FB00BFF6
:100EF0004DF808EDFFF7EAFF34BF012000205DF850
:100F000008FB00BF4DF808EDFFF7E0FF94BF01209C
:100F100000205DF808FB00BF4DF808EDFFF7D2FF99
:100F200094BF012000205DF808FB00BF4DF808EDDC
:100F3000FFF7C8FF34BF012000205DF808FB00BFA9
:100F40004FEA4002B2F1FE4F0FD34FF09E03B3EBD6
:100F500012620DD94FEA002343F0004310F0004F16
:100F600023FA02F018BF404270474FF0000070476C
:100F700012F1610F01D1420205D110F0004008BF0B
:100F80006FF0004070474FF00000704742000ED2F3
:100F9000B2F1FE4F0BD34FF09E03B3EB126209D4B4
:100FA0004FEA002343F0004323FA02F070474FF06A
:100FB0000000704712F1610F01D1420202D14FF0DF
:100FC000FF3070474FF00000704700BF4FF4805370
:100FD000C4F202035A6802F00C00082811D04FF442
:100FE0009052C0F27A024FF48053C4F20203586860
:100FF0001049C0F30313C85C0F4B22FA00F21A60C9
:10100000704758685968C0F383420232C90309D552
:101010005B689B0306D44FF49050C0F27A0000FB4B
:1010200002F2E0E74FF41061C0F23D0101FB02F271
:10103000D9E700BF00000020100000204FF48053CB
:10104000C4F20203196800B541F001001860596844
:101050000022CFF6FF020A405A601A68002122F0EF
:10106000847020F480321A60186885B020F48022E1
:101070001A6058681A4620F4FE0058604FF41F00AA
:101080009860019102910391196841F480301860D1
:1010900003E00198B0F5A06F09D0136803F40031A4
:1010A00002910198431C019302990029F1D04FF459
:1010B0008052C4F20202136813F4003169D0012097
:1010C0000290029A012A68D04FF48051C4F20201C2
:1010D0000B68002243F001000860019203E0019ACE
:1010E000B2F5A06F09D00B6803F002000390019ADB
:1010F000531C019303980028F1D04FF48053C4F29D
:10110000020319688A073BD54FF40052C4F2020269
:101110001068194640F010001060106820F00300BD
:101120001060106840F0020010605A685A605868F9
:1011300058605A6842F4806058605A6822F47C1003
:1011400058605A6842F4601058601A6842F0807023
:1011500018600A684FF480539001C4F20203F8D576
:101160005968184621F003025A60596841F002029A
:101170005A60436803F00C010829FAD1FFF726FFF3
:101180004FF46D40CEF200004FF00062826005B077
:1011900000BD0291029A012A96D14FF40052C4F286
:1011A000020210684FF4805340F010011160106883
:1011B000C4F2020320F0030111601068194640F0E8
:1011C000020010605A685A60586858605A6842F4C1
:1011D000806058605A6822F47C1058605A6842F463
:1011E000E81058601A6842F0807018600A684FF47E
:1011F00080539001C4F20203F8D55968184621F0D3
:1012000003025A60596841F002025A60436803F0D1
:101210000C010829FAD1B3E740F0BF604FF46D43E9
:1012200040F40031CEF20003D9607047C37830B487
:101230007BB90078012100F01F0201FA02F1400998
:101240004FF46143CEF20003203043F8201030BC4D
:1012500070474FF46D44CEF20004E5684478EA43E9
:10126000C2F302230F2525FA03F2C3F1040104FAA5
:1012700001F48578037802EA050121430A0103F1AC
:101280006043D1B203F5614282F800130078012176
:1012900000F01F0301FA03F14FF46143CEF20003A3
:1012A000420943F82210D2E742680B6870B422F476
:1012B00070250C7925F4807646EA030242EA04237D
:1012C000436086688C68CA684FF2FD73CFF6F1738D
:1012D0004D7922433340134343EA45028260097C3F
:1012E000C26A4B1E22F47001DAB241EA0253C362B1
:1012F00070BC7047836819B923F0010181607047A1
:1013000043F0010282607047836819B923F4807149
:101310008160704743F4807282607047836843F055
:1013200008018160704700BF8068C0F3C00070474B
:10133000836843F004018160704700BF8068C0F398
:1013400080007047836819B923F4A0018160704759
:1013500043F4A00282607047092970B401EB410494
:101360001ED91E3C072606FA04F603FA04F4C568E3
:10137000062A25EA060343EA0403C3601DD90C2AA2
:1013800002EB820227D9413A1F2404FA02F401FA3F
:1013900002F1C36A23EA04020A43C26270BC7047C6
:1013A000072606FA04F603FA04F40569062A25EA74
:1013B000060343EA04030361E1D8541E04EB8403EB
:1013C0001F2404FA03F401FA03F1426B22EA040336
:1013D0000B434363E2E7233A1F2404FA02F401FAC1
:1013E00002F1036B23EA04020A430263D6E700BF5B
:1013F00010B4082104684FF6FE72C4F20201002303
:10140000224088420260036043608360C36047D02B
:101410001C23C4F20203984249D03022C4F20202D3
:1014200090424CD04421C4F2020188424FD058234C
:10143000C4F2020398425BD06C22C4F202029042D2
:101440005ED08021C4F2020188421FD04FF4816334
:10145000C4F20203984221D040F21C42C4F20202BC
:10146000904255D04FF48661C4F20201884258D0B0
:1014700040F24443C4F2020398425BD04FF48B62C3
:10148000C4F2020290422AD010BC70470021C4F27C
:1014900002014A6842F070604860F5E74FF48063EB
:1014A000C4F202035A6842F00F015960ECE70023CE
:1014B000C4F20203596841F0F0005860E4E70021EB
:1014C000C4F20201486840F470624A60DCE7002020
:1014D000C4F20200426842F470434360D4E74FF420
:1014E0008060C4F20200416841F470234360CBE79E
:1014F0000020C4F20200436843F470214160C3E756
:101500000023C4F20203596841F470025A60BBE739
:101510004FF48061C4F202014B6843F0F000486070
:10152000B2E74FF48063C4F20203586840F470627B
:101530005A60A9E74FF48060C4F20200426842F4A6
:1015400070414160A0E700BF8B68F0B40D6A0C6980
:101550004A691D438E6945EA04031343CA69056855
:101560004F6A43EA060414438E6A25F4FF4C27436E
:101570000D68CC682CF0700349683E431E4306603A
:1015800044608560C160F0BC704700BF29B9026843
:101590004FF6FE73134003607047016841F001028B
:1015A0000260704703681AB923EA010101607047BD
:1015B00019430160704700BF406880B2704700BFA8
:1015C000C3004CBF4FF480630023C4F20203586091
:1015D000704700BF837930B43BB34FF48063C4F2EB
:1015E000010301681D68CC4325401D605D680279D8
:1015F0002C4002F180455C6005F582321568447923
:101600002943116002689868D14308409860D868FF
:10161000102C01EA0001D96013D004F1804303F5D6
:10162000823421680A43226009E00279016802F1EC
:10163000804000F582331A6822EA01021A6030BC49
:101640007047986810439860D9680A43DA60F6E7F3
:101650004FF48063C4F201031A68596910EA010368
:1016600004D010420CBF002001207047184670477C
:101670004FF48063C4F20103586170474FF4005384
:1016800040F2231148F6AB12C4F20203C4F26751D0
:10169000CCF6EF5259605A60704700BF4FF40053C8
:1016A000C4F202031A6942F080001861704700BF5B
:1016B0004FF40053C4F20203D86070474FF4005354
:1016C000C4F20203DA68D2070BD4D868400701D508
:1016D00002207047D96811F0100F0CBF04200320BE
:1016E00070470120704700BF10B50446FFF7E6FFC2
:1016F000012815D1B4B1FFF7E1FF013C012804F046
:1017000001030DD174B10BB105E05CB1FFF7D6FF59
:10171000013C012804D1FFF7D1FF013C0128F4D09E
:1017200004B110BD052010BD70B5002382B0054680
:101730004FF400500C460193FFF7D6FF042801D068
:1017400002B070BD4FF40056C4F202063269A1B275
:1017500042F0010030614FF400502980FFF7C4FFD0
:10176000042805D0326941F6FE7313403361E7E780
:10177000023501950199240C0C804FF40050FFF7BD
:10178000B3FF326941F6FE7313403361D8E700BFFF
:1017900038B505464FF43020FFF7A6FF042800D0E7
:1017A00038BD4FF40054C4F2020423694FF43020D2
:1017B00043F0020121616561226942F04003236127
:1017C000FFF792FF216941F6FD720A40226138BDA0
:1017D00001F0030310B40F229C0002FA04F200FA95
:1017E00004F089080023C4F20103023153F82140B8
:1017F00024EA020243F8212053F82120104343F841
:10180000210010BC704700BF08B54FF4A843C4F2D4
:10181000000398420BD001214FF4800000F066F9DC
:101820004FF480000021BDE8084000F05FB90121BD
:101830004FF4001000F05AF94FF400100021BDE8F9
:10184000084000F053B900BFF0B587B00446868861
:1018500001A80D4600F0CCF803994DF68363C4F25D
:101860001B33A3FB012026F03F073A04870C160C1C
:101870001FFA87FC4CEA0603A380228848F2A06086
:1018800022F001062A683304C0F201001E0C8242D5
:10189000268024D85200B1FBF2F6B1B20CF1010E51
:1018A000A4F820E0032998BF0421A18320886E8931
:1018B00083B243F0010121802288A88822F4816349
:1018C00023F00203AA8929891B041B0C304303431C
:1018D00011439BB28AB22380228107B0F0BDE88811
:1018E0004BF6FF7398421DD002EB820202EB820698
:1018F000B1FBF6F141F4804081B20E05300D08B91C
:1019000041F001014FF4967303FB07F744F6D352FD
:10191000C1F2620282FB0736B009431C41F4004168
:101920002384C2E702EB4203B1FBF3F291B2E4E796
:10193000002341F2883283804BF6FF71038143819B
:101940004FF480430260C18083817047038829B9C6
:1019500023F001010A04130C0380704799B241F08F
:1019600001020280704700BF038829B923F4807107
:101970000A04130C0380704799B241F4807202800C
:10198000704700BF038829B923F400710A04130CBF
:101990000380704799B241F400720280704700BF23
:1019A000038829B923F480610A04130C038070476B
:1019B00099B241F480620280704700BF83889BB275
:1019C0001AB923EA01018180704719438180704769
:1019D00001827047008AC0B2704700BF1AB901F097
:1019E000FE010182704741F001010182704700BF92
:1019F0004FF48053C4F202035A6810B402F00C0191
:101A0000042901D0082928D04FF49052C0F27A025C
:101A100002604FF48053C4F202035C681C49C4F3B3
:101A200003140C5D22FA04F242605C68C4F30224E1
:101A30000C5D22FA04F484605C68C4F3C224095D7E
:101A400022FA01F2C2605B681249C3F38133CB5CB6
:101A5000B2FBF3F2026110BC70475C685968C4F3D2
:101A600083420232CC030AD55B68990307D44FF452
:101A70009054C0F27A0404FB02F20260C9E74FF40A
:101A80001061C0F23D0101FB02F20260C1E700BF3C
:101A900018000020140000204FF48053C4F2020309
:101AA0005A6919B922EA0000586170471043586119
:101AB000704700BF4FF48053C4F202039A6919B90A
:101AC00022EA00009861704710439861704700BF98
:101AD0004FF48053C4F20203DA6919B922EA000014
:101AE000D86170471043D861704700BF4FF48053EE
:101AF000C4F202031A6919B922EA0000186170479A
:101B000010431861704700BF4FF48053C4F20203C2
:101B10005A6A42F080705862704700BF70B4048CFB
:101B20004FF4305524F001063404260C0684048B4F
:101B3000C4F2010524F0F3042404240C2243068C8F
:101B400042EA0313A842B6B29CB223D04FF45052DB
:101B5000C4F2010290421DD0B0F1804F1AD04FF470
:101B60008063C4F20003984214D04FF40062C4F2C0
:101B7000000290420ED04FF44063C4F2000398423A
:101B800008D026F00A0646F001063143048301849A
:101B900070BC704726F0020242F001063143F5E7BF
:101BA00070B4048C4FF4305524F010063404260C25
:101BB0000684048BC4F2010524F440742405240D2A
:101BC000068C44EA022242EA0333A842B6B29BB230
:101BD00023D04FF45052C4F2010290421DD0B0F114
:101BE000804F1AD04FF48062C4F20002904214D0A9
:101BF0004FF40062C4F2000290420ED04FF44062F3
:101C0000C4F20002904208D026F0A00646F010066A
:101C100031430383018470BC704726F0200242F0F8
:101C2000100646EA011189B2F3E700BF4FF43052C3
:101C30000388C4F20102904270B49BB21AD04FF4F0
:101C40005052C4F20102904214D0B0F1804F11D032
:101C50004FF48062C4F2000290420BD04FF4006255
:101C6000C4F20002904205D04FF44062C4F2000278
:101C7000904205D14FF68F724C881A4042EA040315
:101C80004FF48052C4F20002904234D04FF4A0527C
:101C9000C4F2000290422ED04FF6FF42CE881A4086
:101CA0004FF430538D880C88C4F2010332439842BC
:101CB0000280858504851BD04FF45052C4F2010286
:101CC000904215D04FF48043C4F2010398420FD0E4
:101CD0004FF48842C4F20102904209D04FF490437D
:101CE000C4F20103984203D00122828270BC704783
:101CF000097A0186F8E703808B8883850988018546
:101D0000F2E700BF038C2DE9F00123F00102140477
:101D1000250C0584078C0D8984884E88038B2E43FF
:101D200023F073024FF4305527F0020312041B0412
:101D30000F88C4F20105120C1B0CB6B2A842A4B263
:101D400042EA070246EA03031FD04FF45055C4F29B
:101D50000105A84219D04FF48045C4F20105A842FC
:101D600013D04FF48845C4F20105A8420DD04FF4BA
:101D70009045C4F20105A84207D0C9888480028337
:101D800081860384BDE8F00170474FF6F776B1F81D
:101D90000AC0B1F80E808F891E4046EA0C0C4FF63F
:101DA000FB738E884FF6FF4548EA070725400CEA8B
:101DB0000303BCB233432C43DFE700BF038CF0B412
:101DC00023F010021404250C0584068C848826F068
:101DD0002002078B16040D89320C27F4E6431B04FE
:101DE00042EA05120F884E884FF430551B0CC4F29E
:101DF000010543EA072342EA0612A842A4B29BB2B5
:101E000092B20CD04FF45055C4F20105A84206D04E
:101E1000C9888480038301870284F0BC70474F899E
:101E20004FF67F7616404FF2FF35B1F80CC02540D3
:101E300046EA07164FF6BF728F88CC89324045EAD2
:101E40008C0542EA071245EA840492B2A4B2DFE7A5
:101E5000038CF0B423F480721404250C0584068CE2
:101E60000D8926F400773A048488838B120C23F0C2
:101E7000730642EA05224F884FF430553304C4F20A
:101E800001050E881B0C42EA0722A842A4B243EACD
:101E9000060392B20CD04FF45055C4F20105A8428B
:101EA00006D0C9888480838381870284F0BC704710
:101EB0004F894FF2FF7616404CF6FF75B1F80CC013
:101EC000254046EA07264FF6FF328F88CC893240FC
:101ED00045EA0C1542EA072245EA041492B2A4B27C
:101EE000DFE700BF038CF0B423F480521404250C08
:101EF0000584068C858826F40052878B16040C898D
:101F0000320C27F4E6431B0442EA04320F884E8861
:101F10004FF430541B0CC4F2010443EA072342EA95
:101F20000632A042ADB29BB292B20DD04FF45054E3
:101F3000C4F20104A04207D0C98885808383A0F839
:101F400040100284F0BC70474BF6FF748E892C4021
:101F500044EA8615ADB2EFE7F8B50B880D460446A6
:101F6000002B58D0042B00F0B080082B028C63D0DB
:101F700022F480508F8801040B0C2E8969882384F9
:101F8000A08B4FF4305220F440731805030D43EA40
:101F90000723208CC4F2010243EA0633944280B244
:101FA0009BB230D04FF45052C4F2010294422AD076
:101FB000B4F1804F27D04FF48062C4F20002944203
:101FC00021D04FF40062C4F2000294421BD04FF4BF
:101FD0004062C4F20002944215D047F6FF5202401C
:101FE00041F480510A43A3832284A38BE88823F41D
:101FF000406211040B0CA383A28B91B241EA002032
:1020000083B2A383F8BD20F4005040EA013291B2BC
:1020100041F48052E7E74988AA882B89FFF77EFDC3
:10202000238BE98823F00C021004030C2383228BFA
:1020300090B208432083F8BD22F4807637043A0C2E
:1020400089882F896E880284808B4FF4305220F06B
:10205000F3031804030C43EA0713208CC4F20102B3
:102060009BB2944280B243EA010341D04FF45051F5
:10207000C4F201018C423BD0B4F1804F38D04FF410
:102080008062C4F20002944232D04FF40061C4F284
:1020900000018C422CD04FF44062C4F20002944202
:1020A00026D04FF2FF51014046F480763143A3839E
:1020B0002184A38BE88823F00C0211040B0CA3836A
:1020C000A28B91B20143A183F8BD4988AA882B89CC
:1020D000FFF766FD208BEA8820F440631904080CA2
:1020E0002083238B99B241EA022290B22083F8BD6B
:1020F00020F4007040EA062291B241F48071D6E7E4
:1021000000234FF6FF7181800380C38043800372F8
:10211000704700BF0023038043808380C380038116
:1021200043818381C3817047002301220380438060
:102130008280C38003817047038829B923F001019D
:102140000A04130C0380704799B241F00102028027
:10215000704700BFB0F8443021B959044A0CA0F8C8
:10216000442070476FEA43436FEA53418AB2A0F8B4
:102170004420704783899BB21AB923EA0101818107
:102180007047194381817047038B23F008021304C1
:102190001A0C114301837047038B23F4006213046C
:1021A0001A0C42EA01218BB203837047838B23F020
:1021B000080213041A0C114381837047838B23F4A4
:1021C000006213041A0C42EA01218BB28383704728
:1021D000808E80B2704700BF008F80B2704700BF12
:1021E000808F80B2704700BFB0F8400080B2704767
:1021F000038A828911EA030092B203D011420CBF14
:1022000000200120704700BFC9438AB20282704794
:10221000038A70B5044623F44050CA880D46010471
:102220000E0C16432682A389AA88288923F4B05667
:10223000698926F00C0310431A04160C084340EA7F
:1022400006018BB2A381A08AAA8920F440763104CA
:102250000B0C86B0134301A8A382FFF7C9FB4FF410
:102260006056A089C4F20106B44202B20CBF049EBB
:10227000039E002A21DB2D6806EB860101EB81031A
:10228000AE00B3FBF6F148F21F53C5F2EB13A3FB0C
:102290000106A089720900B264251601002802FB1C
:1022A000151113DB0A013232A3FB0203C3F34310FF
:1022B000304383B2238106B070BD286806EB8602E6
:1022C00002EB82054300B5FBF3F1DCE7C9003231D4
:1022D000A3FB0112C2F342103043EAE700234FF49C
:1022E00016520C2102608380C38003814181838167
:1022F000704700BF838929B923F400510A04130CE5
:102300008381704799B241F400528281704700BFC7
:1023100001F01F0310B4C1F342110124A14204FAD9
:1023200003F30DD002290DD014302AB9026822EA35
:102330000301016010BC7047026813430360F9E7B2
:102340000C30F2E71030F0E7838A9BB21AB923EA27
:102350000101818270471943818270478088C105DD
:10236000C80D704770B51D4C064623783BB11C4D17
:1023700005F0B6FC2A68B618B0420BD270BD05F065
:10238000AFFC174D29683231884219D220780028D5
:10239000EED170BD4FF40063C4F2010300214FF48D
:1023A00080502170186105F09BFC0E4B0C4A197887
:1023B000106009B1481E18700B4B01221A7070BDD5
:1023C0004FF40061C4F2010101204FF480522070EB
:1023D0004A6105F085FC286070BD00BFB105002092
:1023E000B8050020310C0020B205002070B5274C44
:1023F00082B025788DF8062002AA8DF805108DF898
:1024000007308DF80400531913F8040C4438C1B296
:102410000A290DD93226022D14D83046FFF7A2FF23
:102420002278022A0ED81A4B1878012826D107E004
:10243000184E022D36F8116004D8002EEDD1144B41
:1024400021780EE005F04CFC134B821B1868824289
:1024500016D80F4B1878012800D07EB921780229B0
:1024600001D801312170002018704FF400620B4B2D
:10247000C4F201024FF480511870116102B070BDB6
:10248000074A002121701170E3E700BFB305002067
:10249000B2050020F83B0108B8050020B105002076
:1024A000310C00202DE9F041524F04467B7B524D08
:1024B000002B4BD0012028704FF4007002F01AFC62
:1024C00000282FD14D4E102002F0F2FB48B1BB7A0C
:1024D000002B3DD04A49CB7A002B3DD1494B0121FD
:1024E00019703278022A4DD0012A53D0454801781C
:1024F000012957D02B78012B5CD0042C62D0022C00
:1025000068D0012C6ED0404A1078002835D14FF4A5
:1025100000623E49C4F201024FF480530870136117
:10252000BDE8F0813A493B480B8890F8642019B225
:1025300002EB8206B14213DD314E767896B92F4E0A
:1025400002213170002BBED13370BCE72B70B3E792
:10255000284AD07A0028BDD12A4800220270C0E75C
:10256000264EEFE790F86500244E121802EB820227
:10257000012091423070E5DDE2E73220BDE8F04114
:10258000FFF7F0BE4E214C200A464423BDE8F0413F
:10259000FFF72CBF4D2153204C220B46BDE8F041E4
:1025A000FFF724BF532001464E224D23BDE8F041E2
:1025B000FFF71CBF5320014602464D23BDE8F04102
:1025C000FFF714BF4D2153200A464423BDE8F041D4
:1025D000FFF70CBF532001464D224423BDE8F041D4
:1025E000FFF704BF53204D214E224423BDE8F041A4
:1025F000FFF7FCBE24160020BC050020B405002017
:10260000BC150020B0050020310C0020B1050020D1
:10261000D40C0020F00E002070B5B0FBF2F406469A
:102620001546084614B12046FFF7F6FF05FB146473
:10263000024B195D00F8011B70BD00BF583D010839
:102640002DE9F84F037802460130202BFAD0092BF0
:10265000F8D02D2B114600F036812B2B04BF0246FB
:102660004B7800270026C3F6F077A3F130095FFA14
:1026700089F0092800F2418102F1010800240025B7
:1026800000230022C4F2240320462946FDF722FF3E
:10269000044648460D46FDF7B7FE02460B46204667
:1026A0002946FDF765FD424618F8013B0D46A3F1AA
:1026B00030095FFA89F109290446E1D92E2B00F08F
:1026C000D1801378652B11D0452B0FD00023002229
:1026D000C3F6F07320462946FDF7FCFE32463B4622
:1026E000FDF7F8FEFEF708F9BDE8F88F53782D2BBB
:1026F00000F0F9802B2B00F0FB80501C4FF0000BFA
:10270000A3F13002092A00F2FB804FF0000808EB29
:10271000880803EB480110F8013FA1F13008A3F14C
:102720003002092AF3D9B8F59A7F40F2D3804FF4EA
:102730009A7848F21F59A8F13208C5F2EB19A9FBA3
:10274000083C73A3D3E9002300210020C3F6F071F5
:10275000CCF30019FDF7BEFEB8F1310F02460B466F
:1027600018D9B9F1000F02D0A8F132080BE01046D9
:102770001946A8F1640866A3D3E90023FDF7AAFE71
:1027800063A3D3E90023FDF7A5FEB8F1310F02469C
:102790000B46ECD8B8F1070F2ED9104619465EA3A8
:1027A000D3E90023FDF796FEA8F1080AD146B9F156
:1027B000070F02460B46CAF3C00A1BD9BAF1000F35
:1027C00005D055A3D3E90023A9F108090BE0104671
:1027D0001946A9F1100950A3D3E90023FDF77AFEA9
:1027E0004DA3D3E90023FDF775FEB9F1070F0246AB
:1027F0000B46ECD808F00708B8F1000F29D01946AD
:1028000000231046C4F224030022FDF763FE08F102
:10281000FF38C14602460B4608F00108B9F1000F27
:1028200017D0B8F1000F09D1194600231046C4F2A1
:1028300024030022FDF74EFE09F1FF390023002298
:10284000C4F22403FDF746FEB9F1010902460B4626
:10285000EAD1BBF1000F3FF43DAF20462946FDF71A
:1028600063FF3BE7537802F1010EA3F13000C1B2E0
:1028700009294AD84FF0000902F1020A4FF0000876
:10288000C4F22409FDF7C0FD42464B46FDF74CFF5C
:1028900002460B4620462946FDF76AFC002300222B
:1028A000C4F2240304460D4640464946FDF712FE95
:1028B00052461AF8013B8046A3F130008946C1B266
:1028C0000929DFD9FEE6002702464B780026CBF621
:1028D000F077CAE6B8F1310F3FF62BAF00230022A4
:1028E000C3F6F07356E7901C93784FF0010B07E79F
:1028F0009378901C4FF0000B02E700240025DDE6E2
:1029000000230022C3F6F073A3E77246DAE600BFA5
:102910009A647EC50E1B514A0000000084D797417F
:1029200043F68050C0F6010005F066BC43F6B05097
:1029300038B5C0F6010043F6C854C0F6010405F0EE
:102940005BFC43F6D05143F6D4522046C0F6010159
:10295000C0F601020BF07AFC43F6FC5143F6046228
:102960002046C0F60101C0F601020BF06FFC43F6F1
:10297000186143F624622046C0F60101C0F6010248
:102980000BF064FC43F6446143F64C622046C0F60B
:102990000101C0F6010244F2D0150BF057FCC0F65D
:1029A000010543F67C6120462A46C0F601010BF082
:1029B0004DFC43F6846143F68C622046C0F601016B
:1029C000C0F601020BF042FC43F6A06120462A4605
:1029D000C0F601010BF03AFC43F6A86143F6AC6285
:1029E0002046C0F60101C0F601020BF02FFC43F6B1
:1029F000C86143F6D0622046C0F60101C0F601026C
:102A00000BF024FC43F6E46143F6EC622046C0F68A
:102A10000101C0F601020BF019FC43F6FC6143F61C
:102A200004722046C0F60101C0F601020BF00EFC54
:102A300043F6147143F618722046C0F60101C0F641
:102A400001020BF003FC43F6487143F63C7220464A
:102A5000C0F60101C0F601020BF0F8FB43F650711D
:102A60002046C0F601012A46BDE838400BF0EEBB17
:102A70002DE9F04105F034F944F6D353C1F2620375
:102A8000A3FB00212D4C2E482378027889092D487C
:102A90000BF0DCFB02F028F92B4A4DF68365166833
:102AA000C4F21B350746A5FB06032848990C0BF01A
:102AB000CDFB0022264E27491446012505E0611C66
:102AC000CCB256F82410224669B105FA02F007424A
:102AD000F5D021480BF0BAFB611CCCB256F824109B
:102AE00022460029F1D1012002F0E2F878B91B4812
:102AF00005F082FB1A490C8803F0C0FF0246194812
:102B000021464FF44273BDE8F0410BF09FBB164CD9
:102B1000164B2178164853F821100BF097FB2078BC
:102B20000228E4D1134A144892F8F940002C0CBF53
:102B30006E216F210BF08AFBD9E700BF5100002006
:102B40000C1600205C3F0108100000209C3F01088B
:102B5000744B0108583F0108BC3F0108F4400108CC
:102B6000980C0020D03F0108700D0020443D010862
:102B7000C03F0108900F0020CC3F010838B50C6819
:102B80000546204610F0FCF9024628682146BDE8BB
:102B9000384010F025BA00BF44F2040008B5C0F672
:102BA000010005F029FB0121002001F097FE44F20D
:102BB0001000C0F6010005F01FFB0A2005F0CEF85A
:102BC0000020BDE8084005F09FB900BF38B50546B4
:102BD00044F22000C0F6010005F00EFB40F2C054A4
:102BE00040F2F05140F6B4630022C2F20004C2F297
:102BF0000001C2F20003284622700A601A70BDE884
:102C00003840FFF7C9BF00BF2DE9F04F8BB08046B9
:102C100010F0B6F908284CD09D4C9E4805F0ECFA0F
:102C2000A0789D4D0290607995F80AA195F80B81E6
:102C300094F800B094F8019005900AA8E2788044D6
:102C400095F80CC182440AF80CBC08F80C9CDDF81D
:102C5000088095F81011844495F80DE195F80E71EF
:102C600095F80F6195F81131039225790CF80C8CC9
:102C7000DDF80CC0864404950EF80CCCDDF810E0AD
:102C8000C71907F80CECE279A579059F4418861955
:102C9000C31806F80C7C814804F80C5C07A903F8FB
:102CA0000C2C00228DF824200BF0D0FA0BB0BDE8DC
:102CB000F08F7B4A98F800101068C24643185D7880
:102CC00008F1060C05F00306022E08BF20390AF8A9
:102CD000011B116898F80170CDF810C0C81943782D
:102CE00008F1020603F00305022D08BF203F88F813
:102CF0000170116898F8027008F1040BC819437844
:102D000098F8031003F00305022D08BF203F88F850
:102D10000270106808F1030743185D7805F003009E
:102D2000022808BF203988F80310136898F80410A7
:102D30005D186878156800F00303022B14BF0C4679
:102D4000A1F1200498F8051088F804406818457827
:102D500008F1050305F00300022814BF0C46A1F199
:102D600020040393116898F8063088F80540CC18C1
:102D70006578126805F00300022898F8075008BF2C
:102D8000203B88F806305319597808F1070401F000
:102D900003000294022898F800903D4C08BF203DA3
:102DA00088F807502046494610F00EF820B15046EA
:102DB000494610F009F818B13A4805F01DFA75E7D0
:102DC00098F801202046114601920FF0FDFF019B6B
:102DD0000028F1D0304619460FF0F6FF0028EBD15D
:102DE00098F80260204631460FF0EEFF0028E3D04D
:102DF000384631460FF0E8FF0028DDD198F803602F
:102E0000204631460FF0E0FF0028D5D05846314625
:102E10000FF0DAFF0028CFD198F804602046314641
:102E20000FF0D2FF0028C7D0039831460FF0CCFF37
:102E30000028C1D198F80560204631460FF0C4FF44
:102E40000028B9D0049831460FF0BEFF0028B3D156
:102E500098F80660204631460FF0B6FF0028ABD048
:102E6000029831460FF0B0FF0028A5D1EDB2204600
:102E700029460FF0A9FF00289ED008F10800294636
:102E80000FF0A2FF002897D1404601F0D5F9C4E623
:102E90001054010858400108900F00209842010882
:102EA00060010020384001082DE9F843074610F082
:102EB00067F8044601F03AFF0646DCB9334805F0EE
:102EC0009BF9334D3349012703E055F8041F0134C2
:102ED00059B107FA04F03042F7D02F480BF0B6F999
:102EE00055F8041F01340029F3D12C48BDE8F843FC
:102EF00005F082B938462A49224610F071F80028B8
:102F000027D03B782D2B36D04FF00009DFF880809A
:102F100020494646002504E056F8041F01350029E3
:102F200024D03846224610F05BF80028F4D1012066
:102F300000FA05F0B9F1000F22D001F0EDFE1948BA
:102F400005F05AF9184858F82510BDE8F8430BF079
:102F50007DB9164805F050F90D4C0E490E480BF09E
:102F600075F954F8041F0029F8D1BEE71048BDE8F0
:102F7000F84305F041B90137013C4FF00109C5E7BD
:102F800001F0C2FE0B4805F037F9DBE77440010899
:102F9000103C010870400108BC3F0108F4400108E2
:102FA00088400108C4400108984201089040010887
:102FB000A8400108D040010844F2DC0008B5C0F682
:102FC000010005F019F9012001F010FD44F2F800AC
:102FD000C0F6010005F010F90A2004F0BFFE002041
:102FE000BDE8084004F090BF2DE9F04180460FF0A5
:102FF000C7FF074600281FD0404620493A460FF039
:10300000EFFF002828D01E4E1E4C002504E056F885
:10301000044F0135002C1AD0214640463A460FF0A5
:10302000DFFF0028F3D1184B1848013521465D71A8
:10303000BDE8F0410BF00AB91348114B427914482E
:10304000511E53F82110BDE8F0410BF0FFB81148B4
:10305000BDE8F04105F0D0B80F4805F0CDF8084CB8
:1030600008490E480BF0F2F854F8041F0029F8D173
:103070000B48BDE8F04105F0BFB800BF884001082B
:10308000503C010808410108900F00204C41010804
:103090000C4101083441010820410108BC3F0108EE
:1030A000F440010838B504460FF06AFF0E4D0146A2
:1030B0000CE00FF083FC0228034613D800200146E1
:1030C0000A4C85F8043301F009FC002111F0FF0FD0
:1030D0002046EED1044A064892F80413BDE8384071
:1030E0000BF0B4B838BD00BF900F0020D0410108EC
:1030F0006041010870B505460FF042FFC0B290B9BB
:10310000144B04469D1C5A882146661C12480BF03D
:103110009DF80234104831466A880BF097F8AB1CD2
:10312000142CEFD170BD28460FF048FC132804463C
:1031300005DD0A481421BDE870400BF087B8202156
:1031400028460FF041FE0FF039FC054B1C3423F8E4
:10315000140070BD260F0020784101088441010849
:10316000F00E0020931E222B88BF0A22031E10B5EA
:103170000C4605DBFFF750FA00210170204610BD18
:103180002D2001F8010B5842FFF746FA0022027089
:10319000204610BD70B5002386B00C4600210546C0
:1031A000039304930593FDF7C1FE002842D041F23A
:1031B0006F212846C3F60321FDF7F4FB0021C4F27A
:1031C0007A41FDF7F7FCFDF7BBFE064686EAE6709E
:1031D000A0EBE6700A226946FFF7C4FF002E31DB40
:1031E00020218DF80C1068460FF0CAFE012803ADAF
:1031F00032D002283CD003286946284626D00FF05A
:10320000BDFD28460FF0BCFE0338C6B23246294643
:1032100020460FF053FF0021A15520460FF0B0FECD
:103220002E22431C2254A919E0180FF04BFE204611
:1032300006B070BD41F26F212846C3F60321FDF7A9
:10324000AFFBBBE72D208DF80C00CCE730228DF8CA
:103250000D200FF093FDD4E73026284669468DF8FF
:103260000D608DF80E608DF80F600FF087FDC8E7D8
:103270003023284669468DF80D308DF80E300FF05A
:103280007DFDBEE730B5037983B004460D46052BBE
:1032900011D8DFE803F01C1F23262A038068694643
:1032A0000068FFF777FF01461C480AF0CFFF002DAA
:1032B0001ED103B030BD002119480AF0C7FF002D10
:1032C000F7D01848E16822690AF0C0FFF1E7816889
:1032D0000978F1E7806890F90010EDE783681988B4
:1032E000EAE78268B2F90010E6E781680968E3E777
:1032F000E068FDF70BFC6946FFF74CFF01460A4802
:103300000AF0A4FF2069FDF701FC6946FFF742FFC0
:10331000014605480AF09AFFCBE700BFAC4101081F
:10332000B8410108B4410108B04101082DE9F84F46
:1033300006460FF025FE0746002800F0C28001284F
:1033400000F0BB8030463D210FF03EFD04460028D2
:1033500066D0451C28460FF031FB83462846FFF710
:103360006FF9DFF818828246D8F800400025204621
:103370000FF006FE214602463046C1460FF030FEF1
:1033800018B3012514270FE058F8034001352046F3
:103390000FF0F6FD2146024630460FF021FEA0B1A7
:1033A00001356D2D00F0D58058F80740DFF8CC913D
:1033B00020460FF0E5FD2146024630460FF010FE94
:1033C00007F1140328370028DED105EB850509EB4A
:1033D0008509D9F80C00FDF799FB01465046FDF729
:1033E0009BFD002800F0A380D9F81000FDF78EFBAC
:1033F00001465046FDF786FD002800F0988099F8B8
:10340000040005280CBF52465A46052800F2978052
:10341000DFE810F092009200AC00AC00A800A4001D
:10342000DFF858813146D8F80050C146284640F6AA
:10343000840A10F0A7F850B14E4829460AF006FF5A
:1034400040462146FFF71EFF4B480AF0FFFE0124CD
:10345000142258F802503146284602F1140710F0A1
:1034600091F82946651C60B142480AF0EFFE04EB72
:10347000840009EB80000021FFF704FF3E480AF0BA
:10348000E5FE58F807403146204610F07BF821460B
:1034900060B138480AF0DAFE05EB850109EB8100DE
:1034A0000021FFF7EFFE34480AF0D0FE07F11402C6
:1034B0006C1C5245CDD1BDE8F88F33782A2B7FF4B0
:1034C00041AF2E4D2E4804F097FE2A4829680AF095
:1034D000BDFE28463946FFF7D5FE274804F08CFE8E
:1034E00001241426A95923480AF0B0FE04EB8402F3
:1034F00005EB82003946FFF7C5FE1F4804F07CFE4D
:1035000006F11403E95801341A480AF09FFE04EB4F
:10351000840005EB80003946FFF7B4FE01341648FD
:1035200004F06AFE28366D2CDCD1BDE8F88F154812
:10353000BDE8F84F04F060BED9F808100A702146C3
:1035400011480AF083FE48460021BDE8F84FFFF716
:1035500099BE0E48BDE8F84F04F04EBED9F80810E9
:103560000A60ECE7D9F808301A60E8E7D9F80800F3
:103570000280E4E7B0420108F44001088C4B0108E6
:10358000BC410108E0410108D4410108084201089A
:103590002DE9F04F91488DB0914C0AF057FE9148BB
:1035A000FFF7A8FD6279904B511E904853F8211007
:1035B0000AF04CFE276900213846FDF78FFC0028F1
:1035C00000F0A18008AE01F0B1FBDFF85882884915
:1035D0008346474687480AF039FE57F8041F0029FA
:1035E000F8D183480F464FF00105014603E058F833
:1035F000041F013761B105FA07F212EA0B0FF6D08A
:103600007D480AF023FE58F8041F01370029F2D143
:103610007A480D46017882780191C17894F80AB110
:1036200094F80BA194F80C9194F80D8194F80EC1C4
:1036300094F80FE194F8107194F8113103924478E2
:10364000427904918179029406920479C2790791B2
:103650000CA83146019E83440BF8106C029E8244F4
:103660000AF8106C039E814409F8106C049E0594BE
:10367000804408F8106C059E84440CF8106C069E7B
:1036800086440EF8106C5E4C079EC318C7195D483F
:1036900007F8106C03F8102C8DF828500AF0D6FDAE
:1036A000594821680AF0D2FD29462046FFF7EAFD75
:1036B000564804F0A1FD01251426A15952480AF0EC
:1036C000C5FD05EB850204EB82000021FFF7DAFD62
:1036D0004E4804F091FD06F1140101354A48615845
:1036E0000AF0B4FD05EB8500002104EB8000FFF734
:1036F000C9FD0135454804F07FFD28366D2DDCD12C
:103700000DB0BDE8F08F25464FF0000808AE39E057
:1037100031463846FFF73EFD01463D480AF096FD2A
:1037200058460021FDF7E4FB00284AD131465846AF
:10373000FFF730FD014636480AF088FD504600216B
:10374000FDF7D6FB002838D131465046FFF722FD61
:1037500001462F480AF07AFD48460021FDF7C8FBD4
:1037600038BB31464846FFF715FD014629480AF0A7
:103770006DFD0021B8F10C0F27D02F693846FDF7F9
:10378000ADFB38BB08F1010841462348D5F814B019
:10379000D5F818A0D5F81C900AF058FD384600213D
:1037A0001035FDF7A5FB0028B2D01C480AF04EFDED
:1037B000AEE71A480AF04AFDD3E718480AF046FD7A
:1037C000C2E716480AF042FDB0E70D2114480AF09E
:1037D0003DFDF8E608F10101F8E700BF28420108C5
:1037E000900F0020D0410108503C010858420108C8
:1037F00070400108804201089042010810540108FD
:103800008C4B0108A0420108AC420108F4400108B9
:10381000AC4101089842010864420108B83F010820
:103820006C420108103C01082DE9F04788B00446BD
:103830000FF0A6FBC5B2002D40F0BD82B34CB448DA
:1038400004F0DAFC20690021FDF748FB002840F075
:103850000F83B04801210AF0F9FC04A92069FFF7A1
:1038600099FC0146AC480AF0F1FC04A96069FFF735
:1038700091FC0146A8480AF0E9FC04A9A069FFF7F9
:1038800089FC0146A4480AF0E1FC04A9E069FFF7BD
:1038900081FC0146A1480AF0D9FC206A0021FDF70D
:1038A0001DFB002840F038839A4802210AF0CEFC24
:1038B00004A9206AFFF76EFC014697480AF0C6FC8F
:1038C00004A9606AFFF766FC014693480AF0BEFC53
:1038D00004A9A06AFFF75EFC01468F480AF0B6FC17
:1038E00004A9E06AFFF756FC01468C480AF0AEFCDA
:1038F000206B0021FDF7F2FA002840F00F83854885
:1039000003210AF0A3FC04A9206BFFF743FC014646
:1039100081480AF09BFC04A9606BFFF73BFC014661
:103920007D480AF093FC04A9A06BFFF733FC014625
:1039300079480AF08BFC04A9E06BFFF72BFC0146E9
:1039400076480AF083FC206C0021FDF7C7FA0028B6
:1039500040F0E6826F4804210AF078FC04A9206C4C
:10396000FFF718FC01466C480AF070FC04A9606C73
:10397000FFF710FC014668480AF068FC04A9A06C37
:10398000FFF708FC014664480AF060FC04A9E06CFB
:10399000FFF700FC014661480AF058FC206D002149
:1039A000FDF79CFA002840F0BD825A4805210AF034
:1039B0004DFC04A9206DFFF7EDFB014656480AF0C7
:1039C00045FC04A9606DFFF7E5FB014652480AF08B
:1039D0003DFC04A9A06DFFF7DDFB01464E480AF04F
:1039E00035FC04A9E06DFFF7D5FB01464B480AF012
:1039F0002DFC206E0021FDF771FA002840F0948222
:103A0000444806210AF022FC04A9206EFFF7C2FBFD
:103A1000014641480AF01AFC04A9606EFFF7BAFBA0
:103A200001463D480AF012FC04A9A06EFFF7B2FB64
:103A3000014639480AF00AFC04A9E06EFFF7AAFB28
:103A4000014636480AF002FC206F0021FDF746FAD5
:103A5000002840F06B822F4807210AF0F7FB04A9E9
:103A6000206FFFF797FB01462B480AF0EFFB04A9F4
:103A7000606FFFF78FFB014627480AF0E7FB04A9B8
:103A8000A06FFFF787FB014623480AF0DFFB04A97C
:103A9000E06FFFF77FFB014620480AF0D7FBD4F820
:103AA00080000021FDF71AFA002840F041821948F1
:103AB00008210AF0CBFB04A9D4F88000FFF76AFBC9
:103AC000014615480AF0C2FB04A9D4F88400FFF7A8
:103AD00061FB014610480AF0B9FB04A9D4F888003C
:103AE000FFF758FB01460C480AF0B0FB04A9D4F8D4
:103AF0008C00FFF74FFB014608480AF0A7FBD4F8FB
:103B000090000021FDF7EAF90AE000BF900F0020C5
:103B1000C0420108EC420108F44201089842010841
:103B2000002840F00782B24809210AF08FFB04A95F
:103B3000D4F89000FFF72EFB0146AE480AF086FB52
:103B400004A9D4F89400FFF725FB0146A9480AF020
:103B50007DFB04A9D4F89800FFF71CFB0146A5489B
:103B60000AF074FB04A9D4F89C00FFF713FB01468C
:103B7000A1480AF06BFBD4F8A0000021FDF7AEF9D4
:103B8000002840F0D9819A480A210AF05FFB04A975
:103B9000D4F8A000FFF7FEFA014696480AF056FB5B
:103BA00004A9D4F8A400FFF7F5FA014691480AF0F9
:103BB0004DFB04A9D4F8A800FFF7ECFA01468D48A4
:103BC0000AF044FB04A9D4F8AC00FFF7E3FA01467D
:103BD00089480AF03BFBD4F8B0000021FDF77EF9DC
:103BE000002840F0448182480B210AF02FFB04A9F1
:103BF000D4F8B000FFF7CEFA01467E480AF026FB63
:103C000004A9D4F8B400FFF7C5FA014679480AF0D0
:103C10001DFB04A9D4F8B800FFF7BCFA01467548AB
:103C20000AF014FB04A9D4F8BC00FFF7B3FA01466C
:103C300071480AF00BFBD4F8C0000021FDF74EF9E3
:103C4000002840F07B816A480C210AF0FFFA04A9A1
:103C5000D4F8C000FFF79EFA014666480AF0F6FA6B
:103C600004A9D4F8C400FFF795FA014661480AF0A8
:103C7000EDFA04A9D4F8C800FFF78CFA01465D48B4
:103C80000AF0E4FA04A9D4F8CC00FFF783FA01465D
:103C900059480AF0DBFA0C25584E00207169FCF7F0
:103CA00081FE04EB0514A71B103FB169C7F3001A8E
:103CB00007460020FCF776FEF16980460020FCF7FD
:103CC00071FE06F11005A542814639D0BAF1000F08
:103CD00012D069693846FCF765FEA9690746404677
:103CE000FCF760FEE96980464846FCF75BFE06F19A
:103CF0002005A542814623D069693846FCF752FE6B
:103D0000A96907464046FCF74DFEE96980464846EA
:103D1000FCF748FE05F11006716905463846FCF7C8
:103D200041FEB16907464046FCF73CFEF16980461A
:103D30002846FCF737FE06F11005A5428146DBD187
:103D40002F48CDF80880CDF80C9004F055FA4DF2CC
:103D50000A7127F00040C3F62341FDF7E7F8294B2D
:103D6000294A002814BF1046184604F045FA029864
:103D70004DF20A71C3F6234120F00040FDF7D6F85A
:103D8000214D204C002814BF2846204604F034FA68
:103D9000039B4DF20A71C3F6234123F00040FDF767
:103DA000C5F8002814BF2846204604F025FA174815
:103DB00004F022FA19E02046154905220FF010F907
:103DC000002827D10D4800230361036203630364C5
:103DD000036503660367C0F88030C0F89030C0F810
:103DE000A030C0F8B030C0F8C03008B0BDE8F087EF
:103DF000EC420108F442010898420108900F0020AB
:103E0000F8420108B8420108BC420108F440010828
:103E1000084301082046504904220FF0E1F8054606
:103E20002046002D33D120210EF0CEFF0028DCD01B
:103E3000471C38460FF0A4F8484E5FFA80F8484C0B
:103E400003E056F8044F0135ECB1214638464246AE
:103E50000FF0C6F80028F4D1284607F0DBF84148F7
:103E600021460AF0F3F94048FFF7DEFCBDE70A25DA
:103E7000002103910291002D7FF40EAF3B4804F026
:103E8000BBF93B4871E73B4804F0B6F9ADE70EF0EB
:103E900095FD451E0B2D064652DC204620210EF0D6
:103EA00093FF0446002850D0441C2046FEF7C8FB70
:103EB000314B360198510126204620210EF084FF17
:103EC000044640B1441C2046FEF7BAFB2A4901369D
:103ED00001EB05125061204620210EF075FF0446CB
:103EE00040B1441C2046FEF7ABFB234B013603EBED
:103EF00005118861204620210EF066FF40B1013097
:103F0000FEF79EFB1C4A032E02EB0515E8611ED04E
:103F10001A4804F071F968E70125A9E70225A7E727
:103F20000325A5E70425A3E70525A1E706259FE7C7
:103F300007259DE708259BE7092599E70B2597E7C6
:103F40000F480C210AF082F94FE70646B4E706480D
:103F5000FFF76AFC49E700BF10430108503C010825
:103F60000841010818430108D0410108F84201083E
:103F7000B842010834410108900F00202C43010889
:103F8000684301082DE9F04FDFF84C8287B098F8BC
:103F90000030002B00F0F480824800F1040A04F0A5
:103FA000E3F800286CD004F0FFF80928034614D089
:103FB0003F2812D07C4C2268002A70D00C2800F0D8
:103FC000CF800A2B00F08F800D2B00F08C807F2B90
:103FD00000F0CD802F2AE2D868E0734D734C2E6834
:103FE00000273246B14604F1A80B3E46002A4AD1CA
:103FF0002746002E51D00C345C45F7D330464E4650
:104000008146B0B100683968835C8C5C80189C4242
:1040100011440ED1DFF8A0E10BB92D2A58D90EF8C2
:10402000023010F8013F11F8014F0132A342F3D0E2
:104030002A600AB1B94554D05D4804F0DDF8B945AD
:1040400098BF4C4608D854F80C0B04F0D5F809205A
:1040500004F0BCF8BC42F6D95648002604F0CCF86F
:104060002A68344696429AD2534E305D04F0AEF838
:104070002A6801349442F8D304F076F8002892D1EB
:1040800007B0BDE8F08F21684B480EF0A9FF2A6801
:104090000028B0D12746002EADD12646ABE7042834
:1040A0007CD00C285CD07F2B3FF479AF1F2B7FF6A0
:1040B00076AF7E2B3FF673AF12B9202B3FF46FAF74
:1040C0003D4D511C1846AB54216004F07FF866E763
:1040D00020200EF802000132B9452A600EF80230A5
:1040E000AAD13446BEE7354804F086F8324D276839
:1040F0003348002600902D49EE5503A80E220C23CC
:10410000039504960EF05EFC0746002842D0006836
:104110000EF036FF421CBB68A818984729490020BA
:104120000A4698F8006042F8040B286002F108077C
:1041300041F8180CCAF8000041F8100C41F80C0CBA
:1041400041F8080C41F8040C0D1F48605060906065
:10415000D0602060002E93D0164804F04DF81EE782
:10416000194804F049F8134804F046F817E7124BD1
:10417000013A002115482260995404F03DF80EE7F9
:104180000121134888F8001004F036F8094804F0BB
:1041900033F801E70F4804F02FF8BFE70648FEF7B1
:1041A00015FD6DE7C4050020F00500209C3C0108CA
:1041B000D0430108C8430108C0050020F4400108AD
:1041C0007D2B0008DC050020D843010808440108C5
:1041D00090430108E4430108B40E002010B44FF4EA
:1041E0007C43C0F601031978302902D0002010BCAE
:1041F00070475A88B2F5427FF8D11879BE28F5D1B8
:1042000093F80533EF2BF1D14FF60143C0F60103CC
:104210004FF607741878C0F6010404E058785A1C69
:10422000414050780233A34281EA0001F6D1D1F136
:10423000010038BF0020DAE7F8B50178054679B10A
:10424000084F094E044607480EF0BEFDC31B621B13
:10425000F11808B181F80A2114F8011F0029F2D1E0
:10426000F8BD00BF10540108900F00202DE9F04F59
:1042700087B0FFF7B3FF002800F0DE82EE4D4FF469
:104280007C412846C0F601014FF442720EF032FC28
:1042900095F80433022B02D9002385F80433DFF8A4
:1042A000A4B303EB830005EB4011A02201F592714A
:1042B00058460EF01FFC9BF820206FF01409C2EB4B
:1042C0000278C2EB427C4FEA08169BF81F3009FBCC
:1042D00002F4C2EBCC07A2EB820A06F6C4124FEA44
:1042E000CA0002EB420800F6C41A03FB08F80AFBF6
:1042F00003FA43F2D40648F6AD3204F6C411C6F60A
:10430000DB0207F6C41406FB03F74FEA41094FEA44
:10431000840C82FB081482FB0A0603FB0CFC03FBE3
:1043200009F982FB071702944FEAEA7A82FB0C1420
:104330009BF82130CAEBA62A029E82FB09104FEAA5
:10434000E878C8EBA6280497B5F8D0205F42B5F806
:10435000D250BFB2CDF80880DDF8108003940595E7
:104360000197C3F164054FEAE979B44CC9EBA02980
:104370004FEA98270398DDF8048000954FEAEC7C1B
:10438000009DCCEBA02CA4F802A00FFA88F0A4F8B2
:1043900004909BF8221003EB8306DDF808A0DDF8FB
:1043A00014904FF00008EDB276000028A4F80080C9
:1043B0006781A4F806A0A4F808C0C1F16407C2EBA5
:1043C000090405FB05F503FB03F840F37C82AA46CC
:1043D00000FB00FC01FB0CF999FBFAFE0EEB070A4F
:1043E0000AFB00F046F2676CC6F2666C8CFB009E1E
:1043F000C017C0EBAE0906EB090A0FFA8AFC04FBF2
:104400000CFE44F6D350C1F2620080FB0E0AC3F1E9
:104410000A094FEAEE7C1FFA89F9CCEBAA1E8848FC
:104420000FFA89FC02EB0E0ABCF1000FA0F800A005
:1044300040F34282AE460CFB0CF901FB09FA9AFBF1
:10444000FEFE0EEB070909FB0CFC46F2676AC6F29A
:10445000666A8AFB0CAE4FEAEC79C9EBAE0C06EB50
:104460000C0A0FFA8AFE04FB0EFC44F6D359C1F283
:10447000620989FB0C9A4FEAEC7EC3F1140C1FFA17
:104480008CF9CEEBAA1A0FFA89FC02EB0A0EBCF1EA
:10449000000FA0F802E040F30882A9460CFB0CFADA
:1044A00001FB0AFE9EFBF9F909EB070A0AFB0CFC6B
:1044B00046F2676EC6F2666E8EFB0CA94FEAEC7A86
:1044C000CAEBA90C06EB0C0E0FFA8EF904FB09FCE3
:1044D00044F6D35AC1F2620A8AFB0C9E4FEAEC7C86
:1044E000C3F11E09CCEBAE1A1FFA89FE0FFA8EFC3F
:1044F00002EB0A09BCF1000FA0F8049040F3CE8152
:10450000AE460CFB0CFA01FB0AF999FBFEFE0EEB22
:10451000070A0AFB0CFC46F26769C6F2666989FB6A
:104520000CAE4FEAEC7ACAEBAE0C06EB0C090FFAB4
:1045300089FE04FB0EFC44F6D35AC1F2620A8AFBE0
:104540000C9E4FEAEC7CC3F12809CCEBAE1A1FFAA3
:1045500089FE0FFA8EFC02EB0A09BCF1000FA0F8ED
:10456000069040F39481AE460CFB0CFA01FB0AF96D
:1045700099FBFEFE0EEB070A0AFB0CFC46F267698C
:10458000C6F2666989FB0CAE4FEAEC7ACAEBAE0C58
:1045900006EB0C090FFA89FE04FB0EFC44F6D35A15
:1045A000C1F2620A8AFB0C9E4FEAEC7CC3F132092D
:1045B000CCEBAE1A1FFA89FE0FFA8EFC02EB0A0949
:1045C000BCF1000FA0F8089040F35A81AE460CFBF6
:1045D0000CFA01FB0AF999FBFEFE0EEB070A0AFB37
:1045E0000CFC46F26769C6F2666989FB0CAE4FEABD
:1045F000EC7ACAEBAE0C06EB0C090FFA89FE04FB51
:104600000EFC44F6D35AC1F2620A8AFB0C9E4FEAB2
:10461000EC7CC3F13C09CCEBAE1A1FFA89FE0FFA11
:104620008EFC02EB0A09BCF1000FA0F80A9040F3DF
:104630002081AE4608E000BF900F002088160020C1
:10464000D4150020F00E00200CFB0CFA01FB0AF937
:1046500099FBFEFE0EEB070A0AFB0CFC46F26769AB
:10466000C6F2666989FB0CAE4FEAEC7ACAEBAE0C77
:1046700006EB0C090FFA89FE04FB0EFC44F6D35A34
:10468000C1F2620A8AFB0C9E4FEAEC7CC3F1460938
:10469000CCEBAE1A1FFA89FE0FFA8EFC02EB0A0968
:1046A000BCF1000FA0F80C9040F3DC80AE460CFB90
:1046B0000CFA01FB0AF999FBFEFE0EEB070A0AFB56
:1046C0000CFC46F26769C6F2666989FB0CAE4FEADC
:1046D000EC7ACAEBAE0C06EB0C090FFA89FE04FB70
:1046E0000EFC44F6D35AC1F2620A8AFB0C9E4FEAD2
:1046F000EC7CC3F15009CCEBAE1A1FFA89FE0FFA1D
:104700008EFC02EB0A09BCF1000FA0F80E9040F3FA
:10471000A280AE460CFB0CFA01FB0AF999FBFEFEE7
:104720000EEB070A0AFB0CFC46F26769C6F26669E3
:1047300089FB0CAE4FEAEC7ACAEBAE0C06EB0C0927
:104740000FFA89FE04FB0EFC44F6D35AC1F2620A4A
:104750008AFB0CA9C3F15A034FEAEC7E9BB2CEEB65
:10476000A91C0FFA83FE02EB0C0ABEF1000FA0F8A1
:1047700010A06BDD2B460EFB0EF901FB09FC9CFB28
:10478000F3F3DB1903FB0EFA46F26763C6F26663C6
:1047900083FB0A934FEAEA7ECEEBA303F3181BB226
:1047A00004FB03F344F6D359C1F2620989FB03AC5D
:1047B000DB17C3EBAC1A009B02EB0A0E1FFA83F95E
:1047C0000FFA89F3002BA0F812E039DD03FB03F8A0
:1047D00001FB08F191FBF5F5EF1907FB03F346F236
:1047E0006761C6F2666181FB0351DB17C3EBA10170
:1047F000761836B204FB06F444F6D353C1F26203D2
:1048000083FB0481E417C4EBA114BBF86E30BBF842
:104810006C1012199942828205D32F48B0F870307B
:104820008B4228BF0B469BF80000ABF86C3007B0FA
:10483000BDE8F04F08F096BC0A2003F03FFB1DE5F1
:10484000B9F1000F14BF45460125BFE7002B14BF87
:10485000434601238FE7BEF1000F14BFC6464FF059
:10486000010E57E7BEF1000F14BFC6464FF0010E10
:104870001DE7BEF1000F14BFC6464FF0010EE3E680
:10488000BEF1000F14BFC6464FF0010E9FE6BEF109
:10489000000F14BFC6464FF0010E65E6BEF1000FD3
:1048A00014BFC6464FF0010E2BE6B9F1000F14BF3E
:1048B000C1464FF00109F1E5B9F1000F14BFC6463A
:1048C0004FF0010EB7E5DDF804E0BEF1000F14BFB4
:1048D000C2464FF0010A7BE5F00E00202DE9F843B7
:1048E0003F4D302306464FF442702B706880BE2245
:1048F000EF2300202A7185F8053385F8060359B1A6
:1049000095F80423374902EB820305EB431000F5C9
:104910009270A0220EF0EEF833483021A0F2063358
:104920001A7804E05C785A1C527861400233834262
:1049300081EA0201F6D14FF6087885F806134FF0A8
:104940000309C0F60108FCF799FE3420FCF7B0FE1D
:104950004FF47C40C0F60100FCF71AFF04282DD16B
:104960004FF47C44C0F6010406E00968FCF7DCFE65
:10497000042814D1444521D0621902F17843A3F5EB
:10498000FE3120460968FCF7CFFE271DEA1902F127
:10499000784308340428A3F5FE313846E5D0FCF707
:1049A0007DFEB9F10109CED1FCF778FE0A2003F0B3
:1049B00085FAFFF75BFC5EB9BDE8F883FCF76EFE95
:1049C000FFF70CFC0028F1D0FFF750FC002EF3D0CD
:1049D0000F2014210122BDE8F84307F0E9BD00BF14
:1049E000900F0020F00E0020971200202DE9F04FCC
:1049F00087B00446FFF7F2FB10B1002C00F04D81A8
:104A0000A74EA84D30687168A74C377A03AB03C333
:104A10004FF44272002128468DF807700EF018F905
:104A2000A022002120460EF013F903AA03CAC5F8FC
:104A3000E61030212970032169710221A9604FF429
:104A40001671A5F8EE10FA21A5F8F0102A21A5F8A4
:104A5000EC109DF80710322385F8EA10202185F824
:104A6000F8106E2185F806112B2185F807112121F8
:104A700085F8081140F24C41A5F8161101F548716E
:104A8000A5F8181140F27E41A5F8D01001F52F715C
:104A9000A5F8D2104FF47A71A5F8D41001F5CB71B6
:104AA000A5F8D6106C31A5F8D81040F2B45199464B
:104AB000A5F8DA10A5F8DC30A5F8E0304FF4C8719D
:104AC00040F6AC5341F2034C40F2DC574FF028085B
:104AD0004FF4E13E1726C0F2140CA5F8DE10AB81AE
:104AE0001E214023C5F8F4C0C5F81CE1C5F820E13B
:104AF000C5F8E200A5F8147184F80180E1726675CA
:104B0000A675237155260B235A222173E6701921AD
:104B1000182663710E23A173267614210826E371EB
:104B200022726423E27741224FF02D0BA17126748B
:104B300061740A265021237784F8202049F69A13BD
:104B400042F6F60284F80DB084F81AB0E176A67445
:104B500004211526C3F61973C3F67C7253484FF42B
:104B6000966B84F8219084F82C1084F82D9084F8AA
:104B70002E602363626384F8028084F80980FFF763
:104B80005BFB4FF47F7C4FF4FA6EA4F866B040F202
:104B9000D93B01264FF000094FF0C80AA4F868B0CD
:104BA000A4F86EC0A4F870E0A4F872C0A4F876E08F
:104BB000A4F878C0A4F87CE0A4F886C0A4F888E043
:104BC000A4F88CC0A4F88EE04FF00A0C4FF01E0E33
:104BD000A4F86C70A4F87470A4F87A70A4F88A70C1
:104BE000A4F890704FF0FF0B142784F864C084F889
:104BF00082C084F883C084F8636084F86A6084F8B3
:104C00007E6084F8806084F8816084F8846084F831
:104C100065A084F87FB0A4F892A084F8609084F82E
:104C2000619084F8628084F8947084F895E084F848
:104C30009660642600232146A022A4F8986005F51A
:104C400092704FF496762B612B622B632B642B654D
:104C50002B662B67C5F88030C5F89030C5F8A030BA
:104C6000C5F8B030C5F8C030A4F89A60A4F89C80AC
:104C70000DF040FF2146A02205F5E2700DF03AFF4D
:104C8000214605F51970A0220DF034FF484649462B
:104C900007B0BDE8F04FFFF721BE07B0BDE8F08FC9
:104CA000D43B0108900F0020F00E00201C54010896
:104CB00040F2F453C2F20003196808420CBF00200E
:104CC0000120704740F2F453C2F200031A68104307
:104CD0001860704740F2F453C2F200031A6822EAE7
:104CE00000001860704700BF40F2F453C2F20003A6
:104CF0001868704740F69073C2F200039968084242
:104D00000CBF00200120704740F69073C2F20003F0
:104D10009A6810439860704740F69073C2F200039F
:104D20009A6822EA00009860704700BF40F69073CE
:104D3000C2F20003986870472DE9F0410778804679
:104D4000082090B00037C4F2020018BF0127FCF71A
:104D50004FFB42F24C434F48C4F201030022FCB225
:104D6000059306900792002C00F08E80022508958E
:104D7000099280264FF48073082000254FF480624A
:104D8000C4F2020005A90A960B9320264FF40053A3
:104D90000C920D960E930F95FCF7D6FB0820C4F2EB
:104DA00002000121FCF7F2FB01264FF46020009580
:104DB0008DF804708DF8056002900395002C50D09A
:104DC0004FF4105002246946C4F201008DF81040DF
:104DD000FCF76AFA4FF410503246C4F20100042185
:104DE0000323FCF7B9FA4FF41050C4F2010098F80D
:104DF000001022460323FCF7AFFA4FF41050C4F220
:104E000001000121FCF780FA4FF41050C4F20100B8
:104E10000121FCF76FFA4FF41050C4F20100FCF7C7
:104E20007DFA4FF41050C4F20100FCF77DFA00281F
:104E3000F7D14FF41050C4F20100FCF779FA4FF4A7
:104E40001050C4F20100FCF779FA0028F7D14FF4B2
:104E50001050C4F201000121FCF774FA10B0BDE853
:104E6000F0814FF410506946C4F201008DF81060D3
:104E7000FCF71AFA4FF41050C4F201000421324634
:104E80000323FCF769FAB8E7012108910994264643
:104E900070E700BFF805002040F2F853C2F20003AB
:104EA00033F8100080B27047704700BF2DE9F04F13
:104EB000534B87B01A78029032215320002A7FD0BA
:104EC000082204AB01F096FC9DF810109DF81340E9
:104ED0009DF812209DF815509DF811609DF8140062
:104EE0009DF8173001EB062602EB042100EB0522AA
:104EF000012415B25A060FFA86FB0FFA81FA50D038
:104F00003221082204AB532001F074FC671C9DF889
:104F10001560FCB29DF813C09DF81270019607EB66
:104F20000C279DF81190DDF804C09DF810809DF8C5
:104F30001460601C06EB0C2608EB09289DF817C0CE
:104F400036B203903221532008220FFA88F83FB27C
:104F5000202C354404ABC344BA440CF07F0620D067
:104F6000FEB1039C01F046FC9DF814309DF815201D
:104F70009DF812109DF811709DF810009DF81360B7
:104F800003EB02229DF8173001EB062600EB072009
:104F900031B200B216B25B06E4B283448A443544AF
:104FA000AED1029E17489BFBF4F29AFBF4F395FBFB
:104FB000F4F532807380B580047007B0BDE8F08FDF
:104FC000062204AB01F016FC9DF811509DF810105C
:104FD0009DF813409DF812209DF815009DF814309F
:104FE000DDF808C001EB052102EB042203EB0020F1
:104FF000ACF80010ACF80220ACF80400DDE700BF0C
:10500000FC050020FD05002008B5144B2D211B7860
:105010000822532083B901F0C9FC31210A22532010
:1050200001F0C4FC53202C210A2201F0BFFC0C48E3
:1050300040F20912028008BD01F0B8FC31210A22B9
:10504000532001F0B3FC2C210C22532001F0AEFCC4
:1050500038219022532001F0A9FCE8E7FC0500204C
:105060005200002070B582B0002402AB06460D4607
:1050700003F8014D53202146012201F0BBFB20B172
:105080009DF80730E52B02D0204602B070BD327883
:10509000044805490270054B054A29606B60AA6007
:1050A0000120F2E7FC05002009500008AD4E000881
:1050B000A94E00083B4B3C4A2DE9F00115885C895C
:1050C0001E892F1B06FB07F7B3F91250B3F9142002
:1050D000FC13A718EE0296FBF7F56219A2F57A64A5
:1050E00004FB04F6B3F902C0B3F90E8035130CFBD0
:1050F00004F708FB05F84FEAE72CB3F900700CEB56
:10510000E828B3F9206008EB870707FA06F84CF2A5
:10511000503747FA06F6B3F90CC0B3F904700CFB2C
:1051200005F507FB04F42F14204D07EB6434A71C8E
:10513000D5F800C0BC1008F10205DF88ACEBA5056E
:1051400004F5004406FB05F607FB04F402EB8205B8
:105150006D000835DA612D11E20B002E1DDB7400A5
:10516000B4FBF2F31E1206FB06F64EF24332CFF604
:10517000FF7202FB03F440F6DE3202FB06F2241457
:1051800004EB224202F6CF6203EB221300B103606C
:1051900001B10D60BDE8F0017047B6FBF2F35B00B2
:1051A000E0E700BF040600202E06002028060020AD
:1051B00000B5114B83B0187818B910490A88531CF0
:1051C0000B80F621032201AB772001F013FB9DF841
:1051D00005100B4B9DF804000A02B3F920309DF82E
:1051E000061042EA00400843C3F1080220FA02F028
:1051F0000449086003B000BDFE0500200006002041
:10520000040600202806002000B50C4B83B0187857
:1052100018B90B490A88531C0B80F621022201ABF6
:10522000772001F0E7FA9DF804009DF80510054B82
:1052300041EA00221A8003B000BD00BFFE05002035
:10524000000600202E06002040F20463C2F2000394
:1052500093F8202010B49401343440F2FE53C2F28B
:10526000000304F0FC0277200024F4211C7010BC21
:1052700001F09CBB10B440F2FE53C2F200030024C4
:105280007720F4212E221C7010BC01F08FBB00BFD0
:1052900010B54FF48040FCF7DBF90128044600D03C
:1052A00010BD4FF48040FCF7E3F9014B1C7010BDBA
:1052B000FE0500202DE9F04F864CA1B094F8008047
:1052C0000746B8F1000F03D0012021B0BDE8F08FF0
:1052D0004FF48059C4F20109102302254FF4005AFB
:1052E000484616A98DF85A304FF480468DF85B5029
:1052F000ADF858A000F0FCF80422484616A98DF835
:105300005A20ADF8586000F0F3F80E212846C9F88D
:1053100010A0FCF75DFA0125082118A88DF865108A
:1053200018968DF864800F268DF86650FCF752F9B8
:10533000282317A88DF85C308DF85D608DF85E60CD
:105340008DF85F50FBF772FF142002F007FD772005
:10535000D0212A460DF1570301F04CFA9DF8570071
:105360005D4E03225528F075328403D0C9F814A08D
:105370004046AAE7D1212A460DF15703772001F0D4
:1053800039FA9DF85710162201F00F0C4FEA111E42
:105390001AABAA21772086F818C086F819E001F028
:1053A00029FA9DF870309DF8698009939DF8713055
:1053B0009DF86AC00A939DF872309DF86CB00B930B
:1053C0009DF873309DF86DA00C939DF874309DF896
:1053D00068900D939DF875309DF86B000E939DF8C5
:1053E00076309DF86F100F939DF877309DF86E2002
:1053F00010939DF8783048EA092911939DF8793087
:105400004AEA0B2803939DF87A3040EA0C20129365
:105410009DF87B3041EA022202939DF87C30139381
:105420009DF87D30DDF828C0DDF824B00193CDF87B
:105430001490069007924CEA0B29DDF830A00B99E6
:105440000E9B0D98109ADDF83CB0CDF8108043EA21
:10545000002C4AEA012842EA0B20DDF80CA0029B4E
:10546000DDF848B0119943EA0B224AEA0121DDF840
:1054700004B0DDF84CA031824BEA0A23DDF814B009
:10548000DDF818A0A6F800B0A6F802A0DDF810B06C
:10549000DDF81CA041F27071F081A6F804B0A6F806
:1054A00006A0A6F80890A6F80A80A6F80CC072829A
:1054B000B3823980094B0A4946F678127A807B60BC
:1054C000B960084A084B094928462570FA603B61D3
:1054D0007961FAE62C0600200406002075520008C7
:1054E0000952000849520008B1510008B55000089F
:1054F0000B8870B4DA0712D58A78056812F0100F9D
:1055000002F00F0401D0CE78344325F00F052C4370
:10551000282A046000F07181482A00F0DC819A0793
:1055200013D58A78056812F0100F02F00F0401D02D
:10553000CE78344325F0F00545EA0414282A0460A7
:1055400000F05681482A00F0BC815A0713D58A78AA
:10555000056812F0100F02F00F0401D0CE7834432A
:1055600025F4706545EA0424282A046000F03B8194
:10557000482A00F0AB811A0713D58A78056812F023
:10558000100F02F00F0401D0CE78344325F470459B
:1055900045EA0434282A046000F01B81482A00F000
:1055A0007C81DA0613D58A78056812F0100F02F0B4
:1055B0000F0401D0CE78344325F4702545EA044425
:1055C000282A046000F00A81482A00F06B819A06BC
:1055D00013D58A78056812F0100F02F00F0401D07D
:1055E000CE78344325F4700545EA0454282A046033
:1055F00000F0E080482A00F05A815A0613D58A78D4
:10560000056812F0100F02F00F0401D0CE78344379
:1056100025F0706545EA0464282A046000F00181E1
:10562000482A00F049811A0613D58A78056812F0D5
:10563000100F02F00F0401D0CE78344325F07045EE
:1056400045EA0474282A046000F0E180482A00F04A
:10565000FC80DA0512D58A78456812F0100F02F046
:105660000F0401D0CE78344325F00F052C43282AAF
:10567000446000F0D180482A00F0EC809A0513D5F0
:105680008A78456812F0100F02F00F0401D0CE782E
:10569000344325F0F00545EA0414282A446000F05C
:1056A0009380482A00F0DB805A0512D58A78456835
:1056B00012F0100F02F00F0401D0CE78344325F41D
:1056C000706545EA0424282A446078D0482A00F00E
:1056D000CB801A0512D58A78456812F0100F02F0B7
:1056E0000F0401D0CE78344325F4704545EA0434E4
:1056F000282A446059D0482A00F0BB80DA0412D529
:105700008A78456812F0100F02F00F0401D0CE78AD
:10571000344325F4702545EA0444282A446071D0B6
:10572000482A00F0AB809A0412D58A78456812F0B6
:10573000100F02F00F0401D0CE78344325F4700529
:1057400045EA0454282A446070D0482A00F09B801F
:105750005A0412D58A78456812F0100F02F00F042F
:1057600001D0CE78344325F0706545EA0464282AD8
:10577000446065D0482A00F08B80DB0B13D08B7817
:10578000446813F0100F18BFC97803F00F0218BF58
:105790000A4324F0704141EA0272282B42604AD049
:1057A000482B00F09D8070BC7047C26822F40062F4
:1057B000C260A3E7C26822F02002C2601DE7C2688F
:1057C00022F48062C26084E7C26822F40072C26080
:1057D0006AE7C26822F00802C260E2E6C26822F00C
:1057E0001002C260F3E6C26822F00402C260C2E6A0
:1057F000C26822F00202C260A7E6C26822F001027B
:10580000C2608CE6C26822F48052C2608BE7C26834
:1058100022F08002C2601CE7C26822F48072C2607B
:105820002CE7C26822F04002C260FCE6C26822F4A3
:105830000052C2608CE7C26822F40043C360B2E742
:10584000C26822F48042C26097E7C26842F08002D8
:10585000C260FEE6C26842F48072C2600EE7C268AF
:1058600042F40072C2601FE7C26842F48062C26004
:105870002FE7C26842F40062C2603FE7C26842F4A8
:105880008052C2604FE7C26842F40052C2605FE7D4
:10589000C26842F48042C2606FE7C26842F0080208
:1058A000C2607EE6C26842F01002C2608FE6C26843
:1058B00042F02002C260A0E6C26842F04002C2602C
:1058C000B1E6C26842F00202C2603EE6C26842F03F
:1058D0000402C2604FE6C26842F00102C2601EE6E6
:1058E000C36843F40041C1605DE700BF08B5144AD6
:1058F0004FF44063C4F2010398681188014219D142
:1059000002F0D0F90F4B196888420DD943F6BF4217
:10591000401AC2F2B62282FB00120B49C317C3EB36
:10592000E202086893B2038008480068BDE80840B6
:10593000FBF79EBE02F0B6F902490860F4E700BF2B
:1059400034060020440600203C06002038060020D3
:10595000FFF7CCBFFFF7CABF2DE9F041DFF8F480B5
:1059600084B0002855D1364C364F374E374A4FF465
:1059700000754FF48073092117201380A8F8005098
:105980002560397030704FF440601025C4F201007A
:1059900001A9ADF8043002238DF807308DF80650C8
:1059A000FFF7A6FDB8F800204FF440600423C4F2CE
:1059B000010001A98DF80630ADF80420FFF798FD2D
:1059C00039780120FBF704FF2068FBF751FE2168BE
:1059D0000022012402A802918DF80C208DF80E40BF
:1059E0008DF80D50FBF7F6FD30784FF4614300F071
:1059F0001F0104FA01F442B2CEF20003500943F849
:105A0000204002F06DF9124B3C38186004B0BDE83C
:105A1000F081012805D00D4B094C1B88094F0A4E17
:105A2000B1E7084F064C084E084A0023A8F80000CA
:105A3000022138700720138021603070A3E700BF77
:105A400038060020370600203606002040060020D9
:105A5000300600203406002070B5054602F040F9FB
:105A60000A4B19683C3188420ED3094E18603288BF
:105A700008484FF44064C4F2010405600B20226121
:105A800002F034F93388636170BD00BF3006002036
:105A9000400600203C06002030B583B002AB002455
:105AA000054603F8014D0A211E20012200F0A2FE46
:105AB00020B19DF80730482B02D0204603B030BDFE
:105AC00003482988AA78018082700120F6E700BF88
:105AD00048060020F0B585B0032106226B46044637
