:020000040800F2
:1000000000500020D1090108810A0108C9AD00088B
:10001000810A0108810A0108810A01080000000024
:10002000000000000000000000000000810A01083C
:10003000810A010800000000810A01089D7C000877
:10004000810A0108810A0108810A0108810A010860
:10005000810A0108810A0108810A0108A5580008DF
:10006000810A0108810A0108810A0108810A010840
:10007000810A0108810A01080D800008810A01082F
:10008000810A0108810A0108810A0108810A010820
:10009000810A0108810A0108810A0108A95800089B
:1000A000810A0108810A0108810A0108597A0008B9
:1000B000D17A0008DD7A0008ED7A000805660008AC
:1000C000696A000809660008656A0008810A010873
:1000D000810A0108810A01089D830008810A01083C
:1000E000E1550008810A0108810A010800000000AA
:1000F0000000000000000000000000000000000000
:0C01000000000000000000005FF808F1A3
:1001100010B5054C237833B9044810B10448AFF347
:1001200000800121217010BD940500200000000016
:10013000EC58010808B5064B1BB106480649AFF359
:1001400000800648016811B1054A02B1904708BD18
:1001500000000000EC5801089805002094050020DC
:100160000000000081F0004102E000BF83F0004386
:1001700030B54FEA41044FEA430594EA050F08BF42
:1001800090EA020F1FBF54EA000C55EA020C7FEA06
:10019000645C7FEA655C00F0E2804FEA5454D4EB83
:1001A0005555B8BF6D420CDD2C4480EA020281EA4D
:1001B000030382EA000083EA010180EA020281EA85
:1001C0000303362D88BF30BD11F0004F4FEA0131D7
:1001D0004FF4801C4CEA113102D0404261EB4101E6
:1001E00013F0004F4FEA03334CEA133302D052426C
:1001F00063EB430394EA050F00F0A780A4F1010428
:10020000D5F1200E0DDB02FA0EFC22FA05F2801861
:1002100041F1000103FA0EF2801843FA05F3594147
:100220000EE0A5F120050EF1200E012A03FA0EFCC6
:1002300028BF4CF0020C43FA05F3C01851EBE371F0
:1002400001F0004507D54FF0000EDCF1000C7EEB0D
:1002500000006EEB0101B1F5801F1BD3B1F5001F4B
:100260000CD349085FEA30004FEA3C0C04F101046A
:100270004FEA445212F5800F80F09A80BCF1004F93
:1002800008BF5FEA500C50F1000041EB045141EA15
:10029000050130BD5FEA4C0C404141EB010111F416
:1002A000801FA4F10104E9D191F0000F04BF0146C1
:1002B0000020B1FA81F308BF2033A3F10B03B3F19F
:1002C00020020CDA0C3208DD02F1140CC2F10C022F
:1002D00001FA0CF021FA02F10CE002F11402D8BF8D
:1002E000C2F1200C01FA02F120FA0CFCDCBF41EA59
:1002F0000C019040E41AA2BF01EB0451294330BD28
:100300006FEA04041F3C1CDA0C340EDC04F1140404
:10031000C4F1200220FA04F001FA02F340EA0300DB
:1003200021FA04F345EA030130BDC4F10C04C4F121
:10033000200220FA02F001FA04F340EA0300294601
:1003400030BD21FA04F0294630BD94F0000F83F44B
:10035000801306BF81F480110134013D4EE77FEA2E
:10036000645C18BF7FEA655C29D094EA050F08BF7A
:1003700090EA020F05D054EA000C04BF194610465B
:1003800030BD91EA030F1EBF0021002030BD5FEA9F
:10039000545C05D14000494128BF41F0004130BDC7
:1003A00014F580043CBF01F5801130BD01F000451B
:1003B00045F0FE4141F470014FF0000030BD7FEA8E
:1003C000645C1ABF194610467FEA655C1CBF0B4689
:1003D000024650EA013406BF52EA033591EA030FA0
:1003E00041F4002130BD00BF90F0000F04BF002198
:1003F000704730B54FF4806404F132044FF00005CB
:100400004FF0000150E700BF90F0000F04BF002143
:10041000704730B54FF4806404F1320410F00045A9
:1004200048BF40424FF000013EE700BF42004FEAA4
:10043000E2014FEA31014FEA02701FBF12F07F4321
:1004400093F07F4F81F06051704792F0000F14BF1E
:1004500093F07F4F704730B54FF4607401F0004562
:1004600021F0004120E700BF50EA010208BF7047B9
:1004700030B54FF000050AE050EA010208BF7047AE
:1004800030B511F0004502D5404261EB41014FF417
:10049000806404F132045FEA915C3FF4DCAE4FF01B
:1004A00003025FEADC0C18BF03325FEADC0C18BF02
:1004B000033202EBDC02C2F1200300FA03FC20FA53
:1004C00002F001FA03FE40EA0E0021FA02F11444A0
:1004D000C1E600BF70B54FF0FF0C4CF4E06C1CEAB5
:1004E00011541DBF1CEA135594EA0C0F95EA0C0F2A
:1004F00000F0DEF82C4481EA030621EA4C5123EA9D
:100500004C5350EA013518BF52EA033541F48011CB
:1005100043F4801338D0A0FB02CE4FF00005E1FB7E
:1005200002E506F00042E0FB03E54FF00006E1FBC8
:1005300003569CF0000F18BF4EF0010EA4F1FF040B
:10054000B6F5007F64F5407404D25FEA4E0E6D414B
:1005500046EB060642EAC62141EA55514FEAC5205C
:1005600040EA5E504FEACE2EB4F1FD0C88BFBCF5D8
:10057000E06F1ED8BEF1004F08BF5FEA500E50F189
:10058000000041EB045170BD06F0004646EA01014F
:1005900040EA020081EA0301B4EB5C04C2BFD4EB81
:1005A0000C0541EA045170BD41F480114FF0000E7A
:1005B000013C00F3AB8014F1360FDEBF002001F0E8
:1005C000004170BDC4F10004203C35DA0C341BDC62
:1005D00004F11404C4F1200500FA05F320FA04F034
:1005E00001FA05F240EA020001F0004221F0004168
:1005F00010EBD37021FA04F642EB06015EEA430EDB
:1006000008BF20EAD37070BDC4F10C04C4F120050A
:1006100000FA04F320FA05F001FA04F240EA0200BD
:1006200001F0004110EBD37041F100015EEA430E8E
:1006300008BF20EAD37070BDC4F1200500FA05F2AE
:100640004EEA020E20FA04F301FA05F243EA02032D
:1006500021FA04F001F0004121FA04F220EA02003C
:1006600000EBD3705EEA430E08BF20EAD37070BD82
:1006700094F0000F0FD101F00046400041EB010162
:1006800011F4801F08BF013CF7D041EA060195F044
:10069000000F18BF704703F00046520043EB0303FE
:1006A00013F4801F08BF013DF7D043EA06037047EB
:1006B00094EA0C0F0CEA135518BF95EA0C0F0CD0F6
:1006C00050EA410618BF52EA4306D1D181EA03013C
:1006D00001F000414FF0000070BD50EA410606BF36
:1006E0001046194652EA430619D094EA0C0F02D17B
:1006F00050EA013613D195EA0C0F05D152EA0336C0
:100700001CBF104619460AD181EA030101F00041DD
:1007100041F0FE4141F470014FF0000070BD41F026
:10072000FE4141F4780170BD70B54FF0FF0C4CF400
:10073000E06C1CEA11541DBF1CEA135594EA0C0F1F
:1007400095EA0C0F00F0A7F8A4EB050481EA030E6C
:1007500052EA03354FEA013100F088804FEA033353
:100760004FF0805545EA131343EA12634FEA022221
:1007700045EA111545EA10654FEA00260EF00041E2
:100780009D4208BF964244F1FD0404F5407402D234
:100790005B084FEA3202B61A65EB03055B084FEAC5
:1007A00032024FF480104FF4002CB6EB020E75EBC2
:1007B000030E22BFB61A754640EA0C005B084FEAEA
:1007C0003202B6EB020E75EB030E22BFB61A754667
:1007D00040EA5C005B084FEA3202B6EB020E75EBB2
:1007E000030E22BFB61A754640EA9C005B084FEA2A
:1007F0003202B6EB020E75EB030E22BFB61A754637
:1008000040EADC0055EA060E18D04FEA051545EA25
:1008100016754FEA06164FEAC30343EA52734FEACE
:10082000C2025FEA1C1CC0D111F4801F0BD141EA47
:1008300000014FF000004FF0004CB6E711F4801FAC
:1008400004BF01430020B4F1FD0C88BFBCF5E06F8C
:100850003FF6AFAEB5EB030C04BFB6EB020C5FEA9C
:10086000500C50F1000041EB045170BD0EF0004EF1
:100870004EEA113114EB5C04C2BFD4EB0C0541EA23
:10088000045170BD41F480114FF0000E013C90E620
:1008900045EA060E8DE60CEA135594EA0C0F08BFE4
:1008A00095EA0C0F3FF43BAF94EA0C0F0AD150EAE3
:1008B00001347FF434AF95EA0C0F7FF425AF104676
:1008C00019462CE795EA0C0F06D152EA03353FF49E
:1008D000FDAE1046194622E750EA410618BF52EA1B
:1008E00043067FF4C5AE50EA41047FF40DAF52EAEF
:1008F00043057FF4EBAE12E74FEA4102B2F1E04369
:1009000024BFB3F5001CDCF1FE5C0DD901F0004CF6
:100910004FEAC0024CEA5070B2F1004F40EB830046
:1009200008BF20F00100704711F0804F21D113F172
:100930003872BCBF01F00040704741F480114FEAAB
:100940005252C2F11802C2F1200C10FA0CF320FA34
:1009500002F018BF40F001004FEAC1234FEAD32351
:1009600003FA0CFC40EA0C0023FA02F34FEA4303BB
:10097000CCE77FEA625307D150EA01331EBF4FF044
:10098000FE4040F44000704701F0004040F0FE405F
:1009900040F40000704700BF80F0004002E000BF5C
:1009A00081F0004142001FBF5FEA410392EA030F5A
:1009B0007FEA226C7FEA236C6AD04FEA1262D2EBA4
:1009C0001363C1BFD218414048404140B8BF5B42A9
:1009D000192B88BF704710F0004F40F4000020F042
:1009E0007F4018BF404211F0004F41F4000121F058
:1009F0007F4118BF494292EA030F3FD0A2F10102A2
:100A000041FA03FC10EB0C00C3F1200301FA03F1DF
:100A100000F0004302D5494260EB4000B0F5000F02
:100A200013D3B0F1807F06D340084FEA310102F1C1
:100A30000102FE2A51D2B1F1004F40EBC25008BF73
:100A400020F0010040EA03007047490040EB00003D
:100A500010F4000FA2F10102EDD1B0FA80FCACF16C
:100A6000080CB2EB0C0200FA0CF0AABF00EBC2506B
:100A700052421843BCBFD0401843704792F0000F59
:100A800081F4000106BF80F400000132013BB5E7AC
:100A90004FEA41037FEA226C18BF7FEA236C21D022
:100AA00092EA030F04D092F0000F08BF0846704787
:100AB00090EA010F1CBF0020704712F07F4F04D155
:100AC000400028BF40F00040704712F100723CBF68
:100AD00000F50000704700F0004343F0FE4040F492
:100AE000000070477FEA226216BF08467FEA236350
:100AF0000146420206BF5FEA412390EA010F40F43B
:100B0000800070474FF0000304E000BF10F0004386
:100B100048BF40425FEA000C08BF704743F096436D
:100B200001464FF000001CE050EA010208BF704788
:100B30004FF000030AE000BF50EA010208BF70470F
:100B400011F0004302D5404261EB41015FEA010C24
:100B500002BF84460146002043F0B64308BFA3F11C
:100B60008053A3F50003BCFA8CF2083AA3EBC253FE
:100B700010DB01FA02FC634400FA02FCC2F120021D
:100B8000BCF1004F20FA02F243EB020008BF20F054
:100B90000100704702F1200201FA02FCC2F12002BA
:100BA00050EA4C0021FA02F243EB020008BF20EAAF
:100BB000DC7070474FF0FF0C1CEAD0521EBF1CEADD
:100BC000D15392EA0C0F93EA0C0F6FD01A4480EACB
:100BD000010C400218BF5FEA41211ED04FF00063B4
:100BE00043EA501043EA5111A0FB01310CF00040E0
:100BF000B1F5000F3EBF490041EAD3715B0040EA06
:100C0000010062F17F02FD2A1DD8B3F1004F40EBD5
:100C1000C25008BF20F00100704790F0000F0CF0A8
:100C2000004C08BF49024CEA502040EA51207F3A6C
:100C3000C2BFD2F1FF0340EAC250704740F4000047
:100C40004FF00003013A5DDC12F1190FDCBF00F038
:100C500000407047C2F10002410021FA02F1C2F1E6
:100C6000200200FA02FC5FEA310040F1000053EA82
:100C70004C0308BF20EADC70704792F0000F00F0D0
:100C8000004C02BF400010F4000F013AF9D040EAD6
:100C90000C0093F0000F01F0004C02BF490011F46A
:100CA000000F013BF9D041EA0C018FE70CEAD15368
:100CB00092EA0C0F18BF93EA0C0F0AD030F0004CE8
:100CC00018BF31F0004CD8D180EA010000F000409C
:100CD000704790F0000F17BF90F0004F084691F05A
:100CE000000F91F0004F14D092EA0C0F01D1420294
:100CF0000FD193EA0C0F03D14B0218BF084608D15D
:100D000080EA010000F0004040F0FE4040F40000A6
:100D1000704740F0FE4040F4400070474FF0FF0C39
:100D20001CEAD0521EBF1CEAD15392EA0C0F93EA80
:100D30000C0F69D0A2EB030280EA010C49024FEAD2
:100D4000402037D04FF0805343EA111143EA10138B
:100D50000CF000408B4238BF5B0042F17D024FF443
:100D6000000C8B4224BF5B1A40EA0C00B3EB510F1E
:100D700024BFA3EB510340EA5C00B3EB910F24BF07
:100D8000A3EB910340EA9C00B3EBD10F24BFA3EB8C
:100D9000D10340EADC001B0118BF5FEA1C1CE0D154
:100DA000FD2A3FF650AF8B4240EBC25008BF20F007
:100DB000010070470CF0004C4CEA50207F32C2BF5B
:100DC000D2F1FF0340EAC250704740F400004FF0F8
:100DD0000003013A37E792F0000F00F0004C02BF29
:100DE000400010F4000F013AF9D040EA0C0093F0F3
:100DF000000F01F0004C02BF490011F4000F013B4D
:100E0000F9D041EA0C0195E70CEAD15392EA0C0FB4
:100E100008D142027FF47DAF93EA0C0F7FF470AFEC
:100E2000084676E793EA0C0F04D14B023FF44CAF2F
:100E300008466EE730F0004C18BF31F0004CCAD1C4
:100E400030F000427FF45CAF31F000437FF43CAF00
:100E50005FE700BF4FF0FF3C06E000BF4FF0010C22
:100E600002E000BF4FF0010C4DF804CD4FEA400204
:100E70004FEA41037FEA226C18BF7FEA236C11D04E
:100E800001B052EA530C18BF90EA010F58BFB2EB01
:100E9000030088BFC81738BF6FEAE17018BF40F081
:100EA000010070477FEA226C02D15FEA402C05D135
:100EB0007FEA236CE4D15FEA412CE1D05DF8040BBA
:100EC000704700BF844608466146FFE70FB5FFF74D
:100ED000C9FF002848BF10F1000F0FBD4DF808ED05
:100EE000FFF7F4FF0CBF012000205DF808FB00BFF6
:100EF0004DF808EDFFF7EAFF34BF012000205DF850
:100F000008FB00BF4DF808EDFFF7E0FF94BF01209C
:100F100000205DF808FB00BF4DF808EDFFF7D2FF99
:100F200094BF012000205DF808FB00BF4DF808EDDC
:100F3000FFF7C8FF34BF012000205DF808FB00BFA9
:100F40004FEA4002B2F1FE4F0FD34FF09E03B3EBD6
:100F500012620DD94FEA002343F0004310F0004F16
:100F600023FA02F018BF404270474FF0000070476C
:100F700012F1610F01D1420205D110F0004008BF0B
:100F80006FF0004070474FF00000704742000ED2F3
:100F9000B2F1FE4F0BD34FF09E03B3EB126209D4B4
:100FA0004FEA002343F0004323FA02F070474FF06A
:100FB0000000704712F1610F01D1420202D14FF0DF
:100FC000FF3070474FF00000704700BF4FF4805370
:100FD000C4F202035A6802F00C00082811D04FF442
:100FE0009052C0F27A024FF48053C4F20203586860
:100FF0001049C0F30313C85C0F4B22FA00F21A60C9
:10100000704758685968C0F383420232C90309D552
:101010005B689B0306D44FF49050C0F27A0000FB4B
:1010200002F2E0E74FF41061C0F23D0101FB02F271
:10103000D9E700BF00000020100000204FF48053CB
:10104000C4F20203196800B541F001001860596844
:101050000022CFF6FF020A405A601A68002122F0EF
:10106000847020F480321A60186885B020F48022E1
:101070001A6058681A4620F4FE0058604FF41F00AA
:101080009860019102910391196841F480301860D1
:1010900003E00198B0F5A06F09D0136803F40031A4
:1010A00002910198431C019302990029F1D04FF459
:1010B0008052C4F20202136813F4003169D0012097
:1010C0000290029A012A68D04FF48051C4F20201C2
:1010D0000B68002243F001000860019203E0019ACE
:1010E000B2F5A06F09D00B6803F002000390019ADB
:1010F000531C019303980028F1D04FF48053C4F29D
:10110000020319688A073BD54FF40052C4F2020269
:101110001068194640F010001060106820F00300BD
:101120001060106840F0020010605A685A605868F9
:1011300058605A6842F4806058605A6822F47C1003
:1011400058605A6842F4601058601A6842F0807023
:1011500018600A684FF480539001C4F20203F8D576
:101160005968184621F003025A60596841F002029A
:101170005A60436803F00C010829FAD1FFF726FFF3
:101180004FF46D40CEF200004FF00062826005B077
:1011900000BD0291029A012A96D14FF40052C4F286
:1011A000020210684FF4805340F010011160106883
:1011B000C4F2020320F0030111601068194640F0E8
:1011C000020010605A685A60586858605A6842F4C1
:1011D000806058605A6822F47C1058605A6842F463
:1011E000E81058601A6842F0807018600A684FF47E
:1011F00080539001C4F20203F8D55968184621F0D3
:1012000003025A60596841F002025A60436803F0D1
:101210000C010829FAD1B3E740F0BF604FF46D43E9
:1012200040F40031CEF20003D9607047C37830B487
:101230007BB90078012100F01F0201FA02F1400998
:101240004FF46143CEF20003203043F8201030BC4D
:1012500070474FF46D44CEF20004E5684478EA43E9
:10126000C2F302230F2525FA03F2C3F1040104FAA5
:1012700001F48578037802EA050121430A0103F1AC
:101280006043D1B203F5614282F800130078012176
:1012900000F01F0301FA03F14FF46143CEF20003A3
:1012A000420943F82210D2E742680B6870B422F476
:1012B00070250C7925F4807646EA030242EA04237D
:1012C000436086688C68CA684FF2FD73CFF6F1738D
:1012D0004D7922433340134343EA45028260097C3F
:1012E000C26A4B1E22F47001DAB241EA0253C362B1
:1012F00070BC7047836819B923F0010181607047A1
:1013000043F0010282607047836819B923F4807149
:101310008160704743F4807282607047836843F055
:1013200008018160704700BF8068C0F3C00070474B
:10133000836843F004018160704700BF8068C0F398
:1013400080007047836819B923F4A0018160704759
:1013500043F4A00282607047092970B401EB410494
:101360001ED91E3C072606FA04F603FA04F4C568E3
:10137000062A25EA060343EA0403C3601DD90C2AA2
:1013800002EB820227D9413A1F2404FA02F401FA3F
:1013900002F1C36A23EA04020A43C26270BC7047C6
:1013A000072606FA04F603FA04F40569062A25EA74
:1013B000060343EA04030361E1D8541E04EB8403EB
:1013C0001F2404FA03F401FA03F1426B22EA040336
:1013D0000B434363E2E7233A1F2404FA02F401FAC1
:1013E00002F1036B23EA04020A430263D6E700BF5B
:1013F00010B4082104684FF6FE72C4F20201002303
:10140000224088420260036043608360C36047D02B
:101410001C23C4F20203984249D03022C4F20202D3
:1014200090424CD04421C4F2020188424FD058234C
:10143000C4F2020398425BD06C22C4F202029042D2
:101440005ED08021C4F2020188421FD04FF4816334
:10145000C4F20203984221D040F21C42C4F20202BC
:10146000904255D04FF48661C4F20201884258D0B0
:1014700040F24443C4F2020398425BD04FF48B62C3
:10148000C4F2020290422AD010BC70470021C4F27C
:1014900002014A6842F070604860F5E74FF48063EB
:1014A000C4F202035A6842F00F015960ECE70023CE
:1014B000C4F20203596841F0F0005860E4E70021EB
:1014C000C4F20201486840F470624A60DCE7002020
:1014D000C4F20200426842F470434360D4E74FF420
:1014E0008060C4F20200416841F470234360CBE79E
:1014F0000020C4F20200436843F470214160C3E756
:101500000023C4F20203596841F470025A60BBE739
:101510004FF48061C4F202014B6843F0F000486070
:10152000B2E74FF48063C4F20203586840F470627B
:101530005A60A9E74FF48060C4F20200426842F4A6
:1015400070414160A0E700BF8B68F0B40D6A0C6980
:101550004A691D438E6945EA04031343CA69056855
:101560004F6A43EA060414438E6A25F4FF4C27436E
:101570000D68CC682CF0700349683E431E4306603A
:1015800044608560C160F0BC704700BF29B9026843
:101590004FF6FE73134003607047016841F001028B
:1015A0000260704703681AB923EA010101607047BD
:1015B00019430160704700BF406880B2704700BFA8
:1015C000C3004CBF4FF480630023C4F20203586091
:1015D000704700BF837930B43BB34FF48063C4F2EB
:1015E000010301681D68CC4325401D605D680279D8
:1015F0002C4002F180455C6005F582321568447923
:101600002943116002689868D14308409860D868FF
:10161000102C01EA0001D96013D004F1804303F5D6
:10162000823421680A43226009E00279016802F1EC
:10163000804000F582331A6822EA01021A6030BC49
:101640007047986810439860D9680A43DA60F6E7F3
:101650004FF48063C4F201031A68596910EA010368
:1016600004D010420CBF002001207047184670477C
:101670004FF48063C4F20103586170474FF4005384
:1016800040F2231148F6AB12C4F20203C4F26751D0
:10169000CCF6EF5259605A60704700BF4FF40053C8
:1016A000C4F202031A6942F080001861704700BF5B
:1016B0004FF40053C4F20203D86070474FF4005354
:1016C000C4F20203DA68D2070BD4D868400701D508
:1016D00002207047D96811F0100F0CBF04200320BE
:1016E00070470120704700BF10B50446FFF7E6FFC2
:1016F000012815D1B4B1FFF7E1FF013C012804F046
:1017000001030DD174B10BB105E05CB1FFF7D6FF59
:10171000013C012804D1FFF7D1FF013C0128F4D09E
:1017200004B110BD052010BD70B5002382B0054680
:101730004FF400500C460193FFF7D6FF042801D068
:1017400002B070BD4FF40056C4F202063269A1B275
:1017500042F0010030614FF400502980FFF7C4FFD0
:10176000042805D0326941F6FE7313403361E7E780
:10177000023501950199240C0C804FF40050FFF7BD
:10178000B3FF326941F6FE7313403361D8E700BFFF
:1017900038B505464FF43020FFF7A6FF042800D0E7
:1017A00038BD4FF40054C4F2020423694FF43020D2
:1017B00043F0020121616561226942F04003236127
:1017C000FFF792FF216941F6FD720A40226138BDA0
:1017D000CA7830B4D30648BF8B7802F00F0448BFF4
:1017E0001C430B8813F0FF0F2FD013F00105016885
:1017F00040F0EC8003F00205ADB2002D40F0D08047
:1018000003F00405ADB2002D40F0D58003F00805CB
:10181000ADB2002D40F0988003F01005ADB2002D60
:1018200040F09D8003F02005ADB2002D40F0A28075
:1018300003F04005ADB2002D40F0A78003F0800515
:10184000ADB2002D40F0CD800160FF2B28D903F40C
:1018500080718DB24168002D2DD103F40075ADB2B9
:10186000002D33D103F48065ADB2002D39D103F4DE
:101870000065ADB2002D3FD103F48055ADB2002D0F
:1018800044D103F40055ADB2002D49D103F4804595
:10189000ADB2002D4ED103F400439BB213B94160A9
:1018A00030BC7047282A64F31F7100F0B080482ACA
:1018B00008BF0361F3E721F00F01282A44EA010180
:1018C00000F0A380482AC8D10561C6E721F0F001E5
:1018D000282A41EA041100F09680482AC2D1056105
:1018E000C0E721F47061282A41EA042100F08980D0
:1018F000482ABCD10561BAE721F47041282A41EA9F
:1019000004317CD0482AB7D10561B5E721F47021B4
:10191000282A41EA044170D0482AB2D10561B0E7D3
:1019200021F47001282A41EA045164D0482AADD13B
:101930000561ABE721F07061282A41EA046158D0C3
:10194000482AA8D10561A6E721F47041282A41EA76
:10195000043168D0482A7FF45FAF05615CE721F469
:101960007021282A41EA04415BD0482A7FF45AAF0B
:10197000056157E721F47001282A41EA045156D045
:10198000482A7FF455AF056152E721F07061282A9B
:1019900041EA046149D0482A7FF450AF05614DE720
:1019A00021F0F001282A41EA041138D0482A7FF4B6
:1019B00027AF056124E721F47061282A41EA042158
:1019C0002BD0482A7FF422AF05611FE721F00F01D9
:1019D000282A44EA01011CD0482A7FF40BAF056194
:1019E00008E7282A64F31F7115D0482A08BF05614B
:1019F0002AE745614FE7456148E7456141E74561B1
:101A00003AE7456133E745612CE7456125E74361E6
:101A100045E74561EEE6456116E74561F6E6456155
:101A2000EEE64561FEE64561F6E6456106E745619D
:101A3000FEE600BF4FF6FF7302210422038081708F
:101A4000C2707047836819420CBF002001207047A4
:101A5000016170474161704700230028C4F201030F
:101A600000F44012B4BFDB695B68B2F5401F30B4CC
:101A700084B222D0C20217D5C0F30342032505FA6F
:101A800002F223EA020343F0706321B1410D0A011F
:101A900004FA02F423430021C4F201010028B4BF78
:101AA000CB614B6030BC7047420D120104FA02F268
:101AB00023EA020343F07063E7E70022C4F2010265
:101AC000556823F0706325F070655560DDE700BF51
:101AD00001F0030310B40F229C0002FA04F200FA92
:101AE00004F089080023C4F20103023153F82140B5
:101AF00024EA020243F8212053F82120104343F83E
:101B0000210010BC704700BF08B54FF4A843C4F2D1
:101B1000000398420BD001214FF4800000F066F9D9
:101B20004FF480000021BDE8084000F05FB90121BA
:101B30004FF4001000F05AF94FF400100021BDE8F6
:101B4000084000F053B900BFF0B587B0044686885E
:101B500001A80D4600F0CCF803994DF68363C4F25A
:101B60001B33A3FB012026F03F073A04870C160C19
:101B70001FFA87FC4CEA0603A380228848F2A06083
:101B800022F001062A683304C0F201001E0C8242D2
:101B9000268024D85200B1FBF2F6B1B20CF1010E4E
:101BA000A4F820E0032998BF0421A18320886E892E
:101BB00083B243F0010121802288A88822F4816346
:101BC00023F00203AA8929891B041B0C3043034319
:101BD00011439BB28AB22380228107B0F0BDE8880E
:101BE0004BF6FF7398421DD002EB820202EB820695
:101BF000B1FBF6F141F4804081B20E05300D08B919
:101C000041F001014FF4967303FB07F744F6D352FA
:101C1000C1F2620282FB0736B009431C41F4004165
:101C20002384C2E702EB4203B1FBF3F291B2E4E793
:101C3000002341F2883283804BF6FF710381438198
:101C40004FF480430260C18083817047038829B9C3
:101C500023F001010A04130C0380704799B241F08C
:101C600001020280704700BF038829B923F4807104
:101C70000A04130C0380704799B241F48072028009
:101C8000704700BF038829B923F400710A04130CBC
:101C90000380704799B241F400720280704700BF20
:101CA000038829B923F480610A04130C0380704768
:101CB00099B241F480620280704700BF83889BB272
:101CC0001AB923EA01018180704719438180704766
:101CD00001827047008AC0B2704700BF1AB901F094
:101CE000FE010182704741F001010182704700BF8F
:101CF0004FF48053C4F202035A6810B402F00C018E
:101D0000042901D0082928D04FF49052C0F27A0259
:101D100002604FF48053C4F202035C681C49C4F3B0
:101D200003140C5D22FA04F242605C68C4F30224DE
:101D30000C5D22FA04F484605C68C4F3C224095D7B
:101D400022FA01F2C2605B681249C3F38133CB5CB3
:101D5000B2FBF3F2026110BC70475C685968C4F3CF
:101D600083420232CC030AD55B68990307D44FF44F
:101D70009054C0F27A0404FB02F20260C9E74FF407
:101D80001061C0F23D0101FB02F20260C1E700BF39
:101D900018000020140000204FF48053C4F2020306
:101DA0005A6919B922EA0000586170471043586116
:101DB000704700BF4FF48053C4F202039A6919B907
:101DC00022EA00009861704710439861704700BF95
:101DD0004FF48053C4F20203DA6919B922EA000011
:101DE000D86170471043D861704700BF4FF48053EB
:101DF000C4F202031A6919B922EA00001861704797
:101E000010431861704700BF4FF48053C4F20203BF
:101E10005A6A42F080705862704700BF70B4048CF8
:101E20004FF4305524F001063404260C0684048B4C
:101E3000C4F2010524F0F3042404240C2243068C8C
:101E400042EA0313A842B6B29CB223D04FF45052D8
:101E5000C4F2010290421DD0B0F1804F1AD04FF46D
:101E60008063C4F20003984214D04FF40062C4F2BD
:101E7000000290420ED04FF44063C4F20003984237
:101E800008D026F00A0646F0010631430483018497
:101E900070BC704726F0020242F001063143F5E7BC
:101EA00070B4048C4FF4305524F010063404260C22
:101EB0000684048BC4F2010524F440742405240D27
:101EC000068C44EA022242EA0333A842B6B29BB22D
:101ED00023D04FF45052C4F2010290421DD0B0F111
:101EE000804F1AD04FF48062C4F20002904214D0A6
:101EF0004FF40062C4F2000290420ED04FF44062F0
:101F0000C4F20002904208D026F0A00646F0100667
:101F100031430383018470BC704726F0200242F0F5
:101F2000100646EA011189B2F3E700BF4FF43052C0
:101F30000388C4F20102904270B49BB21AD04FF4ED
:101F40005052C4F20102904214D0B0F1804F11D02F
:101F50004FF48062C4F2000290420BD04FF4006252
:101F6000C4F20002904205D04FF44062C4F2000275
:101F7000904205D14FF68F724C881A4042EA040312
:101F80004FF48052C4F20002904234D04FF4A05279
:101F9000C4F2000290422ED04FF6FF42CE881A4083
:101FA0004FF430538D880C88C4F2010332439842B9
:101FB0000280858504851BD04FF45052C4F2010283
:101FC000904215D04FF48043C4F2010398420FD0E1
:101FD0004FF48842C4F20102904209D04FF490437A
:101FE000C4F20103984203D00122828270BC704780
:101FF000097A0186F8E703808B8883850988018543
:10200000F2E700BF038C2DE9F00123F00102140474
:10201000250C0584078C0D8984884E88038B2E43FC
:1020200023F073024FF4305527F0020312041B040F
:102030000F88C4F20105120C1B0CB6B2A842A4B260
:1020400042EA070246EA03031FD04FF45055C4F298
:102050000105A84219D04FF48045C4F20105A842F9
:1020600013D04FF48845C4F20105A8420DD04FF4B7
:102070009045C4F20105A84207D0C9888480028334
:1020800081860384BDE8F00170474FF6F776B1F81A
:102090000AC0B1F80E808F891E4046EA0C0C4FF63C
:1020A000FB738E884FF6FF4548EA070725400CEA88
:1020B0000303BCB233432C43DFE700BF038CF0B40F
:1020C00023F010021404250C0584068C848826F065
:1020D0002002078B16040D89320C27F4E6431B04FB
:1020E00042EA05120F884E884FF430551B0CC4F29B
:1020F000010543EA072342EA0612A842A4B29BB2B2
:1021000092B20CD04FF45055C4F20105A84206D04B
:10211000C9888480038301870284F0BC70474F899B
:102120004FF67F7616404FF2FF35B1F80CC02540D0
:1021300046EA07164FF6BF728F88CC89324045EACF
:102140008C0542EA071245EA840492B2A4B2DFE7A2
:10215000038CF0B423F480721404250C0584068CDF
:102160000D8926F400773A048488838B120C23F0BF
:10217000730642EA05224F884FF430553304C4F207
:1021800001050E881B0C42EA0722A842A4B243EACA
:10219000060392B20CD04FF45055C4F20105A84288
:1021A00006D0C9888480838381870284F0BC70470D
:1021B0004F894FF2FF7616404CF6FF75B1F80CC010
:1021C000254046EA07264FF6FF328F88CC893240F9
:1021D00045EA0C1542EA072245EA041492B2A4B279
:1021E000DFE700BF038CF0B423F480521404250C05
:1021F0000584068C858826F40052878B16040C898A
:10220000320C27F4E6431B0442EA04320F884E885E
:102210004FF430541B0CC4F2010443EA072342EA92
:102220000632A042ADB29BB292B20DD04FF45054E0
:10223000C4F20104A04207D0C98885808383A0F836
:1022400040100284F0BC70474BF6FF748E892C401E
:1022500044EA8615ADB2EFE7F8B50B880D460446A3
:10226000002B58D0042B00F0B080082B028C63D0D8
:1022700022F480508F8801040B0C2E8969882384F6
:10228000A08B4FF4305220F440731805030D43EA3D
:102290000723208CC4F2010243EA0633944280B241
:1022A0009BB230D04FF45052C4F2010294422AD073
:1022B000B4F1804F27D04FF48062C4F20002944200
:1022C00021D04FF40062C4F2000294421BD04FF4BC
:1022D0004062C4F20002944215D047F6FF52024019
:1022E00041F480510A43A3832284A38BE88823F41A
:1022F000406211040B0CA383A28B91B241EA00202F
:1023000083B2A383F8BD20F4005040EA013291B2B9
:1023100041F48052E7E74988AA882B89FFF77EFDC0
:10232000238BE98823F00C021004030C2383228BF7
:1023300090B208432083F8BD22F4807637043A0C2B
:1023400089882F896E880284808B4FF4305220F068
:10235000F3031804030C43EA0713208CC4F20102B0
:102360009BB2944280B243EA010341D04FF45051F2
:10237000C4F201018C423BD0B4F1804F38D04FF40D
:102380008062C4F20002944232D04FF40061C4F281
:1023900000018C422CD04FF44062C4F200029442FF
:1023A00026D04FF2FF51014046F480763143A3839B
:1023B0002184A38BE88823F00C0211040B0CA38367
:1023C000A28B91B20143A183F8BD4988AA882B89C9
:1023D000FFF766FD208BEA8820F440631904080C9F
:1023E0002083238B99B241EA022290B22083F8BD68
:1023F00020F4007040EA062291B241F48071D6E7E1
:1024000000234FF6FF7181800380C38043800372F5
:10241000704700BF0023038043808380C380038113
:1024200043818381C381704700230122038043805D
:102430008280C38003817047038829B923F001019A
:102440000A04130C0380704799B241F00102028024
:10245000704700BFB0F8443021B959044A0CA0F8C5
:10246000442070476FEA43436FEA53418AB2A0F8B1
:102470004420704783899BB21AB923EA0101818104
:102480007047194381817047038B23F008021304BE
:102490001A0C114301837047038B23F40062130469
:1024A0001A0C42EA01218BB203837047838B23F01D
:1024B000080213041A0C114381837047838B23F4A1
:1024C000006213041A0C42EA01218BB28383704725
:1024D000808E80B2704700BF008F80B2704700BF0F
:1024E000808F80B2704700BFB0F8400080B2704764
:1024F000038A828911EA030092B203D011420CBF11
:1025000000200120704700BFC9438AB20282704791
:10251000038A70B5044623F44050CA880D4601046E
:102520000E0C16432682A389AA88288923F4B05664
:10253000698926F00C0310431A04160C084340EA7C
:1025400006018BB2A381A08AAA8920F440763104C7
:102550000B0C86B0134301A8A382FFF7C9FB4FF40D
:102560006056A089C4F20106B44202B20CBF049EB8
:10257000039E002A21DB2D6806EB860101EB810317
:10258000AE00B3FBF6F148F21F53C5F2EB13A3FB09
:102590000106A089720900B264251601002802FB19
:1025A000151113DB0A013232A3FB0203C3F34310FC
:1025B000304383B2238106B070BD286806EB8602E3
:1025C00002EB82054300B5FBF3F1DCE7C9003231D1
:1025D000A3FB0112C2F342103043EAE700234FF499
:1025E00016520C2102608380C38003814181838164
:1025F000704700BF838929B923F400510A04130CE2
:102600008381704799B241F400528281704700BFC4
:1026100001F01F0310B4C1F342110124A14204FAD6
:1026200003F30DD002290DD014302AB9026822EA32
:102630000301016010BC7047026813430360F9E7AF
:102640000C30F2E71030F0E7838A9BB21AB923EA24
:102650000101818270471943818270478088C105DA
:10266000C80D704770B51D4C064623783BB11C4D14
:1026700005F03AFB2A68B618B0420BD270BD05F0DF
:1026800033FB174D29683231884219D2207800284F
:10269000EED170BD4FF40063C4F2010300214FF48A
:1026A00080502170186105F01FFB0E4B0C4A197801
:1026B000106009B1481E18700B4B01221A7070BDD2
:1026C0004FF40061C4F2010101204FF480522070E8
:1026D0004A6105F009FB286070BD00BFB10500200C
:1026E000B8050020F00B0020B205002070B5274C83
:1026F00082B025788DF8062002AA8DF805108DF895
:1027000007308DF80400531913F8040C4438C1B293
:102710000A290DD93226022D14D83046FFF7A2FF20
:102720002278022A0ED81A4B1878012826D107E001
:10273000184E022D36F8116004D8002EEDD1144B3E
:1027400021780EE005F0D0FA134B821B1868824204
:1027500016D80F4B1878012800D07EB921780229AD
:1027600001D801312170002018704FF400620B4B2A
:10277000C4F201024FF480511870116102B070BDB3
:10278000074A002121701170E3E700BFB405002063
:10279000B2050020AC330108B8050020B1050020C7
:1027A000F00B00202DE9F041524F04467B7B524D47
:1027B000002B4BD0012028704FF4007002F042FC37
:1027C00000282FD14D4E102002F01AFC48B1BB7AE0
:1027D000002B3DD04A49CB7A002B3DD1494B0121FA
:1027E00019703278022A4DD0012A53D04548017819
:1027F000012957D02B78012B5CD0042C62D0022CFD
:1028000068D0012C6ED0404A1078002835D14FF4A2
:1028100000623E49C4F201024FF480530870136114
:10282000BDE8F0813A493B480B8890F8642019B222
:1028300002EB8206B14213DD314E767896B92F4E07
:1028400002213170002BBED13370BCE72B70B3E78F
:10285000284AD07A0028BDD12A4800220270C0E759
:10286000264EEFE790F86500244E121802EB820224
:10287000012091423070E5DDE2E73220BDE8F04111
:10288000FFF7F0BE4E214C200A464423BDE8F0413C
:10289000FFF72CBF4D2153204C220B46BDE8F041E1
:1028A000FFF724BF532001464E224D23BDE8F041DF
:1028B000FFF71CBF5320014602464D23BDE8F041FF
:1028C000FFF714BF4D2153200A464423BDE8F041D1
:1028D000FFF70CBF532001464D224423BDE8F041D1
:1028E000FFF704BF53204D214E224423BDE8F041A1
:1028F000FFF7FCBE14160020B0050020B50500202F
:10290000AC150020B3050020F00B0020B10500201D
:10291000CA0C0020E80E002070B5B0FBF2F40646A9
:102920001546084614B12046FFF7F6FF05FB146470
:10293000024B195D00F8011B70BD00BF083501088E
:102940002DE9F84F037802460130202BFAD0092BED
:10295000F8D02D2B114600F036812B2B04BF0246F8
:102960004B7800270026C3F6F077A3F130095FFA11
:1029700089F0092800F2418102F1010800240025B4
:1029800000230022C4F2240320462946FDF7A2FDBD
:10299000044648460D46FDF737FD02460B462046E5
:1029A0002946FDF7E5FB424618F8013B0D46A3F129
:1029B00030095FFA89F109290446E1D92E2B00F08C
:1029C000D1801378652B11D0452B0FD00023002226
:1029D000C3F6F07320462946FDF77CFD32463B46A0
:1029E000FDF778FDFDF788FFBDE8F88F53782D2BB4
:1029F00000F0F9802B2B00F0FB80501C4FF0000BF7
:102A0000A3F13002092A00F2FB804FF0000808EB26
:102A1000880803EB480110F8013FA1F13008A3F149
:102A20003002092AF3D9B8F59A7F40F2D3804FF4E7
:102A30009A7848F21F59A8F13208C5F2EB19A9FBA0
:102A4000083C73A3D3E9002300210020C3F6F071F2
:102A5000CCF30019FDF73EFDB8F1310F02460B46ED
:102A600018D9B9F1000F02D0A8F132080BE01046D6
:102A70001946A8F1640866A3D3E90023FDF72AFDEF
:102A800063A3D3E90023FDF725FDB8F1310F02461A
:102A90000B46ECD8B8F1070F2ED9104619465EA3A5
:102AA000D3E90023FDF716FDA8F1080AD146B9F1D4
:102AB000070F02460B46CAF3C00A1BD9BAF1000F32
:102AC00005D055A3D3E90023A9F108090BE010466E
:102AD0001946A9F1100950A3D3E90023FDF7FAFC28
:102AE0004DA3D3E90023FDF7F5FCB9F1070F02462A
:102AF0000B46ECD808F00708B8F1000F29D01946AA
:102B000000231046C4F224030022FDF7E3FC08F181
:102B1000FF38C14602460B4608F00108B9F1000F24
:102B200017D0B8F1000F09D1194600231046C4F29E
:102B300024030022FDF7CEFC09F1FF390023002217
:102B4000C4F22403FDF7C6FCB9F1010902460B46A5
:102B5000EAD1BBF1000F3FF43DAF20462946FDF717
:102B6000E3FD3BE7537802F1010EA3F13000C1B25F
:102B700009294AD84FF0000902F1020A4FF0000873
:102B8000C4F22409FDF740FC42464B46FDF7CCFD5C
:102B900002460B4620462946FDF7EAFA00230022AA
:102BA000C4F2240304460D4640464946FDF792FC14
:102BB00052461AF8013B8046A3F130008946C1B263
:102BC0000929DFD9FEE6002702464B780026CBF61E
:102BD000F077CAE6B8F1310F3FF62BAF00230022A1
:102BE000C3F6F07356E7901C93784FF0010B07E79C
:102BF0009378901C4FF0000B02E700240025DDE6DF
:102C000000230022C3F6F073A3E77246DAE600BFA2
:102C10009A647EC50E1B514A0000000084D797417C
:102C200043F23050C0F6010005F00ABB43F2605099
:102C300038B5C0F6010043F27854C0F6010405F03F
:102C4000FFFA43F2805143F284522046C0F601015C
:102C5000C0F601020BF04CFA43F2AC5143F2B4520D
:102C60002046C0F60101C0F601020BF041FA43F222
:102C7000C85143F2D4522046C0F60101C0F6010209
:102C80000BF036FA43F2F45143F2FC522046C0F600
:102C90000101C0F6010243F680150BF029FAC0F6D7
:102CA000010543F22C6120462A46C0F601010BF0D3
:102CB0001FFA43F2346143F23C622046C0F6010140
:102CC000C0F601020BF014FA43F2506120462A4686
:102CD000C0F601010BF00CFA43F2586143F25C625A
:102CE0002046C0F60101C0F601020BF001FA43F2E2
:102CF000786143F280622046C0F60101C0F601020D
:102D00000BF0F6F943F2946143F29C622046C0F660
:102D10000101C0F601020BF0EBF943F2AC6143F2A2
:102D2000B4622046C0F60101C0F601020BF0E0F9E2
:102D300043F2C46143F2C8622046C0F60101C0F606
:102D400001020BF0D5F943F2F86143F2EC62204640
:102D5000C0F60101C0F601020BF0CAF943F200719E
:102D60002046C0F601012A46BDE838400BF0C0B944
:102D70002DE9F04104F0B8FF44F6D353C1F26203E9
:102D8000A3FB00212D4C2E482378027889092D4879
:102D90000BF0AEF902F050F92B4A4DF68365166838
:102DA000C4F21B350746A5FB06032848990C0BF017
:102DB0009FF90022264E27491446012505E0611C93
:102DC000CCB256F82410224669B105FA02F0074247
:102DD000F5D021480BF08CF9611CCCB256F82410C8
:102DE00022460029F1D1012002F00AF978B91B48E6
:102DF00005F026FA1A490C8803F038FE02461948F5
:102E000021464FF44073BDE8F0410BF071B9164C08
:102E1000164B2178164853F821100BF069F92078E9
:102E20000228E4D1134A144892F8F140002C0CBF58
:102E30006E216F210BF05CF9D9E700BF5400002030
:102E4000FC1500200C370108100000204C37010849
:102E5000FC420108083701086C370108A438010852
:102E6000200C0020803701085C0D0020F43401089C
:102E700070370108880F00207C37010838B50C68CE
:102E80000546204610F0A6F8024628682146BDE80F
:102E9000384010F0CFB800BF43F2B47008B5C0F6A8
:102EA000010005F0CDF90121002001F0CFFE43F231
:102EB000C070C0F6010005F0C3F90A2004F052FF0B
:102EC0000020BDE8084005F041B800BF38B5054610
:102ED00043F2D070C0F6010005F0B2F940F2BC54E4
:102EE00040F2EC5140F6AD630022C2F20004C2F29F
:102EF0000001C2F20003284622700A601A70BDE881
:102F00003840FFF7C9BF00BF2DE9F04F8BB08046B6
:102F100010F060F808284CD09D4C9E4805F090F9C0
:102F2000A0789D4D0290607995F802A195F80381F3
:102F300094F800B094F8019005900AA8E2788044D3
:102F400095F804C182440AF80CBC08F80C9CDDF822
:102F5000088095F80811844495F805E195F8067104
:102F600095F8076195F80931039225790CF80C8CD6
:102F7000DDF80CC0864404950EF80CCCDDF810E0AA
:102F8000C71907F80CECE279A579059F4418861952
:102F9000C31806F80C7C814804F80C5C07A903F8F8
:102FA0000C2C00228DF824200BF0A2F80BB0BDE809
:102FB000F08F7B4A98F800101068C24643185D787D
:102FC00008F1060C05F00306022E08BF20390AF8A6
:102FD000011B116898F80170CDF810C0C81943782A
:102FE00008F1020603F00305022D08BF203F88F810
:102FF0000170116898F8027008F1040BC819437841
:1030000098F8031003F00305022D08BF203F88F84D
:103010000270106808F1030743185D7805F003009B
:10302000022808BF203988F80310136898F80410A4
:103030005D186878156800F00303022B14BF0C4676
:10304000A1F1200498F8051088F804406818457824
:1030500008F1050305F00300022814BF0C46A1F196
:1030600020040393116898F8063088F80540CC18BE
:103070006578126805F00300022898F8075008BF29
:10308000203B88F806305319597808F1070401F0FD
:1030900003000294022898F800903D4C08BF203DA0
:1030A00088F80750204649460FF0B8FE20B1504638
:1030B00049460FF0B3FE18B13A4805F0C1F875E77C
:1030C00098F801202046114601920FF0A7FE019BBF
:1030D0000028F1D0304619460FF0A0FE0028EBD1B1
:1030E00098F80260204631460FF098FE0028E3D0A1
:1030F000384631460FF092FE0028DDD198F8036083
:10310000204631460FF08AFE0028D5D05846314679
:103110000FF084FE0028CFD198F804602046314695
:103120000FF07CFE0028C7D0039831460FF076FEE2
:103130000028C1D198F80560204631460FF06EFE98
:103140000028B9D0049831460FF068FE0028B3D1AA
:1031500098F80660204631460FF060FE0028ABD09C
:10316000029831460FF05AFE0028A5D1EDB2204654
:1031700029460FF053FE00289ED008F1080029468A
:103180000FF04CFE002897D1404601F00DFAC4E63E
:10319000484B010808380108880F0020483A010808
:1031A00064010020E83701082DE9F84307460FF0D5
:1031B00011FF044601F062FF0646DCB9334805F012
:1031C0003FF8334D3349012703E055F8041F01341C
:1031D00059B107FA04F03042F7D02F480AF088FFBF
:1031E00055F8041F01340029F3D12C48BDE8F843F9
:1031F00005F026B838462A4922460FF01BFF002862
:1032000027D03B782D2B36D04FF00009DFF8808097
:1032100020494646002504E056F8041F01350029E0
:1032200024D0384622460FF005FF0028F4D10120B3
:1032300000FA05F0B9F1000F22D001F015FF19488E
:1032400004F0FEFF184858F82510BDE8F8430AF0CE
:103250004FBF164804F0F4FF0D4C0E490E480AF01B
:1032600047FF54F8041F0029F8D1BEE71048BDE815
:10327000F84304F0E5BF0137013C4FF00109C5E711
:1032800001F0EAFE0B4804F0DBFFDBE7243801081D
:10329000C4330108203801086C370108A43801083C
:1032A0003838010874380108483A010840380108E4
:1032B000583801088038010843F68C0008B5C0F67C
:1032C000010004F0BDFF012001F048FD43F6A80015
:1032D000C0F6010004F0B4FF0A2004F043FD002012
:1032E000BDE8084004F032BE2DE9F04180460FF001
:1032F00071FE074600281FD0404620493A460FF08D
:1033000099FE002828D01E4E1E4C002504E056F8D9
:10331000044F0135002C1AD0214640463A460FF0A2
:1033200089FE0028F3D1184B1848013521465D71FC
:10333000BDE8F0410AF0DCBE1348114B4279144855
:10334000511E53F82110BDE8F0410AF0D1BE1148DA
:10335000BDE8F04104F074BF0F4804F071FF084C61
:1033600008490E480AF0C4FE54F8041F0029F8D199
:103370000B48BDE8F04104F063BF00BF38380108D6
:1033800000340108B8380108880F0020FC38010813
:10339000BC380108E4380108D03801086C3701084E
:1033A000A438010838B504460FF014FE0E4D01464E
:1033B0000CE00FF055FA0228034613D8002001460E
:1033C0000A4C85F8FC3201F041FC002111F0FF0F9E
:1033D0002046EED1044A064892F8FC12BDE8384077
:1033E0000AF086BE38BD00BF880F00208039010872
:1033F0001039010870B505460FF0ECFDC0B290B968
:10340000144B04469D1C5A882146661C12480AF03B
:103410006FFE0234104831466A880AF069FEAB1C20
:10342000142CEFD170BD28460FF01AFA1328044669
:1034300005DD0A481421BDE870400AF059BE20217C
:1034400028460FF0EBFC0FF00BFA054B1C3423F869
:10345000140070BD1E0F00202839010834390108FE
:10346000E80E0020931E222B88BF0A22031E10B5EF
:103470000C4605DBFFF750FA00210170204610BD15
:103480002D2001F8010B5842FFF746FA0022027086
:10349000204610BD70B5002386B00C4600210546BD
:1034A000039304930593FDF741FD002842D041F2B8
:1034B0006F212846C3F60321FDF774FA0021C4F2F8
:1034C0007A41FDF777FBFDF73BFD064686EAE6709D
:1034D000A0EBE6700A226946FFF7C4FF002E31DB3D
:1034E00020218DF80C1068460FF074FD012803AD03
:1034F00032D002283CD003286946284626D00FF057
:1035000067FC28460FF066FD0338C6B232462946EE
:1035100020460FF0FDFD0021A15520460FF05AFD79
:103520002E22431C2254A919E0180FF0F5FC204666
:1035300006B070BD41F26F212846C3F60321FDF7A6
:103540002FFABBE72D208DF80C00CCE730228DF848
:103550000D200FF03DFCD4E73026284669468DF853
:103560000D608DF80E608DF80F600FF031FCC8E72C
:103570003023284669468DF80D308DF80E300FF057
:1035800027FCBEE730B5037983B004460D46052B12
:1035900011D8DFE803F01C1F23262A038068694640
:1035A0000068FFF777FF01461C480AF0A1FD002DD7
:1035B0001ED103B030BD002119480AF099FD002D3D
:1035C000F7D01848E16822690AF092FDF1E78168B6
:1035D0000978F1E7806890F90010EDE783681988B1
:1035E000EAE78268B2F90010E6E781680968E3E774
:1035F000E068FDF78BFA6946FFF74CFF01460A4881
:103600000AF076FD2069FDF781FA6946FFF742FF6F
:10361000014605480AF06CFDCBE700BF5C390108A4
:103620006839010864390108603901082DE9F84F4B
:1036300007460FF0CFFC8046002878D0012873D0D1
:1036400038463D210FF0EAFB00286BD0441C204691
:103650000FF006F982462046FFF772F90026DFF8E0
:103660006C818146354620E058F8014001352046FE
:103670000FF0B0FC2146024638460FF0DBFCAB46AB
:1036800006F128023C36F0B158F8024001352046D8
:103690000FF0A0FC2146024638460FF0CBFC90B15B
:1036A0000BF10205692D00F0838058F80640204692
:1036B0000FF090FC2146024638460FF0BBFC06F1A5
:1036C00014010028D0D1414805EB850500EB8505A4
:1036D000E868FDF71BFA01464846FDF71DFC002887
:1036E00061D02869FDF712FA01464846FDF70AFC49
:1036F000002858D02B79052B0CBF4A465246052B83
:1037000006D8DFE803F003035D5D605AA9680A701C
:1037100021462F480AF0ECFC28460021BDE8F84F6E
:10372000FFF730BFBDE8F88F3B782A2B88D12948B6
:1037300004F086FD0026254D3446A95904EB840784
:1037400025480AF0D5FC414605EB8700FFF71AFF34
:10375000224804F075FD06F11402A958671C1E48A2
:103760000AF0C6FC07EB8700414605EB8000FFF737
:1037700009FF1A4804F064FD06F12803E9581648C9
:1037800001370AF0B5FC07EB870105EB81004146E4
:10379000FFF7F8FE0334114804F052FD3C36692C63
:1037A000CBD1BDE8F88F0E48BDE8F84F04F048BD16
:1037B0000C48BDE8F84F04F043BDA9680A60A7E7CC
:1037C000AB681A80A4E7A8680260A1E71443010867
:1037D000843901086C390108603A0108A4380108ED
:1037E00090390108B83901082DE9F04F92488BB0A3
:1037F000924F0AF07DFC9248FFF7FCFD7A79914BDD
:10380000511E914853F821100AF072FC3E690021C4
:103810003046FDF763FB002800F0A48006AD01F000
:103820002DFCDFF85C8289498346464688480AF0C9
:103830005FFC56F8041F0029F8D184480E464FF06B
:103840000104014603E058F8041F013661B104FA8F
:1038500006F212EA0B0FF6D07E480AF049FC58F83F
:10386000041F01360029F2D17B480C46827801788A
:1038700097F802B197F803A197F8049197F805819A
:1038800097F806C197F807E197F8086197F80931AA
:10389000477800910197C1780779029242790391A4
:1038A000049705928779C27929460AA8009D834426
:1038B0000BF8105C019D82440AF8105C029D814463
:1038C00009F8105C039D804408F8105C049D844452
:1038D0000CF8105C059D86448619C3185F480EF8E5
:1038E000105C06F8107C03F8102C8DF820400AF0CC
:1038F000FFFB5B4E2546315905EB850759480AF019
:10390000F7FB002106EB8700FFF73CFE564804F06A
:1039100097FC04F114016F1C524871580AF0E8FB3F
:1039200007EB870206EB82000021FFF72BFE4E48D3
:1039300004F086FC04F12803F1584A4801370AF0E4
:10394000D7FB07EB8700002106EB8000FFF71AFE8C
:103950000335454804F074FC3C34692DCBD10BB0E1
:10396000BDE8F08F3C464FF0000806AD39E029462F
:103970003046FFF78FFD01463C480AF0B9FB584638
:103980000021FDF7B5FA00284AD129465846FFF72D
:1039900081FD014635480AF0ABFB50460021FDF79A
:1039A000A7FA002838D129465046FFF773FD014693
:1039B0002E480AF09DFB48460021FDF799FA38BBD6
:1039C00029464846FFF766FD014629480AF090FB64
:1039D0000021B8F10C0F27D026693046FDF77EFA9A
:1039E00038BB08F1010841462248D4F814B0D4F895
:1039F00018A0D4F81C900AF07BFB3046002110344C
:103A0000FDF776FA0028B2D01B480AF071FBAEE74A
:103A100019480AF06DFBD3E717480AF069FBC2E7C3
:103A200015480AF065FBB0E70D2114480AF060FB69
:103A3000F5E608F10101F8E7D8390108880F002000
:103A40008039010800340108083A010820380108CB
:103A5000303A0108403A0108484B0108503A010841
:103A6000144301085C3A0108A43801085C390108D4
:103A7000483A0108143A0108683701081C3A01085D
:103A8000C43301082DE9F04788B004460FF0A2FACC
:103A9000C5B2002D40F0BD82B34CB44804F0D0FB59
:103AA00020690021FDF71AFA002840F00F83B04882
:103AB00001210AF01DFB04A92069FFF7EBFC014678
:103AC000AC480AF015FB04A96069FFF7E3FC014666
:103AD000A8480AF00DFB04A9A069FFF7DBFC01462A
:103AE000A4480AF005FB04A9E069FFF7D3FC0146EE
:103AF000A1480AF0FDFA206A0021FDF7EFF900283D
:103B000040F038839A4802210AF0F2FA04A9206AA8
:103B1000FFF7C0FC014697480AF0EAFA04A9606A78
:103B2000FFF7B8FC014693480AF0E2FA04A9A06A3C
:103B3000FFF7B0FC01468F480AF0DAFA04A9E06A00
:103B4000FFF7A8FC01468C480AF0D2FA206B00214E
:103B5000FDF7C4F9002840F00F83854803210AF0DF
:103B6000C7FA04A9206BFFF795FC014681480AF0CB
:103B7000BFFA04A9606BFFF78DFC01467D480AF08F
:103B8000B7FA04A9A06BFFF785FC014679480AF053
:103B9000AFFA04A9E06BFFF77DFC014676480AF016
:103BA000A7FA206C0021FDF799F9002840F0E68281
:103BB0006F4804210AF09CFA04A9206CFFF76AFC04
:103BC00001466C480AF094FA04A9606CFFF762FCA5
:103BD000014668480AF08CFA04A9A06CFFF75AFC69
:103BE000014664480AF084FA04A9E06CFFF752FC2D
:103BF000014661480AF07CFA206D0021FDF76EF95C
:103C0000002840F0BD825A4805210AF071FA04A943
:103C1000206DFFF73FFC014656480AF069FA04A9F7
:103C2000606DFFF737FC014652480AF061FA04A9BB
:103C3000A06DFFF72FFC01464E480AF059FA04A97F
:103C4000E06DFFF727FC01464B480AF051FA206E61
:103C50000021FDF743F9002840F0948244480621F2
:103C60000AF046FA04A9206EFFF714FC0146414809
:103C70000AF03EFA04A9606EFFF70CFC01463D48CD
:103C80000AF036FA04A9A06EFFF704FC0146394891
:103C90000AF02EFA04A9E06EFFF7FCFB0146364855
:103CA0000AF026FA206F0021FDF718F9002840F0ED
:103CB0006B822F4807210AF01BFA04A9206FFFF737
:103CC000E9FB01462B480AF013FA04A9606FFFF7DD
:103CD000E1FB014627480AF00BFA04A9A06FFFF7A1
:103CE000D9FB014623480AF003FA04A9E06FFFF765
:103CF000D1FB014620480AF0FBF9D4F880000021EE
:103D0000FDF7ECF8002840F04182194808210AF03C
:103D1000EFF904A9D4F88000FFF7BCFB0146154871
:103D20000AF0E6F904A9D4F88400FFF7B3FB0146D2
:103D300010480AF0DDF904A9D4F88800FFF7AAFBBF
:103D400001460C480AF0D4F904A9D4F88C00FFF716
:103D5000A1FB014608480AF0CBF9D4F890000021F5
:103D6000FDF7BCF80AE000BF880F0020703A010898
:103D70009C3A0108A43A0108483A0108002840F09A
:103D80000782B24809210AF0B3F904A9D4F89000D7
:103D9000FFF780FB0146AE480AF0AAF904A9D4F85F
:103DA0009400FFF777FB0146A9480AF0A1F904A99E
:103DB000D4F89800FFF76EFB0146A5480AF098F981
:103DC00004A9D4F89C00FFF765FB0146A1480AF05E
:103DD0008FF9D4F8A0000021FDF780F8002840F00A
:103DE000D9819A480A210AF083F904A9D4F8A000DD
:103DF000FFF750FB014696480AF07AF904A9D4F877
:103E0000A400FFF747FB014691480AF071F904A9A5
:103E1000D4F8A800FFF73EFB01468D480AF068F988
:103E200004A9D4F8AC00FFF735FB014689480AF035
:103E30005FF9D4F8B0000021FDF750F8002840F0F9
:103E4000448182480B210AF053F904A9D4F8B00048
:103E5000FFF720FB01467E480AF04AF904A9D4F88E
:103E6000B400FFF717FB014679480AF041F904A9AD
:103E7000D4F8B800FFF70EFB014675480AF038F990
:103E800004A9D4F8BC00FFF705FB014671480AF00D
:103E90002FF9D4F8C0000021FDF720F8002840F0E9
:103EA0007B816A480C210AF023F904A9D4F8C000E8
:103EB000FFF7F0FA014666480AF01AF904A9D4F8A7
:103EC000C400FFF7E7FA014661480AF011F904A9B6
:103ED000D4F8C800FFF7DEFA01465D480AF008F999
:103EE00004A9D4F8CC00FFF7D5FA014659480AF0E6
:103EF000FFF80C25584E00207169FCF753FD04EBC8
:103F00000514A71B103FB169C7F3001A074600202C
:103F1000FCF748FDF16980460020FCF743FD06F1FF
:103F20001005A542814639D0BAF1000F12D0696957
:103F30003846FCF737FDA96907464046FCF732FDD5
:103F4000E96980464846FCF72DFD06F12005A542AB
:103F5000814623D069693846FCF724FDA9690746E4
:103F60004046FCF71FFDE96980464846FCF71AFD0C
:103F700005F11006716905463846FCF713FDB16975
:103F800007464046FCF70EFDF16980462846FCF7DF
:103F900009FD06F11005A5428146DBD12F48CDF879
:103FA0000880CDF80C9004F04BF94DF20A7127F01F
:103FB0000040C3F62341FCF7B9FF294B294A0028EA
:103FC00014BF1046184604F03BF902984DF20A71EE
:103FD000C3F6234120F00040FCF7A8FF214D204C00
:103FE000002814BF2846204604F02AF9039B4DF20E
:103FF0000A71C3F6234123F00040FCF797FF002825
:1040000014BF2846204604F01BF9174804F018F99D
:1040100019E02046154905220FF00CF8002827D199
:104020000D480023036103620363036403650366B1
:104030000367C0F88030C0F89030C0F8A030C0F8F6
:10404000B030C0F8C03008B0BDE8F0879C3A010835
:10405000A43A0108483A0108880F0020A83A01084C
:10406000683A01086C3A0108A4380108B83A010816
:104070002046504904220EF0DDFF05462046002D63
:1040800033D120210EF0CAFE0028DCD0471C384670
:104090000EF0A0FF484E5FFA80F8484C03E056F857
:1040A000044F0135ECB12146384642460EF0C2FFBE
:1040B0000028F4D1284606F0D1FF414821460AF0F5
:1040C00017F84048FFF7DEFCBDE70A250021039101
:1040D0000291002D7FF40EAF3B4804F0B1F83B484D
:1040E00071E73B4804F0ACF8ADE70EF0B9FB451EB4
:1040F0000B2D064652DC204620210EF08FFE044692
:10410000002850D0441C2046FEF71AFC314B3601E3
:1041100098510126204620210EF080FE044640B131
:10412000441C2046FEF70CFC2A49013601EB05121F
:104130005061204620210EF071FE044640B1441C1F
:104140002046FEF7FDFB234B013603EB051188618A
:10415000204620210EF062FE40B10130FEF7F0FB58
:104160001C4A032E02EB0515E8611ED01A4804F024
:1041700067F868E70125A9E70225A7E70325A5E772
:104180000425A3E70525A1E706259FE707259DE769
:1041900008259BE7092599E70B2597E70F480C2190
:1041A00009F0A6FF4FE70646B4E70648FFF76AFCAA
:1041B00049E700BFC03A010800340108B8380108D7
:1041C000C83A010880390108A83A0108683A01088C
:1041D000E4380108880F0020DC3A0108183B010888
:1041E0002DE9F04FDFF8909287B099F80030002B5E
:1041F00000F08381DFF8848203F0C4FF002852D0EE
:1042000003F0E0FF1B28044600F0AD809B2800F07F
:10421000B28009284AD03F2848D08D4E356815B95C
:10422000042C00F07481152C00F0C0800B2CE3D01E
:104230000A2CE1D0082C00F0C1800C2C00F0C780C3
:10424000FF2C00F0D180834F397811B10D2C00F094
:1042500017817F2C00F0E2807E480EF0BBFE431CED
:104260002F2BC9D81F2CC7D97E2CC5D80DB9202C0F
:10427000C2D007EB050A50460EF0ACFE6B1C00F1F5
:10428000010B51465A46F8180EF034FC72485A4653
:1042900051467C5509F02CFF3068421C326003F017
:1042A00071FF0028ACD107B0BDE8F08F684D6B4CB2
:1042B0002E6800273246B24604F1A80B3E46002A7B
:1042C00045D12746002E4CD00C345C45F7D33346FD
:1042D00056469A46B3B118683968835C8C5C80187E
:1042E0009C4211440ED1DFF86CE10BB92D2A52D952
:1042F0000EF8023010F8013F11F8014F0132A342CD
:10430000F3D02A600AB1BA454ED0554803F098FF61
:10431000BA4598BF544608D854F80C0B03F090FFE8
:10432000092003F075FFBC42F6D94E48002603F081
:1043300087FF2A683446B2427FF65EAF454E305D55
:1043400003F066FF2A6801349442F8D354E72168E9
:1043500040480EF06FFE2A680028B5D12746002E8F
:10436000B2D12646B0E703F03DFF5B2803D0384EBC
:104370000024356867E703F035FF412832D0422832
:1043800048D0432848D0442800F0B580332800F0B6
:10439000C280002441E720200EF802000132BA4515
:1043A0002A600EF80230B0D13446C4E72E4803F03C
:1043B00047FF28480023336003701DE7002D3FF4BA
:1043C0001BAF013D2948356003F03AFF14E721494E
:1043D0004A5D002A3FF410AF01352548356003F0EF
:1043E0002FFF09E70B2418E71A4E735D002B3FF4EB
:1043F00003AF741920460EF0EDFD0746681C311816
:104400007A1C20460EF076FB134821463A4609F006
:104410006FFEF1E60A2400E70C24FEE6002D3FF4CF
:10442000EBAE00293FF4E8AE07EB050A50460EF06C
:10443000D1FD013D441C7F19514622463846356066
:104440000EF058FB0B483946224609F051FED3E6E0
:10445000EC050020BC0500209C3B01084C34010801
:10446000803B0108783B0108883B0108943B010828
:10447000983B0108CC3B0108AD0E0020C005002090
:104480002A4D2B4803F0DCFE0024009503A829499F
:104490000E220C23039704940EF0E6F9054600283B
:1044A00040D000680EF096FD411CAB687818984724
:1044B00021480021024699F8004042F8041B396067
:1044C00002F10805C8F8001040F8141C40F8101C50
:1044D00040F80C1C40F8081C40F8041C071F416001
:1044E00051609160D1603160002C3FF4DCAE134824
:1044F00003F0A6FE80E608248FE60121104889F823
:10450000001003F09DFE0D4803F09AFE72E60D4880
:10451000FEF7DCFCC7E603F065FE7E280CBFFF2437
:1045200000247AE6084803F08BFEC1E77D2E0008E0
:10453000A43801084C340108D8050020783B010854
:10454000403B0108BC050020A83B010810B44FF413
:104550007C43C0F601031978302902D0002010BC3A
:1045600070475A88B2F5407FF8D11879BE28F5D146
:1045700093F8FD32EF2BF1D14FF60143C0F6010362
:104580004FF6FF641878C0F6010404E058785A1C0E
:10459000414050780233A34281EA0001F6D1D1F1C3
:1045A000010038BF0020DAE7F8B50178054679B197
:1045B000084F094E044607480EF030FCC31B621B2F
:1045C000F11808B181F8022114F8011F0029F2D175
:1045D000F8BD00BF484B0108880F00202DE9F04FBF
:1045E00087B0FFF7B3FF002800F0DE82EE4D4FF4F6
:1045F0007C412846C0F601014FF440720EF0CCF920
:1046000095F8FC32022B02D9002385F8FC32DFF842
:10461000A4B303EB830005EB4011A02201F58E71DA
:1046200058460EF0B9F99BF820206FF01409C2EB40
:104630000278C2EB427C4FEA08169BF81F3009FB58
:1046400002F4C2EBCC07A2EB820A06F6C4124FEAD0
:10465000CA0002EB420800F6C41A03FB08F80AFB82
:1046600003FA43F2D40648F6AD3204F6C411C6F696
:10467000DB0207F6C41406FB03F74FEA41094FEAD1
:10468000840C82FB081482FB0A0603FB0CFC03FB70
:1046900009F982FB071702944FEAEA7A82FB0C14AD
:1046A0009BF82130CAEBA62A029E82FB09104FEA32
:1046B000E878C8EBA6280497B5F8D0205F42B5F893
:1046C000D250BFB2CDF80880DDF810800394059574
:1046D0000197C3F164054FEAE979B44CC9EBA0290D
:1046E0004FEA98270398DDF8048000954FEAEC7CA8
:1046F000009DCCEBA02CA4F802A00FFA88F0A4F83F
:1047000004909BF8221003EB8306DDF808A0DDF887
:1047100014904FF00008EDB276000028A4F8008055
:104720006781A4F806A0A4F808C0C1F16407C2EB31
:10473000090405FB05F503FB03F840F37C82AA4658
:1047400000FB00FC01FB0CF999FBFAFE0EEB070ADB
:104750000AFB00F046F2676CC6F2666C8CFB009EAA
:10476000C017C0EBAE0906EB090A0FFA8AFC04FB7E
:104770000CFE44F6D350C1F2620080FB0E0AC3F176
:104780000A094FEAEE7C1FFA89F9CCEBAA1E884889
:104790000FFA89FC02EB0E0ABCF1000FA0F800A092
:1047A00040F34282AE460CFB0CF901FB09FA9AFB7E
:1047B000FEFE0EEB070909FB0CFC46F2676AC6F227
:1047C000666A8AFB0CAE4FEAEC79C9EBAE0C06EBDD
:1047D0000C0A0FFA8AFE04FB0EFC44F6D359C1F210
:1047E000620989FB0C9A4FEAEC7EC3F1140C1FFAA4
:1047F0008CF9CEEBAA1A0FFA89FC02EB0A0EBCF177
:10480000000FA0F802E040F30882A9460CFB0CFA66
:1048100001FB0AFE9EFBF9F909EB070A0AFB0CFCF7
:1048200046F2676EC6F2666E8EFB0CA94FEAEC7A12
:10483000CAEBA90C06EB0C0E0FFA8EF904FB09FC6F
:1048400044F6D35AC1F2620A8AFB0C9E4FEAEC7C12
:10485000C3F11E09CCEBAE1A1FFA89FE0FFA8EFCCB
:1048600002EB0A09BCF1000FA0F8049040F3CE81DE
:10487000AE460CFB0CFA01FB0AF999FBFEFE0EEBAF
:10488000070A0AFB0CFC46F26769C6F2666989FBF7
:104890000CAE4FEAEC7ACAEBAE0C06EB0C090FFA41
:1048A00089FE04FB0EFC44F6D35AC1F2620A8AFB6D
:1048B0000C9E4FEAEC7CC3F12809CCEBAE1A1FFA30
:1048C00089FE0FFA8EFC02EB0A09BCF1000FA0F87A
:1048D000069040F39481AE460CFB0CFA01FB0AF9FA
:1048E00099FBFEFE0EEB070A0AFB0CFC46F2676919
:1048F000C6F2666989FB0CAE4FEAEC7ACAEBAE0CE5
:1049000006EB0C090FFA89FE04FB0EFC44F6D35AA1
:10491000C1F2620A8AFB0C9E4FEAEC7CC3F13209B9
:10492000CCEBAE1A1FFA89FE0FFA8EFC02EB0A09D5
:10493000BCF1000FA0F8089040F35A81AE460CFB82
:104940000CFA01FB0AF999FBFEFE0EEB070A0AFBC3
:104950000CFC46F26769C6F2666989FB0CAE4FEA49
:10496000EC7ACAEBAE0C06EB0C090FFA89FE04FBDD
:104970000EFC44F6D35AC1F2620A8AFB0C9E4FEA3F
:10498000EC7CC3F13C09CCEBAE1A1FFA89FE0FFA9E
:104990008EFC02EB0A09BCF1000FA0F80A9040F36C
:1049A0002081AE4608E000BF880F00207816002066
:1049B000C4150020E80E00200CFB0CFA01FB0AF9DC
:1049C00099FBFEFE0EEB070A0AFB0CFC46F2676938
:1049D000C6F2666989FB0CAE4FEAEC7ACAEBAE0C04
:1049E00006EB0C090FFA89FE04FB0EFC44F6D35AC1
:1049F000C1F2620A8AFB0C9E4FEAEC7CC3F14609C5
:104A0000CCEBAE1A1FFA89FE0FFA8EFC02EB0A09F4
:104A1000BCF1000FA0F80C9040F3DC80AE460CFB1C
:104A20000CFA01FB0AF999FBFEFE0EEB070A0AFBE2
:104A30000CFC46F26769C6F2666989FB0CAE4FEA68
:104A4000EC7ACAEBAE0C06EB0C090FFA89FE04FBFC
:104A50000EFC44F6D35AC1F2620A8AFB0C9E4FEA5E
:104A6000EC7CC3F15009CCEBAE1A1FFA89FE0FFAA9
:104A70008EFC02EB0A09BCF1000FA0F80E9040F387
:104A8000A280AE460CFB0CFA01FB0AF999FBFEFE74
:104A90000EEB070A0AFB0CFC46F26769C6F2666970
:104AA00089FB0CAE4FEAEC7ACAEBAE0C06EB0C09B4
:104AB0000FFA89FE04FB0EFC44F6D35AC1F2620AD7
:104AC0008AFB0CA9C3F15A034FEAEC7E9BB2CEEBF2
:104AD000A91C0FFA83FE02EB0C0ABEF1000FA0F82E
:104AE00010A06BDD2B460EFB0EF901FB09FC9CFBB5
:104AF000F3F3DB1903FB0EFA46F26763C6F2666353
:104B000083FB0A934FEAEA7ECEEBA303F3181BB2B2
:104B100004FB03F344F6D359C1F2620989FB03ACE9
:104B2000DB17C3EBAC1A009B02EB0A0E1FFA83F9EA
:104B30000FFA89F3002BA0F812E039DD03FB03F82C
:104B400001FB08F191FBF5F5EF1907FB03F346F2C2
:104B50006761C6F2666181FB0351DB17C3EBA101FC
:104B6000761836B204FB06F444F6D353C1F262035E
:104B700083FB0481E417C4EBA114BBF86E30BBF8CF
:104B80006C1012199942828205D32F48B0F8703008
:104B90008B4228BF0B469BF80000ABF86C3007B087
:104BA000BDE8F04F08F082BA0A2003F0A9F91DE52C
:104BB000B9F1000F14BF45460125BFE7002B14BF14
:104BC000434601238FE7BEF1000F14BFC6464FF0E6
:104BD000010E57E7BEF1000F14BFC6464FF0010E9D
:104BE0001DE7BEF1000F14BFC6464FF0010EE3E60D
:104BF000BEF1000F14BFC6464FF0010E9FE6BEF196
:104C0000000F14BFC6464FF0010E65E6BEF1000F5F
:104C100014BFC6464FF0010E2BE6B9F1000F14BFCA
:104C2000C1464FF00109F1E5B9F1000F14BFC646C6
:104C30004FF0010EB7E5DDF804E0BEF1000F14BF40
:104C4000C2464FF0010A7BE5E80E00202DE9F8434B
:104C50003F4D302306464FF440702B706880BE22D3
:104C6000EF2300202A7185F8FD3285F8FE0259B144
:104C700095F8FC22374902EB820305EB431000F55F
:104C80008E70A0220DF088FE33483021A0F2FE2362
:104C90001A7804E05C785A1C5278614002338342EF
:104CA00081EA0201F6D14FF47F4885F8FE124FF0F9
:104CB0000309C0F60108FCF7E1FC3420FCF7F8FC1E
:104CC0004FF47C40C0F60100FCF762FD04282DD1B2
:104CD0004FF47C44C0F6010406E00968FCF724FDAB
:104CE000042814D1444521D0621902F17843A3F578
:104CF000FE3120460968FCF717FD271DEA1902F16D
:104D0000784308340428A3F5FE313846E5D0FCF793
:104D1000C5FCB9F10109CED1FCF7C0FC0A2003F0B3
:104D2000EFF8FFF75BFC5EB9BDE8F883FCF7B6FC73
:104D3000FFF70CFC0028F1D0FFF750FC002EF3D059
:104D40000F2014210122BDE8F84307F0D5BB00BFB6
:104D5000880F0020E80E0020871200202DE9F04F78
:104D600085B00446FFF7F2FB10B1002C00F03D8146
:104D70009F4EA04D306871689F4C01AB03C34FF448
:104D800040720021284696F808900DF08BFFA02273
:104D9000002120460DF086FF01AA03CAC5F8DE10E7
:104DA00030212970032169710221A9604FF4167125
:104DB000A5F8E610FA21A5F8E8102A21A5F8E410D4
:104DC000202185F8F0106E2185F8FE102B2185F842
:104DD000FF10212185F8001140F24C41A5F80E1179
:104DE00001F54871A5F8101140F27E41A5F8D010E8
:104DF00001F52F71A5F8D2104FF47A71A5F8D410EF
:104E00004FF4C871A5F8D61040F6AC51A98141F213
:104E1000034A1E2140F2DC574FF0280832234FF49A
:104E2000E13C4FF0170EE1722173C0F2140A5521D4
:104E3000C5F814C1C5F818C184F815E084F816E067
:104E4000C5F8DA0085F8E290C5F8ECA0A5F8D830EE
:104E5000A5F80C7184F8018084F80280E17040218B
:104E600021711921A17318212D2621760B2166733A
:104E70006171A67614210E265A22A171E6710821CD
:104E800050262174E676142122726426E2774122AC
:104E9000617426770A2184F8202049F69A1642F692
:104EA000F602A17484F82130042184F82D30C3F671
:104EB0007C7215235148C3F619764FF4966B84F82B
:104EC0002C1084F82E302663626384F80980FFF783
:104ED0006BFB4FF47F7C4FF4FA6EA4F866B040F29F
:104EE000D93B01264FF000094FF0C80AA4F868B07A
:104EF000A4F86EC0A4F870E0A4F872C0A4F876E03C
:104F0000A4F878C0A4F87CE0A4F886C0A4F888E0EF
:104F1000A4F88CC0A4F88EE04FF00A0C4FF01E0EDF
:104F2000A4F86C70A4F87470A4F87A70A4F88A706D
:104F3000A4F890704FF0FF0B142784F864C084F835
:104F400082C084F883C084F8636084F86A6084F85F
:104F50007E6084F8806084F8816084F8846084F8DE
:104F600065A084F87FB0A4F892A084F8609084F8DB
:104F7000619084F8628084F8947084F895E084F8F5
:104F80009660642600232146A022A4F8986005F5C7
:104F90008E704FF496762B612B622B632B642B65FE
:104FA0002B662B67C5F88030C5F89030C5F8A03067
:104FB000C5F8B030C5F8C030A4F89A60A4F89C8059
:104FC0000DF0EAFC2146A02205F5DE700DF0E4FCB0
:104FD000214605F51770A0220DF0DEFC4846494633
:104FE00005B0BDE8F04FFFF731BE05B0BDE8F08F6A
:104FF00088330108880F0020E80E0020544B010878
:1050000040F2F053C2F20003196808420CBF0020BE
:105010000120704740F2F053C2F200031A681043B7
:105020001860704740F2F053C2F200031A6822EA97
:1050300000001860704700BF40F2F053C2F2000356
:105040001868704740F68873C2F2000399680842F6
:105050000CBF00200120704740F68873C2F20003A5
:105060009A6810439860704740F68873C2F2000354
:105070009A6822EA00009860704700BF40F6887383
:10508000C2F20003986870472DE9F0410778804626
:10509000082090B00037C4F2020018BF0127FCF7C7
:1050A000A7F942F24C434F48C4F201030022FCB27C
:1050B000059306900792002C00F08E80022508953B
:1050C000099280264FF48073082000254FF48062F7
:1050D000C4F2020005A90A960B9320264FF4005350
:1050E0000C920D960E930F95FCF72EFA0820C4F241
:1050F00002000121FCF74AFA01264FF460200095D6
:105100008DF804708DF8056002900395002C50D046
:105110004FF4105002246946C4F201008DF810408B
:10512000FCF7C2F84FF410503246C4F201000421DB
:105130000323FCF711F94FF41050C4F2010098F862
:10514000001022460323FCF707F94FF41050C4F275
:1051500001000121FCF7D8F84FF41050C4F201000F
:105160000121FCF7C7F84FF41050C4F20100FCF71E
:10517000D5F84FF41050C4F20100FCF7D5F8002820
:10518000F7D14FF41050C4F20100FCF7D1F84FF4FE
:105190001050C4F20100FCF7D1F80028F7D14FF409
:1051A0001050C4F201000121FCF7CCF810B0BDE8AA
:1051B000F0814FF410506946C4F201008DF8106080
:1051C000FCF772F84FF41050C4F20100042132468B
:1051D0000323FCF7C1F8B8E701210891099426469A
:1051E00070E700BFF405002040F2F453C2F2000360
:1051F00033F8100080B27047704700BF2DE9F04FC0
:10520000534B87B01A78029032215320002A7FD066
:10521000082204AB01F0C6FA9DF810109DF8134067
:105220009DF812209DF815509DF811609DF814000E
:105230009DF8173001EB062602EB042100EB052256
:10524000012415B25A060FFA86FB0FFA81FA50D0E4
:105250003221082204AB532001F0A4FA671C9DF808
:105260001560FCB29DF813C09DF81270019607EB13
:105270000C279DF81190DDF804C09DF810809DF872
:105280001460601C06EB0C2608EB09289DF817C07B
:1052900036B203903221532008220FFA88F83FB229
:1052A000202C354404ABC344BA440CF07F0620D014
:1052B000FEB1039C01F076FA9DF814309DF815209C
:1052C0009DF812109DF811709DF810009DF8136064
:1052D00003EB02229DF8173001EB062600EB0720B6
:1052E00031B200B216B25B06E4B283448A4435445C
:1052F000AED1029E17489BFBF4F29AFBF4F395FBA8
:10530000F4F532807380B580047007B0BDE8F08F8B
:10531000062204AB01F046FA9DF811509DF81010DA
:105320009DF813409DF812209DF815009DF814304B
:10533000DDF808C001EB052102EB042203EB00209D
:10534000ACF80010ACF80220ACF80400DDE700BFB8
:10535000F8050020F905002008B5144B2D211B7815
:105360000822532083B901F019FB31210A2253206E
:1053700001F014FB53202C210A2201F00FFB0C48F2
:1053800040F20912028008BD01F008FB31210A2217
:10539000532001F003FB2C210C22532001F0FEFAD4
:1053A00038219022532001F0F9FAE8E7F8050020AF
:1053B0005600002070B582B0002402AB06460D46B0
:1053C00003F8014D53202146012201F0EBF920B1F1
:1053D0009DF80730E52B02D0204602B070BD327830
:1053E000044805490270054B054A29606B60AA60B4
:1053F0000120F2E7F805002059530008FD5100088C
:10540000F95100083B4B3C4A2DE9F00115885C89B5
:105410001E892F1B06FB07F7B3F91250B3F91420AE
:10542000FC13A718EE0296FBF7F56219A2F57A6451
:1054300004FB04F6B3F902C0B3F90E8035130CFB7C
:1054400004F708FB05F84FEAE72CB3F900700CEB02
:10545000E828B3F9206008EB870707FA06F84CF252
:10546000503747FA06F6B3F90CC0B3F904700CFBD9
:1054700005F507FB04F42F14204D07EB6434A71C3B
:10548000D5F800C0BC1008F10205DF88ACEBA5051B
:1054900004F5004406FB05F607FB04F402EB820565
:1054A0006D000835DA612D11E20B002E1DDB740052
:1054B000B4FBF2F31E1206FB06F64EF24332CFF6B1
:1054C000FF7202FB03F440F6DE3202FB06F2241404
:1054D00004EB224202F6CF6203EB221300B1036019
:1054E00001B10D60BDE8F0017047B6FBF2F35B005F
:1054F000E0E700BF000600202A0600202406002066
:1055000000B5114B83B0187818B910490A88531C9C
:105510000B80F621032201AB772001F043F99DF8BF
:1055200005100B4B9DF804000A02B3F920309DF8DA
:10553000061042EA00400843C3F1080220FA02F0D4
:105540000449086003B000BDFA050020FC050020F6
:10555000000600202406002000B50C4B83B018780C
:1055600018B90B490A88531C0B80F621022201ABA3
:10557000772001F017F99DF804009DF80510054B00
:1055800041EA00221A8003B000BD00BFFA050020E6
:10559000FC0500202A06002040F20063C2F200034E
:1055A00093F8202010B49401343440F2FA53C2F23C
:1055B000000304F0FC0277200024F4211C7010BCCE
:1055C00001F0ECB910B440F2FA53C2F20003002427
:1055D0007720F4212E221C7010BC01F0DFB900BF2F
:1055E00010B54FF48040FCF733F80128044600D092
:1055F00010BD4FF48040FCF73BF8014B1C7010BD10
:10560000FA0500202DE9F04F864CA1B094F80080F7
:105610000746B8F1000F03D0012021B0BDE8F08F9C
:105620004FF48059C4F20109102302254FF4005AA7
:10563000484616A98DF85B304FF480468DF85A50D5
:10564000ADF858A0FCF7C4F80422484616A98DF816
:105650005B20ADF85860FCF7BBF80E212846C9F86E
:1056600010A0FCF735FA0125082118A88DF865105F
:1056700018968DF864800F268DF86650FBF7AAFF08
:10568000282317A88DF85C308DF85D608DF85E607A
:105690008DF85F50FBF7CAFD142002F063FB772002
:1056A000D0212A460DF1570301F07CF89DF85700F0
:1056B0005D4E03225528F075328403D0C9F814A03A
:1056C0004046AAE7D1212A460DF15703772001F081
:1056D00069F89DF85710162201F00F0C4FEA111EC1
:1056E0001AABAA21772086F818C086F819E001F0D5
:1056F00059F89DF870309DF8698009939DF87130D4
:105700009DF86AC00A939DF872309DF86CB00B93B7
:105710009DF873309DF86DA00C939DF874309DF842
:1057200068900D939DF875309DF86B000E939DF871
:1057300076309DF86F100F939DF877309DF86E20AE
:1057400010939DF8783048EA092911939DF8793033
:105750004AEA0B2803939DF87A3040EA0C20129312
:105760009DF87B3041EA022202939DF87C3013932E
:105770009DF87D30DDF828C0DDF824B00193CDF828
:105780001490069007924CEA0B29DDF830A00B9993
:105790000E9B0D98109ADDF83CB0CDF8108043EACE
:1057A000002C4AEA012842EA0B20DDF80CA0029BFB
:1057B000DDF848B0119943EA0B224AEA0121DDF8ED
:1057C00004B0DDF84CA031824BEA0A23DDF814B0B6
:1057D000DDF818A0A6F800B0A6F802A0DDF810B019
:1057E000DDF81CA041F27071F081A6F804B0A6F8B3
:1057F00006A0A6F80890A6F80A80A6F80CC0728247
:10580000B3823980094B0A4946F678127A807B6068
:10581000B960084A084B094928462570FA603B617F
:105820007961FAE62806002000060020C555000828
:1058300059550008995500080155000805540008FD
:1058400008B5144B4FF44060C4F201001988FCF70E
:10585000F9F8C8B902F02AFA0F490B6898420DD935
:1058600043F6BF42C01AC2F2B62282FB00120B49B5
:10587000C317C3EBE202086893B2038008480068CC
:10588000BDE80840FBF7F4BE02F010FA02490860D8
:10589000F4E700BF34060020300600203C0600205C
:1058A00038060020FFF7CCBFFFF7CABF2DE9F04153
:1058B000DFF8F48084B0002855D1364C364F374E8F
:1058C00037494FF400704FF48073092217250B807D
:1058D000A8F8000020603A7035704FF44060102541
:1058E000C4F2010001A9ADF8043002238DF806309E
:1058F0008DF80750FBF76CFFB8F800204FF44060BC
:105900000423C4F2010001A98DF80730ADF804208A
:10591000FBF75EFF39780120FCF7DAF82068FBF727
:10592000A7FE21680022012402A802918DF80C2014
:105930008DF80E408DF80D50FBF74CFE30784FF48B
:10594000614300F01F0104FA01F442B2CEF20003F9
:10595000500943F8204002F0C7F9124B3C38186058
:1059600004B0BDE8F081012805D00D4B094C1B881F
:10597000094F0A4EB1E7074C074F084E084A02216B
:1059800007251080A8F80010216038703570034694
:10599000A3E700BF380600203706002036060020A7
:1059A000400600202C0600203406002038B50446AE
:1059B00002F09AF90E4B024619683C31884200D237
:1059C00038BD0C4D1A604FF440600B4A2988C4F270
:1059D00001001460FCF73CF80B2002F08BF94FF447
:1059E00040602988C4F20100BDE83840FCF732B8B5
:1059F0002C060020400600203C06002030B583B075
:105A000002AB0024054603F8014D0A211E200122A5
:105A100000F0C8FE20B19DF80730482B02D0204688
:105A200003B030BD03482988AA7801808270012024
:105A3000F6E700BF44060020F0B585B0032106223A
:105A40006B4604461E2000F0ADFE254B9DF802C0BB
:105A50009DF803609DF804709DF8055093F90020AF
:105A60009DF800009DF8011046EA0C2645EA07253E
:105A7000002AADF80A60ADF80C5041EA002016DDAE
:105A8000013A24F8120093F90100BDF80A10002829
:105A900017DD421E24F8121093F90230BDF80C10E5
:105AA000002B18DD013B24F8131005B0F0BD414276
:105AB000D24324F8121093F90100BDF80A1000280F
:105AC000E7DCC243484224F8120093F90230BDF8E3
:105AD0000C10002BE6DCD8434A4224F81020E4E7FF
