:020000040800F2
:1000000000500020A10A0108510B010829AD000889
:10001000510B0108510B0108510B010800000000B1
:10002000000000000000000000000000510B01086B
:10003000510B010800000000510B01082175000858
:10004000510B0108510B0108510B0108510B01081C
:10005000510B0108510B0108510B010859580008B8
:10006000510B0108510B0108510B0108510B0108FC
:10007000510B0108510B010891780008510B010840
:10008000510B0108510B0108510B0108510B0108DC
:10009000510B0108510B0108510B01085D58000874
:1000A000510B0108510B0108510B0108E5720008C2
:1000B0005D7300086973000879730008995E000891
:1000C000FD6200089D5E0008F9620008510B0108FE
:1000D000510B0108510B0108F57B0008510B010879
:1000E0008D550008510B0108510B0108000000005C
:1000F0000000000000000000000000000000000000
:0C01000000000000000000005FF808F1A3
:1001100010B5054C237833B9044810B10448AFF347
:1001200000800121217010BD940400200000000017
:10013000746B010808B5064B1BB106480649AFF3BE
:1001400000800648016811B1054A02B1904708BD18
:1001500000000000746B0108980400209404002043
:100160000000000081F0004102E000BF83F0004386
:1001700030B54FEA41044FEA430594EA050F08BF42
:1001800090EA020F1FBF54EA000C55EA020C7FEA06
:10019000645C7FEA655C00F0E2804FEA5454D4EB83
:1001A0005555B8BF6D420CDD2C4480EA020281EA4D
:1001B000030382EA000083EA010180EA020281EA85
:1001C0000303362D88BF30BD11F0004F4FEA0131D7
:1001D0004FF4801C4CEA113102D0404261EB4101E6
:1001E00013F0004F4FEA03334CEA133302D052426C
:1001F00063EB430394EA050F00F0A780A4F1010428
:10020000D5F1200E0DDB02FA0EFC22FA05F2801861
:1002100041F1000103FA0EF2801843FA05F3594147
:100220000EE0A5F120050EF1200E012A03FA0EFCC6
:1002300028BF4CF0020C43FA05F3C01851EBE371F0
:1002400001F0004507D54FF0000EDCF1000C7EEB0D
:1002500000006EEB0101B1F5801F1BD3B1F5001F4B
:100260000CD349085FEA30004FEA3C0C04F101046A
:100270004FEA445212F5800F80F09A80BCF1004F93
:1002800008BF5FEA500C50F1000041EB045141EA15
:10029000050130BD5FEA4C0C404141EB010111F416
:1002A000801FA4F10104E9D191F0000F04BF0146C1
:1002B0000020B1FA81F308BF2033A3F10B03B3F19F
:1002C00020020CDA0C3208DD02F1140CC2F10C022F
:1002D00001FA0CF021FA02F10CE002F11402D8BF8D
:1002E000C2F1200C01FA02F120FA0CFCDCBF41EA59
:1002F0000C019040E41AA2BF01EB0451294330BD28
:100300006FEA04041F3C1CDA0C340EDC04F1140404
:10031000C4F1200220FA04F001FA02F340EA0300DB
:1003200021FA04F345EA030130BDC4F10C04C4F121
:10033000200220FA02F001FA04F340EA0300294601
:1003400030BD21FA04F0294630BD94F0000F83F44B
:10035000801306BF81F480110134013D4EE77FEA2E
:10036000645C18BF7FEA655C29D094EA050F08BF7A
:1003700090EA020F05D054EA000C04BF194610465B
:1003800030BD91EA030F1EBF0021002030BD5FEA9F
:10039000545C05D14000494128BF41F0004130BDC7
:1003A00014F580043CBF01F5801130BD01F000451B
:1003B00045F0FE4141F470014FF0000030BD7FEA8E
:1003C000645C1ABF194610467FEA655C1CBF0B4689
:1003D000024650EA013406BF52EA033591EA030FA0
:1003E00041F4002130BD00BF90F0000F04BF002198
:1003F000704730B54FF4806404F132044FF00005CB
:100400004FF0000150E700BF90F0000F04BF002143
:10041000704730B54FF4806404F1320410F00045A9
:1004200048BF40424FF000013EE700BF42004FEAA4
:10043000E2014FEA31014FEA02701FBF12F07F4321
:1004400093F07F4F81F06051704792F0000F14BF1E
:1004500093F07F4F704730B54FF4607401F0004562
:1004600021F0004120E700BF50EA010208BF7047B9
:1004700030B54FF000050AE050EA010208BF7047AE
:1004800030B511F0004502D5404261EB41014FF417
:10049000806404F132045FEA915C3FF4DCAE4FF01B
:1004A00003025FEADC0C18BF03325FEADC0C18BF02
:1004B000033202EBDC02C2F1200300FA03FC20FA53
:1004C00002F001FA03FE40EA0E0021FA02F11444A0
:1004D000C1E600BF70B54FF0FF0C4CF4E06C1CEAB5
:1004E00011541DBF1CEA135594EA0C0F95EA0C0F2A
:1004F00000F0DEF82C4481EA030621EA4C5123EA9D
:100500004C5350EA013518BF52EA033541F48011CB
:1005100043F4801338D0A0FB02CE4FF00005E1FB7E
:1005200002E506F00042E0FB03E54FF00006E1FBC8
:1005300003569CF0000F18BF4EF0010EA4F1FF040B
:10054000B6F5007F64F5407404D25FEA4E0E6D414B
:1005500046EB060642EAC62141EA55514FEAC5205C
:1005600040EA5E504FEACE2EB4F1FD0C88BFBCF5D8
:10057000E06F1ED8BEF1004F08BF5FEA500E50F189
:10058000000041EB045170BD06F0004646EA01014F
:1005900040EA020081EA0301B4EB5C04C2BFD4EB81
:1005A0000C0541EA045170BD41F480114FF0000E7A
:1005B000013C00F3AB8014F1360FDEBF002001F0E8
:1005C000004170BDC4F10004203C35DA0C341BDC62
:1005D00004F11404C4F1200500FA05F320FA04F034
:1005E00001FA05F240EA020001F0004221F0004168
:1005F00010EBD37021FA04F642EB06015EEA430EDB
:1006000008BF20EAD37070BDC4F10C04C4F120050A
:1006100000FA04F320FA05F001FA04F240EA0200BD
:1006200001F0004110EBD37041F100015EEA430E8E
:1006300008BF20EAD37070BDC4F1200500FA05F2AE
:100640004EEA020E20FA04F301FA05F243EA02032D
:1006500021FA04F001F0004121FA04F220EA02003C
:1006600000EBD3705EEA430E08BF20EAD37070BD82
:1006700094F0000F0FD101F00046400041EB010162
:1006800011F4801F08BF013CF7D041EA060195F044
:10069000000F18BF704703F00046520043EB0303FE
:1006A00013F4801F08BF013DF7D043EA06037047EB
:1006B00094EA0C0F0CEA135518BF95EA0C0F0CD0F6
:1006C00050EA410618BF52EA4306D1D181EA03013C
:1006D00001F000414FF0000070BD50EA410606BF36
:1006E0001046194652EA430619D094EA0C0F02D17B
:1006F00050EA013613D195EA0C0F05D152EA0336C0
:100700001CBF104619460AD181EA030101F00041DD
:1007100041F0FE4141F470014FF0000070BD41F026
:10072000FE4141F4780170BD70B54FF0FF0C4CF400
:10073000E06C1CEA11541DBF1CEA135594EA0C0F1F
:1007400095EA0C0F00F0A7F8A4EB050481EA030E6C
:1007500052EA03354FEA013100F088804FEA033353
:100760004FF0805545EA131343EA12634FEA022221
:1007700045EA111545EA10654FEA00260EF00041E2
:100780009D4208BF964244F1FD0404F5407402D234
:100790005B084FEA3202B61A65EB03055B084FEAC5
:1007A00032024FF480104FF4002CB6EB020E75EBC2
:1007B000030E22BFB61A754640EA0C005B084FEAEA
:1007C0003202B6EB020E75EB030E22BFB61A754667
:1007D00040EA5C005B084FEA3202B6EB020E75EBB2
:1007E000030E22BFB61A754640EA9C005B084FEA2A
:1007F0003202B6EB020E75EB030E22BFB61A754637
:1008000040EADC0055EA060E18D04FEA051545EA25
:1008100016754FEA06164FEAC30343EA52734FEACE
:10082000C2025FEA1C1CC0D111F4801F0BD141EA47
:1008300000014FF000004FF0004CB6E711F4801FAC
:1008400004BF01430020B4F1FD0C88BFBCF5E06F8C
:100850003FF6AFAEB5EB030C04BFB6EB020C5FEA9C
:10086000500C50F1000041EB045170BD0EF0004EF1
:100870004EEA113114EB5C04C2BFD4EB0C0541EA23
:10088000045170BD41F480114FF0000E013C90E620
:1008900045EA060E8DE60CEA135594EA0C0F08BFE4
:1008A00095EA0C0F3FF43BAF94EA0C0F0AD150EAE3
:1008B00001347FF434AF95EA0C0F7FF425AF104676
:1008C00019462CE795EA0C0F06D152EA03353FF49E
:1008D000FDAE1046194622E750EA410618BF52EA1B
:1008E00043067FF4C5AE50EA41047FF40DAF52EAEF
:1008F00043057FF4EBAE12E74FF0FF3C06E000BF8C
:100900004FF0010C02E000BF4FF0010C4DF804CD98
:100910004FEA410C7FEA6C5C4FEA430C18BF7FEA58
:100920006C5C1BD001B050EA410C0CBF52EA430C86
:1009300091EA030F02BF90EA020F0020704710F106
:10094000000F91EA030F58BF994208BF90422CBF95
:10095000D8176FEAE37040F0010070474FEA410C8E
:100960007FEA6C5C02D150EA013C07D14FEA430CAC
:100970007FEA6C5CD6D152EA033CD3D05DF8040B1D
:10098000704700BF8446104662468C46194663464F
:1009900000E000BF01B5FFF7B7FF002848BF10F126
:1009A000000F01BD4DF808EDFFF7F4FF0CBF01206B
:1009B00000205DF808FB00BF4DF808EDFFF7EAFFE7
:1009C00034BF012000205DF808FB00BF4DF808EDA2
:1009D000FFF7E0FF94BF012000205DF808FB00BF97
:1009E0004DF808EDFFF7CEFF94BF012000205DF821
:1009F00008FB00BF4DF808EDFFF7C4FF34BF01202E
:100A000000205DF808FB00BF4FEA410212F500121A
:100A100015D211D56FF47873B3EB625212D94FEA45
:100A2000C12343F0004343EA505311F0004F23FA2F
:100A300002F018BF404270474FF00000704750EA84
:100A4000013005D111F0004008BF6FF00040704741
:100A50004FF00000704700BF4FEA4102B2F1E0439F
:100A600024BFB3F5001CDCF1FE5C0DD901F0004C95
:100A70004FEAC0024CEA5070B2F1004F40EB8300E5
:100A800008BF20F00100704711F0804F21D113F111
:100A90003872BCBF01F00040704741F480114FEA4A
:100AA0005252C2F11802C2F1200C10FA0CF320FAD3
:100AB00002F018BF40F001004FEAC1234FEAD323F0
:100AC00003FA0CFC40EA0C0023FA02F34FEA43035A
:100AD000CCE77FEA625307D150EA01331EBF4FF0E3
:100AE000FE4040F44000704701F0004040F0FE40FE
:100AF00040F40000704700BF80F0004002E000BFFB
:100B000081F0004142001FBF5FEA410392EA030FF8
:100B10007FEA226C7FEA236C6AD04FEA1262D2EB42
:100B20001363C1BFD218414048404140B8BF5B4247
:100B3000192B88BF704710F0004F40F4000020F0E0
:100B40007F4018BF404211F0004F41F4000121F0F6
:100B50007F4118BF494292EA030F3FD0A2F1010240
:100B600041FA03FC10EB0C00C3F1200301FA03F17E
:100B700000F0004302D5494260EB4000B0F5000FA1
:100B800013D3B0F1807F06D340084FEA310102F160
:100B90000102FE2A51D2B1F1004F40EBC25008BF12
:100BA00020F0010040EA03007047490040EB0000DC
:100BB00010F4000FA2F10102EDD1B0FA80FCACF10B
:100BC000080CB2EB0C0200FA0CF0AABF00EBC2500A
:100BD00052421843BCBFD0401843704792F0000FF8
:100BE00081F4000106BF80F400000132013BB5E74B
:100BF0004FEA41037FEA226C18BF7FEA236C21D0C1
:100C000092EA030F04D092F0000F08BF0846704725
:100C100090EA010F1CBF0020704712F07F4F04D1F3
:100C2000400028BF40F00040704712F100723CBF06
:100C300000F50000704700F0004343F0FE4040F430
:100C4000000070477FEA226216BF08467FEA2363EE
:100C50000146420206BF5FEA412390EA010F40F4D9
:100C6000800070474FF0000304E000BF10F0004325
:100C700048BF40425FEA000C08BF704743F096430C
:100C800001464FF000001CE050EA010208BF704727
:100C90004FF000030AE000BF50EA010208BF7047AE
:100CA00011F0004302D5404261EB41015FEA010CC3
:100CB00002BF84460146002043F0B64308BFA3F1BB
:100CC0008053A3F50003BCFA8CF2083AA3EBC2539D
:100CD00010DB01FA02FC634400FA02FCC2F12002BC
:100CE000BCF1004F20FA02F243EB020008BF20F0F3
:100CF0000100704702F1200201FA02FCC2F1200259
:100D000050EA4C0021FA02F243EB020008BF20EA4D
:100D1000DC7070474FF0FF0C1CEAD0521EBF1CEA7B
:100D2000D15392EA0C0F93EA0C0F6FD01A4480EA69
:100D3000010C400218BF5FEA41211ED04FF0006352
:100D400043EA501043EA5111A0FB01310CF000407E
:100D5000B1F5000F3EBF490041EAD3715B0040EAA4
:100D6000010062F17F02FD2A1DD8B3F1004F40EB74
:100D7000C25008BF20F00100704790F0000F0CF047
:100D8000004C08BF49024CEA502040EA51207F3A0B
:100D9000C2BFD2F1FF0340EAC250704740F40000E6
:100DA0004FF00003013A5DDC12F1190FDCBF00F0D7
:100DB00000407047C2F10002410021FA02F1C2F185
:100DC000200200FA02FC5FEA310040F1000053EA21
:100DD0004C0308BF20EADC70704792F0000F00F06F
:100DE000004C02BF400010F4000F013AF9D040EA75
:100DF0000C0093F0000F01F0004C02BF490011F409
:100E0000000F013BF9D041EA0C018FE70CEAD15306
:100E100092EA0C0F18BF93EA0C0F0AD030F0004C86
:100E200018BF31F0004CD8D180EA010000F000403A
:100E3000704790F0000F17BF90F0004F084691F0F8
:100E4000000F91F0004F14D092EA0C0F01D1420232
:100E50000FD193EA0C0F03D14B0218BF084608D1FB
:100E600080EA010000F0004040F0FE4040F4000045
:100E7000704740F0FE4040F4400070474FF0FF0CD8
:100E80001CEAD0521EBF1CEAD15392EA0C0F93EA1F
:100E90000C0F69D0A2EB030280EA010C49024FEA71
:100EA000402037D04FF0805343EA111143EA10132A
:100EB0000CF000408B4238BF5B0042F17D024FF4E2
:100EC000000C8B4224BF5B1A40EA0C00B3EB510FBD
:100ED00024BFA3EB510340EA5C00B3EB910F24BFA6
:100EE000A3EB910340EA9C00B3EBD10F24BFA3EB2B
:100EF000D10340EADC001B0118BF5FEA1C1CE0D1F3
:100F0000FD2A3FF650AF8B4240EBC25008BF20F0A5
:100F1000010070470CF0004C4CEA50207F32C2BFF9
:100F2000D2F1FF0340EAC250704740F400004FF096
:100F30000003013A37E792F0000F00F0004C02BFC7
:100F4000400010F4000F013AF9D040EA0C0093F091
:100F5000000F01F0004C02BF490011F4000F013BEB
:100F6000F9D041EA0C0195E70CEAD15392EA0C0F53
:100F700008D142027FF47DAF93EA0C0F7FF470AF8B
:100F8000084676E793EA0C0F04D14B023FF44CAFCE
:100F900008466EE730F0004C18BF31F0004CCAD163
:100FA00030F000427FF45CAF31F000437FF43CAF9F
:100FB0005FE700BF4FF0FF3C06E000BF4FF0010CC1
:100FC00002E000BF4FF0010C4DF804CD4FEA4002A3
:100FD0004FEA41037FEA226C18BF7FEA236C11D0ED
:100FE00001B052EA530C18BF90EA010F58BFB2EBA0
:100FF000030088BFC81738BF6FEAE17018BF40F020
:10100000010070477FEA226C02D15FEA402C05D1D3
:101010007FEA236CE4D15FEA412CE1D05DF8040B58
:10102000704700BF844608466146FFE70FB5FFF7EB
:10103000C9FF002848BF10F1000F0FBD4DF808EDA3
:10104000FFF7F4FF0CBF012000205DF808FB00BF94
:101050004DF808EDFFF7EAFF34BF012000205DF8EE
:1010600008FB00BF4DF808EDFFF7E0FF94BF01203B
:1010700000205DF808FB00BF4DF808EDFFF7D2FF38
:1010800094BF012000205DF808FB00BF4DF808ED7B
:10109000FFF7C8FF34BF012000205DF808FB00BF48
:1010A0004FEA4002B2F1FE4F0FD34FF09E03B3EB75
:1010B00012620DD94FEA002343F0004310F0004FB5
:1010C00023FA02F018BF404270474FF0000070470B
:1010D00012F1610F01D1420205D110F0004008BFAA
:1010E0006FF0004070474FF00000704742000ED292
:1010F000B2F1FE4F0BD34FF09E03B3EB126209D453
:101100004FEA002343F0004323FA02F070474FF008
:101110000000704712F1610F01D1420202D14FF07D
:10112000FF3070474FF00000704700BF4FF480530E
:10113000C4F202035A6802F00C00082811D04FF4E0
:101140009052C0F27A024FF48053C4F202035868FE
:101150001049C0F30313C85C0F4B22FA00F21A6067
:10116000704758685968C0F383420232C90309D5F1
:101170005B689B0306D44FF49050C0F27A0000FBEA
:1011800002F2E0E74FF41061C0F23D0101FB02F210
:10119000D9E700BF00000020100000204FF480536A
:1011A000C4F20203196800B541F0010018605968E3
:1011B0000022CFF6FF020A405A601A68002122F08E
:1011C000847020F480321A60186885B020F4802280
:1011D0001A6058681A4620F4FE0058604FF41F0049
:1011E0009860019102910391196841F48030186070
:1011F00003E00198B0F5A06F09D0136803F4003143
:1012000002910198431C019302990029F1D04FF4F7
:101210008052C4F20202136813F4003169D0012035
:101220000290029A012A68D04FF48051C4F2020160
:101230000B68002243F001000860019203E0019A6C
:10124000B2F5A06F09D00B6803F002000390019A79
:10125000531C019303980028F1D04FF48053C4F23B
:10126000020319688A073BD54FF40052C4F2020208
:101270001068194640F010001060106820F003005C
:101280001060106840F0020010605A685A60586898
:1012900058605A6842F4806058605A6822F47C10A2
:1012A00058605A6842F4601058601A6842F08070C2
:1012B00018600A684FF480539001C4F20203F8D515
:1012C0005968184621F003025A60596841F0020239
:1012D0005A60436803F00C010829FAD1FFF726FF92
:1012E0004FF46D40CEF200004FF00062826005B016
:1012F00000BD0291029A012A96D14FF40052C4F225
:10130000020210684FF4805340F010011160106821
:10131000C4F2020320F0030111601068194640F086
:10132000020010605A685A60586858605A6842F45F
:10133000806058605A6822F47C1058605A6842F401
:10134000E81058601A6842F0807018600A684FF41C
:1013500080539001C4F20203F8D55968184621F071
:1013600003025A60596841F002025A60436803F070
:101370000C010829FAD1B3E740F0BF604FF46D4388
:1013800040F40031CEF20003D9607047C37830B426
:101390007BB90078012100F01F0201FA02F1400937
:1013A0004FF46143CEF20003203043F8201030BCEC
:1013B00070474FF46D44CEF20004E5684478EA4388
:1013C000C2F302230F2525FA03F2C3F1040104FA44
:1013D00001F48578037802EA050121430A0103F14B
:1013E0006043D1B203F5614282F800130078012115
:1013F00000F01F0301FA03F14FF46143CEF2000342
:10140000420943F82210D2E742680B6870B422F414
:1014100070250C7925F4807646EA030242EA04231B
:10142000436086688C68CA684FF2FD73CFF6F1732B
:101430004D7922433340134343EA45028260097CDD
:10144000C26A4B1E22F47001DAB241EA0253C3624F
:1014500070BC7047836819B923F00101816070473F
:1014600043F0010282607047836819B923F48071E8
:101470008160704743F4807282607047836843F0F4
:1014800008018160704700BF8068C0F3C0007047EA
:10149000836843F004018160704700BF8068C0F337
:1014A00080007047836819B923F4A00181607047F8
:1014B00043F4A00282607047092970B401EB410433
:1014C0001ED91E3C072606FA04F603FA04F4C56882
:1014D000062A25EA060343EA0403C3601DD90C2A41
:1014E00002EB820227D9413A1F2404FA02F401FADE
:1014F00002F1C36A23EA04020A43C26270BC704765
:10150000072606FA04F603FA04F40569062A25EA12
:10151000060343EA04030361E1D8541E04EB840389
:101520001F2404FA03F401FA03F1426B22EA0403D4
:101530000B434363E2E7233A1F2404FA02F401FA5F
:1015400002F1036B23EA04020A430263D6E700BFF9
:1015500010B4082104684FF6FE72C4F202010023A1
:10156000224088420260036043608360C36047D0CA
:101570001C23C4F20203984249D03022C4F2020272
:1015800090424CD04421C4F2020188424FD05823EB
:10159000C4F2020398425BD06C22C4F20202904271
:1015A0005ED08021C4F2020188421FD04FF48163D3
:1015B000C4F20203984221D040F21C42C4F202025B
:1015C000904255D04FF48661C4F20201884258D04F
:1015D00040F24443C4F2020398425BD04FF48B6262
:1015E000C4F2020290422AD010BC70470021C4F21B
:1015F00002014A6842F070604860F5E74FF480638A
:10160000C4F202035A6842F00F015960ECE700236C
:10161000C4F20203596841F0F0005860E4E7002189
:10162000C4F20201486840F470624A60DCE70020BE
:10163000C4F20200426842F470434360D4E74FF4BE
:101640008060C4F20200416841F470234360CBE73C
:101650000020C4F20200436843F470214160C3E7F4
:101660000023C4F20203596841F470025A60BBE7D8
:101670004FF48061C4F202014B6843F0F00048600F
:10168000B2E74FF48063C4F20203586840F470621A
:101690005A60A9E74FF48060C4F20200426842F445
:1016A00070414160A0E700BF8B68F0B40D6A0C691F
:1016B0004A691D438E6945EA04031343CA690568F4
:1016C0004F6A43EA060414438E6A25F4FF4C27430D
:1016D0000D68CC682CF0700349683E431E430660D9
:1016E00044608560C160F0BC704700BF29B90268E2
:1016F0004FF6FE73134003607047016841F001022A
:101700000260704703681AB923EA0101016070475B
:1017100019430160704700BF406880B2704700BF46
:10172000C3004CBF4FF480630023C4F2020358602F
:10173000704700BF837930B43BB34FF48063C4F289
:10174000010301681D68CC4325401D605D68027976
:101750002C4002F180455C6005F5823215684479C1
:101760002943116002689868D14308409860D8689E
:10177000102C01EA0001D96013D004F1804303F575
:10178000823421680A43226009E00279016802F18B
:10179000804000F582331A6822EA01021A6030BCE8
:1017A0007047986810439860D9680A43DA60F6E792
:1017B0004FF48063C4F201031A68596910EA010307
:1017C00004D010420CBF002001207047184670471B
:1017D0004FF48063C4F20103586170474FF4005323
:1017E00040F2231148F6AB12C4F20203C4F267516F
:1017F000CCF6EF5259605A60704700BF4FF4005367
:10180000C4F202031A6942F080001861704700BFF9
:101810004FF40053C4F20203D86070474FF40053F2
:10182000C4F20203DA68D2070BD4D868400701D5A6
:1018300002207047D96811F0100F0CBF042003205C
:1018400070470120704700BF10B50446FFF7E6FF60
:10185000012815D1B4B1FFF7E1FF013C012804F0E4
:1018600001030DD174B10BB105E05CB1FFF7D6FFF8
:10187000013C012804D1FFF7D1FF013C0128F4D03D
:1018800004B110BD052010BD70B5002382B005461F
:101890004FF400500C460193FFF7D6FF042801D007
:1018A00002B070BD4FF40056C4F202063269A1B214
:1018B00042F0010030614FF400502980FFF7C4FF6F
:1018C000042805D0326941F6FE7313403361E7E71F
:1018D000023501950199240C0C804FF40050FFF75C
:1018E000B3FF326941F6FE7313403361D8E700BF9E
:1018F00038B505464FF43020FFF7A6FF042800D086
:1019000038BD4FF40054C4F2020423694FF4302070
:1019100043F0020121616561226942F040032361C5
:10192000FFF792FF216941F6FD720A40226138BD3E
:10193000CA7830B4D30648BF8B7802F00F0448BF92
:101940001C430B8813F0FF0F2FD013F00105016823
:1019500040F0EC8003F00205ADB2002D40F0D080E5
:1019600003F00405ADB2002D40F0D58003F008056A
:10197000ADB2002D40F0988003F01005ADB2002DFF
:1019800040F09D8003F02005ADB2002D40F0A28014
:1019900003F04005ADB2002D40F0A78003F08005B4
:1019A000ADB2002D40F0CD800160FF2B28D903F4AB
:1019B00080718DB24168002D2DD103F40075ADB258
:1019C000002D33D103F48065ADB2002D39D103F47D
:1019D0000065ADB2002D3FD103F48055ADB2002DAE
:1019E00044D103F40055ADB2002D49D103F4804534
:1019F000ADB2002D4ED103F400439BB213B9416048
:101A000030BC7047282A64F31F7100F0B080482A68
:101A100008BF0361F3E721F00F01282A44EA01011E
:101A200000F0A380482AC8D10561C6E721F0F00183
:101A3000282A41EA041100F09680482AC2D10561A3
:101A4000C0E721F47061282A41EA042100F089806E
:101A5000482ABCD10561BAE721F47041282A41EA3D
:101A600004317CD0482AB7D10561B5E721F4702153
:101A7000282A41EA044170D0482AB2D10561B0E772
:101A800021F47001282A41EA045164D0482AADD1DA
:101A90000561ABE721F07061282A41EA046158D062
:101AA000482AA8D10561A6E721F47041282A41EA15
:101AB000043168D0482A7FF45FAF05615CE721F408
:101AC0007021282A41EA04415BD0482A7FF45AAFAA
:101AD000056157E721F47001282A41EA045156D0E4
:101AE000482A7FF455AF056152E721F07061282A3A
:101AF00041EA046149D0482A7FF450AF05614DE7BF
:101B000021F0F001282A41EA041138D0482A7FF454
:101B100027AF056124E721F47061282A41EA0421F6
:101B20002BD0482A7FF422AF05611FE721F00F0177
:101B3000282A44EA01011CD0482A7FF40BAF056132
:101B400008E7282A64F31F7115D0482A08BF0561E9
:101B50002AE745614FE7456148E7456141E745614F
:101B60003AE7456133E745612CE7456125E7436185
:101B700045E74561EEE6456116E74561F6E64561F4
:101B8000EEE64561FEE64561F6E6456106E745613C
:101B9000FEE600BF4FF6FF7302210422038081702E
:101BA000C2707047836819420CBF00200120704743
:101BB000016170474161704700230028C4F20103AE
:101BC00000F44012B4BFDB695B68B2F5401F30B46B
:101BD00084B222D0C20217D5C0F30342032505FA0E
:101BE00002F223EA020343F0706321B1410D0A01BE
:101BF00004FA02F423430021C4F201010028B4BF17
:101C0000CB614B6030BC7047420D120104FA02F206
:101C100023EA020343F07063E7E70022C4F2010203
:101C2000556823F0706325F070655560DDE700BFEF
:101C300001F0030310B40F229C0002FA04F200FA30
:101C400004F089080023C4F20103023153F8214053
:101C500024EA020243F8212053F82120104343F8DC
:101C6000210010BC704700BF08B54FF4A843C4F270
:101C7000000398420BD001214FF4800000F066F978
:101C80004FF480000021BDE8084000F05FB9012159
:101C90004FF4001000F05AF94FF400100021BDE895
:101CA000084000F053B900BFF0B587B004468688FD
:101CB00001A80D4600F0CCF803994DF68363C4F2F9
:101CC0001B33A3FB012026F03F073A04870C160CB8
:101CD0001FFA87FC4CEA0603A380228848F2A06022
:101CE00022F001062A683304C0F201001E0C824271
:101CF000268024D85200B1FBF2F6B1B20CF1010EED
:101D0000A4F820E0032998BF0421A18320886E89CC
:101D100083B243F0010121802288A88822F48163E4
:101D200023F00203AA8929891B041B0C30430343B7
:101D300011439BB28AB22380228107B0F0BDE888AC
:101D40004BF6FF7398421DD002EB820202EB820633
:101D5000B1FBF6F141F4804081B20E05300D08B9B7
:101D600041F001014FF4967303FB07F744F6D35299
:101D7000C1F2620282FB0736B009431C41F4004104
:101D80002384C2E702EB4203B1FBF3F291B2E4E732
:101D9000002341F2883283804BF6FF710381438137
:101DA0004FF480430260C18083817047038829B962
:101DB00023F001010A04130C0380704799B241F02B
:101DC00001020280704700BF038829B923F48071A3
:101DD0000A04130C0380704799B241F480720280A8
:101DE000704700BF038829B923F400710A04130C5B
:101DF0000380704799B241F400720280704700BFBF
:101E0000038829B923F480610A04130C0380704706
:101E100099B241F480620280704700BF83889BB210
:101E20001AB923EA01018180704719438180704704
:101E300001827047008AC0B2704700BF1AB901F032
:101E4000FE010182704741F001010182704700BF2D
:101E50004FF48053C4F202035A6810B402F00C012C
:101E6000042901D0082928D04FF49052C0F27A02F8
:101E700002604FF48053C4F202035C681C49C4F34F
:101E800003140C5D22FA04F242605C68C4F302247D
:101E90000C5D22FA04F484605C68C4F3C224095D1A
:101EA00022FA01F2C2605B681249C3F38133CB5C52
:101EB000B2FBF3F2026110BC70475C685968C4F36E
:101EC00083420232CC030AD55B68990307D44FF4EE
:101ED0009054C0F27A0404FB02F20260C9E74FF4A6
:101EE0001061C0F23D0101FB02F20260C1E700BFD8
:101EF00018000020140000204FF48053C4F20203A5
:101F00005A6919B922EA00005861704710435861B4
:101F1000704700BF4FF48053C4F202039A6919B9A5
:101F200022EA00009861704710439861704700BF33
:101F30004FF48053C4F20203DA6919B922EA0000AF
:101F4000D86170471043D861704700BF4FF4805389
:101F5000C4F202031A6919B922EA00001861704735
:101F600010431861704700BF4FF48053C4F202035E
:101F70005A6A42F080705862704700BF70B4048C97
:101F80004FF4305524F001063404260C0684048BEB
:101F9000C4F2010524F0F3042404240C2243068C2B
:101FA00042EA0313A842B6B29CB223D04FF4505277
:101FB000C4F2010290421DD0B0F1804F1AD04FF40C
:101FC0008063C4F20003984214D04FF40062C4F25C
:101FD000000290420ED04FF44063C4F200039842D6
:101FE00008D026F00A0646F0010631430483018436
:101FF00070BC704726F0020242F001063143F5E75B
:1020000070B4048C4FF4305524F010063404260CC0
:102010000684048BC4F2010524F440742405240DC5
:10202000068C44EA022242EA0333A842B6B29BB2CB
:1020300023D04FF45052C4F2010290421DD0B0F1AF
:10204000804F1AD04FF48062C4F20002904214D044
:102050004FF40062C4F2000290420ED04FF440628E
:10206000C4F20002904208D026F0A00646F0100606
:1020700031430383018470BC704726F0200242F094
:10208000100646EA011189B2F3E700BF4FF430525F
:102090000388C4F20102904270B49BB21AD04FF48C
:1020A0005052C4F20102904214D0B0F1804F11D0CE
:1020B0004FF48062C4F2000290420BD04FF40062F1
:1020C000C4F20002904205D04FF44062C4F2000214
:1020D000904205D14FF68F724C881A4042EA0403B1
:1020E0004FF48052C4F20002904234D04FF4A05218
:1020F000C4F2000290422ED04FF6FF42CE881A4022
:102100004FF430538D880C88C4F201033243984257
:102110000280858504851BD04FF45052C4F2010221
:10212000904215D04FF48043C4F2010398420FD07F
:102130004FF48842C4F20102904209D04FF4904318
:10214000C4F20103984203D00122828270BC70471E
:10215000097A0186F8E703808B88838509880185E1
:10216000F2E700BF038C2DE9F00123F00102140413
:10217000250C0584078C0D8984884E88038B2E439B
:1021800023F073024FF4305527F0020312041B04AE
:102190000F88C4F20105120C1B0CB6B2A842A4B2FF
:1021A00042EA070246EA03031FD04FF45055C4F237
:1021B0000105A84219D04FF48045C4F20105A84298
:1021C00013D04FF48845C4F20105A8420DD04FF456
:1021D0009045C4F20105A84207D0C98884800283D3
:1021E00081860384BDE8F00170474FF6F776B1F8B9
:1021F0000AC0B1F80E808F891E4046EA0C0C4FF6DB
:10220000FB738E884FF6FF4548EA070725400CEA26
:102210000303BCB233432C43DFE700BF038CF0B4AD
:1022200023F010021404250C0584068C848826F003
:102230002002078B16040D89320C27F4E6431B0499
:1022400042EA05120F884E884FF430551B0CC4F239
:10225000010543EA072342EA0612A842A4B29BB250
:1022600092B20CD04FF45055C4F20105A84206D0EA
:10227000C9888480038301870284F0BC70474F893A
:102280004FF67F7616404FF2FF35B1F80CC025406F
:1022900046EA07164FF6BF728F88CC89324045EA6E
:1022A0008C0542EA071245EA840492B2A4B2DFE741
:1022B000038CF0B423F480721404250C0584068C7E
:1022C0000D8926F400773A048488838B120C23F05E
:1022D000730642EA05224F884FF430553304C4F2A6
:1022E00001050E881B0C42EA0722A842A4B243EA69
:1022F000060392B20CD04FF45055C4F20105A84227
:1023000006D0C9888480838381870284F0BC7047AB
:102310004F894FF2FF7616404CF6FF75B1F80CC0AE
:10232000254046EA07264FF6FF328F88CC89324097
:1023300045EA0C1542EA072245EA041492B2A4B217
:10234000DFE700BF038CF0B423F480521404250CA3
:102350000584068C858826F40052878B16040C8928
:10236000320C27F4E6431B0442EA04320F884E88FD
:102370004FF430541B0CC4F2010443EA072342EA31
:102380000632A042ADB29BB292B20DD04FF450547F
:10239000C4F20104A04207D0C98885808383A0F8D5
:1023A00040100284F0BC70474BF6FF748E892C40BD
:1023B00044EA8615ADB2EFE7F8B50B880D46044642
:1023C000002B58D0042B00F0B080082B028C63D077
:1023D00022F480508F8801040B0C2E896988238495
:1023E000A08B4FF4305220F440731805030D43EADC
:1023F0000723208CC4F2010243EA0633944280B2E0
:102400009BB230D04FF45052C4F2010294422AD011
:10241000B4F1804F27D04FF48062C4F2000294429E
:1024200021D04FF40062C4F2000294421BD04FF45A
:102430004062C4F20002944215D047F6FF520240B7
:1024400041F480510A43A3832284A38BE88823F4B8
:10245000406211040B0CA383A28B91B241EA0020CD
:1024600083B2A383F8BD20F4005040EA013291B258
:1024700041F48052E7E74988AA882B89FFF77EFD5F
:10248000238BE98823F00C021004030C2383228B96
:1024900090B208432083F8BD22F4807637043A0CCA
:1024A00089882F896E880284808B4FF4305220F007
:1024B000F3031804030C43EA0713208CC4F201024F
:1024C0009BB2944280B243EA010341D04FF4505191
:1024D000C4F201018C423BD0B4F1804F38D04FF4AC
:1024E0008062C4F20002944232D04FF40061C4F220
:1024F00000018C422CD04FF44062C4F2000294429E
:1025000026D04FF2FF51014046F480763143A38339
:102510002184A38BE88823F00C0211040B0CA38305
:10252000A28B91B20143A183F8BD4988AA882B8967
:10253000FFF766FD208BEA8820F440631904080C3D
:102540002083238B99B241EA022290B22083F8BD06
:1025500020F4007040EA062291B241F48071D6E77F
:1025600000234FF6FF7181800380C3804380037294
:10257000704700BF0023038043808380C3800381B2
:1025800043818381C38170470023012203804380FC
:102590008280C38003817047038829B923F0010139
:1025A0000A04130C0380704799B241F001020280C3
:1025B000704700BFB0F8443021B959044A0CA0F864
:1025C000442070476FEA43436FEA53418AB2A0F850
:1025D0004420704783899BB21AB923EA01018181A3
:1025E0007047194381817047038B23F0080213045D
:1025F0001A0C114301837047038B23F40062130408
:102600001A0C42EA01218BB203837047838B23F0BB
:10261000080213041A0C114381837047838B23F43F
:10262000006213041A0C42EA01218BB283837047C3
:10263000808E80B2704700BF008F80B2704700BFAD
:10264000808F80B2704700BFB0F8400080B2704702
:10265000038A828911EA030092B203D011420CBFAF
:1026600000200120704700BFC9438AB20282704730
:10267000038A70B5044623F44050CA880D4601040D
:102680000E0C16432682A389AA88288923F4B05603
:10269000698926F00C0310431A04160C084340EA1B
:1026A00006018BB2A381A08AAA8920F44076310466
:1026B0000B0C86B0134301A8A382FFF7C9FB4FF4AC
:1026C0006056A089C4F20106B44202B20CBF049E57
:1026D000039E002A21DB2D6806EB860101EB8103B6
:1026E000AE00B3FBF6F148F21F53C5F2EB13A3FBA8
:1026F0000106A089720900B264251601002802FBB8
:10270000151113DB0A013232A3FB0203C3F343109A
:10271000304383B2238106B070BD286806EB860281
:1027200002EB82054300B5FBF3F1DCE7C90032316F
:10273000A3FB0112C2F342103043EAE700234FF437
:1027400016520C2102608380C38003814181838102
:10275000704700BF838929B923F400510A04130C80
:102760008381704799B241F400528281704700BF63
:1027700001F01F0310B4C1F342110124A14204FA75
:1027800003F30DD002290DD014302AB9026822EAD1
:102790000301016010BC7047026813430360F9E74E
:1027A0000C30F2E71030F0E7838A9BB21AB923EAC3
:1027B0000101818270471943818270478088C10579
:1027C000C80D704770B51D4C064623783BB11C4DB3
:1027D00004F0CEFE2A68B618B0420BD270BD04F0E9
:1027E000C7FE174D29683231884219D22078002857
:1027F000EED170BD4FF40063C4F2010300214FF429
:1028000080502170186104F0B3FE0E4B0C4A197809
:10281000106009B1481E18700B4B01221A7070BD70
:102820004FF40061C4F2010101204FF48052207086
:102830004A6104F09DFE286070BD00BFB104002015
:10284000B8040020EE0A0020B204002070B5274C26
:1028500082B025788DF8062002AA8DF805108DF833
:1028600007308DF80400531913F8040C4438C1B232
:102870000A290DD93226022D14D83046FFF7A2FFBF
:102880002278022A0ED81A4B1878012826D107E0A0
:10289000184E022D36F8116004D8002EEDD1144BDD
:1028A00021780EE004F064FE134B821B186882420C
:1028B00016D80F4B1878012800D07EB9217802294C
:1028C00001D801312170002018704FF400620B4BC9
:1028D000C4F201024FF480511870116102B070BD52
:1028E000074A002121701170E3E700BFB304002004
:1028F000B2040020B0450108B8040020B104002053
:10290000EE0A00202DE9F041524F0446FB7A524D69
:10291000002B4BD0012028704FF4007002F076FBA2
:1029200000282FD14D4E102002F04EFB48B1FB790C
:10293000002B3DD04A49CB7A002B3DD1494B012198
:1029400019703278022A4DD0012A53D045480178B7
:10295000012957D02B78012B5CD0042C62D0022C9B
:1029600068D0012C6ED0404A1078002835D14FF441
:1029700000623E49C4F201024FF4805308701361B3
:10298000BDE8F0813A493B480B8890F89F2019B286
:1029900002EB8206B14213DD314E767896B92F4EA6
:1029A00002213170002BBED13370BCE72B70B3E72E
:1029B000284A107A0028BDD12A4800220270C0E7B8
:1029C000264EEFE790F8A000244E121802EB820288
:1029D000012091423070E5DDE2E73220BDE8F041B0
:1029E000FFF7F0BE4E214C200A464423BDE8F041DB
:1029F000FFF72CBF4D2153204C220B46BDE8F04180
:102A0000FFF724BF532001464E224D23BDE8F0417D
:102A1000FFF71CBF5320014602464D23BDE8F0419D
:102A2000FFF714BF4D2153200A464423BDE8F0416F
:102A3000FFF70CBF532001464D224423BDE8F0416F
:102A4000FFF704BF53204D214E224423BDE8F0413F
:102A5000FFF7FCBE04130020B4040020B0040020E3
:102A6000A0120020B5040020EE0A0020B1040020CE
:102A7000800A0020A40C002070B5B0FBF2F40646DA
:102A80001546084614B12046FFF7F6FF05FB14640F
:102A9000024B195D00F8011B70BD00BFFC46010828
:102AA0002DE9F84F037802460130202BFAD0092B8C
:102AB000F8D02D2B114600F036812B2B04BF024697
:102AC0004B7800270026C3F6F077A3F130095FFAB0
:102AD00089F0092800F2418102F101080024002553
:102AE00000230022C4F2240320462946FDF7F2FC0D
:102AF000044648460D46FDF787FC02460B46204635
:102B00002946FDF735FB424618F8013B0D46A3F177
:102B100030095FFA89F109290446E1D92E2B00F02A
:102B2000D1801378652B11D0452B0FD000230022C4
:102B3000C3F6F07320462946FDF7CCFC32463B46EF
:102B4000FDF7C8FCFDF788FFBDE8F88F53782D2B03
:102B500000F0F9802B2B00F0FB80501C4FF0000B95
:102B6000A3F13002092A00F2FB804FF0000808EBC5
:102B7000880803EB480110F8013FA1F13008A3F1E8
:102B80003002092AF3D9B8F59A7F40F2D3804FF486
:102B90009A7848F21F59A8F13208C5F2EB19A9FB3F
:102BA000083C73A3D3E9002300210020C3F6F07191
:102BB000CCF30019FDF78EFCB8F1310F02460B463D
:102BC00018D9B9F1000F02D0A8F132080BE0104675
:102BD0001946A8F1640866A3D3E90023FDF77AFC3F
:102BE00063A3D3E90023FDF775FCB8F1310F02466A
:102BF0000B46ECD8B8F1070F2ED9104619465EA344
:102C0000D3E90023FDF766FCA8F1080AD146B9F123
:102C1000070F02460B46CAF3C00A1BD9BAF1000FD0
:102C200005D055A3D3E90023A9F108090BE010460C
:102C30001946A9F1100950A3D3E90023FDF74AFC76
:102C40004DA3D3E90023FDF745FCB9F1070F024678
:102C50000B46ECD808F00708B8F1000F29D0194648
:102C600000231046C4F224030022FDF733FC08F1D0
:102C7000FF38C14602460B4608F00108B9F1000FC3
:102C800017D0B8F1000F09D1194600231046C4F23D
:102C900024030022FDF71EFC09F1FF390023002266
:102CA000C4F22403FDF716FCB9F1010902460B46F4
:102CB000EAD1BBF1000F3FF43DAF20462946FDF7B6
:102CC00033FD3BE7537802F1010EA3F13000C1B2AE
:102CD00009294AD84FF0000902F1020A4FF0000812
:102CE000C4F22409FDF790FB42464B46FDF71CFD5C
:102CF00002460B4620462946FDF73AFA00230022F9
:102D0000C4F2240304460D4640464946FDF7E2FB63
:102D100052461AF8013B8046A3F130008946C1B201
:102D20000929DFD9FEE6002702464B780026CBF6BC
:102D3000F077CAE6B8F1310F3FF62BAF002300223F
:102D4000C3F6F07356E7901C93784FF0010B07E73A
:102D50009378901C4FF0000B02E700240025DDE67D
:102D600000230022C3F6F073A3E77246DAE600BF41
:102D70009A647EC50E1B514A0000000084D797411B
:102D800044F22470C0F6010004F086BE44F2547090
:102D900038B5C0F6010044F26C74C0F6010404F0CA
:102DA0007BFE44F2747144F278722046C0F6010151
:102DB000C0F601020AF0D6FF44F2A07144F2A872F4
:102DC0002046C0F60101C0F601020AF0CBFF44F232
:102DD000BC7144F2C8722046C0F60101C0F601027F
:102DE0000AF0C0FF44F2E87144F2F0722046C0F6E7
:102DF0000101C0F6010244F634350AF0B3FFC0F613
:102E0000010544F6200120462A46C0F601010AF0D9
:102E1000A9FF44F6280144F630022046C0F601011D
:102E2000C0F601020AF09EFF44F6440120462A46FD
:102E3000C0F601010AF096FF44F64C0144F6500238
:102E40002046C0F60101C0F601020AF08BFF44F6ED
:102E50006C0144F674022046C0F60101C0F601027E
:102E60000AF080FF44F6880144F690022046C0F63E
:102E70000101C0F601020AF075FF44F6A00144F614
:102E8000A4022046C0F60101C0F601020AF06AFF62
:102E900044F6D40144F6C8022046C0F60101C0F64B
:102EA00001020AF05FFF44F6DC012046C0F6010192
:102EB0002A46BDE838400AF055BF00BFF8B504F017
:102EC00057FB44F6D353C1F26203A3FB00212C4C01
:102ED0002C482378027889092B480AF043FF02F036
:102EE0008FF82A4A4DF683651668C4F21B350746EB
:102EF000A5FB06032648990C0AF034FF0022254E54
:102F000025491446012505E0611CCCB256F8241071
:102F1000224669B105FA02F00742F5D01F480AF0CF
:102F200021FF611CCCB256F8241022460029F1D1B1
:102F3000012002F049F868B9194804F0ADFD1949BB
:102F40000C8803F0DDF9024617482146BDE8F84039
:102F50000AF008BF154C164B2178164853F821107B
:102F60000AF000FF20780228E6D1134A134892F8AD
:102F70005C40002C0CBF6E216F210AF0F3FEDBE7F2
:102F800040000020EC120020E8480108100000205A
:102F900028490108A4540108E448010848490108E7
:102FA000C84A0108440B00205C490108B00B00200E
:102FB000E84601084C490108A40C002058490108C2
:102FC0002DE9F041064611F007F910F0FF0F23D06C
:102FD000C7B2234930463A4611F02EF9044600287C
:102FE0002AD0204CDFF88880002504E0DDB258F8B4
:102FF0002540002C1BD0214630463A4611F01CF9E2
:103000006B1C0028F2D1184A18481D4621465371FE
:10301000BDE8F0410AF0A6BE1348154B41791548AA
:103020004A1E53F82210BDE8F0410AF09BBE124838
:10303000BDE8F04104F030BD104804F02DFD0C4D0A
:10304000084901340E48E4B20AF08CFE55F8241009
:103050000029F6D10B48BDE8F04104F01DBD00BFCA
:103060009849010880490108A40C0020CC490108B6
:10307000FC45010884490108B4490108A049010838
:1030800048490108C84A010838B50C680546204679
:1030900011F0A2F8024628682146BDE8384011F038
:1030A000CBB800BF44F6E01008B5C0F6010004F04C
:1030B000F3FC002001F096FD44F6EC10C0F6010090
:1030C00004F0EAFC0A2004F08FFA0020BDE8084072
:1030D00004F07EBB2DE9F04F8BB0804611F07CF8F8
:1030E00008284CD09D4C9E4804F0D6FCA0789D4DFD
:1030F0000290607995F88CA095F88D8094F800B0D6
:1031000094F8019005900AA8E278804495F88EC062
:1031100082440AF80CBC08F80C9CDDF8088095F88D
:103120009210844495F88FE095F8907095F891602E
:1031300095F89330039225790CF80C8CDDF80CC0CF
:10314000864404950EF80CCCDDF810E0C71907F89A
:103150000CECE279A579059F44188619C31806F886
:103160000C7C814804F80C5C07A903F80C2C0022A5
:103170008DF824200AF0F6FD0BB0BDE8F08F7B4AF5
:1031800098F800101068C24643185D7808F1060CE4
:1031900005F00306022E08BF20390AF8011B11684A
:1031A00098F80170CDF810C0C819437808F10206EC
:1031B00003F00305022D08BF203F88F80170116855
:1031C00098F8027008F1040BC819437898F80310B6
:1031D00003F00305022D08BF203F88F80270106835
:1031E00008F1030743185D7805F00300022808BFC3
:1031F000203988F80310136898F804105D1868786F
:10320000156800F00303022B14BF0C46A1F1200443
:1032100098F8051088F804406818457808F1050307
:1032200005F00300022814BF0C46A1F1200403930B
:10323000116898F8063088F80540CC18657812684F
:1032400005F00300022898F8075008BF203B88F8D3
:1032500006305319597808F1070401F0030002946D
:10326000022898F800903D4C08BF203D88F8075090
:103270002046494610F0D4FE20B15046494610F091
:10328000CFFE18B13A4804F007FC75E798F8012022
:1032900020461146019210F0C3FE019B0028F1D098
:1032A0003046194610F0BCFE0028EBD198F80260B9
:1032B0002046314610F0B4FE0028E3D038463146AF
:1032C00010F0AEFE0028DDD198F8036020463146AC
:1032D00010F0A6FE0028D5D05846314610F0A0FECA
:1032E0000028CFD198F804602046314610F098FEAF
:1032F0000028C7D00398314610F092FE0028C1D1B3
:1033000098F805602046314610F08AFE0028B9D0B2
:103310000498314610F084FE0028B3D198F8066076
:103320002046314610F07CFE0028ABD00298314692
:1033300010F076FE0028A5D1EDB22046294610F007
:103340006FFE00289ED008F10800294610F068FEA4
:10335000002897D1404601F02DF9C4E67C5D0108B4
:103360001C4A0108A40C0020FC4B0108640000204A
:10337000FC4901082DE9F843074610F02DFF0446EB
:1033800001F060FE0646DCB9334804F085FB334D9E
:103390003349012703E055F8041F013459B107FAF6
:1033A00004F03042F7D02F480AF0DCFC55F8041F37
:1033B00001340029F3D12C48BDE8F84304F06CBB7C
:1033C00038462A49224610F037FF002827D03B789C
:1033D0002D2B36D04FF00009DFF88080204946467B
:1033E000002504E056F8041F0135002924D0384692
:1033F000224610F021FF0028F4D1012000FA05F048
:10340000B9F1000F22D001F013FE194804F044FB7B
:10341000184858F82510BDE8F8430AF0A3BC164830
:1034200004F03AFB0D4C0E490E480AF09BFC54F890
:10343000041F0029F8D1BEE71048BDE8F84304F0A6
:103440002BBB0137013C4FF00109C5E701F0E8FD56
:103450000B4804F021FBDBE7384A0108C8450108A6
:10346000344A010848490108C84A01089849010836
:10347000804A0108FC4B01084C4A0108644A0108D3
:103480008C4A010870B5064644F69820C0F6010043
:1034900004F002FB40F2BC42C2F2000200231546D7
:1034A00045F8043B043545F8043B45F8043B45F832
:1034B000043B45F8043B45F8043B45F8043B45F81C
:1034C000043B45F8043B40F2EC4440F6114145F81A
:1034D000043BC2F20004C2F20001304653602B608C
:1034E00023600B70BDE87040FFF7DCBD44F6B020F0
:1034F00008B5C0F6010004F0CFFA012001F0E0FBAE
:1035000044F6CC20C0F6010004F0C6FA0A2004F00C
:103510006BF80020BDE8084004F05AB938B50446FD
:1035200010F05AFEC1B200295BD13A4C3A48B4F8C7
:103530006A200AF017FC0121B4F86C2036480AF022
:1035400011FC0221B4F86E2033480AF00BFC032171
:10355000B4F8702030480AF005FC0421B4F8722059
:103560002D480AF0FFFB0521B4F874202A480AF020
:10357000F9FB0621B4F8762027480AF0F3FB07216F
:10358000B4F8782024480AF0EDFB0821B4F87A203A
:1035900021480AF0E7FB0921B4F87C201E480AF014
:1035A000E1FB0A21B4F87E201B480AF0DBFB0B216B
:1035B000B4F8802018480AF0D5FB0C21B4F882201A
:1035C00015480AF0CFFB0D21B4F8842012480AF008
:1035D000C9FB1148B4F886200E21BDE838400AF036
:1035E000C1BB204610F016FB0E28054605DD0B4832
:1035F0000F21BDE838400AF0B5BB2021204610F06D
:103600000FFD10F007FB034B03EB4505A5F86A001F
:1036100038BD00BFA40C0020DC4A0108E84A0108BC
:10362000931E222B88BF0A22031E10B50C4605DB11
:10363000FFF722FA00210170204610BD2D2001F86D
:10364000010B5842FFF718FA00220270204610BD05
:1036500070B5002386B00C46002105460393049301
:103660000593FDF713FD002842D041F26F21284653
:10367000C3F60321FDF746FA0021C4F27A41FDF7B3
:1036800049FBFDF70DFD064686EAE670A0EBE67005
:103690000A226946FFF7C4FF002E31DB20218DF896
:1036A0000C10684610F098FD012803AD32D00228B6
:1036B0003CD003286946284626D010F08BFC2846CB
:1036C00010F08AFD0338C6B232462946204610F073
:1036D00021FE0021A155204610F07EFD2E22431C24
:1036E0002254A919E01810F019FD204606B070BD4B
:1036F00041F26F212846C3F60321FDF701FABBE72B
:103700002D208DF80C00CCE730228DF80D2010F024
:1037100061FCD4E73026284669468DF80D608DF8A7
:103720000E608DF80F6010F055FCC8E73023284676
:1037300069468DF80D308DF80E3010F04BFCBEE769
:1037400030B5037983B004460D46052B11D8DFE868
:1037500003F01C1F23262A03806869460068FFF7D0
:1037600077FF01461C480AF0FDFA002D1ED103B078
:1037700030BD002119480AF0F5FA002DF7D018489D
:10378000E16822690AF0EEFAF1E781680978F1E769
:10379000806890F90010EDE783681988EAE782688D
:1037A000B2F90010E6E781680968E3E7E068FDF731
:1037B0005DFA6946FFF74CFF01460A480AF0D2FA63
:1037C0002069FDF753FA6946FFF742FF01460548B5
:1037D0000AF0C8FACBE700BF104B01081C4B0108E8
:1037E000184B0108144B01082DE9F047804610F0F2
:1037F000F3FC0746002865D001285FD040463D21F4
:1038000010F00EFC002857D0441C204610F002FA9D
:1038100082462046FFF744F90026494F8146354647
:103820000DE07C580135204610F0D6FC21460246BA
:10383000404610F001FD80B10135702D72D0BC59A9
:10384000204610F0C9FC21460246404610F0F4FC28
:1038500006F1140128360028E3D1394805EB850527
:1038600000EB8505E868FDF701FA01464846FDF7DB
:1038700003FC002851D02869FDF7F8F901464846B5
:10388000FDF7F0FB002848D02B79052B0CBF4A46EA
:103890005246052B06D8DFE803F003034D4D504A8E
:1038A000A9680A70214627480AF05CFA28460021D8
:1038B000BDE8F047FFF744BFBDE8F08798F8003057
:1038C0002A2B9BD1204804F0E7F800251C4E2C46FB
:1038D00071591E480AF046FA04EB840206EB820096
:1038E0003946FFF72DFF1A4804F0D6F805F1140306
:1038F000F158013415480AF035FA04EB840006EB60
:1039000080003946FFF71CFF0134114804F0C4F869
:103910002835702CDCD1BDE8F0870E48BDE8F047B3
:1039200004F0BAB80C48BDE8F04704F0B5B8A9688F
:103930000A60B7E7AB681A80B4E7A8680260B1E72D
:10394000BC540108384B0108204B0108144C0108F5
:10395000C84A0108444B01086C4B01082DE9F04F9F
:103960008B488BB08B4F0AF0FDF98B48FFF7D6FDE3
:103970007A798A4B511E8A4853F821100AF0F2F9DD
:10398000D7F8186100213046FDF758FB002800F0F9
:10399000938006AD01F056FBDFF83C8281498346F7
:1039A000464681480AF0DEF956F8041F0029F8D18E
:1039B0007C480E464FF00104014603E058F8041F0E
:1039C000013661B104FA06F212EA0B0FF6D077481D
:1039D0000AF0C8F958F8041F01360029F2D17448DA
:1039E0000C468278017897F88CB097F88DA097F8FC
:1039F0008E9097F88F8097F890C097F891E097F89D
:103A0000926097F89330477800910197C1780779D1
:103A1000029242790391049705928779C2792946E7
:103A20000AA8009D83440BF8105C019D82440AF8AB
:103A3000105C029D814409F8105C039D804408F8E5
:103A4000105C049D84440CF8105C059D8644861926
:103A5000C31858480EF8105C06F8107C03F8102CB8
:103A60008DF820400AF07EF9534E254631595348CF
:103A70000AF078F905EB850206EB82000021FFF7DA
:103A80005FFE4F4804F008F804F1140101354B487B
:103A900071580AF067F905EB8500002106EB8000FC
:103AA000FFF74EFE0135464803F0F6FF2834702D2F
:103AB000DCD10BB0BDE8F08F3C464FF0000806ADFE
:103AC0003AE029463046FFF7C3FD01463D480AF07B
:103AD00049F958460021FDF7BBFA00284BD1294689
:103AE0005846FFF7B5FD014636480AF03BF9504607
:103AF0000021FDF7ADFA002839D129465046FFF7DD
:103B0000A7FD01462F480AF02DF948460021FDF790
:103B10009FFA40BB29464846FFF79AFD01462A48CE
:103B20000AF020F90021B8F10C0F28D0D4F8186160
:103B30003046FDF783FA38BB08F1010841462348B7
:103B4000D4F81CB1D4F820A1D4F824910AF00AF9D1
:103B5000304600211034FDF77BFA0028B1D01C4814
:103B60000AF000F9ADE71A480AF0FCF8D2E7184865
:103B70000AF0F8F8C1E716480AF0F4F8AFE70D21AB
:103B800014480AF0EFF805E708F10101F8E700BF73
:103B90008C4B0108A40C0020344B0108FC450108A3
:103BA000BC4B0108344A0108E44B0108F44B0108FE
:103BB0007C5D0108044C0108BC540108104C01084C
:103BC000C84A0108104B0108FC4B0108C84B01080A
:103BD00044490108D04B0108C84501082DE9F047C8
:103BE000002588B004460295039510F0F5FA10F010
:103BF000FF0F40F0FD82C14CC14803F04DFFD4F8E7
:103C000018012946FDF71AFA002840F06F83BD48D5
:103C100001210AF0A7F804A9D4F81801FFF718FD4C
:103C20000146B9480AF09EF804A9D4F81C01FFF730
:103C30000FFD0146B4480AF095F804A9D4F8200114
:103C4000FFF706FD0146B0480AF08CF804A9D4F845
:103C50002401FFF7FDFC0146AC480AF083F8D4F8D4
:103C600028012946FDF7EAF9002840F04B83A548D2
:103C700002210AF077F804A9D4F82801FFF7E8FC3C
:103C80000146A1480AF06EF804A9D4F82C01FFF708
:103C9000DFFC01469C480AF065F804A9D4F830011D
:103CA000FFF7D6FC014698480AF05CF804A9D4F85E
:103CB0003401FFF7CDFC014694480AF053F8D4F8DC
:103CC00038012946FDF7BAF9002840F01D838D48D8
:103CD00003210AF047F804A9D4F83801FFF7B8FC2B
:103CE000014689480AF03EF804A9D4F83C01FFF7E0
:103CF000AFFC014684480AF035F804A9D4F8400125
:103D0000FFF7A6FC014680480AF02CF804A9D4F875
:103D10004401FFF79DFC01467C480AF023F8D4F8E3
:103D200048012946FDF78AF9002840F0EF827548DE
:103D300004210AF017F804A9D4F84801FFF788FC19
:103D4000014671480AF00EF804A9D4F84C01FFF7B7
:103D50007FFC01466C480AF005F804A9D4F850012C
:103D6000FFF776FC0146684809F0FCFF04A9D4F887
:103D70005401FFF76DFC0146644809F0F3FFD4F8E5
:103D800058012946FDF75AF9002840F0C1825D48E4
:103D9000052109F0E7FF04A9D4F85801FFF758FC02
:103DA0000146594809F0DEFF04A9D4F85C01FFF789
:103DB0004FFC0146544809F0D5FF04A9D4F860012E
:103DC000FFF746FC0146504809F0CCFF04A9D4F89F
:103DD0006401FFF73DFC01464C4809F0C3FFD4F8ED
:103DE00068012946FDF72AF9002840F093824548EA
:103DF000062109F0B7FF04A9D4F86801FFF728FCF1
:103E00000146414809F0AEFF04A9D4F86C01FFF760
:103E10001FFC01463C4809F0A5FF04A9D4F8700135
:103E2000FFF716FC0146384809F09CFF04A9D4F8B6
:103E30007401FFF70DFC0146344809F093FFD4F8F4
:103E400078012946FDF7FAF8002840F065822D48F0
:103E5000072109F087FF04A9D4F87801FFF7F8FBE0
:103E60000146294809F07EFF04A9D4F87C01FFF738
:103E7000EFFB0146244809F075FF04A9D4F880013E
:103E8000FFF7E6FB0146204809F06CFF04A9D4F8CF
:103E90008401FFF7DDFB01461C4809F063FFD4F8FD
:103EA00088012946FDF7CAF8002840F037821548F6
:103EB000082109F057FF04A9D4F88801FFF7C8FBCF
:103EC0000146114809F04EFF04A9D4F88C01FFF710
:103ED000BFFB01460C4809F045FF04A9D4F8900146
:103EE000FFF7B6FB0146084809F03CFF04A9D4F8E7
:103EF0009401FFF7ADFB01460AE000BFA40C0020CF
:103F0000244C0108504C0108584C0108FC4B010896
:103F1000AF4809F027FFD4F898012946FDF78EF83D
:103F2000002840F0FD81AB48092109F01BFF04A9DE
:103F3000D4F89801FFF78CFB0146A74809F012FF5F
:103F400004A9D4F89C01FFF783FB0146A24809F0BD
:103F500009FF04A9D4F8A001FFF77AFB01469E48A7
:103F600009F000FF04A9D4F8A401FFF771FB014692
:103F7000974809F0F7FED4F8A8012946FDF75EF846
:103F8000002840F0CF8193480A2109F0EBFE04A9F4
:103F9000D4F8A801FFF75CFB01468F4809F0E2FE68
:103FA00004A9D4F8AC01FFF753FB01468A4809F095
:103FB000D9FE04A9D4F8B001FFF74AFB01468648B0
:103FC00009F0D0FE04A9D4F8B401FFF741FB014683
:103FD0007F4809F0C7FED4F8B8010021FDF72EF89C
:103FE000002840F0A1817B480B2109F0BBFE04A909
:103FF000D4F8B801FFF72CFB0146774809F0B2FE70
:1040000004A9D4F8BC01FFF723FB0146724809F06C
:10401000A9FE04A9D4F8C001FFF71AFB01466E48B7
:1040200009F0A0FE04A9D4F8C401FFF711FB014672
:10403000674809F097FED4F8C8010021FCF7FEFF9D
:104040000B2740BB63480C2109F08CFE04A9D4F86F
:10405000C801FFF7FDFA01465F4809F083FE04A995
:10406000D4F8CC01FFF7F4FA01465B4809F07AFE78
:1040700004A9D4F8D001FFF7EBFA0146564809F03D
:1040800071FE04A9D4F8D401FFF7E2FA01465048C2
:1040900009F068FE0C27514E0020D6F81C11FCF7E1
:1040A00031FD04EB0714D6F8201107460020FCF779
:1040B00029FDD6F8241180460020FCF723FDA51B1E
:1040C000103DC5F3001A06F11005A542814642D005
:1040D000BAF1000F15D0D5F81C113846FCF712FDC7
:1040E000D5F8201107464046FCF70CFDD5F8241101
:1040F00080464846FCF706FD06F12005A5428146AC
:1041000029D0D5F81C113846FCF7FCFCD5F8201155
:1041100007464046FCF7F6FCD5F824118046484691
:10412000FCF7F0FC05F11006D6F81C1105463846E0
:10413000FCF7E8FCD6F8201107464046FCF7E2FC05
:10414000D6F8241180462846FCF7DCFC06F1100561
:10415000A5428146D5D12248CDF80880CDF80C90F3
:1041600003F09AFC4DF20A71C3F6234127F0004098
:10417000FCF78CFF1B491C4A002814BF1046084658
:1041800003F08AFC02984DF20A71C3F6234120F035
:104190000040FCF77BFF144D124C002814BF28464A
:1041A000204603F079FC039B4DF20A71C3F62341CC
:1041B00023F00040FCF76AFF002814BF2846204681
:1041C00003F06AFC094803F067FC08B0BDE8F0871B
:1041D000FC4B0108504C0108584C0108A40C00206D
:1041E0005C4C01081C4C0108204C0108C84A01081D
:1041F00020464E49042210F01FF80546204625BBF4
:1042000020210FF00DFF0028DFD0471C38460FF0AB
:10421000E3FF474E5FFA80F8464C04E056F8044F3F
:104220000135002C5AD021463846424610F004F899
:104230000028F3D1284606F0C9FE3F48214609F080
:1042400091FD3E48FFF7CAFCBFE70FF0E3FC451EB7
:104250000B2D50DC204620210FF0E2FE0446002802
:104260004ED0441C2046FEF71BFC354B012603EBC9
:104270000511C1F81801204620210FF0D1FE044697
:1042800048B1441C2046FEF70BFC2D4A013602EBD8
:104290000513C3F81C01204620210FF0C1FE04467F
:1042A00048B1441C2046FEF7FBFB2549013601EBD3
:1042B0000512C2F82001204620210FF0B1FE48B1BE
:1042C0000130FEF7EDFB1E4B032E03EB0515C5F881
:1042D000240107D01B4803F0DFFB76E71A4803F000
:1042E000DBFB72E71548FFF779FC6EE7174803F030
:1042F000D3FB174844E717480C2109F033FD64E766
:104300000646B8E70127C6E60227C4E60327C2E649
:104310000427C0E60527BEE60627BCE60727BAE65F
:104320000827B8E60927B6E60A27B4E66C4C010868
:10433000FC45010880490108744C0108344B010810
:10434000A40C0020884C0108B44901085C4C010809
:104350001C4C0108C44C01082DE9F04FDFF85082D5
:1043600087B098F80030002B00F0F680834800F109
:10437000040A03F049FB002871D003F065FB09280B
:10438000034614D03F2812D07D4C2268002A75D0F5
:104390000C2800F0CF800A2B00F08F800D2B00F04E
:1043A0008C807F2B00F0CF802F2AE2D86DE0744DF7
:1043B000744C2E680027324604F19C0B3E46914611
:1043C000002A4FD12746002E56D00C345C45F7D337
:1043D0004846B1460646B9F1000F18D0D9F800009A
:1043E0003968835C8C5C80189C4211440FD1DFF8E3
:1043F000A0E113B95BE0002B59D00EF8023010F8A1
:10440000013F11F8014F0132A342F4D02A6012B1EA
:10441000B94500F096805C4803F03EFB4F4528BF4D
:104420004C4608D354F80C0B03F036FB092003F07C
:104430001BFBBC42F6D95548002603F02DFB2A6829
:104440003446B24295D9524E305D03F00DFB2A68D6
:1044500001349442F8D303F0D7FA00288DD107B085
:10446000BDE8F08F21684A480FF0E6FE2A68002870
:10447000ABD12746002EA8D12646A6E7042879D03E
:104480000C2857D07F2B3FF474AF1F2B7FF671AFF2
:104490007E2B3FF66EAF12B9202B3FF46AAF3C4D36
:1044A000511C1846AB54216003F0DEFA61E720236B
:1044B0000EF8023001322A60A9E7364803F0ECFA20
:1044C000334D27683448002600902E49EE5503A846
:1044D0000D220C23039504960FF0A0FB074600283D
:1044E00044D000680FF078FE421CBB68A8189847BB
:1044F0002A4900200A4698F8006042F8040B286018
:1045000002F1080741F8180CCAF8000041F8100C35
:1045100041F80C0C41F8080C41F8040C0D1F4860E0
:1045200050609060D0602060002E98D0174803F053
:10453000B3FA1EE71A4803F0AFFA144803F0ACFAD6
:1045400017E734467DE7124B013A002115482260F7
:10455000995403F0A1FA0CE70121134888F80010E0
:1045600003F09AFA094803F097FAFFE60F4803F0C0
:1045700093FABDE70648FEF785FF70E7C004002008
:10458000EC0400204C4601082C4D0108244D010884
:10459000BC040020C84A010889300008D804002063
:1045A000344D0108644D0108EC4C0108404D0108F0
:1045B000110C0020F8B50178054679B1084F094E75
:1045C000044607480FF02CFDC31B621BF11808B10D
:1045D00081F88C2014F8011F0029F2D1F8BD00BF2A
:1045E0007C5D0108A40C00202DE9F04FEE4F4FF444
:1045F0007C4187B0C0F601014FF4EE7238460FF0EF
:10460000A5FB97F82D306FF0140C0CFB03F0C3EBF7
:104610000376310197F82C20C3EB437400F6C418DD
:1046200001F6C410C3EBC40500EB4006A3EB8309FD
:104630004FEAC90305F6C41402FB06F603F6C41AD2
:104640004FEA480BA40043F2D40102FB0BFC0AFB27
:1046500002F902FB04F401FB02F148F6AD32C6F6A2
:10466000DB0282FB060B82FB0C58CDF804B082FB08
:10467000090A82FB01B082FB04B5E41797F82E30DB
:1046800000944FEAEC7CB7F8A640CCEBA82CDDF800
:10469000008004900594C3F164040294C3F1000BFC
:1046A000C8EBA524049D1FFA8BFBC048AD0ACDF8CA
:1046B0000CB04FEAE979C9EBAA29DDF808B0DDF8BA
:1046C00004A00195039DF617A0F80290DDF8049070
:1046D000C6EBAA265FFA8BFA0FFA85FB0025058048
:1046E000A0F804C00481C680A0F80A9003FB03F080
:1046F00097F82F10B7F8A420DDF814C003EB830857
:10470000BBF1000F4FEA4808C1F16405C2EB0C048D
:104710000AFB0AFA019040F3038256460BFB0BF0AA
:1047200001FB00F090FBF6F6701900FB0BFB46F264
:104730006766C6F2666686FB0BC04FEAEB79C9EB8B
:10474000A00608EB060006B204FB06F644F6D35CAE
:10475000C1F2620C8CFB060EC3F10A0BF6171FFAAE
:104760008BFCC6EBAE1992480FFA8CF602EB090EE1
:10477000002EA0F800E040F32A82D44606FB06F99A
:1047800001FB09FE9EFBFCFB0BEB050C0CFB06F68C
:1047900046F26769C6F2666989FB06BEF617C6EB84
:1047A000AE06464436B204FB06F644F6D35BC1F2CD
:1047B000620B8BFB06C9C3F1140CF6171FFA8CFBB6
:1047C000C6EBA91E0FFA8BF602EB0E09002EA0F81D
:1047D000029040F3F381D64606FB06FB01FB0BF982
:1047E00099FBFEFC0CEB050E0EFB06F646F2676B22
:1047F000C6F2666B8BFB06B9F617C6EBA9064644F4
:1048000036B204FB06F644F6D35CC1F2620C8CFBB4
:1048100006CEC3F11E0BF6171FFA8BFCC6EBAE19C2
:104820000FFA8CF602EB090E002EA0F804E040F31C
:10483000BC81D44606FB06F901FB09FE9EFBFCFB8E
:104840000BEB050C0CFB06F646F26769C6F26669CF
:1048500089FB06BEF617C6EBAE06464436B204FB2D
:1048600006F644F6D35BC1F2620B8BFB06C9C3F1BB
:10487000280CF6171FFA8CFBC6EBA91E0FFA8BF655
:1048800002EB0E09002EA0F8069040F38581D64673
:1048900006FB06FB01FB0BF999FBFEFC0CEB050E7E
:1048A0000EFB06F646F2676BC6F2666B8BFB06B92B
:1048B000F617C6EBA906464436B204FB06F644F6E4
:1048C000D35CC1F2620C8CFB06CEC3F1320BF6173F
:1048D0001FFA8BFCC6EBAE190FFA8CF602EB090E31
:1048E000002EA0F808E040F34E81D44606FB06F9FE
:1048F00001FB09FE9EFBFCFB0BEB050C0CFB06F61B
:1049000046F26769C6F2666989FB06BEF617C6EB12
:10491000AE06464436B204FB06F644F6D35BC1F25B
:10492000620B8BFB06C9C3F13C0CF6171FFA8CFB1C
:10493000C6EBA91E0FFA8BF602EB0E09002EA0F8AB
:104940000A9040F31781D64606FB06FB01FB0BF9E4
:1049500099FBFEFC0CEB050E0EFB06F646F2676BB0
:10496000C6F2666B8BFB06B9F617C6EBA906464482
:1049700036B204FB06F644F6D35CC1F2620C8CFB43
:1049800006CEC3F1460BF6171FFA8BFCC6EBAE1929
:104990000FFA8CF602EB090E002EA0F80CE040F3A3
:1049A000E080D44606E000BFA40C002030130020B5
:1049B000B412002006FB06F901FB09FE9EFBFCFB7E
:1049C0000BEB050C0CFB06F646F26769C6F266694E
:1049D00089FB06BEF617C6EBAE06464436B204FBAC
:1049E00006F644F6D35BC1F2620B8BFB06C9C3F13A
:1049F000500CF6171FFA8CFBC6EBA91E0FFA8BF6AC
:104A000002EB0E09002EA0F80E9040F3A180D646CE
:104A100006FB06FB01FB0BF999FBFEFC0CEB050EFC
:104A20000EFB06F646F2676BC6F2666B8BFB06B9A9
:104A3000F617C6EBA906464436B204FB06F644F662
:104A4000D35CC1F2620C8CFB069EC3F15A03F617CD
:104A50009BB2C6EBAE1B1EB202EB0B09002EA0F8F8
:104A600010906DDD534606FB06FE01FB0EFB9BFB23
:104A7000F3F35B1903FB06F646F26763C6F266635F
:104A800083FB06C3F617C6EBA30308EB030633B29A
:104A900004FB03F344F6D356C1F2620686FB039689
:104AA000DDF808B0DB171FFA8BF9C3EBA6160FFA77
:104AB00089F39619002B46823ADD03FB03F601FBCE
:104AC00006F191FBFAFA554405FB03F346F26761E0
:104AD000C6F2666181FB03C1DB17C3EBA101884409
:104AE0000FFA88F804FB08F444F6D353C1F26203CA
:104AF00083FB0413E117C1EBA314B7F8C810B7F890
:104B0000CA3012199942828205D33548B0F8CC30A8
:104B10008B4228BF0B46A7F8C83007B0BDE8F08F1E
:104B2000019EDDF80CE0BEF1000F08BF0126F5E59F
:104B3000DDF804A0B9F1000F08BF4FF0010ABCE78F
:104B4000DDF804C0002B08BF4FF0010C63468AE774
:104B5000DDF804C0BBF1000F08BF4FF0010CE646C2
:104B600056E7DDF804B0BCF1000F08BF4FF0010BB1
:104B7000DC461FE7DDF804C0BBF1000F08BF4FF0B3
:104B8000010CE646E0E6DDF804B0BCF1000F08BF1A
:104B90004FF0010BDC46A9E6DDF804C0BBF1000FC5
:104BA00008BF4FF0010CE64672E6DDF804B0BCF138
:104BB000000F08BF4FF0010BDC463BE6DDF804C0F8
:104BC000BBF1000F08BF4FF0010CE64604E6DDF82C
:104BD00004B0BCF1000F08BF4FF0010BDC46CDE57F
:104BE000A40C00202DE9F041344B4FF4EE72BE26A8
:104BF0001D465A801E71EF220026282183F8D961B4
:104C0000197083F8D821064613F8012F05F2DB103E
:104C100004E05C785A1C527861400233834281EA96
:104C20000201F6D185F8D911FCF7D8FD3420FCF744
:104C3000EFFD4FF47C40C0F60100FCF759FE04285C
:104C40000DD0FCF7DBFDFFF7CFFC0EB9BDE8F0811E
:104C50000F2014210122BDE8F04106F00DBF174BD3
:104C60004FF47C40C0F601001968FCF70DFE4FF6CA
:104C7000DC580428C0F60108E3D14FF60444C0F61E
:104C8000010406E01968FCF7FFFD0428D9D144456A
:104C9000D7D0611901F17842A2F5FE331968204698
:104CA000FCF7F2FD271DE91901F1784208340428C8
:104CB000A2F5FE333846E5D0C3E700BFA40C0020C0
:104CC0002DE9F04F4FF47C43C0F60103197885B00D
:104CD000282900F04881B94FB94C3868796801AE8D
:104CE00003C64FF4EE720021204697F808904FF06B
:104CF000170A0FF0D9F84FF0030B01AB03CB84F880
:104D000005B0282384F822A084F823A04FF0020BDA
:104D10004FF0370A4FF02D0C4FF00B082370C4F8FA
:104D200008B0A373E37384F810A0A375C4F84A1005
:104D300063231E214FF00F0B4FF0070A1426322772
:104D400084F81AC084F8118084F81BB084F825A078
:104D500084F8128084F827C084F82C304FF00E0CB1
:104D6000217661760A2304214FF008084FF0500B9A
:104D70004FF0460A84F814C0C4F8460084F81D8039
:104D800084F828B084F815A084F84E90E37784F86E
:104D90002E70E674A67784F8296084F82D604FF4AD
:104DA000C87384F850102A21A4F85430A4F8521083
:104DB000152349F69A1184F85D30C3F6197141F252
:104DC000034242F6F60366F31F422166C3F67C7384
:104DD00020210125636684F868102B232121A26518
:104DE00078486E224FF00A0984F85190A4F81471A3
:104DF00084F8882084F8893084F88A1084F85C501C
:104E0000FFF7D8FB40F24C4AA4F89AA00AF5487A7A
:104E1000A4F89CA04FF00A0A84F89FA04FF4966A69
:104E2000A4F8A2A040F27E4AA4F8A4A00AF52F7A22
:104E3000A4F8A6A04FF47A7A40F2DC524FF47F71C6
:104E40004FF0000C40F2BC784FF4FA694FF0C80BF9
:104E5000A4F8A8A0A4F8AC704FF4F57AFF27A4F842
:104E60009820A4F8C820A4F8CA10A4F8CE10A4F87A
:104E7000D020A4F8D410A4F8D62084F8DF70A4F8C9
:104E8000E2100A27A4F8E420A4F8E81084F8966059
:104E900084F8A0B0A4F8AAA084F8C650A4F8CC90D6
:104EA000A4F8D280A4F8D88084F8DAC084F8DBC0F3
:104EB00084F8DCC084F8DD5084F8DE5084F8E050DB
:104EC000A4F8E680A4F8EA20A4F8F210A4F8F620EA
:104ED000A4F8F810A4F8FC2064214FF4E132002378
:104EE00084F8EE7084F8EF70C4F800211E27A4F84F
:104EF0000A114FF496724FF4E1316046A4F8EC8049
:104F000084F8E15084F8F050A4F8F490A4F8FA90F2
:104F100084F8FEC0A4F804B184F8066184F807712F
:104F200084F80851A4F80C21C4F81011C4F8183101
:104F3000C4F82831C4F83831C4F84831C4F85831BD
:104F4000C4F86831C4F87831C4F88831C4F89831AD
:104F5000C4F8A831C4F8B831C4F8C83105B0BDE808
:104F6000F04FFFF73FBE5A88B2F5EE7F7FF4B3AE45
:104F70001D79BE2D7FF4AFAE93F8D831EF2B7FF4BF
:104F8000AAAE4FF60143C0F601034FF6DB551A787F
:104F9000C0F6010504E05C785A1C52786140023387
:104FA000AB4281EA0201F6D100297FF494AE0028D9
:104FB0007FF491AE05B0BDE8F08F00BF8C450108CD
:104FC000A40C0020885D010840F2F043C2F2000307
:104FD000196808420CBF00200120704740F2F043DE
:104FE000C2F200031A6810431860704740F2F043A1
:104FF000C2F200031A6822EA00001860704700BF7E
:1050000040F2F043C2F200031868704740F6A44330
:10501000C2F20003996808420CBF002001207047CB
:1050200040F6A443C2F200039A68104398607047A8
:1050300040F6A443C2F200039A6822EA0000986096
:10504000704700BF40F6A443C2F20003986870475F
:105050002DE9F04107788046082090B00037C4F26F
:10506000020018BF0127FCF773FA42F24C434F4885
:10507000C4F201030022FCB2059306900792002CB3
:1050800000F08E8002250895099280264FF48073E7
:10509000082000254FF48062C4F2020005A90A9698
:1050A0000B9320264FF400530C920D960E930F9500
:1050B000FCF7FAFA0820C4F202000121FCF716FB03
:1050C00001264FF4602000958DF804708DF805607E
:1050D00002900395002C50D04FF4105002246946E2
:1050E000C4F201008DF81040FCF78EF94FF4105017
:1050F0003246C4F2010004210323FCF7DDF94FF42A
:105100001050C4F2010098F8001022460323FCF767
:10511000D3F94FF41050C4F201000121FCF7A4F9B7
:105120004FF41050C4F201000121FCF793F94FF441
:105130001050C4F20100FCF7A1F94FF41050C4F272
:105140000100FCF7A1F90028F7D14FF41050C4F288
:105150000100FCF79DF94FF41050C4F20100FCF778
:105160009DF90028F7D14FF41050C4F2010001213D
:10517000FCF798F910B0BDE8F0814FF41050694683
:10518000C4F201008DF81060FCF73EF94FF41050A6
:10519000C4F20100042132460323FCF78DF9B8E77D
:1051A000012108910994264670E700BFF40400200D
:1051B00040F2F443C2F2000333F8100080B27047AB
:1051C000704700BF2DE9F04F534B87B01A7802901B
:1051D00032215320002A7FD0082204AB00F02CFF9C
:1051E0009DF810109DF813409DF812209DF8155061
:1051F0009DF811609DF814009DF8173001EB06260C
:1052000002EB042100EB0522012415B25A060FFA25
:1052100086FB0FFA81FA50D03221082204AB5320CA
:1052200000F00AFF671C9DF81560FCB29DF813C0E2
:105230009DF81270019607EB0C279DF81190DDF890
:1052400004C09DF810809DF81460601C06EB0C26CD
:1052500008EB09289DF817C036B20390322153207D
:1052600008220FFA88F83FB2202C354404ABC3441F
:10527000BA440CF07F0620D0FEB1039C00F0DCFEA7
:105280009DF814309DF815209DF812109DF81170AE
:105290009DF810009DF8136003EB02229DF8173073
:1052A00001EB062600EB072031B200B216B25B0616
:1052B000E4B283448A443544AED1029E17489BFB36
:1052C000F4F29AFBF4F395FBF4F532807380B58029
:1052D000047007B0BDE8F08F062204AB00F0ACFE0E
:1052E0009DF811509DF810109DF813409DF8122064
:1052F0009DF815009DF81430DDF808C001EB05217C
:1053000002EB042203EB0020ACF80010ACF8022002
:10531000ACF80400DDE700BFF8040020F904002029
:1053200008B5144B2D211B780822532083B900F0B7
:105330007FFF31210A22532000F07AFF53202C21D5
:105340000B2200F075FF0C4840F20912028008BDE4
:1053500000F06EFF31210A22532000F069FF2C215A
:105360000C22532000F064FF38219022532000F0DB
:105370005FFFE8E7F80400206000002070B582B00D
:10538000002402AB06460D4603F8014D532021468A
:10539000012200F051FE20B19DF80730E52B02D02C
:1053A000204602B070BD3278044805490270054BB2
:1053B000054A29606B60AA600120F2E7F80400202A
:1053C00021530008C5510008C1510008344B35492C
:1053D0005A890888F0B41C89851A04FB05F5B3F9CD
:1053E0001260B3F91470EA13F002D11990FBF1F4D2
:1053F0001119A1F57A6202FB02F5B3F90260B3F963
:105400000E70281306FB02F407FB00F7E612B3F94F
:105410000050B3F9204006EBE72707EB850707FAB2
:1054200004F74CF2503646FA04F4B3F90C60B3F9C1
:10543000045006FB00F005FB02F200141A4E00EBCC
:105440006232951C3668AA10B81CDD8802F500424D
:10545000A6EBA00005FB02F204FB00F4D961D10B1E
:10546000002C18DB6200B2FBF1F3181200FB00F015
:105470004EF24331CFF6FF7101FB03F140F6DE320D
:1054800002FB00F0091401EB204000F6CF6203EBB1
:105490002210F0BC7047B4FBF1F35B00E5E700BFFE
:1054A000000500202A0500202405002000B5114B2E
:1054B00083B0187818B910490A88531C0B80F6215C
:1054C000032201AB772000F0B7FD9DF805100B4BD0
:1054D0009DF804000A02B3F920309DF8061042EA54
:1054E00000400843C3F1080220FA02F004490860B2
:1054F00003B000BDFA040020FC04002000050020D9
:105500002405002000B50C4B83B0187818B90B495E
:105510000A88531C0B80F621022201AB772000F091
:105520008BFD9DF804009DF80510054B41EA002213
:105530001A8003B000BD00BFFA040020FC04002064
:105540002A05002040F20053C2F2000393F8202005
:1055500010B49401343440F2FA43C2F2000304F070
:10556000FC0277200024F4211C7010BC00F060BE07
:1055700010B440F2FA43C2F2000300247720F42171
:105580002E221C7010BC00F053BE00BF10B54FF4AB
:105590008040FCF70DF90128044600D010BD4FF4FF
:1055A0008040FCF715F9014B1C7010BDFA04002077
:1055B0002DE9F04F884CA1B094F800800746B8F16F
:1055C000000F03D0012021B0BDE8F08F4FF48059C7
:1055D000C4F20109102302254FF4005A484616A9C7
:1055E0008DF85B304FF480468DF85A50ADF858A0D6
:1055F000FCF79EF90422484616A98DF85B20ADF809
:105600005860FCF795F90E212846C9F810A0FCF760
:105610000FFB0125082118A88DF8651018968DF844
:1056200064800F268DF86650FCF784F8282317A8AD
:105630008DF85C308DF85D608DF85E608DF85F50A0
:10564000FBF7A4FE142001F0CFFF7720D0212A46DB
:105650000DF1570300F0F0FC9DF857005F4E032258
:105660005528F075328403D0C9F814A04046AAE743
:10567000D1212A460DF15703772000F0DDFC9DF87B
:105680005710162201F00F0C4FEA111E1AABAA2177
:10569000772086F818C086F819E000F0CDFC9DF858
:1056A00070309DF8698009939DF871309DF86AC04B
:1056B0000A939DF872309DF86CB00B939DF873308F
:1056C0009DF86DA00C939DF874309DF868900D9333
:1056D0009DF875309DF86B000E939DF876309DF81F
:1056E0006F100F939DF877309DF86E2010939DF802
:1056F000783048EA092911939DF879304AEA0B2855
:1057000003939DF87A3040EA0C2012939DF87B3089
:1057100041EA022202939DF87C3013939DF87D307C
:10572000DDF828C0DDF824B00193CDF81490069080
:1057300007924CEA0B29DDF830A00B990E9B0D98CF
:10574000109ADDF83CB0CDF8108043EA002C4AEA0C
:10575000012842EA0B20DDF80CA0029BDDF848B0DE
:10576000119943EA0B224AEA0121DDF804B0DDF881
:105770004CA0F0814BEA0A23DDF814B0DDF818A044
:10578000A6F800B0A6F802A0DDF810B0DDF81CA065
:105790003182A6F804B041F2F811A6F806A0A6F8E6
:1057A0000890A6F80A80A6F80CC0728246F29052C1
:1057B00039807A800A490B4AB38241F28833BB8030
:1057C000B960FA60084B0949094A284625703B61CF
:1057D0007961BA61F7E600BF2805002000050020C6
:1057E000715500080555000845550008AD540008DE
:1057F000CD53000808B5144B4FF44060C4F20100CB
:105800001988FCF7CFF9C8B901F092FE0F490B686F
:1058100098420DD943F6BF42C01AC2F2B62282FBAB
:1058200000120B49C317C3EBE202086893B203806E
:1058300008480068BDE80840FBF7CABF01F078FEE1
:1058400002490860F4E700BF30050020340500205D
:105850003C05002038050020FFF7CCBFFFF7CABF8A
:105860002DE9F041DFF8F48084B0002855D1364CA2
:10587000364F374E37494FF400704FF4807309228A
:1058800017250B80A8F8000020603A7035704FF49F
:1058900040601025C4F2010001A9ADF804300223D4
:1058A0008DF806308DF80750FCF742F8B8F8002064
:1058B0004FF440600423C4F2010001A98DF80730C1
:1058C000ADF80420FCF734F839780120FCF7B0F982
:1058D0002068FBF77DFF21680022012402A80291C5
:1058E0008DF80C208DF80E408DF80D50FBF722FF3F
:1058F00030784FF4614300F01F0104FA01F442B222
:10590000CEF20003500943F8204001F031FE124B63
:105910003C38186004B0BDE8F081012805D00D4B7B
:10592000094C1B88094F0A4EB1E7074C074F084E38
:10593000084A022107251080A8F80010216038705D
:1059400035700346A3E700BF38050020420500205C
:1059500032050020400500202C05002030050020E5
:1059600038B5044601F004FE0E4B024619683C317E
:10597000884200D238BD0C4D1A604FF440600B4A8B
:105980002988C4F201001460FCF712F90B2001F021
:10599000F5FD4FF440602988C4F20100BDE83840AD
:1059A000FCF708B92C050020400500203C0500202C
:1059B00000B583B0002202AB03F8012D1E200A219E
:1059C000012200F039FB30B19DF80700B0F1480327
:1059D000594251EB030003B000BD00BF00B54FF4C6
:1059E000805383B04FF44060022201A9ADF8043027
:1059F000C4F2010004238DF806208DF80730FBF770
:105A000097FF642001F0F0FD1E200021782200F0B5
:105A10000FFC322001F0E8FD03B000BD10B50021FD
:105A2000792204461E2000F003FC322001F0DCFD48
:105A3000012122461E2000F0FBFB1E200221012234
:105A4000BDE8104000F0F4BB08B5002178221E200C
:105A500000F0EEFB012120221E2000F0E9FB1E20B9
:105A600002210022BDE8084000F0E2BB70B582B020
:105A70000446032106226B461E2000F0DDFA9DF845
:105A800000609DF801109DF802509DF803209DF8DC
:105A900004009DF8053041EA062142EA052243EA66
:105AA000002021806280A08002B070BD2DE9F04FFF
:105AB000934E83B03468A38A9AB212F0010148D1A0
:105AC00002F00200C0B2002825D0BFF35F8F8D4DD9
:105AD00095F800804746012F00F0AE80218BCBB2B5
