:020000040800F2
:10000000005000205953010809540108B5ED0008BB
:1000100009540108095401080954010800000000AE
:10002000000000000000000000000000095401086A
:1000300009540108000000000954010855B30008E4
:100040000954010809540108095401080954010818
:10005000095401080954010809540108E5930008EE
:1000600009540108095401080954010809540108F8
:100070000954010809540108E1B6000809540108AF
:1000800009540108095401080954010809540108D8
:10009000095401080954010809540108E9930008AA
:1000A000095401080954010809540108FDB0000869
:1000B0007DB1000889B1000899B10008459B00088E
:1000C000D59F0008499B0008D19F000809540108EA
:1000D000095401080954010861BA000809540108CB
:1000E000C9900008095401080954010800000000E3
:1000F0000000000000000000000000000000000000
:0C01000000000000000000005FF808F1A3
:1001100010B540F25C14C2F20004237863B940F2D7
:100120000000C0F2000028B147F6F010C0F6010050
:10013000AFF300800121217010BD00BF08B540F26F
:100140000003C0F200034BB147F6F01040F260111B
:10015000C0F60100C2F20001AFF3008040F25C1073
:10016000C2F20000016829B140F20003C0F20003AE
:1001700003B1984708BD00BF2DE9F04120F00045CC
:10018000B5F1A14F044606460EDBB5F1FF4F00F373
:10019000A480002840F6DB74C8BFC3F6C97440F3DE
:1001A000D9802046BDE8F0814FF6FF73C3F6DF63C8
:1001B0009D4200F3A780B5F1445FC0F295804FF0F7
:1001C000FF372146204603F037FB0146804603F007
:1001D00033FB46F6D711C3F68541054603F02CFBE9
:1001E0004DF65921C3F64B5103F01EFA294603F090
:1001F00023FB46F63531C3F6885103F015FA29463C
:1002000003F01AFB42F66E61C3F6BA5103F00CFA22
:10021000294603F011FB44F62511C3F6126103F0E1
:1002200003FA294603F008FB4AF6AB21C3F6AA619C
:1002300003F0FAF9414603F0FFFA4AF22121CBF626
:1002400015518046284603F0F7FA4FF26B11C3F6BA
:100250006E5103F0E7F9294603F0EEFA48F2957182
:10026000C3F69D5103F0DEF9294603F0E5FA48F69E
:100270003861C3F6E35103F0D5F9294603F0DCFAFF
:100280004CF6CD41C3F64C6103F0CCF9294603F09E
:10029000D3FA7B1C014651D045F23045404603F06D
:1002A000C3F9C0F60105214603F0C6FA05EB870342
:1002B000196903F0B7F9214603F0B4F9014655F87E
:1002C000270003F0AFF9002EB8BF00F10044FFF69D
:1002D00068AF04462046BDE8F081014603F0A4F96A
:1002E00004462046BDE8F0814FF2CA21C7F2491109
:1002F00003F09AF94FF07E5103F05AFC00283FF4C6
:100300005EAF4EE700F08CF84FF6FF73C3F69773BD
:100310009D424FF6FF7304461FDCC3F62F739D42C8
:100320003DDC0146002703F07FF94FF07E5103F0DA
:1003300079F94FF08041054620461FE0404603F022
:1003400073F9214603F078FA0146204603F06AF972
:10035000044626E7CBF6C97423E7C4F21B039D428B
:1003600014DC4FF07F51022703F05CF94FF07F510E
:100370000546204603F060FA4FF07E5103F054F931
:100380000146284603F00CFB04461AE700202146EC
:10039000CBF68070032703F003FB044611E74FF010
:1003A0007E51012703F03EF94FF07E51054620466D
:1003B000E4E700BF40F6D87320F00042C3F649736B
:1003C00001469A4200B583B015DDB2F1FF4F03DB61
:1003D00003F028F903B000BD694601F061FB00F0AD
:1003E00003020098012A10D0022A08D09AB9019974
:1003F00001F05AFDEEE7002101F056FDEAE7019910
:1004000001F052FD00F10040E4E7019902F03EF9ED
:1004100000F10040DEE70122019902F037F9D9E747
:1004200020F00040704700BF40F6D87320F0004233
:10043000C3F6497301469A4200B583B016DDB2F1A6
:10044000FF4F03DB03F0EEF803B000BD694601F097
:1004500027FB00F00300012815D002280BD0B8B903
:1004600000980122019902F011F9EDE70021002224
:1004700002F00CF9E8E700980122019902F006F970
:1004800000F10040E0E70098019901F00DFDDBE785
:100490000098019901F008FD00F10040D4E700BF89
:1004A0002DE9F04F8BB0994682468B46904600F07E
:1004B00037FA40F20004C2F2000494F9003001332C
:1004C00006460F4604D04046494602F06BF920B973
:1004D000304639460BB0BDE8F08F5046594602F021
:1004E00061F9054650BB404649460022002302F010
:1004F000EBFF0028ECD094F9003047F6D812C0F694
:1005000001020895A3F1FF30CDE902AB4142CDE9EC
:10051000048941EB00010020022B14BF0B4641F07F
:10052000010301218DE806000021C3F6F071CDE939
:100530000601002B2DD0DDE90667C9E75046594674
:100540000022002302F0C0FF00282FD04046494679
:100550000022002302F0B8FF002862D094F90010B6
:1005600047F6D813C0F601030122CDE902AB8DE8AE
:100570000C00002300220893CDE904890023CDE973
:10058000062331B100230022C3F6F073CDE9062320
:10059000D1E7684602F050F900286FD0089B002B85
:1005A000C9D003F085FB089B0360C4E73046394699
:1005B00002F0F0F80546002865D0304639460022A2
:1005C000002302F081FF002882D05046594602F0F5
:1005D000E1F800283FF47CAF4046494602F0DAF8E3
:1005E00000283FF475AF94F9001047F6D8130422A1
:1005F000C0F601038DE80C000023002208930023BD
:100600000229CDE902ABCDE90489CDE906236ED0FC
:10061000684602F011F9002869D0089B002B8AD0A7
:10062000BFE74046494602F0B5F800283FF450AF16
:10063000404649460022002302F050FF00283FF4C4
:1006400047AF237847F6D812C0F601020121CDE961
:1006500002AB8DE806000022CDE904890892002B48
:1006600040D000200021022BCFF6F071CDE9060129
:1006700032D103F01DFB21230360CEE703F018FB0A
:10068000212303608AE75046594602F083F8002888
:1006900093D04046494602F07DF800288DD0304680
:1006A000394602F07FF838BB247847F6D813C0F6F5
:1006B0000103012208908DE80C00CDE902ABCDE9E1
:1006C00004897CB10020002102460B4602F0BEFDE9
:1006D000022CCDE90601CCD0684602F0ADF8002826
:1006E0009BD1C6E700220023CDE90623F4E703F0FF
:1006F000DFFA2223036090E794F9002047F6D8132D
:100700000321C0F60103089550468DE80A005946BA
:10071000CDE902ABCDE90489E2B94FF6FF770022BB
:1007200000234FF06046C4F2EF77CDE9066702F090
:10073000D5FE002833D194F90030022B05D068464D
:1007400002F07AF800287FF429AF03F0B1FA2223EF
:10075000036023E70027002200230026C7F6F07776
:10076000CDE9066702F0BAFE0028E4D0002300229B
:10077000C3F6E0734046494602F03EFC06460F468B
:1007800002F062F832463B4602F09EFE0028D2D1CB
:1007900000230022CFF6F073CDE90623CBE7002338
:1007A0000022C3F6E0734046494602F025FC0646A7
:1007B0000F4602F049F832463B4602F085FE00281B
:1007C000B9D14FF6FF734FF06042CCF2EF73CDE931
:1007D0000623B0E770B58AB0064600F029FF40F264
:1007E0000004C2F2000494F900300133054603D03E
:1007F000304602F099F910B928460AB070BD30466B
:10080000FFF70EFE4FF07E5103F0D2F90028F3D02F
:1008100047F6DC133046C0F6010301930123009331
:100820000023089302F094FB024645F6E860C0F608
:1008300001000B46CDE90423CDE9022301F0FEFFC0
:1008400094F90030022BCDE906010BD0684601F087
:10085000F3FF38B1089B53B9DDE9060102F08EFEC3
:100860000546C9E703F024FA21230360F2E703F009
:100870001FFA089B0360EFE701F066B870B58AB015
:10088000064601F0B9FA40F20004C2F2000494F9FD
:1008900000300133054630D0304602F045F90028DB
:1008A0002BD03046002103F065F930B347F6E4134E
:1008B0003046C0F6010301930123009300230893FF
:1008C00002F046FB2478CDE90401CDE90201BCB178
:1008D0000020002102460B4602F0B8FC022CCDE9B4
:1008E000060111D103F0E4F921230360089B8BB9C1
:1008F000DDE9060102F042FE054628460AB070BD59
:1009000000220023CDE90623684601F095FF002868
:10091000ECD1E7E703F0CCF9089B0360E8E700BF00
:100920002DE9F04F23F00044894654EA0201824643
:1009300091B094469B46104698464E46554600F068
:100940008780002229F00047C7F6F072CDF80890A2
:10095000974210DD07F1404707F5801C5CEA050C63
:1009600004BF4FF0000BC3F6F07B77D160465946C9
:1009700011B0BDE8F08F14BF00230123BAF1000FBE
:100980000CBF002103F001010029E3D19442E1DC16
:1009900014BF002101210491BCF1000F0CBF002104
:1009A00001F001010029D5D1B9F1000F5FDB0691FB
:1009B00090B9049A002A79D10022C3F6F0729442C9
:1009C00000F0B580B8F1804F00F00A840022C3F631
:1009D000E072904500F0F983504649460193CDF806
:1009E00000C001F0D3FE019BDDF800C004914DB9B9
:1009F000002F08BF43F00103002B73D1C3F6F0733F
:100A00009F426FD0F60F0699013E314300F08A8075
:100A10000023C4F2E0139C4240F3A2800023C4F2FE
:100A2000F0339C4240F346844FF6FF73C3F6EF73F6
:100A30009F4240F3DF83B8F1000F4FDD46A1D1E9BB
:100A4000000102460B4602F0D7FA84468B468DE73A
:100A50004FF0000B8C46C3F6F07B87E745F6E86065
:100A6000C0F6010011B0BDE8F04F01F0E7BE4FF64F
:100A7000FF72C4F23F3294426BDC4FF6FF72C3F652
:100A8000EF72944293DD221540F213418A4240F303
:100A9000AD84C2F5866203322CFA02F101FA02F249
:100AA000624500F0BA840021069181E707F14043D6
:100AB00003F580132B4302BF4FF0000B9C46C3F697
:100AC000F07B3FF453AF4FF6FF73C3F6EF739F42D3
:100AD00040F3E883B8F1000FBFF648AF4FF0000CC9
:100AE000E34643E7B8F1000FC0F25A84DDF810B0D6
:100AF0008446029E002EBFF639AF07F14043069FA1
:100B000003F580131F4340F07F8462465B466046D6
:100B1000594602F0BDF802460B4602F097FB8446A8
:100B20008B4623E75046494652464B46F1E7B8F11B
:100B3000000FA4BFD446CB46BFF618AF00215246E3
:100B40000020C3F6F0714B4602F080FB84468B46D2
:100B50000CE7022206922BE79C7500883CE4377E66
:100B60000021B7F5801F10DA049D0023C4F2403342
:100B700000222946CDF800C002F03EFADDF800C0A0
:100B800004916FF03401049B1F4627F07F4349F620
:100B90008E024FEA275A23F47003C0F203020025A5
:100BA000AAF57E7A9342AAF1070A43F07E548A445A
:100BB00044F4E0042F460EDD4BF279620127C0F2C7
:100BC0000B024FF48025934205DD00250AF1010A4E
:100BD000A4F580142F4645F250410246C0F60101AB
:100BE000234601EBC707CDE90823CDF800C0D7E9BC
:100BF0000001CDE90A0110462146DDE90A2302F091
:100C000047F8DDE90A23CDE90C01DDE9080102F02E
:100C100041F80B4600210246C3F6F071002002F0B5
:100C200015FBCDE90E01DDE90E23DDE90C0102F033
:100C3000E3F9631043F00053002203F50023CDE9EC
:100C400002010292DDE90289CDE90401002059196F
:100C500004460D4622462B464046494602F0CCF952
:100C600002460B46DDE90C0102F012F8DDE90A2329
:100C7000CDE90C012046294602F00AF802460B464F
:100C8000DDE9080102F004F802460B4640464946F9
:100C900002F0B2F902460B46DDE90C0101F0F8FF63
:100CA000DDE90E2302F0A8F9CDE90801DDE9040130
:100CB00002460B4602F0A0F902460B4604460D46DA
:100CC00002F09AF97AA3D3E90023CDE90A0120467C
:100CD000294602F091F978A3D3E9002301F0DAFF65
:100CE00022462B4602F088F975A3D3E9002301F0D0
:100CF000D1FF22462B4602F07FF973A3D3E90023EC
:100D000001F0C8FF22462B4602F076F970A3D3E922
:100D1000002301F0BFFF22462B4602F06DF96EA3BF
:100D2000D3E9002301F0B6FF02460B46DDE90A01D4
:100D300002F062F9DDE9042304460D4640464946C7
:100D400001F0A8FFDDE9082302F056F922462B4600
:100D500001F0A0FF42464B46CDE90A014046494614
:100D600002F04AF900220023C4F20803CDE90E0183
:100D700001F090FFDDE90A2301F08CFF029B404661
:100D80001C461A460D4649462B4602F035F92246C6
:100D90002B46CDE90C01DDE9080102F02DF9002315
:100DA0000022C4F20803804689462046294601F005
:100DB0006FFFDDE90E2301F06BFF02460B46DDE914
:100DC0000A0101F065FFDDE9042302F015F902468E
:100DD0000B464046494601F05DFF80468946424643
:100DE0004B46DDE90C0101F055FF029A10463CA389
:100DF000D3E9002304460D4602F0FEF83AA3D3E9F6
:100E00000023CDE904012046294602F0F5F8DDE98A
:100E10000C23CDE908012046294601F039FF02469E
:100E20000B464046494601F033FF31A3D3E9002386
:100E300002F0E2F802460B46DDE9080101F02AFF64
:100E4000D7E9042301F026FFCDE90801504602F05E
:100E50006DF8D7E90889DDE9082304460D46DDE988
:100E6000040101F017FF42464B4601F013FF2246F2
:100E70002B4601F00FFF029B224618462B460446E4
:100E80000D4601F005FF42464B4601F001FFDDE94A
:100E9000042301F0FDFE02460B46DDE9080101F0E6
:100EA000F7FECDE90401DDF800C025E0AFF30080D6
:100EB000EF4E454A287ECA3F65DBC9934A86CD3F3F
:100EC00001411DA96074D13F4D268F515555D53F25
:100ED000FFAB6FDBB66DDB3F033333333333E33FBD
:100EE000000000E009C7EE3FF5015B14E02F3EBEB5
:100EF000FD033ADC09C7EE3F069F60465946CDF830
:100F000000C07B1E002733434FF000060CBFCBF61A
:100F1000F077C3F6F077CDE9066766465F46CDE920
:100F2000026700270297DDE9026732463B4601F07F
:100F3000AFFE22462B4602F05FF8DDF800C0DDE987
:100F40000423804689466046594602F055F8024619
:100F50000B464046494601F09DFE22462B46CDE910
:100F600004013046394602F047F8804689464B4630
:100F7000DDE90401424601F08DFE4FF6FF73C4F235
:100F80008F03994282468B468C4640F35D8101F186
:100F90003F4303F5E003034340F00E8298A3D3E9F7
:100FA0000023DDE90401CDF800B001F073FE4246F4
:100FB0004B4604460D465046594601F069FE02462E
:100FC0000B462046294602F0A7FADDF800C00028AB
:100FD00040F0F2815D462B154FF48012A3F57E732D
:100FE0004FF6FF71063BC0F20F0142FA03F30024F3
:100FF0006344C3F30A5223F07F40A2F57E7620F4C7
:101000007000073EC2F5826241FA06F140F480109A
:1010100023EA0105D11CBCF1000F40FA01F1224680
:101020002B460291C0F200824046494601F030FE54
:10103000804689464246DDE904014B4601F02AFE1E
:10104000029E4FEA065C8B466FA3D3E90023002083
:101050005946CDF800C0044601F0CEFF5D46424639
:101060004B4682468B462046294601F011FE024639
:101070000B46DDE9040101F00BFE65A3D3E9002373
:1010800001F0BAFF64A3D3E9002306460F462046C9
:10109000294601F0B1FF02460B463046394601F0C1
:1010A000F9FD04460D4622462B465046594601F0AE
:1010B000F1FD52465B4606460F4601F0E9FD024649
:1010C0000B462046294601F0E3FD32463B4680466A
:1010D00089463046394601F08FFF51A3D3E90023FA
:1010E00004460D4601F088FF4FA3D3E9002301F029
:1010F000CFFD22462B4601F07FFF4DA3D3E900230D
:1011000001F0C8FD22462B4601F076FF4AA3D3E941
:10111000002301F0BDFD22462B4601F06DFF48A3E0
:10112000D3E9002301F0B6FD22462B4601F064FF0F
:1011300002460B463046394601F0AAFD04460D46EC
:1011400022462B463046394601F056FF00224FF02A
:10115000804382468B462046294601F099FD02468F
:101160000B465046594602F071F842464B4604463B
:101170000D463046394601F03FFF42464B4601F0EE
:1011800089FD02460B462046294601F081FD324684
:101190003B4601F07DFD0B4600210246C3F6F0718F
:1011A000002001F075FDDDF800C00CEB0103B3F584
:1011B000801FA8BF0246C0F23A81DDE9060101F0B6
:1011C0001BFF84468B46FFF7D1BB02980028FFF631
:1011D00003AC5046494611B0BDE8F04F00F04CB9A1
:1011E0005046494652464B4601F006FF84468B4620
:1011F000FFF7BCBBB8F1000FBFF670AC1EE400BF38
:10120000FE822B654715973C00000000432EE63F09
:10121000EF39FAFE422EE63F396CA80C615C20BE25
:10122000D0A4BE726937663EF16BD2C541BDBB3EEC
:101230002CDE25AF6A56113F93BDBE166CC1663FCA
:101240003E5555555555C53F4CF6FF3321F00045E9
:10125000C4F290039D4240F3BF804FF45053C3F655
:101260006F73CB1803430DD142464B46009101F0FA
:101270000FFDDDE9042302F045F9DDF800C0002888
:101280003FF4A9AE70A3D3E90023DDE9060101F024
:10129000B3FE6DA3D3E9002301F0AEFE84468B4676
:1012A000FFF764BBB8F1000FBFF618AC0BF1004BB1
:1012B000FFF75CBB4FF6FE73C3F6EF739F4299DDF9
:1012C0000023C3F6F0739F423FF7B5AB049D0023A4
:1012D0000022C3F6F0732946CDF800C001F0D8FC17
:1012E0005BA3D3E9002304460D4601F085FE5AA313
:1012F000D3E90023804689462046294601F07CFE3A
:1013000022462B46CDE902012046294601F074FE13
:1013100000230022C3F6D073CDE9040120462946FC
:1013200001F06AFE02460B464DA1D1E9000101F031
:10133000AFFC22462B46002401F05EFE0B46002146
:101340000246C3F6E071002001F0A2FC02460B4603
:10135000DDE9040101F050FE43A3D3E9002301F0CD
:101360004BFE02460B46DDE9020101F091FCCDE99E
:1013700002014046DDE90223494601F08BFC42466A
:101380004B4620460D4601F083FC02460B46DDE944
:10139000020101F07DFCDDF800C0CDE90401ABE500
:1013A00000210246C3F6F0710020049B01F04EFFBD
:1013B00084468B46FFF79DBB2DA3D3E90023DDE9CF
:1013C000060101F019FE2AA3D3E9002301F014FE5F
:1013D00084468B46FFF7CABA0023C3F6E0739D42EA
:1013E000D8BFDDF808C07FF72FAEF4E588B9C2F5A5
:1013F0008262033244FA02F101FA02F2A2421CD0E4
:1014000000200690FFF7D5BA069E012E7FF4AEAA03
:101410004CE700210691FFF7DFBA01F00102C2F1AB
:1014200002020692FFF7C4BA49420291FCE5029A11
:1014300001F0A2FA02460B46BFE601F00102C2F13A
:1014400002020692FFF7B5BA59F3F8C21F6EA50162
:10145000000000604715F73F44DF5DF80BAE543ED7
:10146000555555555555D53FFE822B654715F73FC8
:101470009C7500883CE4377E2DE9F843002425461E
:10148000C7F6F074C7F6F0750C40AC4206460F463E
:1014900089460B46024600F0AB8000297FDD091526
:1014A00000F08880A1F57E7C23F07F43C90723F4F8
:1014B0007003ACF1070C43F4801362D5D10F002701
:1014C00001EB43034FEA6C0C5200162438464FF4EC
:1014D00000114518D60F9D424FEA4202DEBFC5EB10
:1014E000030368187F184908013C06EB4303F0D159
:1014F0002026A0464FF00041984201EB08050EDB84
:10150000834214BF4FF000094FF0010995428CBF90
:101510004FF0000909F00109B9F1000F0ED005F0F4
:10152000004905EB0108B9F1004F23D081461B1A91
:10153000954288BF013B521B64184846D50F4908A5
:101540005200013E05EB4303D6D113431ED164087C
:101550007B10FA0703F17E5348BF44F0004403F5C3
:10156000C0034FEA0C5C0CEB0307264630463946B5
:10157000BDE8F883B8F1000FA8BF00F10109D6DA81
:10158000D4E7D10F520001EB430397E7611C1CBF66
:1015900004F001031C19DAD101373446D8E721F0F1
:1015A00000440443E2D0002936D1D30A153952054C
:1015B000002BFAD013F480102AD15B000130DC023A
:1015C000FBD5C0F10105C0F1200422FA04F4491949
:1015D0002343A1F57E7C824023F07F43C90723F497
:1015E0007003ACF1070C43F480133FF567AFC8E715
:1015F00002460B4601F000FD02460B4630463946D6
:1016000001F048FB06460F4630463946BDE8F883F0
:10161000202401250020D8E702460B4601F038FBC4
:1016200002460B4601F012FE06460F469EE700BF3B
:101630002DE9F04720F00045B5F17E5F04460646EF
:1016400000F0FD8000F3D580B5F17C5F10DAB5F1D4
:10165000485F80F20A814FF2CA21C7F2491101F0B6
:10166000E3FF4FF07E5102F0A3FA002840F0C8805B
:101670002046FEF7D5FE01464FF07E5001F0D2FF26
:101680004FF07C5102F0D8F84EF60871C3F6110104
:10169000044602F0D1F847F60471C3F64F2101F079
:1016A000C3FF214602F0C8F841F24611C3F62451A7
:1016B00001F0B8FF214602F0BFF840F6A821C3F6BA
:1016C0004E6101F0B1FF214602F0B6F84BF29001F5
:1016D000C3F6A66101F0A6FF214602F0ADF84AF676
:1016E000AB21C3F62A6101F09FFF214602F0A4F866
:1016F0004CF22E61C3F69D518146204602F09CF8C3
:1017000043F26131C3F6307101F08CFF214602F0E3
:1017100093F845F22D71C4F2010101F085FF2146D5
:1017200002F08AF84DF23911C4F2190101F07AFF82
:10173000214602F081F84FF07E5101F075FF80469E
:10174000204600F059FB49F69913C3F679739D4280
:10175000074658DC014620F47E6501F065FF4146EE
:1017600025F01F058246484602F01AF90146504608
:1017700002F062F829468046284602F05DF80146EC
:10178000204601F04FFF29460446384601F04CFF41
:101790000146204602F004F9014601F045FF0146EA
:1017A0004BF62E50CBF23B3001F03CFF0146404659
:1017B00001F038FF29460446284601F035FF01466E
:1017C00040F6DB70C3F6497001F02CFF014620465D
:1017D00001F028FF014640F6DB70C3F6497001F0C6
:1017E00021FF002ED4BF00F1004404462046BDE88E
:1017F000F087014601F016FF014602F0D1F80446D9
:101800002046BDE8F0874146484602F0C9F8014647
:10181000384602F011F8394601F006FF014601F0A2
:1018200003FF4BF62E51C3F23B3101F0FDFE0146A2
:1018300040F6DB70C3F6C97001F0F4FED1E740F664
:10184000DB71C3F6C97101F0F7FF4BF62E51CBF2F5
:101850003B310546204601F0EFFF0146284601F0E6
:10186000E3FE04462046BDE8F087014601F0E4FFB0
:101870004EF60871C3F61101054601F0DDFF47F68B
:101880000471C3F64F2101F0CFFE294601F0D4FFC9
:1018900041F24611C3F6245101F0C4FE294601F07D
:1018A000CBFF40F6A821C3F64E6101F0BDFE2946EC
:1018B00001F0C2FF4BF29001C3F6A66101F0B2FE47
:1018C000294601F0B9FF4AF6AB21C3F62A6101F0BF
:1018D000ABFE294601F0B0FF4CF22E61C3F69D51DC
:1018E0000646284601F0A8FF43F26131C3F6307185
:1018F00001F098FE294601F09FFF45F22D71C4F2D8
:10190000010101F091FE294601F096FF4DF23911D7
:10191000C4F2190101F086FE294601F08DFF4FF057
:101920007E5101F081FE0146304602F039F8014651
:10193000204601F081FF0146204601F075FE044675
:101940002046BDE8F08700BFF8B520F00044B4F1B0
:10195000FF4F21F00046D4BF00270127B6F1FF4F0B
:10196000C8BF47F001070346002F45D1B1F17E5FA4
:101970004CD08F1707F0020747EAD0774CB9022FF7
:101980003FD0032F03D140F6DB73CCF24903184656
:10199000F8BD36B3B6F1FF4F55D0B4F1FF4F20D0AC
:1019A000A41BE4153C2CC4BF40F6DB70C3F6C97021
:1019B00030DD012F08BF00F10043E8D0022F33D003
:1019C0000346002FE3D04BF62E51C3F2BB3101F09A
:1019D0002BFE40F6DB71C4F2490101F023FE034601
:1019E000D5E7002840F6DB73B8BFCBF6C973CEDB72
:1019F000C3F6C9731846F8BD01F016FE0346184633
:101A0000F8BD40F6DB73C4F24903C0E7BDE8F84017
:101A1000FEF7B2BB14F13C0FACBF0024012414EA62
:101A2000D1741DD00020C4E74BF62E51C3F2BB3158
:101A300001F0FAFD014640F6DB70C4F2490001F006
:101A4000F1FD0346A3E7B4F1FF4F10D0022FD8D029
:101A5000032F98D00023012F99D14FF0004396E730
:101A600001F09EFFFEF7DCFCFEF786FBA1E7022FEC
:101A700004BF4CF6E433C4F2160388D0032F04BF2E
:101A80004CF6E433CCF2160381D0012F40F6DB7321
:101A900018BFC3F649737FF47AAFCBF6497376E784
:101AA00040F6D8732DE9F04FC3F6497320F0004B90
:101AB00089B09B4505460C4640F38C804CF6E333D9
:101AC000C4F216039B4526DC00284FF47861C3F668
:101AD000C97140F3538101F0A5FD4FF47D632BF0F4
:101AE0000F0BC3F6C9739B45054600F0828044F294
:101AF00043410126C3F2357101F094FD0146206097
:101B0000284601F08FFD44F24341C3F2357101F0E4
:101B100089FD606062E04FF47863C4F249339B450D
:101B200040F38280BBF1FF4F5CDA4FEAEB59A9F139
:101B300086094FEAC953C3EB0B0B584602F042F833
:101B400001F026FE034601465846059301F06AFD62
:101B50004FF0874101F070FE064602F033F801F0C5
:101B600017FE014607463046069701F05BFD4FF031
:101B7000874101F061FE00210326079001F0F0FF8C
:101B800088B10326384600210DF11808013E01F006
:101B9000E7FF40B158F8047D0021013E384601F0CE
:101BA000DFFF0028F6D13346924E05A821464A466B
:101BB00001960226009600F053FA002D06460DDA33
:101BC00022684642636802F10042226003F100434A
:101BD000636003E00026002308604B60304609B0D4
:101BE000BDE8F08F0146002601F01CFD606020601A
:101BF000F4E74FF488410126C3F2357101F012FD7C
:101C00004AF20831C2F68561054601F00BFD014636
:101C10002060284601F006FD4AF20831C2F68561CF
:101C200001F000FD6060D9E7FEF7FAFB4FF6841182
:101C3000C3F62271074601F0FFFD4FF07C5101F021
:101C4000F3FC01F0BFFF064601F0A2FD4FF47861FE
:101C5000C3F6C971824601F0EFFD0146384601F036
:101C6000E1FC44F24341C3F235718046504601F035
:101C7000E3FD1F2E8146404621DC45F28043711E64
:101C8000C0F601032BF0FF0253F821309A4216D020
:101C9000494601F0C7FC074620603946404601F03E
:101CA000C1FC494601F0BEFC002D606096DA07F1E8
:101CB000004700F100402760764260608EE74946A9
:101CC0004FEAEB5B01F0AEFCC0F3C7530746C3EB32
:101CD0000B032060082BE0DD4FF488415046C3F22F
:101CE000357101F0A9FD07464046394601F09AFCDE
:101CF00003904046039901F095FC394601F092FCAF
:101D00004AF20831C2F685610746504601F094FD5B
:101D1000394601F087FC81460398494601F082FC70
:101D2000C0F3C7530746C3EB0B0B2060BBF1190F81
:101D3000D8BFDDF80C80B0DD4FF423415046C2F629
:101D4000856101F079FD07460398394601F06AFC88
:101D500080460398414601F065FC394601F062FC7B
:101D600043F23211C2F28D410746504601F064FD44
:101D7000394601F057FC8146404689E701F054FCA2
:101D80004FF47D632BF00F0BC3F6C9739B450546DB
:101D900014D044F243414FF0FF36C3F2357101F0E5
:101DA00043FC01462060284601F03CFC44F24341DC
:101DB000C3F2357101F038FC60600FE74FF48841E1
:101DC0004FF0FF36C3F2357101F02EFC4AF20831B4
:101DD000C2F68561054601F027FC014620602846D1
:101DE00001F020FC4AF20831C2F6856101F01CFCCA
:101DF0006060F3E60055010820F000420346B2F1AE
:101E0000FF4F70B5044639D2002A35D000283FDB99
:101E1000C115B2F5000F09D210F4000240D15B00E9
:101E200001321802FBD5C2F10102891823F07F4369
:101E3000A1F17F0223F40003D10743F4000348BF5C
:101E40005B000026541019215B0035464FF080726C
:101E5000A8189842DEBFC0EB03038518B6185208D5
:101E60005B000139F4D113B106F001039E1976101D
:101E7000E40506F17C56A419204670BD014601F028
:101E8000DBFC0146204601F0CFFB0446204670BD36
:101E9000014601F0C7FB014601F082FD0446EBE775
:101EA00001228918C2E700BF2DE9F84320F000465F
:101EB000B6F1485F05460F465BDA01F083FE002865
:101EC00000F0CA802946284601F0B6FC4DF24E715A
:101ED000CAF64751044601F0AFFC47F2F641C3F29F
:101EE0000F1101F0A1FB214601F0A6FC4FF27C216D
:101EF000C3F2934101F096FB214601F09DFC40F6B0
:101F00000151C3F2D07101F08FFB214601F094FC26
:101F100040F66131C3F6B62101F084FB214601F0A1
:101F20008BFC4AF6AB21C3F62A5101F07DFB21461A
:101F300001F082FC804620464FF07C5101F07CFC91
:101F400041460646204601F077FC394604462846BD
:101F500001F072FC0146204601F064FB0146304668
:101F600001F060FB01464FF07E5001F05BFBBDE8E5
:101F7000F883014601F060FC4DF24E71CAF64751FC
:101F8000044601F059FC47F2F641C3F20F1101F08B
:101F90004BFB214601F050FC4FF27C21C3F29341F0
:101FA00001F040FB214601F047FC40F60151C3F22D
:101FB000D07101F039FB214601F03EFC40F6613161
:101FC000C3F6B62101F02EFB214601F035FC4AF69E
:101FD000AB21C3F62A5101F027FB214601F02CFC6E
:101FE00049F69913C3F699639E428046A3DD002308
:101FF000C3F648739E4227DC06F17F464FF07E50C1
:10200000314601F00FFB814620464FF07C5101F034
:1020100013FC314601F006FB41460646204601F01E
:102020000BFC39460446284601F006FC01462046D2
:1020300001F0F8FA0146304601F0F4FA014648464C
:1020400001F0F0FABDE8F8834FF000090026C3F66E
:102050003879C3F69066D7E74FF07E50BDE8F88335
:102060002DE9F04F151DDDB0D41E58BF254645F6AD
:1020700018040493013B0293ED10669BC0F6010423
:1020800025EAE5750746099554F82340EB43089186
:1020900002EBC303029A07941619069315D401366E
:1020A000AD1A679B00240DF18008B60003EB85098B
:1020B0000020002D03DB59F8040001F069FB48F80B
:1020C000040004340135B442F2D1079C002C25DB16
:1020D000079A48ABDDF810A00DF58E7903EB820B63
:1020E0004FEA8A08029C0025002C11DB20A800245E
:1020F00000EB8A0600253859043456F8041D01F017
:102100009BFB0146284601F08FFA44450546F2D173
:1021100049F8045FD9450AF1010AE3D1079A0CABEB
:10212000DDF81C80013A0093C2460A9203EB820458
:102130000B944FEA8A025CACA318BAF1000F01922B
:1021400053F8504C22DD0DF590790BAE09EB0205EA
:102150004FF06E51204601F06FFB01F033FD01F0AE
:1021600017FB4FF08741804601F066FB0146204691
:1021700001F058FA01F026FD414646F8040F55F8E3
:10218000040D01F051FA4D450446E1D1069920466F
:1021900000F008FD4FF07851044601F04DFB00F0CF
:1021A00077FC4FF0824101F047FB0146204601F0E9
:1021B00039FA044601F006FD064601F0E9FA014647
:1021C000204601F02FFA069A002A054640F30681C0
:1021D0000AF1FF330CA8C2F10801C2F1070450F85C
:1021E000232042FA01F0361800FA01F1521A0CA924
:1021F00042FA04FB41F82320BBF1000F30DD013629
:102200000024BAF1000F17DD019C0CAB1919002452
:1022100007E022B10124C2F5807243F8042C8B42FE
:102220000AD053F8042B002CF3D001248B42C2F1C6
:10223000FF0243F8042CF4D1069A002A0DDD012A8E
:1022400000F0D580022A08D10AF1FF330CA951F819
:10225000232002F03F0241F82320BBF1020F6ED091
:102260002846002101F07CFC002800F08180079ABC
:102270000AF1FF34A2420FDC019A0CA88318079AD6
:1022800000EB8200002253F8041D834242EA01025F
:10229000F9D1002A40F0C3800A9C0CA850F82430E1
:1022A000002B40F0BA800B9A012352F8041D013331
:1022B0000029FAD053440AF10109994503933BDC04
:1022C000099C029AA244679C02EB090320AA04EB32
:1022D0008A0B049C013B059202EB830A4FEA8408B7
:1022E000019B48AAD21801925BF8040F002501F067
:1022F0004FFA029A002A4AF8040F14DB049B0025C7
:10230000059A002409EB030602EB860638590434CB
:1023100056F8041D01F090FA0146284601F084F9B0
:1023200044450546F2D1039C09F10109019BA145F1
:1023300043F8045F0193D7DDDDF80CA0F9E62946E8
:102340004FF07E5001F06EF90546002C88D00699BA
:102350004FF07E5000F026FC0146284601F062F95D
:1023600000210546284601F0FBFB00287FF47FAFE3
:102370000296D0460AF1FF34002851D1069B284628
:10238000594200F00FFC4FF08741044601F006FC73
:10239000002800F071814FF06E51204601F04CFA98
:1023A000069A0AF101080832069201F00BFC01F0CE
:1023B000EFF94FF08741054601F03EFA014620460D
:1023C00001F030F90CAC01F0FDFB0CAB43F82A0036
:1023D000284601F0F7FB44F8280034E011D10AF157
:1023E000FF330CAA52F823304FEA232B04E70AF1FB
:1023F000FF330CA850F8232002F07F0240F823207E
:102400002BE74FF07C514FF0000B01F0C7FB002889
:102410003FF426AF4FF0020BF1E601234AE70296A4
:102420000CA8069AA04650F82430083A069253B9F0
:1024300000EB8403A04653F8041D08F1FF38083A66
:102440000029F8D006924FF07E50069900F0AAFBC2
:10245000B8F1000F05464CDB08F101020CAB48A8AF
:10246000019296009C19861954F8040D01F090F918
:10247000294601F0E1F94FF06E5146F8040D284667
:1024800001F0DAF9009A94420546EDD148ABCDF857
:102490000C8003EB8809DFF8F0A1DDF81C80002731
:1024A000B8F1000FC0F2DA80002FC0F2D78000240C
:1024B0000026254601E0BD420EDC59F80410013526
:1024C0005AF80400043401F0B7F90146304601F02F
:1024D000ABF8A8450646EEDA5CAC019A04EB87033C
:1024E0000137BA42A9F1040943F8A06CD8D1DDF84C
:1024F0000C80669C032C14D8DFE804F098686819F7
:102500000020BBF1000F59D0089B00F10040089C4F
:10251000349A9860359B02F10042226003F1004337
:102520006360029A02F007005DB0BDE8F08FB8F179
:10253000000FC4BF34AD05EB8804E1DD54F8049C02
:1025400054F804794846394601F06EF80646484684
:10255000314601F067F80146384601F065F8AC42B3
:1025600026606060EAD1B8F1010FC9DD08F1FF34DF
:1025700005EB840454F80499A7684846394601F0ED
:1025800053F806464846314601F04CF801463846B5
:1025900001F04AF8AC426660A060EBD108F1010896
:1025A00004F10805002004EB880454F8041D01F030
:1025B0003BF8AC42F9D1BBF1000FA5D1089B089CB8
:1025C0009860349B2360359B6360AAE70020B8F1D4
:1025D000000F0BDB08F1010434AD002005EB84048F
:1025E00054F8041D01F020F8AC42F9D100F1004389
:1025F000BBF1000F00D10346089C014634982360CC
:1026000001F010F8B8F1000F08DD34AC04EB8808D5
:1026100054F8041F01F008F84445F9D1BBF1000F4C
:1026200001D000F10040089A50607AE70020B8F12C
:10263000000F0BDB08F1010434AD002005EB84042E
:1026400054F8041D00F0F0FFAC42F9D1BBF1000FCB
:1026500001D000F10040089A106062E75CAC019A7A
:1026600004EB870301370026BA42A9F1040943F8B5
:10267000A06C7FF415AF3AE7204601F0A3FA0CA94D
:1026800041F82A00DFE600BF245801082DE9F8438D
:1026900020F00043B3F1485F04460D46904603DA4C
:1026A00001F090FA002859D02146204601F0C4F8E4
:1026B0002146064601F0C0F84CF6D311C2F62E7141
:1026C0000746304601F0B8F842F63471C3F2D7211C
:1026D00000F0A8FF314601F0AFF84EF61B71C3F2CF
:1026E000386100F0A1FF314601F0A6F840F6015133
:1026F000C3F6501100F096FF314601F09DF848F600
:102700008901C3F6084100F08FFF8146B8F1000F40
:1027100027D028464FF07C5101F08EF8494680467C
:10272000384601F089F80146404600F07BFF31460B
:1027300001F082F8294600F075FF4AF6AB21C3F696
:102740002A610546384601F077F80146284600F030
:102750006BFF0146204600F065FF04462046BDE8B9
:10276000F8830146304601F067F84AF6AB21C3F61C
:102770002A6100F057FF394601F05EF80146204615
:1027800000F052FF04462046BDE8F88321F00041E6
:10279000704700BF21F0004000F1004000F58010BC
:1027A000C00F70470B4650EA030110B402D102205B
:1027B00010BC7047D0F1010238BF0022B3F1004FC6
:1027C00014BF002102F001010029F0D14FF6FF7182
:1027D000A3F58010C7F6DF7103F1FE44884204F5CB
:1027E00070048CBF002001208C428CBF014640F059
:1027F000010109B10420DBE7B3F5801F03F10041BB
:102800002CBF00200120B1F5801F2CBF014640F0F5
:10281000010109B10320CBE713F5801FC7F6F07162
:1028200014BF002001208B4214BF034640F0010377
:1028300002EA0300BCE700BF00207047002100202F
:10284000C7F6F871704700BF2DE9F04FC1F30A5584
:10285000A5F57E76CF0F073E83B0132E80468946BE
:1028600002460B4639DC002E57DB4FF6FF71C0F2F3
:102870000F0141FA06F101EA090050EA080027D0E9
:10288000490801EA090050EA08020BD029EA0103CD
:102890004FF48021132E0CBF4FF00042002241FA6A
:1028A00006F6334345F65004C0F6010404EBC707AF
:1028B000D7E900452046294600F0ECF922462B4690
:1028C000CDE90001DDE9000100F0E2F9804689462A
:1028D0004046494603B0BDE8F08F332E09DDB6F51A
:1028E000806FF5D102460B4600F0D4F98046894648
:1028F000EEE7A5F582654FF0FF31033D21FA05F1C2
:102900000142E5D0490801421FBF20EA01024FF011
:10291000804141FA05F52A43C4E721F0004303430F
:10292000D6D021F07F4345F6500123F47003C0F662
:10293000010143EA000201EBC70153424FEA594447
:102940001A43D1E900AB130B504603F4002342466F
:1029500043EA444959464B4600F09CF95B465246CF
:10296000CDE90001DDE9000100F092F921F000431A
:10297000804643EAC779ABE72DE9F843C1F30A572C
:1029800004460D4616460B46002F2DD121F000437C
:10299000034325D000230022C4F2503300F02CFB67
:1029A00043F6B043CFF6FF739E4204460D463EDB2E
:1029B000C1F30A5740F2FE72363F0B46BF199742E9
:1029C000C4BF22462B461BDD2DA1D1E9000100F03A
:1029D0004BF92BA3D3E9002300F00EFB04460D4670
:1029E00020462946BDE8F88340F2FF72974229D07D
:1029F00040F2FE72BF199742C4BF22462B46E3DC69
:102A0000002FC2BF23F0FE4323F4700343EA0755AF
:102A1000E6DC17F1350F1FDA4CF2503322469E42A6
:102A20002B46D1DC18A1D1E9000100F01DF916A355
:102A3000D3E9002300F0E0FA04460D46204629467B
:102A4000BDE8F88302460B4600F024F904460D4623
:102A500020462946BDE8F883363723F0FE4323F4A9
:102A60007003204643EA0755002329460022C3F697
:102A7000904300F0C1FA04460D46B1E7AFF3008081
:102A80009C7500883CE4377E59F3F8C21F6EA5019F
:102A90002DE9F04120F0004601460446F50D7F3D4A
:102AA000162D21DC002D804627DB4FF6FF77C0F284
:102AB0007F0747FA05F7074213D04FF2CA21C7F242
:102AC000491100F0B1FD002101F072F840B3002C73
:102AD000BEBF4FF4000343FA05F504EB050828EAEE
:102AE00007010846BDE8F081B6F1FF4FF9D300F0C9
:102AF0009BFD01460846BDE8F0814FF2CA21C7F2AE
:102B0000491100F091FD002101F052F840B100217F
:102B1000002CE6DACBF68071002E08BF2146E0E7F4
:102B200021460846BDE8F081D0F1010338BF0023FB
:102B3000B0F1004F08BF43F001030BB10220704712
:102B4000A0F5000200F1FF43B2F1FE4F2CBF0022BE
:102B50000122B3F1FE4F2CBF134642F001030BB12B
:102B6000042070474FF6FE73411EC0F27F0300F150
:102B70000042013A99428CBF002101219A428CBF48
:102B80000B4641F001030BB10320704710F5000F15
:102B900014BF00230123B0F1FF4F14BF184643F0C8
:102BA0000100704710B50C4630F000410346024664
:102BB00027D0B1F1FF4F26D2B1F5000F29D3C90DAF
:102BC0000919FE29C8BF194633DC0029C4BF22F009
:102BD000FF4242EAC15314DC11F1160F37DA4CF20E
:102BE00050321946944224DC44F26020C0F6A250D0
:102BF00000F044F844F26021C0F6A25100F01CFE3F
:102C00000346184610BD014600F00EFD0346184667
:102C100010BD4FF0984100F00FFE43F6B042CFF6E2
:102C2000FF7294420346E5DBC0F3C75102461939EF
:102C3000C6E74FF2CA20C7F2491000F01FF84FF262
:102C4000CA21C7F2491100F0F7FD0346D9E701F1A7
:102C5000190022F0FF424FF04C5142EAC05000F000
:102C6000EBFD0346CDE700BF03F0004321F0004237
:102C700030B443EA020130BC704700BF01F00041AC
:102C800020F000400843704781F0004102E000BF9F
:102C900083F0004330B54FEA41044FEA430594EA1C
:102CA000050F08BF90EA020F1FBF54EA000C55EA57
:102CB000020C7FEA645C7FEA655C00F0E2804FEA28
:102CC0005454D4EB5555B8BF6D420CDD2C4480EA0A
:102CD000020281EA030382EA000083EA010180EA3A
:102CE000020281EA0303362D88BF30BD11F0004F88
:102CF0004FEA01314FF4801C4CEA113102D04042BE
:102D000061EB410113F0004F4FEA03334CEA1333F8
:102D100002D0524263EB430394EA050F00F0A78010
:102D2000A4F10104D5F1200E0DDB02FA0EFC22FA0B
:102D300005F2801841F1000103FA0EF2801843FAFF
:102D400005F359410EE0A5F120050EF1200E012AF0
:102D500003FA0EFC28BF4CF0020C43FA05F3C0182E
:102D600051EBE37101F0004507D54FF0000EDCF1A7
:102D7000000C7EEB00006EEB0101B1F5801F1BD350
:102D8000B1F5001F0CD349085FEA30004FEA3C0C54
:102D900004F101044FEA445212F5800F80F09A804A
:102DA000BCF1004F08BF5FEA500C50F1000041EB4E
:102DB000045141EA050130BD5FEA4C0C404141EB52
:102DC000010111F4801FA4F10104E9D191F0000F79
:102DD00004BF01460020B1FA81F308BF2033A3F1FC
:102DE0000B03B3F120020CDA0C3208DD02F1140CF3
:102DF000C2F10C0201FA0CF021FA02F10CE002F12E
:102E00001402D8BFC2F1200C01FA02F120FA0CFC26
:102E1000DCBF41EA0C019040E41AA2BF01EB04516F
:102E2000294330BD6FEA04041F3C1CDA0C340EDC6D
:102E300004F11404C4F1200220FA04F001FA02F3B0
:102E400040EA030021FA04F345EA030130BDC4F16E
:102E50000C04C4F1200220FA02F001FA04F340EA63
:102E60000300294630BD21FA04F0294630BD94F014
:102E7000000F83F4801306BF81F480110134013DFB
:102E80004EE77FEA645C18BF7FEA655C29D094EA6C
:102E9000050F08BF90EA020F05D054EA000C04BFEA
:102EA0001946104630BD91EA030F1EBF00210020D5
:102EB00030BD5FEA545C05D14000494128BF41F074
:102EC000004130BD14F580043CBF01F5801130BDD8
:102ED00001F0004545F0FE4141F470014FF0000063
:102EE00030BD7FEA645C1ABF194610467FEA655C14
:102EF0001CBF0B46024650EA013406BF52EA0335B6
:102F000091EA030F41F4002130BD00BF90F0000FA3
:102F100004BF0021704730B54FF4806404F13204DF
:102F20004FF000054FF0000150E700BF90F0000F98
:102F300004BF0021704730B54FF4806404F13204BF
:102F400010F0004548BF40424FF000013EE700BF8F
:102F500042004FEAE2014FEA31014FEA02701FBF1F
:102F600012F07F4393F07F4F81F06051704792F0F1
:102F7000000F14BF93F07F4F704730B54FF460746B
:102F800001F0004521F0004120E700BF50EA0102B6
:102F900008BF704730B54FF000050AE050EA010263
:102FA00008BF704730B511F0004502D5404261EBD3
:102FB00041014FF4806404F132045FEA915C3FF414
:102FC000DCAE4FF003025FEADC0C18BF03325FEAAD
:102FD000DC0C18BF033202EBDC02C2F1200300FA62
:102FE00003FC20FA02F001FA03FE40EA0E0021FA87
:102FF00002F11444C1E600BF70B54FF0FF0C4CF471
:10300000E06C1CEA11541DBF1CEA135594EA0C0F26
:1030100095EA0C0F00F0DEF82C4481EA030621EA61
:103020004C5123EA4C5350EA013518BF52EA03359C
:1030300041F4801143F4801338D0A0FB02CE4FF04E
:103040000005E1FB02E506F00042E0FB03E54FF07E
:103050000006E1FB03569CF0000F18BF4EF0010E76
:10306000A4F1FF04B6F5007F64F5407404D25FEA72
:103070004E0E6D4146EB060642EAC62141EA555125
:103080004FEAC52040EA5E504FEACE2EB4F1FD0C67
:1030900088BFBCF5E06F1ED8BEF1004F08BF5FEAE5
:1030A000500E50F1000041EB045170BD06F0004697
:1030B00046EA010140EA020081EA0301B4EB5C0444
:1030C000C2BFD4EB0C0541EA045170BD41F480113C
:1030D0004FF0000E013C00F3AB8014F1360FDEBF61
:1030E000002001F0004170BDC4F10004203C35DA3D
:1030F0000C341BDC04F11404C4F1200500FA05F3C0
:1031000020FA04F001FA05F240EA020001F0004260
:1031100021F0004110EBD37021FA04F642EB0601D6
:103120005EEA430E08BF20EAD37070BDC4F10C0400
:10313000C4F1200500FA04F320FA05F001FA04F2C4
:1031400040EA020001F0004110EBD37041F10001B0
:103150005EEA430E08BF20EAD37070BDC4F12005BB
:1031600000FA05F24EEA020E20FA04F301FA05F223
:1031700043EA020321FA04F001F0004121FA04F2CB
:1031800020EA020000EBD3705EEA430E08BF20EA9B
:10319000D37070BD94F0000F0FD101F000464000D5
:1031A00041EB010111F4801F08BF013CF7D041EA57
:1031B000060195F0000F18BF704703F0004652005B
:1031C00043EB030313F4801F08BF013DF7D043EA2C
:1031D0000603704794EA0C0F0CEA135518BF95EAE2
:1031E0000C0F0CD050EA410618BF52EA4306D1D169
:1031F00081EA030101F000414FF0000070BD50EA88
:10320000410606BF1046194652EA430619D094EA11
:103210000C0F02D150EA013613D195EA0C0F05D1FB
:1032200052EA03361CBF104619460AD181EA03014F
:1032300001F0004141F0FE4141F470014FF0000007
:1032400070BD41F0FE4141F4780170BD70B54FF0A2
:10325000FF0C4CF4E06C1CEA11541DBF1CEA135522
:1032600094EA0C0F95EA0C0F00F0A7F8A4EB050404
:1032700081EA030E52EA03354FEA013100F08880FB
:103280004FEA03334FF0805545EA131343EA1263C4
:103290004FEA022245EA111545EA10654FEA002679
:1032A0000EF000419D4208BF964244F1FD0404F532
:1032B000407402D25B084FEA3202B61A65EB03058E
:1032C0005B084FEA32024FF480104FF4002CB6EB4B
:1032D000020E75EB030E22BFB61A754640EA0C00CB
:1032E0005B084FEA3202B6EB020E75EB030E22BF0B
:1032F000B61A754640EA5C005B084FEA3202B6EB4C
:10330000020E75EB030E22BFB61A754640EA9C000A
:103310005B084FEA3202B6EB020E75EB030E22BFDA
:10332000B61A754640EADC0055EA060E18D04FEA98
:10333000051545EA16754FEA06164FEAC30343EA38
:1033400052734FEAC2025FEA1C1CC0D111F4801F05
:103350000BD141EA00014FF000004FF0004CB6E7FE
:1033600011F4801F04BF01430020B4F1FD0C88BF9D
:10337000BCF5E06F3FF6AFAEB5EB030C04BFB6EBA8
:10338000020C5FEA500C50F1000041EB045170BD9B
:103390000EF0004E4EEA113114EB5C04C2BFD4EBC8
:1033A0000C0541EA045170BD41F480114FF0000E4C
:1033B000013C90E645EA060E8DE60CEA135594EAC8
:1033C0000C0F08BF95EA0C0F3FF43BAF94EA0C0FCB
:1033D0000AD150EA01347FF434AF95EA0C0F7FF440
:1033E00025AF104619462CE795EA0C0F06D152EA94
:1033F00003353FF4FDAE1046194622E750EA410678
:1034000018BF52EA43067FF4C5AE50EA41047FF488
:103410000DAF52EA43057FF4EBAE12E74FF0FF3CED
:1034200006E000BF4FF0010C02E000BF4FF0010CBE
:103430004DF804CD4FEA410C7FEA6C5C4FEA430C37
:1034400018BF7FEA6C5C1BD001B050EA410C0CBF86
:1034500052EA430C91EA030F02BF90EA020F0020E8
:10346000704710F1000F91EA030F58BF994208BF4F
:1034700090422CBFD8176FEAE37040F0010070470C
:103480004FEA410C7FEA6C5C02D150EA013C07D163
:103490004FEA430C7FEA6C5CD6D152EA033CD3D0AE
:1034A0005DF8040B704700BF8446104662468C46A8
:1034B0001946634600E000BF01B5FFF7B7FF0028DB
:1034C00048BF10F1000F01BD4DF808EDFFF7F4FF04
:1034D0000CBF012000205DF808FB00BF4DF808ED8F
:1034E000FFF7EAFF34BF012000205DF808FB00BFB2
:1034F0004DF808EDFFF7E0FF94BF012000205DF8D4
:1035000008FB00BF4DF808EDFFF7CEFF94BF012088
:1035100000205DF808FB00BF4DF808EDFFF7C4FF81
:1035200034BF012000205DF808FB00BF4FEA4102D4
:1035300012F5001215D211D56FF47873B3EB625205
:1035400012D94FEAC12343F0004343EA505311F02C
:10355000004F23FA02F018BF404270474FF00000BE
:10356000704750EA013005D111F0004008BF6FF0FC
:10357000004070474FF00000704700BF4FEA410223
:10358000B2F1E04324BFB3F5001CDCF1FE5C0DD9C1
:1035900001F0004C4FEAC0024CEA5070B2F1004F0B
:1035A00040EB830008BF20F00100704711F0804F0E
:1035B00021D113F13872BCBF01F00040704741F4D3
:1035C00080114FEA5252C2F11802C2F1200C10FAD7
:1035D0000CF320FA02F018BF40F001004FEAC123BB
:1035E0004FEAD32303FA0CFC40EA0C0023FA02F35F
:1035F0004FEA4303CCE77FEA625307D150EA013335
:103600001EBF4FF0FE4040F44000704701F0004004
:1036100040F0FE4040F40000704700BF80F00040E2
:1036200002E000BF81F0004142001FBF5FEA41039A
:1036300092EA030F7FEA226C7FEA236C6AD04FEA9A
:103640001262D2EB1363C1BFD218414048404140DF
:10365000B8BF5B42192B88BF704710F0004F40F491
:10366000000020F07F4018BF404211F0004F41F4AD
:10367000000121F07F4118BF494292EA030F3FD079
:10368000A2F1010241FA03FC10EB0C00C3F120038C
:1036900001FA03F100F0004302D5494260EB40001B
:1036A000B0F5000F13D3B0F1807F06D340084FEA86
:1036B000310102F10102FE2A51D2B1F1004F40EB7B
:1036C000C25008BF20F0010040EA030070474900E3
:1036D00040EB000010F4000FA2F10102EDD1B0FAAE
:1036E00080FCACF1080CB2EB0C0200FA0CF0AABFA3
:1036F00000EBC25052421843BCBFD0401843704741
:1037000092F0000F81F4000106BF80F40000013246
:10371000013BB5E74FEA41037FEA226C18BF7FEA1D
:10372000236C21D092EA030F04D092F0000F08BF5F
:103730000846704790EA010F1CBF0020704712F046
:103740007F4F04D1400028BF40F00040704712F185
:1037500000723CBF00F50000704700F0004343F0EA
:10376000FE4040F4000070477FEA226216BF084620
:103770007FEA23630146420206BF5FEA412390EAE3
:10378000010F40F4800070474FF0000304E000BFD9
:1037900010F0004348BF40425FEA000C08BF70478A
:1037A00043F0964301464FF000001CE050EA01024E
:1037B00008BF70474FF000030AE000BF50EA010263
:1037C00008BF704711F0004302D5404261EB410150
:1037D0005FEA010C02BF84460146002043F0B64375
:1037E00008BFA3F18053A3F50003BCFA8CF2083A9A
:1037F000A3EBC25310DB01FA02FC634400FA02FCA3
:10380000C2F12002BCF1004F20FA02F243EB0200A9
:1038100008BF20F00100704702F1200201FA02FC0B
:10382000C2F1200250EA4C0021FA02F243EB0200FE
:1038300008BF20EADC7070474FF0FF0C1CEAD05242
:103840001EBF1CEAD15392EA0C0F93EA0C0F6FD003
:103850001A4480EA010C400218BF5FEA41211ED0E1
:103860004FF0006343EA501043EA5111A0FB0131CD
:103870000CF00040B1F5000F3EBF490041EAD371A2
:103880005B0040EA010062F17F02FD2A1DD8B3F11E
:10389000004F40EBC25008BF20F00100704790F08D
:1038A000000F0CF0004C08BF49024CEA502040EADF
:1038B00051207F3AC2BFD2F1FF0340EAC2507047A5
:1038C00040F400004FF00003013A5DDC12F1190FE3
:1038D000DCBF00F000407047C2F10002410021FA55
:1038E00002F1C2F1200200FA02FC5FEA310040F16D
:1038F000000053EA4C0308BF20EADC70704792F0E6
:10390000000F00F0004C02BF400010F4000F013A1D
:10391000F9D040EA0C0093F0000F01F0004C02BF18
:10392000490011F4000F013BF9D041EA0C018FE787
:103930000CEAD15392EA0C0F18BF93EA0C0F0AD08D
:1039400030F0004C18BF31F0004CD8D180EA0100B3
:1039500000F00040704790F0000F17BF90F0004F4C
:10396000084691F0000F91F0004F14D092EA0C0F2E
:1039700001D142020FD193EA0C0F03D14B0218BFC1
:10398000084608D180EA010000F0004040F0FE4007
:1039900040F40000704740F0FE4040F440007047A3
:1039A0004FF0FF0C1CEAD0521EBF1CEAD15392EA22
:1039B0000C0F93EA0C0F69D0A2EB030280EA010C12
:1039C00049024FEA402037D04FF0805343EA1111AB
:1039D00043EA10130CF000408B4238BF5B0042F109
:1039E0007D024FF4000C8B4224BF5B1A40EA0C00AE
:1039F000B3EB510F24BFA3EB510340EA5C00B3EBE0
:103A0000910F24BFA3EB910340EA9C00B3EBD10FCD
:103A100024BFA3EBD10340EADC001B0118BF5FEA1F
:103A20001C1CE0D1FD2A3FF650AF8B4240EBC25048
:103A300008BF20F0010070470CF0004C4CEA502009
:103A40007F32C2BFD2F1FF0340EAC250704740F458
:103A500000004FF00003013A37E792F0000F00F04A
:103A6000004C02BF400010F4000F013AF9D040EAC8
:103A70000C0093F0000F01F0004C02BF490011F45C
:103A8000000F013BF9D041EA0C0195E70CEAD15354
:103A900092EA0C0F08D142027FF47DAF93EA0C0F3B
:103AA0007FF470AF084676E793EA0C0F04D14B021F
:103AB0003FF44CAF08466EE730F0004C18BF31F0D1
:103AC000004CCAD130F000427FF45CAF31F00043CB
:103AD0007FF43CAF5FE700BF4FF0FF3C06E000BF64
:103AE0004FF0010C02E000BF4FF0010C4DF804CD87
:103AF0004FEA40024FEA41037FEA226C18BF7FEA97
:103B0000236C11D001B052EA530C18BF90EA010F98
:103B100058BFB2EB030088BFC81738BF6FEAE17027
:103B200018BF40F0010070477FEA226C02D15FEAC3
:103B3000402C05D17FEA236CE4D15FEA412CE1D02F
:103B40005DF8040B704700BF844608466146FFE7F6
:103B50000FB5FFF7C9FF002848BF10F1000F0FBDD8
:103B60004DF808EDFFF7F4FF0CBF012000205DF8D1
:103B700008FB00BF4DF808EDFFF7EAFF34BF012056
:103B800000205DF808FB00BF4DF808EDFFF7E0FFEF
:103B900094BF012000205DF808FB00BF4DF808ED40
:103BA000FFF7D2FF94BF012000205DF808FB00BFA3
:103BB0004DF808EDFFF7C8FF34BF012000205DF885
:103BC00008FB00BF4FEA4002B2F1FE4F0FD34FF0A7
:103BD0009E03B3EB12620DD94FEA002343F000437A
:103BE00010F0004F23FA02F018BF404270474FF028
:103BF0000000704712F1610F01D1420205D110F0AF
:103C0000004008BF6FF0004070474FF00000704761
:103C100042000ED2B2F1FE4F0BD34FF09E03B3EB36
:103C2000126209D44FEA002343F0004323FA02F062
:103C300070474FF00000704712F1610F01D142024E
:103C400002D14FF0FF3070474FF00000704700BFC7
:103C500000210A2200F058BB00220A2300F0A4BA77
:103C60002DE9F84FD2F1010538BF00251F46002B82
:103C700008BF45F0010580468946DDF828A095B9C2
:103C8000164604E004F101050FD0B5420BD27419B9
:103C90004046640807FB049B5946D0470028F1DAE8
:103CA0002646B542F3D34FF0000B5846BDE8F88FD7
:103CB00040F20803C2F200031868704770B547F677
:103CC000082647F60825C0F60106C0F60105761B52
:103CD000B61006D0002455F8043B01349847A6429C
:103CE000F9D147F60C2647F60825C0F60106C0F6BE
:103CF0000105761B13F07CFEB61006D0002455F8A3
:103D0000043B01349847A642F9D170BD032A2DE93E
:103D1000F00109D82AB10023CC5CC454013393428A
:103D2000FAD1BDE8F001704785070244034605D08B
:103D300011F8014B03F8014B9C07F9D111F0030571
:103D400042D0D41A6E42032C8F5912DDC5F1040CF7
:103D5000ED004FEACC0C043127FA05F88C592746C0
:103D600004FA0CF444EA080443F8044BD41A032C74
:103D7000F1DC9A42D5D900228D5C9D540132A242D9
:103D8000FAD1CEE70C681C604C685C608C689C6063
:103D9000CC68DC600C691C614C695C618C699C615D
:103DA000CC69DC610C6A1C624C6A5C628C6A9C6245
:103DB000CC6ADC620C6B1C634C6B5C638C6B9C632D
:103DC000CC6B4031DC634033D41A3F2CDADC0AE0A0
:103DD0000C681C604C685C608C689C60CC6810311E
:103DE000DC601033D41A0F2CF2DC04E051F8044BE1
:103DF00043F8044BD41A032CF8DCBAE7032AC9B2FF
:103E000070B407D822B10023C15401339342FBD1CF
:103E100070BC704785070244034603D003F8011BBA
:103E20009C07FBD10C02D51A641826043F2D34449C
:103E30001ADD1C605C609C60DC601C615C619C61E4
:103E4000DC611C625C629C62DC621C635C639C6380
:103E5000DC634033D51A3F2DEBDC05E01C605C6071
:103E60009C60DC601033D51A0F2DF7DC02E043F8BC
:103E7000044BD51A032DFADC9342C9D203F8011B77
:103E80009342FBD1C4E700BF38B58307044613D182
:103E90000368A3F1013222EA030313F0803F08BF55
:103EA000024609D152F8043F0430A3F1013525EA56
:103EB000030313F0803FF5D003782BB1034613F8CA
:103EC000012F0130002AFAD100F07AF8204638BDDF
:103ED000C9B2F0B4002946D0820710D00378002B75
:103EE0006CD0994218BF024606D13AE012F8013F61
:103EF000002B63D0994234D001308307F6D1036898
:103F000041EA0127A3F1013247EA074722EA030207
:103F100012F0803F1CD17B40A3F1013222EA03035F
:103F200013F0803F14D1044602E012F0803F0FD11D
:103F300054F8043F0430A3F1013687EA030226EA6D
:103F40000303A2F1013513F0803F25EA0202ECD011
:103F5000037823B932E043780130002B2ED0994208
:103F6000F9D1F0BC704783070AD00378024623B921
:103F7000F7E712F8013F002BF3D001308107F8D1A9
:103F800003680246A3F1013121EA030313F0803FE5
:103F90000AD1014651F8043F0432A3F1013020EA6E
:103FA000030313F0803FF5D013781046002BD8D0D0
:103FB00012F8013F0130002BFAD1D2E71846D0E7C2
:103FC00080EA0102844612F0030F4FD111F0030F73
:103FD00032D14DF8044D11F0040F51F8043B0BD0D1
:103FE000A3F101329A4312F0803F04BF4CF8043B26
:103FF00051F8043B16D100BF51F8044BA3F1013234
:104000009A4312F0803FA4F101320BD14CF8043BEB
:10401000A24312F0803F04BF51F8043B4CF8044B1C
:10402000EAD023460CF8013B13F0FF0F4FEA33238D
:10403000F8D15DF8044B704711F0010F06D011F86C
:10404000012B0CF8012B002A08BF704711F0020F5A
:10405000BFD031F8022B12F0FF0F16BF2CF8022B45
:104060008CF8002012F47F4FB3D1704711F8012B68
:104070000CF8012B002AF9D1704700BF20F0030192
:1040800010F00300C0F1000051F8043B00F1040CF3
:104090004FEACC0C6FF000021CBF22FA0CF2134363
:1040A0004FF0010C4CEA0C2C4CEA0C4CA3EB0C022C
:1040B00022EA030212EACC1204BF51F8043B043096
:1040C000F4D013F0FF0F1FBF013013F47F4F013006
:1040D00013F47F0F18BF0130704700BFF0B4002AFF
:1040E00025D040F204038718C2F2000305461E687B
:1040F00002E0D3B1BD4218D015F8013B11F8014BD5
:10410000F0181A46407800F00300012806EB04007E
:1041100008BF03F120022346407800F00300012885
:1041200008BF04F12003D01AE3D0F0BC704710465A
:10413000FBE700BF41EA000313F0030F034670B42E
:1041400014BF00240124032A94BF002404F00104B6
:104150000D46C4B9AAB10C78013A03F8014B4CB131
:104160001C4672B111F8016F013A04F8016B234645
:10417000002EF6D12AB19A18002103F8011B9342B0
:10418000FBD170BC7047294655F8044BA4F10136A9
:1041900026EA040616F0803FDCD1043A43F8044BCB
:1041A000032AF0D82946D5E72DE9F04F40F2040460
:1041B000C2F2000485B01F468C4626680B46039069
:1041C00002921A4601331D461478311991F801B054
:1041D0001BF0080BF5D12D2C73D02B2C04BF547879
:1041E000951CD7F1010338BF0023102F14BF1A46C6
:1041F00043F001023AB1302C73D023B10827302CA0
:10420000B94601D00A27B946BBF1000F49460CBF99
:104210006FF0004A4FF0004ACDF804C0504600F05D
:10422000B1F950468846494600F07EF8331900221D
:10423000DDF804C05B78114613F0040F1ED0303C4B
:10424000A74225DD814294BF0023012353EAD272A5
:104250002DD10A1A534243EB02034445D4BF002335
:1042600003F00103002B22D109FB014115F8014B9A
:10427000012233195B7813F0040FE0D113F003032C
:1042800006D0012B14BF57233723E41AA742D9DCE9
:10429000531C1BD00846BBF1000F10D1029B1BB171
:1042A00052B90299C1F800C005B0BDE8F08F4FF0D7
:1042B000FF3215F8014BDCE705F1FF3CF1E748421E
:1042C000ECE75478951C4FF0010B8AE70399BBF19A
:1042D000000F0CBF6FF000404FF0004022230B6036
:1042E000DCE72A78A2F17800414241EB0001582A2C
:1042F00014BF0A4641F00102002A3FF47EAF1027A6
:104300006C78B94602357FE730B440F20804C2F257
:1043100000040D46134601462A46206830BCFFF7CC
:1043200043BF00BF000000004A1E08BF7047C0F036
:104330002481884240F21681114200F01781B0FAC0
:1043400080F3B1FA81F2A2EB0303C3F11F0304A2CD
:1043500002EB03134FF000029F4600BFAFF3008053
:10436000B0EBC17F00BF42EB020228BFA0EBC170DF
:10437000B0EB817F00BF42EB020228BFA0EB81704F
:10438000B0EB417F00BF42EB020228BFA0EB4170BF
:10439000B0EB017F00BF42EB020228BFA0EB01702F
:1043A000B0EBC16F00BF42EB020228BFA0EBC160BF
:1043B000B0EB816F00BF42EB020228BFA0EB81602F
:1043C000B0EB416F00BF42EB020228BFA0EB41609F
:1043D000B0EB016F00BF42EB020228BFA0EB01600F
:1043E000B0EBC15F00BF42EB020228BFA0EBC1509F
:1043F000B0EB815F00BF42EB020228BFA0EB81500F
:10440000B0EB415F00BF42EB020228BFA0EB41507E
:10441000B0EB015F00BF42EB020228BFA0EB0150EE
:10442000B0EBC14F00BF42EB020228BFA0EBC1407E
:10443000B0EB814F00BF42EB020228BFA0EB8140EE
:10444000B0EB414F00BF42EB020228BFA0EB41405E
:10445000B0EB014F00BF42EB020228BFA0EB0140CE
:10446000B0EBC13F00BF42EB020228BFA0EBC1305E
:10447000B0EB813F00BF42EB020228BFA0EB8130CE
:10448000B0EB413F00BF42EB020228BFA0EB41303E
:10449000B0EB013F00BF42EB020228BFA0EB0130AE
:1044A000B0EBC12F00BF42EB020228BFA0EBC1203E
:1044B000B0EB812F00BF42EB020228BFA0EB8120AE
:1044C000B0EB412F00BF42EB020228BFA0EB41201E
:1044D000B0EB012F00BF42EB020228BFA0EB01208E
:1044E000B0EBC11F00BF42EB020228BFA0EBC1101E
:1044F000B0EB811F00BF42EB020228BFA0EB81108E
:10450000B0EB411F00BF42EB020228BFA0EB4110FD
:10451000B0EB011F00BF42EB020228BFA0EB01106D
:10452000B0EBC10F00BF42EB020228BFA0EBC100FD
:10453000B0EB810F00BF42EB020228BFA0EB81006D
:10454000B0EB410F00BF42EB020228BFA0EB4100DD
:10455000B0EB010F00BF42EB020228BFA0EB01004D
:10456000104670470CBF012000207047B1FA81F25D
:10457000C2F11F0220FA02F0704708B14FF0FF307D
:1045800000F00EB80029F8D02DE90340FFF7CCFE6B
:10459000BDE8064002FB00F3A1EB0301704700BF3A
:1045A000704700BF4FF48053C4F202035A6802F010
:1045B0000C02082A1CBF4FF49052C0F27A0215D0A8
:1045C0004FF4805CC4F2020CDCF8043040F2FC00D2
:1045D000C3F30311C2F20000435C40F20C1C22FA48
:1045E00003F2C2F2000CCCF8002070475A685968F8
:1045F000C2F38340821CC90309D55B689B0306D4C0
:104600004FF49050C0F27A0000FB02F2D8E74FF46A
:104610001061C0F23D0101FB02F2D1E74FF480537B
:10462000C4F202031A6800B542F0010119605A6829
:104630000020CFF6FF0002EA000159601A6800214D
:1046400022F0847020F480321A60186885B020F45B
:1046500080221A6058681A4620F4FE0058604FF411
:104660001F009860019102910391186840F4803115
:10467000196003E00199B1F5A06F09D0106800F44A
:10468000003302930199481C0190029B002BF1D04A
:104690004FF4805CC4F2020CDCF8003013F40032FA
:1046A00008BF029201D001200290029901296BD02B
:1046B0004FF48052C4F202021168002041F001035D
:1046C0001360019003E00199B1F5A06F09D0136860
:1046D00003F00200039001994B1C019303980028FA
:1046E000F1D04FF48053C4F202031A68920742D506
:1046F0004FF4005EC4F2020EDEF80020194642F0CC
:104700001000CEF80000DEF8002022F00300CEF802
:104710000000DEF8002042F00200CEF800005A68E7
:104720005A60586858605A6842F4806058605A6805
:1047300022F47C1058605A6842F4601058601A687D
:1047400042F08070186008684FF480538001C4F212
:104750000203F8D558681A4620F0030159605868DA
:1047600040F002015960536803F00C0CBCF1080FD3
:10477000F9D1FFF717FF4FF46D41CEF200014FF072
:1047800000628A6005B000BD4FF4005CC4F2020C08
:10479000DCF800104FF4805341F01002CCF80020F8
:1047A000DCF80000C4F2020320F00301CCF8001092
:1047B000DCF80020194642F00200CCF800005868EE
:1047C00058605A685A60586840F480625A60586865
:1047D00020F47C125A60586840F4E8125A60186855
:1047E00040F080721A6008684FF480538001C4F270
:1047F0000203F8D558681A4620F00301596058683A
:1048000040F002015960516801F00C03082BFAD105
:10481000B1E700BF40F0BE614FF46D4341F420208A
:10482000CEF20003D8607047C37830B47BB9037808
:10483000012003F01F0200FA02F059094FF461430E
:10484000CEF20003203143F8210030BC70474FF412
:104850006D4CCEF2000CDCF80C504478EA43C2F305
:1048600002210F23C1F1040523FA01F204FA05F431
:104870008578017802EA05034FF4614C43EA0402AB
:10488000CEF2000C01EB0C03120183F80023027836
:10489000012102F01F0C01FA0CF14FF46140CEF23D
:1048A0000000520940F82210CFE700BF70B44668FC
:1048B0000C6826F470250A7925F4807343EA04060F
:1048C00046EA0225456085688E68CC684FF2FD7C1B
:1048D000CFF6F17C4A7905EA0C03344344EA030C31
:1048E0004CEA420383600A7CC16A531E21F47002C1
:1048F000D9B242EA0153C36270BC7047836819B9E8
:1049000023F001018160704743F001038360704729
:10491000836819B923F480718160704743F4807310
:1049200083607047816841F008038360704700BF6F
:104930008068C0F3C0007047816841F00403836061
:10494000704700BF8068C0F380007047836819B962
:1049500023F4A0018160704743F4A0038360704793
:10496000092970B401EB41041FD91E3C072606FA41
:1049700004F603FA04F4C568062A25EA060C4CEA94
:104980000403C3601ED90C2A02EB820229D9413AE2
:104990001F2404FA02F401FA02F2C16A21EA040CAB
:1049A0004CEA0203C36270BC7047072505FA04F69F
:1049B00003FA04F40569062A25EA060C4CEA040306
:1049C0000361E0D8013A02EB82031F2404FA03F4E6
:1049D00001FA03F1426B22EA040343EA0102426353
:1049E000E1E7233A1F2404FA02F401FA02F2016B10
:1049F00021EA040343EA02010163D4E710B4082169
:104A000004684FF6FE72C4F202010023224088427D
:104A10000260036043608360C36050D01C23C4F213
:104A20000203984252D03023C4F20203984255D078
:104A30004423C4F20203984258D05823C4F202031C
:104A400098425BD06C23C4F2020398425ED080236C
:104A5000C4F20203984228D04FF4816CC4F2020CD5
:104A600060452AD040F21C43C4F20203984255D05C
:104A70004FF48661C4F2020188425AD040F24441A8
:104A8000C4F2020188425DD04FF48B61C4F202018E
:104A9000884201BF4FF48061C4F202014A6842F4C7
:104AA000702208BF4A6010BC70470021C4F20201A6
:104AB0004A6842F070604860F5E74FF48063C4F2E2
:104AC0000203596841F00F005860ECE70021C4F27E
:104AD00002014A6842F0F0004860E4E70021C4F2B5
:104AE00002014A6842F470604860DCE70021C4F2C9
:104AF00002014A6842F470404860D4E70021C4F2E1
:104B000002014A6842F470204860CCE70021C4F2F8
:104B100002014A6842F470004860C4E74FF4806CB8
:104B2000C4F2020CDCF8040040F0F002CCF80420DF
:104B3000B9E74FF48063C4F20203586840F470622E
:104B40005A60B0E74FF4806CC4F2020CDCF8043019
:104B500043F47042CCF80420A5E700BF8B68F0B4A2
:104B60000E6A0D694F6946EA03042C438B69CE69CE
:104B700044EA07024D6A076842EA030C4CEA06065B
:104B80008A6A46EA050327F4FE47CE680D6843EAC1
:104B9000020C27F0F0074A684CEA070303604660FE
:104BA0008560C260F0BC704731B903684FF6FE7C87
:104BB00003EA0C0202607047016841F001030360E0
:104BC000704700BF03681AB923EA01020260704708
:104BD00019430160704700BF406880B2704700BF52
:104BE000C3004CBF4FF480630023C4F2020358603B
:104BF000704700BF837930B453B34FF48063C4F27D
:104C0000010301681A68CC4304EA02051D605A6872
:104C100090F804C014400CF180455C6005F58232C8
:104C2000156844792943116002689868D1430840A7
:104C30009860D868102C01EA0001D96014D004F102
:104C4000804C0CF58234206840EA0203236009E0BE
:104C50000279016802F1804C0CF58233186820EA71
:104C600001021A6030BC7047996841EA02009860FE
:104C7000D96841EA0200D860F4E700BF4FF48061D0
:104C8000C4F201010A684B69034004D010420CBF12
:104C90000020012070471846704700BF4FF4806322
:104CA000C4F20103586170474FF4005340F22311DE
:104CB00048F6AB12C4F20203C4F26751CCF6EF52CD
:104CC00059605A60704700BF4FF40053C4F20203AA
:104CD000186940F080021A61704700BF4FF400531A
:104CE000C4F20203D86070474FF40053C4F20203C9
:104CF000DA68D2070BD4D868400701D50220704784
:104D0000DB6813F0100F0CBF042003207047012054
:104D1000704700BF10B50446FFF7E6FF231C18BF1D
:104D20000123012814BF002303F0010363B1FFF73F
:104D3000DBFF013C0CBF00210121012814BF002131
:104D400001F001010029F2D1002C08BF052010BD9F
:104D500070B5002382B004464FF400500D46019315
:104D6000FFF7D8FF042801D002B070BD4FF4005601
:104D7000C4F20206306940F0010232614FF4005083
:104D80002580FFF7C7FF042806D0336941F6FE7E71
:104D900003EA0E013161E7E702340194019A2D0C18
:104DA00015804FF40050FFF7B5FF336941F6FE7CE4
:104DB00003EA0C013161D7E738B505464FF43020DE
:104DC000FFF7A8FF042800D038BD4FF40054C4F208
:104DD000020423694FF4302043F00202226165612E
:104DE000216941F040032361FFF794FF226941F6F6
:104DF000FD7102EA0103236138BD00BFCB7830B4F6
:104E0000DA0648BF8A7803F00F0448BF14430A88C3
:104E100012F0FF0F29D002F001050168002D40F0CB
:104E2000258102F00205002D40F0FD8002F004050E
:104E3000002D40F0098102F00805002D40F0AE8001
:104E400002F01005002D40F0BA8002F02005002D80
:104E500040F0C68002F04005002D40F0D28002F004
:104E60008005002D40F014810160FF2A20D902F452
:104E700080754168002D27D102F40075002D32D1D4
:104E800002F48065002D3DD102F40065002D48D16B
:104E900002F48055002D53D102F40055002D5ED14F
:104EA00002F48045002D69D102F4004212B941603C
:104EB00030BC7047282B64F31F7108BF4261F6D0E5
:104EC000482B08BF0261F2E721F00F0C282B44EABF
:104ED0000C0108BF4561CFD0482B08BF056102F423
:104EE0000075002DCCD021F0F001282B41EA0411EF
:104EF00008BF4561C4D0482B08BF056102F4806536
:104F0000002DC1D021F4706C282B4CEA042108BF7D
:104F10004561B9D0482B08BF056102F40065002D3A
:104F2000B6D021F47041282B41EA043108BF456115
:104F3000AED0482B08BF056102F48055002DABD0E0
:104F400021F4702C282B4CEA044108BF4561A3D002
:104F5000482B08BF056102F40055002DA0D021F4B4
:104F60007001282B41EA045108BF456198D0482BB5
:104F700008BF056102F48045002D95D021F0706CCA
:104F8000282B4CEA046108BF45618DD0482B02F400
:104F9000004208BF0561002A89D08BE721F4704CDC
:104FA000282B4CEA043108BF45613FF449AF482B38
:104FB00008BF056102F01005002D3FF446AF21F453
:104FC0007021282B41EA044108BF45613FF43DAF01
:104FD000482B08BF056102F02005002D3FF43AAFD1
:104FE00021F4700C282B4CEA045108BF45613FF4B2
:104FF00031AF482B08BF056102F04005002D3FF49A
:105000002EAF21F07061282B41EA046108BF456191
:105010003FF425AF482B08BF056102F08005002D45
:105020003FF422AF34E021F0F00C282B4CEA0411BD
:1050300008BF45613FF4FAAE482B08BF056102F096
:105040000405002D3FF4F7AE21F47061282B41EAEE
:10505000042108BF45613FF4EEAE482B08BF05614F
:1050600002F00805002D3FF4EBAE97E721F00F01A9
:10507000282B44EA010108BF45613FF4D2AE482B1A
:1050800008BF056102F00205002D3FF4CFAECAE76C
:10509000282B64F31F7108BF45613FF4E5AE482B30
:1050A00008BF0561E0E600BF4FF0FF320221042394
:1050B00002808170C3707047836819420CBF002062
:1050C000012070470161704741617047002300284B
:1050D000C4F2010300F44012B4BFDB695B68B2F5AF
:1050E000401F30B484B222D0C20217D5C0F30342AD
:1050F000032505FA02FC23EA0C0343F0706321B197
:10510000420D110104FA01F423430021C4F201010C
:105110000028B4BFCB614B6030BC7047420D120118
:1051200004FA02FC23EA0C0343F07063E7E7002271
:10513000C4F20102556823F0706325F07065556074
:10514000DDE700BF01F0030310B40F229C0002FA58
:1051500004F200FA04FC89080024C4F201040231BC
:1051600054F8213023EA020044F8210054F82120A9
:105170004CEA020344F8213010BC704708B54FF4E4
:10518000A843C4F2000398420BD001214FF48000E1
:1051900000F070F94FF480000021BDE8084000F0F5
:1051A00069B901214FF4001000F064F94FF40010C8
:1051B0000021BDE8084000F05DB900BF70B58288ED
:1051C00086B0044601A822F03F060D4600F0CEF856
:1051D00003984DF68363C4F21B33A3FB0021320412
:1051E000130C890C41EA0306A680B4F800C048F20B
:1051F000A0662CF0010213042A68C0F201061B0C01
:10520000B242238027D85600B0FBF6F080B20131BD
:105210002184032898BF0420A083B4F800E06E899D
:105220001FFA8EFC4CF0010020802188B5F804E0C4
:1052300021F4806222F00A03B5F80CC02A89180410
:1052400046EA0E01030C43EA010042EA0C01208009
:10525000218106B070BDB5F806C04BF6FF7EF4455F
:105260001DBF02EB820202EB8202B0FBF2F002EB06
:10527000420216BF80B2B0FBF2F040F4804002055B
:10528000130D0BB940F001004FF4967606FB01FEBA
:1052900044F6D352C1F2620282FB0E239E096FEAEA
:1052A0004040711C6FEA50402184B5E741F28833D9
:1052B000002103604BF6FF724FF480438180C2806F
:1052C0000181418183817047038829B923F001015D
:1052D0000B041A0C0280704799B241F0010303805D
:1052E000704700BF038829B923F480710B041A0C9E
:1052F0000280704799B241F480730380704700BF09
:10530000038829B923F400710B041A0C028070473A
:1053100099B241F400730380704700BF038829B934
:1053200023F480610B041A0C0280704799B241F497
:1053300080630380704700BF83889BB21AB923EA59
:105340000102828070471943818070470182704753
:10535000008AC0B2704700BF1AB901F0FE01018295
:10536000704741F001010182704700BF4FF4805344
:10537000C4F202035A6830B402F00C02042A01D0CD
:10538000082A33D04FF49054C0F27A0404604FF4EA
:10539000805CC4F2020CDCF8045040F21412C2F239
:1053A0000002C5F30311535C40F2101124FA03F418
:1053B0004460DCF80450C2F20001C5F30223D55C5E
:1053C00024FA05F38360DCF80450C5F3C225535D6D
:1053D00024FA03F4C460DCF80420C2F3813311F82A
:1053E00003C0B4FBFCF4046130BC70475D685968CD
:1053F000C5F383440234C9030AD55B689A0307D412
:105400004FF49051C0F27A0101FB04F40460BEE74E
:105410004FF41062C0F23D0202FB04F40460B6E7F0
:105420004FF48053C4F202035A6919B922EA000109
:105430005961704710435861704700BF4FF4805363
:10544000C4F202039A6919B922EA0001996170470E
:1054500010439861704700BF4FF48053C4F20203B9
:10546000DA6919B922EA0001D96170471043D8619D
:10547000704700BF4FF48053C4F202031A6919B990
:1054800022EA00011961704710431861704700BF9C
:105490004FF48053C4F20203586A40F080725A629B
:1054A000704700BFF0B4048C4FF4305C24F0010668
:1054B00037043D0C0584048BC4F2010C24F0F30680
:1054C00037043C0C1443CCEB000256424FF45055C9
:1054D000078CC4F2010546EB0206A84208BF46F05D
:1054E000010644EA0314BFB24EBBA0F1804CDCF1CC
:1054F00000024FF48063C4F2000342EB0C029842B6
:1055000014BF134642F00103CBB94FF40062C4F25A
:105510000002C2EB000CDCF100024FF44063C4F265
:10552000000342EB0C02984214BF134642F0010301
:105530002BB927F00A0343F00107394304E027F0B1
:10554000020747F00107394304830184F0BC704728
:10555000F0B4058C4FF4305625F010073C04250CB0
:105560000584B0F818C0C4F201062CF440773C055D
:10557000C6EB000C240D4FF45055DCF10006078CEF
:10558000C4F2010546EB0C0644EA0224A84208BF17
:1055900046F00106BFB244EA03344EBBA0F1804C92
:1055A000DCF100024FF48063C4F2000342EB0C0212
:1055B000984214BF134642F00103CBB94FF4006286
:1055C000C4F20002C2EB000CDCF100024FF44063B5
:1055D000C4F2000342EB0C02984214BF134642F09F
:1055E00001032BB927F0A00343F01007394305E06E
:1055F00027F0200747F0100747EA011104830184D0
:10560000F0BC70474FF4305CC4F2010C30B4CCEB0A
:1056100000056B424FF45052C4F2010243EB050304
:10562000904208BF43F00103048883B9A0F1804C85
:10563000DCF100054FF48062C4F2000245EB0C057A
:10564000904214BF2A4645F00102002A47D04FF687
:105650008F72B1F802C0144044EA0C044FF4805534
:10566000C4F20005421B4FF4A05CC4F2000C18BF4A
:10567000012260450CBF002502F0010535B14FF64F
:10568000FF42B1F806C0144044EA0C048D88B1F81A
:1056900000C004808585A0F828C09BB94FF48042E3
:1056A000C4F20102C2EB000CDCF100024FF48843AB
:1056B000C4F2010342EB0C02984214BF134642F0BD
:1056C00001032BB1097A01860122828230BC704726
:1056D0004FF49043C4F201039842F5D1F2E74FF43E
:1056E0000065C4F20005C5EB000CDCF100054FF4C9
:1056F0004062C4F2000245EB0C05904214BF2A46FA
:1057000045F00102002AA9D0A1E700BF028C2DE9D3
:10571000F00122F001073E04340C0484058C8488D7
:10572000038B4FF43056C4F2010623F07302B1F834
:10573000028025F002030F8912041B044FF4505518
:10574000C6EB000CDCF1000646EB0C06B1F800C01D
:1057500048EA0707C4F20105120C1B0CBFB2A842AD
:1057600014BF354646F0010542EA0C023B439DB9A1
:105770004FF48046C4F20106C6EB000CDCF10006D3
:105780004FF48845C4F2010546EB0C06A84214BF4D
:10579000354646F00105F5B14FF6F77C4E89B1F874
:1057A0000E808F8903EA0C0545EA060C4FF6FB7361
:1057B0008E884FF6FF4548EA070725400CEA0303A9
:1057C000BCB233432C43C98884800283818603841E
:1057D000BDE8F00170474FF49045C4F20105A842BE
:1057E000F1D1D9E72DE9F001B0F82080B1F808C077
:1057F00028F010052A04140C0484078C8488068B76
:1058000027F0200526F4E6434FF430562F04C4F267
:1058100001061A04120C3B0C4FF45055B042B1F87B
:1058200000804F88C4F2010514BF0026012643EA18
:105830000C13A84214BF354646F0010542EA08227F
:1058400043EA0713BDB14FF67F7C4E8903EA0C078C
:1058500047EA061C4FF2FF354FF6BF738E892C4086
:105860000CEA03038F88B1F80EC044EA860543EAC8
:10587000071345EA8C04C988848002830187038466
:10588000BDE8F001704700BF2DE9F001058CB1F8CB
:10589000088025F480731A04140C0484068C848810
:1058A000878B26F400754FF43056C4F2010627F0BA
:1058B00073032F043A0C1B044FF45055871B7E4290
:1058C00046EB0706B1F800C04F88C4F201051B0C77
:1058D00042EA0822A84214BF354646F0010543EAD1
:1058E0000C0342EA0722BDB14FF2FF7C4F8902EA66
:1058F0000C0646EA072C4CF6FF754FF6FF328E89F0
:105900002C400CEA02028F88B1F80EC044EA06155A
:1059100042EA072245EA0C14C98884808383818780
:105920000284BDE8F00170472DE9F001B0F8208055
:10593000B1F808C028F480552A04140C0484078C9C
:105940008488868B27F4005526F4E6434FF43056BE
:105950002F04C4F201061A04120C3B0C4FF45055EC
:10596000B042B1F800804F88C4F2010514BF002690
:10597000012643EA0C33A84214BF354646F0010520
:1059800042EA082243EA073335B14BF6FF7C8E89A1
:1059900004EA0C0545EA8614C98884808283A0F84D
:1059A00040100384BDE8F001704700BFF8B50B88D4
:1059B0000D460446002B6DD0042B00F0ED80082B23
:1059C000028C7AD022F4805007043B0CB1F804C05A
:1059D00008894F882384A28B4FF4305122F44076FB
:1059E000C4F2010133051B0D4FF450528C42268C3A
:1059F000C4F2010214BF0021012143EA0C239442A6
:105A000008BF41F00101B6B243EA0033B1B126F458
:105A1000005646EA073297B247F48057A38327849B
:105A2000B4F81CC0EA882CF440610804030CA3837A
:105A3000A18B88B240EA0223A383F8BDA4F1804081
:105A400041424FF48062C4F2000241EB00009442F4
:105A500014BF014640F001010029D8D14FF4006184
:105A6000C4F20001601A42424FF4406CC4F2000CD0
:105A700042EB0001644514BF0A4641F00102002ACE
:105A8000C5D147F6FF5C06EA0C0147F4805041EAB5
:105A90000007C3E74988AA882B89FFF703FDB4F8FC
:105AA00018C0EA882CF00C010804030C2383218B16
:105AB00088B240EA02032383F8BD22F48072100406
:105AC000060CB1F808C08F8848882684A38B4FF451
:105AD000305123F0F3021604330CC4F2010143EAFF
