:020000040800F2
:10000000005000208D0501083D06010895AD00084F
:100010003D0601083D0601083D06010800000000FC
:100020000000000000000000000000003D06010884
:100030003D060108000000003D0601089D7A000809
:100040003D0601083D0601083D0601083D06010880
:100050003D0601083D0601083D0601085D57000800
:100060003D0601083D0601083D0601083D06010860
:100070003D0601083D0601080D7E00083D06010809
:100080003D0601083D0601083D0601083D06010840
:100090003D0601083D0601083D06010861570008BC
:1000A0003D0601083D0601083D060108617800088B
:1000B000D9780008E5780008F57800083D64000864
:1000C000A1680008416400089D6800083D06010819
:1000D0003D0601083D060108718100083D06010842
:1000E000995400083D0601083D0601080000000083
:1000F0000000000000000000000000000000000000
:0C01000000000000000000005FF808F1A3
:1001100010B5054C237833B9044810B10448AFF347
:1001200000800121217010BD940500200000000016
:10013000B452010808B5064B1BB106480649AFF397
:1001400000800648016811B1054A02B1904708BD18
:1001500000000000B452010898050020940500201A
:100160000000000081F0004102E000BF83F0004386
:1001700030B54FEA41044FEA430594EA050F08BF42
:1001800090EA020F1FBF54EA000C55EA020C7FEA06
:10019000645C7FEA655C00F0E2804FEA5454D4EB83
:1001A0005555B8BF6D420CDD2C4480EA020281EA4D
:1001B000030382EA000083EA010180EA020281EA85
:1001C0000303362D88BF30BD11F0004F4FEA0131D7
:1001D0004FF4801C4CEA113102D0404261EB4101E6
:1001E00013F0004F4FEA03334CEA133302D052426C
:1001F00063EB430394EA050F00F0A780A4F1010428
:10020000D5F1200E0DDB02FA0EFC22FA05F2801861
:1002100041F1000103FA0EF2801843FA05F3594147
:100220000EE0A5F120050EF1200E012A03FA0EFCC6
:1002300028BF4CF0020C43FA05F3C01851EBE371F0
:1002400001F0004507D54FF0000EDCF1000C7EEB0D
:1002500000006EEB0101B1F5801F1BD3B1F5001F4B
:100260000CD349085FEA30004FEA3C0C04F101046A
:100270004FEA445212F5800F80F09A80BCF1004F93
:1002800008BF5FEA500C50F1000041EB045141EA15
:10029000050130BD5FEA4C0C404141EB010111F416
:1002A000801FA4F10104E9D191F0000F04BF0146C1
:1002B0000020B1FA81F308BF2033A3F10B03B3F19F
:1002C00020020CDA0C3208DD02F1140CC2F10C022F
:1002D00001FA0CF021FA02F10CE002F11402D8BF8D
:1002E000C2F1200C01FA02F120FA0CFCDCBF41EA59
:1002F0000C019040E41AA2BF01EB0451294330BD28
:100300006FEA04041F3C1CDA0C340EDC04F1140404
:10031000C4F1200220FA04F001FA02F340EA0300DB
:1003200021FA04F345EA030130BDC4F10C04C4F121
:10033000200220FA02F001FA04F340EA0300294601
:1003400030BD21FA04F0294630BD94F0000F83F44B
:10035000801306BF81F480110134013D4EE77FEA2E
:10036000645C18BF7FEA655C29D094EA050F08BF7A
:1003700090EA020F05D054EA000C04BF194610465B
:1003800030BD91EA030F1EBF0021002030BD5FEA9F
:10039000545C05D14000494128BF41F0004130BDC7
:1003A00014F580043CBF01F5801130BD01F000451B
:1003B00045F0FE4141F470014FF0000030BD7FEA8E
:1003C000645C1ABF194610467FEA655C1CBF0B4689
:1003D000024650EA013406BF52EA033591EA030FA0
:1003E00041F4002130BD00BF90F0000F04BF002198
:1003F000704730B54FF4806404F132044FF00005CB
:100400004FF0000150E700BF90F0000F04BF002143
:10041000704730B54FF4806404F1320410F00045A9
:1004200048BF40424FF000013EE700BF42004FEAA4
:10043000E2014FEA31014FEA02701FBF12F07F4321
:1004400093F07F4F81F06051704792F0000F14BF1E
:1004500093F07F4F704730B54FF4607401F0004562
:1004600021F0004120E700BF50EA010208BF7047B9
:1004700030B54FF000050AE050EA010208BF7047AE
:1004800030B511F0004502D5404261EB41014FF417
:10049000806404F132045FEA915C3FF4DCAE4FF01B
:1004A00003025FEADC0C18BF03325FEADC0C18BF02
:1004B000033202EBDC02C2F1200300FA03FC20FA53
:1004C00002F001FA03FE40EA0E0021FA02F11444A0
:1004D000C1E600BF70B54FF0FF0C4CF4E06C1CEAB5
:1004E00011541DBF1CEA135594EA0C0F95EA0C0F2A
:1004F00000F0DEF82C4481EA030621EA4C5123EA9D
:100500004C5350EA013518BF52EA033541F48011CB
:1005100043F4801338D0A0FB02CE4FF00005E1FB7E
:1005200002E506F00042E0FB03E54FF00006E1FBC8
:1005300003569CF0000F18BF4EF0010EA4F1FF040B
:10054000B6F5007F64F5407404D25FEA4E0E6D414B
:1005500046EB060642EAC62141EA55514FEAC5205C
:1005600040EA5E504FEACE2EB4F1FD0C88BFBCF5D8
:10057000E06F1ED8BEF1004F08BF5FEA500E50F189
:10058000000041EB045170BD06F0004646EA01014F
:1005900040EA020081EA0301B4EB5C04C2BFD4EB81
:1005A0000C0541EA045170BD41F480114FF0000E7A
:1005B000013C00F3AB8014F1360FDEBF002001F0E8
:1005C000004170BDC4F10004203C35DA0C341BDC62
:1005D00004F11404C4F1200500FA05F320FA04F034
:1005E00001FA05F240EA020001F0004221F0004168
:1005F00010EBD37021FA04F642EB06015EEA430EDB
:1006000008BF20EAD37070BDC4F10C04C4F120050A
:1006100000FA04F320FA05F001FA04F240EA0200BD
:1006200001F0004110EBD37041F100015EEA430E8E
:1006300008BF20EAD37070BDC4F1200500FA05F2AE
:100640004EEA020E20FA04F301FA05F243EA02032D
:1006500021FA04F001F0004121FA04F220EA02003C
:1006600000EBD3705EEA430E08BF20EAD37070BD82
:1006700094F0000F0FD101F00046400041EB010162
:1006800011F4801F08BF013CF7D041EA060195F044
:10069000000F18BF704703F00046520043EB0303FE
:1006A00013F4801F08BF013DF7D043EA06037047EB
:1006B00094EA0C0F0CEA135518BF95EA0C0F0CD0F6
:1006C00050EA410618BF52EA4306D1D181EA03013C
:1006D00001F000414FF0000070BD50EA410606BF36
:1006E0001046194652EA430619D094EA0C0F02D17B
:1006F00050EA013613D195EA0C0F05D152EA0336C0
:100700001CBF104619460AD181EA030101F00041DD
:1007100041F0FE4141F470014FF0000070BD41F026
:10072000FE4141F4780170BD70B54FF0FF0C4CF400
:10073000E06C1CEA11541DBF1CEA135594EA0C0F1F
:1007400095EA0C0F00F0A7F8A4EB050481EA030E6C
:1007500052EA03354FEA013100F088804FEA033353
:100760004FF0805545EA131343EA12634FEA022221
:1007700045EA111545EA10654FEA00260EF00041E2
:100780009D4208BF964244F1FD0404F5407402D234
:100790005B084FEA3202B61A65EB03055B084FEAC5
:1007A00032024FF480104FF4002CB6EB020E75EBC2
:1007B000030E22BFB61A754640EA0C005B084FEAEA
:1007C0003202B6EB020E75EB030E22BFB61A754667
:1007D00040EA5C005B084FEA3202B6EB020E75EBB2
:1007E000030E22BFB61A754640EA9C005B084FEA2A
:1007F0003202B6EB020E75EB030E22BFB61A754637
:1008000040EADC0055EA060E18D04FEA051545EA25
:1008100016754FEA06164FEAC30343EA52734FEACE
:10082000C2025FEA1C1CC0D111F4801F0BD141EA47
:1008300000014FF000004FF0004CB6E711F4801FAC
:1008400004BF01430020B4F1FD0C88BFBCF5E06F8C
:100850003FF6AFAEB5EB030C04BFB6EB020C5FEA9C
:10086000500C50F1000041EB045170BD0EF0004EF1
:100870004EEA113114EB5C04C2BFD4EB0C0541EA23
:10088000045170BD41F480114FF0000E013C90E620
:1008900045EA060E8DE60CEA135594EA0C0F08BFE4
:1008A00095EA0C0F3FF43BAF94EA0C0F0AD150EAE3
:1008B00001347FF434AF95EA0C0F7FF425AF104676
:1008C00019462CE795EA0C0F06D152EA03353FF49E
:1008D000FDAE1046194622E750EA410618BF52EA1B
:1008E00043067FF4C5AE50EA41047FF40DAF52EAEF
:1008F00043057FF4EBAE12E74FEA4102B2F1E04369
:1009000024BFB3F5001CDCF1FE5C0DD901F0004CF6
:100910004FEAC0024CEA5070B2F1004F40EB830046
:1009200008BF20F00100704711F0804F21D113F172
:100930003872BCBF01F00040704741F480114FEAAB
:100940005252C2F11802C2F1200C10FA0CF320FA34
:1009500002F018BF40F001004FEAC1234FEAD32351
:1009600003FA0CFC40EA0C0023FA02F34FEA4303BB
:10097000CCE77FEA625307D150EA01331EBF4FF044
:10098000FE4040F44000704701F0004040F0FE405F
:1009900040F40000704700BF80F0004002E000BF5C
:1009A00081F0004142001FBF5FEA410392EA030F5A
:1009B0007FEA226C7FEA236C6AD04FEA1262D2EBA4
:1009C0001363C1BFD218414048404140B8BF5B42A9
:1009D000192B88BF704710F0004F40F4000020F042
:1009E0007F4018BF404211F0004F41F4000121F058
:1009F0007F4118BF494292EA030F3FD0A2F10102A2
:100A000041FA03FC10EB0C00C3F1200301FA03F1DF
:100A100000F0004302D5494260EB4000B0F5000F02
:100A200013D3B0F1807F06D340084FEA310102F1C1
:100A30000102FE2A51D2B1F1004F40EBC25008BF73
:100A400020F0010040EA03007047490040EB00003D
:100A500010F4000FA2F10102EDD1B0FA80FCACF16C
:100A6000080CB2EB0C0200FA0CF0AABF00EBC2506B
:100A700052421843BCBFD0401843704792F0000F59
:100A800081F4000106BF80F400000132013BB5E7AC
:100A90004FEA41037FEA226C18BF7FEA236C21D022
:100AA00092EA030F04D092F0000F08BF0846704787
:100AB00090EA010F1CBF0020704712F07F4F04D155
:100AC000400028BF40F00040704712F100723CBF68
:100AD00000F50000704700F0004343F0FE4040F492
:100AE000000070477FEA226216BF08467FEA236350
:100AF0000146420206BF5FEA412390EA010F40F43B
:100B0000800070474FF0000304E000BF10F0004386
:100B100048BF40425FEA000C08BF704743F096436D
:100B200001464FF000001CE050EA010208BF704788
:100B30004FF000030AE000BF50EA010208BF70470F
:100B400011F0004302D5404261EB41015FEA010C24
:100B500002BF84460146002043F0B64308BFA3F11C
:100B60008053A3F50003BCFA8CF2083AA3EBC253FE
:100B700010DB01FA02FC634400FA02FCC2F120021D
:100B8000BCF1004F20FA02F243EB020008BF20F054
:100B90000100704702F1200201FA02FCC2F12002BA
:100BA00050EA4C0021FA02F243EB020008BF20EAAF
:100BB000DC7070474FF0FF0C1CEAD0521EBF1CEADD
:100BC000D15392EA0C0F93EA0C0F6FD01A4480EACB
:100BD000010C400218BF5FEA41211ED04FF00063B4
:100BE00043EA501043EA5111A0FB01310CF00040E0
:100BF000B1F5000F3EBF490041EAD3715B0040EA06
:100C0000010062F17F02FD2A1DD8B3F1004F40EBD5
:100C1000C25008BF20F00100704790F0000F0CF0A8
:100C2000004C08BF49024CEA502040EA51207F3A6C
:100C3000C2BFD2F1FF0340EAC250704740F4000047
:100C40004FF00003013A5DDC12F1190FDCBF00F038
:100C500000407047C2F10002410021FA02F1C2F1E6
:100C6000200200FA02FC5FEA310040F1000053EA82
:100C70004C0308BF20EADC70704792F0000F00F0D0
:100C8000004C02BF400010F4000F013AF9D040EAD6
:100C90000C0093F0000F01F0004C02BF490011F46A
:100CA000000F013BF9D041EA0C018FE70CEAD15368
:100CB00092EA0C0F18BF93EA0C0F0AD030F0004CE8
:100CC00018BF31F0004CD8D180EA010000F000409C
:100CD000704790F0000F17BF90F0004F084691F05A
:100CE000000F91F0004F14D092EA0C0F01D1420294
:100CF0000FD193EA0C0F03D14B0218BF084608D15D
:100D000080EA010000F0004040F0FE4040F40000A6
:100D1000704740F0FE4040F4400070474FF0FF0C39
:100D20001CEAD0521EBF1CEAD15392EA0C0F93EA80
:100D30000C0F69D0A2EB030280EA010C49024FEAD2
:100D4000402037D04FF0805343EA111143EA10138B
:100D50000CF000408B4238BF5B0042F17D024FF443
:100D6000000C8B4224BF5B1A40EA0C00B3EB510F1E
:100D700024BFA3EB510340EA5C00B3EB910F24BF07
:100D8000A3EB910340EA9C00B3EBD10F24BFA3EB8C
:100D9000D10340EADC001B0118BF5FEA1C1CE0D154
:100DA000FD2A3FF650AF8B4240EBC25008BF20F007
:100DB000010070470CF0004C4CEA50207F32C2BF5B
:100DC000D2F1FF0340EAC250704740F400004FF0F8
:100DD0000003013A37E792F0000F00F0004C02BF29
:100DE000400010F4000F013AF9D040EA0C0093F0F3
:100DF000000F01F0004C02BF490011F4000F013B4D
:100E0000F9D041EA0C0195E70CEAD15392EA0C0FB4
:100E100008D142027FF47DAF93EA0C0F7FF470AFEC
:100E2000084676E793EA0C0F04D14B023FF44CAF2F
:100E300008466EE730F0004C18BF31F0004CCAD1C4
:100E400030F000427FF45CAF31F000437FF43CAF00
:100E50005FE700BF4FF0FF3C06E000BF4FF0010C22
:100E600002E000BF4FF0010C4DF804CD4FEA400204
:100E70004FEA41037FEA226C18BF7FEA236C11D04E
:100E800001B052EA530C18BF90EA010F58BFB2EB01
:100E9000030088BFC81738BF6FEAE17018BF40F081
:100EA000010070477FEA226C02D15FEA402C05D135
:100EB0007FEA236CE4D15FEA412CE1D05DF8040BBA
:100EC000704700BF844608466146FFE70FB5FFF74D
:100ED000C9FF002848BF10F1000F0FBD4DF808ED05
:100EE000FFF7F4FF0CBF012000205DF808FB00BFF6
:100EF0004DF808EDFFF7EAFF34BF012000205DF850
:100F000008FB00BF4DF808EDFFF7E0FF94BF01209C
:100F100000205DF808FB00BF4DF808EDFFF7D2FF99
:100F200094BF012000205DF808FB00BF4DF808EDDC
:100F3000FFF7C8FF34BF012000205DF808FB00BFA9
:100F40004FEA4002B2F1FE4F0FD34FF09E03B3EBD6
:100F500012620DD94FEA002343F0004310F0004F16
:100F600023FA02F018BF404270474FF0000070476C
:100F700012F1610F01D1420205D110F0004008BF0B
:100F80006FF0004070474FF00000704742000ED2F3
:100F9000B2F1FE4F0BD34FF09E03B3EB126209D4B4
:100FA0004FEA002343F0004323FA02F070474FF06A
:100FB0000000704712F1610F01D1420202D14FF0DF
:100FC000FF3070474FF00000704700BF4FF4805370
:100FD000C4F202035A6802F00C00082811D04FF442
:100FE0009052C0F27A024FF48053C4F20203586860
:100FF0001049C0F30313C85C0F4B22FA00F21A60C9
:10100000704758685968C0F383420232C90309D552
:101010005B689B0306D44FF49050C0F27A0000FB4B
:1010200002F2E0E74FF41061C0F23D0101FB02F271
:10103000D9E700BF00000020100000204FF48053CB
:10104000C4F20203196800B541F001001860596844
:101050000022CFF6FF020A405A601A68002122F0EF
:10106000847020F480321A60186885B020F48022E1
:101070001A6058681A4620F4FE0058604FF41F00AA
:101080009860019102910391196841F480301860D1
:1010900003E00198B0F5A06F09D0136803F40031A4
:1010A00002910198431C019302990029F1D04FF459
:1010B0008052C4F20202136813F4003169D0012097
:1010C0000290029A012A68D04FF48051C4F20201C2
:1010D0000B68002243F001000860019203E0019ACE
:1010E000B2F5A06F09D00B6803F002000390019ADB
:1010F000531C019303980028F1D04FF48053C4F29D
:10110000020319688A073BD54FF40052C4F2020269
:101110001068194640F010001060106820F00300BD
:101120001060106840F0020010605A685A605868F9
:1011300058605A6842F4806058605A6822F47C1003
:1011400058605A6842F4601058601A6842F0807023
:1011500018600A684FF480539001C4F20203F8D576
:101160005968184621F003025A60596841F002029A
:101170005A60436803F00C010829FAD1FFF726FFF3
:101180004FF46D40CEF200004FF00062826005B077
:1011900000BD0291029A012A96D14FF40052C4F286
:1011A000020210684FF4805340F010011160106883
:1011B000C4F2020320F0030111601068194640F0E8
:1011C000020010605A685A60586858605A6842F4C1
:1011D000806058605A6822F47C1058605A6842F463
:1011E000E81058601A6842F0807018600A684FF47E
:1011F00080539001C4F20203F8D55968184621F0D3
:1012000003025A60596841F002025A60436803F0D1
:101210000C010829FAD1B3E740F0BF604FF46D43E9
:1012200040F40031CEF20003D9607047C37830B487
:101230007BB90078012100F01F0201FA02F1400998
:101240004FF46143CEF20003203043F8201030BC4D
:1012500070474FF46D44CEF20004E5684478EA43E9
:10126000C2F302230F2525FA03F2C3F1040104FAA5
:1012700001F48578037802EA050121430A0103F1AC
:101280006043D1B203F5614282F800130078012176
:1012900000F01F0301FA03F14FF46143CEF20003A3
:1012A000420943F82210D2E742680B6870B422F476
:1012B00070250C7925F4807646EA030242EA04237D
:1012C000436086688C68CA684FF2FD73CFF6F1738D
:1012D0004D7922433340134343EA45028260097C3F
:1012E000C26A4B1E22F47001DAB241EA0253C362B1
:1012F00070BC7047836819B923F0010181607047A1
:1013000043F0010282607047836819B923F4807149
:101310008160704743F4807282607047836843F055
:1013200008018160704700BF8068C0F3C00070474B
:10133000836843F004018160704700BF8068C0F398
:1013400080007047836819B923F4A0018160704759
:1013500043F4A00282607047092970B401EB410494
:101360001ED91E3C072606FA04F603FA04F4C568E3
:10137000062A25EA060343EA0403C3601DD90C2AA2
:1013800002EB820227D9413A1F2404FA02F401FA3F
:1013900002F1C36A23EA04020A43C26270BC7047C6
:1013A000072606FA04F603FA04F40569062A25EA74
:1013B000060343EA04030361E1D8541E04EB8403EB
:1013C0001F2404FA03F401FA03F1426B22EA040336
:1013D0000B434363E2E7233A1F2404FA02F401FAC1
:1013E00002F1036B23EA04020A430263D6E700BF5B
:1013F00010B4082104684FF6FE72C4F20201002303
:10140000224088420260036043608360C36047D02B
:101410001C23C4F20203984249D03022C4F20202D3
:1014200090424CD04421C4F2020188424FD058234C
:10143000C4F2020398425BD06C22C4F202029042D2
:101440005ED08021C4F2020188421FD04FF4816334
:10145000C4F20203984221D040F21C42C4F20202BC
:10146000904255D04FF48661C4F20201884258D0B0
:1014700040F24443C4F2020398425BD04FF48B62C3
:10148000C4F2020290422AD010BC70470021C4F27C
:1014900002014A6842F070604860F5E74FF48063EB
:1014A000C4F202035A6842F00F015960ECE70023CE
:1014B000C4F20203596841F0F0005860E4E70021EB
:1014C000C4F20201486840F470624A60DCE7002020
:1014D000C4F20200426842F470434360D4E74FF420
:1014E0008060C4F20200416841F470234360CBE79E
:1014F0000020C4F20200436843F470214160C3E756
:101500000023C4F20203596841F470025A60BBE739
:101510004FF48061C4F202014B6843F0F000486070
:10152000B2E74FF48063C4F20203586840F470627B
:101530005A60A9E74FF48060C4F20200426842F4A6
:1015400070414160A0E700BF8B68F0B40D6A0C6980
:101550004A691D438E6945EA04031343CA69056855
:101560004F6A43EA060414438E6A25F4FF4C27436E
:101570000D68CC682CF0700349683E431E4306603A
:1015800044608560C160F0BC704700BF29B9026843
:101590004FF6FE73134003607047016841F001028B
:1015A0000260704703681AB923EA010101607047BD
:1015B00019430160704700BF406880B2704700BFA8
:1015C000C3004CBF4FF480630023C4F20203586091
:1015D000704700BF837930B43BB34FF48063C4F2EB
:1015E000010301681D68CC4325401D605D680279D8
:1015F0002C4002F180455C6005F582321568447923
:101600002943116002689868D14308409860D868FF
:10161000102C01EA0001D96013D004F1804303F5D6
:10162000823421680A43226009E00279016802F1EC
:10163000804000F582331A6822EA01021A6030BC49
:101640007047986810439860D9680A43DA60F6E7F3
:101650004FF48063C4F201031A68596910EA010368
:1016600004D010420CBF002001207047184670477C
:101670004FF48063C4F20103586170474FF4005384
:1016800040F2231148F6AB12C4F20203C4F26751D0
:10169000CCF6EF5259605A60704700BF4FF40053C8
:1016A000C4F202031A6942F080001861704700BF5B
:1016B0004FF40053C4F20203D86070474FF4005354
:1016C000C4F20203DA68D2070BD4D868400701D508
:1016D00002207047D96811F0100F0CBF04200320BE
:1016E00070470120704700BF10B50446FFF7E6FFC2
:1016F000012815D1B4B1FFF7E1FF013C012804F046
:1017000001030DD174B10BB105E05CB1FFF7D6FF59
:10171000013C012804D1FFF7D1FF013C0128F4D09E
:1017200004B110BD052010BD70B5002382B0054680
:101730004FF400500C460193FFF7D6FF042801D068
:1017400002B070BD4FF40056C4F202063269A1B275
:1017500042F0010030614FF400502980FFF7C4FFD0
:10176000042805D0326941F6FE7313403361E7E780
:10177000023501950199240C0C804FF40050FFF7BD
:10178000B3FF326941F6FE7313403361D8E700BFFF
:1017900038B505464FF43020FFF7A6FF042800D0E7
:1017A00038BD4FF40054C4F2020423694FF43020D2
:1017B00043F0020121616561226942F04003236127
:1017C000FFF792FF216941F6FD720A40226138BDA0
:1017D000CA7830B4D30648BF8B7802F00F0448BFF4
:1017E0001C430B8813F0FF0F2FD013F00105016885
:1017F00040F0EC8003F00205ADB2002D40F0D08047
:1018000003F00405ADB2002D40F0D58003F00805CB
:10181000ADB2002D40F0988003F01005ADB2002D60
:1018200040F09D8003F02005ADB2002D40F0A28075
:1018300003F04005ADB2002D40F0A78003F0800515
:10184000ADB2002D40F0CD800160FF2B28D903F40C
:1018500080718DB24168002D2DD103F40075ADB2B9
:10186000002D33D103F48065ADB2002D39D103F4DE
:101870000065ADB2002D3FD103F48055ADB2002D0F
:1018800044D103F40055ADB2002D49D103F4804595
:10189000ADB2002D4ED103F400439BB213B94160A9
:1018A00030BC7047282A64F31F7100F0B080482ACA
:1018B00008BF0361F3E721F00F01282A44EA010180
:1018C00000F0A380482AC8D10561C6E721F0F001E5
:1018D000282A41EA041100F09680482AC2D1056105
:1018E000C0E721F47061282A41EA042100F08980D0
:1018F000482ABCD10561BAE721F47041282A41EA9F
:1019000004317CD0482AB7D10561B5E721F47021B4
:10191000282A41EA044170D0482AB2D10561B0E7D3
:1019200021F47001282A41EA045164D0482AADD13B
:101930000561ABE721F07061282A41EA046158D0C3
:10194000482AA8D10561A6E721F47041282A41EA76
:10195000043168D0482A7FF45FAF05615CE721F469
:101960007021282A41EA04415BD0482A7FF45AAF0B
:10197000056157E721F47001282A41EA045156D045
:10198000482A7FF455AF056152E721F07061282A9B
:1019900041EA046149D0482A7FF450AF05614DE720
:1019A00021F0F001282A41EA041138D0482A7FF4B6
:1019B00027AF056124E721F47061282A41EA042158
:1019C0002BD0482A7FF422AF05611FE721F00F01D9
:1019D000282A44EA01011CD0482A7FF40BAF056194
:1019E00008E7282A64F31F7115D0482A08BF05614B
:1019F0002AE745614FE7456148E7456141E74561B1
:101A00003AE7456133E745612CE7456125E74361E6
:101A100045E74561EEE6456116E74561F6E6456155
:101A2000EEE64561FEE64561F6E6456106E745619D
:101A3000FEE600BF4FF6FF7302210422038081708F
:101A4000C2707047836819420CBF002001207047A4
:101A5000016170474161704700230028C4F201030F
:101A600000F44012B4BFDB695B68B2F5401F30B4CC
:101A700084B222D0C20217D5C0F30342032505FA6F
:101A800002F223EA020343F0706321B1410D0A011F
:101A900004FA02F423430021C4F201010028B4BF78
:101AA000CB614B6030BC7047420D120104FA02F268
:101AB00023EA020343F07063E7E70022C4F2010265
:101AC000556823F0706325F070655560DDE700BF51
:101AD00001F0030310B40F229C0002FA04F200FA92
:101AE00004F089080023C4F20103023153F82140B5
:101AF00024EA020243F8212053F82120104343F83E
:101B0000210010BC704700BF08B54FF4A843C4F2D1
:101B1000000398420BD001214FF4800000F066F9D9
:101B20004FF480000021BDE8084000F05FB90121BA
:101B30004FF4001000F05AF94FF400100021BDE8F6
:101B4000084000F053B900BFF0B587B0044686885E
:101B500001A80D4600F0CCF803994DF68363C4F25A
:101B60001B33A3FB012026F03F073A04870C160C19
:101B70001FFA87FC4CEA0603A380228848F2A06083
:101B800022F001062A683304C0F201001E0C8242D2
:101B9000268024D85200B1FBF2F6B1B20CF1010E4E
:101BA000A4F820E0032998BF0421A18320886E892E
:101BB00083B243F0010121802288A88822F4816346
:101BC00023F00203AA8929891B041B0C3043034319
:101BD00011439BB28AB22380228107B0F0BDE8880E
:101BE0004BF6FF7398421DD002EB820202EB820695
:101BF000B1FBF6F141F4804081B20E05300D08B919
:101C000041F001014FF4967303FB07F744F6D352FA
:101C1000C1F2620282FB0736B009431C41F4004165
:101C20002384C2E702EB4203B1FBF3F291B2E4E793
:101C3000002341F2883283804BF6FF710381438198
:101C40004FF480430260C18083817047038829B9C3
:101C500023F001010A04130C0380704799B241F08C
:101C600001020280704700BF038829B923F4807104
:101C70000A04130C0380704799B241F48072028009
:101C8000704700BF038829B923F400710A04130CBC
:101C90000380704799B241F400720280704700BF20
:101CA000038829B923F480610A04130C0380704768
:101CB00099B241F480620280704700BF83889BB272
:101CC0001AB923EA01018180704719438180704766
:101CD00001827047008AC0B2704700BF1AB901F094
:101CE000FE010182704741F001010182704700BF8F
:101CF0004FF48053C4F202035A6810B402F00C018E
:101D0000042901D0082928D04FF49052C0F27A0259
:101D100002604FF48053C4F202035C681C49C4F3B0
:101D200003140C5D22FA04F242605C68C4F30224DE
:101D30000C5D22FA04F484605C68C4F3C224095D7B
:101D400022FA01F2C2605B681249C3F38133CB5CB3
:101D5000B2FBF3F2026110BC70475C685968C4F3CF
:101D600083420232CC030AD55B68990307D44FF44F
:101D70009054C0F27A0404FB02F20260C9E74FF407
:101D80001061C0F23D0101FB02F20260C1E700BF39
:101D900018000020140000204FF48053C4F2020306
:101DA0005A6919B922EA0000586170471043586116
:101DB000704700BF4FF48053C4F202039A6919B907
:101DC00022EA00009861704710439861704700BF95
:101DD0004FF48053C4F20203DA6919B922EA000011
:101DE000D86170471043D861704700BF4FF48053EB
:101DF000C4F202031A6919B922EA00001861704797
:101E000010431861704700BF4FF48053C4F20203BF
:101E10005A6A42F080705862704700BF70B4048CF8
:101E20004FF4305524F001063404260C0684048B4C
:101E3000C4F2010524F0F3042404240C2243068C8C
:101E400042EA0313A842B6B29CB223D04FF45052D8
:101E5000C4F2010290421DD0B0F1804F1AD04FF46D
:101E60008063C4F20003984214D04FF40062C4F2BD
:101E7000000290420ED04FF44063C4F20003984237
:101E800008D026F00A0646F0010631430483018497
:101E900070BC704726F0020242F001063143F5E7BC
:101EA00070B4048C4FF4305524F010063404260C22
:101EB0000684048BC4F2010524F440742405240D27
:101EC000068C44EA022242EA0333A842B6B29BB22D
:101ED00023D04FF45052C4F2010290421DD0B0F111
:101EE000804F1AD04FF48062C4F20002904214D0A6
:101EF0004FF40062C4F2000290420ED04FF44062F0
:101F0000C4F20002904208D026F0A00646F0100667
:101F100031430383018470BC704726F0200242F0F5
:101F2000100646EA011189B2F3E700BF4FF43052C0
:101F30000388C4F20102904270B49BB21AD04FF4ED
:101F40005052C4F20102904214D0B0F1804F11D02F
:101F50004FF48062C4F2000290420BD04FF4006252
:101F6000C4F20002904205D04FF44062C4F2000275
:101F7000904205D14FF68F724C881A4042EA040312
:101F80004FF48052C4F20002904234D04FF4A05279
:101F9000C4F2000290422ED04FF6FF42CE881A4083
:101FA0004FF430538D880C88C4F2010332439842B9
:101FB0000280858504851BD04FF45052C4F2010283
:101FC000904215D04FF48043C4F2010398420FD0E1
:101FD0004FF48842C4F20102904209D04FF490437A
:101FE000C4F20103984203D00122828270BC704780
:101FF000097A0186F8E703808B8883850988018543
:10200000F2E700BF038C2DE9F00123F00102140474
:10201000250C0584078C0D8984884E88038B2E43FC
:1020200023F073024FF4305527F0020312041B040F
:102030000F88C4F20105120C1B0CB6B2A842A4B260
:1020400042EA070246EA03031FD04FF45055C4F298
:102050000105A84219D04FF48045C4F20105A842F9
:1020600013D04FF48845C4F20105A8420DD04FF4B7
:102070009045C4F20105A84207D0C9888480028334
:1020800081860384BDE8F00170474FF6F776B1F81A
:102090000AC0B1F80E808F891E4046EA0C0C4FF63C
:1020A000FB738E884FF6FF4548EA070725400CEA88
:1020B0000303BCB233432C43DFE700BF038CF0B40F
:1020C00023F010021404250C0584068C848826F065
:1020D0002002078B16040D89320C27F4E6431B04FB
:1020E00042EA05120F884E884FF430551B0CC4F29B
:1020F000010543EA072342EA0612A842A4B29BB2B2
:1021000092B20CD04FF45055C4F20105A84206D04B
:10211000C9888480038301870284F0BC70474F899B
:102120004FF67F7616404FF2FF35B1F80CC02540D0
:1021300046EA07164FF6BF728F88CC89324045EACF
:102140008C0542EA071245EA840492B2A4B2DFE7A2
:10215000038CF0B423F480721404250C0584068CDF
:102160000D8926F400773A048488838B120C23F0BF
:10217000730642EA05224F884FF430553304C4F207
:1021800001050E881B0C42EA0722A842A4B243EACA
:10219000060392B20CD04FF45055C4F20105A84288
:1021A00006D0C9888480838381870284F0BC70470D
:1021B0004F894FF2FF7616404CF6FF75B1F80CC010
:1021C000254046EA07264FF6FF328F88CC893240F9
:1021D00045EA0C1542EA072245EA041492B2A4B279
:1021E000DFE700BF038CF0B423F480521404250C05
:1021F0000584068C858826F40052878B16040C898A
:10220000320C27F4E6431B0442EA04320F884E885E
:102210004FF430541B0CC4F2010443EA072342EA92
:102220000632A042ADB29BB292B20DD04FF45054E0
:10223000C4F20104A04207D0C98885808383A0F836
:1022400040100284F0BC70474BF6FF748E892C401E
:1022500044EA8615ADB2EFE7F8B50B880D460446A3
:10226000002B58D0042B00F0B080082B028C63D0D8
:1022700022F480508F8801040B0C2E8969882384F6
:10228000A08B4FF4305220F440731805030D43EA3D
:102290000723208CC4F2010243EA0633944280B241
:1022A0009BB230D04FF45052C4F2010294422AD073
:1022B000B4F1804F27D04FF48062C4F20002944200
:1022C00021D04FF40062C4F2000294421BD04FF4BC
:1022D0004062C4F20002944215D047F6FF52024019
:1022E00041F480510A43A3832284A38BE88823F41A
:1022F000406211040B0CA383A28B91B241EA00202F
:1023000083B2A383F8BD20F4005040EA013291B2B9
:1023100041F48052E7E74988AA882B89FFF77EFDC0
:10232000238BE98823F00C021004030C2383228BF7
:1023300090B208432083F8BD22F4807637043A0C2B
:1023400089882F896E880284808B4FF4305220F068
:10235000F3031804030C43EA0713208CC4F20102B0
:102360009BB2944280B243EA010341D04FF45051F2
:10237000C4F201018C423BD0B4F1804F38D04FF40D
:102380008062C4F20002944232D04FF40061C4F281
:1023900000018C422CD04FF44062C4F200029442FF
:1023A00026D04FF2FF51014046F480763143A3839B
:1023B0002184A38BE88823F00C0211040B0CA38367
:1023C000A28B91B20143A183F8BD4988AA882B89C9
:1023D000FFF766FD208BEA8820F440631904080C9F
:1023E0002083238B99B241EA022290B22083F8BD68
:1023F00020F4007040EA062291B241F48071D6E7E1
:1024000000234FF6FF7181800380C38043800372F5
:10241000704700BF0023038043808380C380038113
:1024200043818381C381704700230122038043805D
:102430008280C38003817047038829B923F001019A
:102440000A04130C0380704799B241F00102028024
:10245000704700BFB0F8443021B959044A0CA0F8C5
:10246000442070476FEA43436FEA53418AB2A0F8B1
:102470004420704783899BB21AB923EA0101818104
:102480007047194381817047038B23F008021304BE
:102490001A0C114301837047038B23F40062130469
:1024A0001A0C42EA01218BB203837047838B23F01D
:1024B000080213041A0C114381837047838B23F4A1
:1024C000006213041A0C42EA01218BB28383704725
:1024D000808E80B2704700BF008F80B2704700BF0F
:1024E000808F80B2704700BFB0F8400080B2704764
:1024F000038A828911EA030092B203D011420CBF11
:1025000000200120704700BFC9438AB20282704791
:10251000038A70B5044623F44050CA880D4601046E
:102520000E0C16432682A389AA88288923F4B05664
:10253000698926F00C0310431A04160C084340EA7C
:1025400006018BB2A381A08AAA8920F440763104C7
:102550000B0C86B0134301A8A382FFF7C9FB4FF40D
:102560006056A089C4F20106B44202B20CBF049EB8
:10257000039E002A21DB2D6806EB860101EB810317
:10258000AE00B3FBF6F148F21F53C5F2EB13A3FB09
:102590000106A089720900B264251601002802FB19
:1025A000151113DB0A013232A3FB0203C3F34310FC
:1025B000304383B2238106B070BD286806EB8602E3
:1025C00002EB82054300B5FBF3F1DCE7C9003231D1
:1025D000A3FB0112C2F342103043EAE700234FF499
:1025E00016520C2102608380C38003814181838164
:1025F000704700BF838929B923F400510A04130CE2
:102600008381704799B241F400528281704700BFC4
:1026100001F01F0310B4C1F342110124A14204FAD6
:1026200003F30DD002290DD014302AB9026822EA32
:102630000301016010BC7047026813430360F9E7AF
:102640000C30F2E71030F0E7838A9BB21AB923EA24
:102650000101818270471943818270478088C105DA
:10266000C80D704770B51D4C064623783BB11C4D14
:1026700005F03CFA2A68B618B0420BD270BD05F0DE
:1026800035FA174D29683231884219D2207800284E
:10269000EED170BD4FF40063C4F2010300214FF48A
:1026A00080502170186105F021FA0E4B0C4A197800
:1026B000106009B1481E18700B4B01221A7070BDD2
:1026C0004FF40061C4F2010101204FF480522070E8
:1026D0004A6105F00BFA286070BD00BFB10500200B
:1026E000B8050020A40B0020B205002070B5274CCF
:1026F00082B025788DF8062002AA8DF805108DF895
:1027000007308DF80400531913F8040C4438C1B293
:102710000A290DD93226022D14D83046FFF7A2FF20
:102720002278022A0ED81A4B1878012826D107E001
:10273000184E022D36F8116004D8002EEDD1144B3E
:1027400021780EE005F0D2F9134B821B1868824203
:1027500016D80F4B1878012800D07EB921780229AD
:1027600001D801312170002018704FF400620B4B2A
:10277000C4F201024FF480511870116102B070BDB3
:10278000074A002121701170E3E700BFB305002064
:10279000B2050020B82D0108B8050020B1050020C1
:1027A000A40B00202DE9F041524F04467B7B524D93
:1027B000002B4BD0012028704FF4007002F09EFBDC
:1027C00000282FD14D4E102002F076FB48B1BB7A85
:1027D000002B3DD04A49CB7A002B3DD1494B0121FA
:1027E00019703278022A4DD0012A53D04548017819
:1027F000012957D02B78012B5CD0042C62D0022CFD
:1028000068D0012C6ED0404A1078002835D14FF4A2
:1028100000623E49C4F201024FF480530870136114
:10282000BDE8F0813A493B480B8890F8642019B222
:1028300002EB8206B14213DD314E767896B92F4E07
:1028400002213170002BBED13370BCE72B70B3E78F
:10285000284AD07A0028BDD12A4800220270C0E759
:10286000264EEFE790F86500244E121802EB820224
:10287000012091423070E5DDE2E73220BDE8F04111
:10288000FFF7F0BE4E214C200A464423BDE8F0413C
:10289000FFF72CBF4D2153204C220B46BDE8F041E1
:1028A000FFF724BF532001464E224D23BDE8F041DF
:1028B000FFF71CBF5320014602464D23BDE8F041FF
:1028C000FFF714BF4D2153200A464423BDE8F041D1
:1028D000FFF70CBF532001464D224423BDE8F041D1
:1028E000FFF704BF53204D214E224423BDE8F041A1
:1028F000FFF7FCBE48160020B5050020B4050020F7
:10290000E0150020B0050020A40B0020B105002038
:10291000440B0020340E002070B5B0FBF2F40646E4
:102920001546084614B12046FFF7F6FF05FB146470
:10293000024B195D00F8011B70BD00BF142F010888
:102940002DE9F84F037802460130202BFAD0092BED
:10295000F8D02D2B114600F036812B2B04BF0246F8
:102960004B7800270026C3F6F077A3F130095FFA11
:1029700089F0092800F2418102F1010800240025B4
:1029800000230022C4F2240320462946FDF7A2FDBD
:10299000044648460D46FDF737FD02460B462046E5
:1029A0002946FDF7E5FB424618F8013B0D46A3F129
:1029B00030095FFA89F109290446E1D92E2B00F08C
:1029C000D1801378652B11D0452B0FD00023002226
:1029D000C3F6F07320462946FDF77CFD32463B46A0
:1029E000FDF778FDFDF788FFBDE8F88F53782D2BB4
:1029F00000F0F9802B2B00F0FB80501C4FF0000BF7
:102A0000A3F13002092A00F2FB804FF0000808EB26
:102A1000880803EB480110F8013FA1F13008A3F149
:102A20003002092AF3D9B8F59A7F40F2D3804FF4E7
:102A30009A7848F21F59A8F13208C5F2EB19A9FBA0
:102A4000083C73A3D3E9002300210020C3F6F071F2
:102A5000CCF30019FDF73EFDB8F1310F02460B46ED
:102A600018D9B9F1000F02D0A8F132080BE01046D6
:102A70001946A8F1640866A3D3E90023FDF72AFDEF
:102A800063A3D3E90023FDF725FDB8F1310F02461A
:102A90000B46ECD8B8F1070F2ED9104619465EA3A5
:102AA000D3E90023FDF716FDA8F1080AD146B9F1D4
:102AB000070F02460B46CAF3C00A1BD9BAF1000F32
:102AC00005D055A3D3E90023A9F108090BE010466E
:102AD0001946A9F1100950A3D3E90023FDF7FAFC28
:102AE0004DA3D3E90023FDF7F5FCB9F1070F02462A
:102AF0000B46ECD808F00708B8F1000F29D01946AA
:102B000000231046C4F224030022FDF7E3FC08F181
:102B1000FF38C14602460B4608F00108B9F1000F24
:102B200017D0B8F1000F09D1194600231046C4F29E
:102B300024030022FDF7CEFC09F1FF390023002217
:102B4000C4F22403FDF7C6FCB9F1010902460B46A5
:102B5000EAD1BBF1000F3FF43DAF20462946FDF717
:102B6000E3FD3BE7537802F1010EA3F13000C1B25F
:102B700009294AD84FF0000902F1020A4FF0000873
:102B8000C4F22409FDF740FC42464B46FDF7CCFD5C
:102B900002460B4620462946FDF7EAFA00230022AA
:102BA000C4F2240304460D4640464946FDF792FC14
:102BB00052461AF8013B8046A3F130008946C1B263
:102BC0000929DFD9FEE6002702464B780026CBF61E
:102BD000F077CAE6B8F1310F3FF62BAF00230022A1
:102BE000C3F6F07356E7901C93784FF0010B07E79C
:102BF0009378901C4FF0000B02E700240025DDE6DF
:102C000000230022C3F6F073A3E77246DAE600BFA2
:102C10009A647EC50E1B514A0000000084D797417C
:102C200042F63C70C0F6010005F0F4B942F66C7053
:102C300038B5C0F6010042F68474C0F6010405F010
:102C4000E9F942F68C7142F690722046C0F6010115
:102C5000C0F601020BF06AF842F6B87142F6C07293
:102C60002046C0F60101C0F601020BF05FF842F603
:102C7000D47142F6E0722046C0F60101C0F60102AE
:102C80000BF054F843F2000143F208022046C0F66C
:102C90000101C0F6010243F28C350BF047F8C0F693
:102CA000010543F2380120462A46C0F601010BF027
:102CB0003DF843F2400143F248022046C0F60101CC
:102CC000C0F601020BF032F843F25C0120462A46BE
:102CD000C0F601010BF02AF843F2640143F26802E6
:102CE0002046C0F60101C0F601020BF01FF843F2C6
:102CF000840143F28C022046C0F60101C0F60102B5
:102D00000BF014F843F2A00143F2A8022046C0F6EB
:102D10000101C0F601020BF009F843F2B80143F2D9
:102D2000C0022046C0F60101C0F601020AF0FEFF13
:102D300043F2D00143F2D4022046C0F60101C0F6AE
:102D400001020AF0F3FF43F2041143F2F8022046B5
:102D5000C0F60101C0F601020AF0E8FF43F20C11CF
:102D60002046C0F601012A46BDE838400AF0DEBF21
:102D70002DE9F04104F0BAFE44F6D353C1F26203E8
:102D8000A3FB00212D4C2E482378027889092D4879
:102D90000AF0CCFF02F0ACF82B4A4DF683651668BA
:102DA000C4F21B350746A5FB06032848990C0AF018
:102DB000BDFF0022264E27491446012505E0611C6F
:102DC000CCB256F82410224669B105FA02F0074247
:102DD000F5D021480AF0AAFF611CCCB256F82410A5
:102DE00022460029F1D1012002F066F878B91B488B
:102DF00005F010F91A490C8803F054FD02461948F1
:102E000021464FF43D73BDE8F0410AF08FBF164CE8
:102E1000164B2178164853F821100AF087FF2078C6
:102E20000228E4D1134A144892F8F140002C0CBF58
:102E30006E216F210AF07AFFD9E700BF5000002011
:102E40003016002018310108100000205831010808
:102E5000D83C01081431010878310108B03201086A
:102E6000A20B00208C3101087C0D0020002F0108EE
:102E70007C310108D00E00208831010838B50C687B
:102E8000054620460FF0ACFD024628682146BDE805
:102E900038400FF0D5BD00BF43F2C01008B5C0F6F2
:102EA000010005F0B7F80121002001F023FE43F2F4
:102EB000CC10C0F6010005F0ADF80A2004F052FE77
:102EC0000020BDE8084004F041BF00BF2DE9F04FED
:102ED0008BB080460FF084FD08284CD09D4C9E4856
:102EE00005F098F8A0789D4D0290607995F802A1C0
:102EF00095F8038194F800B094F8019005900AA821
:102F0000E278804495F804C182440AF80CBC08F8C1
:102F10000C9CDDF8088095F80811844495F805E1CB
:102F200095F8067195F8076195F8093103922579AE
:102F30000CF80C8CDDF80CC0864404950EF80CCC13
:102F4000DDF810E0C71907F80CECE279A579059FC8
:102F500044188619C31806F80C7C814804F80C5CE8
:102F600007A903F80C2C00228DF824200AF0DEFEBD
:102F70000BB0BDE8F08F7B4A98F800101068C2468D
:102F800043185D7808F1060C05F00306022E08BF11
:102F900020390AF8011B116898F80170CDF810C0AB
:102FA000C819437808F1020603F00305022D08BF93
:102FB000203F88F80170116898F8027008F1040B3E
:102FC000C819437898F8031003F00305022D08BFD1
:102FD000203F88F80270106808F1030743185D78F5
:102FE00005F00300022808BF203988F80310136891
:102FF00098F804105D186878156800F00303022B38
:1030000014BF0C46A1F1200498F8051088F804407C
:103010006818457808F1050305F00300022814BF7D
:103020000C46A1F120040393116898F8063088F843
:103030000540CC186578126805F00300022898F85E
:10304000075008BF203B88F806305319597808F11B
:10305000070401F003000294022898F800903D4C08
:1030600008BF203D88F80750204649460FF0DCFB9A
:1030700020B1504649460FF0D7FB18B13A4804F04A
:10308000C9FF75E798F801202046114601920FF01C
:10309000CBFB019B0028F1D0304619460FF0C4FB52
:1030A0000028EBD198F80260204631460FF0BCFBB7
:1030B0000028E3D0384631460FF0B6FB0028DDD1BA
:1030C00098F80360204631460FF0AEFB0028D5D0BB
:1030D000584631460FF0A8FB0028CFD198F804607D
:1030E000204631460FF0A0FB0028C7D00398314698
:1030F0000FF09AFB0028C1D198F8056020463146B0
:103100000FF092FB0028B9D0049831460FF08CFBE9
:103110000028B3D198F80660204631460FF084FBB2
:103120000028ABD0029831460FF07EFB0028A5D1D5
:10313000EDB2204629460FF077FB00289ED008F11B
:10314000080029460FF070FB002897D1404601F097
:1031500085F9C4E610450108FC310108D00E0020B5
:103160005434010860010020DC3101082DE9F843E6
:1031700007460FF035FC044601F0DCFE0646DCB9DC
:10318000334804F047FF334D3349012703E055F836
:10319000041F013459B107FA04F03042F7D02F4828
:1031A0000AF0C4FD55F8041F01340029F3D12C485E
:1031B000BDE8F84304F02EBF38462A4922460FF0F6
:1031C0003FFC002827D03B782D2B36D04FF000094C
:1031D000DFF8808020494646002504E056F8041FA9
:1031E0000135002924D0384622460FF029FC00285A
:1031F000F4D1012000FA05F0B9F1000F22D001F05E
:103200008FFE194804F006FF184858F82510BDE84D
:10321000F8430AF08BBD164804F0FCFE0D4C0E4935
:103220000E480AF083FD54F8041F0029F8D1BEE7C8
:103230001048BDE8F84304F0EDBE0137013C4FF003
:103240000109C5E701F064FE0B4804F0E3FEDBE78B
:1032500018320108D02D0108143201087831010814
:10326000B03201082C3201086832010854340108D8
:10327000343201084C3201087432010870B5064638
:1032800043F28020C0F6010004F0C4FE40F2BC52BC
:10329000C2F200020023154645F8043B043545F808
:1032A000043B45F8043B45F8043B45F8043B45F82E
:1032B000043B45F8043B45F8043B45F8043B40F229
:1032C000EC5440F6F85145F8043BC2F20004C2F257
:1032D0000001304653602B6023600B70BDE87040E6
:1032E000FFF7DABD43F2982008B5C0F6010004F0FC
:1032F00091FE012001F090FC43F2B420C0F60100E1
:1033000004F088FE0A2004F02DFC0020BDE80840EF
:1033100004F01CBD2DE9F04180460FF061FB07462B
:1033200000281FD0404620493A460FF089FB00286C
:1033300028D01E4E1E4C002504E056F8044F0135DF
:10334000002C1AD0214640463A460FF079FB00285F
:10335000F3D1184B1848013521465D71BDE8F041A5
:103360000AF0E4BC1348114B42791448511E53F83B
:103370002110BDE8F0410AF0D9BC1148BDE8F04188
:1033800004F048BE0F4804F045FE084C08490E48BA
:103390000AF0CCFC54F8041F0029F8D10B48BDE812
:1033A000F04104F037BE00BF2C3201080C2E01089A
:1033B000C4320108D00E002008330108C8320108C9
:1033C000F0320108DC32010878310108B03201081E
:1033D00038B504460FF004FB0E4D01460CE00FF02B
:1033E0001DF80228034613D8002001460A4C85F830
:1033F000F03201F07FFB002111F0FF0F2046EED1EB
:10340000044A064892F8F012BDE838400AF08EBC33
:1034100038BD00BFD00E00208C3301081C330108DA
:1034200070B505460FF0DCFAC0B290B9144B0446F3
:103430009D1C5A882146661C12480AF077FC02340B
:10344000104831466A880AF071FCAB1C142CEFD18D
:1034500070BD28460EF0E2FF1328044605DD0A4839
:103460001421BDE870400AF061BC202128460FF00D
:10347000DBF90EF0D3FF054B1C3423F8140070BDAC
:103480006A0E00203433010840330108340E002056
:10349000931E222B88BF0A22031E10B50C4605DBA3
:1034A000FFF73AFA00210170204610BD2D2001F8E7
:1034B000010B5842FFF730FA00220270204610BD7F
:1034C00070B5002386B00C46002105460393049393
:1034D0000593FDF72BFD002842D041F26F212846CD
:1034E000C3F60321FDF75EFA0021C4F27A41FDF72D
:1034F00061FBFDF725FD064686EAE670A0EBE67067
:103500000A226946FFF7C4FF002E31DB20218DF827
:103510000C1068460FF064FA012803AD32D002287F
:103520003CD003286946284626D00FF057F9284694
:103530000FF056FA0338C6B23246294620460FF03D
:10354000EDFA0021A15520460FF04AFA2E22431C25
:103550002254A919E0180FF0E5F9204606B070BD15
:1035600041F26F212846C3F60321FDF719FABBE7A4
:103570002D208DF80C00CCE730228DF80D200FF0B7
:103580002DF9D4E73026284669468DF80D608DF870
:103590000E608DF80F600FF021F9C8E73023284640
:1035A00069468DF80D308DF80E300FF017F9BEE733
:1035B00030B5037983B004460D46052B11D8DFE8FA
:1035C00003F01C1F23262A03806869460068FFF762
:1035D00077FF01461C480AF0A9FB002D1ED103B05D
:1035E00030BD002119480AF0A1FB002DF7D0184882
:1035F000E16822690AF09AFBF1E781680978F1E74E
:10360000806890F90010EDE783681988EAE782681E
:10361000B2F90010E6E781680968E3E7E068FDF7C2
:1036200075FA6946FFF74CFF01460A480AF07EFB2F
:103630002069FDF76BFA6946FFF742FF014605482E
:103640000AF074FBCBE700BF68330108743301084C
:10365000703301086C3301082DE9F04780460FF004
:10366000BFF90746002865D001285FD040463D21BC
:103670000FF0DAF8002857D0441C20460EF0CEFE9A
:1036800082462046FFF75CF90026494F81463546C1
:103690000DE07C58013520460FF0A2F92146024684
:1036A00040460FF0CDF980B10135682D72D0BC597C
:1036B00020460FF095F92146024640460FF0C0F92A
:1036C00006F1140128360028E3D1394805EB8505B9
:1036D00000EB8505E868FDF719FA01464846FDF755
:1036E0001BFC002851D02869FDF710FA0146484616
:1036F000FDF708FC002848D02B79052B0CBF4A4663
:103700005246052B06D8DFE803F003034D4D504A1F
:10371000A9680A70214627480AF008FB28460021BC
:10372000BDE8F047FFF744BFBDE8F08798F80030E8
:103730002A2B9BD1204804F06DFC00251C4E2C4602
:1037400071591E480AF0F2FA04EB840206EB82007B
:103750003946FFF72DFF1A4804F05CFC05F114030D
:10376000F158013415480AF0E1FA04EB840006EB45
:1037700080003946FFF71CFF0134114804F04AFC71
:103780002835682CDCD1BDE8F0870E48BDE8F0474D
:1037900004F040BC0C48BDE8F04704F03BBCA9680D
:1037A0000A60B7E7AB681A80B4E7A8680260B1E7BF
:1037B000F03C010890330108783301086C340108AB
:1037C000B03201089C330108C43301082DE9F04FE1
:1037D0008A488BB08A4F0AF0A9FA8A48FFF720FE80
:1037E0007A79894B511E894853F821100AF09EFAC4
:1037F0003E6900213046FDF771FB002800F0938000
:1038000006AD01F097FBDFF83C82814983464646CE
:1038100080480AF08BFA56F8041F0029F8D17C483A
:103820000E464FF00104014603E058F8041F01362C
:1038300061B104FA06F212EA0B0FF6D076480AF0EC
:1038400075FA58F8041F01360029F2D173480C4666
:103850008278017897F802B197F803A197F804915C
:1038600097F8058197F806C197F807E197F808617E
:1038700097F80931477800910197C178077902924A
:1038800042790391049705928779C27929460AA85B
:10389000009D83440BF8105C019D82440AF8105C83
:1038A000029D814409F8105C039D804408F8105C77
:1038B000049D84440CF8105C059D86448619C31849
:1038C00057480EF8105C06F8107C03F8102C8DF8A1
:1038D00020400AF02BFA534E2546315952480AF03F
:1038E00025FA05EB850206EB82000021FFF760FE5A
:1038F0004E4804F08FFB04F1140101354A48715819
:103900000AF014FA05EB8500002106EB8000FFF7B2
:103910004FFE0135454804F07DFB2834682DDCD18D
:103920000BB0BDE8F08F3C464FF0000806AD39E023
:1039300029463046FFF7C4FD01463D480AF0F6F936
:1039400058460021FDF7D4FA00284AD129465846A6
:10395000FFF7B6FD014636480AF0E8F95046002167
:10396000FDF7C6FA002838D129465046FFF7A8FDD2
:1039700001462F480AF0DAF948460021FDF7B8FA67
:1039800038BB29464846FFF79BFD014629480AF007
:10399000CDF90021B8F10C0F27D026693046FDF78C
:1039A0009DFA38BB08F1010841462348D4F814B009
:1039B000D4F818A0D4F81C900AF0B8F930460021C9
:1039C0001034FDF795FA0028B2D01C480AF0AEF981
:1039D000AEE71A480AF0AAF9D3E718480AF0A6F9A0
:1039E000C2E716480AF0A2F9B0E70D2114480AF020
:1039F0009DF906E708F10101F8E700BFE43301088B
:103A0000D00E00208C3301080C2E0108143401085C
:103A1000143201083C3401084C34010810450108F7
:103A20005C340108F03C010868340108B032010838
:103A30006833010854340108203401087431010846
:103A400028340108D02D01082DE9F04788B004463C
:103A50000EF0C6FFC5B2002D40F0BD82B34CB44895
:103A600004F0D8FA20690021FDF738FA002840F068
:103A70000F83B04801210AF059F904A92069FFF722
:103A80001FFD0146AC480AF051F904A96069FFF72F
:103A900017FD0146A8480AF049F904A9A069FFF7F3
:103AA0000FFD0146A4480AF041F904A9E069FFF7B7
:103AB00007FD0146A1480AF039F9206A0021FDF707
:103AC0000DFA002840F038839A4802210AF02EF9B6
:103AD00004A9206AFFF7F4FC014697480AF026F98A
:103AE00004A9606AFFF7ECFC014693480AF01EF94E
:103AF00004A9A06AFFF7E4FC01468F480AF016F912
:103B000004A9E06AFFF7DCFC01468C480AF00EF9D4
:103B1000206B0021FDF7E2F9002840F00F83854873
:103B200003210AF003F904A9206BFFF7C9FC014641
:103B300081480AF0FBF804A9606BFFF7C1FC01465D
:103B40007D480AF0F3F804A9A06BFFF7B9FC014621
:103B500079480AF0EBF804A9E06BFFF7B1FC0146E5
:103B600076480AF0E3F8206C0021FDF7B7F9002849
:103B700040F0E6826F4804210AF0D8F804A9206CCE
:103B8000FFF79EFC01466C480AF0D0F804A9606C6F
:103B9000FFF796FC014668480AF0C8F804A9A06C33
:103BA000FFF78EFC014664480AF0C0F804A9E06CF7
:103BB000FFF786FC014661480AF0B8F8206D002145
:103BC000FDF78CF9002840F0BD825A4805210AF023
:103BD000ADF804A9206DFFF773FC014656480AF0C2
:103BE000A5F804A9606DFFF76BFC014652480AF086
:103BF0009DF804A9A06DFFF763FC01464E480AF04A
:103C000095F804A9E06DFFF75BFC01464B480AF00C
:103C10008DF8206E0021FDF761F9002840F09482B4
:103C2000444806210AF082F804A9206EFFF748FCF8
:103C3000014641480AF07AF804A9606EFFF740FC9B
:103C400001463D480AF072F804A9A06EFFF738FC5F
:103C5000014639480AF06AF804A9E06EFFF730FC23
:103C6000014636480AF062F8206F0021FDF736F968
:103C7000002840F06B822F4807210AF057F804A96A
:103C8000206FFFF71DFC01462B480AF04FF804A9EE
:103C9000606FFFF715FC014627480AF047F804A9B2
:103CA000A06FFFF70DFC014623480AF03FF804A976
:103CB000E06FFFF705FC014620480AF037F8D4F81A
:103CC00080000021FDF70AF9002840F041821948E0
:103CD00008210AF02BF804A9D4F88000FFF7F0FBC4
:103CE000014615480AF022F804A9D4F88400FFF729
:103CF000E7FB014610480AF019F804A9D4F8880037
:103D0000FFF7DEFB01460C480AF010F804A9D4F8CE
:103D10008C00FFF7D5FB014608480AF007F8D4F8F5
:103D200090000021FDF7DAF80AE000BFD00E002075
:103D30007C340108A8340108B03401085434010867
:103D4000002840F00782B248092109F0EFFF04A9DA
:103D5000D4F89000FFF7B4FB0146AE4809F0E6FF47
:103D600004A9D4F89400FFF7ABFB0146A94809F079
:103D7000DDFF04A9D4F89800FFF7A2FB0146A5488F
:103D800009F0D4FF04A9D4F89C00FFF799FB014681
:103D9000A14809F0CBFFD4F8A0000021FDF79EF860
:103DA000002840F0D9819A480A2109F0BFFF04A9F0
:103DB000D4F8A000FFF784FB0146964809F0B6FF4F
:103DC00004A9D4F8A400FFF77BFB0146914809F051
:103DD000ADFF04A9D4F8A800FFF772FB01468D4897
:103DE00009F0A4FF04A9D4F8AC00FFF769FB014671
:103DF000894809F09BFFD4F8B0000021FDF76EF868
:103E0000002840F0448182480B2109F08FFF04A96B
:103E1000D4F8B000FFF754FB01467E4809F086FF56
:103E200004A9D4F8B400FFF74BFB0146794809F028
:103E30007DFF04A9D4F8B800FFF742FB014675489E
:103E400009F074FF04A9D4F8BC00FFF739FB014660
:103E5000714809F06BFFD4F8C0000021FDF73EF86F
:103E6000002840F07B816A480C2109F05FFF04A91B
:103E7000D4F8C000FFF724FB0146664809F056FF5E
:103E800004A9D4F8C400FFF71BFB0146614809F000
:103E90004DFF04A9D4F8C800FFF712FB01465D48A6
:103EA00009F044FF04A9D4F8CC00FFF709FB014650
:103EB000594809F03BFF0C25584E00207169FCF76A
:103EC00071FD04EB0514A71B103FB169C7F3001A7D
:103ED00007460020FCF766FDF16980460020FCF7EC
:103EE00061FD06F11005A542814639D0BAF1000FF7
:103EF00012D069693846FCF755FDA9690746404666
:103F0000FCF750FDE96980464846FCF74BFD06F199
:103F10002005A542814623D069693846FCF742FD59
:103F2000A96907464046FCF73DFDE96980464846D9
:103F3000FCF738FD05F11006716905463846FCF7B7
:103F400031FDB16907464046FCF72CFDF16980461A
:103F50002846FCF727FD06F11005A5428146DBD176
:103F60002F48CDF80880CDF80C9004F053F84DF2AE
:103F70000A7127F00040C3F62341FCF7D7FF294B15
:103F8000294A002814BF1046184604F043F8029846
:103F90004DF20A71C3F6234120F00040FCF7C6FF42
:103FA000214D204C002814BF2846204604F032F84A
:103FB000039B4DF20A71C3F6234123F00040FCF746
:103FC000B5FF002814BF2846204604F023F8174800
:103FD00004F020F819E02046154905220EF030FDC6
:103FE000002827D10D4800230361036203630364A3
:103FF000036503660367C0F88030C0F89030C0F8EE
:10400000A030C0F8B030C0F8C03008B0BDE8F087CC
:10401000A8340108B034010854340108D00E00203F
:10402000B43401087434010878340108B03201084E
:10403000C43401082046504904220EF001FD054613
:104040002046002D33D120210EF0EEFB0028DCD0DD
:10405000471C38460EF0C4FC484E5FFA80F8484CC6
:1040600003E056F8044F0135ECB12146384642468C
:104070000EF0E6FC0028F4D1284606F0D5FF4148B2
:10408000214609F053FE4048FFF7DEFCBDE70A2554
:10409000002103910291002D7FF40EAF3B4803F005
:1040A000B9FF3B4871E73B4803F0B4FFADE70EF0C2
:1040B000B5F9451E0B2D064652DC204620210EF098
:1040C000B3FB0446002850D0441C2046FEF738FCC1
:1040D000314B360198510126204620210EF0A4FBD9
:1040E000044640B1441C2046FEF72AFC2A4901360A
:1040F00001EB05125061204620210EF095FB04468D
:1041000040B1441C2046FEF71BFC234B013603EB59
:1041100005118861204620210EF086FB40B1013058
:10412000FEF70EFC1C4A032E02EB0515E8611ED0BB
:104130001A4803F06FFF68E70125A9E70225A7E702
:104140000325A5E70425A3E70525A1E706259FE7A5
:1041500007259DE708259BE7092599E70B2597E7A4
:104160000F480C2109F0E2FD4FE70646B4E7064888
:10417000FFF76AFC49E700BFCC3401080C2E0108A8
:10418000C4320108D43401088C330108B434010866
:1041900074340108F0320108D00E0020E834010820
:1041A000243501082DE9F04FDFF8508287B098F8E8
:1041B0000030002B00F0F680834800F1040A03F081
:1041C000E1FE002871D003F0FDFE0928034614D05B
:1041D0003F2812D07D4C2268002A75D00C2800F0B0
:1041E000CF800A2B00F08F800D2B00F08C807F2B6E
:1041F00000F0CF802F2AE2D86DE0744D744C2E6809
:104200000027324604F1A80B3E469146002A4FD1C2
:104210002746002E56D00C345C45F7D34846B146AD
:104220000646B9F1000F18D0D9F800003968835C50
:104230008C5C80189C4211440FD1DFF8A0E113B9C7
:104240005BE0002B59D00EF8023010F8013F11F856
:10425000014F0132A342F4D02A6012B1B94500F0F7
:1042600096805C4803F0D6FE4F4528BF4C4608D3E5
:1042700054F80C0B03F0CEFE092003F0B3FEBC4251
:10428000F6D95548002603F0C5FE2A683446B242E6
:1042900095D9524E305D03F0A5FE2A680134944250
:1042A000F8D303F06FFE00288DD107B0BDE8F08F82
:1042B00021684A480EF0C4FB2A680028ABD1274683
:1042C000002EA8D12646A6E7042879D00C2857D07E
:1042D0007F2B3FF474AF1F2B7FF671AF7E2B3FF621
:1042E0006EAF12B9202B3FF46AAF3C4D511C1846FB
:1042F000AB54216003F076FE61E720230EF8023014
:1043000001322A60A9E7364803F084FE334D27685E
:104310003448002600902E49EE5503A80E220C23A7
:10432000039504960EF07EF80746002844D00068F6
:104330000EF056FB421CBB68A81898472A4900207B
:104340000A4698F8006042F8040B286002F108075A
:1043500041F8180CCAF8000041F8100C41F80C0C98
:1043600041F8080C41F8040C0D1F48605060906043
:10437000D0602060002E98D0174803F04BFE1EE757
:104380001A4803F047FE144803F044FE17E734468A
:104390007DE7124B013A002115482260995403F041
:1043A00039FE0CE70121134888F8001003F032FEB3
:1043B000094803F02FFEFFE60F4803F02BFEBDE790
:1043C0000648FEF75BFF70E7C0050020EC05002003
:1043D000582E01088C35010884350108BC050020E1
:1043E000B03201087D2E0008D80500209435010860
:1043F000C43501084C350108A0350108F80D00202E
:1044000010B44FF47C43C0F601031978302902D070
:10441000002010BC70475A88B2F53D7FF8D118795A
:10442000BE28F5D193F8F132EF2BF1D14FF60143CD
:10443000C0F601034FF6F3641878C0F6010404E0F7
:1044400058785A1C414050780233A34281EA000157
:10445000F6D1D1F1010038BF0020DAE7F8B50178D4
:10446000054679B1084F094E044607480EF0DCF9BD
:10447000C31B621BF11808B181F8022114F8011F57
:104480000029F2D1F8BD00BF10450108D00E002070
:104490002DE9F04F87B0FFF7B3FF002800F0D88276
:1044A000ED4D4FF47C412846C0F601014FF43D72BA
:1044B0000EF050F895F8F032022B02D9002385F85F
:1044C000F0329C2202FB0351DFF898B301F58E71A4
:1044D00058460EF03FF89BF81F006FF0140909FBD7
:1044E00000F4C0EB0078C0EB407C4FEA08169BF864
:1044F0001E20C0EBCC07A0EB800A06F6C41000EB30
:1045000040084FEACA0304F6C41102FB08F807F694
:10451000C41403F6C41A4FEA41090AFB02FA4FEA2F
:10452000840C43F2D40602FB09F902FB0CFC06FBE7
:1045300002F748F6AD32C6F6DB0282FB081482FBB6
:104540000A0682FB071702944FEAEA7A82FB0C14F0
:104550009BF82030CAEBA62A029E82FB09104FEA84
:10456000E878C8EBA6280497B5F8D0205F42B5F8E4
:10457000D250BFB2CDF80880DDF8108003940595C5
:104580000197C3F164054FEAE979B44CC9EBA0295E
:104590004FEA98270398DDF8048000954FEAEC7CF9
:1045A000009DCCEBA02CA4F802A00FFA88F0A4F890
:1045B00004909BF8211003EB8306DDF808A0DDF8DA
:1045C00014904FF00008EDB276000028A4F80080A7
:1045D0006781A4F806A0A4F808C0C1F16407C2EB83
:1045E000090405FB05F503FB03F840F37882AA46AE
:1045F00000FB00FC01FB0CF999FBFAFE0EEB070A2D
:104600000AFB00F046F2676CC6F2666C8CFB009EFB
:10461000C017C0EBAE0906EB090A0FFA8AFC04FBCF
:104620000CFE44F6D350C1F2620080FB0E0AC3F1C7
:104630000A094FEAEE7C1FFA89F9CCEBAA1E8848DA
:104640000FFA89FC02EB0E0ABCF1000FA0F800A0E3
:1046500040F33E82AE460CFB0CF901FB09FA9AFBD3
:10466000FEFE0EEB070909FB0CFC46F2676AC6F278
:10467000666A8AFB0CAE4FEAEC79C9EBAE0C06EB2E
:104680000C0A0FFA8AFE04FB0EFC44F6D359C1F261
:10469000620989FB0C9A4FEAEC7EC3F1140C1FFAF5
:1046A0008CF9CEEBAA1A0FFA89FC02EB0A0EBCF1C8
:1046B000000FA0F802E040F30482A9460CFB0CFABC
:1046C00001FB0AFE9EFBF9F909EB070A0AFB0CFC49
:1046D00046F2676EC6F2666E8EFB0CA94FEAEC7A64
:1046E000CAEBA90C06EB0C0E0FFA8EF904FB09FCC1
:1046F00044F6D35AC1F2620A8AFB0C9E4FEAEC7C64
:10470000C3F11E09CCEBAE1A1FFA89FE0FFA8EFC1C
:1047100002EB0A09BCF1000FA0F8049040F3CA8133
:10472000AE460CFB0CFA01FB0AF999FBFEFE0EEB00
:10473000070A0AFB0CFC46F26769C6F2666989FB48
:104740000CAE4FEAEC7ACAEBAE0C06EB0C090FFA92
:1047500089FE04FB0EFC44F6D35AC1F2620A8AFBBE
:104760000C9E4FEAEC7CC3F12809CCEBAE1A1FFA81
:1047700089FE0FFA8EFC02EB0A09BCF1000FA0F8CB
:10478000069040F39081AE460CFB0CFA01FB0AF94F
:1047900099FBFEFE0EEB070A0AFB0CFC46F267696A
:1047A000C6F2666989FB0CAE4FEAEC7ACAEBAE0C36
:1047B00006EB0C090FFA89FE04FB0EFC44F6D35AF3
:1047C000C1F2620A8AFB0C9E4FEAEC7CC3F132090B
:1047D000CCEBAE1A1FFA89FE0FFA8EFC02EB0A0927
:1047E000BCF1000FA0F8089040F35681AE460CFBD8
:1047F0000CFA01FB0AF999FBFEFE0EEB070A0AFB15
:104800000CFC46F26769C6F2666989FB0CAE4FEA9A
:10481000EC7ACAEBAE0C06EB0C090FFA89FE04FB2E
:104820000EFC44F6D35AC1F2620A8AFB0C9E4FEA90
:10483000EC7CC3F13C09CCEBAE1A1FFA89FE0FFAEF
:104840008EFC02EB0A09BCF1000FA0F80A9040F3BD
:104850001C81AE4608E000BFD00E00207C16002070
:10486000F8150020340E00200CFB0CFA01FB0AF9AD
:1048700099FBFEFE0EEB070A0AFB0CFC46F2676989
:10488000C6F2666989FB0CAE4FEAEC7ACAEBAE0C55
:1048900006EB0C090FFA89FE04FB0EFC44F6D35A12
:1048A000C1F2620A8AFB0C9E4FEAEC7CC3F1460916
:1048B000CCEBAE1A1FFA89FE0FFA8EFC02EB0A0946
:1048C000BCF1000FA0F80C9040F3D880AE460CFB72
:1048D0000CFA01FB0AF999FBFEFE0EEB070A0AFB34
:1048E0000CFC46F26769C6F2666989FB0CAE4FEABA
:1048F000EC7ACAEBAE0C06EB0C090FFA89FE04FB4E
:104900000EFC44F6D35AC1F2620A8AFB0C9E4FEAAF
:10491000EC7CC3F15009CCEBAE1A1FFA89FE0FFAFA
:104920008EFC02EB0A09BCF1000FA0F80E9040F3D8
:104930009E80AE460CFB0CFA01FB0AF999FBFEFEC9
:104940000EEB070A0AFB0CFC46F26769C6F26669C1
:1049500089FB0CAE4FEAEC7ACAEBAE0C06EB0C0905
:104960000FFA89FE04FB0EFC44F6D35AC1F2620A28
:104970008AFB0CA9C3F15A034FEAEC7E9BB2CEEB43
:10498000A91C0FFA83FE02EB0C0ABEF1000FA0F87F
:1049900010A067DD2B460EFB0EF901FB09FC9CFB0A
:1049A000F3F3DB1903FB0EFA46F26763C6F26663A4
:1049B00083FB0A934FEAEA7ECEEBA303F3181BB204
:1049C00004FB03F344F6D359C1F2620989FB03AC3B
:1049D000DB17C3EBAC1A009B02EB0A0E1FFA83F93C
:1049E0000FFA89F3002BA0F812E035DD03FB03F882
:1049F00001FB08F191FBF5F5EF1907FB03F346F214
:104A00006761C6F2666181FB0351DB17C3EBA1014D
:104A1000761836B204FB06F444F6D353C1F26203AF
:104A200083FB0481E417C4EBA114BBF86C30BBF822
:104A30006A1012199942828205D32D48B0F86E305F
:104A40008B4228BF0B46ABF86A3007B0BDE8F08F49
:104A50000A2003F055F923E5B9F1000F14BF4546CC
:104A60000125C3E7002B14BF4346012393E7BEF1A2
:104A7000000F14BFC6464FF0010E5BE7BEF1000FFA
:104A800014BFC6464FF0010E21E7BEF1000F14BF60
:104A9000C6464FF0010EE7E6BEF1000F14BFC64652
:104AA0004FF0010EA3E6BEF1000F14BFC6464FF053
:104AB000010E69E6BEF1000F14BFC6464FF0010EAD
:104AC0002FE6B9F1000F14BFC1464FF00109F5E51B
:104AD000B9F1000F14BFC6464FF0010EBBE5DDF87B
:104AE00004E0BEF1000F14BFC2464FF0010A7FE59B
:104AF000340E00202DE9F843444D302306464FF490
:104B00003D702B706880BE22EF2300202A7185F84B
:104B1000F13285F8F20249B195F8F0129C2202FBBD
:104B200001533B4903F58E700DF014FD39483021D7
:104B3000A0F2F2231A7804E05C785A1C52786140A3
:104B40000233834281EA0201F6D14FF6F46885F818
:104B5000F2124FF00309C0F60108FCF78FFD342074
:104B6000FCF7A6FD4FF47C40C0F60100FCF710FEF8
:104B7000042839D14FF47C44C0F6010412E00968DE
:104B8000FCF7D2FD04377A1902F178430428A3F523
:104B9000FE31384619D10968FCF7C6FD042814D146
:104BA000444521D0621902F17843A3F5FE31204635
:104BB0000968FCF7B9FD271DEA1902F178430C34A6
:104BC0000428A3F5FE313846D9D0FCF767FDB9F1CA
:104BD0000109C2D1FCF762FD0A2003F091F8FFF74A
:104BE00057FC5EB9BDE8F883FCF758FDFFF708FCF9
:104BF0000028F1D0FFF74CFC002EF3D00F20142139
:104C00000122BDE8F84306F0A5BE00BFD00E00208B
:104C1000340E0020C31100202DE9F04F85B004466A
:104C2000FFF7EEFB10B1002C00F03B819E4E9F4D34
:104C3000306871689E4C01AB03C34FF43D72002194
:104C4000284696F808900DF033FD9C22002120465E
:104C50000DF02EFD01AA03CAC5F8DE10302129701F
:104C6000032169710221A9604FF41671A5F8E610BD
:104C7000FA21A5F8E8104FF48071A5F8E41020217E
:104C800085F8F0106E2185F8FE102B2185F8FF10B5
:104C9000212185F8001140F24C41A5F80E1101F5D3
:104CA0004871A5F8101140F27E41A5F8D01001F529
:104CB0002F71A5F8D2104FF47A71A5F8D4104FF4E3
:104CC000C8711726A5F8D61040F6C411A98126751B
:104CD0002821667541F2034C1E2640F2DC57322330
:104CE0004FF4E13EC0F2140C2170A6726170E672BE
:104CF00055214026C5F8ECC0C5F814E1C5F818E107
:104D0000C5F8DA0085F8E290A5F8D830A5F80C715E
:104D1000A170E67018261921E67514266173667174
:104D20000B210E265A222171A67108215026E1730B
:104D3000A6761421E2712826A277412221742672D8
:104D40006421E27749F69A1642F6F6024FF00A0815
:104D50004FF02D0BE17684F82030042184F82E30BA
:104D6000C3F67C7215235348C3F6197684F80CB049
:104D700084F819B084F82C1084F82F30266362630D
:104D800084F8118084F82D804FF4966BFFF766FB52
:104D90004FF47F7C4FF4FA6E01264FF000094FF07C
:104DA000C80AA4F866B0A4F86CC0A4F86EE0A4F831
:104DB00070C0A4F874E0A4F876C0A4F87AE0A4F86F
:104DC00084C0A4F886E0A4F88AC0A4F88CE04FF070
:104DD000280C4FF01E0EA4F86A70A4F87270A4F8A4
:104DE0007870A4F88870A4F88E704FF0FF0B142729
:104DF00084F862C084F893E084F8636084F86860A3
:104E000084F87C6084F87E6084F87F6084F8826037
:104E100084F8927084F865A084F87DB0A4F890A01E
:104E200084F8609084F8619084F8648084F88080CD
:104E300084F8818084F894606426002321469C22B3
:104E4000A4F8966005F58E704FF4967628272B61AE
:104E50002B622B632B642B652B662B67C5F8803088
:104E6000C5F89030C5F8A030C5F8B030C5F8C030EE
:104E7000A4F89860A4F89A700DF06CFB21469C226F
:104E800005F5DC700DF066FB214605F515709C22DA
:104E90000DF060FB4846494605B0BDE8F04FFFF70E
:104EA00029BE05B0BDE8F08F942D0108D00E00207A
:104EB000340E00201C45010840F2F053C2F20003FA
:104EC000196808420CBF00200120704740F2F053DF
:104ED000C2F200031A6810431860704740F2F053A2
:104EE000C2F200031A6822EA00001860704700BF8F
:104EF00040F2F053C2F200031868704740F6D063E6
:104F0000C2F20003996808420CBF002001207047DC
:104F100040F6D063C2F200039A681043986070476D
:104F200040F6D063C2F200039A6822EA000098605B
:104F3000704700BF40F6D063C2F200039868704724
:104F40002DE9F04107788046082090B00037C4F280
:104F5000020018BF0127FCF74BFA42F24C434F48BE
:104F6000C4F201030022FCB2059306900792002CC4
:104F700000F08E8002250895099280264FF48073F8
:104F8000082000254FF48062C4F2020005A90A96A9
:104F90000B9320264FF400530C920D960E930F9511
:104FA000FCF7D2FA0820C4F202000121FCF7EEFA65
:104FB00001264FF4602000958DF804708DF805608F
:104FC00002900395002C50D04FF4105002246946F3
:104FD000C4F201008DF81040FCF766F94FF4105050
:104FE0003246C4F2010004210323FCF7B5F94FF463
:104FF0001050C4F2010098F8001022460323FCF779
:10500000ABF94FF41050C4F201000121FCF77CF918
:105010004FF41050C4F201000121FCF76BF94FF47A
:105020001050C4F20100FCF779F94FF41050C4F2AB
:105030000100FCF779F90028F7D14FF41050C4F2C1
:105040000100FCF775F94FF41050C4F20100FCF7B1
:1050500075F90028F7D14FF41050C4F20100012176
:10506000FCF770F910B0BDE8F0814FF410506946BC
:10507000C4F201008DF81060FCF716F94FF41050DF
:10508000C4F20100042132460323FCF765F9B8E7B6
:10509000012108910994264670E700BFF40500201D
:1050A00040F2F453C2F2000333F8100080B27047AC
:1050B000704700BF2DE9F04F534B87B01A7802902C
:1050C00032215320002A7FD0082204AB01F086FA57
:1050D0009DF810109DF813409DF812209DF8155072
:1050E0009DF811609DF814009DF8173001EB06261D
:1050F00002EB042100EB0522012415B25A060FFA37
:1051000086FB0FFA81FA50D03221082204AB5320DB
:1051100001F064FA671C9DF81560FCB29DF813C09D
:105120009DF81270019607EB0C279DF81190DDF8A1
:1051300004C09DF810809DF81460601C06EB0C26DE
:1051400008EB09289DF817C036B20390322153208E
:1051500008220FFA88F83FB2202C354404ABC34430
:10516000BA440CF07F0620D0FEB1039C01F036FA61
:105170009DF814309DF815209DF812109DF81170BF
:105180009DF810009DF8136003EB02229DF8173084
:1051900001EB062600EB072031B200B216B25B0627
:1051A000E4B283448A443544AED1029E17489BFB47
:1051B000F4F29AFBF4F395FBF4F532807380B5803A
:1051C000047007B0BDE8F08F062204AB01F006FAC8
:1051D0009DF811509DF810109DF813409DF8122075
:1051E0009DF815009DF81430DDF808C001EB05218D
:1051F00002EB042203EB0020ACF80010ACF8022014
:10520000ACF80400DDE700BFF8050020F905002038
:1052100008B5144B2D211B780822532083B901F0C7
:10522000D9FA31210A22532001F0D4FA53202C213B
:105230000A2201F0CFFA0C4840F20912028008BDA0
:1052400001F0C8FA31210A22532001F0C3FA2C21BF
:105250000C22532001F0BEFA38219022532001F095
:10526000B9FAE8E7F80500205200002070B582B0D6
:10527000002402AB06460D4603F8014D532021469B
:10528000012201F0ABF920B19DF80730E52B02D0E7
:10529000204602B070BD3278044805490270054BC3
:1052A000054A29606B60AA600120F2E7F80500203A
:1052B00011520008B5500008B15000083B4B3C4A61
:1052C0002DE9F00115885C891E892F1B06FB07F765
:1052D000B3F91250B3F91420FC13A718EE0296FB91
:1052E000F7F56219A2F57A6404FB04F6B3F902C07B
:1052F000B3F90E8035130CFB04F708FB05F84FEAF1
:10530000E72CB3F900700CEBE828B3F9206008EB48
:10531000870707FA06F84CF2503747FA06F6B3F952
:105320000CC0B3F904700CFB05F507FB04F42F1453
:10533000204D07EB6434A71CD5F800C0BC1008F161
:105340000205DF88ACEBA50504F5004406FB05F675
:1053500007FB04F402EB82056D000835DA612D11BC
:10536000E20B002E1DDB7400B4FBF2F31E1206FBF1
:1053700006F64EF24332CFF6FF7202FB03F440F61C
:10538000DE3202FB06F2241404EB224202F6CF6264
:1053900003EB221300B1036001B10D60BDE8F00121
:1053A0007047B6FBF2F35B00E0E700BF00060020A9
:1053B0002A0600202406002000B5114B83B018787F
:1053C00018B910490A88531C0B80F621032201AB3F
:1053D000772001F003F99DF805100B4B9DF80400B0
:1053E0000A02B3F920309DF8061042EA0040084353
:1053F000C3F1080220FA02F00449086003B000BDBE
:10540000FA050020FC0500200006002024060020EC
:1054100000B50C4B83B0187818B90B490A88531C97
:105420000B80F621022201AB772001F0D7F89DF81E
:1054300004009DF80510054B41EA00221A8003B0D4
:1054400000BD00BFFA050020FC0500202A06002050
:1054500040F20063C2F2000393F8202010B49401DC
:10546000343440F2FA53C2F2000304F0FC02772015
:105470000024F4211C7010BC01F0ACB910B440F24F
:10548000FA53C2F2000300247720F4212E221C706C
:1054900010BC01F09FB900BF10B54FF48040FCF77D
:1054A000D7F80128044600D010BD4FF48040FCF727
:1054B000DFF8014B1C7010BDFA0500202DE9F04FFC
:1054C000864CA1B094F800800746B8F1000F03D0D5
:1054D000012021B0BDE8F08F4FF48059C4F20109DA
:1054E000102302254FF4005A484616A98DF85B3068
:1054F0004FF480468DF85A50ADF858A0FCF768F983
:105500000422484616A98DF85B20ADF85860FCF7D8
:105510005FF90E212846C9F810A0FCF7D9FA012539
:10552000082118A88DF8651018968DF864800F264C
:105530008DF86650FCF74EF8282317A88DF85C30DC
:105540008DF85D608DF85E608DF85F50FBF76EFE44
:10555000142002F007FB7720D0212A460DF15703D3
:1055600001F03CF89DF857005D4E03225528F07578
:10557000328403D0C9F814A04046AAE7D1212A46B4
:105580000DF15703772001F029F89DF857101622E6
:1055900001F00F0C4FEA111E1AABAA21772086F8F2
:1055A00018C086F819E001F019F89DF870309DF8E0
:1055B000698009939DF871309DF86AC00A939DF83F
:1055C00072309DF86CB00B939DF873309DF86DA010
:1055D0000C939DF874309DF868900D939DF875308C
:1055E0009DF86B000E939DF876309DF86F100F9329
:1055F0009DF877309DF86E2010939DF8783048EA3A
:10560000092911939DF879304AEA0B2803939DF8F4
:105610007A3040EA0C2012939DF87B3041EA022256
:1056200002939DF87C3013939DF87D30DDF828C0FF
:10563000DDF824B00193CDF81490069007924CEA5F
:105640000B29DDF830A00B990E9B0D98109ADDF810
:105650003CB0CDF8108043EA002C4AEA012842EA27
:105660000B20DDF80CA0029BDDF848B0119943EA4D
:105670000B224AEA0121DDF804B0DDF84CA03182AA
:105680004BEA0A23DDF814B0DDF818A0A6F800B044
:10569000A6F802A0DDF810B0DDF81CA041F2707190
:1056A000F081A6F804B0A6F806A0A6F80890A6F81F
:1056B0000A80A6F80CC07282B3823980094B0A496D
:1056C00046F678127A807B60B960084A084B09492F
:1056D00028462570FA603B617961FAE628060020C9
:1056E000000600207D5400081154000851540008A1
:1056F000B9530008BD52000808B5144B4FF4406080
:10570000C4F201001988FCF79DF9C8B902F0CEF97E
:105710000F490B6898420DD943F6BF42C01AC2F236
:10572000B62282FB00120B49C317C3EBE2020868E2
:1057300093B2038008480068BDE80840FBF798BFB3
:1057400002F0B4F902490860F4E700BF2E06002019
:10575000400600203C06002034060020FFF7CCBFA6
:10576000FFF7CABF2DE9F041DFF8F48084B00028CC
:1057700055D1364C364F374E37494FF400704FF401
:105780008073092217250B80A8F8000020603A706A
:1057900035704FF440601025C4F2010001A9ADF846
:1057A000043002238DF806308DF80750FCF710F80E
:1057B000B8F800204FF440600423C4F2010001A9AE
:1057C0008DF80730ADF80420FCF702F83978012095
:1057D000FCF77EF92068FBF74BFF216800220124CB
:1057E00002A802918DF80C208DF80E408DF80D5016
:1057F000FBF7F0FE30784FF4614300F01F0104FA2C
:1058000001F442B2CEF20003500943F8204002F006
:105810006DF9124B3C38186004B0BDE8F0810128E6
:1058200005D00D4B094C1B88094F0A4EB1E7074CB8
:10583000074F084E084A022107251080A8F80010DB
:105840002160387035700346A3E700BF340600209E
:1058500031060020300600202C06002038060020EB
:105860002E06002038B5044602F040F90E4B0246E1
:1058700019683C31884200D238BD0C4D1A604FF493
:1058800040600B4A2988C4F201001460FCF7E0F87C
:105890000B2002F031F94FF440602988C4F2010076
:1058A000BDE83840FCF7D6B8380600202C060020AA
:1058B0003C06002000B583B0002202AB03F8012DA6
:1058C0001E200A21012200F089FE30B19DF8070058
:1058D000B0F14803594251EB030003B000BD00BFD3
:1058E00070B582B00446032106226B461E2000F0EC
:1058F00075FE9DF800609DF801109DF802509DF81E
:1059000003209DF804009DF8053041EA062142EA93
:10591000052243EA002021806280A08002B070BD91
:105920002DE9F04F4FF4406885B0C4F201084FF400
:105930008053042201A94FF0020A05464046ADF803
:1059400004308DF807208DF806A0FBF741FF3220C8
:1059500002F008F9002111221E2000F03BFF012176
:1059600040221E2000F036FF642002F0FBF802A85F
:10597000FFF7B6FF012251461E2000F02BFF322018
:1059800002F0F0F802A8FFF7ABFFBDF90870BDF90F
:105990000A60BDF90C40BE42B4BF304638464FF2F3
:1059A0000109A042A8BF2046CFF6FF794845C0F2C2
:1059B0003E83D8F80C30012283F010005146C8F81D
:1059C0000C001E2000F006FF322002F0CBF802A8E7
:1059D000FFF786FFBDF90810BDF90A20BDF90C30AC
:1059E0008A42B4BF104608469842A8BF18464845A8
:1059F0000F4416441C44C0F21A83D8F80C205146B8
:105A000082F01003C8F80C3001221E2000F0E2FEE4
:105A1000322002F0A7F802A8FFF762FFBDF90810D4
:105A2000BDF90A20BDF90C308A42B4BF10460846C1
:105A30009842A8BF184648450F4416441C44C0F27B
:105A4000F682D8F80C20514682F01003C8F80C30CA
:105A500001221E2000F0BEFE322002F083F802A8D0
:105A6000FFF73EFFBDF90810BDF90A20BDF90C3063
:105A70008A42B4BF104608469842A8BF1846484517
:105A80000F4416441C44C0F2D282D8F80C20514670
:105A900082F01003C8F80C3001221E2000F09AFE9C
:105AA000322002F05FF802A8FFF71AFFBDF90810D4
:105AB000BDF90A20BDF90C308A42B4BF1046084631
:105AC0009842A8BF184648450F4416441C44C0F2EB
:105AD000AE82D8F80C20514682F01003C8F80C3082
