:020000040800F2
:1000000000500020450A0108F50A0108A9B00008BF
:10001000F50A0108F50A0108F50A010800000000C8
:10002000000000000000000000000000F50A0108C8
:10003000F50A010800000000F50A0108957C000897
:10004000F50A0108F50A0108F50A0108F50A010890
:10005000F50A0108F50A0108F50A010855590008D2
:10006000F50A0108F50A0108F50A0108F50A010870
:10007000F50A0108F50A010815800008F50A0108CB
:10008000F50A0108F50A0108F50A0108F50A010850
:10009000F50A0108F50A0108F50A0108595900088E
:1000A000F50A0108F50A0108F50A0108597A00085D
:1000B000D17A0008DD7A0008ED7A0008356600087C
:1000C000996A000839660008956A0008F50A01086F
:1000D000F50A0108F50A010879830008F50A010804
:1000E00091560008F50A0108F50A01080000000011
:1000F0000000000000000000000000000000000000
:0C01000000000000000000005FF808F1A3
:1001100010B5054C237833B9044810B10448AFF347
:1001200000800121217010BD8C050020000000001E
:10013000FC6B010808B5064B1BB106480649AFF336
:1001400000800648016811B1054A02B1904708BD18
:1001500000000000FC6B0108900500208C050020C9
:100160000000000081F0004102E000BF83F0004386
:1001700030B54FEA41044FEA430594EA050F08BF42
:1001800090EA020F1FBF54EA000C55EA020C7FEA06
:10019000645C7FEA655C00F0E2804FEA5454D4EB83
:1001A0005555B8BF6D420CDD2C4480EA020281EA4D
:1001B000030382EA000083EA010180EA020281EA85
:1001C0000303362D88BF30BD11F0004F4FEA0131D7
:1001D0004FF4801C4CEA113102D0404261EB4101E6
:1001E00013F0004F4FEA03334CEA133302D052426C
:1001F00063EB430394EA050F00F0A780A4F1010428
:10020000D5F1200E0DDB02FA0EFC22FA05F2801861
:1002100041F1000103FA0EF2801843FA05F3594147
:100220000EE0A5F120050EF1200E012A03FA0EFCC6
:1002300028BF4CF0020C43FA05F3C01851EBE371F0
:1002400001F0004507D54FF0000EDCF1000C7EEB0D
:1002500000006EEB0101B1F5801F1BD3B1F5001F4B
:100260000CD349085FEA30004FEA3C0C04F101046A
:100270004FEA445212F5800F80F09A80BCF1004F93
:1002800008BF5FEA500C50F1000041EB045141EA15
:10029000050130BD5FEA4C0C404141EB010111F416
:1002A000801FA4F10104E9D191F0000F04BF0146C1
:1002B0000020B1FA81F308BF2033A3F10B03B3F19F
:1002C00020020CDA0C3208DD02F1140CC2F10C022F
:1002D00001FA0CF021FA02F10CE002F11402D8BF8D
:1002E000C2F1200C01FA02F120FA0CFCDCBF41EA59
:1002F0000C019040E41AA2BF01EB0451294330BD28
:100300006FEA04041F3C1CDA0C340EDC04F1140404
:10031000C4F1200220FA04F001FA02F340EA0300DB
:1003200021FA04F345EA030130BDC4F10C04C4F121
:10033000200220FA02F001FA04F340EA0300294601
:1003400030BD21FA04F0294630BD94F0000F83F44B
:10035000801306BF81F480110134013D4EE77FEA2E
:10036000645C18BF7FEA655C29D094EA050F08BF7A
:1003700090EA020F05D054EA000C04BF194610465B
:1003800030BD91EA030F1EBF0021002030BD5FEA9F
:10039000545C05D14000494128BF41F0004130BDC7
:1003A00014F580043CBF01F5801130BD01F000451B
:1003B00045F0FE4141F470014FF0000030BD7FEA8E
:1003C000645C1ABF194610467FEA655C1CBF0B4689
:1003D000024650EA013406BF52EA033591EA030FA0
:1003E00041F4002130BD00BF90F0000F04BF002198
:1003F000704730B54FF4806404F132044FF00005CB
:100400004FF0000150E700BF90F0000F04BF002143
:10041000704730B54FF4806404F1320410F00045A9
:1004200048BF40424FF000013EE700BF42004FEAA4
:10043000E2014FEA31014FEA02701FBF12F07F4321
:1004400093F07F4F81F06051704792F0000F14BF1E
:1004500093F07F4F704730B54FF4607401F0004562
:1004600021F0004120E700BF50EA010208BF7047B9
:1004700030B54FF000050AE050EA010208BF7047AE
:1004800030B511F0004502D5404261EB41014FF417
:10049000806404F132045FEA915C3FF4DCAE4FF01B
:1004A00003025FEADC0C18BF03325FEADC0C18BF02
:1004B000033202EBDC02C2F1200300FA03FC20FA53
:1004C00002F001FA03FE40EA0E0021FA02F11444A0
:1004D000C1E600BF70B54FF0FF0C4CF4E06C1CEAB5
:1004E00011541DBF1CEA135594EA0C0F95EA0C0F2A
:1004F00000F0DEF82C4481EA030621EA4C5123EA9D
:100500004C5350EA013518BF52EA033541F48011CB
:1005100043F4801338D0A0FB02CE4FF00005E1FB7E
:1005200002E506F00042E0FB03E54FF00006E1FBC8
:1005300003569CF0000F18BF4EF0010EA4F1FF040B
:10054000B6F5007F64F5407404D25FEA4E0E6D414B
:1005500046EB060642EAC62141EA55514FEAC5205C
:1005600040EA5E504FEACE2EB4F1FD0C88BFBCF5D8
:10057000E06F1ED8BEF1004F08BF5FEA500E50F189
:10058000000041EB045170BD06F0004646EA01014F
:1005900040EA020081EA0301B4EB5C04C2BFD4EB81
:1005A0000C0541EA045170BD41F480114FF0000E7A
:1005B000013C00F3AB8014F1360FDEBF002001F0E8
:1005C000004170BDC4F10004203C35DA0C341BDC62
:1005D00004F11404C4F1200500FA05F320FA04F034
:1005E00001FA05F240EA020001F0004221F0004168
:1005F00010EBD37021FA04F642EB06015EEA430EDB
:1006000008BF20EAD37070BDC4F10C04C4F120050A
:1006100000FA04F320FA05F001FA04F240EA0200BD
:1006200001F0004110EBD37041F100015EEA430E8E
:1006300008BF20EAD37070BDC4F1200500FA05F2AE
:100640004EEA020E20FA04F301FA05F243EA02032D
:1006500021FA04F001F0004121FA04F220EA02003C
:1006600000EBD3705EEA430E08BF20EAD37070BD82
:1006700094F0000F0FD101F00046400041EB010162
:1006800011F4801F08BF013CF7D041EA060195F044
:10069000000F18BF704703F00046520043EB0303FE
:1006A00013F4801F08BF013DF7D043EA06037047EB
:1006B00094EA0C0F0CEA135518BF95EA0C0F0CD0F6
:1006C00050EA410618BF52EA4306D1D181EA03013C
:1006D00001F000414FF0000070BD50EA410606BF36
:1006E0001046194652EA430619D094EA0C0F02D17B
:1006F00050EA013613D195EA0C0F05D152EA0336C0
:100700001CBF104619460AD181EA030101F00041DD
:1007100041F0FE4141F470014FF0000070BD41F026
:10072000FE4141F4780170BD70B54FF0FF0C4CF400
:10073000E06C1CEA11541DBF1CEA135594EA0C0F1F
:1007400095EA0C0F00F0A7F8A4EB050481EA030E6C
:1007500052EA03354FEA013100F088804FEA033353
:100760004FF0805545EA131343EA12634FEA022221
:1007700045EA111545EA10654FEA00260EF00041E2
:100780009D4208BF964244F1FD0404F5407402D234
:100790005B084FEA3202B61A65EB03055B084FEAC5
:1007A00032024FF480104FF4002CB6EB020E75EBC2
:1007B000030E22BFB61A754640EA0C005B084FEAEA
:1007C0003202B6EB020E75EB030E22BFB61A754667
:1007D00040EA5C005B084FEA3202B6EB020E75EBB2
:1007E000030E22BFB61A754640EA9C005B084FEA2A
:1007F0003202B6EB020E75EB030E22BFB61A754637
:1008000040EADC0055EA060E18D04FEA051545EA25
:1008100016754FEA06164FEAC30343EA52734FEACE
:10082000C2025FEA1C1CC0D111F4801F0BD141EA47
:1008300000014FF000004FF0004CB6E711F4801FAC
:1008400004BF01430020B4F1FD0C88BFBCF5E06F8C
:100850003FF6AFAEB5EB030C04BFB6EB020C5FEA9C
:10086000500C50F1000041EB045170BD0EF0004EF1
:100870004EEA113114EB5C04C2BFD4EB0C0541EA23
:10088000045170BD41F480114FF0000E013C90E620
:1008900045EA060E8DE60CEA135594EA0C0F08BFE4
:1008A00095EA0C0F3FF43BAF94EA0C0F0AD150EAE3
:1008B00001347FF434AF95EA0C0F7FF425AF104676
:1008C00019462CE795EA0C0F06D152EA03353FF49E
:1008D000FDAE1046194622E750EA410618BF52EA1B
:1008E00043067FF4C5AE50EA41047FF40DAF52EAEF
:1008F00043057FF4EBAE12E74FF0FF3C06E000BF8C
:100900004FF0010C02E000BF4FF0010C4DF804CD98
:100910004FEA410C7FEA6C5C4FEA430C18BF7FEA58
:100920006C5C1BD001B050EA410C0CBF52EA430C86
:1009300091EA030F02BF90EA020F0020704710F106
:10094000000F91EA030F58BF994208BF90422CBF95
:10095000D8176FEAE37040F0010070474FEA410C8E
:100960007FEA6C5C02D150EA013C07D14FEA430CAC
:100970007FEA6C5CD6D152EA033CD3D05DF8040B1D
:10098000704700BF8446104662468C46194663464F
:1009900000E000BF01B5FFF7B7FF002848BF10F126
:1009A000000F01BD4DF808EDFFF7F4FF0CBF01206B
:1009B00000205DF808FB00BF4DF808EDFFF7EAFFE7
:1009C00034BF012000205DF808FB00BF4DF808EDA2
:1009D000FFF7E0FF94BF012000205DF808FB00BF97
:1009E0004DF808EDFFF7CEFF94BF012000205DF821
:1009F00008FB00BF4DF808EDFFF7C4FF34BF01202E
:100A000000205DF808FB00BF4FEA410212F500121A
:100A100015D211D56FF47873B3EB625212D94FEA45
:100A2000C12343F0004343EA505311F0004F23FA2F
:100A300002F018BF404270474FF00000704750EA84
:100A4000013005D111F0004008BF6FF00040704741
:100A50004FF00000704700BF4A0011D212F500129B
:100A600011D20DD56FF47873B3EB62520ED44FEA06
:100A7000C12343F0004343EA505323FA02F0704786
:100A80004FF00000704750EA013002D14FF0FF30C4
:100A900070474FF0000070474FEA4102B2F1E04367
:100AA00024BFB3F5001CDCF1FE5C0DD901F0004C55
:100AB0004FEAC0024CEA5070B2F1004F40EB8300A5
:100AC00008BF20F00100704711F0804F21D113F1D1
:100AD0003872BCBF01F00040704741F480114FEA0A
:100AE0005252C2F11802C2F1200C10FA0CF320FA93
:100AF00002F018BF40F001004FEAC1234FEAD323B0
:100B000003FA0CFC40EA0C0023FA02F34FEA430319
:100B1000CCE77FEA625307D150EA01331EBF4FF0A2
:100B2000FE4040F44000704701F0004040F0FE40BD
:100B300040F40000704700BF80F0004002E000BFBA
:100B400081F0004142001FBF5FEA410392EA030FB8
:100B50007FEA226C7FEA236C6AD04FEA1262D2EB02
:100B60001363C1BFD218414048404140B8BF5B4207
:100B7000192B88BF704710F0004F40F4000020F0A0
:100B80007F4018BF404211F0004F41F4000121F0B6
:100B90007F4118BF494292EA030F3FD0A2F1010200
:100BA00041FA03FC10EB0C00C3F1200301FA03F13E
:100BB00000F0004302D5494260EB4000B0F5000F61
:100BC00013D3B0F1807F06D340084FEA310102F120
:100BD0000102FE2A51D2B1F1004F40EBC25008BFD2
:100BE00020F0010040EA03007047490040EB00009C
:100BF00010F4000FA2F10102EDD1B0FA80FCACF1CB
:100C0000080CB2EB0C0200FA0CF0AABF00EBC250C9
:100C100052421843BCBFD0401843704792F0000FB7
:100C200081F4000106BF80F400000132013BB5E70A
:100C30004FEA41037FEA226C18BF7FEA236C21D080
:100C400092EA030F04D092F0000F08BF08467047E5
:100C500090EA010F1CBF0020704712F07F4F04D1B3
:100C6000400028BF40F00040704712F100723CBFC6
:100C700000F50000704700F0004343F0FE4040F4F0
:100C8000000070477FEA226216BF08467FEA2363AE
:100C90000146420206BF5FEA412390EA010F40F499
:100CA000800070474FF0000304E000BF10F00043E5
:100CB00048BF40425FEA000C08BF704743F09643CC
:100CC00001464FF000001CE050EA010208BF7047E7
:100CD0004FF000030AE000BF50EA010208BF70476E
:100CE00011F0004302D5404261EB41015FEA010C83
:100CF00002BF84460146002043F0B64308BFA3F17B
:100D00008053A3F50003BCFA8CF2083AA3EBC2535C
:100D100010DB01FA02FC634400FA02FCC2F120027B
:100D2000BCF1004F20FA02F243EB020008BF20F0B2
:100D30000100704702F1200201FA02FCC2F1200218
:100D400050EA4C0021FA02F243EB020008BF20EA0D
:100D5000DC7070474FF0FF0C1CEAD0521EBF1CEA3B
:100D6000D15392EA0C0F93EA0C0F6FD01A4480EA29
:100D7000010C400218BF5FEA41211ED04FF0006312
:100D800043EA501043EA5111A0FB01310CF000403E
:100D9000B1F5000F3EBF490041EAD3715B0040EA64
:100DA000010062F17F02FD2A1DD8B3F1004F40EB34
:100DB000C25008BF20F00100704790F0000F0CF007
:100DC000004C08BF49024CEA502040EA51207F3ACB
:100DD000C2BFD2F1FF0340EAC250704740F40000A6
:100DE0004FF00003013A5DDC12F1190FDCBF00F097
:100DF00000407047C2F10002410021FA02F1C2F145
:100E0000200200FA02FC5FEA310040F1000053EAE0
:100E10004C0308BF20EADC70704792F0000F00F02E
:100E2000004C02BF400010F4000F013AF9D040EA34
:100E30000C0093F0000F01F0004C02BF490011F4C8
:100E4000000F013BF9D041EA0C018FE70CEAD153C6
:100E500092EA0C0F18BF93EA0C0F0AD030F0004C46
:100E600018BF31F0004CD8D180EA010000F00040FA
:100E7000704790F0000F17BF90F0004F084691F0B8
:100E8000000F91F0004F14D092EA0C0F01D14202F2
:100E90000FD193EA0C0F03D14B0218BF084608D1BB
:100EA00080EA010000F0004040F0FE4040F4000005
:100EB000704740F0FE4040F4400070474FF0FF0C98
:100EC0001CEAD0521EBF1CEAD15392EA0C0F93EADF
:100ED0000C0F69D0A2EB030280EA010C49024FEA31
:100EE000402037D04FF0805343EA111143EA1013EA
:100EF0000CF000408B4238BF5B0042F17D024FF4A2
:100F0000000C8B4224BF5B1A40EA0C00B3EB510F7C
:100F100024BFA3EB510340EA5C00B3EB910F24BF65
:100F2000A3EB910340EA9C00B3EBD10F24BFA3EBEA
:100F3000D10340EADC001B0118BF5FEA1C1CE0D1B2
:100F4000FD2A3FF650AF8B4240EBC25008BF20F065
:100F5000010070470CF0004C4CEA50207F32C2BFB9
:100F6000D2F1FF0340EAC250704740F400004FF056
:100F70000003013A37E792F0000F00F0004C02BF87
:100F8000400010F4000F013AF9D040EA0C0093F051
:100F9000000F01F0004C02BF490011F4000F013BAB
:100FA000F9D041EA0C0195E70CEAD15392EA0C0F13
:100FB00008D142027FF47DAF93EA0C0F7FF470AF4B
:100FC000084676E793EA0C0F04D14B023FF44CAF8E
:100FD00008466EE730F0004C18BF31F0004CCAD123
:100FE00030F000427FF45CAF31F000437FF43CAF5F
:100FF0005FE700BF4FF0FF3C06E000BF4FF0010C81
:1010000002E000BF4FF0010C4DF804CD4FEA400262
:101010004FEA41037FEA226C18BF7FEA236C11D0AC
:1010200001B052EA530C18BF90EA010F58BFB2EB5F
:10103000030088BFC81738BF6FEAE17018BF40F0DF
:10104000010070477FEA226C02D15FEA402C05D193
:101050007FEA236CE4D15FEA412CE1D05DF8040B18
:10106000704700BF844608466146FFE70FB5FFF7AB
:10107000C9FF002848BF10F1000F0FBD4DF808ED63
:10108000FFF7F4FF0CBF012000205DF808FB00BF54
:101090004DF808EDFFF7EAFF34BF012000205DF8AE
:1010A00008FB00BF4DF808EDFFF7E0FF94BF0120FB
:1010B00000205DF808FB00BF4DF808EDFFF7D2FFF8
:1010C00094BF012000205DF808FB00BF4DF808ED3B
:1010D000FFF7C8FF34BF012000205DF808FB00BF08
:1010E0004FEA4002B2F1FE4F0FD34FF09E03B3EB35
:1010F00012620DD94FEA002343F0004310F0004F75
:1011000023FA02F018BF404270474FF000007047CA
:1011100012F1610F01D1420205D110F0004008BF69
:101120006FF0004070474FF00000704742000ED251
:10113000B2F1FE4F0BD34FF09E03B3EB126209D412
:101140004FEA002343F0004323FA02F070474FF0C8
:101150000000704712F1610F01D1420202D14FF03D
:10116000FF3070474FF00000704700BF4FF48053CE
:10117000C4F202035A6802F00C00082811D04FF4A0
:101180009052C0F27A024FF48053C4F202035868BE
:101190001049C0F30313C85C0F4B22FA00F21A6027
:1011A000704758685968C0F383420232C90309D5B1
:1011B0005B689B0306D44FF49050C0F27A0000FBAA
:1011C00002F2E0E74FF41061C0F23D0101FB02F2D0
:1011D000D9E700BF00000020100000204FF480532A
:1011E000C4F20203196800B541F0010018605968A3
:1011F0000022CFF6FF020A405A601A68002122F04E
:10120000847020F480321A60186885B020F480223F
:101210001A6058681A4620F4FE0058604FF41F0008
:101220009860019102910391196841F4803018602F
:1012300003E00198B0F5A06F09D0136803F4003102
:1012400002910198431C019302990029F1D04FF4B7
:101250008052C4F20202136813F4003169D00120F5
:101260000290029A012A68D04FF48051C4F2020120
:101270000B68002243F001000860019203E0019A2C
:10128000B2F5A06F09D00B6803F002000390019A39
:10129000531C019303980028F1D04FF48053C4F2FB
:1012A000020319688A073BD54FF40052C4F20202C8
:1012B0001068194640F010001060106820F003001C
:1012C0001060106840F0020010605A685A60586858
:1012D00058605A6842F4806058605A6822F47C1062
:1012E00058605A6842F4601058601A6842F0807082
:1012F00018600A684FF480539001C4F20203F8D5D5
:101300005968184621F003025A60596841F00202F8
:101310005A60436803F00C010829FAD1FFF726FF51
:101320004FF46D40CEF200004FF00062826005B0D5
:1013300000BD0291029A012A96D14FF40052C4F2E4
:10134000020210684FF4805340F0100111601068E1
:10135000C4F2020320F0030111601068194640F046
:10136000020010605A685A60586858605A6842F41F
:10137000806058605A6822F47C1058605A6842F4C1
:10138000E81058601A6842F0807018600A684FF4DC
:1013900080539001C4F20203F8D55968184621F031
:1013A00003025A60596841F002025A60436803F030
:1013B0000C010829FAD1B3E740F0BF604FF46D4348
:1013C00040F40031CEF20003D9607047C37830B4E6
:1013D0007BB90078012100F01F0201FA02F14009F7
:1013E0004FF46143CEF20003203043F8201030BCAC
:1013F00070474FF46D44CEF20004E5684478EA4348
:10140000C2F302230F2525FA03F2C3F1040104FA03
:1014100001F48578037802EA050121430A0103F10A
:101420006043D1B203F5614282F8001300780121D4
:1014300000F01F0301FA03F14FF46143CEF2000301
:10144000420943F82210D2E742680B6870B422F4D4
:1014500070250C7925F4807646EA030242EA0423DB
:10146000436086688C68CA684FF2FD73CFF6F173EB
:101470004D7922433340134343EA45028260097C9D
:10148000C26A4B1E22F47001DAB241EA0253C3620F
:1014900070BC7047836819B923F0010181607047FF
:1014A00043F0010282607047836819B923F48071A8
:1014B0008160704743F4807282607047836843F0B4
:1014C00008018160704700BF8068C0F3C0007047AA
:1014D000836843F004018160704700BF8068C0F3F7
:1014E00080007047836819B923F4A00181607047B8
:1014F00043F4A00282607047092970B401EB4104F3
:101500001ED91E3C072606FA04F603FA04F4C56841
:10151000062A25EA060343EA0403C3601DD90C2A00
:1015200002EB820227D9413A1F2404FA02F401FA9D
:1015300002F1C36A23EA04020A43C26270BC704724
:10154000072606FA04F603FA04F40569062A25EAD2
:10155000060343EA04030361E1D8541E04EB840349
:101560001F2404FA03F401FA03F1426B22EA040394
:101570000B434363E2E7233A1F2404FA02F401FA1F
:1015800002F1036B23EA04020A430263D6E700BFB9
:1015900010B4082104684FF6FE72C4F20201002361
:1015A000224088420260036043608360C36047D08A
:1015B0001C23C4F20203984249D03022C4F2020232
:1015C00090424CD04421C4F2020188424FD05823AB
:1015D000C4F2020398425BD06C22C4F20202904231
:1015E0005ED08021C4F2020188421FD04FF4816393
:1015F000C4F20203984221D040F21C42C4F202021B
:10160000904255D04FF48661C4F20201884258D00E
:1016100040F24443C4F2020398425BD04FF48B6221
:10162000C4F2020290422AD010BC70470021C4F2DA
:1016300002014A6842F070604860F5E74FF4806349
:10164000C4F202035A6842F00F015960ECE700232C
:10165000C4F20203596841F0F0005860E4E7002149
:10166000C4F20201486840F470624A60DCE700207E
:10167000C4F20200426842F470434360D4E74FF47E
:101680008060C4F20200416841F470234360CBE7FC
:101690000020C4F20200436843F470214160C3E7B4
:1016A0000023C4F20203596841F470025A60BBE798
:1016B0004FF48061C4F202014B6843F0F0004860CF
:1016C000B2E74FF48063C4F20203586840F47062DA
:1016D0005A60A9E74FF48060C4F20200426842F405
:1016E00070414160A0E700BF8B68F0B40D6A0C69DF
:1016F0004A691D438E6945EA04031343CA690568B4
:101700004F6A43EA060414438E6A25F4FF4C2743CC
:101710000D68CC682CF0700349683E431E43066098
:1017200044608560C160F0BC704700BF29B90268A1
:101730004FF6FE73134003607047016841F00102E9
:101740000260704703681AB923EA0101016070471B
:1017500019430160704700BF406880B2704700BF06
:10176000C3004CBF4FF480630023C4F202035860EF
:10177000704700BF837930B43BB34FF48063C4F249
:10178000010301681D68CC4325401D605D68027936
:101790002C4002F180455C6005F582321568447981
:1017A0002943116002689868D14308409860D8685E
:1017B000102C01EA0001D96013D004F1804303F535
:1017C000823421680A43226009E00279016802F14B
:1017D000804000F582331A6822EA01021A6030BCA8
:1017E0007047986810439860D9680A43DA60F6E752
:1017F0004FF48063C4F201031A68596910EA0103C7
:1018000004D010420CBF00200120704718467047DA
:101810004FF48063C4F20103586170474FF40053E2
:1018200040F2231148F6AB12C4F20203C4F267512E
:10183000CCF6EF5259605A60704700BF4FF4005326
:10184000C4F202031A6942F080001861704700BFB9
:101850004FF40053C4F20203D86070474FF40053B2
:10186000C4F20203DA68D2070BD4D868400701D566
:1018700002207047D96811F0100F0CBF042003201C
:1018800070470120704700BF10B50446FFF7E6FF20
:10189000012815D1B4B1FFF7E1FF013C012804F0A4
:1018A00001030DD174B10BB105E05CB1FFF7D6FFB8
:1018B000013C012804D1FFF7D1FF013C0128F4D0FD
:1018C00004B110BD052010BD70B5002382B00546DF
:1018D0004FF400500C460193FFF7D6FF042801D0C7
:1018E00002B070BD4FF40056C4F202063269A1B2D4
:1018F00042F0010030614FF400502980FFF7C4FF2F
:10190000042805D0326941F6FE7313403361E7E7DE
:10191000023501950199240C0C804FF40050FFF71B
:10192000B3FF326941F6FE7313403361D8E700BF5D
:1019300038B505464FF43020FFF7A6FF042800D045
:1019400038BD4FF40054C4F2020423694FF4302030
:1019500043F0020121616561226942F04003236185
:10196000FFF792FF216941F6FD720A40226138BDFE
:10197000CA7830B4D30648BF8B7802F00F0448BF52
:101980001C430B8813F0FF0F2FD013F001050168E3
:1019900040F0EC8003F00205ADB2002D40F0D080A5
:1019A00003F00405ADB2002D40F0D58003F008052A
:1019B000ADB2002D40F0988003F01005ADB2002DBF
:1019C00040F09D8003F02005ADB2002D40F0A280D4
:1019D00003F04005ADB2002D40F0A78003F0800574
:1019E000ADB2002D40F0CD800160FF2B28D903F46B
:1019F00080718DB24168002D2DD103F40075ADB218
:101A0000002D33D103F48065ADB2002D39D103F43C
:101A10000065ADB2002D3FD103F48055ADB2002D6D
:101A200044D103F40055ADB2002D49D103F48045F3
:101A3000ADB2002D4ED103F400439BB213B9416007
:101A400030BC7047282A64F31F7100F0B080482A28
:101A500008BF0361F3E721F00F01282A44EA0101DE
:101A600000F0A380482AC8D10561C6E721F0F00143
:101A7000282A41EA041100F09680482AC2D1056163
:101A8000C0E721F47061282A41EA042100F089802E
:101A9000482ABCD10561BAE721F47041282A41EAFD
:101AA00004317CD0482AB7D10561B5E721F4702113
:101AB000282A41EA044170D0482AB2D10561B0E732
:101AC00021F47001282A41EA045164D0482AADD19A
:101AD0000561ABE721F07061282A41EA046158D022
:101AE000482AA8D10561A6E721F47041282A41EAD5
:101AF000043168D0482A7FF45FAF05615CE721F4C8
:101B00007021282A41EA04415BD0482A7FF45AAF69
:101B1000056157E721F47001282A41EA045156D0A3
:101B2000482A7FF455AF056152E721F07061282AF9
:101B300041EA046149D0482A7FF450AF05614DE77E
:101B400021F0F001282A41EA041138D0482A7FF414
:101B500027AF056124E721F47061282A41EA0421B6
:101B60002BD0482A7FF422AF05611FE721F00F0137
:101B7000282A44EA01011CD0482A7FF40BAF0561F2
:101B800008E7282A64F31F7115D0482A08BF0561A9
:101B90002AE745614FE7456148E7456141E745610F
:101BA0003AE7456133E745612CE7456125E7436145
:101BB00045E74561EEE6456116E74561F6E64561B4
:101BC000EEE64561FEE64561F6E6456106E74561FC
:101BD000FEE600BF4FF6FF730221042203808170EE
:101BE000C2707047836819420CBF00200120704703
:101BF000016170474161704700230028C4F201036E
:101C000000F44012B4BFDB695B68B2F5401F30B42A
:101C100084B222D0C20217D5C0F30342032505FACD
:101C200002F223EA020343F0706321B1410D0A017D
:101C300004FA02F423430021C4F201010028B4BFD6
:101C4000CB614B6030BC7047420D120104FA02F2C6
:101C500023EA020343F07063E7E70022C4F20102C3
:101C6000556823F0706325F070655560DDE700BFAF
:101C700001F0030310B40F229C0002FA04F200FAF0
:101C800004F089080023C4F20103023153F8214013
:101C900024EA020243F8212053F82120104343F89C
:101CA000210010BC704700BF08B54FF4A843C4F230
:101CB000000398420BD001214FF4800000F066F938
:101CC0004FF480000021BDE8084000F05FB9012119
:101CD0004FF4001000F05AF94FF400100021BDE855
:101CE000084000F053B900BFF0B587B004468688BD
:101CF00001A80D4600F0CCF803994DF68363C4F2B9
:101D00001B33A3FB012026F03F073A04870C160C77
:101D10001FFA87FC4CEA0603A380228848F2A060E1
:101D200022F001062A683304C0F201001E0C824230
:101D3000268024D85200B1FBF2F6B1B20CF1010EAC
:101D4000A4F820E0032998BF0421A18320886E898C
:101D500083B243F0010121802288A88822F48163A4
:101D600023F00203AA8929891B041B0C3043034377
:101D700011439BB28AB22380228107B0F0BDE8886C
:101D80004BF6FF7398421DD002EB820202EB8206F3
:101D9000B1FBF6F141F4804081B20E05300D08B977
:101DA00041F001014FF4967303FB07F744F6D35259
:101DB000C1F2620282FB0736B009431C41F40041C4
:101DC0002384C2E702EB4203B1FBF3F291B2E4E7F2
:101DD000002341F2883283804BF6FF7103814381F7
:101DE0004FF480430260C18083817047038829B922
:101DF00023F001010A04130C0380704799B241F0EB
:101E000001020280704700BF038829B923F4807162
:101E10000A04130C0380704799B241F48072028067
:101E2000704700BF038829B923F400710A04130C1A
:101E30000380704799B241F400720280704700BF7E
:101E4000038829B923F480610A04130C03807047C6
:101E500099B241F480620280704700BF83889BB2D0
:101E60001AB923EA010181807047194381807047C4
:101E700001827047008AC0B2704700BF1AB901F0F2
:101E8000FE010182704741F001010182704700BFED
:101E90004FF48053C4F202035A6810B402F00C01EC
:101EA000042901D0082928D04FF49052C0F27A02B8
:101EB00002604FF48053C4F202035C681C49C4F30F
:101EC00003140C5D22FA04F242605C68C4F302243D
:101ED0000C5D22FA04F484605C68C4F3C224095DDA
:101EE00022FA01F2C2605B681249C3F38133CB5C12
:101EF000B2FBF3F2026110BC70475C685968C4F32E
:101F000083420232CC030AD55B68990307D44FF4AD
:101F10009054C0F27A0404FB02F20260C9E74FF465
:101F20001061C0F23D0101FB02F20260C1E700BF97
:101F300018000020140000204FF48053C4F2020364
:101F40005A6919B922EA0000586170471043586174
:101F5000704700BF4FF48053C4F202039A6919B965
:101F600022EA00009861704710439861704700BFF3
:101F70004FF48053C4F20203DA6919B922EA00006F
:101F8000D86170471043D861704700BF4FF4805349
:101F9000C4F202031A6919B922EA000018617047F5
:101FA00010431861704700BF4FF48053C4F202031E
:101FB0005A6A42F080705862704700BF70B4048C57
:101FC0004FF4305524F001063404260C0684048BAB
:101FD000C4F2010524F0F3042404240C2243068CEB
:101FE00042EA0313A842B6B29CB223D04FF4505237
:101FF000C4F2010290421DD0B0F1804F1AD04FF4CC
:102000008063C4F20003984214D04FF40062C4F21B
:10201000000290420ED04FF44063C4F20003984295
:1020200008D026F00A0646F00106314304830184F5
:1020300070BC704726F0020242F001063143F5E71A
:1020400070B4048C4FF4305524F010063404260C80
:102050000684048BC4F2010524F440742405240D85
:10206000068C44EA022242EA0333A842B6B29BB28B
:1020700023D04FF45052C4F2010290421DD0B0F16F
:10208000804F1AD04FF48062C4F20002904214D004
:102090004FF40062C4F2000290420ED04FF440624E
:1020A000C4F20002904208D026F0A00646F01006C6
:1020B00031430383018470BC704726F0200242F054
:1020C000100646EA011189B2F3E700BF4FF430521F
:1020D0000388C4F20102904270B49BB21AD04FF44C
:1020E0005052C4F20102904214D0B0F1804F11D08E
:1020F0004FF48062C4F2000290420BD04FF40062B1
:10210000C4F20002904205D04FF44062C4F20002D3
:10211000904205D14FF68F724C881A4042EA040370
:102120004FF48052C4F20002904234D04FF4A052D7
:10213000C4F2000290422ED04FF6FF42CE881A40E1
:102140004FF430538D880C88C4F201033243984217
:102150000280858504851BD04FF45052C4F20102E1
:10216000904215D04FF48043C4F2010398420FD03F
:102170004FF48842C4F20102904209D04FF49043D8
:10218000C4F20103984203D00122828270BC7047DE
:10219000097A0186F8E703808B88838509880185A1
:1021A000F2E700BF038C2DE9F00123F001021404D3
:1021B000250C0584078C0D8984884E88038B2E435B
:1021C00023F073024FF4305527F0020312041B046E
:1021D0000F88C4F20105120C1B0CB6B2A842A4B2BF
:1021E00042EA070246EA03031FD04FF45055C4F2F7
:1021F0000105A84219D04FF48045C4F20105A84258
:1022000013D04FF48845C4F20105A8420DD04FF415
:102210009045C4F20105A84207D0C9888480028392
:1022200081860384BDE8F00170474FF6F776B1F878
:102230000AC0B1F80E808F891E4046EA0C0C4FF69A
:10224000FB738E884FF6FF4548EA070725400CEAE6
:102250000303BCB233432C43DFE700BF038CF0B46D
:1022600023F010021404250C0584068C848826F0C3
:102270002002078B16040D89320C27F4E6431B0459
:1022800042EA05120F884E884FF430551B0CC4F2F9
:10229000010543EA072342EA0612A842A4B29BB210
:1022A00092B20CD04FF45055C4F20105A84206D0AA
:1022B000C9888480038301870284F0BC70474F89FA
:1022C0004FF67F7616404FF2FF35B1F80CC025402F
:1022D00046EA07164FF6BF728F88CC89324045EA2E
:1022E0008C0542EA071245EA840492B2A4B2DFE701
:1022F000038CF0B423F480721404250C0584068C3E
:102300000D8926F400773A048488838B120C23F01D
:10231000730642EA05224F884FF430553304C4F265
:1023200001050E881B0C42EA0722A842A4B243EA28
:10233000060392B20CD04FF45055C4F20105A842E6
:1023400006D0C9888480838381870284F0BC70476B
:102350004F894FF2FF7616404CF6FF75B1F80CC06E
:10236000254046EA07264FF6FF328F88CC89324057
:1023700045EA0C1542EA072245EA041492B2A4B2D7
:10238000DFE700BF038CF0B423F480521404250C63
:102390000584068C858826F40052878B16040C89E8
:1023A000320C27F4E6431B0442EA04320F884E88BD
:1023B0004FF430541B0CC4F2010443EA072342EAF1
:1023C0000632A042ADB29BB292B20DD04FF450543F
:1023D000C4F20104A04207D0C98885808383A0F895
:1023E00040100284F0BC70474BF6FF748E892C407D
:1023F00044EA8615ADB2EFE7F8B50B880D46044602
:10240000002B58D0042B00F0B080082B028C63D036
:1024100022F480508F8801040B0C2E896988238454
:10242000A08B4FF4305220F440731805030D43EA9B
:102430000723208CC4F2010243EA0633944280B29F
:102440009BB230D04FF45052C4F2010294422AD0D1
:10245000B4F1804F27D04FF48062C4F2000294425E
:1024600021D04FF40062C4F2000294421BD04FF41A
:102470004062C4F20002944215D047F6FF52024077
:1024800041F480510A43A3832284A38BE88823F478
:10249000406211040B0CA383A28B91B241EA00208D
:1024A00083B2A383F8BD20F4005040EA013291B218
:1024B00041F48052E7E74988AA882B89FFF77EFD1F
:1024C000238BE98823F00C021004030C2383228B56
:1024D00090B208432083F8BD22F4807637043A0C8A
:1024E00089882F896E880284808B4FF4305220F0C7
:1024F000F3031804030C43EA0713208CC4F201020F
:102500009BB2944280B243EA010341D04FF4505150
:10251000C4F201018C423BD0B4F1804F38D04FF46B
:102520008062C4F20002944232D04FF40061C4F2DF
:1025300000018C422CD04FF44062C4F2000294425D
:1025400026D04FF2FF51014046F480763143A383F9
:102550002184A38BE88823F00C0211040B0CA383C5
:10256000A28B91B20143A183F8BD4988AA882B8927
:10257000FFF766FD208BEA8820F440631904080CFD
:102580002083238B99B241EA022290B22083F8BDC6
:1025900020F4007040EA062291B241F48071D6E73F
:1025A00000234FF6FF7181800380C3804380037254
:1025B000704700BF0023038043808380C380038172
:1025C00043818381C38170470023012203804380BC
:1025D0008280C38003817047038829B923F00101F9
:1025E0000A04130C0380704799B241F00102028083
:1025F000704700BFB0F8443021B959044A0CA0F824
:10260000442070476FEA43436FEA53418AB2A0F80F
:102610004420704783899BB21AB923EA0101818162
:102620007047194381817047038B23F0080213041C
:102630001A0C114301837047038B23F400621304C7
:102640001A0C42EA01218BB203837047838B23F07B
:10265000080213041A0C114381837047838B23F4FF
:10266000006213041A0C42EA01218BB28383704783
:10267000808E80B2704700BF008F80B2704700BF6D
:10268000808F80B2704700BFB0F8400080B27047C2
:10269000038A828911EA030092B203D011420CBF6F
:1026A00000200120704700BFC9438AB202827047F0
:1026B000038A70B5044623F44050CA880D460104CD
:1026C0000E0C16432682A389AA88288923F4B056C3
:1026D000698926F00C0310431A04160C084340EADB
:1026E00006018BB2A381A08AAA8920F44076310426
:1026F0000B0C86B0134301A8A382FFF7C9FB4FF46C
:102700006056A089C4F20106B44202B20CBF049E16
:10271000039E002A21DB2D6806EB860101EB810375
:10272000AE00B3FBF6F148F21F53C5F2EB13A3FB67
:102730000106A089720900B264251601002802FB77
:10274000151113DB0A013232A3FB0203C3F343105A
:10275000304383B2238106B070BD286806EB860241
:1027600002EB82054300B5FBF3F1DCE7C90032312F
:10277000A3FB0112C2F342103043EAE700234FF4F7
:1027800016520C2102608380C380038141818381C2
:10279000704700BF838929B923F400510A04130C40
:1027A0008381704799B241F400528281704700BF23
:1027B00001F01F0310B4C1F342110124A14204FA35
:1027C00003F30DD002290DD014302AB9026822EA91
:1027D0000301016010BC7047026813430360F9E70E
:1027E0000C30F2E71030F0E7838A9BB21AB923EA83
:1027F0000101818270471943818270478088C10539
:10280000C80D704770B51D4C064623783BB11C4D72
:1028100005F06EFA2A68B618B0420BD270BD05F00A
:1028200067FA174D29683231884219D2207800287A
:10283000EED170BD4FF40063C4F2010300214FF4E8
:1028400080502170186105F053FA0E4B0C4A19782C
:10285000106009B1481E18700B4B01221A7070BD30
:102860004FF40061C4F2010101204FF48052207046
:102870004A6105F03DFA286070BD00BFA805002040
:10288000B00500208C0B0020A905002070B5274C56
:1028900082B025788DF8062002AA8DF805108DF8F3
:1028A00007308DF80400531913F8040C4438C1B2F2
:1028B0000A290DD93226022D14D83046FFF7A2FF7F
:1028C0002278022A0ED81A4B1878012826D107E060
:1028D000184E022D36F8116004D8002EEDD1144B9D
:1028E00021780EE005F004FA134B821B186882422F
:1028F00016D80F4B1878012800D07EB9217802290C
:1029000001D801312170002018704FF400620B4B88
:10291000C4F201024FF480511870116102B070BD11
:10292000074A002121701170E3E700BFAC050020C9
:10293000A905002050450108B0050020A805002089
:102940008C0B00202DE9F041524F04467B7B524D09
:10295000002B4BD0012028704FF4007002F0CAFB0E
:1029600000282FD14D4E102002F0A2FB48B1BB7AB7
:10297000002B3DD04A49CB7A002B3DD1494B012158
:1029800019703278022A4DD0012A53D04548017877
:10299000012957D02B78012B5CD0042C62D0022C5B
:1029A00068D0012C6ED0404A1078002835D14FF401
:1029B00000623E49C4F201024FF480530870136173
:1029C000BDE8F0813A493B480B8890F8642019B281
:1029D00002EB8206B14213DD314E767896B92F4E66
:1029E00002213170002BBED13370BCE72B70B3E7EE
:1029F000284AD07A0028BDD12A4800220270C0E7B8
:102A0000264EEFE790F86500244E121802EB820282
:102A1000012091423070E5DDE2E73220BDE8F0416F
:102A2000FFF7F0BE4E214C200A464423BDE8F0419A
:102A3000FFF72CBF4D2153204C220B46BDE8F0413F
:102A4000FFF724BF532001464E224D23BDE8F0413D
:102A5000FFF71CBF5320014602464D23BDE8F0415D
:102A6000FFF714BF4D2153200A464423BDE8F0412F
:102A7000FFF70CBF532001464D224423BDE8F0412F
:102A8000FFF704BF53204D214E224423BDE8F041FF
:102A9000FFF7FCBE94160020AB050020AD0500201A
:102AA0002C160020AA0500208C0B0020A805002071
:102AB000400B00201C0E002070B5B0FBF2F406465F
:102AC0001546084614B12046FFF7F6FF05FB1464CF
:102AD000024B195D00F8011B70BD00BFAC46010838
:102AE0002DE9F84F037802460130202BFAD0092B4C
:102AF000F8D02D2B114600F036812B2B04BF024657
:102B00004B7800270026C3F6F077A3F130095FFA6F
:102B100089F0092800F2418102F101080024002512
:102B200000230022C4F2240320462946FDF7D2FCEC
:102B3000044648460D46FDF767FC02460B46204614
:102B40002946FDF715FB424618F8013B0D46A3F157
:102B500030095FFA89F109290446E1D92E2B00F0EA
:102B6000D1801378652B11D0452B0FD00023002284
:102B7000C3F6F07320462946FDF7ACFC32463B46CF
:102B8000FDF7A8FCFDF788FFBDE8F88F53782D2BE3
:102B900000F0F9802B2B00F0FB80501C4FF0000B55
:102BA000A3F13002092A00F2FB804FF0000808EB85
:102BB000880803EB480110F8013FA1F13008A3F1A8
:102BC0003002092AF3D9B8F59A7F40F2D3804FF446
:102BD0009A7848F21F59A8F13208C5F2EB19A9FBFF
:102BE000083C73A3D3E9002300210020C3F6F07151
:102BF000CCF30019FDF76EFCB8F1310F02460B461D
:102C000018D9B9F1000F02D0A8F132080BE0104634
:102C10001946A8F1640866A3D3E90023FDF75AFC1E
:102C200063A3D3E90023FDF755FCB8F1310F024649
:102C30000B46ECD8B8F1070F2ED9104619465EA303
:102C4000D3E90023FDF746FCA8F1080AD146B9F103
:102C5000070F02460B46CAF3C00A1BD9BAF1000F90
:102C600005D055A3D3E90023A9F108090BE01046CC
:102C70001946A9F1100950A3D3E90023FDF72AFC56
:102C80004DA3D3E90023FDF725FCB9F1070F024658
:102C90000B46ECD808F00708B8F1000F29D0194608
:102CA00000231046C4F224030022FDF713FC08F1B0
:102CB000FF38C14602460B4608F00108B9F1000F83
:102CC00017D0B8F1000F09D1194600231046C4F2FD
:102CD00024030022FDF7FEFB09F1FF390023002247
:102CE000C4F22403FDF7F6FBB9F1010902460B46D5
:102CF000EAD1BBF1000F3FF43DAF20462946FDF776
:102D000013FD3BE7537802F1010EA3F13000C1B28D
:102D100009294AD84FF0000902F1020A4FF00008D1
:102D2000C4F22409FDF770FB42464B46FDF7FCFC5C
:102D300002460B4620462946FDF71AFA00230022D8
:102D4000C4F2240304460D4640464946FDF7C2FB43
:102D500052461AF8013B8046A3F130008946C1B2C1
:102D60000929DFD9FEE6002702464B780026CBF67C
:102D7000F077CAE6B8F1310F3FF62BAF00230022FF
:102D8000C3F6F07356E7901C93784FF0010B07E7FA
:102D90009378901C4FF0000B02E700240025DDE63D
:102DA00000230022C3F6F073A3E77246DAE600BF01
:102DB0009A647EC50E1B514A0000000084D79741DB
:102DC00044F2D460C0F6010005F028BA44F2047061
:102DD00038B5C0F6010044F21C74C0F6010405F0D9
:102DE0001DFA44F2247144F228722046C0F6010113
:102DF000C0F601020BF0C2F944F2507144F258726D
:102E00002046C0F60101C0F601020BF0B7F944F20A
:102E10006C7144F278722046C0F60101C0F60102DE
:102E20000BF0ACF944F2987144F2A0722046C0F65F
:102E30000101C0F6010244F624350BF09FF9C0F6FB
:102E4000010544F2D07120462A46C0F601010BF07C
:102E500095F944F2D87144F2E0722046C0F60101BF
:102E6000C0F601020BF08AF944F2F47120462A46BA
:102E7000C0F601010BF082F944F2FC7144F6000245
:102E80002046C0F60101C0F601020BF077F944F6C6
:102E90001C0144F624022046C0F60101C0F60102DE
:102EA0000BF06CF944F6380144F640022046C0F6B7
:102EB0000101C0F601020BF061F944F6500144F63D
:102EC00058022046C0F60101C0F601020BF056F987
:102ED00044F6680144F66C022046C0F60101C0F6D3
:102EE00001020BF04BF944F69C0144F69002204697
:102EF000C0F60101C0F601020BF040F944F6A4014E
:102F00002046C0F601012A46BDE838400BF036B92C
:102F10002DE9F04104F0ECFE44F6D353C1F2620314
:102F2000A3FB00212D4C2E482378027889092D48D7
:102F30000BF024F902F0D8F82B4A4DF68365166899
:102F4000C4F21B350746A5FB06032848990C0BF075
:102F500015F90022264E27491446012505E0611C7B
:102F6000CCB256F82410224669B105FA02F00742A5
:102F7000F5D021480BF002F9611CCCB256F82410B0
:102F800022460029F1D1012002F092F878B91B48BD
:102F900005F044F91A490C8803F080FD02461948EF
:102FA00021464FF44C73BDE8F0410BF0E7B8164CE6
:102FB000164B2178164853F821100BF0DFF82078D3
:102FC0000228E4D1134A144892F8F140002C0CBFB7
:102FD0006E216F210BF0D2F8D9E700BF4D00002021
:102FE0007C160020B048010810000020F0480108BD
:102FF000BC540108AC48010810490108484A0108BE
:10300000AA0B002024490108200D00209846010841
:1030100014490108C80E00202049010838B50C6881
:103020000546204611F0A8F8024628682146BDE86A
:10303000384011F0D1B800BF44F6581008B5C0F6BA
:10304000010005F0EBF80121002001F051FE44F6EB
:103050006410C0F6010005F0E1F80A2004F084FED7
:103060000020BDE8084004F075BF00BF2DE9F04F17
:103070008BB0804611F080F808284CD09D4C9E48BB
:1030800005F0CCF8A0789D4D0290607995F802A1EA
:1030900095F8038194F800B094F8019005900AA87F
:1030A000E278804495F804C182440AF80CBC08F820
:1030B0000C9CDDF8088095F80811844495F805E12A
:1030C00095F8067195F8076195F80931039225790D
:1030D0000CF80C8CDDF80CC0864404950EF80CCC72
:1030E000DDF810E0C71907F80CECE279A579059F27
:1030F00044188619C31806F80C7C814804F80C5C47
:1031000007A903F80C2C00228DF824200BF036F8C8
:103110000BB0BDE8F08F7B4A98F800101068C246EB
:1031200043185D7808F1060C05F00306022E08BF6F
:1031300020390AF8011B116898F80170CDF810C009
:10314000C819437808F1020603F00305022D08BFF1
:10315000203F88F80170116898F8027008F1040B9C
:10316000C819437898F8031003F00305022D08BF2F
:10317000203F88F80270106808F1030743185D7853
:1031800005F00300022808BF203988F803101368EF
:1031900098F804105D186878156800F00303022B96
:1031A00014BF0C46A1F1200498F8051088F80440DB
:1031B0006818457808F1050305F00300022814BFDC
:1031C0000C46A1F120040393116898F8063088F8A2
:1031D0000540CC186578126805F00300022898F8BD
:1031E000075008BF203B88F806305319597808F17A
:1031F000070401F003000294022898F800903D4C67
:1032000008BF203D88F807502046494610F0D8FEF8
:1032100020B15046494610F0D3FE18B13A4804F0A8
:10322000FDFF75E798F8012020461146019210F045
:10323000C7FE019B0028F1D03046194610F0C0FEB1
:103240000028EBD198F802602046314610F0B8FE15
:103250000028E3D03846314610F0B2FE0028DDD118
:1032600098F803602046314610F0AAFE0028D5D019
:103270005846314610F0A4FE0028CFD198F80460DB
:103280002046314610F09CFE0028C7D003983146F6
:1032900010F096FE0028C1D198F80560204631460E
:1032A00010F08EFE0028B9D00498314610F088FE48
:1032B0000028B3D198F806602046314610F080FE11
:1032C0000028ABD00298314610F07AFE0028A5D134
:1032D000EDB22046294610F073FE00289ED008F17A
:1032E0000800294610F06CFE002897D1404601F0F6
:1032F000B3F9C4E6A85D010894490108C80E00208E
:10330000EC4B01085C010020744901082DE9F843E9
:10331000074610F031FF044601F008FF0646DCB90D
:10332000334804F07BFF334D3349012703E055F860
:10333000041F013459B107FA04F03042F7D02F4886
:103340000AF01CFF55F8041F01340029F3D12C4862
:10335000BDE8F84304F062BF38462A49224610F01F
:103360003BFF002827D03B782D2B36D04FF00009AB
:10337000DFF8808020494646002504E056F8041F07
:103380000135002924D03846224610F025FF0028B8
:10339000F4D1012000FA05F0B9F1000F22D001F0BC
:1033A000BBFE194804F03AFF184858F82510BDE84C
:1033B000F8430AF0E3BE164804F030FF0D4C0E4906
:1033C0000E480AF0DBFE54F8041F0029F8D1BEE7CE
:1033D0001048BDE8F84304F021BF0137013C4FF02D
:1033E0000109C5E701F090FE0B4804F017FFDBE789
:1033F000B049010868450108AC49010810490108B5
:10340000484A0108C4490108004A0108EC4B010878
:10341000CC490108E44901080C4A010870B5064688
:1034200044F61820C0F6010004F0F8FE40F2B45251
:10343000C2F200020023154645F8043B043545F866
:10344000043B45F8043B45F8043B45F8043B45F88C
:10345000043B45F8043B45F8043B45F8043B40F287
:10346000E45440F6E45145F8043BC2F20004C2F2D1
:103470000001304653602B6023600B70BDE8704044
:10348000FFF7DABD44F6302008B5C0F6010004F0BD
:10349000C5FE012001F0B2FC44F64C20C0F601004C
:1034A00004F0BCFE0A2004F05FFC0020BDE80840E8
:1034B00004F050BD2DE9F041804610F05DFE074656
:1034C00000281FD0404620493A4610F085FE0028CB
:1034D00028D01E4E1E4C002504E056F8044F01353E
:1034E000002C1AD0214640463A4610F075FE0028BE
:1034F000F3D1184B1848013521465D71BDE8F04104
:103500000AF03CBE1348114B42791448511E53F83F
:103510002110BDE8F0410AF031BE1148BDE8F0418C
:1035200004F07CBE0F4804F079FE084C08490E48B0
:103530000AF024FE54F8041F0029F8D10B48BDE816
:10354000F04104F06BBE00BFC4490108A445010866
:103550005C4A0108C80E0020A04A0108604A010820
:10356000884A0108744A010810490108484A0108BC
:1035700038B5044610F000FE0E4D01460CE010F088
:1035800019FB0228034613D8002001460A4C85F88F
:10359000203301F0ADFB002111F0FF0F2046EED1EA
:1035A000044A064892F82013BDE838400AF0E6BD08
:1035B00038BD00BFC80E0020244B0108B44A0108E2
:1035C00070B5054610F0D8FDC0B290B9144B044652
:1035D0009D1C5A882146661C12480AF0CFFD023411
:1035E000104831466A880AF0C9FDAB1C142CEFD193
:1035F00070BD284610F0DEFA1328044605DD0A489F
:103600001421BDE870400AF0B9BD2021284610F011
:10361000D7FC10F0CFFA054B1C3423F8140070BD12
:10362000520E0020CC4A0108D84A01081C0E002086
:10363000931E222B88BF0A22031E10B50C4605DB01
:10364000FFF73AFA00210170204610BD2D2001F845
:10365000010B5842FFF730FA00220270204610BDDD
:1036600070B5002386B00C460021054603930493F1
:103670000593FDF72BFD002842D041F26F2128462B
:10368000C3F60321FDF75EFA0021C4F27A41FDF78B
:1036900061FBFDF725FD064686EAE670A0EBE670C5
:1036A0000A226946FFF7C4FF002E31DB20218DF886
:1036B0000C10684610F060FD012803AD32D00228DE
:1036C0003CD003286946284626D010F053FC2846F3
:1036D00010F052FD0338C6B232462946204610F09B
:1036E000E9FD0021A155204610F046FD2E22431C85
:1036F0002254A919E01810F0E1FC204606B070BD74
:1037000041F26F212846C3F60321FDF719FABBE702
:103710002D208DF80C00CCE730228DF80D2010F014
:1037200029FCD4E73026284669468DF80D608DF8CF
:103730000E608DF80F6010F01DFCC8E7302328469E
:1037400069468DF80D308DF80E3010F013FCBEE791
:1037500030B5037983B004460D46052B11D8DFE858
:1037600003F01C1F23262A03806869460068FFF7C0
:1037700077FF01461C480AF001FD002D1ED103B061
:1037800030BD002119480AF0F9FC002DF7D0184887
:10379000E16822690AF0F2FCF1E781680978F1E753
:1037A000806890F90010EDE783681988EAE782687D
:1037B000B2F90010E6E781680968E3E7E068FDF721
:1037C00075FA6946FFF74CFF01460A480AF0D6FC35
:1037D0002069FDF76BFA6946FFF742FF014605488D
:1037E0000AF0CCFCCBE700BF004B01080C4B0108F2
:1037F000084B0108044B01082DE9F84F804610F0F2
:10380000BBFC0746002877D0012871D040463D21F7
:1038100010F0D6FB002869D0441C204610F0CAF9ED
:1038200083462046FFF75CF9594F82463C680025E5
:10383000204610F0A1FC214602464046B94610F051
:10384000CBFC08B3012514260EE07C580135204638
:1038500010F092FC21460246404610F0BDFC98B1A3
:103860000135712D00F08380BC59DFF8249120468A
:1038700010F082FC21460246404610F0ADFC06F1F5
:10388000140128360028E0D105EB850509EB8509F0
:10389000D9F80C00FDF70AFA01465046FDF70CFC7A
:1038A00000285FD0D9F81000FDF700FA0146504615
:1038B000FDF7F8FB002855D099F8040005280CBF47
:1038C00052465A46052807D8DFE800F003035A5A43
:1038D0005E56D9F808301A7021462E480AF04EFC80
:1038E00048460021BDE8F84FFFF732BFBDE8F88F2A
:1038F00098F800302A2B89D1254D274804F08EFCFA
:10390000264829680AF03AFC28463946FFF720FF86
:10391000234804F083FC01241426A9591F480AF007
:103920002DFC04EB840205EB82003946FFF710FF03
:103930001B4804F073FC06F1140101341748695860
:103940000AF01CFC04EB840005EB80003946FFF70D
:10395000FFFE0134124804F061FC2836712CDCD1E2
:10396000BDE8F88F0F48BDE8F84F04F057BC0E488B
:10397000BDE8F84F04F052BCD9F808301A60ABE744
:10398000D9F808000280A7E7D9F808100A60A3E771
:10399000D4540108284B0108104B0108044C0108BD
:1039A000484A0108344B01085C4B01082DE9F04FEF
:1039B00091488DB0914C0AF0E1FB9148FFF700FE71
:1039C0006279904B511E904853F821100AF0D6FBB3
:1039D000276900213846FDF751FB002800F0A1803F
:1039E00008AE01F0A3FBDFF85882884983464746BA
:1039F00087480AF0C3FB57F8041F0029F8D1834811
:103A00000F464FF00105014603E058F8041F013747
:103A100061B105FA07F212EA0B0FF6D07D480AF001
:103A2000ADFB58F8041F01370029F2D17A480D4642
:103A3000017882780191C17894F802B194F803A1D9
:103A400094F8049194F8058194F806C194F807E17C
:103A500094F8087194F809310392447842790491FA
:103A60008179029406920479C27907910CA83146B3
:103A7000019E83440BF8106C029E82440AF8106C7D
:103A8000039E814409F8106C049E0594804408F854
:103A9000106C059E84440CF8106C069E86440EF84B
:103AA000106C5E4C079EC318C7195D4807F8106C70
:103AB00003F8102C8DF828500AF060FB5948216853
:103AC0000AF05CFB29462046FFF742FE564804F008
:103AD000A5FB01251426A15952480AF04FFB05EB1E
:103AE000850204EB82000021FFF732FE4E4804F00D
:103AF00095FB06F1140101354A4861580AF03EFB76
:103B000005EB8500002104EB8000FFF721FE013565
:103B1000454804F083FB2836712DDCD10DB0BDE89B
:103B2000F08F25464FF0000808AE39E031463846A0
:103B3000FFF796FD01463D480AF020FB584600215C
:103B4000FDF7A6FA00284AD131465846FFF788FD0E
:103B5000014636480AF012FB50460021FDF798FA5C
:103B6000002838D131465046FFF77AFD01462F48EC
:103B70000AF004FB48460021FDF78AFA38BB3146BB
:103B80004846FFF76DFD014629480AF0F7FA002183
:103B9000B8F10C0F27D02F693846FDF76FFA38BB04
:103BA00008F1010841462348D5F814B0D5F818A00B
:103BB000D5F81C900AF0E2FA384600211035FDF7DE
:103BC00067FA0028B2D01C480AF0D8FAAEE71A48C3
:103BD0000AF0D4FAD3E718480AF0D0FAC2E7164838
:103BE0000AF0CCFAB0E70D2114480AF0C7FAF8E65B
:103BF00008F10101F8E700BF7C4B0108C80E002066
:103C0000244B0108A4450108AC4B0108AC4901084C
:103C1000D44B0108E44B0108A85D0108D454010805
:103C2000F44B0108004C0108484A0108004B010808
:103C3000EC4B0108B84B01080C490108C04B0108C6
:103C4000684501082DE9F04788B0044610F094FA61
:103C5000C5B2002D40F0BD82B34CB44804F0DEFA8A
:103C600020690021FDF70AFA002840F00F83B048D0
:103C700001210AF083FA04A92069FFF7F1FC01464B
:103C8000AC480AF07BFA04A96069FFF7E9FC014639
:103C9000A8480AF073FA04A9A069FFF7E1FC0146FD
:103CA000A4480AF06BFA04A9E069FFF7D9FC0146C1
:103CB000A1480AF063FA206A0021FDF7DFF9002825
:103CC00040F038839A4802210AF058FA04A9206A81
:103CD000FFF7C6FC014697480AF050FA04A9606A4B
:103CE000FFF7BEFC014693480AF048FA04A9A06A0F
:103CF000FFF7B6FC01468F480AF040FA04A9E06AD3
:103D0000FFF7AEFC01468C480AF038FA206B002120
:103D1000FDF7B4F9002840F00F83854803210AF02D
:103D20002DFA04A9206BFFF79BFC014681480AF09D
:103D300025FA04A9606BFFF793FC01467D480AF061
:103D40001DFA04A9A06BFFF78BFC014679480AF025
:103D500015FA04A9E06BFFF783FC014676480AF0E8
:103D60000DFA206C0021FDF789F9002840F0E68269
:103D70006F4804210AF002FA04A9206CFFF770FCD6
:103D800001466C480AF0FAF904A9606CFFF768FC78
:103D9000014668480AF0F2F904A9A06CFFF760FC3C
:103DA000014664480AF0EAF904A9E06CFFF758FC00
:103DB000014661480AF0E2F9206D0021FDF75EF945
:103DC000002840F0BD825A4805210AF0D7F904A91D
:103DD000206DFFF745FC014656480AF0CFF904A9CB
:103DE000606DFFF73DFC014652480AF0C7F904A98F
:103DF000A06DFFF735FC01464E480AF0BFF904A953
:103E0000E06DFFF72DFC01464B480AF0B7F9206E34
:103E10000021FDF733F9002840F094824448062140
:103E20000AF0ACF904A9206EFFF71AFC01464148DC
:103E30000AF0A4F904A9606EFFF712FC01463D48A0
:103E40000AF09CF904A9A06EFFF70AFC0146394864
:103E50000AF094F904A9E06EFFF702FC0146364827
:103E60000AF08CF9206F0021FDF708F9002840F0D6
:103E70006B822F4807210AF081F904A9206FFFF710
:103E8000EFFB01462B480AF079F904A9606FFFF7B0
:103E9000E7FB014627480AF071F904A9A06FFFF774
:103EA000DFFB014623480AF069F904A9E06FFFF738
:103EB000D7FB014620480AF061F9D4F880000021C0
:103EC000FDF7DCF8002840F04182194808210AF08B
:103ED00055F904A9D4F88000FFF7C2FB0146154844
:103EE0000AF04CF904A9D4F88400FFF7B9FB0146A5
:103EF00010480AF043F904A9D4F88800FFF7B0FB92
:103F000001460C480AF03AF904A9D4F88C00FFF7EE
:103F1000A7FB014608480AF031F9D4F890000021C7
:103F2000FDF7ACF80AE000BFC80E0020144C0108F1
:103F3000404C0108484C0108EC4B0108002840F0B7
:103F40000782B24809210AF019F904A9D4F89000AF
:103F5000FFF786FB0146AE480AF010F904A9D4F831
:103F60009400FFF77DFB0146A9480AF007F904A970
:103F7000D4F89800FFF774FB0146A5480AF0FEF854
:103F800004A9D4F89C00FFF76BFB0146A1480AF096
:103F9000F5F8D4F8A0000021FDF770F8002840F0F3
:103FA000D9819A480A210AF0E9F804A9D4F8A000B6
:103FB000FFF756FB014696480AF0E0F804A9D4F84A
:103FC000A400FFF74DFB014691480AF0D7F804A979
:103FD000D4F8A800FFF744FB01468D480AF0CEF85C
:103FE00004A9D4F8AC00FFF73BFB014689480AF06E
:103FF000C5F8D4F8B0000021FDF740F8002840F0E3
:10400000448182480B210AF0B9F804A9D4F8B00021
:10401000FFF726FB01467E480AF0B0F804A9D4F861
:10402000B400FFF71DFB014679480AF0A7F804A980
:10403000D4F8B800FFF714FB014675480AF09EF863
:1040400004A9D4F8BC00FFF70BFB014671480AF045
:1040500095F8D4F8C0000021FDF710F8002840F0D2
:104060007B816A480C210AF089F804A9D4F8C000C1
:10407000FFF7F6FA014666480AF080F804A9D4F87A
:10408000C400FFF7EDFA014661480AF077F804A989
:10409000D4F8C800FFF7E4FA01465D480AF06EF86C
:1040A00004A9D4F8CC00FFF7DBFA014659480AF01E
:1040B00065F80C25584E00207169FCF743FD04EBB0
:1040C0000514A71B103FB169C7F3001A074600206B
:1040D000FCF738FDF16980460020FCF733FD06F15E
:1040E0001005A542814639D0BAF1000F12D0696996
:1040F0003846FCF727FDA96907464046FCF722FD34
:10410000E96980464846FCF71DFD06F12005A542F9
:10411000814623D069693846FCF714FDA969074632
:104120004046FCF70FFDE96980464846FCF70AFD6A
:1041300005F11006716905463846FCF703FDB169C3
:1041400007464046FCF7FEFCF16980462846FCF72E
:10415000F9FC06F11005A5428146DBD12F48CDF8C8
:104160000880CDF80C9004F059F84DF20A7127F050
:104170000040C3F62341FCF7A9FF294B294A002838
:1041800014BF1046184604F049F802984DF20A711F
:10419000C3F6234120F00040FCF798FF214D204C4E
:1041A000002814BF2846204604F038F8039B4DF23F
:1041B0000A71C3F6234123F00040FCF787FF002873
:1041C00014BF2846204604F029F8174804F026F8C2
:1041D00019E02046154905220FF0FEFF002827D1DF
:1041E0000D480023036103620363036403650366F0
:1041F0000367C0F88030C0F89030C0F8A030C0F835
:10420000B030C0F8C03008B0BDE8F087404C0108BD
:10421000484C0108EC4B0108C80E00204C4C01082A
:104220000C4C0108104C0108484A01085C4C01087C
:104230002046504904220FF0CFFF05462046002DAE
:1042400033D120210FF0BCFE0028DCD0471C3846BB
:104250000FF092FF484E5FFA80F8484C03E056F8A2
:10426000044F0135ECB12146384642460FF0B4FF09
:104270000028F4D1284607F061F84148214609F0AA
:104280007DFF4048FFF7DEFCBDE70A2500210391D2
:104290000291002D7FF40EAF3B4803F0BFFF3B4877
:1042A00071E73B4803F0BAFFADE70FF083FC451E12
:1042B0000B2D064652DC204620210FF081FE0446DD
:1042C000002850D0441C2046FEF70AFC314B360132
:1042D00098510126204620210FF072FE044640B17D
:1042E000441C2046FEF7FCFB2A49013601EB05126F
:1042F0005061204620210FF063FE044640B1441C6B
:104300002046FEF7EDFB234B013603EB05118861D8
:10431000204620210FF054FE40B10130FEF7E0FBB3
:104320001C4A032E02EB0515E8611ED01A4803F063
:1043300075FF68E70125A9E70225A7E70325A5E79B
:104340000425A3E70525A1E706259FE707259DE7A7
:1043500008259BE7092599E70B2597E70F480C21CE
:1043600009F00CFF4FE70646B4E70648FFF76AFC82
:1043700049E700BF644C0108A44501085C4A0108F4
:104380006C4C0108244B01084C4C01080C4C0108F2
:10439000884A0108C80E0020804C0108BC4C010866
:1043A0002DE9F04FDFF8508287B098F80030002BED
:1043B00000F0F680834800F1040A03F0E7FE0028CD
:1043C00071D003F003FF0928034614D03F2812D010
:1043D0007D4C2268002A75D00C2800F0CF800A2B73
:1043E00000F08F800D2B00F08C807F2B00F0CF80B1
:1043F0002F2AE2D86DE0744D744C2E6800273246A7
:1044000004F1A80B3E469146002A4FD12746002EC4
:1044100056D00C345C45F7D34846B1460646B9F150
:10442000000F18D0D9F800003968835C8C5C8018C4
:104430009C4211440FD1DFF8A0E113B95BE0002BDF
:1044400059D00EF8023010F8013F11F8014F013237
:10445000A342F4D02A6012B1B94500F096805C48BE
:1044600003F0DCFE4F4528BF4C4608D354F80C0B34
:1044700003F0D4FE092003F0B9FEBC42F6D955483A
:10448000002603F0CBFE2A683446B24295D9524E3C
:10449000305D03F0ABFE2A6801349442F8D303F098
:1044A00075FE00288DD107B0BDE8F08F21684A481D
:1044B0000FF092FE2A680028ABD12746002EA8D123
:1044C0002646A6E7042879D00C2857D07F2B3FF446
:1044D00074AF1F2B7FF671AF7E2B3FF66EAF12B914
:1044E000202B3FF46AAF3C4D511C1846AB54216061
:1044F00003F07CFE61E720230EF8023001322A60CF
:10450000A9E7364803F08AFE334D27683448002671
:1045100000902E49EE5503A80E220C230395049615
:104520000FF04CFB0746002844D000680FF024FE33
:10453000421CBB68A81898472A4900200A4698F8E8
:10454000006042F8040B286002F1080741F8180CDB
:10455000CAF8000041F8100C41F80C0C41F8080CA6
:1045600041F8040C0D1F486050609060D0602060DE
:10457000002E98D0174803F051FE1EE71A4803F0AA
:104580004DFE144803F04AFE17E734467DE7124B10
:10459000013A002115482260995403F03FFE0CE7D0
:1045A0000121134888F8001003F038FE094803F091
:1045B00035FEFFE60F4803F031FEBDE70648FEF783
:1045C0002DFF70E7B8050020E4050020F045010844
:1045D000244D01081C4D0108B4050020484A01087B
:1045E0001D300008D00500202C4D01085C4D01084D
:1045F000E44C0108384D0108E40D002010B44FF4DC
:104600007C43C0F601031978322902D0002010BC87
:1046100070475A88B2F54C7FF8D11879BE28F5D189
:1046200093F82C33EF2BF1D14FF60143C0F6010381
:104630004FF62F741878C0F6010404E058785A1C1D
:10464000414050780233A34281EA0001F6D1D1F112
:10465000010038BF0020DAE7F8B50178054679B1E6
:10466000084F094E044607480FF0AAFCC31B621B03
:10467000F11808B181F8022114F8011F0029F2D1C4
:10468000F8BD00BFA85D0108C80E00202DE9F04F5D
:1046900087B0FFF7B3FF002800F0D882ED4D4FF44C
:1046A0007C412846C0F601014FF44C720FF01EFB0E
:1046B00095F82033022B02D9002385F82033AC2251
:1046C00002FB0351DFF898B301F58E7158460FF0E5
:1046D0000DFB9BF81F006FF0140909FB00F4C0EB01
:1046E0000078C0EB407C4FEA08169BF81E20C0EB18
:1046F000CC07A0EB800A06F6C41000EB40084FEA96
:10470000CA0304F6C41102FB08F807F6C41403F642
:10471000C41A4FEA41090AFB02FA4FEA840C43F239
:10472000D40602FB09F902FB0CFC06FB02F748F673
:10473000AD32C6F6DB0282FB081482FB0A0682FB5E
:10474000071702944FEAEA7A82FB0C149BF8203098
:10475000CAEBA62A029E82FB09104FEAE878C8EB52
:10476000A6280497B5F8D0205F42B5F8D250BFB262
:10477000CDF80880DDF81080039405950197C3F10A
:1047800064054FEAE979B44CC9EBA0294FEA9827B0
:104790000398DDF8048000954FEAEC7C009DCCEB9B
:1047A000A02CA4F802A00FFA88F0A4F804909BF8BB
:1047B000211003EB8306DDF808A0DDF814904FF01C
:1047C0000008EDB276000028A4F800806781A4F804
:1047D00006A0A4F808C0C1F16407C2EB090405FBF8
:1047E00005F503FB03F840F37882AA4600FB00FCC2
:1047F00001FB0CF999FBFAFE0EEB070A0AFB00F02D
:1048000046F2676CC6F2666C8CFB009EC017C0EB6C
:10481000AE0906EB090A0FFA8AFC04FB0CFE44F60B
:10482000D350C1F2620080FB0E0AC3F10A094FEABD
:10483000EE7C1FFA89F9CCEBAA1E88480FFA89FC96
:1048400002EB0E0ABCF1000FA0F800A040F33E827C
:10485000AE460CFB0CF901FB09FA9AFBFEFE0EEBCF
:10486000070909FB0CFC46F2676AC6F2666A8AFB16
:104870000CAE4FEAEC79C9EBAE0C06EB0C0A0FFA62
:104880008AFE04FB0EFC44F6D359C1F2620989FB8F
:104890000C9A4FEAEC7EC3F1140C1FFA8CF9CEEBA4
:1048A000AA1A0FFA89FC02EB0A0EBCF1000FA0F85D
:1048B00002E040F30482A9460CFB0CFA01FB0AFE5D
:1048C0009EFBF9F909EB070A0AFB0CFC46F2676E3E
:1048D000C6F2666E8EFB0CA94FEAEC7ACAEBA90C05
:1048E00006EB0C0E0FFA8EF904FB09FC44F6D35AC2
:1048F000C1F2620A8AFB0C9E4FEAEC7CC3F11E09EE
:10490000CCEBAE1A1FFA89FE0FFA8EFC02EB0A09F5
:10491000BCF1000FA0F8049040F3CA81AE460CFB36
:104920000CFA01FB0AF999FBFEFE0EEB070A0AFBE3
:104930000CFC46F26769C6F2666989FB0CAE4FEA69
:10494000EC7ACAEBAE0C06EB0C090FFA89FE04FBFD
:104950000EFC44F6D35AC1F2620A8AFB0C9E4FEA5F
:10496000EC7CC3F12809CCEBAE1A1FFA89FE0FFAD2
:104970008EFC02EB0A09BCF1000FA0F8069040F390
:104980009081AE460CFB0CFA01FB0AF999FBFEFE86
:104990000EEB070A0AFB0CFC46F26769C6F2666971
:1049A00089FB0CAE4FEAEC7ACAEBAE0C06EB0C09B5
:1049B0000FFA89FE04FB0EFC44F6D35AC1F2620AD8
:1049C0008AFB0C9E4FEAEC7CC3F13209CCEBAE1AA9
:1049D0001FFA89FE0FFA8EFC02EB0A09BCF1000FE8
:1049E000A0F8089040F35681AE460CFB0CFA01FB90
:1049F0000AF999FBFEFE0EEB070A0AFB0CFC46F2D5
:104A00006769C6F2666989FB0CAE4FEAEC7ACAEBBD
:104A1000AE0C06EB0C090FFA89FE04FB0EFC44F603
:104A2000D35AC1F2620A8AFB0C9E4FEAEC7CC3F1B6
:104A30003C09CCEBAE1A1FFA89FE0FFA8EFC02EB92
:104A40000A09BCF1000FA0F80A9040F31C81AE46A1
:104A500008E000BFC80E0020C81600204416002041
:104A60001C0E00200CFB0CFA01FB0AF999FBFEFE60
:104A70000EEB070A0AFB0CFC46F26769C6F2666990
:104A800089FB0CAE4FEAEC7ACAEBAE0C06EB0C09D4
:104A90000FFA89FE04FB0EFC44F6D35AC1F2620AF7
:104AA0008AFB0C9E4FEAEC7CC3F14609CCEBAE1AB4
:104AB0001FFA89FE0FFA8EFC02EB0A09BCF1000F07
:104AC000A0F80C9040F3D880AE460CFB0CFA01FB2A
:104AD0000AF999FBFEFE0EEB070A0AFB0CFC46F2F4
:104AE0006769C6F2666989FB0CAE4FEAEC7ACAEBDD
:104AF000AE0C06EB0C090FFA89FE04FB0EFC44F623
:104B0000D35AC1F2620A8AFB0C9E4FEAEC7CC3F1D5
:104B10005009CCEBAE1A1FFA89FE0FFA8EFC02EB9D
:104B20000A09BCF1000FA0F80E9040F39E80AE463B
:104B30000CFB0CFA01FB0AF999FBFEFE0EEB070ACF
:104B40000AFB0CFC46F26769C6F2666989FB0CAE8B
:104B50004FEAEC7ACAEBAE0C06EB0C090FFA89FEB1
:104B600004FB0EFC44F6D35AC1F2620A8AFB0CA97C
:104B7000C3F15A034FEAEC7E9BB2CEEBA91C0FFAAD
:104B800083FE02EB0C0ABEF1000FA0F810A067DD57
:104B90002B460EFB0EF901FB09FC9CFBF3F3DB1922
:104BA00003FB0EFA46F26763C6F2666383FB0A9361
:104BB0004FEAEA7ECEEBA303F3181BB204FB03F328
:104BC00044F6D359C1F2620989FB03ACDB17C3EB8E
:104BD000AC1A009B02EB0A0E1FFA83F90FFA89F355
:104BE000002BA0F812E035DD03FB03F801FB08F110
:104BF00091FBF5F5EF1907FB03F346F26761C6F287
:104C0000666181FB0351DB17C3EBA101761836B255
:104C100004FB06F444F6D353C1F2620383FB048120
:104C2000E417C4EBA114BBF86C30BBF86A1012197E
:104C30009942828205D32D48B0F86E308B4228BF4E
:104C40000B46ABF86A3007B0BDE8F08F0A2003F0DE
:104C50005BF923E5B9F1000F14BF45460125C3E711
:104C6000002B14BF4346012393E7BEF1000F14BF8E
:104C7000C6464FF0010E5BE7BEF1000F14BFC646FB
:104C80004FF0010E21E7BEF1000F14BFC6464FF0F2
:104C9000010EE7E6BEF1000F14BFC6464FF0010E4D
:104CA000A3E6BEF1000F14BFC6464FF0010E69E641
:104CB000BEF1000F14BFC6464FF0010E2FE6B9F14A
:104CC000000F14BFC1464FF00109F5E5B9F1000F1F
:104CD00014BFC6464FF0010EBBE5DDF804E0BEF19F
:104CE000000F14BFC2464FF0010A7FE51C0E0020E2
:104CF0002DE9F8433E4D322306464FF44C702B709D
:104D00006880BE22EF2300202A7185F82C3385F8B5
:104D10002D0349B195F82013AC2202FB015335490C
:104D200003F58E700EF0E2FF33483221A0F22E33ED
:104D30001A7804E05C785A1C52786140023383424E
:104D400081EA0201F6D14FF6307885F82D134FF045
:104D50000309C0F60108FCF761FD3420FCF778FD7B
:104D60004FF47C40C0F60100FCF7E2FD04282DD191
:104D70004FF47C44C0F6010406E00968FCF7A4FD8A
:104D8000042814D1444521D0621902F17843A3F5D7
:104D9000FE3120460968FCF797FD271DEA1902F14C
:104DA000784308340428A3F5FE313846E5D0FCF7F3
:104DB00045FDB9F10109CED1FCF740FD0A2003F011
:104DC000A3F8FFF763FC5EB9BDE8F883FCF736FD96
:104DD000FFF714FC0028F1D0FFF758FC002EF3D0A9
:104DE0000F2014210122BDE8F84306F0E3BF00BF05
:104DF000C80E00201C0E0020F71100202DE9F04FF6
:104E000085B00446FFF7FAFB10B1002C00F0448196
:104E1000A34EA44D30687168A34C01AB03C34FF49B
:104E20004C720021284696F808900FF00DF8AC223D
:104E3000002120460FF008F801AA03CAC5F8DE10C9
:104E4000032169710221A9604FF41671A5F8E610DB
:104E5000FA21A5F8E8104FF48071A5F8E41020219C
:104E600085F8F0106E2185F8FE102B2185F8FF10D3
:104E7000212185F8001140F24C41A5F80E1101F5F1
:104E80004871A5F8101140F27E41A5F8D01001F547
:104E90002F71A5F8D2104FF47A71A5F8D4104FF401
:104EA000C871A5F8D61040F6C411A9812821217037
:104EB0001E21A1722821617041F2034A1E2140F295
:104EC000DC5732234FF4E13C4FF0170EE172C0F291
:104ED000140A5521C5F814C1C5F818C184F814E0A6
:104EE00084F815E0C5F8DA002B7085F8E290C5F873
:104EF000ECA0A5F8D830A5F80C71A1704021E170A4
:104F00001921617318212D26E1750B21267321715A
:104F1000667614210E265A226171A6710821502648
:104F2000E173A6761421E2712826A277412221742A
:104F300026726421E27749F69A1642F6F6024FF09D
:104F40000A08E17684F82030042184F82E30C3F674
:104F50007C7215235548C3F6197684F82C1084F812
:104F60002F302663626384F8118084F82D804FF41B
:104F7000966BFFF771FB4FF47F7C4FF4FA6E0126BE
:104F80004FF000094FF0C80AA4F866B0A4F86CC04E
:104F9000A4F86EE0A4F870C0A4F874E0A4F876C099
:104FA000A4F87AE0A4F894C0A4F896E0A4F89AC013
:104FB000A4F89CE0A4F86A704FF01E0EA4F872707A
:104FC000A4F87870A4F89870A4F89E704FF0FF0BC6
:104FD00014274FF0280C84F8A3E084F8636084F869
:104FE000686084F88C6084F88E6084F88F6084F840
:104FF000926084F862C084F8A27084F865A084F896
:105000008DB0A4F8A0A084F8609084F8619084F832
:10501000648084F8908084F891804FF0000C84F8CC
:10502000A46064260023C4F2A00C2146AC22A4F89C
:10503000A66005F58E704FF496762827C5F824C330
:10504000C5F828C32B612B622B632B642B652B6661
:105050002B67C5F88030C5F89030C5F8A030C5F88A
:10506000B030C5F8C030A4F8A860A4F8AA700EF05B
:105070003DFE2146AC2205F5E4700EF037FE2146D8
:1050800005F51D70AC220EF031FE4846494605B0CC
:10509000BDE8F04FFFF72CBE05B0BDE8F08F00BFB4
:1050A0002C450108C80E00201C0E0020B45D01082C
:1050B00040F2E853C2F20003196808420CBF002016
:1050C0000120704740F2E853C2F200031A6810430F
:1050D0001860704740F2E853C2F200031A6822EAEF
:1050E00000001860704700BF40F2E853C2F20003AE
:1050F0001868704740F6C863C2F200039968084216
:105100000CBF00200120704740F6C863C2F20003C4
:105110009A6810439860704740F6C863C2F2000373
:105120009A6822EA00009860704700BF40F6C863A2
:10513000C2F20003986870472DE9F0410778804675
:10514000082090B00037C4F2020018BF0127FCF716
:105150001FFA42F24C434F48C4F201030022FCB252
:10516000059306900792002C00F08E80022508958A
:10517000099280264FF48073082000254FF4806246
:10518000C4F2020005A90A960B9320264FF400539F
:105190000C920D960E930F95FCF7A6FA0820C4F218
:1051A00002000121FCF7C2FA01264FF460200095AD
:1051B0008DF804708DF8056002900395002C50D096
:1051C0004FF4105002246946C4F201008DF81040DB
:1051D000FCF73AF94FF410503246C4F201000421B2
:1051E0000323FCF789F94FF41050C4F2010098F83A
:1051F000001022460323FCF77FF94FF41050C4F24D
:1052000001000121FCF750F94FF41050C4F20100E5
:105210000121FCF73FF94FF41050C4F20100FCF7F4
:105220004DF94FF41050C4F20100FCF74DF900287D
:10523000F7D14FF41050C4F20100FCF749F94FF4D4
:105240001050C4F20100FCF749F90028F7D14FF4DF
:105250001050C4F201000121FCF744F910B0BDE880
:10526000F0814FF410506946C4F201008DF81060CF
:10527000FCF7EAF84FF41050C4F201000421324662
:105280000323FCF739F9B8E7012108910994264670
:1052900070E700BFEC05002040F2EC53C2F20003BF
:1052A00033F8100080B27047704700BF2DE9F04F0F
:1052B000534B87B01A78029032215320002A7FD0B6
:1052C000082204AB01F086FA9DF810109DF81340F7
:1052D0009DF812209DF815509DF811609DF814005E
:1052E0009DF8173001EB062602EB042100EB0522A6
:1052F000012415B25A060FFA86FB0FFA81FA50D034
:105300003221082204AB532001F064FA671C9DF897
:105310001560FCB29DF813C09DF81270019607EB62
:105320000C279DF81190DDF804C09DF810809DF8C1
:105330001460601C06EB0C2608EB09289DF817C0CA
:1053400036B203903221532008220FFA88F83FB278
:10535000202C354404ABC344BA440CF07F0620D063
:10536000FEB1039C01F036FA9DF814309DF815202B
:105370009DF812109DF811709DF810009DF81360B3
:1053800003EB02229DF8173001EB062600EB072005
:1053900031B200B216B25B06E4B283448A443544AB
:1053A000AED1029E17489BFBF4F29AFBF4F395FBF7
:1053B000F4F532807380B580047007B0BDE8F08FDB
:1053C000062204AB01F006FA9DF811509DF810106A
:1053D0009DF813409DF812209DF815009DF814309B
:1053E000DDF808C001EB052102EB042203EB0020ED
:1053F000ACF80010ACF80220ACF80400DDE700BF08
:10540000F0050020F105002008B5144B2D211B7874
:105410000822532083B901F0D9FA31210A225320FE
:1054200001F0D4FA53202C210D2201F0CFFA0C48C0
:1054300040F20912028008BD01F0C8FA31210A22A7
:10544000532001F0C3FA2C210C22532001F0BEFAA4
:1054500038219022532001F0B9FAE8E7F005002046
:105460004E00002070B582B0002402AB06460D4607
:1054700003F8014D53202146012201F0ABF920B180
:105480009DF80730E52B02D0204602B070BD32787F
:10549000044805490270054B054A29606B60AA6003
:1054A0000120F2E7F005002009540008AD52000881
:1054B000A95200083B4B3C4A2DE9F00115885C8954
:1054C0001E892F1B06FB07F7B3F91250B3F91420FE
:1054D000FC13A718EE0296FBF7F56219A2F57A64A1
:1054E00004FB04F6B3F902C0B3F90E8035130CFBCC
:1054F00004F708FB05F84FEAE72CB3F900700CEB52
:10550000E828B3F9206008EB870707FA06F84CF2A1
:10551000503747FA06F6B3F90CC0B3F904700CFB28
:1055200005F507FB04F42F14204D07EB6434A71C8A
:10553000D5F800C0BC1008F10205DF88ACEBA5056A
:1055400004F5004406FB05F607FB04F402EB8205B4
:105550006D000835DA612D11E20B002E1DDB7400A1
:10556000B4FBF2F31E1206FB06F64EF24332CFF600
:10557000FF7202FB03F440F6DE3202FB06F2241453
:1055800004EB224202F6CF6203EB221300B1036068
:1055900001B10D60BDE8F0017047B6FBF2F35B00AE
:1055A000E0E700BFF8050020220600201C060020CE
:1055B00000B5114B83B0187818B910490A88531CEC
:1055C0000B80F621032201AB772001F003F99DF84F
:1055D00005100B4B9DF804000A02B3F920309DF82A
:1055E000061042EA00400843C3F1080220FA02F024
:1055F0000449086003B000BDF2050020F405002056
:10560000F80500201C06002000B50C4B83B018786C
:1056100018B90B490A88531C0B80F621022201ABF2
:10562000772001F0D7F89DF804009DF80510054B90
:1056300041EA00221A8003B000BD00BFF20500203D
:10564000F40500202206002040F2F853C2F20003C5
:1056500093F8202010B49401343440F2F253C2F293
:10566000000304F0FC0277200024F4211C7010BC1D
:1056700001F0ACB910B440F2F253C2F200030024BE
:105680007720F4212E221C7010BC01F09FB900BFBE
:1056900010B54FF48040FCF7ABF80128044600D069
:1056A00010BD4FF48040FCF7B3F8014B1C7010BDE7
:1056B000F20500202DE9F04F864CA1B094F800804F
:1056C0000746B8F1000F03D0012021B0BDE8F08FEC
:1056D0004FF48059C4F20109102302254FF4005AF7
:1056E000484616A98DF85B304FF480468DF85A5025
:1056F000ADF858A0FCF73CF90422484616A98DF8ED
:105700005B20ADF85860FCF733F90E212846C9F844
:1057100010A0FCF7ADFA0125082118A88DF8651036
:1057200018968DF864800F268DF86650FCF722F8E5
:10573000282317A88DF85C308DF85D608DF85E60C9
:105740008DF85F50FBF742FE142002F00DFB77202E
:10575000D0212A460DF1570301F03CF89DF857007F
:105760005D4E03225528F075328403D0C9F814A089
:105770004046AAE7D1212A460DF15703772001F0D0
:1057800029F89DF85710162201F00F0C4FEA111E50
:105790001AABAA21772086F818C086F819E001F024
:1057A00019F89DF870309DF8698009939DF8713063
:1057B0009DF86AC00A939DF872309DF86CB00B9307
:1057C0009DF873309DF86DA00C939DF874309DF892
:1057D00068900D939DF875309DF86B000E939DF8C1
:1057E00076309DF86F100F939DF877309DF86E20FE
:1057F00010939DF8783048EA092911939DF8793083
:105800004AEA0B2803939DF87A3040EA0C20129361
:105810009DF87B3041EA022202939DF87C3013937D
:105820009DF87D30DDF828C0DDF824B00193CDF877
:105830001490069007924CEA0B29DDF830A00B99E2
:105840000E9B0D98109ADDF83CB0CDF8108043EA1D
:10585000002C4AEA012842EA0B20DDF80CA0029B4A
:10586000DDF848B0119943EA0B224AEA0121DDF83C
:1058700004B0DDF84CA031824BEA0A23DDF814B005
:10588000DDF818A0A6F800B0A6F802A0DDF810B068
:10589000DDF81CA041F27071F081A6F804B0A6F802
:1058A00006A0A6F80890A6F80A80A6F80CC0728296
:1058B000B3823980094B0A4946F678127A807B60B8
:1058C000B960084A084B094928462570FA603B61CF
:1058D0007961FAE620060020F805002075560008D8
:1058E0000956000849560008B1550008B55400088B
:1058F00008B5144B4FF44060C4F201001988FCF75E
:1059000071F9C8B902F0D4F90F490B6898420DD962
:1059100043F6BF42C01AC2F2B62282FB00120B4904
:10592000C317C3EBE202086893B20380084800681B
:10593000BDE80840FBF76CBF02F0BAF90249086005
:10594000F4E700BF2C0600202806002034060020C3
:1059500030060020FFF7CCBFFFF7CABF2DE9F041AA
:10596000DFF8F48084B0002855D1364C364F374EDE
:1059700037494FF400704FF48073092217250B80CC
:10598000A8F8000020603A7035704FF44060102590
:10599000C4F2010001A9ADF8043002238DF80630ED
:1059A0008DF80750FBF7E4FFB8F800204FF4406093
:1059B0000423C4F2010001A98DF80730ADF80420DA
:1059C000FBF7D6FF39780120FCF752F92068FBF786
:1059D0001FFF21680022012402A802918DF80C20EB
:1059E0008DF80E408DF80D50FBF7C4FE30784FF463
:1059F000614300F01F0104FA01F442B2CEF2000349
:105A0000500943F8204002F073F9124B3C381860FB
:105A100004B0BDE8F081012805D00D4B094C1B886E
:105A2000094F0A4EB1E7074C074F084E084A0221BA
:105A300007251080A8F800102160387035700346E3
:105A4000A3E700BF300600202F0600202E0600200E
:105A500038060020240600202C06002038B5044615
:105A600002F046F90E4B024619683C31884200D2DA
:105A700038BD0C4D1A604FF440600B4A2988C4F2BF
:105A800001001460FCF7B4F80B2002F037F94FF472
:105A900040602988C4F20100BDE83840FCF7AAB88C
:105AA00024060020380600203406002000B583B00C
:105AB000002202AB03F8012D1E200A21012200F072
:105AC00089FE30B19DF80700B0F14803594251EB0F
:105AD000030003B000BD00BF70B582B004460321CF
