:020000040800F2
:1000000000500020ADE300085DE4000835B20008B0
:100010005DE400085DE400085DE400080000000005
:100020000000000000000000000000005DE4000887
:100030005DE40008000000005DE400084D8C00084D
:100040005DE400085DE400085DE400085DE400088C
:100050005DE400085DE400085DE4000885740008C4
:100060005DE400085DE400085DE400085DE400086C
:100070005DE400085DE40008D18E00085DE400083E
:100080005DE400085DE400085DE400085DE400084C
:100090005DE400085DE400085DE400088974000880
:1000A0005DE400085DE400085DE40008758A00086E
:1000B000CD8A0008D98A0008E58A0008C1790008BD
:1000C000617D0008C57900085D7D00085DE40008D9
:1000D0005DE400085DE40008B59100085DE40008F7
:1000E000357200085DE400085DE4000800000000CF
:1000F0000000000000000000000000000000000000
:0C01000000000000000000005FF808F1A3
:1001100010B540F26814C2F20004237863B940F2CB
:100120000000C0F2000028B140F2C450C0F6010047
:10013000AFF300800121217010BD00BF08B540F26F
:100140000003C0F200034BB140F2C45040F26C1106
:10015000C0F60100C2F20001AFF3008040F2681067
:10016000C2F20000016829B140F20003C0F20003AE
:1001700003B1984708BD00BF2DE9F04120F00045CC
:10018000B5F1A14F044606460EDBB5F1FF4F00F373
:10019000A480002840F6DB74C8BFC3F6C97440F3DE
:1001A000D9802046BDE8F0814FF6FF73C3F6DF63C8
:1001B0009D4200F3A780B5F1445FC0F295804FF0F7
:1001C000FF372146204603F037FB0146804603F007
:1001D00033FB46F6D711C3F68541054603F02CFBE9
:1001E0004DF65921C3F64B5103F01EFA294603F090
:1001F00023FB46F63531C3F6885103F015FA29463C
:1002000003F01AFB42F66E61C3F6BA5103F00CFA22
:10021000294603F011FB44F62511C3F6126103F0E1
:1002200003FA294603F008FB4AF6AB21C3F6AA619C
:1002300003F0FAF9414603F0FFFA4AF22121CBF626
:1002400015518046284603F0F7FA4FF26B11C3F6BA
:100250006E5103F0E7F9294603F0EEFA48F2957182
:10026000C3F69D5103F0DEF9294603F0E5FA48F69E
:100270003861C3F6E35103F0D5F9294603F0DCFAFF
:100280004CF6CD41C3F64C6103F0CCF9294603F09E
:10029000D3FA7B1C014651D04EF29045404603F004
:1002A000C3F9C0F60005214603F0C6FA05EB870343
:1002B000196903F0B7F9214603F0B4F9014655F87E
:1002C000270003F0AFF9002EB8BF00F10044FFF69D
:1002D00068AF04462046BDE8F081014603F0A4F96A
:1002E00004462046BDE8F0814FF2CA21C7F2491109
:1002F00003F09AF94FF07E5103F05AFC00283FF4C6
:100300005EAF4EE700F08CF84FF6FF73C3F69773BD
:100310009D424FF6FF7304461FDCC3F62F739D42C8
:100320003DDC0146002703F07FF94FF07E5103F0DA
:1003300079F94FF08041054620461FE0404603F022
:1003400073F9214603F078FA0146204603F06AF972
:10035000044626E7CBF6C97423E7C4F21B039D428B
:1003600014DC4FF07F51022703F05CF94FF07F510E
:100370000546204603F060FA4FF07E5103F054F931
:100380000146284603F00CFB04461AE700202146EC
:10039000CBF68070032703F003FB044611E74FF010
:1003A0007E51012703F03EF94FF07E51054620466D
:1003B000E4E700BF40F6D87320F00042C3F649736B
:1003C00001469A4200B583B015DDB2F1FF4F03DB61
:1003D00003F028F903B000BD694601F061FB00F0AD
:1003E00003020098012A10D0022A08D09AB9019974
:1003F00001F05AFDEEE7002101F056FDEAE7019910
:1004000001F052FD00F10040E4E7019902F03EF9ED
:1004100000F10040DEE70122019902F037F9D9E747
:1004200020F00040704700BF40F6D87320F0004233
:10043000C3F6497301469A4200B583B016DDB2F1A6
:10044000FF4F03DB03F0EEF803B000BD694601F097
:1004500027FB00F00300012815D002280BD0B8B903
:1004600000980122019902F011F9EDE70021002224
:1004700002F00CF9E8E700980122019902F006F970
:1004800000F10040E0E70098019901F00DFDDBE785
:100490000098019901F008FD00F10040D4E700BF89
:1004A0002DE9F04F8BB0994682468B46904600F07E
:1004B00037FA40F20004C2F2000494F9003001332C
:1004C00006460F4604D04046494602F06BF920B973
:1004D000304639460BB0BDE8F08F5046594602F021
:1004E00061F9054650BB404649460022002302F010
:1004F000EBFF0028ECD094F9003040F2A852C0F68F
:1005000001020895A3F1FF30CDE902AB4142CDE9EC
:10051000048941EB00010020022B14BF0B4641F07F
:10052000010301218DE806000021C3F6F071CDE939
:100530000601002B2DD0DDE90667C9E75046594674
:100540000022002302F0C0FF00282FD04046494679
:100550000022002302F0B8FF002862D094F90010B6
:1005600040F2A853C0F601030122CDE902AB8DE8A9
:100570000C00002300220893CDE904890023CDE973
:10058000062331B100230022C3F6F073CDE9062320
:10059000D1E7684602F050F900286FD0089B002B85
:1005A000C9D003F085FB089B0360C4E73046394699
:1005B00002F0F0F80546002865D0304639460022A2
:1005C000002302F081FF002882D05046594602F0F5
:1005D000E1F800283FF47CAF4046494602F0DAF8E3
:1005E00000283FF475AF94F9001040F2A85304229C
:1005F000C0F601038DE80C000023002208930023BD
:100600000229CDE902ABCDE90489CDE906236ED0FC
:10061000684602F011F9002869D0089B002B8AD0A7
:10062000BFE74046494602F0B5F800283FF450AF16
:10063000404649460022002302F050FF00283FF4C4
:1006400047AF237840F2A852C0F601020121CDE95C
:1006500002AB8DE806000022CDE904890892002B48
:1006600040D000200021022BCFF6F071CDE9060129
:1006700032D103F01DFB21230360CEE703F018FB0A
:10068000212303608AE75046594602F083F8002888
:1006900093D04046494602F07DF800288DD0304680
:1006A000394602F07FF838BB247840F2A853C0F6F0
:1006B0000103012208908DE80C00CDE902ABCDE9E1
:1006C00004897CB10020002102460B4602F0BEFDE9
:1006D000022CCDE90601CCD0684602F0ADF8002826
:1006E0009BD1C6E700220023CDE90623F4E703F0FF
:1006F000DFFA2223036090E794F9002040F2A85328
:100700000321C0F60103089550468DE80A005946BA
:10071000CDE902ABCDE90489E2B94FF6FF770022BB
:1007200000234FF06046C4F2EF77CDE9066702F090
:10073000D5FE002833D194F90030022B05D068464D
:1007400002F07AF800287FF429AF03F0B1FA2223EF
:10075000036023E70027002200230026C7F6F07776
:10076000CDE9066702F0BAFE0028E4D0002300229B
:10077000C3F6E0734046494602F03EFC06460F468B
:1007800002F062F832463B4602F09EFE0028D2D1CB
:1007900000230022CFF6F073CDE90623CBE7002338
:1007A0000022C3F6E0734046494602F025FC0646A7
:1007B0000F4602F049F832463B4602F085FE00281B
:1007C000B9D14FF6FF734FF06042CCF2EF73CDE931
:1007D0000623B0E770B58AB0064600F029FF40F264
:1007E0000004C2F2000494F900300133054603D03E
:1007F000304602F099F910B928460AB070BD30466B
:10080000FFF70EFE4FF07E5103F0D2F90028F3D02F
:1008100040F2AC533046C0F601030193012300932C
:100820000023089302F094FB024640F2B450C0F655
:1008300001000B46CDE90423CDE9022301F0FEFFC0
:1008400094F90030022BCDE906010BD0684601F087
:10085000F3FF38B1089B53B9DDE9060102F08EFEC3
:100860000546C9E703F024FA21230360F2E703F009
:100870001FFA089B0360EFE701F066B870B58AB015
:10088000064601F0B9FA40F20004C2F2000494F9FD
:1008900000300133054630D0304602F045F90028DB
:1008A0002BD03046002103F065F930B340F2B85345
:1008B0003046C0F6010301930123009300230893FF
:1008C00002F046FB2478CDE90401CDE90201BCB178
:1008D0000020002102460B4602F0B8FC022CCDE9B4
:1008E000060111D103F0E4F921230360089B8BB9C1
:1008F000DDE9060102F042FE054628460AB070BD59
:1009000000220023CDE90623684601F095FF002868
:10091000ECD1E7E703F0CCF9089B0360E8E700BF00
:100920002DE9F04F23F00044894654EA0201824643
:1009300091B094469B46104698464E46554600F068
:100940008780002229F00047C7F6F072CDF80890A2
:10095000974210DD07F1404707F5801C5CEA050C63
:1009600004BF4FF0000BC3F6F07B77D160465946C9
:1009700011B0BDE8F08F14BF00230123BAF1000FBE
:100980000CBF002103F001010029E3D19442E1DC16
:1009900014BF002101210491BCF1000F0CBF002104
:1009A00001F001010029D5D1B9F1000F5FDB0691FB
:1009B00090B9049A002A79D10022C3F6F0729442C9
:1009C00000F0B580B8F1804F00F00A840022C3F631
:1009D000E072904500F0F983504649460193CDF806
:1009E00000C001F0D3FE019BDDF800C004914DB9B9
:1009F000002F08BF43F00103002B73D1C3F6F0733F
:100A00009F426FD0F60F0699013E314300F08A8075
:100A10000023C4F2E0139C4240F3A2800023C4F2FE
:100A2000F0339C4240F346844FF6FF73C3F6EF73F6
:100A30009F4240F3DF83B8F1000F4FDD46A1D1E9BB
:100A4000000102460B4602F0D7FA84468B468DE73A
:100A50004FF0000B8C46C3F6F07B87E740F2B450B2
:100A6000C0F6010011B0BDE8F04F01F0E7BE4FF64F
:100A7000FF72C4F23F3294426BDC4FF6FF72C3F652
:100A8000EF72944293DD221540F213418A4240F303
:100A9000AD84C2F5866203322CFA02F101FA02F249
:100AA000624500F0BA840021069181E707F14043D6
:100AB00003F580132B4302BF4FF0000B9C46C3F697
:100AC000F07B3FF453AF4FF6FF73C3F6EF739F42D3
:100AD00040F3E883B8F1000FBFF648AF4FF0000CC9
:100AE000E34643E7B8F1000FC0F25A84DDF810B0D6
:100AF0008446029E002EBFF639AF07F14043069FA1
:100B000003F580131F4340F07F8462465B466046D6
:100B1000594602F0BDF802460B4602F097FB8446A8
:100B20008B4623E75046494652464B46F1E7B8F11B
:100B3000000FA4BFD446CB46BFF618AF00215246E3
:100B40000020C3F6F0714B4602F080FB84468B46D2
:100B50000CE7022206922BE79C7500883CE4377E66
:100B60000021B7F5801F10DA049D0023C4F2403342
:100B700000222946CDF800C002F03EFADDF800C0A0
:100B800004916FF03401049B1F4627F07F4349F620
:100B90008E024FEA275A23F47003C0F203020025A5
:100BA000AAF57E7A9342AAF1070A43F07E548A445A
:100BB00044F4E0042F460EDD4BF279620127C0F2C7
:100BC0000B024FF48025934205DD00250AF1010A4E
:100BD000A4F580142F464EF2B0410246C0F6000143
:100BE000234601EBC707CDE90823CDF800C0D7E9BC
:100BF0000001CDE90A0110462146DDE90A2302F091
:100C000047F8DDE90A23CDE90C01DDE9080102F02E
:100C100041F80B4600210246C3F6F071002002F0B5
:100C200015FBCDE90E01DDE90E23DDE90C0102F033
:100C3000E3F9631043F00053002203F50023CDE9EC
:100C400002010292DDE90289CDE90401002059196F
:100C500004460D4622462B464046494602F0CCF952
:100C600002460B46DDE90C0102F012F8DDE90A2329
:100C7000CDE90C012046294602F00AF802460B464F
:100C8000DDE9080102F004F802460B4640464946F9
:100C900002F0B2F902460B46DDE90C0101F0F8FF63
:100CA000DDE90E2302F0A8F9CDE90801DDE9040130
:100CB00002460B4602F0A0F902460B4604460D46DA
:100CC00002F09AF97AA3D3E90023CDE90A0120467C
:100CD000294602F091F978A3D3E9002301F0DAFF65
:100CE00022462B4602F088F975A3D3E9002301F0D0
:100CF000D1FF22462B4602F07FF973A3D3E90023EC
:100D000001F0C8FF22462B4602F076F970A3D3E922
:100D1000002301F0BFFF22462B4602F06DF96EA3BF
:100D2000D3E9002301F0B6FF02460B46DDE90A01D4
:100D300002F062F9DDE9042304460D4640464946C7
:100D400001F0A8FFDDE9082302F056F922462B4600
:100D500001F0A0FF42464B46CDE90A014046494614
:100D600002F04AF900220023C4F20803CDE90E0183
:100D700001F090FFDDE90A2301F08CFF029B404661
:100D80001C461A460D4649462B4602F035F92246C6
:100D90002B46CDE90C01DDE9080102F02DF9002315
:100DA0000022C4F20803804689462046294601F005
:100DB0006FFFDDE90E2301F06BFF02460B46DDE914
:100DC0000A0101F065FFDDE9042302F015F902468E
:100DD0000B464046494601F05DFF80468946424643
:100DE0004B46DDE90C0101F055FF029A10463CA389
:100DF000D3E9002304460D4602F0FEF83AA3D3E9F6
:100E00000023CDE904012046294602F0F5F8DDE98A
:100E10000C23CDE908012046294601F039FF02469E
:100E20000B464046494601F033FF31A3D3E9002386
:100E300002F0E2F802460B46DDE9080101F02AFF64
:100E4000D7E9042301F026FFCDE90801504602F05E
:100E50006DF8D7E90889DDE9082304460D46DDE988
:100E6000040101F017FF42464B4601F013FF2246F2
:100E70002B4601F00FFF029B224618462B460446E4
:100E80000D4601F005FF42464B4601F001FFDDE94A
:100E9000042301F0FDFE02460B46DDE9080101F0E6
:100EA000F7FECDE90401DDF800C025E0AFF30080D6
:100EB000EF4E454A287ECA3F65DBC9934A86CD3F3F
:100EC00001411DA96074D13F4D268F515555D53F25
:100ED000FFAB6FDBB66DDB3F033333333333E33FBD
:100EE000000000E009C7EE3FF5015B14E02F3EBEB5
:100EF000FD033ADC09C7EE3F069F60465946CDF830
:100F000000C07B1E002733434FF000060CBFCBF61A
:100F1000F077C3F6F077CDE9066766465F46CDE920
:100F2000026700270297DDE9026732463B4601F07F
:100F3000AFFE22462B4602F05FF8DDF800C0DDE987
:100F40000423804689466046594602F055F8024619
:100F50000B464046494601F09DFE22462B46CDE910
:100F600004013046394602F047F8804689464B4630
:100F7000DDE90401424601F08DFE4FF6FF73C4F235
:100F80008F03994282468B468C4640F35D8101F186
:100F90003F4303F5E003034340F00E8298A3D3E9F7
:100FA0000023DDE90401CDF800B001F073FE4246F4
:100FB0004B4604460D465046594601F069FE02462E
:100FC0000B462046294602F0A7FADDF800C00028AB
:100FD00040F0F2815D462B154FF48012A3F57E732D
:100FE0004FF6FF71063BC0F20F0142FA03F30024F3
:100FF0006344C3F30A5223F07F40A2F57E7620F4C7
:101000007000073EC2F5826241FA06F140F480109A
:1010100023EA0105D11CBCF1000F40FA01F1224680
:101020002B460291C0F200824046494601F030FE54
:10103000804689464246DDE904014B4601F02AFE1E
:10104000029E4FEA065C8B466FA3D3E90023002083
:101050005946CDF800C0044601F0CEFF5D46424639
:101060004B4682468B462046294601F011FE024639
:101070000B46DDE9040101F00BFE65A3D3E9002373
:1010800001F0BAFF64A3D3E9002306460F462046C9
:10109000294601F0B1FF02460B463046394601F0C1
:1010A000F9FD04460D4622462B465046594601F0AE
:1010B000F1FD52465B4606460F4601F0E9FD024649
:1010C0000B462046294601F0E3FD32463B4680466A
:1010D00089463046394601F08FFF51A3D3E90023FA
:1010E00004460D4601F088FF4FA3D3E9002301F029
:1010F000CFFD22462B4601F07FFF4DA3D3E900230D
:1011000001F0C8FD22462B4601F076FF4AA3D3E941
:10111000002301F0BDFD22462B4601F06DFF48A3E0
:10112000D3E9002301F0B6FD22462B4601F064FF0F
:1011300002460B463046394601F0AAFD04460D46EC
:1011400022462B463046394601F056FF00224FF02A
:10115000804382468B462046294601F099FD02468F
:101160000B465046594602F071F842464B4604463B
:101170000D463046394601F03FFF42464B4601F0EE
:1011800089FD02460B462046294601F081FD324684
:101190003B4601F07DFD0B4600210246C3F6F0718F
:1011A000002001F075FDDDF800C00CEB0103B3F584
:1011B000801FA8BF0246C0F23A81DDE9060101F0B6
:1011C0001BFF84468B46FFF7D1BB02980028FFF631
:1011D00003AC5046494611B0BDE8F04F00F04CB9A1
:1011E0005046494652464B4601F006FF84468B4620
:1011F000FFF7BCBBB8F1000FBFF670AC1EE400BF38
:10120000FE822B654715973C00000000432EE63F09
:10121000EF39FAFE422EE63F396CA80C615C20BE25
:10122000D0A4BE726937663EF16BD2C541BDBB3EEC
:101230002CDE25AF6A56113F93BDBE166CC1663FCA
:101240003E5555555555C53F4CF6FF3321F00045E9
:10125000C4F290039D4240F3BF804FF45053C3F655
:101260006F73CB1803430DD142464B46009101F0FA
:101270000FFDDDE9042302F045F9DDF800C0002888
:101280003FF4A9AE70A3D3E90023DDE9060101F024
:10129000B3FE6DA3D3E9002301F0AEFE84468B4676
:1012A000FFF764BBB8F1000FBFF618AC0BF1004BB1
:1012B000FFF75CBB4FF6FE73C3F6EF739F4299DDF9
:1012C0000023C3F6F0739F423FF7B5AB049D0023A4
:1012D0000022C3F6F0732946CDF800C001F0D8FC17
:1012E0005BA3D3E9002304460D4601F085FE5AA313
:1012F000D3E90023804689462046294601F07CFE3A
:1013000022462B46CDE902012046294601F074FE13
:1013100000230022C3F6D073CDE9040120462946FC
:1013200001F06AFE02460B464DA1D1E9000101F031
:10133000AFFC22462B46002401F05EFE0B46002146
:101340000246C3F6E071002001F0A2FC02460B4603
:10135000DDE9040101F050FE43A3D3E9002301F0CD
:101360004BFE02460B46DDE9020101F091FCCDE99E
:1013700002014046DDE90223494601F08BFC42466A
:101380004B4620460D4601F083FC02460B46DDE944
:10139000020101F07DFCDDF800C0CDE90401ABE500
:1013A00000210246C3F6F0710020049B01F04EFFBD
:1013B00084468B46FFF79DBB2DA3D3E90023DDE9CF
:1013C000060101F019FE2AA3D3E9002301F014FE5F
:1013D00084468B46FFF7CABA0023C3F6E0739D42EA
:1013E000D8BFDDF808C07FF72FAEF4E588B9C2F5A5
:1013F0008262033244FA02F101FA02F2A2421CD0E4
:1014000000200690FFF7D5BA069E012E7FF4AEAA03
:101410004CE700210691FFF7DFBA01F00102C2F1AB
:1014200002020692FFF7C4BA49420291FCE5029A11
:1014300001F0A2FA02460B46BFE601F00102C2F13A
:1014400002020692FFF7B5BA59F3F8C21F6EA50162
:10145000000000604715F73F44DF5DF80BAE543ED7
:10146000555555555555D53FFE822B654715F73FC8
:101470009C7500883CE4377E2DE9F843002425461E
:10148000C7F6F074C7F6F0750C40AC4206460F463E
:1014900089460B46024600F0AB8000297FDD091526
:1014A00000F08880A1F57E7C23F07F43C90723F4F8
:1014B0007003ACF1070C43F4801362D5D10F002701
:1014C00001EB43034FEA6C0C5200162438464FF4EC
:1014D00000114518D60F9D424FEA4202DEBFC5EB10
:1014E000030368187F184908013C06EB4303F0D159
:1014F0002026A0464FF00041984201EB08050EDB84
:10150000834214BF4FF000094FF0010995428CBF90
:101510004FF0000909F00109B9F1000F0ED005F0F4
:10152000004905EB0108B9F1004F23D081461B1A91
:10153000954288BF013B521B64184846D50F4908A5
:101540005200013E05EB4303D6D113431ED164087C
:101550007B10FA0703F17E5348BF44F0004403F5C3
:10156000C0034FEA0C5C0CEB0307264630463946B5
:10157000BDE8F883B8F1000FA8BF00F10109D6DA81
:10158000D4E7D10F520001EB430397E7611C1CBF66
:1015900004F001031C19DAD101373446D8E721F0F1
:1015A00000440443E2D0002936D1D30A153952054C
:1015B000002BFAD013F480102AD15B000130DC023A
:1015C000FBD5C0F10105C0F1200422FA04F4491949
:1015D0002343A1F57E7C824023F07F43C90723F497
:1015E0007003ACF1070C43F480133FF567AFC8E715
:1015F00002460B4601F000FD02460B4630463946D6
:1016000001F048FB06460F4630463946BDE8F883F0
:10161000202401250020D8E702460B4601F038FBC4
:1016200002460B4601F012FE06460F469EE700BF3B
:101630002DE9F04720F00045B5F17E5F04460646EF
:1016400000F0FD8000F3D580B5F17C5F10DAB5F1D4
:10165000485F80F20A814FF2CA21C7F2491101F0B6
:10166000E3FF4FF07E5102F0A3FA002840F0C8805B
:101670002046FEF7D5FE01464FF07E5001F0D2FF26
:101680004FF07C5102F0D8F84EF60871C3F6110104
:10169000044602F0D1F847F60471C3F64F2101F079
:1016A000C3FF214602F0C8F841F24611C3F62451A7
:1016B00001F0B8FF214602F0BFF840F6A821C3F6BA
:1016C0004E6101F0B1FF214602F0B6F84BF29001F5
:1016D000C3F6A66101F0A6FF214602F0ADF84AF676
:1016E000AB21C3F62A6101F09FFF214602F0A4F866
:1016F0004CF22E61C3F69D518146204602F09CF8C3
:1017000043F26131C3F6307101F08CFF214602F0E3
:1017100093F845F22D71C4F2010101F085FF2146D5
:1017200002F08AF84DF23911C4F2190101F07AFF82
:10173000214602F081F84FF07E5101F075FF80469E
:10174000204600F059FB49F69913C3F679739D4280
:10175000074658DC014620F47E6501F065FF4146EE
:1017600025F01F058246484602F01AF90146504608
:1017700002F062F829468046284602F05DF80146EC
:10178000204601F04FFF29460446384601F04CFF41
:101790000146204602F004F9014601F045FF0146EA
:1017A0004BF62E50CBF23B3001F03CFF0146404659
:1017B00001F038FF29460446284601F035FF01466E
:1017C00040F6DB70C3F6497001F02CFF014620465D
:1017D00001F028FF014640F6DB70C3F6497001F0C6
:1017E00021FF002ED4BF00F1004404462046BDE88E
:1017F000F087014601F016FF014602F0D1F80446D9
:101800002046BDE8F0874146484602F0C9F8014647
:10181000384602F011F8394601F006FF014601F0A2
:1018200003FF4BF62E51C3F23B3101F0FDFE0146A2
:1018300040F6DB70C3F6C97001F0F4FED1E740F664
:10184000DB71C3F6C97101F0F7FF4BF62E51CBF2F5
:101850003B310546204601F0EFFF0146284601F0E6
:10186000E3FE04462046BDE8F087014601F0E4FFB0
:101870004EF60871C3F61101054601F0DDFF47F68B
:101880000471C3F64F2101F0CFFE294601F0D4FFC9
:1018900041F24611C3F6245101F0C4FE294601F07D
:1018A000CBFF40F6A821C3F64E6101F0BDFE2946EC
:1018B00001F0C2FF4BF29001C3F6A66101F0B2FE47
:1018C000294601F0B9FF4AF6AB21C3F62A6101F0BF
:1018D000ABFE294601F0B0FF4CF22E61C3F69D51DC
:1018E0000646284601F0A8FF43F26131C3F6307185
:1018F00001F098FE294601F09FFF45F22D71C4F2D8
:10190000010101F091FE294601F096FF4DF23911D7
:10191000C4F2190101F086FE294601F08DFF4FF057
:101920007E5101F081FE0146304602F039F8014651
:10193000204601F081FF0146204601F075FE044675
:101940002046BDE8F08700BFF8B520F00044B4F1B0
:10195000FF4F21F00046D4BF00270127B6F1FF4F0B
:10196000C8BF47F001070346002F45D1B1F17E5FA4
:101970004CD08F1707F0020747EAD0774CB9022FF7
:101980003FD0032F03D140F6DB73CCF24903184656
:10199000F8BD36B3B6F1FF4F55D0B4F1FF4F20D0AC
:1019A000A41BE4153C2CC4BF40F6DB70C3F6C97021
:1019B00030DD012F08BF00F10043E8D0022F33D003
:1019C0000346002FE3D04BF62E51C3F2BB3101F09A
:1019D0002BFE40F6DB71C4F2490101F023FE034601
:1019E000D5E7002840F6DB73B8BFCBF6C973CEDB72
:1019F000C3F6C9731846F8BD01F016FE0346184633
:101A0000F8BD40F6DB73C4F24903C0E7BDE8F84017
:101A1000FEF7B2BB14F13C0FACBF0024012414EA62
:101A2000D1741DD00020C4E74BF62E51C3F2BB3158
:101A300001F0FAFD014640F6DB70C4F2490001F006
:101A4000F1FD0346A3E7B4F1FF4F10D0022FD8D029
:101A5000032F98D00023012F99D14FF0004396E730
:101A600001F09EFFFEF7DCFCFEF786FBA1E7022FEC
:101A700004BF4CF6E433C4F2160388D0032F04BF2E
:101A80004CF6E433CCF2160381D0012F40F6DB7321
:101A900018BFC3F649737FF47AAFCBF6497376E784
:101AA00040F6D8732DE9F04FC3F6497320F0004B90
:101AB00089B09B4505460C4640F38C804CF6E333D9
:101AC000C4F216039B4526DC00284FF47861C3F668
:101AD000C97140F3538101F0A5FD4FF47D632BF0F4
:101AE0000F0BC3F6C9739B45054600F0828044F294
:101AF00043410126C3F2357101F094FD0146206097
:101B0000284601F08FFD44F24341C3F2357101F0E4
:101B100089FD606062E04FF47863C4F249339B450D
:101B200040F38280BBF1FF4F5CDA4FEAEB59A9F139
:101B300086094FEAC953C3EB0B0B584602F042F833
:101B400001F026FE034601465846059301F06AFD62
:101B50004FF0874101F070FE064602F033F801F0C5
:101B600017FE014607463046069701F05BFD4FF031
:101B7000874101F061FE00210326079001F0F0FF8C
:101B800088B10326384600210DF11808013E01F006
:101B9000E7FF40B158F8047D0021013E384601F0CE
:101BA000DFFF0028F6D13346924E05A821464A466B
:101BB00001960226009600F053FA002D06460DDA33
:101BC00022684642636802F10042226003F100434A
:101BD000636003E00026002308604B60304609B0D4
:101BE000BDE8F08F0146002601F01CFD606020601A
:101BF000F4E74FF488410126C3F2357101F012FD7C
:101C00004AF20831C2F68561054601F00BFD014636
:101C10002060284601F006FD4AF20831C2F68561CF
:101C200001F000FD6060D9E7FEF7FAFB4FF6841182
:101C3000C3F62271074601F0FFFD4FF07C5101F021
:101C4000F3FC01F0BFFF064601F0A2FD4FF47861FE
:101C5000C3F6C971824601F0EFFD0146384601F036
:101C6000E1FC44F24341C3F235718046504601F035
:101C7000E3FD1F2E8146404621DC4EF2E043711EFB
:101C8000C0F600032BF0FF0253F821309A4216D021
:101C9000494601F0C7FC074620603946404601F03E
:101CA000C1FC494601F0BEFC002D606096DA07F1E8
:101CB000004700F100402760764260608EE74946A9
:101CC0004FEAEB5B01F0AEFCC0F3C7530746C3EB32
:101CD0000B032060082BE0DD4FF488415046C3F22F
:101CE000357101F0A9FD07464046394601F09AFCDE
:101CF00003904046039901F095FC394601F092FCAF
:101D00004AF20831C2F685610746504601F094FD5B
:101D1000394601F087FC81460398494601F082FC70
:101D2000C0F3C7530746C3EB0B0B2060BBF1190F81
:101D3000D8BFDDF80C80B0DD4FF423415046C2F629
:101D4000856101F079FD07460398394601F06AFC88
:101D500080460398414601F065FC394601F062FC7B
:101D600043F23211C2F28D410746504601F064FD44
:101D7000394601F057FC8146404689E701F054FCA2
:101D80004FF47D632BF00F0BC3F6C9739B450546DB
:101D900014D044F243414FF0FF36C3F2357101F0E5
:101DA00043FC01462060284601F03CFC44F24341DC
:101DB000C3F2357101F038FC60600FE74FF48841E1
:101DC0004FF0FF36C3F2357101F02EFC4AF20831B4
:101DD000C2F68561054601F027FC014620602846D1
:101DE00001F020FC4AF20831C2F6856101F01CFCCA
:101DF0006060F3E660E5000820F000420346B2F1BF
:101E0000FF4F70B5044639D2002A35D000283FDB99
:101E1000C115B2F5000F09D210F4000240D15B00E9
:101E200001321802FBD5C2F10102891823F07F4369
:101E3000A1F17F0223F40003D10743F4000348BF5C
:101E40005B000026541019215B0035464FF080726C
:101E5000A8189842DEBFC0EB03038518B6185208D5
:101E60005B000139F4D113B106F001039E1976101D
:101E7000E40506F17C56A419204670BD014601F028
:101E8000DBFC0146204601F0CFFB0446204670BD36
:101E9000014601F0C7FB014601F082FD0446EBE775
:101EA00001228918C2E700BF2DE9F84320F000465F
:101EB000B6F1485F05460F465BDA01F083FE002865
:101EC00000F0CA802946284601F0B6FC4DF24E715A
:101ED000CAF64751044601F0AFFC47F2F641C3F29F
:101EE0000F1101F0A1FB214601F0A6FC4FF27C216D
:101EF000C3F2934101F096FB214601F09DFC40F6B0
:101F00000151C3F2D07101F08FFB214601F094FC26
:101F100040F66131C3F6B62101F084FB214601F0A1
:101F20008BFC4AF6AB21C3F62A5101F07DFB21461A
:101F300001F082FC804620464FF07C5101F07CFC91
:101F400041460646204601F077FC394604462846BD
:101F500001F072FC0146204601F064FB0146304668
:101F600001F060FB01464FF07E5001F05BFBBDE8E5
:101F7000F883014601F060FC4DF24E71CAF64751FC
:101F8000044601F059FC47F2F641C3F20F1101F08B
:101F90004BFB214601F050FC4FF27C21C3F29341F0
:101FA00001F040FB214601F047FC40F60151C3F22D
:101FB000D07101F039FB214601F03EFC40F6613161
:101FC000C3F6B62101F02EFB214601F035FC4AF69E
:101FD000AB21C3F62A5101F027FB214601F02CFC6E
:101FE00049F69913C3F699639E428046A3DD002308
:101FF000C3F648739E4227DC06F17F464FF07E50C1
:10200000314601F00FFB814620464FF07C5101F034
:1020100013FC314601F006FB41460646204601F01E
:102020000BFC39460446284601F006FC01462046D2
:1020300001F0F8FA0146304601F0F4FA014648464C
:1020400001F0F0FABDE8F8834FF000090026C3F66E
:102050003879C3F69066D7E74FF07E50BDE8F88335
:102060002DE9F04F151DDDB0D41E58BF25464EF6A4
:1020700078040493013B0293ED10669BC0F60004C4
:1020800025EAE5750746099554F82340EB43089186
:1020900002EBC303029A07941619069315D401366E
:1020A000AD1A679B00240DF18008B60003EB85098B
:1020B0000020002D03DB59F8040001F069FB48F80B
:1020C000040004340135B442F2D1079C002C25DB16
:1020D000079A48ABDDF810A00DF58E7903EB820B63
:1020E0004FEA8A08029C0025002C11DB20A800245E
:1020F00000EB8A0600253859043456F8041D01F017
:102100009BFB0146284601F08FFA44450546F2D173
:1021100049F8045FD9450AF1010AE3D1079A0CABEB
:10212000DDF81C80013A0093C2460A9203EB820458
:102130000B944FEA8A025CACA318BAF1000F01922B
:1021400053F8504C22DD0DF590790BAE09EB0205EA
:102150004FF06E51204601F06FFB01F033FD01F0AE
:1021600017FB4FF08741804601F066FB0146204691
:1021700001F058FA01F026FD414646F8040F55F8E3
:10218000040D01F051FA4D450446E1D1069920466F
:1021900000F008FD4FF07851044601F04DFB00F0CF
:1021A00077FC4FF0824101F047FB0146204601F0E9
:1021B00039FA044601F006FD064601F0E9FA014647
:1021C000204601F02FFA069A002A054640F30681C0
:1021D0000AF1FF330CA8C2F10801C2F1070450F85C
:1021E000232042FA01F0361800FA01F1521A0CA924
:1021F00042FA04FB41F82320BBF1000F30DD013629
:102200000024BAF1000F17DD019C0CAB1919002452
:1022100007E022B10124C2F5807243F8042C8B42FE
:102220000AD053F8042B002CF3D001248B42C2F1C6
:10223000FF0243F8042CF4D1069A002A0DDD012A8E
:1022400000F0D580022A08D10AF1FF330CA951F819
:10225000232002F03F0241F82320BBF1020F6ED091
:102260002846002101F07CFC002800F08180079ABC
:102270000AF1FF34A2420FDC019A0CA88318079AD6
:1022800000EB8200002253F8041D834242EA01025F
:10229000F9D1002A40F0C3800A9C0CA850F82430E1
:1022A000002B40F0BA800B9A012352F8041D013331
:1022B0000029FAD053440AF10109994503933BDC04
:1022C000099C029AA244679C02EB090320AA04EB32
:1022D0008A0B049C013B059202EB830A4FEA8408B7
:1022E000019B48AAD21801925BF8040F002501F067
:1022F0004FFA029A002A4AF8040F14DB049B0025C7
:10230000059A002409EB030602EB860638590434CB
:1023100056F8041D01F090FA0146284601F084F9B0
:1023200044450546F2D1039C09F10109019BA145F1
:1023300043F8045F0193D7DDDDF80CA0F9E62946E8
:102340004FF07E5001F06EF90546002C88D00699BA
:102350004FF07E5000F026FC0146284601F062F95D
:1023600000210546284601F0FBFB00287FF47FAFE3
:102370000296D0460AF1FF34002851D1069B284628
:10238000594200F00FFC4FF08741044601F006FC73
:10239000002800F071814FF06E51204601F04CFA98
:1023A000069A0AF101080832069201F00BFC01F0CE
:1023B000EFF94FF08741054601F03EFA014620460D
:1023C00001F030F90CAC01F0FDFB0CAB43F82A0036
:1023D000284601F0F7FB44F8280034E011D10AF157
:1023E000FF330CAA52F823304FEA232B04E70AF1FB
:1023F000FF330CA850F8232002F07F0240F823207E
:102400002BE74FF07C514FF0000B01F0C7FB002889
:102410003FF426AF4FF0020BF1E601234AE70296A4
:102420000CA8069AA04650F82430083A069253B9F0
:1024300000EB8403A04653F8041D08F1FF38083A66
:102440000029F8D006924FF07E50069900F0AAFBC2
:10245000B8F1000F05464CDB08F101020CAB48A8AF
:10246000019296009C19861954F8040D01F090F918
:10247000294601F0E1F94FF06E5146F8040D284667
:1024800001F0DAF9009A94420546EDD148ABCDF857
:102490000C8003EB8809DFF8F0A1DDF81C80002731
:1024A000B8F1000FC0F2DA80002FC0F2D78000240C
:1024B0000026254601E0BD420EDC59F80410013526
:1024C0005AF80400043401F0B7F90146304601F02F
:1024D000ABF8A8450646EEDA5CAC019A04EB87033C
:1024E0000137BA42A9F1040943F8A06CD8D1DDF84C
:1024F0000C80669C032C14D8DFE804F098686819F7
:102500000020BBF1000F59D0089B00F10040089C4F
:10251000349A9860359B02F10042226003F1004337
:102520006360029A02F007005DB0BDE8F08FB8F179
:10253000000FC4BF34AD05EB8804E1DD54F8049C02
:1025400054F804794846394601F06EF80646484684
:10255000314601F067F80146384601F065F8AC42B3
:1025600026606060EAD1B8F1010FC9DD08F1FF34DF
:1025700005EB840454F80499A7684846394601F0ED
:1025800053F806464846314601F04CF801463846B5
:1025900001F04AF8AC426660A060EBD108F1010896
:1025A00004F10805002004EB880454F8041D01F030
:1025B0003BF8AC42F9D1BBF1000FA5D1089B089CB8
:1025C0009860349B2360359B6360AAE70020B8F1D4
:1025D000000F0BDB08F1010434AD002005EB84048F
:1025E00054F8041D01F020F8AC42F9D100F1004389
:1025F000BBF1000F00D10346089C014634982360CC
:1026000001F010F8B8F1000F08DD34AC04EB8808D5
:1026100054F8041F01F008F84445F9D1BBF1000F4C
:1026200001D000F10040089A50607AE70020B8F12C
:10263000000F0BDB08F1010434AD002005EB84042E
:1026400054F8041D00F0F0FFAC42F9D1BBF1000FCB
:1026500001D000F10040089A106062E75CAC019A7A
:1026600004EB870301370026BA42A9F1040943F8B5
:10267000A06C7FF415AF3AE7204601F0A3FA0CA94D
:1026800041F82A00DFE600BF84E800082DE9F8439E
:1026900020F00043B3F1485F04460D46904603DA4C
:1026A00001F090FA002859D02146204601F0C4F8E4
:1026B0002146064601F0C0F84CF6D311C2F62E7141
:1026C0000746304601F0B8F842F63471C3F2D7211C
:1026D00000F0A8FF314601F0AFF84EF61B71C3F2CF
:1026E000386100F0A1FF314601F0A6F840F6015133
:1026F000C3F6501100F096FF314601F09DF848F600
:102700008901C3F6084100F08FFF8146B8F1000F40
:1027100027D028464FF07C5101F08EF8494680467C
:10272000384601F089F80146404600F07BFF31460B
:1027300001F082F8294600F075FF4AF6AB21C3F696
:102740002A610546384601F077F80146284600F030
:102750006BFF0146204600F065FF04462046BDE8B9
:10276000F8830146304601F067F84AF6AB21C3F61C
:102770002A6100F057FF394601F05EF80146204615
:1027800000F052FF04462046BDE8F88321F00041E6
:10279000704700BF21F0004000F1004000F58010BC
:1027A000C00F70470B4650EA030110B402D102205B
:1027B00010BC7047D0F1010238BF0022B3F1004FC6
:1027C00014BF002102F001010029F0D14FF6FF7182
:1027D000A3F58010C7F6DF7103F1FE44884204F5CB
:1027E00070048CBF002001208C428CBF014640F059
:1027F000010109B10420DBE7B3F5801F03F10041BB
:102800002CBF00200120B1F5801F2CBF014640F0F5
:10281000010109B10320CBE713F5801FC7F6F07162
:1028200014BF002001208B4214BF034640F0010377
:1028300002EA0300BCE700BF00207047002100202F
:10284000C7F6F871704700BF2DE9F04FC1F30A5584
:10285000A5F57E76CF0F073E83B0132E80468946BE
:1028600002460B4639DC002E57DB4FF6FF71C0F2F3
:102870000F0141FA06F101EA090050EA080027D0E9
:10288000490801EA090050EA08020BD029EA0103CD
:102890004FF48021132E0CBF4FF00042002241FA6A
:1028A00006F633434EF6B004C0F6000404EBC70747
:1028B000D7E900452046294600F0ECF922462B4690
:1028C000CDE90001DDE9000100F0E2F9804689462A
:1028D0004046494603B0BDE8F08F332E09DDB6F51A
:1028E000806FF5D102460B4600F0D4F98046894648
:1028F000EEE7A5F582654FF0FF31033D21FA05F1C2
:102900000142E5D0490801421FBF20EA01024FF011
:10291000804141FA05F52A43C4E721F0004303430F
:10292000D6D021F07F434EF6B00123F47003C0F6F9
:10293000000143EA000201EBC70153424FEA594448
:102940001A43D1E900AB130B504603F4002342466F
:1029500043EA444959464B4600F09CF95B465246CF
:10296000CDE90001DDE9000100F092F921F000431A
:10297000804643EAC779ABE72DE9F843C1F30A572C
:1029800004460D4616460B46002F2DD121F000437C
:10299000034325D000230022C4F2503300F02CFB67
:1029A00043F6B043CFF6FF739E4204460D463EDB2E
:1029B000C1F30A5740F2FE72363F0B46BF199742E9
:1029C000C4BF22462B461BDD2DA1D1E9000100F03A
:1029D0004BF92BA3D3E9002300F00EFB04460D4670
:1029E00020462946BDE8F88340F2FF72974229D07D
:1029F00040F2FE72BF199742C4BF22462B46E3DC69
:102A0000002FC2BF23F0FE4323F4700343EA0755AF
:102A1000E6DC17F1350F1FDA4CF2503322469E42A6
:102A20002B46D1DC18A1D1E9000100F01DF916A355
:102A3000D3E9002300F0E0FA04460D46204629467B
:102A4000BDE8F88302460B4600F024F904460D4623
:102A500020462946BDE8F883363723F0FE4323F4A9
:102A60007003204643EA0755002329460022C3F697
:102A7000904300F0C1FA04460D46B1E7AFF3008081
:102A80009C7500883CE4377E59F3F8C21F6EA5019F
:102A90002DE9F04120F0004601460446F50D7F3D4A
:102AA000162D21DC002D804627DB4FF6FF77C0F284
:102AB0007F0747FA05F7074213D04FF2CA21C7F242
:102AC000491100F0B1FD002101F072F840B3002C73
:102AD000BEBF4FF4000343FA05F504EB050828EAEE
:102AE00007010846BDE8F081B6F1FF4FF9D300F0C9
:102AF0009BFD01460846BDE8F0814FF2CA21C7F2AE
:102B0000491100F091FD002101F052F840B100217F
:102B1000002CE6DACBF68071002E08BF2146E0E7F4
:102B200021460846BDE8F081D0F1010338BF0023FB
:102B3000B0F1004F08BF43F001030BB10220704712
:102B4000A0F5000200F1FF43B2F1FE4F2CBF0022BE
:102B50000122B3F1FE4F2CBF134642F001030BB12B
:102B6000042070474FF6FE73411EC0F27F0300F150
:102B70000042013A99428CBF002101219A428CBF48
:102B80000B4641F001030BB10320704710F5000F15
:102B900014BF00230123B0F1FF4F14BF184643F0C8
:102BA0000100704710B50C4630F000410346024664
:102BB00027D0B1F1FF4F26D2B1F5000F29D3C90DAF
:102BC0000919FE29C8BF194633DC0029C4BF22F009
:102BD000FF4242EAC15314DC11F1160F37DA4CF20E
:102BE00050321946944224DC44F26020C0F6A250D0
:102BF00000F044F844F26021C0F6A25100F01CFE3F
:102C00000346184610BD014600F00EFD0346184667
:102C100010BD4FF0984100F00FFE43F6B042CFF6E2
:102C2000FF7294420346E5DBC0F3C75102461939EF
:102C3000C6E74FF2CA20C7F2491000F01FF84FF262
:102C4000CA21C7F2491100F0F7FD0346D9E701F1A7
:102C5000190022F0FF424FF04C5142EAC05000F000
:102C6000EBFD0346CDE700BF03F0004321F0004237
:102C700030B443EA020130BC704700BF01F00041AC
:102C800020F000400843704781F0004102E000BF9F
:102C900083F0004330B54FEA41044FEA430594EA1C
:102CA000050F08BF90EA020F1FBF54EA000C55EA57
:102CB000020C7FEA645C7FEA655C00F0E2804FEA28
:102CC0005454D4EB5555B8BF6D420CDD2C4480EA0A
:102CD000020281EA030382EA000083EA010180EA3A
:102CE000020281EA0303362D88BF30BD11F0004F88
:102CF0004FEA01314FF4801C4CEA113102D04042BE
:102D000061EB410113F0004F4FEA03334CEA1333F8
:102D100002D0524263EB430394EA050F00F0A78010
:102D2000A4F10104D5F1200E0DDB02FA0EFC22FA0B
:102D300005F2801841F1000103FA0EF2801843FAFF
:102D400005F359410EE0A5F120050EF1200E012AF0
:102D500003FA0EFC28BF4CF0020C43FA05F3C0182E
:102D600051EBE37101F0004507D54FF0000EDCF1A7
:102D7000000C7EEB00006EEB0101B1F5801F1BD350
:102D8000B1F5001F0CD349085FEA30004FEA3C0C54
:102D900004F101044FEA445212F5800F80F09A804A
:102DA000BCF1004F08BF5FEA500C50F1000041EB4E
:102DB000045141EA050130BD5FEA4C0C404141EB52
:102DC000010111F4801FA4F10104E9D191F0000F79
:102DD00004BF01460020B1FA81F308BF2033A3F1FC
:102DE0000B03B3F120020CDA0C3208DD02F1140CF3
:102DF000C2F10C0201FA0CF021FA02F10CE002F12E
:102E00001402D8BFC2F1200C01FA02F120FA0CFC26
:102E1000DCBF41EA0C019040E41AA2BF01EB04516F
:102E2000294330BD6FEA04041F3C1CDA0C340EDC6D
:102E300004F11404C4F1200220FA04F001FA02F3B0
:102E400040EA030021FA04F345EA030130BDC4F16E
:102E50000C04C4F1200220FA02F001FA04F340EA63
:102E60000300294630BD21FA04F0294630BD94F014
:102E7000000F83F4801306BF81F480110134013DFB
:102E80004EE77FEA645C18BF7FEA655C29D094EA6C
:102E9000050F08BF90EA020F05D054EA000C04BFEA
:102EA0001946104630BD91EA030F1EBF00210020D5
:102EB00030BD5FEA545C05D14000494128BF41F074
:102EC000004130BD14F580043CBF01F5801130BDD8
:102ED00001F0004545F0FE4141F470014FF0000063
:102EE00030BD7FEA645C1ABF194610467FEA655C14
:102EF0001CBF0B46024650EA013406BF52EA0335B6
:102F000091EA030F41F4002130BD00BF90F0000FA3
:102F100004BF0021704730B54FF4806404F13204DF
:102F20004FF000054FF0000150E700BF90F0000F98
:102F300004BF0021704730B54FF4806404F13204BF
:102F400010F0004548BF40424FF000013EE700BF8F
:102F500042004FEAE2014FEA31014FEA02701FBF1F
:102F600012F07F4393F07F4F81F06051704792F0F1
:102F7000000F14BF93F07F4F704730B54FF460746B
:102F800001F0004521F0004120E700BF50EA0102B6
:102F900008BF704730B54FF000050AE050EA010263
:102FA00008BF704730B511F0004502D5404261EBD3
:102FB00041014FF4806404F132045FEA915C3FF414
:102FC000DCAE4FF003025FEADC0C18BF03325FEAAD
:102FD000DC0C18BF033202EBDC02C2F1200300FA62
:102FE00003FC20FA02F001FA03FE40EA0E0021FA87
:102FF00002F11444C1E600BF70B54FF0FF0C4CF471
:10300000E06C1CEA11541DBF1CEA135594EA0C0F26
:1030100095EA0C0F00F0DEF82C4481EA030621EA61
:103020004C5123EA4C5350EA013518BF52EA03359C
:1030300041F4801143F4801338D0A0FB02CE4FF04E
:103040000005E1FB02E506F00042E0FB03E54FF07E
:103050000006E1FB03569CF0000F18BF4EF0010E76
:10306000A4F1FF04B6F5007F64F5407404D25FEA72
:103070004E0E6D4146EB060642EAC62141EA555125
:103080004FEAC52040EA5E504FEACE2EB4F1FD0C67
:1030900088BFBCF5E06F1ED8BEF1004F08BF5FEAE5
:1030A000500E50F1000041EB045170BD06F0004697
:1030B00046EA010140EA020081EA0301B4EB5C0444
:1030C000C2BFD4EB0C0541EA045170BD41F480113C
:1030D0004FF0000E013C00F3AB8014F1360FDEBF61
:1030E000002001F0004170BDC4F10004203C35DA3D
:1030F0000C341BDC04F11404C4F1200500FA05F3C0
:1031000020FA04F001FA05F240EA020001F0004260
:1031100021F0004110EBD37021FA04F642EB0601D6
:103120005EEA430E08BF20EAD37070BDC4F10C0400
:10313000C4F1200500FA04F320FA05F001FA04F2C4
:1031400040EA020001F0004110EBD37041F10001B0
:103150005EEA430E08BF20EAD37070BDC4F12005BB
:1031600000FA05F24EEA020E20FA04F301FA05F223
:1031700043EA020321FA04F001F0004121FA04F2CB
:1031800020EA020000EBD3705EEA430E08BF20EA9B
:10319000D37070BD94F0000F0FD101F000464000D5
:1031A00041EB010111F4801F08BF013CF7D041EA57
:1031B000060195F0000F18BF704703F0004652005B
:1031C00043EB030313F4801F08BF013DF7D043EA2C
:1031D0000603704794EA0C0F0CEA135518BF95EAE2
:1031E0000C0F0CD050EA410618BF52EA4306D1D169
:1031F00081EA030101F000414FF0000070BD50EA88
:10320000410606BF1046194652EA430619D094EA11
:103210000C0F02D150EA013613D195EA0C0F05D1FB
:1032200052EA03361CBF104619460AD181EA03014F
:1032300001F0004141F0FE4141F470014FF0000007
:1032400070BD41F0FE4141F4780170BD70B54FF0A2
:10325000FF0C4CF4E06C1CEA11541DBF1CEA135522
:1032600094EA0C0F95EA0C0F00F0A7F8A4EB050404
:1032700081EA030E52EA03354FEA013100F08880FB
:103280004FEA03334FF0805545EA131343EA1263C4
:103290004FEA022245EA111545EA10654FEA002679
:1032A0000EF000419D4208BF964244F1FD0404F532
:1032B000407402D25B084FEA3202B61A65EB03058E
:1032C0005B084FEA32024FF480104FF4002CB6EB4B
:1032D000020E75EB030E22BFB61A754640EA0C00CB
:1032E0005B084FEA3202B6EB020E75EB030E22BF0B
:1032F000B61A754640EA5C005B084FEA3202B6EB4C
:10330000020E75EB030E22BFB61A754640EA9C000A
:103310005B084FEA3202B6EB020E75EB030E22BFDA
:10332000B61A754640EADC0055EA060E18D04FEA98
:10333000051545EA16754FEA06164FEAC30343EA38
:1033400052734FEAC2025FEA1C1CC0D111F4801F05
:103350000BD141EA00014FF000004FF0004CB6E7FE
:1033600011F4801F04BF01430020B4F1FD0C88BF9D
:10337000BCF5E06F3FF6AFAEB5EB030C04BFB6EBA8
:10338000020C5FEA500C50F1000041EB045170BD9B
:103390000EF0004E4EEA113114EB5C04C2BFD4EBC8
:1033A0000C0541EA045170BD41F480114FF0000E4C
:1033B000013C90E645EA060E8DE60CEA135594EAC8
:1033C0000C0F08BF95EA0C0F3FF43BAF94EA0C0FCB
:1033D0000AD150EA01347FF434AF95EA0C0F7FF440
:1033E00025AF104619462CE795EA0C0F06D152EA94
:1033F00003353FF4FDAE1046194622E750EA410678
:1034000018BF52EA43067FF4C5AE50EA41047FF488
:103410000DAF52EA43057FF4EBAE12E74FF0FF3CED
:1034200006E000BF4FF0010C02E000BF4FF0010CBE
:103430004DF804CD4FEA410C7FEA6C5C4FEA430C37
:1034400018BF7FEA6C5C1BD001B050EA410C0CBF86
:1034500052EA430C91EA030F02BF90EA020F0020E8
:10346000704710F1000F91EA030F58BF994208BF4F
:1034700090422CBFD8176FEAE37040F0010070470C
:103480004FEA410C7FEA6C5C02D150EA013C07D163
:103490004FEA430C7FEA6C5CD6D152EA033CD3D0AE
:1034A0005DF8040B704700BF8446104662468C46A8
:1034B0001946634600E000BF01B5FFF7B7FF0028DB
:1034C00048BF10F1000F01BD4DF808EDFFF7F4FF04
:1034D0000CBF012000205DF808FB00BF4DF808ED8F
:1034E000FFF7EAFF34BF012000205DF808FB00BFB2
:1034F0004DF808EDFFF7E0FF94BF012000205DF8D4
:1035000008FB00BF4DF808EDFFF7CEFF94BF012088
:1035100000205DF808FB00BF4DF808EDFFF7C4FF81
:1035200034BF012000205DF808FB00BF4FEA4102D4
:1035300012F5001215D211D56FF47873B3EB625205
:1035400012D94FEAC12343F0004343EA505311F02C
:10355000004F23FA02F018BF404270474FF00000BE
:10356000704750EA013005D111F0004008BF6FF0FC
:10357000004070474FF00000704700BF4FEA410223
:10358000B2F1E04324BFB3F5001CDCF1FE5C0DD9C1
:1035900001F0004C4FEAC0024CEA5070B2F1004F0B
:1035A00040EB830008BF20F00100704711F0804F0E
:1035B00021D113F13872BCBF01F00040704741F4D3
:1035C00080114FEA5252C2F11802C2F1200C10FAD7
:1035D0000CF320FA02F018BF40F001004FEAC123BB
:1035E0004FEAD32303FA0CFC40EA0C0023FA02F35F
:1035F0004FEA4303CCE77FEA625307D150EA013335
:103600001EBF4FF0FE4040F44000704701F0004004
:1036100040F0FE4040F40000704700BF80F00040E2
:1036200002E000BF81F0004142001FBF5FEA41039A
:1036300092EA030F7FEA226C7FEA236C6AD04FEA9A
:103640001262D2EB1363C1BFD218414048404140DF
:10365000B8BF5B42192B88BF704710F0004F40F491
:10366000000020F07F4018BF404211F0004F41F4AD
:10367000000121F07F4118BF494292EA030F3FD079
:10368000A2F1010241FA03FC10EB0C00C3F120038C
:1036900001FA03F100F0004302D5494260EB40001B
:1036A000B0F5000F13D3B0F1807F06D340084FEA86
:1036B000310102F10102FE2A51D2B1F1004F40EB7B
:1036C000C25008BF20F0010040EA030070474900E3
:1036D00040EB000010F4000FA2F10102EDD1B0FAAE
:1036E00080FCACF1080CB2EB0C0200FA0CF0AABFA3
:1036F00000EBC25052421843BCBFD0401843704741
:1037000092F0000F81F4000106BF80F40000013246
:10371000013BB5E74FEA41037FEA226C18BF7FEA1D
:10372000236C21D092EA030F04D092F0000F08BF5F
:103730000846704790EA010F1CBF0020704712F046
:103740007F4F04D1400028BF40F00040704712F185
:1037500000723CBF00F50000704700F0004343F0EA
:10376000FE4040F4000070477FEA226216BF084620
:103770007FEA23630146420206BF5FEA412390EAE3
:10378000010F40F4800070474FF0000304E000BFD9
:1037900010F0004348BF40425FEA000C08BF70478A
:1037A00043F0964301464FF000001CE050EA01024E
:1037B00008BF70474FF000030AE000BF50EA010263
:1037C00008BF704711F0004302D5404261EB410150
:1037D0005FEA010C02BF84460146002043F0B64375
:1037E00008BFA3F18053A3F50003BCFA8CF2083A9A
:1037F000A3EBC25310DB01FA02FC634400FA02FCA3
:10380000C2F12002BCF1004F20FA02F243EB0200A9
:1038100008BF20F00100704702F1200201FA02FC0B
:10382000C2F1200250EA4C0021FA02F243EB0200FE
:1038300008BF20EADC7070474FF0FF0C1CEAD05242
:103840001EBF1CEAD15392EA0C0F93EA0C0F6FD003
:103850001A4480EA010C400218BF5FEA41211ED0E1
:103860004FF0006343EA501043EA5111A0FB0131CD
:103870000CF00040B1F5000F3EBF490041EAD371A2
:103880005B0040EA010062F17F02FD2A1DD8B3F11E
:10389000004F40EBC25008BF20F00100704790F08D
:1038A000000F0CF0004C08BF49024CEA502040EADF
:1038B00051207F3AC2BFD2F1FF0340EAC2507047A5
:1038C00040F400004FF00003013A5DDC12F1190FE3
:1038D000DCBF00F000407047C2F10002410021FA55
:1038E00002F1C2F1200200FA02FC5FEA310040F16D
:1038F000000053EA4C0308BF20EADC70704792F0E6
:10390000000F00F0004C02BF400010F4000F013A1D
:10391000F9D040EA0C0093F0000F01F0004C02BF18
:10392000490011F4000F013BF9D041EA0C018FE787
:103930000CEAD15392EA0C0F18BF93EA0C0F0AD08D
:1039400030F0004C18BF31F0004CD8D180EA0100B3
:1039500000F00040704790F0000F17BF90F0004F4C
:10396000084691F0000F91F0004F14D092EA0C0F2E
:1039700001D142020FD193EA0C0F03D14B0218BFC1
:10398000084608D180EA010000F0004040F0FE4007
:1039900040F40000704740F0FE4040F440007047A3
:1039A0004FF0FF0C1CEAD0521EBF1CEAD15392EA22
:1039B0000C0F93EA0C0F69D0A2EB030280EA010C12
:1039C00049024FEA402037D04FF0805343EA1111AB
:1039D00043EA10130CF000408B4238BF5B0042F109
:1039E0007D024FF4000C8B4224BF5B1A40EA0C00AE
:1039F000B3EB510F24BFA3EB510340EA5C00B3EBE0
:103A0000910F24BFA3EB910340EA9C00B3EBD10FCD
:103A100024BFA3EBD10340EADC001B0118BF5FEA1F
:103A20001C1CE0D1FD2A3FF650AF8B4240EBC25048
:103A300008BF20F0010070470CF0004C4CEA502009
:103A40007F32C2BFD2F1FF0340EAC250704740F458
:103A500000004FF00003013A37E792F0000F00F04A
:103A6000004C02BF400010F4000F013AF9D040EAC8
:103A70000C0093F0000F01F0004C02BF490011F45C
:103A8000000F013BF9D041EA0C0195E70CEAD15354
:103A900092EA0C0F08D142027FF47DAF93EA0C0F3B
:103AA0007FF470AF084676E793EA0C0F04D14B021F
:103AB0003FF44CAF08466EE730F0004C18BF31F0D1
:103AC000004CCAD130F000427FF45CAF31F00043CB
:103AD0007FF43CAF5FE700BF4FF0FF3C06E000BF64
:103AE0004FF0010C02E000BF4FF0010C4DF804CD87
:103AF0004FEA40024FEA41037FEA226C18BF7FEA97
:103B0000236C11D001B052EA530C18BF90EA010F98
:103B100058BFB2EB030088BFC81738BF6FEAE17027
:103B200018BF40F0010070477FEA226C02D15FEAC3
:103B3000402C05D17FEA236CE4D15FEA412CE1D02F
:103B40005DF8040B704700BF844608466146FFE7F6
:103B50000FB5FFF7C9FF002848BF10F1000F0FBDD8
:103B60004DF808EDFFF7F4FF0CBF012000205DF8D1
:103B700008FB00BF4DF808EDFFF7EAFF34BF012056
:103B800000205DF808FB00BF4DF808EDFFF7E0FFEF
:103B900094BF012000205DF808FB00BF4DF808ED40
:103BA000FFF7D2FF94BF012000205DF808FB00BFA3
:103BB0004DF808EDFFF7C8FF34BF012000205DF885
:103BC00008FB00BF4FEA4002B2F1FE4F0FD34FF0A7
:103BD0009E03B3EB12620DD94FEA002343F000437A
:103BE00010F0004F23FA02F018BF404270474FF028
:103BF0000000704712F1610F01D1420205D110F0AF
:103C0000004008BF6FF0004070474FF00000704761
:103C100042000ED2B2F1FE4F0BD34FF09E03B3EB36
:103C2000126209D44FEA002343F0004323FA02F062
:103C300070474FF00000704712F1610F01D142024E
:103C400002D14FF0FF3070474FF00000704700BFC7
:103C500000210A2200F058BB00220A2300F0A4BA77
:103C60002DE9F84FD2F1010538BF00251F46002B82
:103C700008BF45F0010580468946DDF828A095B9C2
:103C8000164604E004F101050FD0B5420BD27419B9
:103C90004046640807FB049B5946D0470028F1DAE8
:103CA0002646B542F3D34FF0000B5846BDE8F88FD7
:103CB00040F20803C2F200031868704770B540F282
:103CC000DC5640F2DC55C0F60106C0F60105761B55
:103CD000B61006D0002455F8043B01349847A6429C
:103CE000F9D140F2E05640F2DC55C0F60106C0F6CC
:103CF0000105761B0CF066FCB61006D0002455F8C2
:103D0000043B01349847A642F9D170BD032A2DE93E
:103D1000F00109D82AB10023CC5CC454013393428A
:103D2000FAD1BDE8F001704785070244034605D08B
:103D300011F8014B03F8014B9C07F9D111F0030571
:103D400042D0D41A6E42032C8F5912DDC5F1040CF7
:103D5000ED004FEACC0C043127FA05F88C592746C0
:103D600004FA0CF444EA080443F8044BD41A032C74
:103D7000F1DC9A42D5D900228D5C9D540132A242D9
:103D8000FAD1CEE70C681C604C685C608C689C6063
:103D9000CC68DC600C691C614C695C618C699C615D
:103DA000CC69DC610C6A1C624C6A5C628C6A9C6245
:103DB000CC6ADC620C6B1C634C6B5C638C6B9C632D
:103DC000CC6B4031DC634033D41A3F2CDADC0AE0A0
:103DD0000C681C604C685C608C689C60CC6810311E
:103DE000DC601033D41A0F2CF2DC04E051F8044BE1
:103DF00043F8044BD41A032CF8DCBAE7032AC9B2FF
:103E000070B407D822B10023C15401339342FBD1CF
:103E100070BC704785070244034603D003F8011BBA
:103E20009C07FBD10C02D51A641826043F2D34449C
:103E30001ADD1C605C609C60DC601C615C619C61E4
:103E4000DC611C625C629C62DC621C635C639C6380
:103E5000DC634033D51A3F2DEBDC05E01C605C6071
:103E60009C60DC601033D51A0F2DF7DC02E043F8BC
:103E7000044BD51A032DFADC9342C9D203F8011B77
:103E80009342FBD1C4E700BF38B58307044613D182
:103E90000368A3F1013222EA030313F0803F08BF55
:103EA000024609D152F8043F0430A3F1013525EA56
:103EB000030313F0803FF5D003782BB1034613F8CA
:103EC000012F0130002AFAD100F07AF8204638BDDF
:103ED000C9B2F0B4002946D0820710D00378002B75
:103EE0006CD0994218BF024606D13AE012F8013F61
:103EF000002B63D0994234D001308307F6D1036898
:103F000041EA0127A3F1013247EA074722EA030207
:103F100012F0803F1CD17B40A3F1013222EA03035F
:103F200013F0803F14D1044602E012F0803F0FD11D
:103F300054F8043F0430A3F1013687EA030226EA6D
:103F40000303A2F1013513F0803F25EA0202ECD011
:103F5000037823B932E043780130002B2ED0994208
:103F6000F9D1F0BC704783070AD00378024623B921
:103F7000F7E712F8013F002BF3D001308107F8D1A9
:103F800003680246A3F1013121EA030313F0803FE5
:103F90000AD1014651F8043F0432A3F1013020EA6E
:103FA000030313F0803FF5D013781046002BD8D0D0
:103FB00012F8013F0130002BFAD1D2E71846D0E7C2
:103FC00080EA0102844612F0030F4FD111F0030F73
:103FD00032D14DF8044D11F0040F51F8043B0BD0D1
:103FE000A3F101329A4312F0803F04BF4CF8043B26
:103FF00051F8043B16D100BF51F8044BA3F1013234
:104000009A4312F0803FA4F101320BD14CF8043BEB
:10401000A24312F0803F04BF51F8043B4CF8044B1C
:10402000EAD023460CF8013B13F0FF0F4FEA33238D
:10403000F8D15DF8044B704711F0010F06D011F86C
:10404000012B0CF8012B002A08BF704711F0020F5A
:10405000BFD031F8022B12F0FF0F16BF2CF8022B45
:104060008CF8002012F47F4FB3D1704711F8012B68
:104070000CF8012B002AF9D1704700BF20F0030192
:1040800010F00300C0F1000051F8043B00F1040CF3
:104090004FEACC0C6FF000021CBF22FA0CF2134363
:1040A0004FF0010C4CEA0C2C4CEA0C4CA3EB0C022C
:1040B00022EA030212EACC1204BF51F8043B043096
:1040C000F4D013F0FF0F1FBF013013F47F4F013006
:1040D00013F47F0F18BF0130704700BFF0B4002AFF
:1040E00025D040F204038718C2F2000305461E687B
:1040F00002E0D3B1BD4218D015F8013B11F8014BD5
:10410000F0181A46407800F00300012806EB04007E
:1041100008BF03F120022346407800F00300012885
:1041200008BF04F12003D01AE3D0F0BC704710465A
:10413000FBE700BF41EA000313F0030F034670B42E
:1041400014BF00240124032A94BF002404F00104B6
:104150000D46C4B9AAB10C78013A03F8014B4CB131
:104160001C4672B111F8016F013A04F8016B234645
:10417000002EF6D12AB19A18002103F8011B9342B0
:10418000FBD170BC7047294655F8044BA4F10136A9
:1041900026EA040616F0803FDCD1043A43F8044BCB
:1041A000032AF0D82946D5E72DE9F04F40F2040460
:1041B000C2F2000485B01F468C4626680B46039069
:1041C00002921A4601331D461478311991F801B054
:1041D0001BF0080BF5D12D2C73D02B2C04BF547879
:1041E000951CD7F1010338BF0023102F14BF1A46C6
:1041F00043F001023AB1302C73D023B10827302CA0
:10420000B94601D00A27B946BBF1000F49460CBF99
:104210006FF0004A4FF0004ACDF804C0504600F05D
:10422000B1F950468846494600F07EF8331900221D
:10423000DDF804C05B78114613F0040F1ED0303C4B
:10424000A74225DD814294BF0023012353EAD272A5
:104250002DD10A1A534243EB02034445D4BF002335
:1042600003F00103002B22D109FB014115F8014B9A
:10427000012233195B7813F0040FE0D113F003032C
:1042800006D0012B14BF57233723E41AA742D9DCE9
:10429000531C1BD00846BBF1000F10D1029B1BB171
:1042A00052B90299C1F800C005B0BDE8F08F4FF0D7
:1042B000FF3215F8014BDCE705F1FF3CF1E748421E
:1042C000ECE75478951C4FF0010B8AE70399BBF19A
:1042D000000F0CBF6FF000404FF0004022230B6036
:1042E000DCE72A78A2F17800414241EB0001582A2C
:1042F00014BF0A4641F00102002A3FF47EAF1027A6
:104300006C78B94602357FE730B440F20804C2F257
:1043100000040D46134601462A46206830BCFFF7CC
:1043200043BF00BF000000004A1E08BF7047C0F036
:104330002481884240F21681114200F01781B0FAC0
:1043400080F3B1FA81F2A2EB0303C3F11F0304A2CD
:1043500002EB03134FF000029F4600BFAFF3008053
:10436000B0EBC17F00BF42EB020228BFA0EBC170DF
:10437000B0EB817F00BF42EB020228BFA0EB81704F
:10438000B0EB417F00BF42EB020228BFA0EB4170BF
:10439000B0EB017F00BF42EB020228BFA0EB01702F
:1043A000B0EBC16F00BF42EB020228BFA0EBC160BF
:1043B000B0EB816F00BF42EB020228BFA0EB81602F
:1043C000B0EB416F00BF42EB020228BFA0EB41609F
:1043D000B0EB016F00BF42EB020228BFA0EB01600F
:1043E000B0EBC15F00BF42EB020228BFA0EBC1509F
:1043F000B0EB815F00BF42EB020228BFA0EB81500F
:10440000B0EB415F00BF42EB020228BFA0EB41507E
:10441000B0EB015F00BF42EB020228BFA0EB0150EE
:10442000B0EBC14F00BF42EB020228BFA0EBC1407E
:10443000B0EB814F00BF42EB020228BFA0EB8140EE
:10444000B0EB414F00BF42EB020228BFA0EB41405E
:10445000B0EB014F00BF42EB020228BFA0EB0140CE
:10446000B0EBC13F00BF42EB020228BFA0EBC1305E
:10447000B0EB813F00BF42EB020228BFA0EB8130CE
:10448000B0EB413F00BF42EB020228BFA0EB41303E
:10449000B0EB013F00BF42EB020228BFA0EB0130AE
:1044A000B0EBC12F00BF42EB020228BFA0EBC1203E
:1044B000B0EB812F00BF42EB020228BFA0EB8120AE
:1044C000B0EB412F00BF42EB020228BFA0EB41201E
:1044D000B0EB012F00BF42EB020228BFA0EB01208E
:1044E000B0EBC11F00BF42EB020228BFA0EBC1101E
:1044F000B0EB811F00BF42EB020228BFA0EB81108E
:10450000B0EB411F00BF42EB020228BFA0EB4110FD
:10451000B0EB011F00BF42EB020228BFA0EB01106D
:10452000B0EBC10F00BF42EB020228BFA0EBC100FD
:10453000B0EB810F00BF42EB020228BFA0EB81006D
:10454000B0EB410F00BF42EB020228BFA0EB4100DD
:10455000B0EB010F00BF42EB020228BFA0EB01004D
:10456000104670470CBF012000207047B1FA81F25D
:10457000C2F11F0220FA02F0704708B14FF0FF307D
:1045800000F00EB80029F8D02DE90340FFF7CCFE6B
:10459000BDE8064002FB00F3A1EB0301704700BF3A
:1045A000704700BF144A154B516801F00C010429F3
:1045B00001D0082902D0124A1A600FE051685068F1
:1045C00001F47011890C0231C00302D552689203C4
:1045D00001D50C4A00E00A4A514319600648426876
:1045E000094802F0F0010A0910F802C0196821FA1E
:1045F0000CF01860704700BF001002400C01002052
:1046000000127A0000093D00FC0000201FB5634B3A
:104610001A6842F0010018605968614A01EA020014
:1046200058601A6822F0847C2CF480311960186874
:1046300020F480221A6059684FF41F0221F4FE0012
:10464000002158609A60019102910391186840F42A
:1046500080321A60514B186800F400310291019ABF
:10466000501C0190029919B9019AB2F5A06FF1D1CD
:10467000186810F4003118BF01210291029B012B30
:1046800035D1484B1A6842F010001860196821F0C3
:1046900003021A60186840F0020119603F4B5A6823
:1046A0005A6058685860596841F480625A60586886
:1046B00020F47C1159605A6842F4E8105860196877
:1046C00041F080721A60354B19688801FBD5586833
:1046D00020F0030159605A6842F0020058602F4AE6
:1046E000536803F00C0CBCF1080FF8D14FE02B4BD2
:1046F00000211A6842F00100186001912748036800
:1047000003F002010391019A531C0193039902469D
:1047100019B90198B0F5A06FF0D112681F4B91073D
:1047200035D5204A116841F010001060116821F061
:1047300003001060116841F0020010605968596070
:104740005A685A60586840F4806159605A6822F487
:104750007C105860596841F460125A60186840F043
:10476000807119600D4B1A689201FBD5586820F0D2
:1047700003025A60596841F00200586007494B68CB
:1047800003F00C0EBEF1080FF8D1FFF70BFF06483F
:104790004FF00062826005B000BD00BF0010024013
:1047A0000000FFF80020024000ED00E040F0BE6194
:1047B000024B41F42020D860704700BF00ED00E0BC
:1047C000C37810B513B3174AD168CB4303F4E06440
:1047D000230A41780F24C3F1040224FA03FC01FAEE
:1047E00002F184780CEA040343EA010290F800C065
:1047F0000D4B12010CEB030181F800230378012219
:1048000003F01F00590902FA00F307E002780123C0
:1048100002F01F0003FA00F351092031024840F86A
:10482000213010BD00ED00E000E100E0436810B56C
:1048300023F470220C6822F480730A7943EA040C92
:104840004CEA0224CB688A684460846842EA030C1C
:10485000094A04EA02034A794CEA030C4CEA42038F
:104860008360097CC26A4B1E22F47002D9B242EA0C
:104870000153C36210BD00BFFDF7F1FF836811B1A2
:1048800043F0010301E023F0010383607047836874
:1048900011B143F4807301E023F4807383607047A7
:1048A000816841F00803836070478068C0F3C000EE
:1048B0007047816841F00403836070478068C0F3EB
:1048C00080007047836811B143F4A00301E023F432
:1048D000A00383607047092970B54FEA41040DD9E0
:1048E00064181E3C072505FA04F503FA04F3C668AC
:1048F00026EA050545EA0304C4600BE064180725B1
:1049000005FA04F503FA04FC066926EA050545EAFA
:104910000C030361062A0ED8013A02EB820C1F2316
:1049200003FA0CF201FA0CF1446B24EA020343EAA5
:104930000102426370BD0C2A4FEA82030DD89A1817
:10494000233A1F2303FA02F301FA02F2046B24EA6A
:10495000030C4CEA0201016370BD9A18413A1F230F
:1049600003FA02F301FA02F2C46A24EA030C4CEAE5
:104970000201C16270BD000002684FF6FE7C002398
:1049800002EA0C010160036043608360C3602E4B48
:10499000984229D02D4B984230D02D4B984237D099
:1049A0002C4B98423ED02C4B984206D153F8541CC5
:1049B00041F4702043F8540C7047284B984206D1BC
:1049C00053F8680C40F4700243F8682C7047244B8D
:1049D000984206D153F87C2C42F0706143F87C1C5D
:1049E0007047204B984206D153F8041C41F00F0049
:1049F00043F8040C70471C4B984206D153F8180C2E
:104A000040F0F00243F8182C7047184B984206D13A
:104A100053F82C2C42F4706143F82C1C7047144B53
:104A2000984206D153F8401C41F4704043F8400CC2
:104A30007047104B984205D153F8540C40F4702243
:104A400043F8542C704700BF080002401C0002408D
:104A50003000024044000240580002406C00024016
:104A600080000240080402401C040240300402405E
:104A7000440402405804024002680B6A10B522F454
:104A8000FE448A6824F0F00C0C6913434A692343FE
:104A90008C691A43CB6922434C6A134343EA0402EC
:104AA0008C6A42EA040343EA0C02CB68026043606A
:104AB00091E80C008260C36010BD19B1036843F037
:104AC000010304E002684FF6FE7102EA010303608D
:104AD000704703680AB1194301E023EA010101604C
:104AE0007047406880B27047C3004CBF014B024B17
:104AF000586070470004024000000240837910B5FE
:104B00000168002B2AD01B4BCA431C6890F804C0D4
:104B100014401C605C6822405A600CEB030214686D
:104B20002143116002689C68D1430C409C60DC68A2
:104B30002140D9604179102908D1996841EA0200E1
:104B40009860D96841EA0200D86010BD01F1804C3C
:104B50000CF58233186802431A6010BD90F804C047
:104B60000CF1804000F582331A6822EA01011960D5
:104B700010BD00BF0004014005490A684B690340AD
:104B800004D010420CBF0020012070471846704727
:104B900000040140014B5861704700BF0004014010
:104BA000024B0348034A58605A6070470020024095
:104BB00023016745AB89EFCD024B186940F08002B5
:104BC0001A61704700200240014BD860704700BF57
:104BD00000200240094BDA68D2070AD4D86840079F
:104BE00009D4DB6803F0100100290CBF0420032066
:104BF0007047012070470220704700BF002002402C
:104C000010B50446FFF7E6FF02E0FFF7E3FF013CC3
:104C1000012803D1002CF8D1052010BD002C08BFBD
:104C2000052010BD73B5002304464FF400500E4616
:104C30000193FFF7E5FF04281AD10E4D296941F0D1
:104C40000100286126804FF40050FFF7D9FF0428A7
:104C500008D102340194019A360C16804FF40050AA
:104C6000FFF7CEFF2A6941F6FE7102EA01032B61CC
:104C70007CBD00BF0020024038B505464FF430200F
:104C8000FFF7BEFF042813D10A4C226942F002014B
:104C900021616561236943F0400020614FF43020B9
:104CA000FFF7AEFF226941F6FD7102EA01032361BD
:104CB00038BD00BF00200240F0B5CE78F30606F004
:104CC0000F0248BF8B780E8848BF1A4316F0FF0FBB
:104CD0001FD004680023012707FA03F707EA060537
:104CE000BD4212D19F004FF00F0C0CFA07FC24EAD2
:104CF0000C0402FA07FCCF7844EA0C04282F01D1F7
:104D0000456102E0482F08BF05610133082BE2D15D
:104D100004600E88FF2E21D94468002303F10805A2
:104D2000012707FA05F707EA0605BD4212D19F00E1
:104D30004FF00F0C0CFA07FC24EA0C0402FA07FCF3
:104D4000CF7844EA0C04282F01D1456102E0482FB6
:104D500008BF05610133082BE0D14460F0BD4FF07E
:104D6000FF320221042302808170C3707047836880
:104D700019420CBF0020012070470161704741615A
:104D8000704700000028184B30B500F44014B4BF41
:104D9000DB695B68B4F5401F82B207D1124C23F087
:104DA0007063656825F07065656010E0C40206D523
:104DB00000F470252C0C032505FA04F403E0440DDF
:104DC000240102FA04F423EA040343F0706321B1DE
:104DD000410D090102FA01F2134300280248B4BF51
:104DE000C361436030BD00BF0000014001F0030318
:104DF00030B59A000F2404FA02FC00FA02F2074BC5
:104E00008D08A91C53F8215025EA0C0443F82140D1
:104E100053F82140144343F8214030BD00000140C5
:104E200008B50B4B984207D14FF40010012100F058
:104E300045F94FF4001006E04FF48000012100F026
:104E40003DF94FF480000021BDE8084000F036B97C
:104E500000540040F0B58388044623F03F0210045C
:104E600087B0060C01A80D4600F0B6F82E4903984D
:104E7000B0FBF1F7BFB23E43A680B4F800C02CF0FF
:104E800001031A04110C294B2A6821809A4209D87F
:104E90005200B0FBF2F18BB201372784032B98BF8D
:104EA000042322E0B5F806E04BF6FF7CE64505D189
:104EB00002EB4203B0FBF3F083B206E01923534345
:104EC000B0FBF3F291B241F480431905080D08B923
:104ED00043F001034FF4967257434FF47A7E97FBE9
:104EE000FEF7013743F400432784A383B4F800E0BE
:104EF0001FFA8EFC4CF001012180208820F4806292
:104F000022F00A036889AA8819040B0C40EA020EF1
:104F100043EA0E012889AB89218040EA030CA4F8FA
:104F200008C007B0F0BD00BF40420F00A0860100DE
:104F300041F28833002103604BF6FF724FF4804347
:104F40008180C2800181418183817047038819B1CA
:104F50009BB243F0010303E023F0010211040B0CA8
:104F600003807047038819B19BB243F4807303E058
:104F700023F4807211040B0C03807047038819B16D
:104F80009BB243F4007303E023F4007211040B0C92
:104F900003807047038819B19BB243F4806303E038
:104FA00023F4806211040B0C0380704783889BB24A
:104FB0000AB1194301E023EA0101818070470182AF
:104FC0007047008AC0B2704712B141F0010101E0A0
:104FD00001F0FE0101827047214B10B55A6802F0C2
:104FE0000C02042A01D0082A02D01E4B03600FE0F5
:104FF0005C68596804F47012940CA21CC90302D5B1
:105000005B689B0301D5184B00E0164B5A430260C6
:10501000134B5C6804F0F0010A09144904688A5CC7
:1050200024FA02F242605C6804F4E064240A11F895
:1050300004C022FA0CF484605C6804F46054E40A4E
:1050400011F804C022FA0CF2C260596801F440431E
:1050500007499B0B11F803C0B2FBFCF1016110BDC5
:105060000010024000127A0000093D0014010020E7
:1050700010010020044B5A6909B1104301E022EAF3
:1050800000005861704700BF00100240044B9A694D
:1050900009B1104301E022EA00009861704700BFA7
:1050A00000100240044BDA6909B1104301E022EA22
:1050B0000000D861704700BF00100240044B1A691D
:1050C00009B1104301E022EA00001861704700BFF7
:1050D00000100240024B586A40F080725A627047DA
:1050E0000010024030B5058C25F0010425042C0C7D
:1050F0000484B0F818C0058C2CF0F3042404240CAC
:10510000144344EA03140F4BADB298420ED00E4A3A
:1051100090420BD0B0F1804F08D00C4B984205D094
:105120000B4A904202D00B4B984202D125F0020567
:1051300001E025F00A0545F00105294304830184B7
:1051400030BD00BF002C014000340140000400408D
:1051500000080040000C004030B5058C25F010041C
:1051600025042C0C0484B0F818C0058C2CF4407471
:105170002405240D44EA022444EA0334104BADB262
:1051800098420ED00F4A90420BD0B0F1804F08D019
:105190000D4B984205D00D4A904202D00C4B9842DC
:1051A00006D125F0200C4CF0100545EA011104E071
:1051B00025F0A00545F0100529430483018430BD86
:1051C000002C014000340140000400400008004071
:1051D000000C0040204A038890420ED01F4A9042A3
:1051E0000BD0B0F1804F08D01D4A904205D01D4A27
:1051F000904202D01C4A904206D14FF68F7203EAC9
:10520000020C4B884CEA0303184A904209D0184A12
:10521000904206D04FF6FF4203EA020CCB884CEADC
:10522000030303800C4BB1F804C00A889842A0F82D
:105230002CC002850BD0094B984208D00D4A9042F1
:1052400005D00D4B984202D00C4A904201D1097A08
:105250000186012383827047002C01400034014005
:105260000004004000080040000C00400010004016
:10527000001400400040014000440140004801404B
:10528000028C70B522F001031E04340C0484068CD9
:105290008488058BB1F808C025F0730213041A0C3A
:1052A00026F002031E04330C0D884E882A4346EA7A
:1052B0000C051FFA85FC184D4CEA0303A8420BD0DD
:1052C000164DA84208D0164DA84205D0154DA8424B
:1052D00002D0154DA84218D14FF6F7764D8903EA52
:1052E000060C4CEA05034FF6FB768D8833404FF6EB
:1052F000FF46B1F80CC02B4304EA0605CE8946EA06
:105300000C041FFA84FC4CEA0504C98884800283DB
:105310008186038470BD00BF002C01400034014031
:10532000004001400044014000480140B0F820C066
:1053300030B52CF0100215042C0C0484B0F820C0F9
:105340008488038B23F4E64215040B882A0C2CF086
:10535000200542EA03222B040D891B0C43EA0513A6
:10536000134DB1F802C0A84243EA0C1302D0114D0C
:10537000A84217D14FF67F7503EA050C4B894CEA1A
:105380000315B1F804C04FF6BF732B4043EA0C136A
:105390004FF2FF35B1F80CC02540CC8945EA8C05A9
:1053A00045EA8404C988848002830187038430BD70
:1053B000002C014000340140B0F820C030B52CF47E
:1053C000807215042C0C0484B0F820C08488838B70
:1053D00023F0730215040B882A0C2CF400751A4371
:1053E0002B040D891B0C43EA0523144DB1F802C0B0
:1053F000A84243EA0C2302D0114DA84217D14FF224
:10540000FF7503EA050C4B894CEA0325B1F804C08B
:105410004FF6FF332B4043EA0C234CF6FF75B1F8EF
:105420000CC02540CC8945EA0C1545EA0414C9880E
:10543000848082838187038430BD00BF002C0140BB
:1054400000340140B0F820C030B52CF4805215046F
:105450002C0C0484B0F820C08488838B23F4E642AB
:1054600015040B882A0C2CF4005542EA03222B0465
:105470000D891B0C43EA05330B4DB1F802C0A8425D
:1054800043EA0C3302D0094DA84205D14BF6FF7513
:1054900025408C8945EA8414C98884808283A0F8D9
:1054A0004010038430BD00BF002C01400034014097
:1054B00000234FF0FF3181800380C380438003725B
:1054C00070470023038043808380C380038143812E
:1054D0008381C3817047002301220380438082803F
:1054E000C38003817047038819B19BB243F0010365
:1054F00003E023F0010211040B0C03807047B0F8A5
:10550000443021B16FEA43436FEA534301E0590449
:105510004B0CA0F84430704783899BB20AB1194301
:1055200001E023EA010181817047B0F818C02CF036
:10553000080213041A0C41EA020303837047B0F80F
:1055400018C02CF4006213041A0C42EA01230383EE
:105550007047B0F81CC02CF0080213041A0C41EA82
:10556000020383837047B0F81CC02CF4006213045C
:105570001A0C42EA012383837047028B22F00C034A
:105580001A04130C0383B0F818C01FFA8CF241EA16
:10559000020303837047028B22F440631A04130C46
:1055A0000383B0F818C01FFA8CF242EA0123038388
:1055B0007047828B22F00C031A04130C8383B0F81B
:1055C0001CC01FFA8CF241EA020383837047828B6E
:1055D00022F440631A04130C8383B0F81CC01FFA32
:1055E0008CF242EA01238383704700000B882DE987
:1055F000F0410D4604464988AA8843B92B89FFF734
:1056000071FDE9882046BDE8F041FFF7B6BF042BE5
:1056100008D12B89FFF7A0FDE9882046BDE8F041BD
:10562000FFF7B9BF082B8C46B5F808803BD1068C34
:1056300026F480731E04330C0384838B068C23F0C2
:10564000F3000304180C40EA081398B2344BB6B2C6
:105650009C4240EA02020ED0324884420BD0B4F1A0
:10566000804F08D0304B9C4205D03048844202D055
:105670002F4B9C4207D126F4007343EA0C2081B2E1
:1056800041F4807307E04FF2FF5306EA030041F450
:10569000807C40EA0C03E9882046A2832384BDE88D
:1056A000F041FFF786BF078C27F480500604330CC7
:1056B0002384A08B278C20F440763305180D40EA14
:1056C0000226174ABFB2944246EA08380ED0154A5D
:1056D00094420BD0B4F1804F08D0134B9C4205D0BC
:1056E000124EB44202D01248844207D127F400532C
:1056F00043EA0C3291B241F4805607E047F6FF507E
:1057000007EA000C41F480564CEA0606E988204678
:10571000A4F81C802684BDE8F041FFF758BF00BF05
:10572000002C01400034014000040040000800400B
:10573000000C0040808E80B27047008F80B27047AE
:10574000808F80B27047B0F8400080B27047038A03
:10575000828911EA030092B203D011420CBF0020EB
:1057600001207047C94301827047000030B5B0F88E
:1057700010E00D462EF440521304CA881B0C13434C
:105780000382B0F80CC087B02CF4B05E2EF00C028F
:10579000B1F804C013040A89498942EA0C0E4EEAA2
:1057A00001021FFA82FC1B0C4CEA03038381B0F850
:1057B00014E0B5F80CC02EF440710A04130C43EA4F
:1057C0000C010446818201A8FFF706FC194BA08951
:1057D0009C420CBF049B039B02B2002A4FF01901AC
:1057E0002A6801FB03F101DA520000E09200642311
:1057F000B1FBF2F1B1FBF3F21201B4F80CC01009E5
:1058000003FB10110FFA8CF0002806DAC9003231C0
:10581000B1FBF3F303F0070305E009013231B1FBFB
:10582000F3F000F00F0343EA020EA4F808E007B01B
:1058300030BD00BF0038014000234FF416510C2248
:1058400001608380C38003814281838170478389A3
:1058500019B19BB243F4005303E023F40052110446
:105860000B0C83817047CBB210B55B09012401F0AA
:105870001F01A34204FA01F101D10C3004E0022B14
:1058800001D1103000E0143003680AB1194301E07F
:1058900023EA0101016010BD838A9BB20AB119435A
:1058A00001E023EA0101818270478188C805C00DAB
:1058B00070470000000000002DE9F04F87B0049011
:1058C00008461446FDF744FB5DA3D3E90023FDF72A
:1058D00093FB5D4ADFF89C91136801920393FDF7F7
:1058E0004DFE0399FDF79EFE01462046FDF7A4FFFD
:1058F000D9F80010FDF798FEDFF87CC1534BDCF8B7
:105900000080D3F800B0824641465846CDF800C02A
:10591000FDF78AFE04F1004701463846FDF78CFF8B
:105920004B4B054619682046FDF786FF0146284681
:10593000FDF77AFE474B1968FDF776FE464B0646A3
:105940001D68384629460293FDF776FF074639461B
:105950004046FDF769FE394680465846FDF764FE2D
:105960003E49074609682046FDF766FF014628467E
:10597000FDF75AFE514605900498FDF753FE38494D
:1059800083460860374930460968FDF74DFE3649C1
:105990000446086021463046FEF702F833490546C2
:1059A000086021463846FDF7FBFF31490446086090
:1059B00059462846FDF740FF01465046FDF734FEA4
:1059C00059468246C9F800002046FDF735FF0146DA
:1059D0000398FDF729FE019A314610602846FDF72D
:1059E0002BFF01463046FDF71DFE1A4A06461060A1
:1059F00041462846FDF720FF01464046FDF712FECE
:105A0000DDF800C00546CCF8000031462046FDF721
:105A100013FF01463846FDF705FE0C4A2946106083
:105A20002046FDF709FF01460598FDF7FBFD029BA7
:105A30001860504607B0BDE8F08F00BFAFF300809C
:105A4000FCA9F1D24D62303F90010020840100207A
:105A5000280100209401002088010020240100205A
:105A6000000900202C010020FC0800200C09002067
:105A7000040900208C01002098010020AFF3008071
:105A8000F8B5194C06462378274683B903F0FEF88B
:105A9000164D29683231884209D3154801234FF445
:105AA00080522370426103F0F1F82860F8BD397824
:105AB000C1B103F0EBF80D4C2368F218904211D3FA
:105AC000094B0B4900224FF480501A70086103F013
:105AD000DDF8084B20601A780AB1501E1870064A8B
