:020000040800F2
:100000000050002051AE000801AF0008C57C000878
:1000100001AF000801AF000801AF000800000000B8
:1000200000000000000000000000000001AF000818
:1000300001AF00080000000001AF000829560008C9
:1000400001AF000801AF000801AF000801AF0008D0
:1000500001AF000801AF000801AF0008813E0008B1
:1000600001AF000801AF000801AF000801AF0008B0
:1000700001AF000801AF0008A158000801AF000857
:1000800001AF000801AF000801AF000801AF000890
:1000900001AF000801AF000801AF0008853E00086D
:1000A00001AF000801AF000801AF0008515400087B
:1000B000A9540008B5540008C1540008C9430008F9
:1000C00099470008CD4300089547000801AF000894
:1000D00001AF000801AF0008855B000801AF000810
:1000E0003D3C000801AF000801AF0008000000001F
:1000F0000000000000000000000000000000000000
:0C01000000000000000000005FF808F1A3
:1001100010B5054C237833B9044810B10448AFF347
:1001200000800121217010BDA40400200000000007
:10013000A40A010808B5064B1BB106480649AFF3EF
:1001400000800648016811B1054A02B1904708BD18
:1001500000000000A40A0108A8040020A404002054
:100160000000000081F0004102E000BF83F0004386
:1001700030B54FEA41044FEA430594EA050F08BF42
:1001800090EA020F1FBF54EA000C55EA020C7FEA06
:10019000645C7FEA655C00F0E2804FEA5454D4EB83
:1001A0005555B8BF6D420CDD2C4480EA020281EA4D
:1001B000030382EA000083EA010180EA020281EA85
:1001C0000303362D88BF30BD11F0004F4FEA0131D7
:1001D0004FF4801C4CEA113102D0404261EB4101E6
:1001E00013F0004F4FEA03334CEA133302D052426C
:1001F00063EB430394EA050F00F0A780A4F1010428
:10020000D5F1200E0DDB02FA0EFC22FA05F2801861
:1002100041F1000103FA0EF2801843FA05F3594147
:100220000EE0A5F120050EF1200E012A03FA0EFCC6
:1002300028BF4CF0020C43FA05F3C01851EBE371F0
:1002400001F0004507D54FF0000EDCF1000C7EEB0D
:1002500000006EEB0101B1F5801F1BD3B1F5001F4B
:100260000CD349085FEA30004FEA3C0C04F101046A
:100270004FEA445212F5800F80F09A80BCF1004F93
:1002800008BF5FEA500C50F1000041EB045141EA15
:10029000050130BD5FEA4C0C404141EB010111F416
:1002A000801FA4F10104E9D191F0000F04BF0146C1
:1002B0000020B1FA81F308BF2033A3F10B03B3F19F
:1002C00020020CDA0C3208DD02F1140CC2F10C022F
:1002D00001FA0CF021FA02F10CE002F11402D8BF8D
:1002E000C2F1200C01FA02F120FA0CFCDCBF41EA59
:1002F0000C019040E41AA2BF01EB0451294330BD28
:100300006FEA04041F3C1CDA0C340EDC04F1140404
:10031000C4F1200220FA04F001FA02F340EA0300DB
:1003200021FA04F345EA030130BDC4F10C04C4F121
:10033000200220FA02F001FA04F340EA0300294601
:1003400030BD21FA04F0294630BD94F0000F83F44B
:10035000801306BF81F480110134013D4EE77FEA2E
:10036000645C18BF7FEA655C29D094EA050F08BF7A
:1003700090EA020F05D054EA000C04BF194610465B
:1003800030BD91EA030F1EBF0021002030BD5FEA9F
:10039000545C05D14000494128BF41F0004130BDC7
:1003A00014F580043CBF01F5801130BD01F000451B
:1003B00045F0FE4141F470014FF0000030BD7FEA8E
:1003C000645C1ABF194610467FEA655C1CBF0B4689
:1003D000024650EA013406BF52EA033591EA030FA0
:1003E00041F4002130BD00BF90F0000F04BF002198
:1003F000704730B54FF4806404F132044FF00005CB
:100400004FF0000150E700BF90F0000F04BF002143
:10041000704730B54FF4806404F1320410F00045A9
:1004200048BF40424FF000013EE700BF42004FEAA4
:10043000E2014FEA31014FEA02701FBF12F07F4321
:1004400093F07F4F81F06051704792F0000F14BF1E
:1004500093F07F4F704730B54FF4607401F0004562
:1004600021F0004120E700BF50EA010208BF7047B9
:1004700030B54FF000050AE050EA010208BF7047AE
:1004800030B511F0004502D5404261EB41014FF417
:10049000806404F132045FEA915C3FF4DCAE4FF01B
:1004A00003025FEADC0C18BF03325FEADC0C18BF02
:1004B000033202EBDC02C2F1200300FA03FC20FA53
:1004C00002F001FA03FE40EA0E0021FA02F11444A0
:1004D000C1E600BF70B54FF0FF0C4CF4E06C1CEAB5
:1004E00011541DBF1CEA135594EA0C0F95EA0C0F2A
:1004F00000F0DEF82C4481EA030621EA4C5123EA9D
:100500004C5350EA013518BF52EA033541F48011CB
:1005100043F4801338D0A0FB02CE4FF00005E1FB7E
:1005200002E506F00042E0FB03E54FF00006E1FBC8
:1005300003569CF0000F18BF4EF0010EA4F1FF040B
:10054000B6F5007F64F5407404D25FEA4E0E6D414B
:1005500046EB060642EAC62141EA55514FEAC5205C
:1005600040EA5E504FEACE2EB4F1FD0C88BFBCF5D8
:10057000E06F1ED8BEF1004F08BF5FEA500E50F189
:10058000000041EB045170BD06F0004646EA01014F
:1005900040EA020081EA0301B4EB5C04C2BFD4EB81
:1005A0000C0541EA045170BD41F480114FF0000E7A
:1005B000013C00F3AB8014F1360FDEBF002001F0E8
:1005C000004170BDC4F10004203C35DA0C341BDC62
:1005D00004F11404C4F1200500FA05F320FA04F034
:1005E00001FA05F240EA020001F0004221F0004168
:1005F00010EBD37021FA04F642EB06015EEA430EDB
:1006000008BF20EAD37070BDC4F10C04C4F120050A
:1006100000FA04F320FA05F001FA04F240EA0200BD
:1006200001F0004110EBD37041F100015EEA430E8E
:1006300008BF20EAD37070BDC4F1200500FA05F2AE
:100640004EEA020E20FA04F301FA05F243EA02032D
:1006500021FA04F001F0004121FA04F220EA02003C
:1006600000EBD3705EEA430E08BF20EAD37070BD82
:1006700094F0000F0FD101F00046400041EB010162
:1006800011F4801F08BF013CF7D041EA060195F044
:10069000000F18BF704703F00046520043EB0303FE
:1006A00013F4801F08BF013DF7D043EA06037047EB
:1006B00094EA0C0F0CEA135518BF95EA0C0F0CD0F6
:1006C00050EA410618BF52EA4306D1D181EA03013C
:1006D00001F000414FF0000070BD50EA410606BF36
:1006E0001046194652EA430619D094EA0C0F02D17B
:1006F00050EA013613D195EA0C0F05D152EA0336C0
:100700001CBF104619460AD181EA030101F00041DD
:1007100041F0FE4141F470014FF0000070BD41F026
:10072000FE4141F4780170BD70B54FF0FF0C4CF400
:10073000E06C1CEA11541DBF1CEA135594EA0C0F1F
:1007400095EA0C0F00F0A7F8A4EB050481EA030E6C
:1007500052EA03354FEA013100F088804FEA033353
:100760004FF0805545EA131343EA12634FEA022221
:1007700045EA111545EA10654FEA00260EF00041E2
:100780009D4208BF964244F1FD0404F5407402D234
:100790005B084FEA3202B61A65EB03055B084FEAC5
:1007A00032024FF480104FF4002CB6EB020E75EBC2
:1007B000030E22BFB61A754640EA0C005B084FEAEA
:1007C0003202B6EB020E75EB030E22BFB61A754667
:1007D00040EA5C005B084FEA3202B6EB020E75EBB2
:1007E000030E22BFB61A754640EA9C005B084FEA2A
:1007F0003202B6EB020E75EB030E22BFB61A754637
:1008000040EADC0055EA060E18D04FEA051545EA25
:1008100016754FEA06164FEAC30343EA52734FEACE
:10082000C2025FEA1C1CC0D111F4801F0BD141EA47
:1008300000014FF000004FF0004CB6E711F4801FAC
:1008400004BF01430020B4F1FD0C88BFBCF5E06F8C
:100850003FF6AFAEB5EB030C04BFB6EB020C5FEA9C
:10086000500C50F1000041EB045170BD0EF0004EF1
:100870004EEA113114EB5C04C2BFD4EB0C0541EA23
:10088000045170BD41F480114FF0000E013C90E620
:1008900045EA060E8DE60CEA135594EA0C0F08BFE4
:1008A00095EA0C0F3FF43BAF94EA0C0F0AD150EAE3
:1008B00001347FF434AF95EA0C0F7FF425AF104676
:1008C00019462CE795EA0C0F06D152EA03353FF49E
:1008D000FDAE1046194622E750EA410618BF52EA1B
:1008E00043067FF4C5AE50EA41047FF40DAF52EAEF
:1008F00043057FF4EBAE12E74FF0FF3C06E000BF8C
:100900004FF0010C02E000BF4FF0010C4DF804CD98
:100910004FEA410C7FEA6C5C4FEA430C18BF7FEA58
:100920006C5C1BD001B050EA410C0CBF52EA430C86
:1009300091EA030F02BF90EA020F0020704710F106
:10094000000F91EA030F58BF994208BF90422CBF95
:10095000D8176FEAE37040F0010070474FEA410C8E
:100960007FEA6C5C02D150EA013C07D14FEA430CAC
:100970007FEA6C5CD6D152EA033CD3D05DF8040B1D
:10098000704700BF8446104662468C46194663464F
:1009900000E000BF01B5FFF7B7FF002848BF10F126
:1009A000000F01BD4DF808EDFFF7F4FF0CBF01206B
:1009B00000205DF808FB00BF4DF808EDFFF7EAFFE7
:1009C00034BF012000205DF808FB00BF4DF808EDA2
:1009D000FFF7E0FF94BF012000205DF808FB00BF97
:1009E0004DF808EDFFF7CEFF94BF012000205DF821
:1009F00008FB00BF4DF808EDFFF7C4FF34BF01202E
:100A000000205DF808FB00BF4FEA410212F500121A
:100A100015D211D56FF47873B3EB625212D94FEA45
:100A2000C12343F0004343EA505311F0004F23FA2F
:100A300002F018BF404270474FF00000704750EA84
:100A4000013005D111F0004008BF6FF00040704741
:100A50004FF00000704700BF4FEA4102B2F1E0439F
:100A600024BFB3F5001CDCF1FE5C0DD901F0004C95
:100A70004FEAC0024CEA5070B2F1004F40EB8300E5
:100A800008BF20F00100704711F0804F21D113F111
:100A90003872BCBF01F00040704741F480114FEA4A
:100AA0005252C2F11802C2F1200C10FA0CF320FAD3
:100AB00002F018BF40F001004FEAC1234FEAD323F0
:100AC00003FA0CFC40EA0C0023FA02F34FEA43035A
:100AD000CCE77FEA625307D150EA01331EBF4FF0E3
:100AE000FE4040F44000704701F0004040F0FE40FE
:100AF00040F40000704700BF80F0004002E000BFFB
:100B000081F0004142001FBF5FEA410392EA030FF8
:100B10007FEA226C7FEA236C6AD04FEA1262D2EB42
:100B20001363C1BFD218414048404140B8BF5B4247
:100B3000192B88BF704710F0004F40F4000020F0E0
:100B40007F4018BF404211F0004F41F4000121F0F6
:100B50007F4118BF494292EA030F3FD0A2F1010240
:100B600041FA03FC10EB0C00C3F1200301FA03F17E
:100B700000F0004302D5494260EB4000B0F5000FA1
:100B800013D3B0F1807F06D340084FEA310102F160
:100B90000102FE2A51D2B1F1004F40EBC25008BF12
:100BA00020F0010040EA03007047490040EB0000DC
:100BB00010F4000FA2F10102EDD1B0FA80FCACF10B
:100BC000080CB2EB0C0200FA0CF0AABF00EBC2500A
:100BD00052421843BCBFD0401843704792F0000FF8
:100BE00081F4000106BF80F400000132013BB5E74B
:100BF0004FEA41037FEA226C18BF7FEA236C21D0C1
:100C000092EA030F04D092F0000F08BF0846704725
:100C100090EA010F1CBF0020704712F07F4F04D1F3
:100C2000400028BF40F00040704712F100723CBF06
:100C300000F50000704700F0004343F0FE4040F430
:100C4000000070477FEA226216BF08467FEA2363EE
:100C50000146420206BF5FEA412390EA010F40F4D9
:100C6000800070474FF0000304E000BF10F0004325
:100C700048BF40425FEA000C08BF704743F096430C
:100C800001464FF000001CE050EA010208BF704727
:100C90004FF000030AE000BF50EA010208BF7047AE
:100CA00011F0004302D5404261EB41015FEA010CC3
:100CB00002BF84460146002043F0B64308BFA3F1BB
:100CC0008053A3F50003BCFA8CF2083AA3EBC2539D
:100CD00010DB01FA02FC634400FA02FCC2F12002BC
:100CE000BCF1004F20FA02F243EB020008BF20F0F3
:100CF0000100704702F1200201FA02FCC2F1200259
:100D000050EA4C0021FA02F243EB020008BF20EA4D
:100D1000DC7070474FF0FF0C1CEAD0521EBF1CEA7B
:100D2000D15392EA0C0F93EA0C0F6FD01A4480EA69
:100D3000010C400218BF5FEA41211ED04FF0006352
:100D400043EA501043EA5111A0FB01310CF000407E
:100D5000B1F5000F3EBF490041EAD3715B0040EAA4
:100D6000010062F17F02FD2A1DD8B3F1004F40EB74
:100D7000C25008BF20F00100704790F0000F0CF047
:100D8000004C08BF49024CEA502040EA51207F3A0B
:100D9000C2BFD2F1FF0340EAC250704740F40000E6
:100DA0004FF00003013A5DDC12F1190FDCBF00F0D7
:100DB00000407047C2F10002410021FA02F1C2F185
:100DC000200200FA02FC5FEA310040F1000053EA21
:100DD0004C0308BF20EADC70704792F0000F00F06F
:100DE000004C02BF400010F4000F013AF9D040EA75
:100DF0000C0093F0000F01F0004C02BF490011F409
:100E0000000F013BF9D041EA0C018FE70CEAD15306
:100E100092EA0C0F18BF93EA0C0F0AD030F0004C86
:100E200018BF31F0004CD8D180EA010000F000403A
:100E3000704790F0000F17BF90F0004F084691F0F8
:100E4000000F91F0004F14D092EA0C0F01D1420232
:100E50000FD193EA0C0F03D14B0218BF084608D1FB
:100E600080EA010000F0004040F0FE4040F4000045
:100E7000704740F0FE4040F4400070474FF0FF0CD8
:100E80001CEAD0521EBF1CEAD15392EA0C0F93EA1F
:100E90000C0F69D0A2EB030280EA010C49024FEA71
:100EA000402037D04FF0805343EA111143EA10132A
:100EB0000CF000408B4238BF5B0042F17D024FF4E2
:100EC000000C8B4224BF5B1A40EA0C00B3EB510FBD
:100ED00024BFA3EB510340EA5C00B3EB910F24BFA6
:100EE000A3EB910340EA9C00B3EBD10F24BFA3EB2B
:100EF000D10340EADC001B0118BF5FEA1C1CE0D1F3
:100F0000FD2A3FF650AF8B4240EBC25008BF20F0A5
:100F1000010070470CF0004C4CEA50207F32C2BFF9
:100F2000D2F1FF0340EAC250704740F400004FF096
:100F30000003013A37E792F0000F00F0004C02BFC7
:100F4000400010F4000F013AF9D040EA0C0093F091
:100F5000000F01F0004C02BF490011F4000F013BEB
:100F6000F9D041EA0C0195E70CEAD15392EA0C0F53
:100F700008D142027FF47DAF93EA0C0F7FF470AF8B
:100F8000084676E793EA0C0F04D14B023FF44CAFCE
:100F900008466EE730F0004C18BF31F0004CCAD163
:100FA00030F000427FF45CAF31F000437FF43CAF9F
:100FB0005FE700BF4FF0FF3C06E000BF4FF0010CC1
:100FC00002E000BF4FF0010C4DF804CD4FEA4002A3
:100FD0004FEA41037FEA226C18BF7FEA236C11D0ED
:100FE00001B052EA530C18BF90EA010F58BFB2EBA0
:100FF000030088BFC81738BF6FEAE17018BF40F020
:10100000010070477FEA226C02D15FEA402C05D1D3
:101010007FEA236CE4D15FEA412CE1D05DF8040B58
:10102000704700BF844608466146FFE70FB5FFF7EB
:10103000C9FF002848BF10F1000F0FBD4DF808EDA3
:10104000FFF7F4FF0CBF012000205DF808FB00BF94
:101050004DF808EDFFF7EAFF34BF012000205DF8EE
:1010600008FB00BF4DF808EDFFF7E0FF94BF01203B
:1010700000205DF808FB00BF4DF808EDFFF7D2FF38
:1010800094BF012000205DF808FB00BF4DF808ED7B
:10109000FFF7C8FF34BF012000205DF808FB00BF48
:1010A0004FEA4002B2F1FE4F0FD34FF09E03B3EB75
:1010B00012620DD94FEA002343F0004310F0004FB5
:1010C00023FA02F018BF404270474FF0000070470B
:1010D00012F1610F01D1420205D110F0004008BFAA
:1010E0006FF0004070474FF00000704742000ED292
:1010F000B2F1FE4F0BD34FF09E03B3EB126209D453
:101100004FEA002343F0004323FA02F070474FF008
:101110000000704712F1610F01D1420202D14FF07D
:10112000FF3070474FF00000704700BF134A144B68
:10113000516801F00C00042801D0082802D01149A0
:1011400019600EE051685068C1F383410231C00359
:1011500002D55268920301D50B4800E0094841438B
:101160001960064B09495A68054BC2F30310085C25
:101170001A6822FA00F21A60704700BF001002409D
:101180001000002000127A0000093D00000000203D
:101190001FB5614B1A6842F00100186059685F4A38
:1011A0000A405A60186820F0847121F480321A6075
:1011B000186820F4802119605A684FF41F0122F446
:1011C000FE00002258609960019202920392186812
:1011D00040F480311960504B1A6802F400300290DC
:1011E00001994A1C0192029818B90199B1F5A06FB2
:1011F000F1D11B6813F4003218BF01220292029849
:10120000012835D14648016841F0100202600368A8
:1012100023F003010160026842F002030360A0F5BD
:10122000805358685860596859605A6842F4806021
:101230005860596821F47C125A60586840F4E811EB
:1012400059601A6842F0807018601968324A880143
:10125000FBD5536823F003005060516841F002034E
:1012600053602D4A506800F00C010829F9D14DE077
:10127000294900200B6843F001020A600190264BC7
:10128000196801F00202039201981A46411C01916B
:10129000039818B9019BB3F5A06FF0D111681E48EF
:1012A000890733D51E4A136843F010011160136893
:1012B00023F003011160136843F0020111604268DA
:1012C000426043684360416841F480624260436821
:1012D00023F47C114160426842F46013436001686A
:1012E00041F0807202600C4803689A01FBD54168A6
:1012F00021F003024260436843F00201416042680A
:1013000002F00C03082BFAD1FFF710FF054B4FF04A
:1013100000629A6005B000BD001002400000FFF8B6
:101320000020024000ED00E040F0BF60024B40F4BE
:101330000031D960704700BF00ED00E0C37810B500
:1013400003B3164CE168CB43C3F302244178C4F1E4
:10135000040201FA02F10F2222FA04F284780378DF
:1013600022400A43110103F16043CAB203F561410F
:1013700081F800230078012200F01F03410902FADE
:1013800003F007E00078012200F01F03410902FA90
:1013900003F02031024B43F8210010BD00ED00E0C6
:1013A00000E100E0426810B522F470230A6823F4DB
:1013B000807444EA02030C7943EA04224260CB6859
:1013C0008A6884681A43084B234013434A7943EAE6
:1013D00042038360097CC26A4B1E22F47002D9B2B8
:1013E00042EA0152C26210BDFDF7F1FF836811B1FC
:1013F00043F0010101E023F001018160704783683F
:1014000011B143F4807101E023F480718160704771
:10141000836843F00801816070478068C0F3C000B2
:101420007047836843F00401816070478068C0F3AF
:1014300080007047836811B143F4A00101E023F4F8
:10144000A00181607047092970B54FF003040CD9E1
:101450004C4307251E3C05FA04F503FA04F3C6685D
:1014600026EA05052B43C3600BE04C43072505FA2C
:1014700004F503FA04F3066926EA050545EA0304C0
:101480000461062A4FF005030DD8013A53431F2289
:1014900002FA03F201FA03F1446B24EA020242EA7F
:1014A0000103436370BD0C2A0DD853431F22233B15
:1014B00002FA03F201FA03F1046B24EA020242EA9F
:1014C0000103036370BD53431F22413B02FA03F241
:1014D00001FA03F1C46A24EA02021143C16270BD39
:1014E00002684FF6FE73134003602D4B00219842B3
:1014F000016041608160C16022D02A49884229D0C0
:10150000294B984230D02949884237D0284B9842FD
:101510003ED0284B984206D153F8681C41F4700025
:1015200043F8680C70472449884206D151F87C0C76
:1015300040F0706241F87C2C7047204B984206D1F5
:1015400053F8042C42F00F0143F8041C70471C4967
:10155000884206D151F8183C43F0F00041F8180CCD
:101560007047184B984206D153F82C2C42F4706106
:1015700043F82C1C70471449884206D151F8403C6E
:1015800043F4704041F8400C7047104B984205D12D
:1015900053F8542C42F4702143F8541C704700BF98
:1015A000080002401C00024030000240440002409B
:1015B000580002406C0002408000024008040240D3
:1015C0001C0402403004024044040240580402401B
:1015D00070B506688C680D6A26F4FF4222F070062A
:1015E0000A6945EA04034C6913438A692343CC69B9
:1015F00013431C434B6A44EA03028B6A1A43324387
:101600000260CB680A68496843608260C16070BD4F
:1016100019B1016841F0010303E002684FF6FE735F
:1016200013400360704703680AB1194301E023EADD
:10163000010101607047406880B27047C3004CBF31
:10164000014B024B5860704700040240000002400A
:10165000837910B5002B29D01A4B01681C68CA4346
:1016600014401C605C6822405A60027902F1804498
:1016700004F5823214682143116002689C68D143EA
:101680000C409C60DC68407921401028D96006D16C
:10169000986810439860D9680A43DA6010BD00F179
:1016A000804303F5823319680A4308E00179006832
:1016B00001F1804202F582331A6822EA00021A60C0
:1016C00010BD00BF00040140064B1A68596910EABA
:1016D000010304D010420CBF0020012070471846BF
:1016E000704700BF00040140014B5861704700BFC4
:1016F00000040140034A044B02F188305A605860EC
:10170000704700BF2301674500200240024B1A6961
:1017100042F080001861704700200240014BD86001
:10172000704700BF00200240084BDA68D20709D496
:10173000D868400708D4D96811F0100F0CBF0420F6
:1017400003207047012070470220704700200240AC
:1017500010B50446FFF7E8FF012806D11CB1FFF7DA
:10176000E3FF013CF8E7052010BD002C08BF052071
:1017700010BD000073B5002306464FF400500D461F
:101780000193FFF7E5FF04281AD10E4CAAB2206995
:1017900040F0010121614FF400503280FFF7D8FF83
:1017A000042808D102360196019B2D0C1D804FF4B0
:1017B0000050FFF7CDFF216941F6FE720A40226119
:1017C0007CBD00BF0020024038B505464FF43020F4
:1017D000FFF7BEFF042812D1094C236943F0020031
:1017E0002061656121694FF4302041F0400222619F
:1017F000FFF7AEFF216941F6FD730B40236138BD51
:1018000000200240CB78F0B5DA0648BF8A78098814
:1018100003F00F0548BF154311F0FF0F1ED00468F9
:101820000022012707FA02F707EA0106BE4211D19A
:1018300097004FF00F0C0CFA07FC05FA07F724EAA3
:101840000C04282B44EA070401D1466102E0482B2E
:1018500008BF06610132082AE3D10460FF2920D9BC
:101860004468002202F10806012707FA06F707EA92
:101870000106BE4211D197004FF00F0C0CFA07FC85
:1018800005FA07F724EA0C04282B44EA070401D1DF
:10189000466102E0482B08BF06610132082AE1D107
:1018A0004460F0BD4FF6FF73022104220380817073
:1018B000C2707047836819420CBF00200120704736
:1018C00001617047416170470028174B30B500F443
:1018D0004014B4BFDB695B68B4F5401F82B207D126
:1018E000114C23F07063656825F0706565600FE04A
:1018F000C40205D5C0F30344032505FA04F403E04C
:10190000440D240102FA04F423EA040343F0706353
:1019100021B1410D090102FA01F2134300280248E6
:10192000B4BFC361436030BD0000014001F0030259
:1019300030B592000F2404FA02F400FA02F0074BCB
:101940008908023153F8215025EA040443F8214064
:1019500053F82140044343F8214030BD00000140CA
:1019600008B50B4B984207D14FF40010012100F04D
:1019700039F94FF4001006E04FF48000012100F027
:1019800031F94FF480000021BDE8084000F02AB989
:1019900000540040F0B58688044687B026F03F002A
:1019A0000D46010401A80E0C00F0B2F82C4A039970
:1019B000B1FBF2F087B23E43A680238823F00102F8
:1019C00013041A0C22802B68264A93420AD85B0023
:1019D000B1FBF3F0013783B2BFB22784032B98BF6A
:1019E000042320E0EE884BF6FF72964204D10322D6
:1019F0005343B1FBF3F305E019225343B1FBF3F179
:101A000041F4804399B20A054FF4967208BF41F041
:101A10000101504341F400434FF47A7190FBF1F01F
:101A2000421C91B22184A383228891B241F0010328
:101A30002380208820F4816222F002010B04AA880E
:101A40006989180C41EA02032989AA89184380B2DE
:101A500041EA0203208098B2208107B0F0BD00BFA8
:101A600040420F00A086010041F28833002103604C
:101A70004BF6FF724FF480438180C2800181418127
:101A800083817047038819B199B241F0010303E0E3
:101A900023F001010A04130C03807047038819B175
:101AA00099B241F4807303E023F480710A04130CAB
:101AB00003807047038819B199B241F4007303E0C1
:101AC00023F400710A04130C03807047038819B1D2
:101AD00099B241F4806303E023F480610A04130C9B
:101AE0000380704783889BB20AB1194301E023EA5F
:101AF00001018180704701827047008AC0B270473F
:101B000012B141F0010101E001F0FE0101827047D4
:101B10001D4B10B55A6802F00C01042901D00829A8
:101B200002D01A4A02600EE05C685968C4F383422E
:101B3000941CC90302D55B689B0301D5144900E0DE
:101B400012494C430460104B12495C68C4F3031201
:101B50008C5C026822FA04F242605C68C4F30224DE
:101B60000C5D22FA04F484605C68C4F3C224095D4D
:101B700022FA01F2C2605B680749C3F38133CB5C90
:101B8000B2FBF3F2026110BD0010024000127A00B5
:101B900000093D001800002014000020044B5A6981
:101BA00009B1104301E022EA00005861704700BF0C
:101BB00000100240044B9A6909B1104301E022EA87
:101BC00000009861704700BF00100240044BDA69C2
:101BD00009B1104301E022EA0000D861704700BF5C
:101BE00000100240044B1A6909B1104301E022EAD7
:101BF00000001861704700BF00100240024B5A6A93
:101C000042F08070586270470010024030B5048C7A
:101C100024F001052C04250C0584048BA5B225F0C5
:101C2000F3052A4342EA0313114A048C9042A4B2FA
:101C30009DB215D002F50063984211D0B0F1804FEB
:101C40000ED0A3F5983290420AD002F580639842F4
:101C500006D003F58062904218BF24F00A0401D137
:101C600024F0020444F0010421430583018430BDC3
:101C7000002C014030B5048C24F010052C04250CF8
:101C80000584048B058C24F440742405240D44EA57
:101C9000022242EA0333144AADB290429BB212D000
:101CA00002F5006290420ED0B0F1804F0BD0A2F549
:101CB0009832904207D002F58062904203D002F53C
:101CC0008062904207D125F0200242F0100545EADB
:101CD000011189B204E025F0A00545F01005294363
:101CE0000383018430BD00BF002C0140224A0388D9
:101CF00090429BB212D002F5006290420ED0B0F139
:101D0000804F0BD0A2F59832904207D002F5806246
:101D1000904203D002F58062904203D14A8823F0BA
:101D200070031343154A904208D002F58062904236
:101D300004D023F44073CA889BB2134303808B887A
:101D40000A8883850C4B028598420FD003F5006208
:101D500090420BD002F54063984207D003F58062B1
:101D6000904203D002F58063984201D1097A01863E
:101D700001228282704700BF002C01400010004009
:101D8000038C70B523F001021404250C0584068C25
:101D90008388028B9CB222F073052B040D881A0CE9
:101DA00026F0020633042A434E880D891B0C354366
:101DB000ADB22B43134DA8420FD005F50065A842E4
:101DC0000BD005F54065A84207D005F58065A8420F
:101DD00003D005F58065A8420ED123F008064B8993
:101DE0008D881E4326F004032B43CE898D8924F46D
:101DF00040743543ADB22C43C98884800283818608
:101E0000038470BD002C0140038C30B523F0100218
:101E10001404250C0584038C8288048B23F0200392
:101E200024F4E6452C040D88240C44EA05241D0402
:101E30002B0C0D8992B243EA05134D88A4B243EAF4
:101E40000513124D9BB2A84203D005F50065A842C8
:101E500015D14D8923F080039BB243EA05134FF659
:101E6000BF751D408B8822F4406245EA0315ABB272
:101E70008D8942EA8502CD8942EA850292B2C988FB
:101E8000828004830187038430BD00BF002C0140A1
:101E9000038C30B523F480721404250C0584038C64
:101EA0008288848B23F4007324F073052C040D883E
:101EB000240C2C431D042B0C0D8992B243EA0523FC
:101EC0004D8843EA0523124D9BB2A84203D005F585
:101ED0000065A84215D14D8923F400639BB243EA03
:101EE00005234FF6FF351D408B8822F4405245EA0A
:101EF0000325ABB28D8942EA0512CD8942EA05126B
:101F000092B2C988828084838187038430BD00BFF8
:101F1000002C0140038C30B523F480521404250CAE
:101F20000584038C8288858B94B225F4E6421504DF
:101F30002A0C0D8823F4005342EA05221D042B0CC1
:101F40000D8992B243EA05334D8843EA05330A4DC1
:101F50009BB2A84203D005F50065A84205D18D8942
:101F600024F4804444EA8514A4B2C988848082831E
:101F7000A0F84010038430BD002C014000214FF632
:101F8000FF7383800180C18041800172704700230C
:101F9000038043808380C380038143818381C38125
:101FA000704700230122038043808280C380038125
:101FB0007047038819B199B241F0010303E023F09F
:101FC00001010A04130C03807047B0F8443029B1B2
:101FD0006FEA43436FEA53418AB201E059044A0C65
:101FE000A0F84420704783899BB20AB1194301E0ED
:101FF00023EA010181817047038B23F00802130457
:102000001A0C114301837047038B23F400621304FD
:102010001A0C42EA01218BB203837047838B23F0B1
:10202000080213041A0C114381837047838B23F435
:10203000006213041A0C42EA01218BB283837047B9
:10204000038B23F00C0213041A0C0283038B9AB245
:10205000114301837047038B23F4406213041A0C6D
:102060000283038B9AB242EA01218BB20383704749
:10207000838B23F00C0213041A0C8283838B9AB295
:10208000114381837047838B23F4406213041A0C3D
:102090008283838B9AB242EA01218BB28383704799
:1020A000F8B50B880D4604464988AA8843B92B89A0
:1020B000FFF7ACFDE9882046BDE8F840FFF7C0BF58
:1020C000042B08D12B89FFF7D5FDE9882046BDE810
:1020D000F840FFF7C0BF082B0E462F89008C3BD17C
:1020E00020F480731804030C2384A08B83B223F0A4
:1020F000F30343EA0717374B208CBFB29C4280B2F0
:1021000047EA020212D003F500639C420ED0B4F1FC
:10211000804F0BD0A3F598339C4207D003F5806322
:102120009C4203D003F580639C4207D120F40070E9
:1021300040EA06218BB243F4807305E020F420606E
:1021400041F4807140EA0103E9882046A283238498
:10215000BDE8F840FFF78CBF20F480531804030C4F
:102160002384A38B208C23F440731B051B0D43EAAF
:10217000022242EA0733174A80B294429BB212D03D
:1021800002F5006294420ED0B4F1804F0BD0A2F55C
:102190009832944207D002F58062944203D002F54F
:1021A0008062944207D120F4005040EA063291B296
:1021B00041F4805205E047F6FF52024041F480515D
:1021C0000A43E9882046A3832284BDE8F840FFF74C
:1021D0005ABF00BF002C0140808E80B27047008F34
:1021E00080B27047808F80B27047B0F8400080B2F4
:1021F0007047038A828911EA030092B203D0114228
:102200000CBF002001207047C9438AB20282704788
:10221000038A30B50D460446EA8898B220F440514E
:1022200011432182A3892889A98823F4B05340EA65
:102230000102688923F00C0102430804030C1A43CD
:1022400091B2A181A08AAA8983B223F4407187B098
:102250001143A18201A8FFF75BFC1848A3898442BF
:102260000CBF0498039819B200294FF019032A688B
:1022700003FB00F001DA510000E09100B0FBF1F146
:102280006423B1FBF3F21201100903FB1011A089C2
:1022900000B2002806DAC9003231B1FBF3F303F0D3
:1022A000070005E009013231B1FBF3F303F00F0041
:1022B000024390B2208107B030BD00BF003801401A
:1022C00000214FF416530C2203608180C1800181EC
:1022D000428181817047838919B199B241F40053D9
:1022E00003E023F400510A04130C83817047C1F307
:1022F000421310B5012401F01F01A34204FA01F1B9
:1023000001D10C3004E0022B01D1103000E0143078
:10231000036812B143EA010201E023EA010202600C
:1023200010BD838A9BB20AB1194301E023EA01017F
:10233000818270478088C105C80D70470000000089
:102340002DE9F74F834608461446FEF76FF85CA365
:10235000D3E90023FEF7BEF85B4A04F10045D2F84A
:102360000090FEF779FB4946FEF7CAFB014620467E
:10237000FEF7D0FC554B1968FEF7C4FBDFF878C1B7
:1023800082465348DCF80070D0F800803846414659
:10239000CDF800C0FEF7B6FB01462846FEF7BAFCB2
:1023A0004C49064609682046FEF7B4FC0146304613
:1023B000FEF7A8FB484A1168FEF7A4FB474B064608
:1023C0001A68284611460192FEF7A4FC05462946E4
:1023D0004046FEF797FB294680463846FEF792FBBB
:1023E000074620463E4C3F4D2168FEF793FC0146D0
:1023F0000198FEF787FB5146034658460193FEF7C6
:102400007FFB394A39498346086011683046FEF738
:1024100079FB0446286021463046FEF72FFD05462D
:102420003348214605603846FEF728FD314B044607
:10243000186059462846FEF76DFC01465046FEF7E7
:1024400061FB22498246086059462046FEF762FC3D
:1024500001464846FEF756FB1B4A314610602846A7
:10246000FEF758FC01463046FEF74AFB06461A487E
:10247000414606602846FEF74DFC01464046FEF701
:102480003FFB134B0546186031462046FEF742FCE1
:1024900001463846FEF734FBDDF800C02946CCF88B
:1024A00000002046FEF736FC019A01461046FEF772
:1024B00027FB0A4908605046BDE8FE8FAFF3008055
:1024C000FCA9F1D24D62303FCC040020C8040020AA
:1024D000D40400202C000020D0040020C4040020DC
:1024E00028000020A80C002030000020AC0C0020A8
:1024F000B80C0020B00C0020C0040020AFF3008016
:10250000F8B5194C06462378274683B903F0ACF892
:10251000164D2A683232904209D3154801224FF4F1
:1025200080512270416103F09FF82860F8BD38782F
:10253000C0B103F099F80D4C21687318984211D37B
:1025400009480B4B00224FF480510270196103F0CF
:102550008BF82060074802780AB1511E0170064BC3
:1025600001201870F8BD00BFDA040020E00400204C
:1025700000080140700B0020DB04002037B58DF807
:10258000051021498DF807300B788DF8040002A85A
:102590008DF80620C21812F8044C0D46443CE0B2F7
:1025A0000A282CD81949022B31F8104003D814B14D
:1025B0002046FFF7A5FF2B78022B0BD9144D2D6871
:1025C00003F052F8021B954204D20F49114B002030
:1025D00008701870104802780146012A00D094B99A
:1025E000094B1878022801D8421C1A7000230B707E
:1025F0000A4A0B494FF480500B70106103E03224FB
:10260000022BD5D9D7E73EBDD80400206CE90008DD
:10261000E0040020700B0020DB04002000080140D3
:10262000DA0400202DE9F0413E4B0446DA7A3E48B8
:1026300002B1012202704FF4007000F0ADFFD8B17A
:102640003A4E3B4996F89F50052000FB05F20B8857
:1026500019B291420DDD374F374A7F783FB196F876
:10266000A0600127AD1968438142177001DD022186
:1026700011700BB930480370102000F06DFF60B18D
:10268000284A2E4BD17909B9107A20B1294AD17A3A
:1026900009B9012000E000201870274B1A78022A9F
:1026A00002D14C204E211EE0012A07D14D2153209A
:1026B0004C220B46BDE8F041FFF760BF1F49087888
:1026C000012803D1532001464E2206E0164B1A780A
:1026D000012A04D15320014602464D23EAE7042C87
:1026E00003D153204D210A460AE0022C03D1532086
:1026F00001464D2204E0012C04D153204D214E22ED
:102700004423D7E70E49087820B13220BDE8F041D4
:10271000FFF7F6BE0B4B0C494FF4805218700A615C
:10272000BDE8F08106130020DC040020BC0C002072
:10273000A40A0020A6120020D9040020DD040020F5
:10274000700B0020DA0400200008014070B5064636
:10275000B6FBF2F40846154614B12046FFF7F6FF23
:1027600005FB1464024B195D00F8011B70BD00BF2E
:102770009CEA0008000000002DE9F04702780346BB
:102780000130202AFAD0092AF8D02D2A03D1034695
:102790000026614F04E02B2A604F08BF0346002645
:1027A000984600240025434618F8010BA0F1300993
:1027B0005FFA89F1092913D80022594B204629468E
:1027C000FDF788FE044648460D46FDF71DFE02460D
:1027D0000B4620462946FDF7CBFC04460D46E2E7B2
:1027E0002E2822D1DFF83891C2464FF00008534618
:1027F0001AF8010B3038C2B2092A16D8FDF704FEC8
:1028000042464B46FDF790FF02460B4620462946BE
:10281000FDF7AEFC002204460D4640464946404BBB
:10282000FDF758FE80468946E1E71878652801D013
:10283000452858D159782D2903D102334FF0010989
:1028400006E02B2901D0013300E002334FF00009EC
:10285000013B4FF0000813F8012F303AD0B209289D
:1028600003D80A2101FB0828F5E72C4BB8F59A7F1D
:1028700028BF4FF49A780022B8F1310F0BD91046D7
:10288000194621A3D3E90023FDF724FEA8F132085D
:1028900002460B46F0E7C246B8F1070F0BD91046C7
:1028A00019461BA3D3E90023FDF714FEA8F108087D
:1028B00002460B46F0E70AF00708B8F1000F0AD00D
:1028C000104619460022164BFDF704FE08F1FF38AA
:1028D00002460B46F1E7B9F1000F06D02046294623
:1028E000FDF722FF05E00D4B002220462946FDF7AB
:1028F000F1FD02460B4630463946FDF7EBFDFEF78B
:10290000ABF8BDE8F08700BF9A647EC50E1B514A44
:102910000000000084D797410000F0BF0000F03FA6
:1029200000002440AFF30080014803F0ADB800BFC1
:10293000C1EA000810B5074803F0A6F80024064BCA
:1029400006481A19E15852680C3406F093FE842C9C
:10295000F5D110BDEFEA000804EA000805EB000815
:1029600038B502F081FE204C204B4FF47A71B0FB59
:10297000F1F11A781E48237806F07CFE00F006FE7E
:1029800005461C481C4902681C48B2FBF1F106F0E0
:1029900071FE00241A4B53F8241051B1012000FAA3
:1029A00004F0284202D0174806F064FE0134E4B275
:1029B000F0E7012000F0D0FD38B1134A134B117835
:1029C000134853F8211006F055FE124803F05CF846
:1029D0001148048801F0E2FE024610482146BDE895
:1029E000384006F047BE00BF5C000020F012002017
:1029F0000DEB00081000002040420F004BEB0008D8
:102A00004CF5000869EB0008F80B002088EA000884
:102A10006DEB0008D8EC0008580B002077EB00089D
:102A2000F8B507460BF0B0FD10F0FF0F07D11D4AB7
:102A30001D4853791D4A591E52F821102BE0C6B289
:102A40001B49384632460BF0CFFD044670B9194891
:102A500003F01AF8154951F8241029B11648013429
:102A600006F008FEE4B2F5E7144805E000240F4B39
:102A700053F8245025B91248BDE8F84003F004B8D3
:102A80003846294632460BF0AFFD013438B90548C7
:102A9000294644710B48BDE8F84006F0EBBDE4B2AE
:102AA000E5E700BFBC0C002098EB0008B8E900087F
:102AB000DBF30008ACEB000869EB0008D8EC000879
:102AC000BFEB0008D7EB000838B50C680546204678
:102AD0000BF05AFD024628682146BDE838400BF04D
:102AE00083BD000008B5084802F0CEFF002000F0CA
:102AF000EBFC064802F0C8FF0A2002F0C6FD0020E9
:102B0000BDE8084002F078BEE9EB0008F3EB0008EE
:102B10007FB504460BF038FD082824D100231E4958
:102B2000E25C086885186E7806F00301022908BF88
:102B3000203AE2540133082BF1D10025665D174895
:102B400031460BF045FC28B10135601931460BF0D8
:102B50003FFC18B1124802F097FF1CE0082DEDD1A0
:102B6000204600F025FC0F4802F08EFF00230E4A9D
:102B700004A9981890F88C208818084A995C0133A9
:102B8000082B00F80C1CF2D100208DF80C0001A9D4
:102B9000064806F06FFD7FBD740000200CFD0008A4
:102BA00002EC000822EC0008BC0C002008EB000836
:102BB0002DE9F04105460BF0E7FC044600F03EFE2F
:102BC000064694B92A4802F05FFF2A4951F82410BA
:102BD00049B1012202FA04F2324202D0264806F03C
:102BE00049FD0134F1E7254821E0284624492246E1
:102BF0000BF0FAFC58B9234802F046FF224C54F877
:102C0000041F0029EFD01C4806F034FDF7E72B78AD
:102C10002D2B04D10135013C4FF0010801E04FF0AC
:102C200000080026134850F8267027B91748BDE859
:102C3000F04102F029BF2846394622460BF0D4FC69
:102C4000A0B9012000FA06F0B8F1000F03D000F09F
:102C5000EDFD0F4802E000F0A9FC0E4802F014FF61
:102C60000D483946BDE8F04106F004BD0136D9E70C
:102C700037EC000884E9000869EB0008D8EC00088C
:102C8000DBF300084AEC000880E900085FEC00086C
:102C900079EC000883EC000808EB000810B5044646
:102CA000084802F0F1FE3022002107480BF0D4FA68
:102CB00006480023064A037020461360BDE8104012
:102CC000FFF710BF8CEC0008E4040020180C002073
:102CD0001405002008B5084802F0D6FE012000F0D7
:102CE0006DFC064802F0D0FE0A2002F0CEFC002067
:102CF000BDE8084002F080BDA4EC0008F5EB000838
:102D0000931E222B88BF0A22031E10B50C4603DA3D
:102D10002D2001F8010B5842FFF718FD002101702A
:102D2000204610BD30B587B005460C4603A80021EB
:102D30000C220BF091FA28460021FEF7A7F920B1EA
:102D400028462949FDF7DEFE03E028462649FDF71F
:102D5000D7FE2649FDF7DEFFFEF7A2F9054685EA14
:102D6000E570A0EBE5700A226946FFF7C9FF002D68
:102D700001DB202300E02D2368468DF80C300BF09A
:102D800003FC012807D130228DF80D208DF80E208C
:102D90008DF80F200CE0022805D130218DF80D10A0
:102DA0008DF80E1004E0032802D130208DF80D00BC
:102DB000694603A80BF0E6FA03A80BF0E5FBC51E75
:102DC000EDB22A4603A920460BF07CFC0023635594
:102DD000204607490BF0D6FA03A9204649190BF003
:102DE000D1FA204607B030BD6F12033A00007A4492
:102DF00000EC000837B5037904460D46052B34D89E
:102E0000DFE803F003060A0D1114816809782DE04C
:102E1000806890F9001029E08368198826E08268AC
:102E2000B2F9001022E0816809681FE080686946F5
:102E30000068FFF777FF0146114806F01BFCF5B16B
:102E4000E068FDF713FF6946FFF76CFF01460D4888
:102E500006F010FC2069FDF709FF6946FFF762FFE5
:102E60000146084806F006FC09E00021064806F085
:102E700001FC25B10548E168226906F0FBFB3EBD77
:102E800074EB000873EB0008C3EC0008BFEC00080B
:102E90002DE9F04707460BF077FB054620B10128E6
:102EA00019D13B782A2B16D13B4802F0EDFD0024C6
:102EB00014266643394F3A48F15906F0DBFBB8193E
:102EC0002946FFF797FF0134364802F0DDFD622CFA
:102ED000EED1BDE8F08738463D210BF079FA0028A5
:102EE00057D0441C20460BF06DF881462046FFF772
:102EF00043FC0025064614246C43DFF8A0A054F8D8
:102F00000A8040460BF040FB4146024638460BF033
:102F10006BFB002835D15444E068FDF7A7FE01465D
:102F20003046FEF7A9F8002829D02069FDF79EFE5B
:102F300001463046FEF796F8002820D02279052A6F
:102F40000CBF30464846052A0FD8DFE802F00303DD
:102F50000606090CA168087007E0A268108004E06A
:102F6000A368186001E0A168086041460E4806F0B9
:102F700081FB20460021BDE8F047FFF73BBF0B482F
:102F800003E00135622DB6D10948BDE8F04702F0F3
:102F90007BBDBDE8F08700BFC6EC000864F5000803
:102FA000DBEC0008D8EC0008E1EC0008ECEC0008D1
:102FB00011ED00082DE9F04389B004460BF0E4FA66
:102FC000C5B2002D76D17A4802F05EFD794C00261C
:102FD000D4F80C013146FEF731F838B1DDF8048041
:102FE000029F039E744C4FF000092FE001AF47F899
:102FF000256001357148294606F03CFBD4F80C01E8
:1030000004A9FFF78FFE01466D4806F033FBD4F8A4
:10301000100104A9FFF786FE0146694806F02AFB65
:10302000D4F8140104A9FFF77DFE0146644806F0B8
:1030300021FBD4F8180104A9FFF774FE014661488A
:1030400006F018FB10340C2DC1D1C7E71034A94588
:1030500014DA404654F8101CFDF754FD54F80C1CCB
:1030600080463846FDF74EFD54F8081C07463046AA
:10307000FDF748FD09F101090646E7E75248CDF89A
:1030800004800297039602F0FFFC002401A9625815
:103090004E4922F00040FDF7F9FF4D4B4D490434F5
:1030A000002814BF0846184602F0EEFC0C2CEDD1A7
:1030B000494865E02046494904220BF095FA054647
:1030C000204605BB20210BF083F900286DD0461C5B
:1030D00030460BF059FA2C460746414850F8245028
:1030E0000DB940484CE030462946FAB20BF07CFA64
:1030F00038B9204604F03CFE3B48294606F0BAFAAF
:103100004BE00134E9E70AF05DFF461E0B2E48DC78
:10311000204620210BF05CF9054650B1451C28469D
:10312000FFF72AFB234B012403EB0611C1F80C0126
:1031300000E00446284620210BF04AF9054648B134
:10314000451C2846FFF718FB1A4A013402EB061308
:10315000C3F81001284620210BF03AF9054648B182
:10316000451C2846FFF708FB1249013401EB061203
:10317000C2F81401284620210BF02AF918B91B487F
:1031800002F082FC11E00130FFF7F6FA094B032C44
:1031900003EB0616C6F81801F1D11548FFF70AFF30
:1031A00003E014480C2106F065FA09B0BDE8F0838D
:1031B00036ED0008BC0C0020CC0D002061ED0008AD
:1031C00067ED000808EB00086BED00080AD7233C08
:1031D00032ED00082EED0008D8EC00087AED00086A
:1031E000B8E90008BFEB00087FED000892ED000889
:1031F00065EE0008CCED0008F0B5604B87B01A789A
:103200003AB9012018705E4802F03EFC5D4802F0B9
:103210003BFC02F0FBFB002800F0AE8002F010FC4B
:103220000928594901D03F284AD100250F68574C39
:103230002E46554802681AB925463EB9264605E08D
:10324000534821680BF0D0F90028F5D051490C34CF
:103250008C42EED396B14C4B30682C681B68C15C35
:10326000E25C8A4208D14A491AB92020C854013385
:1032700002E0CA540133F2E7434C2360424A11682A
:1032800019B1AE4201D13C4610E0434802F0FCFBCC
:10329000AE4207D856F80C0B02F0F6FB092002F0FC
:1032A000DFFBF5E7374802F0EFFB0024364B1868E8
:1032B0008442AED2364A105D02F0D2FB0134F5E70B
:1032C0000B68EBB9042803D13148FFF7E7FC53E062
:1032D0000C2801D1314897E77F2802D199E72F2B9D
:1032E00097D81F2895D97E2893D80BB9202890D03D
:1032F0002749254AC8540133136002F0B1FB88E71F
:103300000C28E7D00A2801D00D282CD11E4D2448C6
:1033100002F0BAFB1E4C2868224900232354049370
:10332000009103A819490B220C2303940AF04EFEC6
:10333000054638B100680BF027F9421CAB68A018AD
:10334000984702E0184802F09FFB00213022104805
:103350000AF082FF094A0C49137800200860002B0C
:103360007FF454AF08E07F28B9D1581E084A08609E
:10337000002111540D484AE707B0F0BD180C002099
:10338000F4ED00082CEE00081405002004EA000803
:10339000E404002088EA000831EE000836EE000858
:1033A000D8EC0008C92A000841EE000862EE0008C7
:1033B00070B50546441E14F8011F61B1064E304633
:1033C0000BF006F80028F6D0861B0448631B811911
:1033D00081F88C30EFE770BD0CFD0008BC0C0020BC
:1033E0002DE9F047344C354920464FF4E8720AF095
:1033F00085FE94F82D5094F82C00002303FB03F174
:103400001939694301F6C4165E43464340F6C412B7
:103410002B4F96FBF2F127F813100133062BEDD159
:10342000254C0A2794F82E0094F82F604743B4F8EF
:10343000A450B4F8A690C0F1640842425FFA88F83C
:10344000C6F1640CC5EB090994B2002322B2002A2C
:1034500004DCB8BF014602DB012100E0414602FB6B
:1034600002FA49430AFB06FE9EFBF1F16144514317
:103470004FF00A0A91FBFAF2B9180AB202FB09F1FD
:103480004FF47A7291FBF2F10E4A691899520233A5
:103490005444162BA4B2D9D10748B0F8C810B0F8DC
:1034A000CA20914204D3B0F8CC208A4228BF0A46F1
:1034B000A0F8C820BDE8F087BC0C002000FC010883
:1034C0002E130020BC1200201F4A38B5252313708C
:1034D000EF2382F8CC31054600234FF4E870BE217B
:1034E0005080117182F8CD311A461749585C01336A
:1034F000B3F5E87F82EA0002F7D181F8CD21FEF72B
:10350000F9F83420FEF70AF91048FEF75DF90428AF
:103510000BD0FEF7FBF8FFF763FF9DB10F201421DE
:103520000122BDE8384004F001BF084C084A20469B
:10353000A158FEF71FF90428EBD1064904348C4248
:10354000F4D1E6E738BD00BFBC0C002000FC010848
:10355000BC10FE17D0FD0108034B196808420CBFD0
:1035600000200120704700BF18050020024B1A6898
:1035700010431860704700BF18050020024B1A68FE
:1035800022EA00001860704718050020014B1868F7
:10359000704700BF18050020034B996808420CBF14
:1035A00000200120704700BFBC0C0020024B9A682D
:1035B00010439860704700BFBC0C00202DE9F04F0D
:1035C000924B85B01A78252A14D15988B1F5E87F35
:1035D00010D11A79BE2A0DD193F8CC11EF2909D157
:1035E000002213F8011B4A4089498B42F9D1002A75
:1035F00000F00581874C01AD206861684FF4E872E6
:1036000003C5207A844C2870002120460AF024FE4D
:10361000252603270220267067710B26FFF7C6FFB9
:10362000172284F8222084F82320372166740F2083
:10363000A6740822462628232D252174E076627779
:103640000E21A2196675412001AEA373E373A5761E
:10365000072784F8275021755025A37584F82D007D
:103660005A2303CEC4F84600516031784FF01E084B
:103670004FF0000984F8257084F8285014270A2593
:1036800084F82C304FF0320A04232A20117284F877
:10369000188084F8503015226049614B84F81980F5
:1036A000E774A777E57784F8297084F82EA084F86A
:1036B0004F9084F85150A4F85200202084F85D20E7
:1036C00084F86800574A212001264FF4C87B216600
:1036D00063666E212B2384F88A005348A26584F820
:1036E000881084F88930A4F854B084F85C60FFF73F
:1036F0005FFE40F24C4202F54871A4F89A20A4F80B
:103700009C104FF4966240F27E41A4F8A220A4F8E7
:10371000A41001F52F724FF47A7140F2DC53C820E7
:10372000A4F8A620A4F8A8104FF4FA624FF47F7111
:103730004FF0FF0CA4F8983084F8A000A4F8C8302B
:10374000A4F8CA10A4F8CE10A4F8D030A4F8D4106D
:10375000A4F8D630A4F8E210A4F8E630A4F8E810F3
:1037600084F8967084F89F50A4F8AAB0A4F8ACA08E
:1037700084F8C660A4F8CC20A4F8D220A4F8D820FD
:1037800084F8DA6084F8DBC084F8DC6084F8DD60FB
:1037900084F8DE5084F8DF5084F8E060A4F8E42078
:1037A0004FF49671A4F8EA20A4F8EC30A4F8F400E1
:1037B0004FF4E1336420C4F8F030C4F8003184F8E9
:1037C000EE9084F8F67084F8F78084F8F860A4F836
:1037D000FA00A4F8FC10A4F80451A4F80651A4F8C7
:1037E00008714B46E21810330020C02BC2F80C01C0
:1037F000F8D1002005B0BDE8F04FFFF765BE002806
:103800007FF4F8AE05B0BDE8F08F00BF00FC010802
:10381000D0FD01083CE90008BC0C00209A99193F32
:10382000F6287C3F0314140015FD0008024B9A682B
:1038300022EA000098607047BC0C0020014B986899
:10384000704700BFBC0C00202DE9F041057890B016
:1038500000350646334818BF0125FDF741FE002418
:103860003148A542314B0CBF2146802106904FF4D0
:1038700000500CBF4FF001084FF002084FF4807267
:1038800005930A9120234FF480670E9005A92548DF
:103890000B920D930C970794CDF8208009940F9408
:1038A000FDF796FE1F480121FDF7B2FE4FF460219F
:1038B000012702911E48694600948DF804508DF846
:1038C000057003948DF81080FDF76CFD18480421F5
:1038D0003A460323FDF7B7FD2DB115483178022292
:1038E0000323FDF7B0FD12480121FDF788FD1048C4
:1038F0000121FDF77BFD0E48FDF78AFD0C48FDF721
:103900008CFD0028FAD10A48FDF78BFD0848FDF729
:103910008DFD0028FAD106480121FDF78BFD10B07E
:10392000BDE8F081080002401C0500204C24014045
:1039300000240140024B33F8100080B2704700BFF2
:103940001C050020704700002E4B2DE9F341054671
:103950001878002838D0002426462746A046322171
:10396000082253206B4600F0E3FD9DF801109DF8FE
:103970000000013400EB01239DF803109DF80200C4
:103980001AB200EB01239DF805109DF80400E4B283
:1039900090441AB200EB01239DF80710BF18202CA9
:1039A0001AB2164401F07F0001D00028D7D1164B7F
:1039B00098FBF4F897FBF4F796FBF4F6A5F8008073
:1039C0006F80AE801C701AE0322106226B465320B5
:1039D00000F0AEFD9DF801209DF800109DF8030059
:1039E00001EB02239DF802202B8002EB00219DF8C1
:1039F00004309DF80500698003EB0022AA80BDE831
:103A0000FC8100BF200500202105002008B5134BD4
:103A100053201B782D2108227BB100F05BFE312161
:103A20000A22532000F056FE2C210C22532000F0D5
:103A300051FE53203821902209E000F04BFE312145
:103A40000A22532000F046FE53202C210A2200F0C7
:103A500041FE034840F20912028008BD2005002003
:103A60005E00002073B5002402AB06460D4603F845
:103A7000014D53202146012200F05AFD78B19DF8F6
:103A80000730E52B0AD13278054806490270064B0B
:103A9000064A29606B60AA60012000E020467CBDD8
:103AA000200500200D3A0008493900084539000872
:103AB0002C4B70B519882C4B5A891C89881A604385
:103AC000B3F91260B3F91420C513F102A81891FBE1
:103AD000F0F42D19A5F57A6202FB02F6DD613113CF
:103AE000B3F90250B3F904605543B3F90E40724381
:103AF000B3F90C604C437143091401EB6232911C21
:103B00008A10D98802F50042B3F920004A43B3F97C
:103B10000030E91201EBE42101EB830303FA00F327
:103B2000991C124BD20B1B68A3EBA1014CF2503332
:103B300043FA00F34B4303D45900B1FBF2F302E024
:103B4000B3FBF2F043001A125243094940F6DE304B
:103B5000594350430A1402EB204000F6CF6103EBB7
:103B6000211070BD52050020280500204C050020C2
:103B700043E3FFFF104B07B5187818B90F490A88BF
:103B8000531C0B80F621032201AB772000F0D0FC00
:103B90009DF805109DF804000A02094942EA004018
:103BA0009DF80630B1F920201843C2F1080320FA2D
:103BB00003F0044908600EBD220500202405002002
:103BC000280500204C0500200B4B07B5187818B9C4
:103BD0000A490A88531C0B80F621022201AB772088
:103BE00000F0A6FC9DF804009DF80510044B41EA86
:103BF00000221A800EBD00BF2205002024050020EF
:103C000052050020064B074893F82020002192011E
:103C10003432017002F0FC027720F42100F05ABD2A
:103C20002805002022050020034B00221A7077206F
:103C3000F4212E2200F04EBD2205002010B54FF4D5
:103C40008040FDF741FD0128044605D14FF4804036
:103C5000FDF74AFD014B1C7010BD00BF220500207E
:103C60002DE9F047DFF8C0A18CB09AF80080054636
:103C7000B8F1000F40F0C680644F102302264FF4C5
:103C80000059384602A98DF80B308DF80A60ADF85E
:103C90000890FDF7B7FD04204FF480448DF80B0029
:103CA00002A93846ADF80840FDF7ACFD30460E21BC
:103CB000C7F81090FDF73AFE0126082104A88DF8F8
:103CC000151004948DF814808DF81660FDF7C0FC73
:103CD0000F23282203A88DF80C208DF80D308DF8C5
:103CE0000E308DF80F60FDF729FB142001F0CDFC9C
:103CF000D021772032460DF1070300F019FC9DF822
:103D00000700434C03215528E075218476D1D12149
:103D100032460DF10703772000F00AFC9DF80730CA
:103D2000AA2103F00F02180922766076162206AB4C
:103D3000772000F0FDFB9DF818109DF819309DF8D4
:103D40001A0043EA01229DF81B10228041EA002359
:103D50009DF81C209DF81D00638040EA02219DF81B
:103D60001F309DF81E20A18043EA02209DF82010FC
:103D70009DF82120E08042EA01239DF822009DF871
:103D80002310238141EA00229DF825309DF824006C
:103D9000628143EA00219DF826209DF82700A18139
:103DA00040EA02239DF828109DF82920E38142EA89
:103DB00001209DF82B309DF82A10208243EA012231
:103DC0009DF82C009DF82D10628241EA0023A38209
:103DD000104B41F2F81246F2905041F288318AF8C5
:103DE00000602A806880A980AB600B4A0B480C49B0
:103DF0000C4BEA6028616961AB6103E0C7F814907D
:103E0000404600E001200CB0BDE8F0870010014002
:103E100028050020293C0008C93B0008053C000893
:103E2000753B0008B13A0008500500200F4B10B553
:103E30000F481988FDF73EFD0E4C18B101F0FCFB50
:103E400020600CE001F0F8FB2168884207D90A4A9B
:103E5000401A3B23126890FBF3F188B21080074AA6
:103E60001068BDE81040FDF73FBC00BF58050020BA
:103E7000000C01405C05002068050020640500205E
:103E8000FFF7D4BFFFF7D2BF30B52F4B85B02F4A15
:103E900050B1012816D12E4C2E4D022118802870C9
:103EA0001180216007200BE04FF4807119804FF4DE
:103EB00000731380274D264A092413602C701720A5
:103EC000254908702048214D0388022210242348E8
:103ED00001A98DF80620ADF804308DF80740FDF7F4
:103EE00091FC29880423ADF804101C480DEB030154
:103EF0008DF80730FDF786FC164A154D1178012024
:103F0000FDF714FD2868FDF7EFFB286800210290FB
:103F10008DF80D4002A801248DF80C108DF80E408C
:103F2000FDF796FB0C4B1A7802F01F0304FA03F41A
:103F300050B20B4A410942F8214001F095FB094972
:103F40003C38086005B030BD6C05002058050020E5
:103F5000640500206105002060050020000C014080
:103F600000E100E05405002010B5044601F07CFBA0
:103F70000B4B19683C31884210D318600948046023
:103F8000094C0A482188FDF79BFC0B2001F072FBCD
:103F900006482188BDE81040FDF794BC10BD00BF65
:103FA00054050020680500206C050020000C01402D
:103FB00007B5002202AB03F8012D1E200A210122C1
:103FC00000F0B6FA30B19DF80700B0F1480359424D
:103FD00051EB03000EBD000007B5022004214FF491
:103FE00080538DF806008DF8071009486944ADF834
:103FF0000430FDF707FC642001F047FB1E20002180
:10400000782200F067FB322001F03FFB0EBD00BFBD
:10401000000C014010B50021792204461E2000F05A
:1040200059FB322001F031FB012122461E2000F015
:1040300051FB1E2002210122BDE8104000F04ABBC6
:1040400008B5002178221E2000F044FB0121202227
:104050001E2000F03FFB1E2002210022BDE8084088
:1040600000F038BB13B50622044603216B461E2020
:1040700000F05EFA9DF800209DF801309DF80210D6
:1040800043EA02209DF80320208042EA01239DF8A4
:1040900004009DF80510638041EA0022A2801CBD47
:1040A0002DE9F74F9F4C2068838A9BB213F00102E1
:1040B00039D0028822F4006319040A0C028001211D
:1040C000FDF704FD9849994B0A7800201870DAB181
:1040D000974803781BB997490A78FF2A14D101231E
:1040E000037095480178022906D18E4A1368188812
:1040F00081B241F400621A80904B8A4819780068B6
:104100000122FDF7FDFC35E18C48864B0178002249
:104110001868FDF7F5FC87490A78FF2A00F02A8124
:10412000FF20824BE4E003F00201C9B2002943D032
:10413000BFF35F8F804D2E78012E354619D17A4915
:104140000B78B3B17A490B789BB11146FDF7BEFCF1
:10415000BFF35F8F20683146028BD3B28DF80730F2
:10416000FDF7A8FC764920680E7032464FF4806156
:10417000FEE0028BD1B28DF80710BFF35F8F6E4B5C
:104180001A78022A09D168490A7832B168490A784E
:104190001AB10021FDF79AFCE5E01B78032B07D14B
:1041A00061490A7822B1624B1978002940F0DD801C
:1041B0004FF480610122DBE003F00406F6B2002E2A
:1041C00071D0594BDFF878811A78012688F80060A1
:1041D000574B002A4DD01A78002A4AD0564D2F78D6
:1041E000524D022F574F29D9FDF770FC206895F8E2
:1041F0000090D7F800A0FDF780FC4FFA89FB0AF881
:104200000B0009EB0600314628702068FDF752FCD0
:10421000206888F800603F6895F80080FDF76DFC25
:104220004FFA88F907F80900B04420684FF480611C
:10423000324685F80080FDF755FC2BE03146FDF74E
:1042400039FC20682E78D7F80080FDF756FC4FFA2D
:1042500086F9731C08F80900D9B220684FFA81F872
:104260003F682970FDF749FC033607F808002E70F7
:1042700010E01B78012113B9334A13782BB1FDF7F5
:1042800019FC2A480278511C03E0FDF707FC284876
:1042900001210170234A11680B8803F4807082B2F7
:1042A000002AF9D166E003F040010F461F4D09B323
:1042B000244B2F78D3F80080FDF71FFC4FFA87F9C5
:1042C00008F80900781CC1B229701B4D4FB22A783A
:1042D0000337BA4205D120684FF480613246FDF7BA
:1042E00001FC124B28781A7851B2884242D1501CF6
:1042F00018703FE01B063DD52B785EB2721C27D0AC
:10430000124901330A682B70915DFDF7F4FB0A48EE
:1043100095F90020017891422CD120684FF48061FA
:104320003A4625E084050020800500206E05002027
:104330007205002070050020710500208C0500200A
:104340008A050020740500206F0500207C050020F0
:10435000154A29701178FDF7CEFB1448017811B980
:10436000134B1A7832B9134800684FF48061002269
:10437000FDF7B8FB0E49104A0B7892F90000591C62
:1043800088420ED10D480E4B017800221A7029B1D7
:10439000084B4FF440711868FDF7A4FB0948002250
:1043A0000270BDE8FE8F00BF700500208005002070
:1043B00071050020840500206E0500208A0500207C
:1043C000720500208B050020FFF76ABEFFF768BE6C
:1043D00070B588B04FF440641C230646022551484E
:1043E00002A98DF80B30ADF808408DF80A50FDF7A2
:1043F00009FA4D48142106608DF80F10494803A9A9
:10440000ADF80C408DF80E50FDF7FCF921464548FB
:10441000FDF756FA082443484FF48061FDF74AFA45
:1044200018B90A2001F026F9F5E74FF480613D48FC
:10443000FDF748FA0A2001F01DF93A484FF480616F
:10444000FDF73EFA0A2001F015F9621E12F0FF0492
:10445000E1D14FF400613348FDF734FA0A2001F04E
:1044600009F94FF480612F48FDF72CFA0A2001F07A
:1044700001F94FF480612B48FDF722FA0A2001F080
:10448000F9F8022527484FF40061FDF719FA8DF875
:104490000E50254D1C2303A94FF4406621488DF88A
:1044A0000F30ADF80C60FDF7ADF92868FDF758FA4C
:1044B00004A8FDF7D9FA286822464FF44071FDF7A9
:1044C00011FB1A4A4BF6FF704FF48041ADF816000D
:1044D000ADF81C10286801210492ADF81440FDF7D6
:1044E000D1FA04A92868FDF755FA4FF4A060FCF74B
:1044F0001BFF012022238DF8070001A88DF804304E
:104500008DF805408DF80640FCF718FF212101A821
:1045100026468DF804108DF80540FCF70FFF08B013
:1045200070BD00BF000C014084050020801A060009
:1045300010B54000244CC0B220702448244C0170B7
:1045400000212170234C01202070234C2360234C38
:104550002360234B1A70234A1070234801702349AB
:104560000868838803F4007291B2A1B9038803F448
:10457000807291B241B9038803F4007291B20029AC
:10458000F9D10121FDF78AFA18484FF4407100680B
:104590000122FDF7A7FA47F23053124A117811B100
:1045A000013BFAD100E053B911490A88501C83B28B
:1045B0000B800E490868FFF70BFF002010BD0A4B67
:1045C000187880F0010010BD8C05002070050020D7
:1045D0006F05002080050020740500207C05002068
:1045E000710500208B05002078050020840500203F
:1045F0008805002030B540002B4CC5B22B482570F3
:104600002B4D2C4C017001210020297085B02070A9
:10461000294C0DEB00052560284C102A2560284CFC
:104620002270284C2170284908703BD8C1B29142B1
:1046300004D2195C0DF800100130F7E7234B18681D
:10464000828802F400718BB2A3B9028802F48071EF
:104650008BB243B9028802F400718BB2002BF9D1FE
:104660000121FDF71BFA19484FF44071006801223F
:10467000FDF738FA47F23053124A117811B1013B75
:10468000FAD100E053B912490A88501C83B20B805A
:104690000E490868FFF79CFE002003E00A4B1878DB
:1046A00080F0010005B030BD8C05002070050020B1
:1046B0006F050020800500207C0500207405002087
:1046C000710500208B05002078050020840500205E
:1046D0008805002007B502AB03F8012D0122FFF782
:1046E00089FF0EBD284B37B51868818A8AB20092BF
:1046F000009B13F4706F02D0244A01211170009BBB
:1047000013F4E06F33D0018B8AB201924FF48061D1
:104710000022FDF7E7F90098820528D41A4D286891
:10472000038803F400718AB20ABB048804F480731E
:104730009CB29CB1018801F4807293B2002BF9D134
:104740000121FDF7B7F910480068018801F40072F3
:1047500093B2002BF9D1FFF73BFE08E00121FDF7F2
:10476000A9F928684FF440712246FDF7BBF90648C5
:1047700001688A8A22F470631804020C044B8A824E
:10478000002119703EBD00BF84050020780500207F
:104790008B050020FFF7A6BFFFF7A4BF014B1888C9
:1047A00080B27047880500200388828859425342AE
:1047B00001808380704713B506220446A8216B460A
:1047C0006820FFF7B5FE9DF800209DF8013043EA10
:1047D000022001B2042391FBF3F29DF802009DF840
:1047E0000310628041EA002210B290FBF3F19DF8C1
:1047F00005209DF80400218042EA002108B290FBC8
:10480000F3F3A3801CBD000008B5642000F03DFF59
:1048100068202321F022FFF75DFF10B9032000F08C
:10482000C7FF052000F031FF044B68201A782021D3
:1048300042F00F02BDE80840FFF74CBF8D05002095
:1048400013B50446192000F020FF68200F21012233
:104850000DF10703FFF76CFE9DF80730D32B07D14E
:1048600004480549054A20606160A260012000E01B
:1048700000201CBD09480008B7470008A9470008E8
:1048800036280C4B0AD003D820280BD1002208E090
:104890004E2805D05D2805D1C02202E0402200E06C
:1048A00080221A701B786820202143F00F02FFF746
:1048B00011BF00BF8D0500201FB5354C23789BB973
:1048C00034487A23B0F900108DF804300222C1F187
:1048D000B40393FBF2F08DF80500FF216D2001ABCE
:1048E000FFF788FE012150E0012B37D12A486FF4F1
:1048F0006371B0F9003079228B428DF8042009DB16
:1049000040F28D32934207DC0A2193FBF1F25A32D6
:10491000D3B202E0002300E0B423B0F902008DF826
:1049200005306FF46373984209DB40F28D318842A1
:1049300007DC0A2390FBF3F05A30C2B202E00022F7
:1049400000E0B4228DF80620FF2103226D2001AB88
:10495000FFF750FE0E4A0221117017E0022B15D10D
:104960000E4A642053788DF804000121002B14BFF7
:10497000012000208DF805108DF80600FF216D2024
:10498000032201ABFFF736FE002121701FBD00BFDF
:104990008E0500207C130020C4090020A6120020F0
:1049A00007B56B230A208DF804308DF805008DF8CB
:1049B0000600FF216D20032201ABFFF71BFE0EBD99
:1049C000038842885942534201804380704713B59F
:1049D0000622044601216B461C20FFF7A9FD9DF825
:1049E00000209DF8013043EA022040F38D010423AA
:1049F00091FBF3F29DF802009DF80310228041EA3A
:104A0000002242F38D0090FBF3F19DF805209DF804
:104A10000400618042EA002141F38D0090FBF3F332
:104A2000A3801CBD13B50421202302248DF8071098
:104A30001A486944ADF804308DF80640FCF7E2FEF0
:104A40002A2100221C20FFF745FE0E211C202246B1
:104A5000FFF740FE0F2103221C20FFF73BFE2B2116
:104A600012221C20FFF736FE2C211C202246FFF7C5
:104A700031FE2D2101221C20FFF72CFE2E210022C9
:104A80001C20FFF727FE05221C202A21FFF722FE0B
:104A900003484FF4807202801CBD00BF0008014033
:104AA0005E00002037B5002502AB044603F8015D27
:104AB0001C200D210122FFF73BFD80B19DF807303E
:104AC0002A2B01D01A2B09D1054A06482260064933
:104AD000064A6060A1601370012000E028463EBDD8
:104AE000254A0008CF490008C14900088F05002069
:104AF000838859428180704713B5022204461B21E6
:104B000001AB6820FFF714FD9DF804209DF80530E7
:104B100043EA022000F54E5110314FF48C7291FBA4
:104B2000F2F3233323801CBD13B5062204461D2156
:104B30006B466820FFF7FCFC9DF800209DF80130D3
:104B400043EA022001B2042391FBF3F29DF8020034
:104B50009DF80310228041EA002210B290FBF3F18D
:104B60009DF805209DF80400618042EA002108B20A
:104B700090FBF3F3A3801CBD08B5192000F085FD60
:104B8000682015210022FFF7A5FD10B9032000F0D1
:104B90000FFE0C4B16211A78682042F01802FFF71E
:104BA00099FD172100226820FFF794FD3D21012285
:104BB0006820FFF78FFD68203E210122BDE80840F4
:104BC000FFF788BD3400002010B50446192000F01E
:104BD0005CFD682015210022FFF77CFD40B10548EF
:104BE000054B0649064A60602360A160E26001202F
:104BF00010BD00BF294B0008794B0008F14A00089E
:104C0000F94A00082A28104B13D005D80A2812D0D8
:104C1000142812D104220FE0BC2808D0B0F5807F00
:104C200003D0622809D1022206E0002204E001221A
:104C300002E0032200E005221A701B78682016218A
:104C400043F01802FFF746BD34000020024B40F24B
:104C5000FF321A80704700BF5E0000200388428840
:104C60005942028041807047838859428180704751
:104C700013B50622044643216B466820FFF758FC13
:104C80009DF800209DF8013043EA022001B2042380
:104C900091FBF3F29DF802009DF80310228041EA97
:104CA000002210B290FBF3F19DF805209DF804005E
:104CB000618042EA002108B290FBF3F3A3801CBD9F
:104CC00013B5062204463B216B466820FFF730FCF3
:104CD0009DF800209DF8013043EA022001B208232C
:104CE00091FBF3F29DF802009DF80310228041EA47
:104CF000002210B290FBF3F19DF805209DF804000E
:104D0000618042EA002108B290FBF3F3A3801CBD4E
:104D100013B504214FF4005302248DF807101E48E8
:104D20006944ADF804308DF80640FCF76BFD6B214B
:104D300080226820FFF7CEFC052000F0A6FC192198
:104D400000226820FFF7C6FC6B2103226820FFF7D2
:104D5000C1FC372168202246FFF7BCFC1A21012242
:104D60006820FFF7B7FC182268201B21FFF7B2FC70
:104D70000A480378A3F11402012A03D9542B01D065
:104D8000552B03D168201C21082202E068201C2139
:104D90001022FFF79FFC1CBD000C01409005002075
:104DA00073B5054623200C46164600F06EFC6820BD
:104DB000752101220DF10703FFF7BAFBE0B19DF861
:104DC0000700682817D11EB10C4B55221A7004E059
:104DD0000C210122094BFFF7ABFB09480949286068
:104DE00069600948094A0A4B0A49AA606060236061
:104DF000A160012000E000207CBD00BF90050020E4
:104E00004D4C0008C14C0008714C00085D4C000876
:104E1000114D0008694C0008F0B52E4F2E4B7E89CD
:104E2000196830023A890E1A86FB0201B7F804C0ED
:104E3000C50945EA4160CB117A88F9884FEA0C44EC
:104E4000041943F100054FEAC23C86FB0123BF89E8
:104E5000100A86FB076740EA03621B1212EB0C0084
:104E600043F10001F60D46EA472303F5FA62B2F575
:104E7000FA6F14DA03FB03F605277743DFF860C007
:104E80007E10BF1062450CDA03F6AC535B43072279
:104E900002FB03660B22534307EB630701E0002785
:104EA0003E460E4BA41B65EBE675D3F800C0C21B53
:104EB00061EBE773ACFB02010CFB0311400D40EA10
:104EC000C1224B15121B63EB0503D20B42EA434090
:104ED000F0BD00BF9C05002098050020940500202F
:104EE00024FAFFFF07B50021032201AB7720FFF76B
:104EF0001FFB9DF805009DF8043001029DF8062077
:104F000041EA034010430EBD08B5FFF7EBFF014B2C
:104F1000186008BD9405002008B5FFF7E3FF014BBA
:104F2000186008BD98050020772048210122FFF76E
:104F3000D1BB772058210122FFF7CCBB7FB5454D6F
:104F400004461020022303A94FF400568DF80F00E9
:104F500028468DF80E30ADF80C60FCF753FC0A20A3
:104F60006E6100F092FB7720A02101220DF1070372
:104F7000FFF7DEFA00286AD01E2101227720FFF712
:104F8000A9FB4FF42F6000F075FB0025A5F160012F
:104F9000002602227720C9B202AB8DF808608DF896
:104FA0000960FFF7C5FA9DF808209DF809302A49E5
:104FB00043EA022068520235102DE7D1CA89012345
:104FC00002F47F4502F00F00CD8132462249515A4A
:104FD0000232002918BF0023102AF7D1002B35D147
:104FE0001A4612F0010F1C494FEA620604D011F86C
:104FF00016104B40082104E031F8161083EA112303
:10500000F8E713F4004F18BF83F4C0535B00013975
:10501000F7D10132102AE4D10F49C3F3033305431A
:105020009842CD8112D10D4942F210704FF47A624C
:1050300020806080A2800A48A1600A4B0A4A0B497E
:105040002061E3606261A161012000E0002004B002
:1050500070BD00BF001001409C050020334F0008C8
:10506000294F0008194F0008094F0008194E000881
:1050700030B585B0044601A80D46FCF77FFF0B4B09
:105080000B481A68013DB2FBF0F14B1E002220468E
:1050900001A9ADF80850ADF80430ADF80A20ADF81C
:1050A0000620FCF723FE05B030BD00BF1000002035
:1050B00040420F007FB5044601A80D461646FCF796
:1050C00070FF00200123ADF80A00ADF80C0001A923
:1050D0002046ADF80450ADF80660ADF80830FCF796
:1050E000DFFF7FBD154B142210B502FB003202F129
:1050F0000803DC7864B999800121D970104B000154
:105100001A18117B18580222BDE81040FFF7D2BFD1
:105110009C88D980091B89B29C781182094A0001B8
:1051200022F814100024DC70054B22461918097B64
:105130001858FFF7BFFF044A148010BDC0050020B7
:1051400048FD0008AE050020A40A002070B50D46F9
:1051500002210446FDF74DF8012820460BD102211B
:10516000FDF752F86BB2142253432348C658204629
:10517000FDF732F83CE00421FDF73BF801280ED1A1
:10518000013520460421EDB2FDF73EF868B2142146
:105190004843194E36582046FDF721F828E00821EB
:1051A0002046FDF726F801280ED1A91CCDB22046D5
:1051B0000821FDF729F86EB214235E430E4A2046FB
:1051C0009659FDF70FF813E010212046FDF711F86E
:1051D000012810D103352046EDB21021FDF714F857
:1051E0006BB2142253430448C6582046FCF7FDFF17
:1051F00001462846B04770BDC0050020114A12483C
:1052000013881180C91A89B240F68C22914203801A
:105210000E4B02D9002018707047A1F2EF2080B227
:1052200040F2DA52904205D81B78072B9CBF084AFF
:1052300022F813100549074B0878421C0A70002118
:105240001980704730070020DA060020AC050020E6
:10525000AE050020A40A00202DE9F04F464BDFF8F0
:105260001C81142505FB00350746000158F8004055
:1052700087B008EB00062046FFF7FAFED6F804B028
:1052800001A806F1080AB668FCF70CFB18218DF896
:1052900007104FF0020901A95846ADF804608DF8D7
:1052A0000690FCF7AFFA02A89AF80460FCF76FFECC
:1052B0007022ADF80820012300204FF47A714FF4DA
:1052C0008072ADF80A30ADF80C00ADF80E10ADF8F4
:1052D0001090ADF814200C2E2BD8DFE806F0072A2A
:1052E0002A2A102A2A2A192A2A2A2200204602A912
:1052F000FCF746FD20460821FCF77EFE19E020461B
:1053000002A9FCF781FD20460821FCF77DFE10E094
:10531000204602A9FCF7BCFD20460821FCF77EFED2
:1053200007E0204602A9FCF7F5FD20460821FCF71E
:105330007DFE08EB0717BB7B1BB120460121FCF764
:1053400044FE20460121FCF734FE0C2E10D8DFE885
:1053500006F0070F0F0F090F0F0F0B0F0F0F0D00A8
:10536000343404E0383402E03C3400E040346C6013
:10537000284607B0BDE8F08FC005002048FD0008B2
:105380002DE9F04F304B4FF0140808FB00F80001F6
:105390001C5885B01D188A4620464FF6FF7193466B
:1053A000FFF766FE696805F1080702A8AD6801917C
:1053B000FCF778FA02232822019802A98DF80A3016
:1053C000ADF808508DF80B20FCF71CFA3D7900224F
:1053D00020462946FFF76EFEDFF870902046012137
:1053E000FCF7E7FD79790123002209EB080603A801
:1053F0008DF80C108DF80D208DF80E308DF80F30D3
:10540000FBF79CFF49F808A086F80AB00C2D16D8C7
:10541000DFE805F0071515150A1515150D151515F5
:1054200010002046022107E02046042104E0204627
:10543000082101E0204610210122FCF7D4FD30466E
:1054400005B0BDE8F08F00BF48FD0008C005002092
:10545000022110B51248FCF7CCFE012810480BD1F0
:105460000221FCF7D1FE0F48D0F8A0400C48FCF711
:10547000B3FE0146082010E01021FCF7BAFE012817
:105480000CD110210648FCF7BFFE064B0448D3F8A8
:10549000B440FCF7AAFE01460920A04710BD00BF9A
:1054A000002C0140C00500204FF080400021FFF794
:1054B0004DBE000001480421FFF748BE0004004033
:1054C00001480A21FFF742BE000800402DE9F041E3
:1054D000044643796278002B14BF0220002002B1F9
:1054E00001303749002551F820707A5DFF2A02F01B
:1054F0000F0002F0F0035FD0A17811B1811E0129E5
:1055000057D9A17909B1814253D012F0300F03D09D
:105510002278002A08BF0023E17831B1627922B9EC
:10552000A0F10801012998BF802322792AB161796D
:1055300019B9021F032A98BF802303F01001CAB2D1
:105540003AB120490022FFF71BFF1F4B08211970B9
:105550002FE003F02001CAB242B11B4E1B49327842
:10556000FFF70EFF3078421C327022E003F040015A
:10557000CAB25AB122891649164E91FBF2F399B27A
:1055800096F80080FFF768FE134B0CE01B0610D561
:1055900063890F49114E91FBF3F291B296F80080A6
:1055A000FFF75AFE0E4B43F8280008F1010886F871
:1055B000008001350E2D98D10020BDE8F08100BF9C
:1055C00028FE0008FD510008D8060020E55000081C
:1055D00040420F00DC060020E0060020DD0600202F
:1055E00010070020044B1A78824204D9034B53F869
:1055F0002000426811807047DC060020E006002091
:10560000044B1A78824204D9034B53F820004268B5
:1056100011807047DD06002010070020014B33F891
:1056200010007047AE050020024B1A68501C18602D
:10563000704700BF34070020094A0A491368886888
:1056400012689342F8D1C0F58C3101F5A070482260
:10565000B0FBF2F14FF47A7000FB0310704700BF0B
:105660003407002010E000E0014B1868704700BFCD
:105670003407002038B50446FFF7DEFF0546FFF784
:10568000DBFF401BA042FAD338BD10B504462CB155
:105690004FF47A70FFF7EEFF013CF8E710BD000011
:1056A00030B5374D8DB006AC0FCD0FC495E8030073
:1056B00084E80300FBF73AFD32480121FCF786FA43
:1056C00044F61D200121FCF775FA01200146FCF784
:1056D00065FA0024FCF792FA4FF6FF732A486946F0
:1056E000ADF800308DF80340FCF78CF82748694688
:1056F000FCF788F826486946FCF784F8254801211C
:10570000FCF7E2F806A80219918892790223ADF815
:1057100000102058694608348DF802308DF80320B7
:10572000FCF770F8182CEDD11848082110230161FE
:105730004FF480520361A0F58060026101A8FCF77C
:10574000E7F9019B1449154AB3FBF1F014491060C5
:1057500008684FF47A73B0FBF3F2511E1148124AF5
:10576000F023416082F82330002107238160036029
:105770000E48FEF72DFE6420FFF787FF0DB030BD09
:1057800048E900080700400000080140000C014003
:10579000001001400002300040420F003807002096
:1057A0001000002010E000E000ED00E00058004094
:1057B00070B540F2DB1670430D4B102208215A6180
:1057C000861E19610A48C46884F01005C560C36864
:1057D000084C83F00802C2604FF480553046FFF752
:1057E00054FF65611920FFF750FF2561EAE700BF0C
:1057F000000C01400008014010B1034A034B1A603D
:1058000003480449C8607047EFBEADDEF04F00208A
:105810000400FA0500ED00E01FB504466846FCF7F9
:105820004FFD0D4A00231078009498420CBF0C21C4
:105830000421ADF80A1009486946ADF80430ADF806
:105840000630ADF80830ADF80C30FCF7E1FC034849
:105850000121FCF740FD1FBD4C0700200044004023
:105860000B4A0C4813680C491818C8600B480068AC
:10587000984203D9C31A4B60106004E0C3F58073EB
:105880004B600021116004480121FBF7C1BE00BF3D
:10589000480700200C100020440002405007002060
:1058A00008B54FF40050FBF7C9FE00210648FBF78E
:1058B000AFFE064B06481A6801688A4203D0BDE86D
:1058C0000840FFF7CDBF08BD44000240500700204C
:1058D000480700202DE9F047464C92B006461820B4
:1058E0004FF400734FF002098DF8070001A920461C
:1058F000ADF804308DF80690FBF784FF4FF480611B
:105900004822ADF80410204601A90E258DF8072085
:10591000FBF778FF8DF8085002A801250C278DF8B9
:1059200009508DF80A508DF80B50FBF707FD0396D0
:10593000314E0DEB0701ADF81670304F00243046A4
:10594000ADF81040ADF81240ADF81440ADF8184075
:10595000FCF75EFC3846FBF7C3FD2948DFF8A8A03A
:105960004FF480714FF4805320224FF0800808904C
:105970000A91384607A910930F921194CDF81CA0F4
:1059800009940B940D94CDF830800E94FBF720FE13
:1059900038462946FBF73CFE2A4640213046FCF7B4
:1059A000C0FC3846FBF747FE164B143F18603846DC
:1059B000FBF796FD1020099007A93846CDF81CA0EA
:1059C0000B940D94CDF830800E940F94FBF700FEED
:1059D000384649462A46FBF726FE304641467C605B
:1059E0002A46FCF79EFC30462946FCF774FC12B0B0
:1059F000BDE8F0870008014000380140580002402F
:105A00000C0F00203C0700200438014008B5044872
:105A1000FBF711FE034B1968401A18BF012008BD9F
:105A2000580002403C070020034B044918680A68EC
:105A3000831A5842584170474807002050070020F9
:105A4000054B06481A68C2F58071013A08BF4FF449
:105A50008072405C1A6070473C0700200C0F0020E9
:105A6000064B07491A688854501CC2B21A60054B8D
:105A70001968CA0701D4FFF7F3BE7047500700202A
:105A80000C1000204400024010B5441E14F8010F11
:105A900010B1FFF7E5FFF9E710BD0000F7B50746C5
:105AA0000E464FF4003001211446FCF78FF81D4BD1
:105AB000262001218DF80000022568461C708DF813
:105AC00001108DF802508DF80310FBF737FC04220B
:105AD0001823ADF804208DF806508DF807301CB956
