:020000040800F2
:1000000000500020CD1C01087D1D0108CDB4000862
:100010007D1D01087D1D01087D1D010800000000F7
:100020000000000000000000000000007D1D01082D
:100030007D1D0108000000007D1D0108317C0008C5
:100040007D1D01087D1D01087D1D01087D1D010824
:100050007D1D01087D1D01087D1D0108695F0008E7
:100060007D1D01087D1D01087D1D01087D1D010804
:100070007D1D01087D1D0108A17F00087D1D01086F
:100080007D1D01087D1D01087D1D01087D1D0108E4
:100090007D1D01087D1D01087D1D01086D5F0008A3
:1000A0007D1D01087D1D01087D1D0108F5790008F1
:1000B0006D7A0008797A0008897A0008A965000835
:1000C0000D6A0008AD650008096A00087D1D010879
:1000D0007D1D01087D1D0108058300087D1D0108A7
:1000E0009D5C00087D1D01087D1D010800000000C9
:1000F0000000000000000000000000000000000000
:0C01000000000000000000005FF808F1A3
:1001100010B5054C237833B9044810B10448AFF347
:1001200000800121217010BDD408002000000000D3
:10013000E4A9010808B5064B1BB106480649AFF310
:1001400000800648016811B1054A02B1904708BD18
:1001500000000000E4A90108D8080020D40800200D
:100160000000000081F0004102E000BF83F0004386
:1001700030B54FEA41044FEA430594EA050F08BF42
:1001800090EA020F1FBF54EA000C55EA020C7FEA06
:10019000645C7FEA655C00F0E2804FEA5454D4EB83
:1001A0005555B8BF6D420CDD2C4480EA020281EA4D
:1001B000030382EA000083EA010180EA020281EA85
:1001C0000303362D88BF30BD11F0004F4FEA0131D7
:1001D0004FF4801C4CEA113102D0404261EB4101E6
:1001E00013F0004F4FEA03334CEA133302D052426C
:1001F00063EB430394EA050F00F0A780A4F1010428
:10020000D5F1200E0DDB02FA0EFC22FA05F2801861
:1002100041F1000103FA0EF2801843FA05F3594147
:100220000EE0A5F120050EF1200E012A03FA0EFCC6
:1002300028BF4CF0020C43FA05F3C01851EBE371F0
:1002400001F0004507D54FF0000EDCF1000C7EEB0D
:1002500000006EEB0101B1F5801F1BD3B1F5001F4B
:100260000CD349085FEA30004FEA3C0C04F101046A
:100270004FEA445212F5800F80F09A80BCF1004F93
:1002800008BF5FEA500C50F1000041EB045141EA15
:10029000050130BD5FEA4C0C404141EB010111F416
:1002A000801FA4F10104E9D191F0000F04BF0146C1
:1002B0000020B1FA81F308BF2033A3F10B03B3F19F
:1002C00020020CDA0C3208DD02F1140CC2F10C022F
:1002D00001FA0CF021FA02F10CE002F11402D8BF8D
:1002E000C2F1200C01FA02F120FA0CFCDCBF41EA59
:1002F0000C019040E41AA2BF01EB0451294330BD28
:100300006FEA04041F3C1CDA0C340EDC04F1140404
:10031000C4F1200220FA04F001FA02F340EA0300DB
:1003200021FA04F345EA030130BDC4F10C04C4F121
:10033000200220FA02F001FA04F340EA0300294601
:1003400030BD21FA04F0294630BD94F0000F83F44B
:10035000801306BF81F480110134013D4EE77FEA2E
:10036000645C18BF7FEA655C29D094EA050F08BF7A
:1003700090EA020F05D054EA000C04BF194610465B
:1003800030BD91EA030F1EBF0021002030BD5FEA9F
:10039000545C05D14000494128BF41F0004130BDC7
:1003A00014F580043CBF01F5801130BD01F000451B
:1003B00045F0FE4141F470014FF0000030BD7FEA8E
:1003C000645C1ABF194610467FEA655C1CBF0B4689
:1003D000024650EA013406BF52EA033591EA030FA0
:1003E00041F4002130BD00BF90F0000F04BF002198
:1003F000704730B54FF4806404F132044FF00005CB
:100400004FF0000150E700BF90F0000F04BF002143
:10041000704730B54FF4806404F1320410F00045A9
:1004200048BF40424FF000013EE700BF42004FEAA4
:10043000E2014FEA31014FEA02701FBF12F07F4321
:1004400093F07F4F81F06051704792F0000F14BF1E
:1004500093F07F4F704730B54FF4607401F0004562
:1004600021F0004120E700BF50EA010208BF7047B9
:1004700030B54FF000050AE050EA010208BF7047AE
:1004800030B511F0004502D5404261EB41014FF417
:10049000806404F132045FEA915C3FF4DCAE4FF01B
:1004A00003025FEADC0C18BF03325FEADC0C18BF02
:1004B000033202EBDC02C2F1200300FA03FC20FA53
:1004C00002F001FA03FE40EA0E0021FA02F11444A0
:1004D000C1E600BF70B54FF0FF0C4CF4E06C1CEAB5
:1004E00011541DBF1CEA135594EA0C0F95EA0C0F2A
:1004F00000F0DEF82C4481EA030621EA4C5123EA9D
:100500004C5350EA013518BF52EA033541F48011CB
:1005100043F4801338D0A0FB02CE4FF00005E1FB7E
:1005200002E506F00042E0FB03E54FF00006E1FBC8
:1005300003569CF0000F18BF4EF0010EA4F1FF040B
:10054000B6F5007F64F5407404D25FEA4E0E6D414B
:1005500046EB060642EAC62141EA55514FEAC5205C
:1005600040EA5E504FEACE2EB4F1FD0C88BFBCF5D8
:10057000E06F1ED8BEF1004F08BF5FEA500E50F189
:10058000000041EB045170BD06F0004646EA01014F
:1005900040EA020081EA0301B4EB5C04C2BFD4EB81
:1005A0000C0541EA045170BD41F480114FF0000E7A
:1005B000013C00F3AB8014F1360FDEBF002001F0E8
:1005C000004170BDC4F10004203C35DA0C341BDC62
:1005D00004F11404C4F1200500FA05F320FA04F034
:1005E00001FA05F240EA020001F0004221F0004168
:1005F00010EBD37021FA04F642EB06015EEA430EDB
:1006000008BF20EAD37070BDC4F10C04C4F120050A
:1006100000FA04F320FA05F001FA04F240EA0200BD
:1006200001F0004110EBD37041F100015EEA430E8E
:1006300008BF20EAD37070BDC4F1200500FA05F2AE
:100640004EEA020E20FA04F301FA05F243EA02032D
:1006500021FA04F001F0004121FA04F220EA02003C
:1006600000EBD3705EEA430E08BF20EAD37070BD82
:1006700094F0000F0FD101F00046400041EB010162
:1006800011F4801F08BF013CF7D041EA060195F044
:10069000000F18BF704703F00046520043EB0303FE
:1006A00013F4801F08BF013DF7D043EA06037047EB
:1006B00094EA0C0F0CEA135518BF95EA0C0F0CD0F6
:1006C00050EA410618BF52EA4306D1D181EA03013C
:1006D00001F000414FF0000070BD50EA410606BF36
:1006E0001046194652EA430619D094EA0C0F02D17B
:1006F00050EA013613D195EA0C0F05D152EA0336C0
:100700001CBF104619460AD181EA030101F00041DD
:1007100041F0FE4141F470014FF0000070BD41F026
:10072000FE4141F4780170BD70B54FF0FF0C4CF400
:10073000E06C1CEA11541DBF1CEA135594EA0C0F1F
:1007400095EA0C0F00F0A7F8A4EB050481EA030E6C
:1007500052EA03354FEA013100F088804FEA033353
:100760004FF0805545EA131343EA12634FEA022221
:1007700045EA111545EA10654FEA00260EF00041E2
:100780009D4208BF964244F1FD0404F5407402D234
:100790005B084FEA3202B61A65EB03055B084FEAC5
:1007A00032024FF480104FF4002CB6EB020E75EBC2
:1007B000030E22BFB61A754640EA0C005B084FEAEA
:1007C0003202B6EB020E75EB030E22BFB61A754667
:1007D00040EA5C005B084FEA3202B6EB020E75EBB2
:1007E000030E22BFB61A754640EA9C005B084FEA2A
:1007F0003202B6EB020E75EB030E22BFB61A754637
:1008000040EADC0055EA060E18D04FEA051545EA25
:1008100016754FEA06164FEAC30343EA52734FEACE
:10082000C2025FEA1C1CC0D111F4801F0BD141EA47
:1008300000014FF000004FF0004CB6E711F4801FAC
:1008400004BF01430020B4F1FD0C88BFBCF5E06F8C
:100850003FF6AFAEB5EB030C04BFB6EB020C5FEA9C
:10086000500C50F1000041EB045170BD0EF0004EF1
:100870004EEA113114EB5C04C2BFD4EB0C0541EA23
:10088000045170BD41F480114FF0000E013C90E620
:1008900045EA060E8DE60CEA135594EA0C0F08BFE4
:1008A00095EA0C0F3FF43BAF94EA0C0F0AD150EAE3
:1008B00001347FF434AF95EA0C0F7FF425AF104676
:1008C00019462CE795EA0C0F06D152EA03353FF49E
:1008D000FDAE1046194622E750EA410618BF52EA1B
:1008E00043067FF4C5AE50EA41047FF40DAF52EAEF
:1008F00043057FF4EBAE12E74FF0FF3C06E000BF8C
:100900004FF0010C02E000BF4FF0010C4DF804CD98
:100910004FEA410C7FEA6C5C4FEA430C18BF7FEA58
:100920006C5C1BD001B050EA410C0CBF52EA430C86
:1009300091EA030F02BF90EA020F0020704710F106
:10094000000F91EA030F58BF994208BF90422CBF95
:10095000D8176FEAE37040F0010070474FEA410C8E
:100960007FEA6C5C02D150EA013C07D14FEA430CAC
:100970007FEA6C5CD6D152EA033CD3D05DF8040B1D
:10098000704700BF8446104662468C46194663464F
:1009900000E000BF01B5FFF7B7FF002848BF10F126
:1009A000000F01BD4DF808EDFFF7F4FF0CBF01206B
:1009B00000205DF808FB00BF4DF808EDFFF7EAFFE7
:1009C00034BF012000205DF808FB00BF4DF808EDA2
:1009D000FFF7E0FF94BF012000205DF808FB00BF97
:1009E0004DF808EDFFF7CEFF94BF012000205DF821
:1009F00008FB00BF4DF808EDFFF7C4FF34BF01202E
:100A000000205DF808FB00BF4FEA410212F500121A
:100A100015D211D56FF47873B3EB625212D94FEA45
:100A2000C12343F0004343EA505311F0004F23FA2F
:100A300002F018BF404270474FF00000704750EA84
:100A4000013005D111F0004008BF6FF00040704741
:100A50004FF00000704700BF4FEA4102B2F1E0439F
:100A600024BFB3F5001CDCF1FE5C0DD901F0004C95
:100A70004FEAC0024CEA5070B2F1004F40EB8300E5
:100A800008BF20F00100704711F0804F21D113F111
:100A90003872BCBF01F00040704741F480114FEA4A
:100AA0005252C2F11802C2F1200C10FA0CF320FAD3
:100AB00002F018BF40F001004FEAC1234FEAD323F0
:100AC00003FA0CFC40EA0C0023FA02F34FEA43035A
:100AD000CCE77FEA625307D150EA01331EBF4FF0E3
:100AE000FE4040F44000704701F0004040F0FE40FE
:100AF00040F40000704700BF80F0004002E000BFFB
:100B000081F0004142001FBF5FEA410392EA030FF8
:100B10007FEA226C7FEA236C6AD04FEA1262D2EB42
:100B20001363C1BFD218414048404140B8BF5B4247
:100B3000192B88BF704710F0004F40F4000020F0E0
:100B40007F4018BF404211F0004F41F4000121F0F6
:100B50007F4118BF494292EA030F3FD0A2F1010240
:100B600041FA03FC10EB0C00C3F1200301FA03F17E
:100B700000F0004302D5494260EB4000B0F5000FA1
:100B800013D3B0F1807F06D340084FEA310102F160
:100B90000102FE2A51D2B1F1004F40EBC25008BF12
:100BA00020F0010040EA03007047490040EB0000DC
:100BB00010F4000FA2F10102EDD1B0FA80FCACF10B
:100BC000080CB2EB0C0200FA0CF0AABF00EBC2500A
:100BD00052421843BCBFD0401843704792F0000FF8
:100BE00081F4000106BF80F400000132013BB5E74B
:100BF0004FEA41037FEA226C18BF7FEA236C21D0C1
:100C000092EA030F04D092F0000F08BF0846704725
:100C100090EA010F1CBF0020704712F07F4F04D1F3
:100C2000400028BF40F00040704712F100723CBF06
:100C300000F50000704700F0004343F0FE4040F430
:100C4000000070477FEA226216BF08467FEA2363EE
:100C50000146420206BF5FEA412390EA010F40F4D9
:100C6000800070474FF0000304E000BF10F0004325
:100C700048BF40425FEA000C08BF704743F096430C
:100C800001464FF000001CE050EA010208BF704727
:100C90004FF000030AE000BF50EA010208BF7047AE
:100CA00011F0004302D5404261EB41015FEA010CC3
:100CB00002BF84460146002043F0B64308BFA3F1BB
:100CC0008053A3F50003BCFA8CF2083AA3EBC2539D
:100CD00010DB01FA02FC634400FA02FCC2F12002BC
:100CE000BCF1004F20FA02F243EB020008BF20F0F3
:100CF0000100704702F1200201FA02FCC2F1200259
:100D000050EA4C0021FA02F243EB020008BF20EA4D
:100D1000DC7070474FF0FF0C1CEAD0521EBF1CEA7B
:100D2000D15392EA0C0F93EA0C0F6FD01A4480EA69
:100D3000010C400218BF5FEA41211ED04FF0006352
:100D400043EA501043EA5111A0FB01310CF000407E
:100D5000B1F5000F3EBF490041EAD3715B0040EAA4
:100D6000010062F17F02FD2A1DD8B3F1004F40EB74
:100D7000C25008BF20F00100704790F0000F0CF047
:100D8000004C08BF49024CEA502040EA51207F3A0B
:100D9000C2BFD2F1FF0340EAC250704740F40000E6
:100DA0004FF00003013A5DDC12F1190FDCBF00F0D7
:100DB00000407047C2F10002410021FA02F1C2F185
:100DC000200200FA02FC5FEA310040F1000053EA21
:100DD0004C0308BF20EADC70704792F0000F00F06F
:100DE000004C02BF400010F4000F013AF9D040EA75
:100DF0000C0093F0000F01F0004C02BF490011F409
:100E0000000F013BF9D041EA0C018FE70CEAD15306
:100E100092EA0C0F18BF93EA0C0F0AD030F0004C86
:100E200018BF31F0004CD8D180EA010000F000403A
:100E3000704790F0000F17BF90F0004F084691F0F8
:100E4000000F91F0004F14D092EA0C0F01D1420232
:100E50000FD193EA0C0F03D14B0218BF084608D1FB
:100E600080EA010000F0004040F0FE4040F4000045
:100E7000704740F0FE4040F4400070474FF0FF0CD8
:100E80001CEAD0521EBF1CEAD15392EA0C0F93EA1F
:100E90000C0F69D0A2EB030280EA010C49024FEA71
:100EA000402037D04FF0805343EA111143EA10132A
:100EB0000CF000408B4238BF5B0042F17D024FF4E2
:100EC000000C8B4224BF5B1A40EA0C00B3EB510FBD
:100ED00024BFA3EB510340EA5C00B3EB910F24BFA6
:100EE000A3EB910340EA9C00B3EBD10F24BFA3EB2B
:100EF000D10340EADC001B0118BF5FEA1C1CE0D1F3
:100F0000FD2A3FF650AF8B4240EBC25008BF20F0A5
:100F1000010070470CF0004C4CEA50207F32C2BFF9
:100F2000D2F1FF0340EAC250704740F400004FF096
:100F30000003013A37E792F0000F00F0004C02BFC7
:100F4000400010F4000F013AF9D040EA0C0093F091
:100F5000000F01F0004C02BF490011F4000F013BEB
:100F6000F9D041EA0C0195E70CEAD15392EA0C0F53
:100F700008D142027FF47DAF93EA0C0F7FF470AF8B
:100F8000084676E793EA0C0F04D14B023FF44CAFCE
:100F900008466EE730F0004C18BF31F0004CCAD163
:100FA00030F000427FF45CAF31F000437FF43CAF9F
:100FB0005FE700BF4FF0FF3C06E000BF4FF0010CC1
:100FC00002E000BF4FF0010C4DF804CD4FEA4002A3
:100FD0004FEA41037FEA226C18BF7FEA236C11D0ED
:100FE00001B052EA530C18BF90EA010F58BFB2EBA0
:100FF000030088BFC81738BF6FEAE17018BF40F020
:10100000010070477FEA226C02D15FEA402C05D1D3
:101010007FEA236CE4D15FEA412CE1D05DF8040B58
:10102000704700BF844608466146FFE70FB5FFF7EB
:10103000C9FF002848BF10F1000F0FBD4DF808EDA3
:10104000FFF7F4FF0CBF012000205DF808FB00BF94
:101050004DF808EDFFF7EAFF34BF012000205DF8EE
:1010600008FB00BF4DF808EDFFF7E0FF94BF01203B
:1010700000205DF808FB00BF4DF808EDFFF7D2FF38
:1010800094BF012000205DF808FB00BF4DF808ED7B
:10109000FFF7C8FF34BF012000205DF808FB00BF48
:1010A0004FEA4002B2F1FE4F0FD34FF09E03B3EB75
:1010B00012620DD94FEA002343F0004310F0004FB5
:1010C00023FA02F018BF404270474FF0000070470B
:1010D00012F1610F01D1420205D110F0004008BFAA
:1010E0006FF0004070474FF00000704742000ED292
:1010F000B2F1FE4F0BD34FF09E03B3EB126209D453
:101100004FEA002343F0004323FA02F070474FF008
:101110000000704712F1610F01D1420202D14FF07D
:10112000FF3070474FF00000704700BF4BB942B925
:10113000002908BF002802D04FF0FF31084600F018
:101140003BB882B0EC462DE9005000F01DF8DDF808
:1011500004E002B00CBC70472DE9F04116469846F9
:1011600004460D4600F02AF806FB01FCA6FB00230E
:1011700000FB08C7FB18A21A65EB0303069CC4E931
:101180000023BDE8F08100BF2DE9F04190460646FE
:101190000F461D4600F070F900FB05F3A0FB084563
:1011A00008FB0138069B4544341B67EB0505C3E982
:1011B0000045BDE8F08100BF704700BF00292DE960
:1011C000F00F1D46C0F29D800024002DC0F29480D7
:1011D00080460F4694461E46E3BB8A4255D9B2FA72
:1011E00082F747B1C7F1200520FA05F601FA07F1A9
:1011F000BA40B8403143170CB1FBF7F61FFA82FC36
:1012000007FB16110CFB06F5030C43EA01439D4254
:1012100008D9711E9B1880F013819D4240F2108105
:10122000023E9B18591BB1FBF7F507FB15130CFB8E
:1012300005FC80B240EA03418C4507D96B1E8A1831
:1012400080F00081944540F2FD80023D45EA064170
:10125000002503E08B420CD9002529460A462B467F
:1012600014B1524263EB430310461946BDE8F00F38
:101270007047B3FA83F5002D40F087808B4201D38D
:101280008242EAD800250121E8E712B90126B6FB1F
:10129000F2F2B2FA82F6002E39D18E1A130C1FFA2E
:1012A00082FC0125B6FBF3F703FB17610CFB07F883
:1012B0004FEA104949EA0146B04506D9791EB618E9
:1012C00002D2B04500F2D3800F46C8EB0606B6FB4B
:1012D000F3F103FB11630CFB01FC80B240EA034312
:1012E0009C4506D94E1E9A1802D2944500F2C2803F
:1012F000314641EA0741B1E7E443524263EB43031D
:1013000066E7404261EB41014FF0FF345DE7B240D8
:10131000C6F1200921FA09F720FA09F901FA06F1C4
:10132000130CB7FBF3F81FFA82FC03FB18770CFBD6
:1013300008F549EA01094FEA194141EA0747B04077
:10134000BD420AD9BF1808F1FF3680F08E80BD4239
:1013500040F28B80A8F10208BF18791BB1FBF3F5AE
:1013600003FB15170CFB05F61FFA89F949EA07413B
:101370008E4206D96F1E891871D28E426FD9023DF6
:1013800089188E1B45EA08458CE7C5F1200122FA31
:1013900001F306FA05F627FA01F207FA05F720FA33
:1013A00001F11E434FEA1649B2FBF9F81FFA86FA1B
:1013B00009FB18220AFB08FB0F433B0C43EA0242DD
:1013C00093450CFA05FC08D9921908F1FF314AD26D
:1013D000934548D9A8F102089219CBEB0203B3FB5D
:1013E000F9F109FB11320AFB01FABFB247EA0243E5
:1013F0009A4506D94A1E9B1933D29A4531D90239EA
:101400009B1941EA08410F0C1FFA8CF808FB07F6FC
:101410008AB24FEA1C4C08FB02F80CFB02620CFB80
:1014200007FC02EB1842964288BF0CF5803CCAEBE1
:1014300003030CEB124C63450ED305D000250DE7DA
:101440000E46EFE61D4601E700FA05F01FFA88F8A0
:1014500008EB0245A842F1D201390025FEE63D46DF
:101460008FE71146CDE78846B7E7B04675E7023FFC
:10147000B6182AE702393CE72DE9F007144605467D
:101480000E46002B3DD18A4249D9B2FA82F747B1C4
:10149000C7F1200120FA01F206FA07F6BC40BD4070
:1014A0001643220CB6FBF2F0A1B202FB106601FB60
:1014B00000F32F0C47EA0646B34208D9471E3619F7
:1014C00080F0FA80B34240F2F78002383619F61AFB
:1014D000B6FBF2F302FB136201FB03F1ADB245EA86
:1014E0000242914207D95E1E121980F0E7809142B4
:1014F00040F2E480023B43EA00400021BDE8F007EF
:1015000070478B4243D8B3FA83F4002C42D18B420C
:1015100002D3824200F2E18000210120EEE712B9FD
:101520000127B7FBF2F4B4FA84F2002A40F0898074
:101530000A1B230CA7B20121B2FBF3F603FB162210
:1015400007FB06F04FEA154C4CEA0242904207D9DD
:10155000121906F1FF3C02D2904200F2D08066469A
:10156000121AB2FBF3F003FB102307FB00F7ADB236
:1015700045EA03439F4207D9421E1B1980F0A08011
:101580009F4240F29D80023840EA0640B6E70021C3
:101590000846B3E7C4F1200622FA06F703FA04F37B
:1015A00021FA06F501FA04F120FA06F63B434FEA68
:1015B000134CB5FBFCF71FFA83F80CFB175508FB1F
:1015C00007F946EA010A4FEA1A4141EA0545A945E9
:1015D00002FA04F204D97E1EED18C0F0818037466D
:1015E000C9EB0501B1FBFCF60CFB161508FB06F870
:1015F0001FFA8AFA4AEA0541884503D9751EC918B7
:1016000074D32E4646EA0746370C1FFA82FC0CFBC1
:1016100007F5120CB3B20CFB03FC02FB035302FBF5
:1016200007F203EB1C439D4288BF02F58032C8EBF2
:10163000010102EB134291424CD343D030460021CA
:101640005CE79440C2F1200521FA05F620FA05F581
:1016500001FA02F1230CB6FBF3FCA7B203FB1C66F4
:1016600007FB0CF829430D0C45EA0646B04500FA85
:1016700002F508D936190CF1FF303ED2B0453CD9FD
:10168000ACF1020C3619C8EB0602B2FBF3F003FB17
:10169000102607FB00F889B241EA0642904506D9B8
:1016A000461E121927D2904525D902381219C8EBC7
:1016B000020240EA0C413FE7384608E733461AE7A2
:1016C000104661E700FA04F01FFA8CFC0CEB0343B0
:1016D0009842B3D2701E002110E7214620460DE744
:1016E000A9457FF67CAF023FED1879E7884588D998
:1016F000023EC91886E73046D9E78446C3E7023E72
:1017000012192DE74FF48053C4F202035A6802F015
:101710000C00082811D04FF49052C0F27A024FF416
:101720008053C4F2020358681049C0F30313C85C25
:101730000F4B22FA00F21A60704758685968C0F3DC
:1017400083420232C90309D55B689B0306D44FF478
:101750009050C0F27A0000FB02F2E0E74FF4106113
:10176000C0F23D0101FB02F2D9E700BF00000020FA
:10177000100000204FF48053C4F20203196800B532
:1017800041F00100186059680022CFF6FF020A40BC
:101790005A601A68002122F0847020F480321A60A6
:1017A000186885B020F480221A6058681A4620F420
:1017B000FE0058604FF41F00986001910291039160
:1017C000196841F48030186003E00198B0F5A06F0B
:1017D00009D0136803F4003102910198431C01936E
:1017E00002990029F1D04FF48052C4F2020213682A
:1017F00013F4003169D001200290029A012A68D0C6
:101800004FF48051C4F202010B68002243F0010042
:101810000860019203E0019AB2F5A06F09D00B684D
:1018200003F002000390019A531C019303980028CF
:10183000F1D04FF48053C4F2020319688A073BD5F4
:101840004FF40052C4F202021068194640F0100032
:101850001060106820F003001060106840F0020073
:1018600010605A685A60586858605A6842F480603C
:1018700058605A6822F47C1058605A6842F460102C
:1018800058601A6842F0807018600A684FF48053FC
:101890009001C4F20203F8D55968184621F00302FA
:1018A0005A60596841F002025A60436803F00C0123
:1018B0000829FAD1FFF726FF4FF46D40CEF2000061
:1018C0004FF00062826005B000BD0291029A012AC9
:1018D00096D14FF40052C4F2020210684FF48053C4
:1018E00040F0100111601068C4F2020320F00301FF
:1018F00011601068194640F0020010605A685A6082
:10190000586858605A6842F4806058605A6822F4F7
:101910007C1058605A6842F4E81058601A6842F027
:10192000807018600A684FF480539001C4F202037B
:10193000F8D55968184621F003025A60596841F0F9
:1019400002025A60436803F00C010829FAD1B3E798
:1019500040F0BF604FF46D4340F40031CEF200031D
:10196000D9607047C37830B47BB90078012100F0AA
:101970001F0201FA02F140094FF46143CEF2000365
:10198000203043F8201030BC70474FF46D44CEF245
:101990000004E5684478EA43C2F302230F2525FAE0
:1019A00003F2C3F1040104FA01F48578037802EA32
:1019B000050121430A0103F16043D1B203F56142FD
:1019C00082F800130078012100F01F0301FA03F1EF
:1019D0004FF46143CEF20003420943F82210D2E7EC
:1019E00042680B6870B422F470250C7925F4807677
:1019F00046EA030242EA0423436086688C68CA68A8
:101A00004FF2FD73CFF6F1734D7922433340134308
:101A100043EA45028260097CC26A4B1E22F47001CF
:101A2000DAB241EA0253C36270BC7047836819B9E5
:101A300023F001018160704743F00102826070472A
:101A4000836819B923F480718160704743F4807210
:101A500082607047836843F008018160704700BF6F
:101A60008068C0F3C0007047836843F00401816060
:101A7000704700BF8068C0F380007047836819B961
:101A800023F4A0018160704743F4A0028260704794
:101A9000092970B401EB41041ED91E3C072606FA41
:101AA00004F603FA04F4C568062A25EA060343EAA5
:101AB0000403C3601DD90C2A02EB820227D9413AE4
:101AC0001F2404FA02F401FA02F1C36A23EA0402B1
:101AD0000A43C26270BC7047072606FA04F603FA8E
:101AE00004F40569062A25EA060343EA04030361B0
:101AF000E1D8541E04EB84031F2404FA03F401FA12
:101B000003F1426B22EA04030B434363E2E7233A07
:101B10001F2404FA02F401FA02F1036B23EA04021F
:101B20000A430263D6E700BF10B4082104684FF6E9
:101B3000FE72C4F202010023224088420260036068
:101B400043608360C36047D01C23C4F20203984201
:101B500049D03022C4F2020290424CD04421C4F257
:101B6000020188424FD05823C4F2020398425BD04E
:101B70006C22C4F2020290425ED08021C4F20201C3
:101B800088421FD04FF48163C4F20203984221D0EF
:101B900040F21C42C4F20202904255D04FF48661DA
:101BA000C4F20201884258D040F24443C4F2020316
:101BB00098425BD04FF48B62C4F2020290422AD06A
:101BC00010BC70470021C4F202014A6842F0706004
:101BD0004860F5E74FF48063C4F202035A6842F0AC
:101BE0000F015960ECE70023C4F20203596841F089
:101BF000F0005860E4E70021C4F20201486840F4B4
:101C000070624A60DCE70020C4F20200426842F4DD
:101C100070434360D4E74FF48060C4F2020041682F
:101C200041F470234360CBE70020C4F20200436814
:101C300043F470214160C3E70023C4F202035968F2
:101C400041F470025A60BBE74FF48061C4F20201B4
:101C50004B6843F0F0004860B2E74FF48063C4F291
:101C60000203586840F470625A60A9E74FF480603C
:101C7000C4F20200426842F470414160A0E700BF34
:101C80008B68F0B40D6A0C694A691D438E6945EA98
:101C900004031343CA6905684F6A43EA0604144300
:101CA0008E6A25F4FF4C27430D68CC682CF0700336
:101CB00049683E431E43066044608560C160F0BCD5
:101CC000704700BF29B902684FF6FE7313400360E6
:101CD0007047016841F001020260704703681AB959
:101CE00023EA01010160704719430160704700BF9A
:101CF000406880B2704700BFC3004CBF4FF48063A0
:101D00000023C4F202035860704700BF837930B4E7
:101D10003BB34FF48063C4F2010301681D68CC43F8
:101D200025401D605D6802792C4002F180455C60B1
:101D300005F5823215684479294311600268986874
:101D4000D14308409860D868102C01EA0001D9609E
:101D500013D004F1804303F5823421680A432260E2
:101D600009E00279016802F1804000F582331A68C7
:101D700022EA01021A6030BC7047986810439860EC
:101D8000D9680A43DA60F6E74FF48063C4F20103CE
:101D90001A68596910EA010304D010420CBF0020F0
:101DA00001207047184670474FF48063C4F2010366
:101DB000586170474FF4005340F2231148F6AB12BC
:101DC000C4F20203C4F26751CCF6EF5259605A6074
:101DD000704700BF4FF40053C4F202031A6942F087
:101DE00080001861704700BF4FF40053C4F2020333
:101DF000D86070474FF40053C4F20203DA68D20788
:101E00000BD4D868400701D502207047D96811F07B
:101E1000100F0CBF0420032070470120704700BF43
:101E200010B50446FFF7E6FF012815D1B4B1FFF75E
:101E3000E1FF013C012804F001030DD174B10BB1A5
:101E400005E05CB1FFF7D6FF013C012804D1FFF7A4
:101E5000D1FF013C0128F4D004B110BD052010BD14
:101E600070B5002382B005464FF400500C46019334
:101E7000FFF7D6FF042801D002B070BD4FF4005622
:101E8000C4F202063269A1B242F0010030614FF49F
:101E900000502980FFF7C4FF042805D0326941F6BD
:101EA000FE7313403361E7E7023501950199240C75
:101EB0000C804FF40050FFF7B3FF326941F6FE7318
:101EC00013403361D8E700BF38B505464FF43020E2
:101ED000FFF7A6FF042800D038BD4FF40054C4F229
:101EE000020423694FF4302043F00201216165614F
:101EF000226942F040032361FFF792FF216941F616
:101F0000FD720A40226138BDCA7830B4D30648BF9A
:101F10008B7802F00F0448BF1C430B8813F0FF0FAF
:101F20002FD013F00105016840F0EC8003F00205AA
:101F3000ADB2002D40F0D08003F00405ADB2002D0D
:101F400040F0D58003F00805ADB2002D40F0988038
:101F500003F01005ADB2002D40F09D8003F0200588
:101F6000ADB2002D40F0A28003F04005ADB2002DCF
:101F700040F0A78003F08005ADB2002D40F0CD8089
:101F80000160FF2B28D903F480718DB24168002DC8
:101F90002DD103F40075ADB2002D33D103F480656B
:101FA000ADB2002D39D103F40065ADB2002D3FD1A3
:101FB00003F48055ADB2002D44D103F40055ADB209
:101FC000002D49D103F48045ADB2002D4ED103F46C
:101FD00000439BB213B9416030BC7047282A64F3B8
:101FE0001F7100F0B080482A08BF0361F3E721F0B9
:101FF0000F01282A44EA010100F0A380482AC8D131
:102000000561C6E721F0F001282A41EA041100F039
:102010009680482AC2D10561C0E721F47061282A60
:1020200041EA042100F08980482ABCD10561BAE761
:1020300021F47041282A41EA04317CD0482AB7D1E2
:102040000561B5E721F47021282A41EA044170D0E6
:10205000482AB2D10561B0E721F47001282A41EA8B
:10206000045164D0482AADD10561ABE721F070611D
:10207000282A41EA046158D0482AA8D10561A6E778
:1020800021F47041282A41EA043168D0482A7FF4BB
:102090005FAF05615CE721F47021282A41EA044121
:1020A0005BD0482A7FF45AAF056157E721F47001ED
:1020B000282A41EA045156D0482A7FF455AF0561D9
:1020C00052E721F07061282A41EA046149D0482A88
:1020D0007FF450AF05614DE721F0F001282A41EA75
:1020E000041138D0482A7FF427AF056124E721F492
:1020F0007061282A41EA04212BD0482A7FF422AFBC
:1021000005611FE721F00F01282A44EA01011CD0D4
:10211000482A7FF40BAF056108E7282A64F31F7192
:1021200015D0482A08BF05612AE745614FE7456198
:1021300048E7456141E745613AE7456133E7456175
:102140002CE7456125E7436145E74561EEE64561DA
:1021500016E74561F6E64561EEE64561FEE6456156
:10216000F6E6456106E74561FEE600BF4FF6FF7300
:102170000221042203808170C27070478368194273
:102180000CBF00200120704701617047416170471A
:1021900000230028C4F2010300F44012B4BFDB693D
:1021A0005B68B2F5401F30B484B222D0C20217D5AA
:1021B000C0F30342032505FA02F223EA020343F0C7
:1021C000706321B1410D0A0104FA02F42343002196
:1021D000C4F201010028B4BFCB614B6030BC704732
:1021E000420D120104FA02F223EA020343F0706383
:1021F000E7E70022C4F20102556823F0706325F07E
:1022000070655560DDE700BF01F0030310B40F22D5
:102210009C0002FA04F200FA04F089080023C4F2D8
:102220000103023153F8214024EA020243F821203D
:1022300053F82120104343F8210010BC704700BF21
:1022400008B54FF4A843C4F2000398420BD0012113
:102250004FF4800000F066F94FF480000021BDE8E3
:10226000084000F05FB901214FF4001000F05AF966
:102270004FF400100021BDE8084000F053B900BF42
:10228000F0B587B00446868801A80D4600F0CCF86A
:1022900003994DF68363C4F21B33A3FB012026F0A0
:1022A0003F073A04870C160C1FFA87FC4CEA06031A
:1022B000A380228848F2A06022F001062A68330435
:1022C000C0F201001E0C8242268024D85200B1FBCD
:1022D000F2F6B1B20CF1010EA4F820E0032998BF88
:1022E0000421A18320886E8983B243F001012180FB
:1022F0002288A88822F4816323F00203AA8929890D
:102300001B041B0C3043034311439BB28AB223804E
:10231000228107B0F0BDE8884BF6FF7398421DD0CC
:1023200002EB820202EB8206B1FBF6F141F480403F
:1023300081B20E05300D08B941F001014FF49673DA
:1023400003FB07F744F6D352C1F2620282FB073661
:10235000B009431C41F400412384C2E702EB42036D
:10236000B1FBF3F291B2E4E7002341F288328380BB
:102370004BF6FF71038143814FF480430260C180BB
:1023800083817047038829B923F001010A04130CE3
:102390000380704799B241F001020280704700BF8C
:1023A000038829B923F480710A04130C0380704751
:1023B00099B241F480720280704700BF038829B946
:1023C00023F400710A04130C0380704799B241F49E
:1023D00000720280704700BF038829B923F480612E
:1023E0000A04130C0380704799B241F480620280A2
:1023F000704700BF83889BB21AB923EA010181802C
:10240000704719438180704701827047008AC0B2CB
:10241000704700BF1AB901F0FE010182704741F018
:1024200001010182704700BF4FF48053C4F20203E0
:102430005A6810B402F00C01042901D0082928D0F0
:102440004FF49052C0F27A0202604FF48053C4F20B
:1024500002035C681C49C4F303140C5D22FA04F205
:1024600042605C68C4F302240C5D22FA04F48460C8
:102470005C68C4F3C224095D22FA01F2C2605B68A1
:102480001249C3F38133CB5CB2FBF3F2026110BC9F
:1024900070475C685968C4F383420232CC030AD5A2
:1024A0005B68990307D44FF49054C0F27A0404FB9C
:1024B00002F20260C9E74FF41061C0F23D0101FB76
:1024C00002F20260C1E700BF1800002014000020E3
:1024D0004FF48053C4F202035A6919B922EA00008A
:1024E0005861704710435861704700BF4FF48053E4
:1024F000C4F202039A6919B922EA00009861704790
:1025000010439861704700BF4FF48053C4F2020338
:10251000DA6919B922EA0000D86170471043D8611E
:10252000704700BF4FF48053C4F202031A6919B90F
:1025300022EA00001861704710431861704700BF1D
:102540004FF48053C4F202035A6A42F0807058621A
:10255000704700BF70B4048C4FF4305524F001066E
:102560003404260C0684048BC4F2010524F0F30421
:102570002404240C2243068C42EA0313A842B6B278
:102580009CB223D04FF45052C4F2010290421DD0AD
:10259000B0F1804F1AD04FF48063C4F20003984228
:1025A00014D04FF40062C4F2000290420ED04FF4F7
:1025B0004063C4F20003984208D026F00A0646F0B1
:1025C000010631430483018470BC704726F0020287
:1025D00042F001063143F5E770B4048C4FF43055F6
:1025E00024F010063404260C0684048BC4F2010582
:1025F00024F440742405240D068C44EA022242EAA5
:102600000333A842B6B29BB223D04FF45052C4F267
:10261000010290421DD0B0F1804F1AD04FF4806279
:10262000C4F20002904214D04FF40062C4F20002DF
:1026300090420ED04FF44062C4F20002904208D0A3
:1026400026F0A00646F0100631430383018470BCD7
:10265000704726F0200242F0100646EA011189B2C6
:10266000F3E700BF4FF430520388C4F201029042F6
:1026700070B49BB21AD04FF45052C4F2010290428F
:1026800014D0B0F1804F11D04FF48062C4F2000238
:1026900090420BD04FF40062C4F20002904205D089
:1026A0004FF44062C4F20002904205D14FF68F729F
:1026B0004C881A4042EA04034FF48052C4F20002EC
:1026C000904234D04FF4A052C4F2000290422ED077
:1026D0004FF6FF42CE881A404FF430538D880C8855
:1026E000C4F20103324398420280858504851BD0E1
:1026F0004FF45052C4F20102904215D04FF480437F
:10270000C4F2010398420FD04FF48842C4F2010290
:10271000904209D04FF49043C4F20103984203D091
:102720000122828270BC7047097A0186F8E7038033
:102730008B88838509880185F2E700BF038C2DE92A
:10274000F00123F001021404250C0584078C0D8987
:1027500084884E88038B2E4323F073024FF4305548
:1027600027F0020312041B040F88C4F20105120CA7
:102770001B0CB6B2A842A4B242EA070246EA03031F
:102780001FD04FF45055C4F20105A84219D04FF4A0
:102790008045C4F20105A84213D04FF48845C4F225
:1027A0000105A8420DD04FF49045C4F20105A8429E
:1027B00007D0C9888480028381860384BDE8F00144
:1027C00070474FF6F776B1F80AC0B1F80E808F89DE
:1027D0001E4046EA0C0C4FF6FB738E884FF6FF4501
:1027E00048EA070725400CEA0303BCB233432C43F5
:1027F000DFE700BF038CF0B423F010021404250CB3
:102800000584068C848826F02002078B16040D8927
:10281000320C27F4E6431B0442EA05120F884E8867
:102820004FF430551B0CC4F2010543EA072342EA7A
:102830000612A842A4B29BB292B20CD04FF45055EB
:10284000C4F20105A84206D0C988848003830187A9
:102850000284F0BC70474F894FF67F7616404FF2E6
:10286000FF35B1F80CC0254046EA07164FF6BF7297
:102870008F88CC89324045EA8C0542EA071245EA46
:10288000840492B2A4B2DFE7038CF0B423F4807224
:102890001404250C0584068C0D8926F400773A046F
:1028A0008488838B120C23F0730642EA05224F883A
:1028B0004FF430553304C4F201050E881B0C42EA74
:1028C0000722A842A4B243EA060392B20CD04FF406
:1028D0005055C4F20105A84206D0C988848083837C
:1028E00081870284F0BC70474F894FF2FF76164013
:1028F0004CF6FF75B1F80CC0254046EA07264FF6A6
:10290000FF328F88CC89324045EA0C1542EA072213
:1029100045EA041492B2A4B2DFE700BF038CF0B41E
:1029200023F480521404250C0584068C858826F433
:102930000052878B16040C89320C27F4E6431B04E3
:1029400042EA04320F884E884FF430541B0CC4F214
:10295000010443EA072342EA0632A042ADB29BB229
:1029600092B20DD04FF45054C4F20104A04207D0EB
:10297000C98885808383A0F840100284F0BC70472A
:102980004BF6FF748E892C4044EA8615ADB2EFE712
:10299000F8B50B880D460446002B58D0042B00F0E8
:1029A000B080082B028C63D022F480508F88010401
:1029B0000B0C2E8969882384A08B4FF4305220F4AD
:1029C00040731805030D43EA0723208CC4F201026B
:1029D00043EA0633944280B29BB230D04FF4505257
:1029E000C4F2010294422AD0B4F1804F27D04FF4B0
:1029F0008062C4F20002944221D04FF40062C4F21B
:102A0000000294421BD04FF44062C4F20002944290
:102A100015D047F6FF52024041F480510A43A38388
:102A20002284A38BE88823F4406211040B0CA38357
:102A3000A28B91B241EA002083B2A383F8BD20F4B7
:102A4000005040EA013291B241F48052E7E74988F0
:102A5000AA882B89FFF77EFD238BE98823F00C02DF
:102A60001004030C2383228B90B208432083F8BD0B
:102A700022F4807637043A0C89882F896E88028484
:102A8000808B4FF4305220F0F3031804030C43EA18
:102A90000713208CC4F201029BB2944280B243EA35
:102AA000010341D04FF45051C4F201018C423BD09C
:102AB000B4F1804F38D04FF48062C4F200029442E7
:102AC00032D04FF40061C4F200018C422CD04FF49C
:102AD0004062C4F20002944226D04FF2FF510140FE
:102AE00046F480763143A3832184A38BE88823F0C6
:102AF0000C0211040B0CA383A28B91B20143A1839E
:102B0000F8BD4988AA882B89FFF766FD208BEA88E3
:102B100020F440631904080C2083238B99B241EA06
:102B2000022290B22083F8BD20F4007040EA062211
:102B300091B241F48071D6E700234FF6FF71818096
:102B40000380C38043800372704700BF002303806B
:102B500043808380C380038143818381C381704725
:102B600000230122038043808280C3800381704759
:102B7000038829B923F001010A04130C038070476C
:102B800099B241F001020280704700BFB0F84430B2
:102B900021B959044A0CA0F8442070476FEA434316
:102BA0006FEA53418AB2A0F84420704783899BB2F0
:102BB0001AB923EA01018181704719438181704765
:102BC000038B23F0080213041A0C1143018370478E
:102BD000038B23F4006213041A0C42EA01218BB226
:102BE00003837047838B23F0080213041A0C1143EC
:102BF00081837047838B23F4006213041A0C42EA2A
:102C000001218BB283837047808E80B2704700BFF2
:102C1000008F80B2704700BF808F80B2704700BFC6
:102C2000B0F8400080B27047038A828911EA03003D
:102C300092B203D011420CBF00200120704700BFA8
:102C4000C9438AB202827047038A70B5044623F4EE
:102C50004050CA880D4601040E0C16432682A389F3
:102C6000AA88288923F4B056698926F00C031043FA
:102C70001A04160C084340EA06018BB2A381A08A0D
:102C8000AA8920F4407631040B0C86B0134301A8C6
:102C9000A382FFF7C9FB4FF46056A089C4F2010676
:102CA000B44202B20CBF049E039E002A21DB2D68B1
:102CB00006EB860101EB8103AE00B3FBF6F148F2AF
:102CC0001F53C5F2EB13A3FB0106A089720900B2E2
:102CD00064251601002802FB151113DB0A013232AC
:102CE000A3FB0203C3F34310304383B2238106B036
:102CF00070BD286806EB860202EB82054300B5FB37
:102D0000F3F1DCE7C9003231A3FB0112C2F3421038
:102D10003043EAE700234FF416520C21026083800F
:102D2000C380038141818381704700BF838929B9B2
:102D300023F400510A04130C8381704799B241F4C3
:102D400000528281704700BF01F01F0310B4C1F32D
:102D500042110124A14204FA03F30DD002290DD03F
:102D600014302AB9026822EA0301016010BC7047DE
:102D7000026813430360F9E70C30F2E71030F0E724
:102D8000838A9BB21AB923EA0101818270471943F1
:102D9000818270478088C105C80D70472DE9F043D6
:102DA000B7B005460F4690460321012204A8994674
:102DB00008F000F806A808F01FFC41F26F26089CF6
:102DC00043F2BE71C3F68336C3F2867194E80900FC
:102DD00001AA4660816000249E6009A84FF07E53DE
:102DE000032101930294039408F0C6FB0CA841460A
:102DF00008F048FC0FA8494608F044FC27A82146E3
:102E000008F08AFF2AA8394608F03CFC284604A9A5
:102E1000C82212F085FB284637B0BDE8F08300BF1A
:102E200010B50023B2B040F6F0044CF6CD4244F2A7
:102E3000AE716846C3F64C62C2F20004C3F661612B
:102E4000C4F2C813FFF7AAFF20466946C82212F051
:102E500067FB32B010BD00BFF0B50D46002183B056
:102E6000C4F2C821FDF756FF40F6F00402AAC2F2F0
:102E7000000442F8040D012104F1380008F07CFB45
:102E8000276929463E6828467560FDF743FF7B6841
:102E9000B06020469D6008F06FF8D4F89400816817
:102EA000086803B0F0BD00BF70B51D4C064623781E
:102EB0003BB11C4D04F0E4FE2A68B618B0420BD2B8
:102EC00070BD04F0DDFE174D29683231884219D2F9
:102ED00020780028EED170BD4FF40063C4F20103E6
:102EE00000214FF480502170186104F0C9FE0E4B90
:102EF0000C4A1978106009B1481E18700B4B01225A
:102F00001A7070BD4FF40061C4F2010101204FF44A
:102F1000805220704A6104F0B3FE286070BD00BF8B
:102F2000BA090020C0090020EC0F0020BB090020D6
:102F300070B5274C82B025788DF8062002AA8DF84E
:102F400005108DF807308DF80400531913F8040CA0
:102F50004438C1B20A290DD93226022D14D8304680
:102F6000FFF7A2FF2278022A0ED81A4B1878012800
:102F700026D107E0184E022D36F8116004D8002E35
:102F8000EDD1144B21780EE004F07AFE134B821B36
:102F90001868824216D80F4B1878012800D07EB9E5
:102FA0002178022901D801312170002018704FF4D6
:102FB00000620B4BC4F201024FF480511870116192
:102FC00002B070BD074A002121701170E3E700BF15
:102FD000B8090020BB0900200C830108C0090020AB
:102FE000BA090020EC0F00202DE9F041524F0446B1
:102FF000FB7A524D002B4BD0012028704FF400700B
:1030000002F08CFB00282FD14D4E102002F064FB03
:1030100048B1FB79002B3DD04A49CB7A002B3DD1FA
:10302000494B012119703278022A4DD0012A53D020
:1030300045480178012957D02B78012B5CD0042C0E
:1030400062D0022C68D0012C6ED0404A1078002843
:1030500035D14FF400623E49C4F201024FF480536F
:1030600008701361BDE8F0813A493B480B8890F83D
:103070009F2019B202EB8206B14213DD314E767801
:1030800096B92F4E02213170002BBED13370BCE7B0
:103090002B70B3E7284A107A0028BDD12A480022B5
:1030A0000270C0E7264EEFE790F8A000244E1218F9
:1030B00002EB8202012091423070E5DDE2E732202E
:1030C000BDE8F041FFF7F0BE4E214C200A464423F4
:1030D000BDE8F041FFF72CBF4D2153204C220B4699
:1030E000BDE8F041FFF724BF532001464E224D2397
:1030F000BDE8F041FFF71CBF5320014602464D23B7
:10310000BDE8F041FFF714BF4D2153200A46442388
:10311000BDE8F041FFF70CBF532001464D22442388
:10312000BDE8F041FFF704BF53204D214E22442358
:10313000BDE8F041FFF7FCBE5C1C0020BC0900208C
:10314000B9090020D8110020BD090020EC0F002093
:10315000BA0900208A0F0020A412002070B5B0FB2D
:10316000F2F406461546084614B12046FFF7F6FF6E
:1031700005FB1464024B195D00F8011B70BD00BF14
:1031800054840108000000002DE9F84F037802463E
:103190000130202BFAD0092BF8D02D2B114600F04E
:1031A00036812B2B04BF02464B7800270026C3F63E
:1031B000F077A3F130095FFA89F0092800F2418124
:1031C00002F101080024002500230022C4F2240398
:1031D00020462946FDF77EF9044648460D46FDF790
:1031E00013F902460B4620462946FCF7C1FF42462A
:1031F00018F8013B0D46A3F130095FFA89F109295E
:103200000446E1D92E2B00F0D1801378652B11D024
:10321000452B0FD000230022C3F6F0732046294629
:10322000FDF758F932463B46FDF754F9FDF714FC1B
:10323000BDE8F88F53782D2B00F0F9802B2B00F090
:10324000FB80501C4FF0000BA3F13002092A00F262
:10325000FB804FF0000808EB880803EB480110F8EA
:10326000013FA1F13008A3F13002092AF3D9B8F5E2
:103270009A7F40F2D3804FF49A7848F21F59A8F110
:103280003208C5F2EB19A9FB083C73A3D3E900236C
:1032900000210020C3F6F071CCF30019FDF71AF9F4
:1032A000B8F1310F02460B4618D9B9F1000F02D020
:1032B000A8F132080BE010461946A8F1640866A38D
:1032C000D3E90023FDF706F963A3D3E90023FDF753
:1032D00001F9B8F1310F02460B46ECD8B8F1070FEF
:1032E0002ED9104619465EA3D3E90023FDF7F2F864
:1032F000A8F1080AD146B9F1070F02460B46CAF3F6
:10330000C00A1BD9BAF1000F05D055A3D3E9002399
:10331000A9F108090BE010461946A9F1100950A3BC
:10332000D3E90023FDF7D6F84DA3D3E90023FDF739
:10333000D1F8B9F1070F02460B46ECD808F00708A0
:10334000B8F1000F29D0194600231046C4F2240317
:103350000022FDF7BFF808F1FF38C14602460B46D0
:1033600008F00108B9F1000F17D0B8F1000F09D12A
:10337000194600231046C4F224030022FDF7AAF8E0
:1033800009F1FF3900230022C4F22403FDF7A2F85B
:10339000B9F1010902460B46EAD1BBF1000F3FF437
:1033A0003DAF20462946FDF7BFF93BE7537802F1D0
:1033B000010EA3F13000C1B209294AD84FF000092B
:1033C00002F1020A4FF00008C4F22409FDF71CF8CC
:1033D00042464B46FDF7A8F902460B4620462946D1
:1033E000FCF7C6FE00230022C4F2240304460D4667
:1033F00040464946FDF76EF852461AF8013B8046B2
:10340000A3F130008946C1B20929DFD9FEE60027C1
:1034100002464B780026CBF6F077CAE6B8F1310FBA
:103420003FF62BAF00230022C3F6F07356E7901C43
:1034300093784FF0010B07E79378901C4FF0000B47
:1034400002E700240025DDE600230022C3F6F07326
:10345000A3E77246DAE600BF9A647EC50E1B514AA6
:103460000000000084D7974148F27C40C0F601007C
:1034700004F09ABE48F2AC4038B5C0F6010048F2FC
:10348000C444C0F6010404F08FFE48F2CC4148F277
:10349000D0422046C0F60101C0F601020BF0F6FC56
:1034A00048F2F84148F200522046C0F60101C0F649
:1034B00001020BF0EBFC48F2145148F22052204676
:1034C000C0F60101C0F601020BF0E0FC48F24051E9
:1034D00048F248522046C0F60101C0F6010248F603
:1034E0008C050BF0D3FCC0F6010548F2785120465C
:1034F0002A46C0F601010BF0C9FC48F2805148F29F
:1035000088522046C0F60101C0F601020BF0BEFC55
:1035100048F29C5120462A46C0F601010BF0B6FC49
:1035200048F2A45148F2A8522046C0F60101C0F664
:1035300001020BF0ABFC48F2C45148F2CC522046D9
:10354000C0F60101C0F601020BF0A0FC48F2E05108
:1035500048F2E8522046C0F60101C0F601020BF025
:1035600095FC48F2F85148F2FC522046C0F60101A1
:10357000C0F601020BF08AFC48F22C6148F220628E
:103580002046C0F60101C0F601020BF07FFC48F2B4
:1035900034612046C0F601012A46BDE838400BF0F0
:1035A00075BC00BFF8B504F06BFB44F6D353C1F211
:1035B0006203A3FB00212C4C2C4823780278890954
:1035C0002B480BF063FC02F0A3F82A4A4DF6836502
:1035D0001668C4F21B350746A5FB06032648990C5E
:1035E0000BF054FC0022254E25491446012505E028
:1035F000611CCCB256F82410224669B105FA02F0DB
:103600000742F5D01F480BF041FC611CCCB256F8C4
:10361000241022460029F1D1012002F05DF868B99A
:10362000194804F0C1FD19490C8803F0F1F902466C
:1036300017482146BDE8F8400BF028BC154C164B46
:103640002178164853F821100BF020FC207802282E
:10365000E6D1134A134892F85C40002C0CBF6E214F
:103660006F210BF013FCDBE740000020441C00201E
:103670004086010810000020808601086C91010836
:103680003C860108A0860108208801083610002029
:10369000B4860108F010002040840108A4860108C7
:1036A000A4120020B08601082DE9F041064612F070
:1036B00093F910F0FF0F23D0C7B2234930463A46A2
:1036C00012F0BAF9044600282AD0204CDFF888808E
:1036D000002504E0DDB258F82540002C1BD021461F
:1036E00030463A4612F0A8F96B1C0028F2D1184A6D
:1036F00018481D4621465371BDE8F0410BF0C6BB8A
:103700001348154B417915484A1E53F82210BDE85D
:10371000F0410BF0BBBB1248BDE8F04104F044BDE2
:10372000104804F041FD0C4D084901340E48E4B244
:103730000BF0ACFB55F824100029F6D10B48BDE87E
:10374000F04104F031BD00BFF0860108D8860108C1
:10375000A41200202487010858830108DC86010890
:103760000C870108F8860108A08601082088010856
:1037700038B50C680546204612F02EF90246286836
:103780002146BDE8384012F057B900BF48F2387002
:1037900008B5C0F6010004F007FD002001F0C4FDEB
:1037A00048F24470C0F6010004F0FEFC0A2004F068
:1037B000A3FA0020BDE8084004F092BB2DE9F04FC9
:1037C0008BB0804612F008F908284CD09D4C9E48DA
:1037D00004F0EAFCA0789D4D0290607995F88CA0E9
:1037E00095F88D8094F800B094F8019005900AA89F
:1037F000E278804495F88EC082440AF80CBC08F840
:103800000C9CDDF8088095F89210844495F88FE0C0
:1038100095F8907095F8916095F89330039225791A
:103820000CF80C8CDDF80CC0864404950EF80CCC1A
:10383000DDF810E0C71907F80CECE279A579059FCF
:1038400044188619C31806F80C7C814804F80C5CEF
:1038500007A903F80C2C00228DF824200BF016FB8E
:103860000BB0BDE8F08F7B4A98F800101068C24694
:1038700043185D7808F1060C05F00306022E08BF18
:1038800020390AF8011B116898F80170CDF810C0B2
:10389000C819437808F1020603F00305022D08BF9A
:1038A000203F88F80170116898F8027008F1040B45
:1038B000C819437898F8031003F00305022D08BFD8
:1038C000203F88F80270106808F1030743185D78FC
:1038D00005F00300022808BF203988F80310136898
:1038E00098F804105D186878156800F00303022B3F
:1038F00014BF0C46A1F1200498F8051088F8044084
:103900006818457808F1050305F00300022814BF84
:103910000C46A1F120040393116898F8063088F84A
:103920000540CC186578126805F00300022898F865
:10393000075008BF203B88F806305319597808F122
:10394000070401F003000294022898F800903D4C0F
:1039500008BF203D88F807502046494611F060FF17
:1039600020B15046494611F05BFF18B13A4804F0C7
:103970001BFC75E798F8012020461146019211F0D2
:103980004FFF019B0028F1D03046194611F048FF47
:103990000028EBD198F802602046314611F040FF34
:1039A0000028E3D03846314611F03AFF0028DDD137
:1039B00098F803602046314611F032FF0028D5D038
:1039C0005846314611F02CFF0028CFD198F80460FA
:1039D0002046314611F024FF0028C7D00398314615
:1039E00011F01EFF0028C1D198F80560204631462D
:1039F00011F016FF0028B9D00498314611F010FFDD
:103A00000028B3D198F806602046314611F008FF2F
:103A10000028ABD00298314611F002FF0028A5D152
:103A2000EDB22046294611F0FBFE00289ED008F199
:103A30000800294611F0F4FE002897D1404601F015
:103A40005BF9C4E61899010874870108A4120020E4
:103A50005489010868000020548701082DE9F843C3
:103A6000074611F0B9FF044601F074FE0646DCB9C2
:103A7000334804F099FB334D3349012703E055F8EF
:103A8000041F013459B107FA04F03042F7D02F482F
:103A90000BF0FCF955F8041F01340029F3D12C4830
:103AA000BDE8F84304F080BB38462A49224611F0AD
:103AB000C3FF002827D03B782D2B36D04FF00009CC
:103AC000DFF8808020494646002504E056F8041FB0
:103AD0000135002924D03846224611F0ADFF0028D8
:103AE000F4D1012000FA05F0B9F1000F22D001F065
:103AF00027FE194804F058FB184858F82510BDE86F
:103B0000F8430BF0C3B9164804F04EFB0D4C0E49B8
:103B10000E480BF0BBF954F8041F0029F8D1BEE79A
:103B20001048BDE8F84304F03FBB0137013C4FF0BB
:103B30000109C5E701F0FCFD0B4804F035FBDBE7AC
:103B400090870108248301088C870108A08601085A
:103B500020880108F0860108D887010854890108E7
:103B6000A4870108BC870108E487010870B50646F0
:103B700048F2F070C0F6010004F016FB40F6C412E3
:103B8000C2F200020023154645F8043B043545F80F
:103B9000043B45F8043B45F8043B45F8043B45F835
:103BA000043B45F8043B45F8043B45F8043B40F62C
:103BB000F41441F2141145F8043BC2F20004C2F2BD
:103BC0000001304653602B6023600B70BDE87040ED
:103BD000FFF7DCBD48F6080008B5C0F6010004F0A8
:103BE000E3FA012001F00CFC48F62400C0F60100C5
:103BF00004F0DAFA0A2004F07FF80020BDE808405B
:103C000004F06EB938B5044611F0E6FEC1B20029E1
:103C10005BD13A4C3A48B4F86A200BF037F90121ED
:103C2000B4F86C2036480BF031F90221B4F86E205C
:103C300033480BF02BF90321B4F8702030480BF017
:103C400025F90421B4F872202D480BF01FF9052145
:103C5000B4F874202A480BF019F90621B4F876203C
:103C600027480BF013F90721B4F8782024480BF00B
:103C70000DF90821B4F87A2021480BF007F9092141
:103C8000B4F87C201E480BF001F90A21B4F87E201C
:103C90001B480BF0FBF80B21B4F8802018480BF000
:103CA000F5F80C21B4F8822015480BF0EFF80D213F
:103CB000B4F8842012480BF0E9F81148B4F88620D3
:103CC0000E21BDE838400BF0E1B8204611F0D6F8DF
:103CD0000E28054605DD0B480F21BDE838400BF0E6
:103CE000D5B82021204611F09BFD11F0C7F8034BF9
:103CF00003EB4505A5F86A0038BD00BFA4120020FB
:103D00003488010840880108931E222B88BF0A22AC
:103D1000031E10B50C4605DBFFF720FA00210170E9
:103D2000204610BD2D2001F8010B5842FFF716FA6E
:103D300000220270204610BD70B5002386B00C46EC
:103D400000210546039304930593FDF79FF900288E
:103D500042D041F26F212846C3F60321FCF7D2FE80
:103D60000021C4F27A41FCF7D5FFFDF799F9064628
:103D700086EAE670A0EBE6700A226946FFF7C4FF08
:103D8000002E31DB20218DF80C10684611F024FE46
:103D9000012803AD32D002283CD0032869462846CA
:103DA00026D011F017FD284611F016FE0338C6B2D2
:103DB00032462946204611F0ADFE0021A15520468D
:103DC00011F00AFE2E22431C2254A919E01811F00A
:103DD000A5FD204606B070BD41F26F212846C3F60E
:103DE0000321FCF78DFEBBE72D208DF80C00CCE7FE
:103DF00030228DF80D2011F0EDFCD4E73026284656
:103E000069468DF80D608DF80E608DF80F6011F029
:103E1000E1FCC8E73023284669468DF80D308DF85F
:103E20000E3011F0D7FCBEE730B5037983B00446FD
:103E30000D46052B11D8DFE803F01C1F23262A03AB
:103E4000806869460068FFF777FF01461C480BF061
:103E50001DF8002D1ED103B030BD002119480BF014
:103E600015F8002DF7D01848E16822690BF00EF81C
:103E7000F1E781680978F1E7806890F90010EDE7D3
:103E800083681988EAE78268B2F90010E6E781687A
:103E90000968E3E7E068FCF7E9FE6946FFF74CFFD5
:103EA00001460A480AF0F2FF2069FCF7DFFE694686
:103EB000FFF742FF014605480AF0E8FFCBE700BFE5
:103EC0006888010874880108708801086C880108F6
:103ED0002DE9F84F804611F07FFD0746002877D086
:103EE000012871D040463D2111F09AFC002869D08C
:103EF000441C204610F0C2FF83462046FFF744F9D9
:103F0000594F82463C680025204611F065FD214648
:103F100002464046B94611F08FFD08B3012514262C
:103F20000EE07C580135204611F056FD2146024630
:103F3000404611F081FD98B10135612D00F083807C
:103F4000BC59DFF82491204611F046FD2146024677
:103F5000404611F071FD06F1140128360028E0D129
:103F600005EB850509EB8509D9F80C00FCF77EFE09
:103F700001465046FDF780F800285FD0D9F81000C0
:103F8000FCF774FE01465046FDF76CF8002855D04A
:103F900099F8040005280CBF52465A46052807D850
:103FA000DFE800F003035A5A5E56D9F808301A7059
:103FB00021462E480AF06AFF48460021BDE8F84F26
:103FC000FFF732BFBDE8F88F98F800302A2B89D16F
:103FD000254D274804F0E8F8264829680AF056FFDE
:103FE00028463946FFF720FF234804F0DDF8012476
:103FF0001426A9591F480AF049FF04EB840205EB77
:1040000082003946FFF710FF1B4804F0CDF806F197
:1040100014010134174869580AF038FF04EB840092
:1040200005EB80003946FFF7FFFE0134124804F02B
:10403000BBF82836612CDCD1BDE8F88F0F48BDE80D
:10404000F84F04F0B1B80E48BDE8F84F04F0ACB832
:10405000D9F808301A60ABE7D9F808000280A7E762
:10406000D9F808100A60A3E7849101089088010834
:10407000788801086C890108208801089C8801085B
:10408000C48801082DE9F04F92488DB0924C0AF097
:10409000FDFE9248FFF7B6FD6279914B511E9148A3
:1040A00053F821100AF0F2FED4F8087100213846C6
:1040B000FCF7C4FF002800F0A18008AE01F04AFB25
:1040C000DFF8588288498346474688480AF0DEFE72
:1040D00057F8041F0029F8D183480F464FF0010517
:1040E000014603E058F8041F013761B105FA07F2F1
:1040F00012EA0B0FF6D07E480AF0C8FE58F8041FEB
:1041000001370029F2D17B480D4601788278019170
:10411000C17894F88CB094F88DA094F88E9094F8AF
:104120008F8094F890C094F891E094F8927094F88D
:1041300093300392447842790491817902940692F3
:104140000479C27907910CA83146019E83440BF88B
:10415000106C029E82440AF8106C039E814409F898
:10416000106C049E0594804408F8106C059E8444ED
:104170000CF8106C069E86440EF8106C5E4C079E80
:10418000C318C7195D4807F8106C03F8102C8DF898
:1041900028500AF07BFE5A4821680AF077FE29462B
:1041A0002046FFF741FE574803F0FEFF0125142685
:1041B000A15953480AF06AFE05EB850204EB820020
:1041C0000021FFF731FE4F4803F0EEFF06F1140126
:1041D00001354B4861580AF059FE05EB8500002176
:1041E00004EB8000FFF720FE0135464803F0DCFFBA
:1041F0002836612DDCD10DB0BDE8F08F25464FF09B
:10420000000808AE3AE031463846FFF795FD014612
:104210003D480AF03BFE58460021FCF719FF0028F4
:104220004BD131465846FFF787FD014636480AF024
:104230002DFE50460021FCF70BFF002839D13146F6
:104240005046FFF779FD01462F480AF01FFE484609
:104250000021FCF7FDFE40BB31464846FFF76CFDF0
:1042600001462A480AF012FE0021B8F10C0F28D0AE
:10427000D5F808713846FCF7E1FE38BB08F10108B3
:1042800041462348D5F80CB1D5F810A1D5F81491C2
:104290000AF0FCFD384600211035FCF7D9FE002855
:1042A000B1D01C480AF0F2FDADE71A480AF0EEFD65
:1042B000D2E718480AF0EAFDC1E716480AF0E6FD21
:1042C000AFE70D2114480AF0E1FDF7E608F101011E
:1042D000F8E700BFE4880108A41200208C880108D8
:1042E00058830108148901088C8701083C8901085A
:1042F0004C89010818990108849101085C8901081A
:104300006889010820880108688801085489010823
:10431000208901089C860108288901082483010856
:104320002DE9F047002588B004460295039511F069
:1043300053FB10F0FF0F40F0FD82C14CC14803F069
:1043400033FFD4F808012946FCF778FE002840F036
:104350006F83BD4801210AF099FD04A9D4F8080132
:10436000FFF7EAFC0146B9480AF090FD04A9D4F829
:104370000C01FFF7E1FC0146B4480AF087FD04A9EF
:10438000D4F81001FFF7D8FC0146B0480AF07EFDD2
:1043900004A9D4F81401FFF7CFFC0146AC480AF099
:1043A00075FDD4F818012946FCF748FE002840F0B6
:1043B0004B83A54802210AF069FD04A9D4F818012D
:1043C000FFF7BAFC0146A1480AF060FD04A9D4F841
:1043D0001C01FFF7B1FC01469C480AF057FD04A9F7
:1043E000D4F82001FFF7A8FC014698480AF04EFDDA
:1043F00004A9D4F82401FFF79FFC014694480AF071
:1044000045FDD4F828012946FCF718FE002840F0A5
:104410001D838D4803210AF039FD04A9D4F8280131
:10442000FFF78AFC014689480AF030FD04A9D4F858
:104430002C01FFF781FC014684480AF027FD04A9FE
:10444000D4F83001FFF778FC014680480AF01EFDE1
:1044500004A9D4F83401FFF76FFC01467C480AF048
:1044600015FDD4F838012946FCF7E8FD002840F096
:10447000EF82754804210AF009FD04A9D4F8380137
:10448000FFF75AFC014671480AF000FD04A9D4F870
:104490003C01FFF751FC01466C480AF0F7FC04A907
:1044A000D4F84001FFF748FC014668480AF0EEFCEA
:1044B00004A9D4F84401FFF73FFC014664480AF020
:1044C000E5FCD4F848012946FCF7B8FD002840F087
:1044D000C1825D4805210AF0D9FC04A9D4F848013D
:1044E000FFF72AFC014659480AF0D0FC04A9D4F889
:1044F0004C01FFF721FC014654480AF0C7FC04A90F
:10450000D4F85001FFF718FC014650480AF0BEFCF1
:1045100004A9D4F85401FFF70FFC01464C480AF0F7
:10452000B5FCD4F858012946FCF788FD002840F076
:104530009382454806210AF0A9FC04A9D4F8580141
:10454000FFF7FAFB014641480AF0A0FC04A9D4F8A1
:104550005C01FFF7F1FB01463C480AF097FC04A917
:10456000D4F86001FFF7E8FB014638480AF08EFCFA
:1045700004A9D4F86401FFF7DFFB014634480AF0D0
:1045800085FCD4F868012946FCF758FD002840F066
:1045900065822D4807210AF079FC04A9D4F8680146
:1045A000FFF7CAFB014629480AF070FC04A9D4F8B9
:1045B0006C01FFF7C1FB014624480AF067FC04A91F
:1045C000D4F87001FFF7B8FB014620480AF05EFC02
:1045D00004A9D4F87401FFF7AFFB01461C480AF0A8
:1045E00055FCD4F878012946FCF728FD002840F056
:1045F0003782154808210AF049FC04A9D4F878014B
:10460000FFF79AFB014611480AF040FC04A9D4F8D0
:104610007C01FFF791FB01460C480AF037FC04A926
:10462000D4F88001FFF788FB014608480AF02EFC09
:1046300004A9D4F88401FFF77FFB01460AE000BF1C
:10464000A41200207C890108A8890108B08901080A
:1046500054890108AF480AF019FCD4F888012946AA
:10466000FCF7ECFC002840F0FD81AB4809210AF082
:104670000DFC04A9D4F88801FFF75EFB0146A748AA
:104680000AF004FC04A9D4F88C01FFF755FB01469D
:10469000A2480AF0FBFB04A9D4F89001FFF74CFBF9
:1046A00001469E480AF0F2FB04A9D4F89401FFF7F2
:1046B00043FB014697480AF0E9FBD4F898012946E4
:1046C000FCF7BCFC002840F0CF8193480A210AF097
:1046D000DDFB04A9D4F89801FFF72EFB01468F48B3
:1046E0000AF0D4FB04A9D4F89C01FFF725FB01468E
:1046F0008A480AF0CBFB04A9D4F8A001FFF71CFB01
:10470000014686480AF0C2FB04A9D4F8A401FFF7C9
:1047100013FB01467F480AF0B9FBD4F8A801002139
:10472000FCF78CFC002840F0A1817B480B210AF0AB
:10473000ADFB04A9D4F8A801FFF7FEFA01467748BB
:104740000AF0A4FB04A9D4F8AC01FFF7F5FA01467E
:1047500072480AF09BFB04A9D4F8B001FFF7ECFA09
:1047600001466E480AF092FB04A9D4F8B401FFF7A1
:10477000E3FA014667480AF089FBD4F8B801002142
:10478000FCF75CFC0B2740BB63480C210AF07EFB66
:1047900004A9D4F8B801FFF7CFFA01465F480AF040
:1047A00075FB04A9D4F8BC01FFF7C6FA01465B48C3
:1047B0000AF06CFB04A9D4F8C001FFF7BDFA01466A
:1047C00056480AF063FB04A9D4F8C401FFF7B4FA11
:1047D000014650480AF05AFB0C27514E0020D6F8EB
:1047E0000C11FCF78FF904EB0714D6F810110746EB
:1047F0000020FCF787F9D6F8141180460020FCF75A
:1048000081F9A51B103DC5F3001A06F11005A5425C
:10481000814642D0BAF1000F15D0D5F80C113846B8
:10482000FCF770F9D5F8101107464046FCF76AF915
:10483000D5F8141180464846FCF764F906F12005C6
:10484000A542814629D0D5F80C113846FCF75AF913
:10485000D5F8101107464046FCF754F9D5F8141165
:1048600080464846FCF74EF905F11006D6F80C11C3
:1048700005463846FCF746F9D6F81011074640467B
:10488000FCF740F9D6F8141180462846FCF73AF9AF
:1048900006F11005A5428146D5D12248CDF8088001
:1048A000CDF80C9003F080FC4DF20A71C3F6234161
:1048B00027F00040FCF7EAFB1B491C4A002814BF04
:1048C0001046084603F070FC02984DF20A71C3F6D8
:1048D000234120F00040FCF7D9FB144D124C002876
:1048E00014BF2846204603F05FFC039B4DF20A717B
:1048F000C3F6234123F00040FCF7C8FB002814BF97
:104900002846204603F050FC094803F04DFC08B04F
:10491000BDE8F08754890108A8890108B089010819
:10492000A4120020B489010874890108788901085B
:104930002088010820464E49042211F07DF80546E2
:10494000204625BB202110F06BFF0028DFD0471C3C
:10495000384611F041F8474E5FFA80F8464C04E0C3
:1049600056F8044F0135002C5AD0214638464246AD
:1049700011F062F80028F3D1284607F0EBFC3F481D
:1049800021460AF083FA3E48FFF7CAFCBFE710F061
:1049900075FA451E0B2D50DC2046202110F040FFFB
:1049A000044600284ED0441C2046FEF7EDFB354B54
:1049B000012603EB0511C1F808012046202110F063
:1049C0002FFF044648B1441C2046FEF7DDFB2D4A6C
:1049D000013602EB0513C3F80C012046202110F02C
:1049E0001FFF044648B1441C2046FEF7CDFB254975
:1049F000013601EB0512C2F810012046202110F00B
:104A00000FFF48B10130FEF7BFFB1E4B032E03EB37
:104A10000515C5F8140107D01B4803F0C5FB76E760
:104A20001A4803F0C1FB72E71548FFF779FC6EE7FF
:104A3000174803F0B9FB174844E717480C210AF060
:104A400025FA64E70646B8E70127C6E60227C4E66A
:104A50000327C2E60427C0E60527BEE60627BCE614
:104A60000727BAE60827B8E60927B6E60A27B4E614
:104A7000C489010858830108D8860108CC89010837
:104A80008C880108A4120020E08901080C87010825
:104A9000B4890108748901081C8A01082DE9F04FC6
:104AA000DFF8508287B098F80030002B00F0F680D5
:104AB000834800F1040A03F02FFB002871D003F0B3
:104AC0004BFB0928034614D03F2812D07D4C2268A6
:104AD000002A75D00C2800F0CF800A2B00F08F80C0
:104AE0000D2B00F08C807F2B00F0CF802F2AE2D896
:104AF0006DE0744D744C2E680027324604F19C0B17
:104B00003E469146002A4FD12746002E56D00C34FF
:104B10005C45F7D34846B1460646B9F1000F18D0B8
:104B2000D9F800003968835C8C5C80189C42114481
:104B30000FD1DFF8A0E113B95BE0002B59D00EF8DC
:104B4000023010F8013F11F8014F0132A342F4D0B6
:104B50002A6012B1B94500F096805C4803F024FB4E
:104B60004F4528BF4C4608D354F80C0B03F01CFBF0
:104B7000092003F001FBBC42F6D95548002603F09A
:104B800013FB2A683446B24295D9524E305D03F089
:104B9000F3FA2A6801349442F8D303F0BDFA0028EE
:104BA0008DD107B0BDE8F08F21684A4810F044FF6E
:104BB0002A680028ABD12746002EA8D12646A6E7B2
:104BC000042879D00C2857D07F2B3FF474AF1F2BCB
:104BD0007FF671AF7E2B3FF66EAF12B9202B3FF4FC
:104BE0006AAF3C4D511C1846AB54216003F0C4FA27
:104BF00061E720230EF8023001322A60A9E7364827
:104C000003F0D2FA334D27683448002600902E492D
:104C1000EE5503A80D220C230395049610F032F9EB
:104C20000746002844D0006810F0D6FE421CBB683E
:104C3000A81898472A4900200A4698F8006042F8C8
:104C4000040B286002F1080741F8180CCAF80000AC
:104C500041F8100C41F80C0C41F8080C41F8040C18
:104C60000D1F486050609060D0602060002E98D08A
:104C7000174803F099FA1EE71A4803F095FA14480A
:104C800003F092FA17E734467DE7124B013A002110
:104C900015482260995403F087FA0CE70121134864
:104CA00088F8001003F080FA094803F07DFAFFE667
:104CB0000F4803F079FABDE70648FEF757FF70E7A3
:104CC000C8090020F4090020A4830108848A01088F
:104CD0007C8A0108C4090020208801087137000877
:104CE000E00900208C8A0108BC8A0108448A010876
:104CF000988A010814110020F8B50178054679B1A9
:104D0000084F094E0446074810F08AFDC31B621B7A
:104D1000F11808B181F88C2014F8011F0029F2D194
:104D2000F8BD00BF18990108A41200202DE9F04F2A
:104D3000EE4F4FF47C4187B0C0F601014FF4E672AC
:104D4000384610F0EDFB97F82D306FF0140C0CFB8B
:104D500003F0C3EB0376310197F82C20C3EB4374C7
:104D600000F6C41801F6C410C3EBC40500EB4006FE
:104D7000A3EB83094FEAC90305F6C41402FB06F648
:104D800003F6C41A4FEA480BA40043F2D40102FB15
:104D90000BFC0AFB02F902FB04F401FB02F148F6EA
:104DA000AD32C6F6DB0282FB060B82FB0C58CDF857
:104DB00004B082FB090A82FB01B082FB04B5E41750
:104DC00097F82E3000944FEAEC7CB7F8A640CCEB75
:104DD000A82CDDF8008004900594C3F164040294CB
:104DE000C3F1000BC8EBA524049D1FFA8BFBC04840
:104DF000AD0ACDF80CB04FEAE979C9EBAA29DDF884
:104E000008B0DDF804A00195039DF617A0F8029004
:104E1000DDF80490C6EBAA265FFA8BFA0FFA85FB41
:104E200000250580A0F804C00481C680A0F80A907F
:104E300003FB03F097F82F10B7F8A420DDF814C097
:104E400003EB8308BBF1000F4FEA4808C1F164058A
:104E5000C2EB0C040AFB0AFA019040F303825646A7
:104E60000BFB0BF001FB00F090FBF6F6701900FB5A
:104E70000BFB46F26766C6F2666686FB0BC04FEA1E
:104E8000EB79C9EBA00608EB060006B204FB06F6B8
:104E900044F6D35CC1F2620C8CFB060EC3F10A0B24
:104EA000F6171FFA8BFCC6EBAE1992480FFA8CF678
:104EB00002EB090E002EA0F800E040F32A82D4464F
:104EC00006FB06F901FB09FE9EFBFCFB0BEB050C48
:104ED0000CFB06F646F26769C6F2666989FB06BEF8
:104EE000F617C6EBAE06464436B204FB06F644F6A9
:104EF000D35BC1F2620B8BFB06C9C3F1140CF6172E
:104F00001FFA8CFBC6EBA91E0FFA8BF602EB0E09FB
:104F1000002EA0F8029040F3F381D64606FB06FB74
:104F200001FB0BF999FBFEFC0CEB050E0EFB06F6E4
:104F300046F2676BC6F2666B8BFB06B9F617C6EBDB
:104F4000A906464436B204FB06F644F6D35CC1F229
:104F5000620C8CFB06CEC3F11E0BF6171FFA8BFCFE
:104F6000C6EBAE190FFA8CF602EB090E002EA0F874
:104F700004E040F3BC81D44606FB06F901FB09FEC0
:104F80009EFBFCFB0BEB050C0CFB06F646F267697F
:104F9000C6F2666989FB06BEF617C6EBAE06464446
:104FA00036B204FB06F644F6D35BC1F2620B8BFB10
:104FB00006C9C3F1280CF6171FFA8CFBC6EBA91E15
:104FC0000FFA8BF602EB0E09002EA0F8069040F3C4
:104FD0008581D64606FB06FB01FB0BF999FBFEFC1F
:104FE0000CEB050E0EFB06F646F2676BC6F2666B1F
:104FF0008BFB06B9F617C6EBA906464436B204FB8E
:1050000006F644F6D35CC1F2620C8CFB06CEC3F10B
:10501000320BF6171FFA8BFCC6EBAE190FFA8CF6A3
:1050200002EB090E002EA0F808E040F34E81D446B2
:1050300006FB06F901FB09FE9EFBFCFB0BEB050CD6
:105040000CFB06F646F26769C6F2666989FB06BE86
:10505000F617C6EBAE06464436B204FB06F644F637
:10506000D35BC1F2620B8BFB06C9C3F13C0CF61794
:105070001FFA8CFBC6EBA91E0FFA8BF602EB0E098A
:10508000002EA0F80A9040F31781D64606FB06FBD7
:1050900001FB0BF999FBFEFC0CEB050E0EFB06F673
:1050A00046F2676BC6F2666B8BFB06B9F617C6EB6A
:1050B000A906464436B204FB06F644F6D35CC1F2B8
:1050C000620C8CFB06CEC3F1460BF6171FFA8BFC65
:1050D000C6EBAE190FFA8CF602EB090E002EA0F803
:1050E0000CE040F3E080D44606E000BFA4120020AC
:1050F000881C00200C1C002006FB06F901FB09FEA1
:105100009EFBFCFB0BEB050C0CFB06F646F26769FD
:10511000C6F2666989FB06BEF617C6EBAE064644C4
:1051200036B204FB06F644F6D35BC1F2620B8BFB8E
:1051300006C9C3F1500CF6171FFA8CFBC6EBA91E6B
:105140000FFA8BF602EB0E09002EA0F80E9040F33A
:10515000A180D64606FB06FB01FB0BF999FBFEFC82
:105160000CEB050E0EFB06F646F2676BC6F2666B9D
:105170008BFB06B9F617C6EBA906464436B204FB0C
:1051800006F644F6D35CC1F2620C8CFB069EC3F1BA
:105190005A03F6179BB2C6EBAE1B1EB202EB0B090D
:1051A000002EA0F810906DDD534606FB06FE01FBB5
:1051B0000EFB9BFBF3F35B1903FB06F646F26763FA
:1051C000C6F2666383FB06C3F617C6EBA30308EBC0
:1051D000030633B204FB03F344F6D356C1F262066E
:1051E00086FB0396DDF808B0DB171FFA8BF9C3EBDB
:1051F000A6160FFA89F39619002B46823ADD03FBB7
:1052000003F601FB06F191FBFAFA554405FB03F3A3
:1052100046F26761C6F2666181FB03C1DB17C3EB2F
:10522000A10188440FFA88F804FB08F444F6D3532C
:10523000C1F2620383FB0413E117C1EBA314B7F8B7
:10524000C810B7F8CA3012199942828205D335487E
:10525000B0F8CC308B4228BF0B46A7F8C83007B057
:10526000BDE8F08F019EDDF80CE0BEF1000F08BF35
:105270000126F5E5DDF804A0B9F1000F08BF4FF0F5
:10528000010ABCE7DDF804C0002B08BF4FF0010C99
:1052900063468AE7DDF804C0BBF1000F08BF4FF09A
:1052A000010CE64656E7DDF804B0BCF1000F08BF7C
:1052B0004FF0010BDC461FE7DDF804C0BBF1000F27
:1052C00008BF4FF0010CE646E0E6DDF804B0BCF1A3
:1052D000000F08BF4FF0010BDC46A9E6DDF804C063
:1052E000BBF1000F08BF4FF0010CE64672E6DDF897
:1052F00004B0BCF1000F08BF4FF0010BDC463BE6E9
:10530000DDF804C0BBF1000F08BF4FF0010CE6460A
:1053100004E6DDF804B0BCF1000F08BF4FF0010B4C
:10532000DC46CDE5A4120020344B2DE9F0410546C2
:105330004FF4E670BE26262100225880EF201E7111
:105340001C46197083F8C80183F8C92103F2CB16F3
:1053500005E05878997842404A4013F8031FB34259
:1053600082EA0102F5D184F8C921FCF723FD34203B
:10537000FCF73AFD4FF47C40C0F60100FCF7A4FDB9
:1053800004280DD0FCF726FDFFF7D0FC0DB9BDE8D1
:10539000F0810F2014210122BDE8F04107F04EBC3E
:1053A00016494FF47C40C0F601000968FCF758FD2F
:1053B0004FF6CC580428C0F60108E3D14FF6044656
:1053C000C0F6010606E00968FCF74AFD0428D9D1B9
:1053D0004645D7D0331903F17842A2F5FE31304665
:1053E0000968FCF73DFD371DE31903F178420836E3
:1053F0000428A2F5FE313846E5D0C3E7A412002008
:105400002DE9F04F4FF47C43C0F601031A7885B0C4
:10541000262A00F03381AD4EAD4C3068716801AF83
:1054200003C74FF4E672002120464FF0260A96F893
:1054300008B04FF0170910F021F984F800A001AB73
:105440004FF0030A03CB84F805A0282384F82290A8
:1054500084F823904FF0020A4FF037094FF02D0CDB
:105460004FF00B08C4F808A0A373E37384F81090FE
:10547000A3754FF00F0A63234FF0070914250A277D
:1054800084F81AC084F8118084F81BA084F8259051
:1054900084F8128084F827C084F82C304FF00E0C6A
:1054A000C4F84A1084F84EB01E2104234FF00808B7
:1054B0004FF0500A4FF046094FF0320B84F814C0F9
:1054C000C4F8460084F81D8084F828A084F815905C
:1054D0002176617684F82EB03221E574A577E777DE
:1054E00084F8295084F82D5084F850302A23A4F8E9
:1054F0000411A4F85230152149F69A1384F85D106E
:10550000C3F6197341F2034242F6F60165F31F42F6
:105510002366C3F67C7120230126616684F8683017
:105520002B212123A2656B486E224FF4C878A4F882
:10553000548084F8882084F8891084F88A3084F8AC
:10554000517084F85C60FFF7D7FB40F24C4BA4F835
:105550009AB00BF5487BA4F89CB04FF4966BA4F876
:10556000A2B040F27E4BA4F8A4B00BF52F7BA4F8B8
:10557000A6B04FF47A7BA4F8A8B04FF4C87BA4F887
:10558000AAB04FF0320B40F2DC524FF47F7C4FF464
:10559000FA614FF0C809A4F8ACB04FF0FF0B4FF020
:1055A000000AA4F89820A4F8C820A4F8CC10A4F805
:1055B000D020A4F8D210A4F8D620A4F8D810A4F8CB
:1055C000E410A4F8E62084F8965084F89F7084F8DC
:1055D000A09084F8C660A4F8CAC0A4F8CEC0A4F80D
:1055E000D4C084F8DA6084F8DBB084F8DC6084F836
:1055F000DD6084F8DE7084F8DF7084F8E060A4F881
:10560000E2C0A4F8E8C0A4F8EA10A4F8EC201E2236
:1056100000234FF4E13884F8F72064214FF49672A8
:10562000504684F8EEA0C4F8F080A4F8F49084F812
:10563000F65084F8F860A4F8FA10A4F8FC20C4F836
:105640000081C4F80831C4F81831C4F82831C4F80E
:105650003831C4F84831C4F85831C4F86831C4F856
:105660007831C4F88831C4F89831C4F8A831C4F846
:10567000B83105B0BDE8F04FFFF756BE5988B1F517
:10568000E67F7FF4C8AE1D79BE2D7FF4C4AE93F8DB
:10569000C811EF297FF4BFAE4FF6CB551146C0F6C7
:1056A0000105002205E05A789C784A4013F8031F50
:1056B0006240AB4282EA0101F5D100297FF4ABAE32
:1056C00000287FF4A8AE05B0BDE8F08FDC820108A9
:1056D000A41200202499010840F6F813C2F2000336
:1056E000196808420CBF00200120704740F6F813EB
:1056F000C2F200031A6810431860704740F6F813AE
:10570000C2F200031A6822EA00001860704700BF66
:1057100040F6F813C2F200031868704741F2A42360
:10572000C2F20003996808420CBF002001207047B4
:1057300041F2A423C2F200039A68104398607047B4
:1057400041F2A423C2F200039A6822EA00009860A2
:10575000704700BF41F2A423C2F20003986870476B
:105760002DE9F04107788046082090B00037C4F258
:10577000020018BF0127FCF7D7F942F24C434F480B
:10578000C4F201030022FCB2059306900792002C9C
:1057900000F08E8002250895099280264FF48073D0
:1057A000082000254FF48062C4F2020005A90A9681
:1057B0000B9320264FF400530C920D960E930F95E9
:1057C000FCF75EFA0820C4F202000121FCF77AFA25
:1057D00001264FF4602000958DF804708DF8056067
:1057E00002900395002C50D04FF4105002246946CB
:1057F000C4F201008DF81040FCF7F2F84FF410509D
:105800003246C4F2010004210323FCF741F94FF4AE
:105810001050C4F2010098F8001022460323FCF750
:1058200037F94FF41050C4F201000121FCF708F9D8
:105830004FF41050C4F201000121FCF7F7F84FF4C7
:105840001050C4F20100FCF705F94FF41050C4F2F7
:105850000100FCF705F90028F7D14FF41050C4F20D
:105860000100FCF701F94FF41050C4F20100FCF7FD
:1058700001F90028F7D14FF41050C4F201000121C2
:10588000FCF7FCF810B0BDE8F0814FF41050694609
:10589000C4F201008DF81060FCF7A2F84FF410502C
:1058A000C4F20100042132460323FCF7F1F8B8E703
:1058B000012108910994264670E700BFFC090020E9
:1058C00040F6FC13C2F2000333F8100080B27047B8
:1058D000704700BF2DE9F04F534B87B01A78029004
:1058E00032215320002A7FD0082204AB00F02CFF85
:1058F0009DF810109DF813409DF812209DF815504A
:105900009DF811609DF814009DF8173001EB0626F4
:1059100002EB042100EB0522012415B25A060FFA0E
:1059200086FB0FFA81FA50D03221082204AB5320B3
:1059300000F00AFF671C9DF81560FCB29DF813C0CB
:105940009DF81270019607EB0C279DF81190DDF879
:1059500004C09DF810809DF81460601C06EB0C26B6
:1059600008EB09289DF817C036B203903221532066
:1059700008220FFA88F83FB2202C354404ABC34408
:10598000BA440CF07F0620D0FEB1039C00F0DCFE90
:105990009DF814309DF815209DF812109DF8117097
:1059A0009DF810009DF8136003EB02229DF817305C
:1059B00001EB062600EB072031B200B216B25B06FF
:1059C000E4B283448A443544AED1029E17489BFB1F
:1059D000F4F29AFBF4F395FBF4F532807380B58012
:1059E000047007B0BDE8F08F062204AB00F0ACFEF7
:1059F0009DF811509DF810109DF813409DF812204D
:105A00009DF815009DF81430DDF808C001EB052164
:105A100002EB042203EB0020ACF80010ACF80220EB
:105A2000ACF80400DDE700BF000A0020010A0020F6
:105A300008B5144B2D211B780822532083B900F0A0
:105A40007FFF31210A22532000F07AFF53202C21BE
:105A50000B2200F075FF0C4840F20912028008BDCD
:105A600000F06EFF31210A22532000F069FF2C2143
:105A70000C22532000F064FF38219022532000F0C4
:105A80005FFFE8E7000A00205400002070B582B0F4
:105A9000002402AB06460D4603F8014D5320214673
:105AA000012200F051FE20B19DF80730E52B02D015
:105AB000204602B070BD3278044805490270054B9B
:105AC000054A29606B60AA600120F2E7000A002005
:105AD000315A0008D5580008D1580008344B3549D0
